{"abi":[{"type":"constructor","inputs":[{"name":"initialAdmin","type":"address","internalType":"address"},{"name":"initialNFTDescriptor","type":"address","internalType":"contract ISablierV2NFTDescriptor"}],"stateMutability":"nonpayable"},{"type":"function","name":"MAX_BROKER_FEE","inputs":[],"outputs":[{"name":"","type":"uint256","internalType":"UD60x18"}],"stateMutability":"view"},{"type":"function","name":"admin","inputs":[],"outputs":[{"name":"","type":"address","internalType":"address"}],"stateMutability":"view"},{"type":"function","name":"allowToHook","inputs":[{"name":"recipient","type":"address","internalType":"address"}],"outputs":[],"stateMutability":"nonpayable"},{"type":"function","name":"approve","inputs":[{"name":"to","type":"address","internalType":"address"},{"name":"tokenId","type":"uint256","internalType":"uint256"}],"outputs":[],"stateMutability":"nonpayable"},{"type":"function","name":"balanceOf","inputs":[{"name":"owner","type":"address","internalType":"address"}],"outputs":[{"name":"","type":"uint256","internalType":"uint256"}],"stateMutability":"view"},{"type":"function","name":"burn","inputs":[{"name":"streamId","type":"uint256","internalType":"uint256"}],"outputs":[],"stateMutability":"nonpayable"},{"type":"function","name":"cancel","inputs":[{"name":"streamId","type":"uint256","internalType":"uint256"}],"outputs":[],"stateMutability":"nonpayable"},{"type":"function","name":"cancelMultiple","inputs":[{"name":"streamIds","type":"uint256[]","internalType":"uint256[]"}],"outputs":[],"stateMutability":"nonpayable"},{"type":"function","name":"createWithDurations","inputs":[{"name":"params","type":"tuple","internalType":"struct LockupLinear.CreateWithDurations","components":[{"name":"sender","type":"address","internalType":"address"},{"name":"recipient","type":"address","internalType":"address"},{"name":"totalAmount","type":"uint128","internalType":"uint128"},{"name":"asset","type":"address","internalType":"contract IERC20"},{"name":"cancelable","type":"bool","internalType":"bool"},{"name":"transferable","type":"bool","internalType":"bool"},{"name":"durations","type":"tuple","internalType":"struct LockupLinear.Durations","components":[{"name":"cliff","type":"uint40","internalType":"uint40"},{"name":"total","type":"uint40","internalType":"uint40"}]},{"name":"broker","type":"tuple","internalType":"struct Broker","components":[{"name":"account","type":"address","internalType":"address"},{"name":"fee","type":"uint256","internalType":"UD60x18"}]}]}],"outputs":[{"name":"streamId","type":"uint256","internalType":"uint256"}],"stateMutability":"nonpayable"},{"type":"function","name":"createWithTimestamps","inputs":[{"name":"params","type":"tuple","internalType":"struct LockupLinear.CreateWithTimestamps","components":[{"name":"sender","type":"address","internalType":"address"},{"name":"recipient","type":"address","internalType":"address"},{"name":"totalAmount","type":"uint128","internalType":"uint128"},{"name":"asset","type":"address","internalType":"contract IERC20"},{"name":"cancelable","type":"bool","internalType":"bool"},{"name":"transferable","type":"bool","internalType":"bool"},{"name":"timestamps","type":"tuple","internalType":"struct LockupLinear.Timestamps","components":[{"name":"start","type":"uint40","internalType":"uint40"},{"name":"cliff","type":"uint40","internalType":"uint40"},{"name":"end","type":"uint40","internalType":"uint40"}]},{"name":"broker","type":"tuple","internalType":"struct Broker","components":[{"name":"account","type":"address","internalType":"address"},{"name":"fee","type":"uint256","internalType":"UD60x18"}]}]}],"outputs":[{"name":"streamId","type":"uint256","internalType":"uint256"}],"stateMutability":"nonpayable"},{"type":"function","name":"getApproved","inputs":[{"name":"tokenId","type":"uint256","internalType":"uint256"}],"outputs":[{"name":"","type":"address","internalType":"address"}],"stateMutability":"view"},{"type":"function","name":"getAsset","inputs":[{"name":"streamId","type":"uint256","internalType":"uint256"}],"outputs":[{"name":"asset","type":"address","internalType":"contract IERC20"}],"stateMutability":"view"},{"type":"function","name":"getCliffTime","inputs":[{"name":"streamId","type":"uint256","internalType":"uint256"}],"outputs":[{"name":"cliffTime","type":"uint40","internalType":"uint40"}],"stateMutability":"view"},{"type":"function","name":"getDepositedAmount","inputs":[{"name":"streamId","type":"uint256","internalType":"uint256"}],"outputs":[{"name":"depositedAmount","type":"uint128","internalType":"uint128"}],"stateMutability":"view"},{"type":"function","name":"getEndTime","inputs":[{"name":"streamId","type":"uint256","internalType":"uint256"}],"outputs":[{"name":"endTime","type":"uint40","internalType":"uint40"}],"stateMutability":"view"},{"type":"function","name":"getRecipient","inputs":[{"name":"streamId","type":"uint256","internalType":"uint256"}],"outputs":[{"name":"recipient","type":"address","internalType":"address"}],"stateMutability":"view"},{"type":"function","name":"getRefundedAmount","inputs":[{"name":"streamId","type":"uint256","internalType":"uint256"}],"outputs":[{"name":"refundedAmount","type":"uint128","internalType":"uint128"}],"stateMutability":"view"},{"type":"function","name":"getSender","inputs":[{"name":"streamId","type":"uint256","internalType":"uint256"}],"outputs":[{"name":"sender","type":"address","internalType":"address"}],"stateMutability":"view"},{"type":"function","name":"getStartTime","inputs":[{"name":"streamId","type":"uint256","internalType":"uint256"}],"outputs":[{"name":"startTime","type":"uint40","internalType":"uint40"}],"stateMutability":"view"},{"type":"function","name":"getStream","inputs":[{"name":"streamId","type":"uint256","internalType":"uint256"}],"outputs":[{"name":"stream","type":"tuple","internalType":"struct LockupLinear.StreamLL","components":[{"name":"sender","type":"address","internalType":"address"},{"name":"recipient","type":"address","internalType":"address"},{"name":"startTime","type":"uint40","internalType":"uint40"},{"name":"isCancelable","type":"bool","internalType":"bool"},{"name":"wasCanceled","type":"bool","internalType":"bool"},{"name":"asset","type":"address","internalType":"contract IERC20"},{"name":"endTime","type":"uint40","internalType":"uint40"},{"name":"isDepleted","type":"bool","internalType":"bool"},{"name":"isStream","type":"bool","internalType":"bool"},{"name":"isTransferable","type":"bool","internalType":"bool"},{"name":"amounts","type":"tuple","internalType":"struct Lockup.Amounts","components":[{"name":"deposited","type":"uint128","internalType":"uint128"},{"name":"withdrawn","type":"uint128","internalType":"uint128"},{"name":"refunded","type":"uint128","internalType":"uint128"}]},{"name":"cliffTime","type":"uint40","internalType":"uint40"}]}],"stateMutability":"view"},{"type":"function","name":"getTimestamps","inputs":[{"name":"streamId","type":"uint256","internalType":"uint256"}],"outputs":[{"name":"timestamps","type":"tuple","internalType":"struct LockupLinear.Timestamps","components":[{"name":"start","type":"uint40","internalType":"uint40"},{"name":"cliff","type":"uint40","internalType":"uint40"},{"name":"end","type":"uint40","internalType":"uint40"}]}],"stateMutability":"view"},{"type":"function","name":"getWithdrawnAmount","inputs":[{"name":"streamId","type":"uint256","internalType":"uint256"}],"outputs":[{"name":"withdrawnAmount","type":"uint128","internalType":"uint128"}],"stateMutability":"view"},{"type":"function","name":"isAllowedToHook","inputs":[{"name":"recipient","type":"address","internalType":"address"}],"outputs":[{"name":"result","type":"bool","internalType":"bool"}],"stateMutability":"view"},{"type":"function","name":"isApprovedForAll","inputs":[{"name":"owner","type":"address","internalType":"address"},{"name":"operator","type":"address","internalType":"address"}],"outputs":[{"name":"","type":"bool","internalType":"bool"}],"stateMutability":"view"},{"type":"function","name":"isCancelable","inputs":[{"name":"streamId","type":"uint256","internalType":"uint256"}],"outputs":[{"name":"result","type":"bool","internalType":"bool"}],"stateMutability":"view"},{"type":"function","name":"isCold","inputs":[{"name":"streamId","type":"uint256","internalType":"uint256"}],"outputs":[{"name":"result","type":"bool","internalType":"bool"}],"stateMutability":"view"},{"type":"function","name":"isDepleted","inputs":[{"name":"streamId","type":"uint256","internalType":"uint256"}],"outputs":[{"name":"result","type":"bool","internalType":"bool"}],"stateMutability":"view"},{"type":"function","name":"isStream","inputs":[{"name":"streamId","type":"uint256","internalType":"uint256"}],"outputs":[{"name":"result","type":"bool","internalType":"bool"}],"stateMutability":"view"},{"type":"function","name":"isTransferable","inputs":[{"name":"streamId","type":"uint256","internalType":"uint256"}],"outputs":[{"name":"result","type":"bool","internalType":"bool"}],"stateMutability":"view"},{"type":"function","name":"isWarm","inputs":[{"name":"streamId","type":"uint256","internalType":"uint256"}],"outputs":[{"name":"result","type":"bool","internalType":"bool"}],"stateMutability":"view"},{"type":"function","name":"name","inputs":[],"outputs":[{"name":"","type":"string","internalType":"string"}],"stateMutability":"view"},{"type":"function","name":"nextStreamId","inputs":[],"outputs":[{"name":"","type":"uint256","internalType":"uint256"}],"stateMutability":"view"},{"type":"function","name":"nftDescriptor","inputs":[],"outputs":[{"name":"","type":"address","internalType":"contract ISablierV2NFTDescriptor"}],"stateMutability":"view"},{"type":"function","name":"ownerOf","inputs":[{"name":"tokenId","type":"uint256","internalType":"uint256"}],"outputs":[{"name":"","type":"address","internalType":"address"}],"stateMutability":"view"},{"type":"function","name":"refundableAmountOf","inputs":[{"name":"streamId","type":"uint256","internalType":"uint256"}],"outputs":[{"name":"refundableAmount","type":"uint128","internalType":"uint128"}],"stateMutability":"view"},{"type":"function","name":"renounce","inputs":[{"name":"streamId","type":"uint256","internalType":"uint256"}],"outputs":[],"stateMutability":"nonpayable"},{"type":"function","name":"safeTransferFrom","inputs":[{"name":"from","type":"address","internalType":"address"},{"name":"to","type":"address","internalType":"address"},{"name":"tokenId","type":"uint256","internalType":"uint256"}],"outputs":[],"stateMutability":"nonpayable"},{"type":"function","name":"safeTransferFrom","inputs":[{"name":"from","type":"address","internalType":"address"},{"name":"to","type":"address","internalType":"address"},{"name":"tokenId","type":"uint256","internalType":"uint256"},{"name":"data","type":"bytes","internalType":"bytes"}],"outputs":[],"stateMutability":"nonpayable"},{"type":"function","name":"setApprovalForAll","inputs":[{"name":"operator","type":"address","internalType":"address"},{"name":"approved","type":"bool","internalType":"bool"}],"outputs":[],"stateMutability":"nonpayable"},{"type":"function","name":"setNFTDescriptor","inputs":[{"name":"newNFTDescriptor","type":"address","internalType":"contract ISablierV2NFTDescriptor"}],"outputs":[],"stateMutability":"nonpayable"},{"type":"function","name":"statusOf","inputs":[{"name":"streamId","type":"uint256","internalType":"uint256"}],"outputs":[{"name":"status","type":"uint8","internalType":"enum Lockup.Status"}],"stateMutability":"view"},{"type":"function","name":"streamedAmountOf","inputs":[{"name":"streamId","type":"uint256","internalType":"uint256"}],"outputs":[{"name":"streamedAmount","type":"uint128","internalType":"uint128"}],"stateMutability":"view"},{"type":"function","name":"supportsInterface","inputs":[{"name":"interfaceId","type":"bytes4","internalType":"bytes4"}],"outputs":[{"name":"","type":"bool","internalType":"bool"}],"stateMutability":"view"},{"type":"function","name":"symbol","inputs":[],"outputs":[{"name":"","type":"string","internalType":"string"}],"stateMutability":"view"},{"type":"function","name":"tokenURI","inputs":[{"name":"streamId","type":"uint256","internalType":"uint256"}],"outputs":[{"name":"uri","type":"string","internalType":"string"}],"stateMutability":"view"},{"type":"function","name":"transferAdmin","inputs":[{"name":"newAdmin","type":"address","internalType":"address"}],"outputs":[],"stateMutability":"nonpayable"},{"type":"function","name":"transferFrom","inputs":[{"name":"from","type":"address","internalType":"address"},{"name":"to","type":"address","internalType":"address"},{"name":"tokenId","type":"uint256","internalType":"uint256"}],"outputs":[],"stateMutability":"nonpayable"},{"type":"function","name":"wasCanceled","inputs":[{"name":"streamId","type":"uint256","internalType":"uint256"}],"outputs":[{"name":"result","type":"bool","internalType":"bool"}],"stateMutability":"view"},{"type":"function","name":"withdraw","inputs":[{"name":"streamId","type":"uint256","internalType":"uint256"},{"name":"to","type":"address","internalType":"address"},{"name":"amount","type":"uint128","internalType":"uint128"}],"outputs":[],"stateMutability":"nonpayable"},{"type":"function","name":"withdrawMax","inputs":[{"name":"streamId","type":"uint256","internalType":"uint256"},{"name":"to","type":"address","internalType":"address"}],"outputs":[{"name":"withdrawnAmount","type":"uint128","internalType":"uint128"}],"stateMutability":"nonpayable"},{"type":"function","name":"withdrawMaxAndTransfer","inputs":[{"name":"streamId","type":"uint256","internalType":"uint256"},{"name":"newRecipient","type":"address","internalType":"address"}],"outputs":[{"name":"withdrawnAmount","type":"uint128","internalType":"uint128"}],"stateMutability":"nonpayable"},{"type":"function","name":"withdrawMultiple","inputs":[{"name":"streamIds","type":"uint256[]","internalType":"uint256[]"},{"name":"amounts","type":"uint128[]","internalType":"uint128[]"}],"outputs":[],"stateMutability":"nonpayable"},{"type":"function","name":"withdrawableAmountOf","inputs":[{"name":"streamId","type":"uint256","internalType":"uint256"}],"outputs":[{"name":"withdrawableAmount","type":"uint128","internalType":"uint128"}],"stateMutability":"view"},{"type":"event","name":"AllowToHook","inputs":[{"name":"admin","type":"address","indexed":true,"internalType":"address"},{"name":"recipient","type":"address","indexed":false,"internalType":"address"}],"anonymous":false},{"type":"event","name":"Approval","inputs":[{"name":"owner","type":"address","indexed":true,"internalType":"address"},{"name":"approved","type":"address","indexed":true,"internalType":"address"},{"name":"tokenId","type":"uint256","indexed":true,"internalType":"uint256"}],"anonymous":false},{"type":"event","name":"ApprovalForAll","inputs":[{"name":"owner","type":"address","indexed":true,"internalType":"address"},{"name":"operator","type":"address","indexed":true,"internalType":"address"},{"name":"approved","type":"bool","indexed":false,"internalType":"bool"}],"anonymous":false},{"type":"event","name":"BatchMetadataUpdate","inputs":[{"name":"_fromTokenId","type":"uint256","indexed":false,"internalType":"uint256"},{"name":"_toTokenId","type":"uint256","indexed":false,"internalType":"uint256"}],"anonymous":false},{"type":"event","name":"CancelLockupStream","inputs":[{"name":"streamId","type":"uint256","indexed":false,"internalType":"uint256"},{"name":"sender","type":"address","indexed":true,"internalType":"address"},{"name":"recipient","type":"address","indexed":true,"internalType":"address"},{"name":"asset","type":"address","indexed":true,"internalType":"contract IERC20"},{"name":"senderAmount","type":"uint128","indexed":false,"internalType":"uint128"},{"name":"recipientAmount","type":"uint128","indexed":false,"internalType":"uint128"}],"anonymous":false},{"type":"event","name":"CreateLockupLinearStream","inputs":[{"name":"streamId","type":"uint256","indexed":false,"internalType":"uint256"},{"name":"funder","type":"address","indexed":false,"internalType":"address"},{"name":"sender","type":"address","indexed":true,"internalType":"address"},{"name":"recipient","type":"address","indexed":true,"internalType":"address"},{"name":"amounts","type":"tuple","indexed":false,"internalType":"struct Lockup.CreateAmounts","components":[{"name":"deposit","type":"uint128","internalType":"uint128"},{"name":"brokerFee","type":"uint128","internalType":"uint128"}]},{"name":"asset","type":"address","indexed":true,"internalType":"contract IERC20"},{"name":"cancelable","type":"bool","indexed":false,"internalType":"bool"},{"name":"transferable","type":"bool","indexed":false,"internalType":"bool"},{"name":"timestamps","type":"tuple","indexed":false,"internalType":"struct LockupLinear.Timestamps","components":[{"name":"start","type":"uint40","internalType":"uint40"},{"name":"cliff","type":"uint40","internalType":"uint40"},{"name":"end","type":"uint40","internalType":"uint40"}]},{"name":"broker","type":"address","indexed":false,"internalType":"address"}],"anonymous":false},{"type":"event","name":"MetadataUpdate","inputs":[{"name":"_tokenId","type":"uint256","indexed":false,"internalType":"uint256"}],"anonymous":false},{"type":"event","name":"RenounceLockupStream","inputs":[{"name":"streamId","type":"uint256","indexed":true,"internalType":"uint256"}],"anonymous":false},{"type":"event","name":"SetNFTDescriptor","inputs":[{"name":"admin","type":"address","indexed":true,"internalType":"address"},{"name":"oldNFTDescriptor","type":"address","indexed":false,"internalType":"contract ISablierV2NFTDescriptor"},{"name":"newNFTDescriptor","type":"address","indexed":false,"internalType":"contract ISablierV2NFTDescriptor"}],"anonymous":false},{"type":"event","name":"Transfer","inputs":[{"name":"from","type":"address","indexed":true,"internalType":"address"},{"name":"to","type":"address","indexed":true,"internalType":"address"},{"name":"tokenId","type":"uint256","indexed":true,"internalType":"uint256"}],"anonymous":false},{"type":"event","name":"TransferAdmin","inputs":[{"name":"oldAdmin","type":"address","indexed":true,"internalType":"address"},{"name":"newAdmin","type":"address","indexed":true,"internalType":"address"}],"anonymous":false},{"type":"event","name":"WithdrawFromLockupStream","inputs":[{"name":"streamId","type":"uint256","indexed":true,"internalType":"uint256"},{"name":"to","type":"address","indexed":true,"internalType":"address"},{"name":"asset","type":"address","indexed":true,"internalType":"contract IERC20"},{"name":"amount","type":"uint128","indexed":false,"internalType":"uint128"}],"anonymous":false},{"type":"error","name":"AddressEmptyCode","inputs":[{"name":"target","type":"address","internalType":"address"}]},{"type":"error","name":"AddressInsufficientBalance","inputs":[{"name":"account","type":"address","internalType":"address"}]},{"type":"error","name":"CallerNotAdmin","inputs":[{"name":"admin","type":"address","internalType":"address"},{"name":"caller","type":"address","internalType":"address"}]},{"type":"error","name":"DelegateCall","inputs":[]},{"type":"error","name":"ERC721IncorrectOwner","inputs":[{"name":"sender","type":"address","internalType":"address"},{"name":"tokenId","type":"uint256","internalType":"uint256"},{"name":"owner","type":"address","internalType":"address"}]},{"type":"error","name":"ERC721InsufficientApproval","inputs":[{"name":"operator","type":"address","internalType":"address"},{"name":"tokenId","type":"uint256","internalType":"uint256"}]},{"type":"error","name":"ERC721InvalidApprover","inputs":[{"name":"approver","type":"address","internalType":"address"}]},{"type":"error","name":"ERC721InvalidOperator","inputs":[{"name":"operator","type":"address","internalType":"address"}]},{"type":"error","name":"ERC721InvalidOwner","inputs":[{"name":"owner","type":"address","internalType":"address"}]},{"type":"error","name":"ERC721InvalidReceiver","inputs":[{"name":"receiver","type":"address","internalType":"address"}]},{"type":"error","name":"ERC721InvalidSender","inputs":[{"name":"sender","type":"address","internalType":"address"}]},{"type":"error","name":"ERC721NonexistentToken","inputs":[{"name":"tokenId","type":"uint256","internalType":"uint256"}]},{"type":"error","name":"FailedInnerCall","inputs":[]},{"type":"error","name":"PRBMath_MulDiv18_Overflow","inputs":[{"name":"x","type":"uint256","internalType":"uint256"},{"name":"y","type":"uint256","internalType":"uint256"}]},{"type":"error","name":"PRBMath_MulDiv_Overflow","inputs":[{"name":"x","type":"uint256","internalType":"uint256"},{"name":"y","type":"uint256","internalType":"uint256"},{"name":"denominator","type":"uint256","internalType":"uint256"}]},{"type":"error","name":"SablierV2LockupLinear_CliffTimeNotLessThanEndTime","inputs":[{"name":"cliffTime","type":"uint40","internalType":"uint40"},{"name":"endTime","type":"uint40","internalType":"uint40"}]},{"type":"error","name":"SablierV2LockupLinear_StartTimeNotLessThanCliffTime","inputs":[{"name":"startTime","type":"uint40","internalType":"uint40"},{"name":"cliffTime","type":"uint40","internalType":"uint40"}]},{"type":"error","name":"SablierV2LockupLinear_StartTimeNotLessThanEndTime","inputs":[{"name":"startTime","type":"uint40","internalType":"uint40"},{"name":"endTime","type":"uint40","internalType":"uint40"}]},{"type":"error","name":"SablierV2Lockup_AllowToHookUnsupportedInterface","inputs":[{"name":"recipient","type":"address","internalType":"address"}]},{"type":"error","name":"SablierV2Lockup_AllowToHookZeroCodeSize","inputs":[{"name":"recipient","type":"address","internalType":"address"}]},{"type":"error","name":"SablierV2Lockup_BrokerFeeTooHigh","inputs":[{"name":"brokerFee","type":"uint256","internalType":"UD60x18"},{"name":"maxBrokerFee","type":"uint256","internalType":"UD60x18"}]},{"type":"error","name":"SablierV2Lockup_DepositAmountZero","inputs":[]},{"type":"error","name":"SablierV2Lockup_EndTimeNotInTheFuture","inputs":[{"name":"blockTimestamp","type":"uint40","internalType":"uint40"},{"name":"endTime","type":"uint40","internalType":"uint40"}]},{"type":"error","name":"SablierV2Lockup_InvalidHookSelector","inputs":[{"name":"recipient","type":"address","internalType":"address"}]},{"type":"error","name":"SablierV2Lockup_NotTransferable","inputs":[{"name":"tokenId","type":"uint256","internalType":"uint256"}]},{"type":"error","name":"SablierV2Lockup_Null","inputs":[{"name":"streamId","type":"uint256","internalType":"uint256"}]},{"type":"error","name":"SablierV2Lockup_Overdraw","inputs":[{"name":"streamId","type":"uint256","internalType":"uint256"},{"name":"amount","type":"uint128","internalType":"uint128"},{"name":"withdrawableAmount","type":"uint128","internalType":"uint128"}]},{"type":"error","name":"SablierV2Lockup_StartTimeZero","inputs":[]},{"type":"error","name":"SablierV2Lockup_StreamCanceled","inputs":[{"name":"streamId","type":"uint256","internalType":"uint256"}]},{"type":"error","name":"SablierV2Lockup_StreamDepleted","inputs":[{"name":"streamId","type":"uint256","internalType":"uint256"}]},{"type":"error","name":"SablierV2Lockup_StreamNotCancelable","inputs":[{"name":"streamId","type":"uint256","internalType":"uint256"}]},{"type":"error","name":"SablierV2Lockup_StreamNotDepleted","inputs":[{"name":"streamId","type":"uint256","internalType":"uint256"}]},{"type":"error","name":"SablierV2Lockup_StreamSettled","inputs":[{"name":"streamId","type":"uint256","internalType":"uint256"}]},{"type":"error","name":"SablierV2Lockup_Unauthorized","inputs":[{"name":"streamId","type":"uint256","internalType":"uint256"},{"name":"caller","type":"address","internalType":"address"}]},{"type":"error","name":"SablierV2Lockup_WithdrawAmountZero","inputs":[{"name":"streamId","type":"uint256","internalType":"uint256"}]},{"type":"error","name":"SablierV2Lockup_WithdrawArrayCountsNotEqual","inputs":[{"name":"streamIdsCount","type":"uint256","internalType":"uint256"},{"name":"amountsCount","type":"uint256","internalType":"uint256"}]},{"type":"error","name":"SablierV2Lockup_WithdrawToZeroAddress","inputs":[{"name":"streamId","type":"uint256","internalType":"uint256"}]},{"type":"error","name":"SablierV2Lockup_WithdrawalAddressNotRecipient","inputs":[{"name":"streamId","type":"uint256","internalType":"uint256"},{"name":"caller","type":"address","internalType":"address"},{"name":"to","type":"address","internalType":"address"}]},{"type":"error","name":"SafeERC20FailedOperation","inputs":[{"name":"token","type":"address","internalType":"address"}]}],"bytecode":{"object":"0x60a0604052346103bf57614b706040813803918261001c816103c3565b9384928339810103126103bf5780516001600160a01b03811691908290036103bf57602001516001600160a01b038116908190036103bf5761005e60406103c3565b91601c83527f5361626c696572205632204c6f636b7570204c696e656172204e465400000000602084015261009360406103c3565b601181527029a0a116ab1916a627a1a5aaa816a624a760791b60208201523060805283519092906001600160401b0381116102d057600154600181811c911680156103b5575b60208210146102b257601f8111610352575b50602094601f82116001146102ef579481929394955f926102e4575b50508160011b915f199060031b1c1916176001555b82516001600160401b0381116102d057600254600181811c911680156102c6575b60208210146102b257601f811161024f575b506020601f82116001146101ec57819293945f926101e1575b50508160011b915f199060031b1c1916176002555b5f80546001600160a01b031990811684178255600880549091169290921790915560405191907fbdd36143ee09de60bdefca70680e0f71189b2ed7acee364b53917ad433fdaf808180a3600160075561478790816103e9823960805181613adb0152f35b015190505f80610168565b601f1982169060025f52805f20915f5b8181106102375750958360019596971061021f575b505050811b0160025561017d565b01515f1960f88460031b161c191690555f8080610211565b9192602060018192868b0151815501940192016101fc565b60025f527f405787fa12a823e0f2b7631cc41b3ba8828b3321ca811111fa75cd3aa3bb5ace601f830160051c810191602084106102a8575b601f0160051c01905b81811061029d575061014f565b5f8155600101610290565b9091508190610287565b634e487b7160e01b5f52602260045260245ffd5b90607f169061013d565b634e487b7160e01b5f52604160045260245ffd5b015190505f80610107565b601f1982169560015f52805f20915f5b88811061033a57508360019596979810610322575b505050811b0160015561011c565b01515f1960f88460031b161c191690555f8080610314565b919260206001819286850151815501940192016102ff565b60015f527fb10e2d527612073b26eecdfd717e6a320cf44b4afac2b0732d9fcbe2b7fa0cf6601f830160051c810191602084106103ab575b601f0160051c01905b8181106103a057506100eb565b5f8155600101610393565b909150819061038a565b90607f16906100d9565b5f80fd5b6040519190601f01601f191682016001600160401b038111838210176102d05760405256fe6080806040526004361015610012575f80fd5b5f3560e01c90816301ffc9a71461313757508063027b67441461311557806306fdde031461305a578063081812fc1461303c578063095ea7b314612f375780631400ecec14612e865780631c1cdd4c14612e225780631e99d56914612e0557806323b872dd14612dee578063303acc8514612db1578063406887cb14612c4257806340e58ee51461296b578063425d30dd1461291b57806342842e0e146128f257806342966c681461272e57806344267570146127085780634857501f146126975780634869e12d1461265d5780634cc55e11146122b657806353b157271461218b57806357404b12146120c55780636352211e146120965780636d0cee751461209657806370a082311461202c57806375829def14611fbe578063780a82c814611f725780637cad6cd114611e955780637de6b1db14611d485780638659c27014611991578063894e9a0d146116a95780638f69b993146116295780639067b677146115da57806395d89b41146114d2578063a22cb4651461141e578063a80fc071146113cd578063ab167ccc1461125c578063ad35efd4146111fd578063b2564569146111ad578063b88d4fde14611123578063b8a3be66146110ee578063b971302a146110a0578063bc2be1be14611051578063c156a11d14610c3c578063c87b56dd14610b31578063d4dbd20b14610ae0578063d511609f14610a95578063d975dfed14610a4a578063e985e9c5146109f1578063ea5ead19146106ac578063eac8f5b81461065b578063f590c17614610600578063f851a440146105db5763fdd46d6014610263575f80fd5b346105d75760603660031901126105d75760043561027f613264565b906102886133c6565b610290613ad1565b815f52600a60205260ff600160405f20015460a81c16156105c557815f52600a60205260ff600160405f20015460a01c166105b2576001600160a01b03831690811561059f576001600160801b031690811561058c57825f5260036020526001600160a01b0360405f20541693848214158061057c575b610561576001600160801b0361031c8561431b565b168084116105475750835f52600a60205282600260405f20015460801c016001600160801b0381116105335761037b90855f52600a602052600260405f2001906001600160801b036001600160801b031983549260801b169116179055565b835f52600a602052610392600260405f20016136aa565b6001600160801b036103b681602084015116928260408183511692015116906133fe565b161115610501575b835f52600a6020526103e2836001600160a01b03600160405f200154169283614341565b81847f40b88e5c41c5a97ffb7b6ef88a0a2d505aa0c634cf8a0275cb236ea7dd87ed4d6020604051878152a47ff8e1a15aba9398e019f0b49df1a4fde98ee17ae345cb5f6b5e2c27f5033e8ce76020604051858152a183331415806104eb575b61044857005b604051926392b9102b60e01b84526004840152336024840152604483015260648201526020816084815f865af19081156104e0576392b9102b60e01b916001600160e01b0319915f916104b1575b50160361049f57005b632187e5e760e21b5f5260045260245ffd5b6104d3915060203d6020116104d9575b6104cb8183613388565b8101906137e0565b5f610496565b503d6104c1565b6040513d5f823e3d90fd5b50835f52600960205260ff60405f205416610442565b5f848152600a6020526040902060018101805460ff60a01b1916600160a01b179055805460ff60f01b191690556103be565b634e487b7160e01b5f52601160045260245ffd5b838563287ecaef60e21b5f5260045260245260445260645ffd5b508263b34359d360e01b5f526004523360245260445260645ffd5b5061058684613b2b565b15610307565b8263d2aabcd960e01b5f5260045260245ffd5b82630ff7ee2d60e31b5f5260045260245ffd5b50634a5541ef60e01b5f5260045260245ffd5b5062b8e7e760e51b5f5260045260245ffd5b5f80fd5b346105d7575f3660031901126105d75760206001600160a01b035f5416604051908152f35b346105d75760203660031901126105d757600435805f52600a60205260ff600160405f20015460a81c161561064a575f52600a602052602060405f205460f81c6040519015158152f35b62b8e7e760e51b5f5260045260245ffd5b346105d75760203660031901126105d757600435805f52600a60205260ff600160405f20015460a81c161561064a575f52600a60205260206001600160a01b03600160405f20015416604051908152f35b346105d75760403660031901126105d7576004356106c8613264565b906106d28161431b565b906106db613ad1565b805f52600a60205260ff600160405f20015460a81c161561064a57805f52600a60205260ff600160405f20015460a01c166109df576001600160a01b0383169182156109cc576001600160801b03169182156109b957815f5260036020526001600160a01b0360405f2054169384821415806109a9575b61098e576001600160801b036107678461431b565b168085116109745750825f52600a60205283600260405f20015460801c016001600160801b038111610533576107c690845f52600a602052600260405f2001906001600160801b036001600160801b031983549260801b169116179055565b825f52600a6020526107dd600260405f20016136aa565b6001600160801b0361080181602084015116928260408183511692015116906133fe565b161115610942575b825f52600a60205261082d846001600160a01b03600160405f200154169283614341565b81837f40b88e5c41c5a97ffb7b6ef88a0a2d505aa0c634cf8a0275cb236ea7dd87ed4d6020604051888152a47ff8e1a15aba9398e019f0b49df1a4fde98ee17ae345cb5f6b5e2c27f5033e8ce76020604051848152a1833314158061092c575b61089d575b602083604051908152f35b604051916392b9102b60e01b8352600483015233602483015260448201528160648201526020816084815f875af19081156104e0576392b9102b60e01b916001600160e01b0319915f9161090d575b5016036108fa578180610892565b50632187e5e760e21b5f5260045260245ffd5b610926915060203d6020116104d9576104cb8183613388565b856108ec565b50835f52600960205260ff60405f20541661088d565b5f838152600a6020526040902060018101805460ff60a01b1916600160a01b179055805460ff60f01b19169055610809565b848463287ecaef60e21b5f5260045260245260445260645ffd5b509063b34359d360e01b5f526004523360245260445260645ffd5b506109b383613b2b565b15610752565b5063d2aabcd960e01b5f5260045260245ffd5b50630ff7ee2d60e31b5f5260045260245ffd5b634a5541ef60e01b5f5260045260245ffd5b346105d75760403660031901126105d757610a0a61324e565b6001600160a01b03610a1a613264565b91165f5260066020526001600160a01b0360405f2091165f52602052602060ff60405f2054166040519015158152f35b346105d75760203660031901126105d757600435805f52600a60205260ff600160405f20015460a81c161561064a57610a8460209161431b565b6001600160801b0360405191168152f35b346105d75760203660031901126105d757600435805f52600a60205260ff600160405f20015460a81c161561064a575f52600a6020526020600260405f20015460801c604051908152f35b346105d75760203660031901126105d757600435805f52600a60205260ff600160405f20015460a81c161561064a575f52600a60205260206001600160801b03600360405f20015416604051908152f35b346105d75760203660031901126105d757600435610b4e81613800565b505f6001600160a01b0360085416916044604051809481937fe9dc637500000000000000000000000000000000000000000000000000000000835230600484015260248301525afa80156104e0575f90610bbf575b610bbb90604051918291602083526020830190613229565b0390f35b503d805f833e610bcf8183613388565b8101906020818303126105d75780519067ffffffffffffffff82116105d757019080601f830112156105d757815191610c07836133aa565b91610c156040519384613388565b838352602084830101116105d757610bbb92610c379160208085019101613208565b610ba3565b346105d75760403660031901126105d757600435610c58613264565b610c60613ad1565b815f52600a60205260ff600160405f20015460a81c16156105c557815f5260036020526001600160a01b0360405f2054169081330361103a576001600160801b03610caa8461431b565b169081158015610d33575b506001600160a01b03811615610d2057610cd7846001600160a01b0392613997565b169182610cf15783637e27328960e01b5f5260045260245ffd5b8084918403610d0557602083604051908152f35b9091506364283d7b60e01b5f5260045260245260445260645ffd5b633250574960e11b5f525f60045260245ffd5b610d3b613ad1565b845f52600a60205260ff600160405f20015460a81c161561102857845f52600a60205260ff600160405f20015460a01c1661101557831561100257610fef57835f5260036020526001600160a01b0360405f2054168084141580610fdf575b610fc4576001600160801b03610daf8661431b565b16808411610faa5750845f52600a60205282600260405f20015460801c016001600160801b03811161053357610e0e90865f52600a602052600260405f2001906001600160801b036001600160801b031983549260801b169116179055565b845f52600a602052610e25600260405f20016136aa565b6001600160801b03610e4981602084015116928260408183511692015116906133fe565b161115610f78575b845f52600a6020526001600160a01b03600160405f20015416610e75848683614341565b84867f40b88e5c41c5a97ffb7b6ef88a0a2d505aa0c634cf8a0275cb236ea7dd87ed4d6020604051888152a47ff8e1a15aba9398e019f0b49df1a4fde98ee17ae345cb5f6b5e2c27f5033e8ce76020604051878152a18033141580610f62575b15610cb5576040516392b9102b60e01b81528560048201523360248201528460448201528360648201526020816084815f865af19081156104e0576392b9102b60e01b916001600160e01b0319915f91610f43575b501614610cb557632187e5e760e21b5f5260045260245ffd5b610f5c915060203d6020116104d9576104cb8183613388565b88610f2a565b50805f52600960205260ff60405f205416610ed5565b5f858152600a6020526040902060018101805460ff60a01b1916600160a01b179055805460ff60f01b19169055610e51565b838663287ecaef60e21b5f5260045260245260445260645ffd5b838563b34359d360e01b5f526004523360245260445260645ffd5b50610fe985613b2b565b15610d9a565b8363d2aabcd960e01b5f5260045260245ffd5b84630ff7ee2d60e31b5f5260045260245ffd5b84634a5541ef60e01b5f5260045260245ffd5b8462b8e7e760e51b5f5260045260245ffd5b8263216caf0d60e01b5f526004523360245260445ffd5b346105d75760203660031901126105d757600435805f52600a60205260ff600160405f20015460a81c161561064a575f52600a602052602064ffffffffff60405f205460a01c16604051908152f35b346105d75760203660031901126105d757600435805f52600a60205260ff600160405f20015460a81c161561064a575f52600a60205260206001600160a01b0360405f205416604051908152f35b346105d75760203660031901126105d7576004355f52600a602052602060ff600160405f20015460a81c166040519015158152f35b346105d75760803660031901126105d75761113c61324e565b611144613264565b6064359167ffffffffffffffff83116105d757366023840112156105d757826004013591611171836133aa565b9261117f6040519485613388565b80845236602482870101116105d7576020815f9260246111ab98018388013785010152604435916136f0565b005b346105d75760203660031901126105d757600435805f52600a60205260ff600160405f20015460a81c161561064a575f52600a602052602060ff600160405f20015460b01c166040519015158152f35b346105d75760203660031901126105d757600435805f52600a60205260ff600160405f20015460a81c161561064a5761123590613903565b6040516005821015611248576020918152f35b634e487b7160e01b5f52602160045260245ffd5b346105d7576101403660031901126105d757611276613ad1565b61127e61368c565b64ffffffffff421680825264ffffffffff6112976136dc565b166113b2575b60e43564ffffffffff811681036105d75764ffffffffff9101166040820152600435906001600160a01b038216918281036105d757506024356001600160a01b038116908181036105d757506044356001600160801b038116908181036105d757506064356001600160a01b0381168091036105d75760843591821515928381036105d7575060a43593841515948581036105d7575060405196611340886132e5565b8752602087015260408601526060850152608084015260a083015260c08201526040610103193601126105d7576040519061137a8261336c565b61010435906001600160a01b03821682036105d757826113aa9260209452610124358482015260e0820152613c21565b604051908152f35b64ffffffffff6113c06136dc565b820116602083015261129d565b346105d75760203660031901126105d757600435805f52600a60205260ff600160405f20015460a81c161561064a575f52600a60205260206001600160801b03600260405f20015416604051908152f35b346105d75760403660031901126105d75761143761324e565b602435908115158092036105d7576001600160a01b03169081156114a657335f52600660205260405f20825f5260205260405f2060ff1981541660ff83161790556040519081527f17307eab39ab6107e8899845ad3d59bd9653f200f220920489ca2b5937696c3160203392a3005b507f5b08ba18000000000000000000000000000000000000000000000000000000005f5260045260245ffd5b346105d7575f3660031901126105d7576040515f6002548060011c906001811680156115d0575b6020831081146115bc57828552908115611598575060011461153a575b610bbb8361152681850382613388565b604051918291602083526020830190613229565b91905060025f527f405787fa12a823e0f2b7631cc41b3ba8828b3321ca811111fa75cd3aa3bb5ace915f905b80821061157e57509091508101602001611526611516565b919260018160209254838588010152019101909291611566565b60ff191660208086019190915291151560051b840190910191506115269050611516565b634e487b7160e01b5f52602260045260245ffd5b91607f16916114f9565b346105d75760203660031901126105d757600435805f52600a60205260ff600160405f20015460a81c161561064a575f52600a602052602064ffffffffff60405f205460c81c16604051908152f35b346105d75760203660031901126105d757600435805f52600a60205260ff600160405f20015460a81c161561064a5761166190613903565b600581101580611248576002821490811561169d575b811561168b575b6020826040519015158152f35b9050611248576004602091148261167e565b5050600381145f611677565b346105d75760203660031901126105d7576004355f6101606040516116cd81613332565b8281528260208201528260408201528260608201528260808201528260a08201528260c08201528260e0820152826101008201528261012082015261171061368c565b6101408201520152805f52600a60205260ff600160405f20015460a81c161561064a57805f52600a60205260405f2060405161174b8161334f565b81546001600160a01b0381168252602082019364ffffffffff8260a01c168552604083019364ffffffffff8360c81c1685526060840160ff8460f01c1615158152608085019360f81c1515845260018201549360a08601956001600160a01b038616875260c081019560ff8160a01c16151587526117ea600260e084019660ff8460a81c161515885260ff61010086019460b01c1615158452016136aa565b61012083019081526117fb87613903565b600581101561124857600214611989575b5197516001600160a01b031692865f52600b60205260405f205464ffffffffff16995164ffffffffff1694511515915115159751151595511515965f52600360205260405f20546001600160a01b031692516001600160a01b03169a5164ffffffffff16905115159260405161188181613332565b8c81526020810191825260408101928352606081019384526080810194855260a0810195865260c0810196875260e0810197885261010081019889526101208101998a5261014081019a8b52610160019a8b526040519b8c52516001600160a01b031660208c01525164ffffffffff1660408b015251151560608a01525115156080890152516001600160a01b031660a08801525164ffffffffff1660c087015251151560e08601525115156101008501525115156101208401525180516001600160801b031661014084015260208101516001600160801b0316610160840152604001516001600160801b03166101808301525164ffffffffff166101a08201526101c090f35b5f855261180c565b346105d75760203660031901126105d75760043567ffffffffffffffff81116105d7576119c29036906004016132b4565b906119cb613ad1565b5f915b8083106119d757005b6119e2838284613668565b35926119ec613ad1565b835f52600a60205260ff600160405f20015460a81c1615611d3657835f52600a60205260ff600160405f20015460a01c165f14611a365783634a5541ef60e01b5f5260045260245ffd5b909192805f52600a60205260405f205460f81c611d2457611a6b815f52600a6020526001600160a01b0360405f205416331490565b15611d0e57611a7981613821565b90805f52600a602052611a91600260405f20016136aa565b916001600160801b038351166001600160801b0382161015611cfb57815f52600a60205260ff60405f205460f01c1615611ce857806001600160801b03602081611ae59481885116031695015116906133fe565b5f828152600a6020526040902080547dffffffffffffffffffffffffffffffffffffffffffffffffffffffffffff16600160f81b179055916001600160801b038316908115611cc3575b825f52600a602052600360405f20016001600160801b0382166001600160801b0319825416179055825f52600a6020526001600160a01b0360405f205416835f5260036020526001600160a01b0360405f20541694845f52600a60205285827f5edb27d6c1a327513b90a792050debf074b7194444885e3144d4decc5caaaa50611bf76001600160a01b03600160405f2001541694611bcf888588614341565b604080518b81526001600160801b03808b166020830152909216908201529081906060820190565b0390a47ff8e1a15aba9398e019f0b49df1a4fde98ee17ae345cb5f6b5e2c27f5033e8ce76020604051868152a1845f52600960205260ff60405f205416611c48575b505050505060010191906119ce565b60405193630d4af11f60e31b855260048501526024840152604483015260648201526020816084815f865af19081156104e057630d4af11f60e31b916001600160e01b0319915f91611ca5575b50160361049f5780808080611c39565b611cbd915060203d81116104d9576104cb8183613388565b87611c95565b825f52600a602052600160405f2001600160a01b60ff60a01b19825416179055611b2f565b506339c6dc7360e21b5f5260045260245ffd5b506322cad1af60e11b5f5260045260245ffd5b63216caf0d60e01b5f526004523360245260445ffd5b63fe19f19f60e01b5f5260045260245ffd5b8362b8e7e760e51b5f5260045260245ffd5b346105d75760203660031901126105d757600435611d64613ad1565b805f52600a60205260ff600160405f20015460a81c161561064a57611d8881613903565b60058110156112485760048103611dac5750634a5541ef60e01b5f5260045260245ffd5b60038103611dc7575063fe19f19f60e01b5f5260045260245ffd5b600214611e8357611dec815f52600a6020526001600160a01b0360405f205416331490565b15611d0e57805f52600a60205260ff60405f205460f01c1615611e71576020817ff8e1a15aba9398e019f0b49df1a4fde98ee17ae345cb5f6b5e2c27f5033e8ce7925f52600a825260405f2060ff60f01b19815416905560405190807f0eb069207093cd3e51cd1370d2d369770057fbe29947e577e5fb428c6c6fc78f5f80a28152a1005b6339c6dc7360e21b5f5260045260245ffd5b6322cad1af60e11b5f5260045260245ffd5b346105d75760203660031901126105d7576004356001600160a01b0381168091036105d7576001600160a01b035f5416338103611f5c575060085490806001600160a01b03198316176008556001600160a01b036040519216825260208201527fa2548bd4b805e907c1558a47b5858324fe8bb4a2e1ddfca647eecbf65610eebc60403392a26007545f1981019081116105335760407f6bd5c950a8d8df17f772f5af37cb3655737899cbf903264b9795592da439661c91815190600182526020820152a1005b6331b339a960e21b5f526004523360245260445ffd5b346105d75760203660031901126105d757600435805f52600a60205260ff600160405f20015460a81c161561064a575f52600b602052602064ffffffffff60405f205416604051908152f35b346105d75760203660031901126105d757611fd761324e565b5f546001600160a01b038116338103611f5c57506001600160a01b036001600160a01b0319921691829116175f55337fbdd36143ee09de60bdefca70680e0f71189b2ed7acee364b53917ad433fdaf805f80a3005b346105d75760203660031901126105d7576001600160a01b0361204d61324e565b16801561206a575f526004602052602060405f2054604051908152f35b7f89c62b64000000000000000000000000000000000000000000000000000000005f525f60045260245ffd5b346105d75760203660031901126105d75760206120b4600435613800565b6001600160a01b0360405191168152f35b346105d75760203660031901126105d7576004356120e161368c565b50805f52600a60205260ff600160405f20015460a81c161561064a57806060915f52600a60205264ffffffffff60405f205460a01c1690805f52600b60205264ffffffffff60405f205416905f52600a60205264ffffffffff60405f205460c81c16906040519261215184613316565b835260208301526040820152612189604051809264ffffffffff60408092828151168552826020820151166020860152015116910152565bf35b346105d7576101603660031901126105d7576121a5613ad1565b6040516121b1816132e5565b6121b961324e565b81526121c3613264565b60208201526121d06133c6565b60408201526064356001600160a01b03811681036105d757606082015260843580151581036105d757608082015260a43580151581036105d75760a082015260603660c31901126105d75760405161222781613316565b60c43564ffffffffff811681036105d757815260e43564ffffffffff811681036105d75760208201526101043564ffffffffff811681036105d757604082015260c08201526040610123193601126105d757604051906122868261336c565b61012435906001600160a01b03821682036105d757826113aa9260209452610144358482015260e0820152613c21565b346105d75760403660031901126105d75760043567ffffffffffffffff81116105d7576122e79036906004016132b4565b60243567ffffffffffffffff81116105d7576123079036906004016132b4565b612312939193613ad1565b80830361262e575f5b83811061232457005b61232f818585613668565b3561233b828686613668565b355f5260036020526001600160a01b0360405f2054169061235d838589613668565b356001600160801b038116908181036105d75750612379613ad1565b815f52600a60205260ff600160405f20015460a81c16156105c557815f52600a60205260ff600160405f20015460a01c166105b25782156109cc5780156109b957815f5260036020526001600160a01b0360405f20541692838114158061261e575b612604576001600160801b036123f08461431b565b168083116125ea5750825f52600a60205281600260405f20015460801c016001600160801b0381116105335761244f90845f52600a602052600260405f2001906001600160801b036001600160801b031983549260801b169116179055565b825f52600a602052612466600260405f20016136aa565b6001600160801b0361248a81602084015116928260408183511692015116906133fe565b1611156125b8575b825f52600a6020526001600160a01b03600160405f200154166124b6838383614341565b81847f40b88e5c41c5a97ffb7b6ef88a0a2d505aa0c634cf8a0275cb236ea7dd87ed4d6020604051878152a47ff8e1a15aba9398e019f0b49df1a4fde98ee17ae345cb5f6b5e2c27f5033e8ce76020604051858152a183331415806125a2575b612527575b5050505060010161231b565b604051926392b9102b60e01b84526004840152336024840152604483015260648201526020816084815f865af19081156104e0576392b9102b60e01b916001600160e01b0319915f91612584575b50160361049f5780808061251b565b61259c915060203d81116104d9576104cb8183613388565b89612575565b50835f52600960205260ff60405f205416612516565b5f838152600a6020526040902060018101805460ff60a01b1916600160a01b179055805460ff60f01b19169055612492565b828463287ecaef60e21b5f5260045260245260445260645ffd5b8263b34359d360e01b5f526004523360245260445260645ffd5b5061262883613b2b565b156123db565b827faec93440000000000000000000000000000000000000000000000000000000005f5260045260245260445ffd5b346105d75760203660031901126105d757600435805f52600a60205260ff600160405f20015460a81c161561064a57610a84602091613b9d565b346105d75760203660031901126105d757600435805f52600a60205260ff600160405f20015460a81c161561064a575f6126d082613903565b6005811015611248576002036126ee575b6020906040519015158152f35b505f52600a602052602060ff60405f205460f01c166126e1565b346105d7575f3660031901126105d75760206001600160a01b0360085416604051908152f35b346105d75760203660031901126105d75760043561274a613ad1565b805f52600a60205260ff600160405f20015460a81c161561064a57805f52600a60205260ff600160405f20015460a01c16156128c75761278981613b2b565b15611d0e57805f5260036020526001600160a01b0360405f2054161515806128c0575b806128a3575b612891577ff8e1a15aba9398e019f0b49df1a4fde98ee17ae345cb5f6b5e2c27f5033e8ce76020604051838152a1805f5260036020526001600160a01b0360405f205416801590811561285a575b825f52600360205260405f206001600160a01b03198154169055825f827fddf252ad1be2c89b69c2b068fc378daa952ba7f163c4a11628f55a4df523b3ef8280a45061284857005b637e27328960e01b5f5260045260245ffd5b612879835f52600560205260405f206001600160a01b03198154169055565b805f52600460205260405f205f198154019055612800565b630da9b01360e01b5f5260045260245ffd5b50805f52600a60205260ff600160405f20015460b01c16156127b2565b505f6127ac565b7f817cd639000000000000000000000000000000000000000000000000000000005f5260045260245ffd5b346105d7576111ab6129033661327a565b9060405192612913602085613388565b5f84526136f0565b346105d75760203660031901126105d757600435805f52600a60205260ff600160405f20015460a81c161561064a575f52600a602052602060ff600160405f20015460a01c166040519015158152f35b346105d75760203660031901126105d757600435612987613ad1565b805f52600a60205260ff600160405f20015460a81c161561064a57805f52600a60205260ff600160405f20015460a01c165f146129d057634a5541ef60e01b5f5260045260245ffd5b805f52600a60205260405f205460f81c611d2457612a02815f52600a6020526001600160a01b0360405f205416331490565b15611d0e57612a1081613821565b90805f52600a602052612a28600260405f20016136aa565b916001600160801b038351166001600160801b0382161015611cfb57815f52600a60205260ff60405f205460f01c1615611ce857806001600160801b03602081612a7c9481885116031695015116906133fe565b5f828152600a6020526040902080547dffffffffffffffffffffffffffffffffffffffffffffffffffffffffffff16600160f81b179055916001600160801b038316908115612c1d575b825f52600a602052600360405f20016001600160801b0382166001600160801b0319825416179055825f52600a6020526001600160a01b0360405f205416835f5260036020526001600160a01b0360405f20541694845f52600a60205285827f5edb27d6c1a327513b90a792050debf074b7194444885e3144d4decc5caaaa50612b666001600160a01b03600160405f2001541694611bcf888588614341565b0390a47ff8e1a15aba9398e019f0b49df1a4fde98ee17ae345cb5f6b5e2c27f5033e8ce76020604051868152a1845f52600960205260ff60405f205416612ba957005b60405193630d4af11f60e31b855260048501526024840152604483015260648201526020816084815f865af19081156104e057630d4af11f60e31b916001600160e01b0319915f91612bfe5750160361049f57005b612c17915060203d6020116104d9576104cb8183613388565b84610496565b825f52600a602052600160405f2001600160a01b60ff60a01b19825416179055612ac6565b346105d75760203660031901126105d757612c5b61324e565b6001600160a01b035f541690338203612d9a57806001600160a01b03913b15612d6e57166040516301ffc9a760e01b81527ff8ee98d3000000000000000000000000000000000000000000000000000000006004820152602081602481855afa9081156104e0575f91612d3f575b5015612d1457805f52600960205260405f20600160ff198254161790556040519081527fb4378d4e289cb3f40f4f75a99c9cafa76e3df1c4dc31309babc23dc91bd7280160203392a2005b7f7fb843ea000000000000000000000000000000000000000000000000000000005f5260045260245ffd5b612d61915060203d602011612d67575b612d598183613388565b810190613650565b82612cc9565b503d612d4f565b7f5a2b2d83000000000000000000000000000000000000000000000000000000005f521660045260245ffd5b506331b339a960e21b5f526004523360245260445ffd5b346105d75760203660031901126105d7576001600160a01b03612dd261324e565b165f526009602052602060ff60405f2054166040519015158152f35b346105d7576111ab612dff3661327a565b9161341e565b346105d7575f3660031901126105d7576020600754604051908152f35b346105d75760203660031901126105d757600435805f52600a60205260ff600160405f20015460a81c161561064a57612e5a90613903565b6005811015611248578060209115908115612e7b575b506040519015158152f35b600191501482612e70565b346105d75760203660031901126105d757600435805f52600a60205260ff600160405f20015460a81c161561064a576020905f90805f52600a835260ff60405f205460f01c1680612f1b575b612ee9575b506001600160801b0360405191168152f35b612f159150805f52600a8352612f0f6001600160801b03600260405f2001541691613821565b906133fe565b82612ed7565b50805f52600a835260ff600160405f20015460a01c1615612ed2565b346105d75760403660031901126105d757612f5061324e565b602435612f5c81613800565b33151580613029575b80612ff6575b612fca5781906001600160a01b0380851691167f8c5be1e5ebec7d5bd14f71427d1e84f3dd0314c0f7b2291e5b200ac8c7c3b9255f80a45f5260056020526001600160a01b0360405f2091166001600160a01b03198254161790555f80f35b7fa9fbf51f000000000000000000000000000000000000000000000000000000005f523360045260245ffd5b506001600160a01b0381165f52600660205260405f206001600160a01b0333165f5260205260ff60405f20541615612f6b565b50336001600160a01b0382161415612f65565b346105d75760203660031901126105d75760206120b46004356133dc565b346105d7575f3660031901126105d7576040515f6001548060011c9060018116801561310b575b6020831081146115bc5782855290811561159857506001146130ad57610bbb8361152681850382613388565b91905060015f527fb10e2d527612073b26eecdfd717e6a320cf44b4afac2b0732d9fcbe2b7fa0cf6915f905b8082106130f157509091508101602001611526611516565b9192600181602092548385880101520191019092916130d9565b91607f1691613081565b346105d7575f3660031901126105d757602060405167016345785d8a00008152f35b346105d75760203660031901126105d757600435906001600160e01b031982168092036105d757817f490649060000000000000000000000000000000000000000000000000000000060209314908115613193575b5015158152f35b7f80ac58cd000000000000000000000000000000000000000000000000000000008114915081156131de575b81156131cd575b508361318c565b6301ffc9a760e01b915014836131c6565b7f5b5e139f00000000000000000000000000000000000000000000000000000000811491506131bf565b5f5b8381106132195750505f910152565b818101518382015260200161320a565b9060209161324281518092818552858086019101613208565b601f01601f1916010190565b600435906001600160a01b03821682036105d757565b602435906001600160a01b03821682036105d757565b60609060031901126105d7576004356001600160a01b03811681036105d757906024356001600160a01b03811681036105d7579060443590565b9181601f840112156105d75782359167ffffffffffffffff83116105d7576020808501948460051b0101116105d757565b610100810190811067ffffffffffffffff82111761330257604052565b634e487b7160e01b5f52604160045260245ffd5b6060810190811067ffffffffffffffff82111761330257604052565b610180810190811067ffffffffffffffff82111761330257604052565b610140810190811067ffffffffffffffff82111761330257604052565b6040810190811067ffffffffffffffff82111761330257604052565b90601f8019910116810190811067ffffffffffffffff82111761330257604052565b67ffffffffffffffff811161330257601f01601f191660200190565b604435906001600160801b03821682036105d757565b6133e581613800565b505f5260056020526001600160a01b0360405f20541690565b906001600160801b03809116911603906001600160801b03821161053357565b91906001600160a01b03168015610d2057815f5260036020526001600160a01b0360405f205416151580613648575b8061362b575b613618577ff8e1a15aba9398e019f0b49df1a4fde98ee17ae345cb5f6b5e2c27f5033e8ce76020604051848152a1815f5260036020526001600160a01b0360405f20541692823315159283613563575b6001600160a01b0393508561352c575b805f52600460205260405f2060018154019055815f52600360205260405f20816001600160a01b0319825416179055857fddf252ad1be2c89b69c2b068fc378daa952ba7f163c4a11628f55a4df523b3ef5f80a41680830361351457505050565b6364283d7b60e01b5f5260045260245260445260645ffd5b61354b825f52600560205260405f206001600160a01b03198154169055565b855f52600460205260405f205f1981540190556134b3565b91929050806135c1575b1561357a578282916134a3565b828461359257637e27328960e01b5f5260045260245ffd5b7f177e802f000000000000000000000000000000000000000000000000000000005f523360045260245260445ffd5b5033841480156135ef575b8061356d5750825f526005602052336001600160a01b0360405f2054161461356d565b50835f52600660205260405f206001600160a01b0333165f5260205260ff60405f2054166135cc565b50630da9b01360e01b5f5260045260245ffd5b50815f52600a60205260ff600160405f20015460b01c1615613453565b50600161344d565b908160209103126105d7575180151581036105d75790565b91908110156136785760051b0190565b634e487b7160e01b5f52603260045260245ffd5b6040519061369982613316565b5f6040838281528260208201520152565b906040516136b781613316565b60406001600160801b03600183958054838116865260801c6020860152015416910152565b60c43564ffffffffff811681036105d75790565b906136fc83828461341e565b803b613709575b50505050565b60209161374f6001600160a01b03809316956040519586948594630a85bd0160e11b86523360048701521660248501526044840152608060648401526084830190613229565b03815f865af15f91816137bf575b5061378b575061376b6142ec565b805190816137865782633250574960e11b5f5260045260245ffd5b602001fd5b6001600160e01b0319630a85bd0160e11b9116036137ad57505f808080613703565b633250574960e11b5f5260045260245ffd5b6137d991925060203d6020116104d9576104cb8183613388565b905f61375d565b908160209103126105d757516001600160e01b0319811681036105d75790565b805f5260036020526001600160a01b0360405f205416908115612848575090565b805f52600b60205264ffffffffff60405f205416815f52600a60205264ffffffffff60405f205460a01c1690421080156138f9575b6138f357815f52600a60205264ffffffffff60405f205460c81c1690814210156138d6578061388892039042036144cf565b815f52600a6020526138ab6001600160801b03600260405f2001541680926145bb565b9081116138c0576001600160801b0391501690565b505f52600a602052600260405f20015460801c90565b50505f52600a6020526001600160801b03600260405f2001541690565b50505f90565b5042811015613856565b805f52600a60205260ff600160405f20015460a01c165f146139255750600490565b805f52600a60205260405f205460f81c61399157805f52600a60205264ffffffffff60405f205460a01c16421061398c5761395f81613821565b905f52600a6020526001600160801b0380600260405f200154169116105f1461398757600190565b600290565b505f90565b50600390565b90805f5260036020526001600160a01b0360405f205416151580613abf575b80613aa2575b612891577ff8e1a15aba9398e019f0b49df1a4fde98ee17ae345cb5f6b5e2c27f5033e8ce76020604051838152a1805f5260036020526001600160a01b038060405f2054169283613a6b575b1680613a53575b815f52600360205260405f20816001600160a01b0319825416179055827fddf252ad1be2c89b69c2b068fc378daa952ba7f163c4a11628f55a4df523b3ef5f80a490565b805f52600460205260405f2060018154019055613a0f565b613a8a835f52600560205260405f206001600160a01b03198154169055565b835f52600460205260405f205f198154019055613a08565b50805f52600a60205260ff600160405f20015460b01c16156139bc565b506001600160a01b03821615156139b6565b6001600160a01b037f0000000000000000000000000000000000000000000000000000000000000000163003613b0357565b7fa1c0d6e5000000000000000000000000000000000000000000000000000000005f5260045ffd5b805f5260036020526001600160a01b0360405f20541690813314918215613b71575b508115613b58575090565b90506001600160a01b03613b6c33926133dc565b161490565b9091505f52600660205260405f206001600160a01b0333165f5260205260ff60405f205416905f613b4d565b805f52600a602052613bb4600260405f20016136aa565b90805f52600a60205260ff600160405f20015460a01c165f14613be25750602001516001600160801b031690565b90815f52600a60205260405f205460f81c613c045750613c0190613821565b90565b613c0191506001600160801b0360408183511692015116906133fe565b90613c426001600160801b03604084015116602060e0850151015190614398565b916001600160801b0383511660c082015190156142c45764ffffffffff8151161561429c576020810164ffffffffff81511680614210575b5050604064ffffffffff82511691019064ffffffffff82511690818110156141e257505064ffffffffff80421691511690818110156141b45750506007549280516001600160801b03169160405192613cd284613316565b8352602083015f9052604083015f905260608101516001600160a01b03169260c082015190604082015164ffffffffff16946080840195888751151560a087015115159287516001600160a01b0316965164ffffffffff169160405197613d388961334f565b885260208801928352604088019182526060880190815260808801915f835260a0890196875260c08901935f855260e08a0195600187526101008b019788526101208b01998a525f52600a60205260405f2099516001600160a01b03166001600160a01b03168a546001600160a01b031916178a5551908954905160c81b7dffffffffff00000000000000000000000000000000000000000000000000169160a01b78ffffffffff000000000000000000000000000000000000000016907fffff00000000000000000000ffffffffffffffffffffffffffffffffffffffff161717885551151587549060f01b7eff000000000000000000000000000000000000000000000000000000000000169060ff60f01b191617875551151586549060f81b7fff0000000000000000000000000000000000000000000000000000000000000016907effffffffffffffffffffffffffffffffffffffffffffffffffffffffffffff161786556001860193516001600160a01b03166001600160a01b031684546001600160a01b03191617845551151583549060a01b74ff0000000000000000000000000000000000000000169060ff60a01b19161783555115159082549051151560b01b76ff00000000000000000000000000000000000000000000169160a81b75ff00000000000000000000000000000000000000000016907fffffffffffffffffff0000ffffffffffffffffffffffffffffffffffffffffff16171790556002820190519081516001600160801b03166001600160801b031681546001600160801b03191617815560208201516001600160801b0316613fb891906001600160801b036001600160801b031983549260801b169116179055565b604001516001600160801b031690600301906001600160801b031681546001600160801b03191617905560c08101516020015164ffffffffff1680614194575b50600185016007556001600160a01b036020820151168015610d2057614026866001600160a01b0392613997565b16614168576140516001600160a01b036060830151166001600160801b038451169030903390614475565b7f44cb432df42caa86b7ec73644ab8aec922bc44c71c98fc330addc75b88adbc7c6101408660208501946001600160801b0386511680614139575b506141306001600160a01b03865116956001600160a01b03602082015116976001600160a01b03606083015116995115156001600160801b0360a0840151151592816001600160a01b0360e060c0880151970151511697604051998a523360208b01525116604089015251166060870152608086015260a085015260c084019064ffffffffff60408092828151168552826020820151166020860152015116910152565b610120820152a4565b614162906001600160a01b036060880151166001600160a01b0360e08901515116903390614475565b5f61408c565b7f73c6ac6e000000000000000000000000000000000000000000000000000000005f525f60045260245ffd5b855f52600b60205260405f209064ffffffffff198254161790555f613ff8565b7f210aec0e000000000000000000000000000000000000000000000000000000005f5260045260245260445ffd5b7f5057f084000000000000000000000000000000000000000000000000000000005f5260045260245260445ffd5b64ffffffffff8351168181101561426e57505064ffffffffff90511664ffffffffff60408301511690818110613c7a577f9fee2691000000000000000000000000000000000000000000000000000000005f5260045260245260445ffd5b7fb39831ea000000000000000000000000000000000000000000000000000000005f5260045260245260445ffd5b7fd572dbcb000000000000000000000000000000000000000000000000000000005f5260045ffd5b7f6095d3bc000000000000000000000000000000000000000000000000000000005f5260045ffd5b3d15614316573d906142fd826133aa565b9161430b6040519384613388565b82523d5f602084013e565b606090565b613c019061432881613b9d565b905f52600a602052600260405f20015460801c906133fe565b614396926001600160a01b03604051937fa9059cbb000000000000000000000000000000000000000000000000000000006020860152166024840152604483015260448252614391606483613388565b614669565b565b9190916040516143a78161336c565b5f81525f6020820152926001600160801b0382169081156144585767016345785d8a00008111614421576143e36001600160801b0391836145bb565b166020850191818352111561440d576001600160801b039182614408925116906133fe565b168252565b634e487b7160e01b5f52600160045260245ffd5b7f4fea5c1a000000000000000000000000000000000000000000000000000000005f5260045267016345785d8a000060245260445ffd5b50505090506040516144698161336c565b5f81525f602082015290565b9091926001600160a01b036143969481604051957f23b872dd000000000000000000000000000000000000000000000000000000006020880152166024860152166044840152606483015260648252614391608483613388565b5f19670de0b6b3a7640000820991670de0b6b3a764000082029182808510940393808503941461459a578184101561456057670de0b6b3a7640000829109600182190182168092046002816003021880820260020302808202600203028082026002030280820260020302808202600203028091026002030293600183805f03040190848311900302920304170290565b7f63a05778000000000000000000000000000000000000000000000000000000005f52600452670de0b6b3a764000060245260445260645ffd5b50915081156145a7570490565b634e487b7160e01b5f52601260045260245ffd5b9091905f198382098382029182808310920391808303921461465857670de0b6b3a7640000821015614628577faccb18165bd6fe31ae1cf318dc5b51eee0e1ba569b88cd74c1773b91fac106699394670de0b6b3a7640000910990828211900360ee1b910360121c170290565b84907f5173648d000000000000000000000000000000000000000000000000000000005f5260045260245260445ffd5b5050670de0b6b3a764000090049150565b5f806001600160a01b0361469293169360208151910182865af161468b6142ec565b90836146ee565b80519081151591826146d3575b50506146a85750565b7f5274afe7000000000000000000000000000000000000000000000000000000005f5260045260245ffd5b6146e69250602080918301019101613650565b155f8061469f565b9061472b575080511561470357805190602001fd5b7f1425ea42000000000000000000000000000000000000000000000000000000005f5260045ffd5b81511580614771575b61473c575090565b6001600160a01b03907f9996b315000000000000000000000000000000000000000000000000000000005f521660045260245ffd5b50803b1561473456fea164736f6c634300081a000a","linkReferences":{}},"methodIdentifiers":{"MAX_BROKER_FEE()":"027b6744","admin()":"f851a440","allowToHook(address)":"406887cb","approve(address,uint256)":"095ea7b3","balanceOf(address)":"70a08231","burn(uint256)":"42966c68","cancel(uint256)":"40e58ee5","cancelMultiple(uint256[])":"8659c270","createWithDurations((address,address,uint128,address,bool,bool,(uint40,uint40),(address,uint256)))":"ab167ccc","createWithTimestamps((address,address,uint128,address,bool,bool,(uint40,uint40,uint40),(address,uint256)))":"53b15727","getApproved(uint256)":"081812fc","getAsset(uint256)":"eac8f5b8","getCliffTime(uint256)":"780a82c8","getDepositedAmount(uint256)":"a80fc071","getEndTime(uint256)":"9067b677","getRecipient(uint256)":"6d0cee75","getRefundedAmount(uint256)":"d4dbd20b","getSender(uint256)":"b971302a","getStartTime(uint256)":"bc2be1be","getStream(uint256)":"894e9a0d","getTimestamps(uint256)":"57404b12","getWithdrawnAmount(uint256)":"d511609f","isAllowedToHook(address)":"303acc85","isApprovedForAll(address,address)":"e985e9c5","isCancelable(uint256)":"4857501f","isCold(uint256)":"8f69b993","isDepleted(uint256)":"425d30dd","isStream(uint256)":"b8a3be66","isTransferable(uint256)":"b2564569","isWarm(uint256)":"1c1cdd4c","name()":"06fdde03","nextStreamId()":"1e99d569","nftDescriptor()":"44267570","ownerOf(uint256)":"6352211e","refundableAmountOf(uint256)":"1400ecec","renounce(uint256)":"7de6b1db","safeTransferFrom(address,address,uint256)":"42842e0e","safeTransferFrom(address,address,uint256,bytes)":"b88d4fde","setApprovalForAll(address,bool)":"a22cb465","setNFTDescriptor(address)":"7cad6cd1","statusOf(uint256)":"ad35efd4","streamedAmountOf(uint256)":"4869e12d","supportsInterface(bytes4)":"01ffc9a7","symbol()":"95d89b41","tokenURI(uint256)":"c87b56dd","transferAdmin(address)":"75829def","transferFrom(address,address,uint256)":"23b872dd","wasCanceled(uint256)":"f590c176","withdraw(uint256,address,uint128)":"fdd46d60","withdrawMax(uint256,address)":"ea5ead19","withdrawMaxAndTransfer(uint256,address)":"c156a11d","withdrawMultiple(uint256[],uint128[])":"4cc55e11","withdrawableAmountOf(uint256)":"d975dfed"},"id":85}