{"abi":[{"type":"constructor","inputs":[{"name":"initialAdmin","type":"address","internalType":"address"},{"name":"initialNFTDescriptor","type":"address","internalType":"contract ISablierV2NFTDescriptor"},{"name":"maxTrancheCount","type":"uint256","internalType":"uint256"}],"stateMutability":"nonpayable"},{"type":"function","name":"MAX_BROKER_FEE","inputs":[],"outputs":[{"name":"","type":"uint256","internalType":"UD60x18"}],"stateMutability":"view"},{"type":"function","name":"MAX_TRANCHE_COUNT","inputs":[],"outputs":[{"name":"","type":"uint256","internalType":"uint256"}],"stateMutability":"view"},{"type":"function","name":"admin","inputs":[],"outputs":[{"name":"","type":"address","internalType":"address"}],"stateMutability":"view"},{"type":"function","name":"allowToHook","inputs":[{"name":"recipient","type":"address","internalType":"address"}],"outputs":[],"stateMutability":"nonpayable"},{"type":"function","name":"approve","inputs":[{"name":"to","type":"address","internalType":"address"},{"name":"tokenId","type":"uint256","internalType":"uint256"}],"outputs":[],"stateMutability":"nonpayable"},{"type":"function","name":"balanceOf","inputs":[{"name":"owner","type":"address","internalType":"address"}],"outputs":[{"name":"","type":"uint256","internalType":"uint256"}],"stateMutability":"view"},{"type":"function","name":"burn","inputs":[{"name":"streamId","type":"uint256","internalType":"uint256"}],"outputs":[],"stateMutability":"nonpayable"},{"type":"function","name":"cancel","inputs":[{"name":"streamId","type":"uint256","internalType":"uint256"}],"outputs":[],"stateMutability":"nonpayable"},{"type":"function","name":"cancelMultiple","inputs":[{"name":"streamIds","type":"uint256[]","internalType":"uint256[]"}],"outputs":[],"stateMutability":"nonpayable"},{"type":"function","name":"createWithDurations","inputs":[{"name":"params","type":"tuple","internalType":"struct LockupTranched.CreateWithDurations","components":[{"name":"sender","type":"address","internalType":"address"},{"name":"recipient","type":"address","internalType":"address"},{"name":"totalAmount","type":"uint128","internalType":"uint128"},{"name":"asset","type":"address","internalType":"contract IERC20"},{"name":"cancelable","type":"bool","internalType":"bool"},{"name":"transferable","type":"bool","internalType":"bool"},{"name":"tranches","type":"tuple[]","internalType":"struct LockupTranched.TrancheWithDuration[]","components":[{"name":"amount","type":"uint128","internalType":"uint128"},{"name":"duration","type":"uint40","internalType":"uint40"}]},{"name":"broker","type":"tuple","internalType":"struct Broker","components":[{"name":"account","type":"address","internalType":"address"},{"name":"fee","type":"uint256","internalType":"UD60x18"}]}]}],"outputs":[{"name":"streamId","type":"uint256","internalType":"uint256"}],"stateMutability":"nonpayable"},{"type":"function","name":"createWithTimestamps","inputs":[{"name":"params","type":"tuple","internalType":"struct LockupTranched.CreateWithTimestamps","components":[{"name":"sender","type":"address","internalType":"address"},{"name":"recipient","type":"address","internalType":"address"},{"name":"totalAmount","type":"uint128","internalType":"uint128"},{"name":"asset","type":"address","internalType":"contract IERC20"},{"name":"cancelable","type":"bool","internalType":"bool"},{"name":"transferable","type":"bool","internalType":"bool"},{"name":"startTime","type":"uint40","internalType":"uint40"},{"name":"tranches","type":"tuple[]","internalType":"struct LockupTranched.Tranche[]","components":[{"name":"amount","type":"uint128","internalType":"uint128"},{"name":"timestamp","type":"uint40","internalType":"uint40"}]},{"name":"broker","type":"tuple","internalType":"struct Broker","components":[{"name":"account","type":"address","internalType":"address"},{"name":"fee","type":"uint256","internalType":"UD60x18"}]}]}],"outputs":[{"name":"streamId","type":"uint256","internalType":"uint256"}],"stateMutability":"nonpayable"},{"type":"function","name":"getApproved","inputs":[{"name":"tokenId","type":"uint256","internalType":"uint256"}],"outputs":[{"name":"","type":"address","internalType":"address"}],"stateMutability":"view"},{"type":"function","name":"getAsset","inputs":[{"name":"streamId","type":"uint256","internalType":"uint256"}],"outputs":[{"name":"asset","type":"address","internalType":"contract IERC20"}],"stateMutability":"view"},{"type":"function","name":"getDepositedAmount","inputs":[{"name":"streamId","type":"uint256","internalType":"uint256"}],"outputs":[{"name":"depositedAmount","type":"uint128","internalType":"uint128"}],"stateMutability":"view"},{"type":"function","name":"getEndTime","inputs":[{"name":"streamId","type":"uint256","internalType":"uint256"}],"outputs":[{"name":"endTime","type":"uint40","internalType":"uint40"}],"stateMutability":"view"},{"type":"function","name":"getRecipient","inputs":[{"name":"streamId","type":"uint256","internalType":"uint256"}],"outputs":[{"name":"recipient","type":"address","internalType":"address"}],"stateMutability":"view"},{"type":"function","name":"getRefundedAmount","inputs":[{"name":"streamId","type":"uint256","internalType":"uint256"}],"outputs":[{"name":"refundedAmount","type":"uint128","internalType":"uint128"}],"stateMutability":"view"},{"type":"function","name":"getSender","inputs":[{"name":"streamId","type":"uint256","internalType":"uint256"}],"outputs":[{"name":"sender","type":"address","internalType":"address"}],"stateMutability":"view"},{"type":"function","name":"getStartTime","inputs":[{"name":"streamId","type":"uint256","internalType":"uint256"}],"outputs":[{"name":"startTime","type":"uint40","internalType":"uint40"}],"stateMutability":"view"},{"type":"function","name":"getStream","inputs":[{"name":"streamId","type":"uint256","internalType":"uint256"}],"outputs":[{"name":"stream","type":"tuple","internalType":"struct LockupTranched.StreamLT","components":[{"name":"sender","type":"address","internalType":"address"},{"name":"recipient","type":"address","internalType":"address"},{"name":"startTime","type":"uint40","internalType":"uint40"},{"name":"endTime","type":"uint40","internalType":"uint40"},{"name":"isCancelable","type":"bool","internalType":"bool"},{"name":"wasCanceled","type":"bool","internalType":"bool"},{"name":"asset","type":"address","internalType":"contract IERC20"},{"name":"isDepleted","type":"bool","internalType":"bool"},{"name":"isStream","type":"bool","internalType":"bool"},{"name":"isTransferable","type":"bool","internalType":"bool"},{"name":"amounts","type":"tuple","internalType":"struct Lockup.Amounts","components":[{"name":"deposited","type":"uint128","internalType":"uint128"},{"name":"withdrawn","type":"uint128","internalType":"uint128"},{"name":"refunded","type":"uint128","internalType":"uint128"}]},{"name":"tranches","type":"tuple[]","internalType":"struct LockupTranched.Tranche[]","components":[{"name":"amount","type":"uint128","internalType":"uint128"},{"name":"timestamp","type":"uint40","internalType":"uint40"}]}]}],"stateMutability":"view"},{"type":"function","name":"getTimestamps","inputs":[{"name":"streamId","type":"uint256","internalType":"uint256"}],"outputs":[{"name":"timestamps","type":"tuple","internalType":"struct LockupTranched.Timestamps","components":[{"name":"start","type":"uint40","internalType":"uint40"},{"name":"end","type":"uint40","internalType":"uint40"}]}],"stateMutability":"view"},{"type":"function","name":"getTranches","inputs":[{"name":"streamId","type":"uint256","internalType":"uint256"}],"outputs":[{"name":"tranches","type":"tuple[]","internalType":"struct LockupTranched.Tranche[]","components":[{"name":"amount","type":"uint128","internalType":"uint128"},{"name":"timestamp","type":"uint40","internalType":"uint40"}]}],"stateMutability":"view"},{"type":"function","name":"getWithdrawnAmount","inputs":[{"name":"streamId","type":"uint256","internalType":"uint256"}],"outputs":[{"name":"withdrawnAmount","type":"uint128","internalType":"uint128"}],"stateMutability":"view"},{"type":"function","name":"isAllowedToHook","inputs":[{"name":"recipient","type":"address","internalType":"address"}],"outputs":[{"name":"result","type":"bool","internalType":"bool"}],"stateMutability":"view"},{"type":"function","name":"isApprovedForAll","inputs":[{"name":"owner","type":"address","internalType":"address"},{"name":"operator","type":"address","internalType":"address"}],"outputs":[{"name":"","type":"bool","internalType":"bool"}],"stateMutability":"view"},{"type":"function","name":"isCancelable","inputs":[{"name":"streamId","type":"uint256","internalType":"uint256"}],"outputs":[{"name":"result","type":"bool","internalType":"bool"}],"stateMutability":"view"},{"type":"function","name":"isCold","inputs":[{"name":"streamId","type":"uint256","internalType":"uint256"}],"outputs":[{"name":"result","type":"bool","internalType":"bool"}],"stateMutability":"view"},{"type":"function","name":"isDepleted","inputs":[{"name":"streamId","type":"uint256","internalType":"uint256"}],"outputs":[{"name":"result","type":"bool","internalType":"bool"}],"stateMutability":"view"},{"type":"function","name":"isStream","inputs":[{"name":"streamId","type":"uint256","internalType":"uint256"}],"outputs":[{"name":"result","type":"bool","internalType":"bool"}],"stateMutability":"view"},{"type":"function","name":"isTransferable","inputs":[{"name":"streamId","type":"uint256","internalType":"uint256"}],"outputs":[{"name":"result","type":"bool","internalType":"bool"}],"stateMutability":"view"},{"type":"function","name":"isWarm","inputs":[{"name":"streamId","type":"uint256","internalType":"uint256"}],"outputs":[{"name":"result","type":"bool","internalType":"bool"}],"stateMutability":"view"},{"type":"function","name":"name","inputs":[],"outputs":[{"name":"","type":"string","internalType":"string"}],"stateMutability":"view"},{"type":"function","name":"nextStreamId","inputs":[],"outputs":[{"name":"","type":"uint256","internalType":"uint256"}],"stateMutability":"view"},{"type":"function","name":"nftDescriptor","inputs":[],"outputs":[{"name":"","type":"address","internalType":"contract ISablierV2NFTDescriptor"}],"stateMutability":"view"},{"type":"function","name":"ownerOf","inputs":[{"name":"tokenId","type":"uint256","internalType":"uint256"}],"outputs":[{"name":"","type":"address","internalType":"address"}],"stateMutability":"view"},{"type":"function","name":"refundableAmountOf","inputs":[{"name":"streamId","type":"uint256","internalType":"uint256"}],"outputs":[{"name":"refundableAmount","type":"uint128","internalType":"uint128"}],"stateMutability":"view"},{"type":"function","name":"renounce","inputs":[{"name":"streamId","type":"uint256","internalType":"uint256"}],"outputs":[],"stateMutability":"nonpayable"},{"type":"function","name":"safeTransferFrom","inputs":[{"name":"from","type":"address","internalType":"address"},{"name":"to","type":"address","internalType":"address"},{"name":"tokenId","type":"uint256","internalType":"uint256"}],"outputs":[],"stateMutability":"nonpayable"},{"type":"function","name":"safeTransferFrom","inputs":[{"name":"from","type":"address","internalType":"address"},{"name":"to","type":"address","internalType":"address"},{"name":"tokenId","type":"uint256","internalType":"uint256"},{"name":"data","type":"bytes","internalType":"bytes"}],"outputs":[],"stateMutability":"nonpayable"},{"type":"function","name":"setApprovalForAll","inputs":[{"name":"operator","type":"address","internalType":"address"},{"name":"approved","type":"bool","internalType":"bool"}],"outputs":[],"stateMutability":"nonpayable"},{"type":"function","name":"setNFTDescriptor","inputs":[{"name":"newNFTDescriptor","type":"address","internalType":"contract ISablierV2NFTDescriptor"}],"outputs":[],"stateMutability":"nonpayable"},{"type":"function","name":"statusOf","inputs":[{"name":"streamId","type":"uint256","internalType":"uint256"}],"outputs":[{"name":"status","type":"uint8","internalType":"enum Lockup.Status"}],"stateMutability":"view"},{"type":"function","name":"streamedAmountOf","inputs":[{"name":"streamId","type":"uint256","internalType":"uint256"}],"outputs":[{"name":"streamedAmount","type":"uint128","internalType":"uint128"}],"stateMutability":"view"},{"type":"function","name":"supportsInterface","inputs":[{"name":"interfaceId","type":"bytes4","internalType":"bytes4"}],"outputs":[{"name":"","type":"bool","internalType":"bool"}],"stateMutability":"view"},{"type":"function","name":"symbol","inputs":[],"outputs":[{"name":"","type":"string","internalType":"string"}],"stateMutability":"view"},{"type":"function","name":"tokenURI","inputs":[{"name":"streamId","type":"uint256","internalType":"uint256"}],"outputs":[{"name":"uri","type":"string","internalType":"string"}],"stateMutability":"view"},{"type":"function","name":"transferAdmin","inputs":[{"name":"newAdmin","type":"address","internalType":"address"}],"outputs":[],"stateMutability":"nonpayable"},{"type":"function","name":"transferFrom","inputs":[{"name":"from","type":"address","internalType":"address"},{"name":"to","type":"address","internalType":"address"},{"name":"tokenId","type":"uint256","internalType":"uint256"}],"outputs":[],"stateMutability":"nonpayable"},{"type":"function","name":"wasCanceled","inputs":[{"name":"streamId","type":"uint256","internalType":"uint256"}],"outputs":[{"name":"result","type":"bool","internalType":"bool"}],"stateMutability":"view"},{"type":"function","name":"withdraw","inputs":[{"name":"streamId","type":"uint256","internalType":"uint256"},{"name":"to","type":"address","internalType":"address"},{"name":"amount","type":"uint128","internalType":"uint128"}],"outputs":[],"stateMutability":"nonpayable"},{"type":"function","name":"withdrawMax","inputs":[{"name":"streamId","type":"uint256","internalType":"uint256"},{"name":"to","type":"address","internalType":"address"}],"outputs":[{"name":"withdrawnAmount","type":"uint128","internalType":"uint128"}],"stateMutability":"nonpayable"},{"type":"function","name":"withdrawMaxAndTransfer","inputs":[{"name":"streamId","type":"uint256","internalType":"uint256"},{"name":"newRecipient","type":"address","internalType":"address"}],"outputs":[{"name":"withdrawnAmount","type":"uint128","internalType":"uint128"}],"stateMutability":"nonpayable"},{"type":"function","name":"withdrawMultiple","inputs":[{"name":"streamIds","type":"uint256[]","internalType":"uint256[]"},{"name":"amounts","type":"uint128[]","internalType":"uint128[]"}],"outputs":[],"stateMutability":"nonpayable"},{"type":"function","name":"withdrawableAmountOf","inputs":[{"name":"streamId","type":"uint256","internalType":"uint256"}],"outputs":[{"name":"withdrawableAmount","type":"uint128","internalType":"uint128"}],"stateMutability":"view"},{"type":"event","name":"AllowToHook","inputs":[{"name":"admin","type":"address","indexed":true,"internalType":"address"},{"name":"recipient","type":"address","indexed":false,"internalType":"address"}],"anonymous":false},{"type":"event","name":"Approval","inputs":[{"name":"owner","type":"address","indexed":true,"internalType":"address"},{"name":"approved","type":"address","indexed":true,"internalType":"address"},{"name":"tokenId","type":"uint256","indexed":true,"internalType":"uint256"}],"anonymous":false},{"type":"event","name":"ApprovalForAll","inputs":[{"name":"owner","type":"address","indexed":true,"internalType":"address"},{"name":"operator","type":"address","indexed":true,"internalType":"address"},{"name":"approved","type":"bool","indexed":false,"internalType":"bool"}],"anonymous":false},{"type":"event","name":"BatchMetadataUpdate","inputs":[{"name":"_fromTokenId","type":"uint256","indexed":false,"internalType":"uint256"},{"name":"_toTokenId","type":"uint256","indexed":false,"internalType":"uint256"}],"anonymous":false},{"type":"event","name":"CancelLockupStream","inputs":[{"name":"streamId","type":"uint256","indexed":false,"internalType":"uint256"},{"name":"sender","type":"address","indexed":true,"internalType":"address"},{"name":"recipient","type":"address","indexed":true,"internalType":"address"},{"name":"asset","type":"address","indexed":true,"internalType":"contract IERC20"},{"name":"senderAmount","type":"uint128","indexed":false,"internalType":"uint128"},{"name":"recipientAmount","type":"uint128","indexed":false,"internalType":"uint128"}],"anonymous":false},{"type":"event","name":"CreateLockupTranchedStream","inputs":[{"name":"streamId","type":"uint256","indexed":false,"internalType":"uint256"},{"name":"funder","type":"address","indexed":false,"internalType":"address"},{"name":"sender","type":"address","indexed":true,"internalType":"address"},{"name":"recipient","type":"address","indexed":true,"internalType":"address"},{"name":"amounts","type":"tuple","indexed":false,"internalType":"struct Lockup.CreateAmounts","components":[{"name":"deposit","type":"uint128","internalType":"uint128"},{"name":"brokerFee","type":"uint128","internalType":"uint128"}]},{"name":"asset","type":"address","indexed":true,"internalType":"contract IERC20"},{"name":"cancelable","type":"bool","indexed":false,"internalType":"bool"},{"name":"transferable","type":"bool","indexed":false,"internalType":"bool"},{"name":"tranches","type":"tuple[]","indexed":false,"internalType":"struct LockupTranched.Tranche[]","components":[{"name":"amount","type":"uint128","internalType":"uint128"},{"name":"timestamp","type":"uint40","internalType":"uint40"}]},{"name":"timestamps","type":"tuple","indexed":false,"internalType":"struct LockupTranched.Timestamps","components":[{"name":"start","type":"uint40","internalType":"uint40"},{"name":"end","type":"uint40","internalType":"uint40"}]},{"name":"broker","type":"address","indexed":false,"internalType":"address"}],"anonymous":false},{"type":"event","name":"MetadataUpdate","inputs":[{"name":"_tokenId","type":"uint256","indexed":false,"internalType":"uint256"}],"anonymous":false},{"type":"event","name":"RenounceLockupStream","inputs":[{"name":"streamId","type":"uint256","indexed":true,"internalType":"uint256"}],"anonymous":false},{"type":"event","name":"SetNFTDescriptor","inputs":[{"name":"admin","type":"address","indexed":true,"internalType":"address"},{"name":"oldNFTDescriptor","type":"address","indexed":false,"internalType":"contract ISablierV2NFTDescriptor"},{"name":"newNFTDescriptor","type":"address","indexed":false,"internalType":"contract ISablierV2NFTDescriptor"}],"anonymous":false},{"type":"event","name":"Transfer","inputs":[{"name":"from","type":"address","indexed":true,"internalType":"address"},{"name":"to","type":"address","indexed":true,"internalType":"address"},{"name":"tokenId","type":"uint256","indexed":true,"internalType":"uint256"}],"anonymous":false},{"type":"event","name":"TransferAdmin","inputs":[{"name":"oldAdmin","type":"address","indexed":true,"internalType":"address"},{"name":"newAdmin","type":"address","indexed":true,"internalType":"address"}],"anonymous":false},{"type":"event","name":"WithdrawFromLockupStream","inputs":[{"name":"streamId","type":"uint256","indexed":true,"internalType":"uint256"},{"name":"to","type":"address","indexed":true,"internalType":"address"},{"name":"asset","type":"address","indexed":true,"internalType":"contract IERC20"},{"name":"amount","type":"uint128","indexed":false,"internalType":"uint128"}],"anonymous":false},{"type":"error","name":"AddressEmptyCode","inputs":[{"name":"target","type":"address","internalType":"address"}]},{"type":"error","name":"AddressInsufficientBalance","inputs":[{"name":"account","type":"address","internalType":"address"}]},{"type":"error","name":"CallerNotAdmin","inputs":[{"name":"admin","type":"address","internalType":"address"},{"name":"caller","type":"address","internalType":"address"}]},{"type":"error","name":"DelegateCall","inputs":[]},{"type":"error","name":"ERC721IncorrectOwner","inputs":[{"name":"sender","type":"address","internalType":"address"},{"name":"tokenId","type":"uint256","internalType":"uint256"},{"name":"owner","type":"address","internalType":"address"}]},{"type":"error","name":"ERC721InsufficientApproval","inputs":[{"name":"operator","type":"address","internalType":"address"},{"name":"tokenId","type":"uint256","internalType":"uint256"}]},{"type":"error","name":"ERC721InvalidApprover","inputs":[{"name":"approver","type":"address","internalType":"address"}]},{"type":"error","name":"ERC721InvalidOperator","inputs":[{"name":"operator","type":"address","internalType":"address"}]},{"type":"error","name":"ERC721InvalidOwner","inputs":[{"name":"owner","type":"address","internalType":"address"}]},{"type":"error","name":"ERC721InvalidReceiver","inputs":[{"name":"receiver","type":"address","internalType":"address"}]},{"type":"error","name":"ERC721InvalidSender","inputs":[{"name":"sender","type":"address","internalType":"address"}]},{"type":"error","name":"ERC721NonexistentToken","inputs":[{"name":"tokenId","type":"uint256","internalType":"uint256"}]},{"type":"error","name":"FailedInnerCall","inputs":[]},{"type":"error","name":"PRBMath_MulDiv18_Overflow","inputs":[{"name":"x","type":"uint256","internalType":"uint256"},{"name":"y","type":"uint256","internalType":"uint256"}]},{"type":"error","name":"SablierV2LockupTranched_DepositAmountNotEqualToTrancheAmountsSum","inputs":[{"name":"depositAmount","type":"uint128","internalType":"uint128"},{"name":"trancheAmountsSum","type":"uint128","internalType":"uint128"}]},{"type":"error","name":"SablierV2LockupTranched_StartTimeNotLessThanFirstTrancheTimestamp","inputs":[{"name":"startTime","type":"uint40","internalType":"uint40"},{"name":"firstTrancheTimestamp","type":"uint40","internalType":"uint40"}]},{"type":"error","name":"SablierV2LockupTranched_TrancheCountTooHigh","inputs":[{"name":"count","type":"uint256","internalType":"uint256"}]},{"type":"error","name":"SablierV2LockupTranched_TrancheCountZero","inputs":[]},{"type":"error","name":"SablierV2LockupTranched_TrancheTimestampsNotOrdered","inputs":[{"name":"index","type":"uint256","internalType":"uint256"},{"name":"previousTimestamp","type":"uint40","internalType":"uint40"},{"name":"currentTimestamp","type":"uint40","internalType":"uint40"}]},{"type":"error","name":"SablierV2Lockup_AllowToHookUnsupportedInterface","inputs":[{"name":"recipient","type":"address","internalType":"address"}]},{"type":"error","name":"SablierV2Lockup_AllowToHookZeroCodeSize","inputs":[{"name":"recipient","type":"address","internalType":"address"}]},{"type":"error","name":"SablierV2Lockup_BrokerFeeTooHigh","inputs":[{"name":"brokerFee","type":"uint256","internalType":"UD60x18"},{"name":"maxBrokerFee","type":"uint256","internalType":"UD60x18"}]},{"type":"error","name":"SablierV2Lockup_DepositAmountZero","inputs":[]},{"type":"error","name":"SablierV2Lockup_EndTimeNotInTheFuture","inputs":[{"name":"blockTimestamp","type":"uint40","internalType":"uint40"},{"name":"endTime","type":"uint40","internalType":"uint40"}]},{"type":"error","name":"SablierV2Lockup_InvalidHookSelector","inputs":[{"name":"recipient","type":"address","internalType":"address"}]},{"type":"error","name":"SablierV2Lockup_NotTransferable","inputs":[{"name":"tokenId","type":"uint256","internalType":"uint256"}]},{"type":"error","name":"SablierV2Lockup_Null","inputs":[{"name":"streamId","type":"uint256","internalType":"uint256"}]},{"type":"error","name":"SablierV2Lockup_Overdraw","inputs":[{"name":"streamId","type":"uint256","internalType":"uint256"},{"name":"amount","type":"uint128","internalType":"uint128"},{"name":"withdrawableAmount","type":"uint128","internalType":"uint128"}]},{"type":"error","name":"SablierV2Lockup_StartTimeZero","inputs":[]},{"type":"error","name":"SablierV2Lockup_StreamCanceled","inputs":[{"name":"streamId","type":"uint256","internalType":"uint256"}]},{"type":"error","name":"SablierV2Lockup_StreamDepleted","inputs":[{"name":"streamId","type":"uint256","internalType":"uint256"}]},{"type":"error","name":"SablierV2Lockup_StreamNotCancelable","inputs":[{"name":"streamId","type":"uint256","internalType":"uint256"}]},{"type":"error","name":"SablierV2Lockup_StreamNotDepleted","inputs":[{"name":"streamId","type":"uint256","internalType":"uint256"}]},{"type":"error","name":"SablierV2Lockup_StreamSettled","inputs":[{"name":"streamId","type":"uint256","internalType":"uint256"}]},{"type":"error","name":"SablierV2Lockup_Unauthorized","inputs":[{"name":"streamId","type":"uint256","internalType":"uint256"},{"name":"caller","type":"address","internalType":"address"}]},{"type":"error","name":"SablierV2Lockup_WithdrawAmountZero","inputs":[{"name":"streamId","type":"uint256","internalType":"uint256"}]},{"type":"error","name":"SablierV2Lockup_WithdrawArrayCountsNotEqual","inputs":[{"name":"streamIdsCount","type":"uint256","internalType":"uint256"},{"name":"amountsCount","type":"uint256","internalType":"uint256"}]},{"type":"error","name":"SablierV2Lockup_WithdrawToZeroAddress","inputs":[{"name":"streamId","type":"uint256","internalType":"uint256"}]},{"type":"error","name":"SablierV2Lockup_WithdrawalAddressNotRecipient","inputs":[{"name":"streamId","type":"uint256","internalType":"uint256"},{"name":"caller","type":"address","internalType":"address"},{"name":"to","type":"address","internalType":"address"}]},{"type":"error","name":"SafeERC20FailedOperation","inputs":[{"name":"token","type":"address","internalType":"address"}]}],"bytecode":{"object":"0x60c0604052346103e457614e2e6060813803918261001c816103e8565b9384928339810103126103e45780516001600160a01b038116908190036103e45760208201516001600160a01b03811692908390036103e4576040015161006360406103e8565b92601e84527f5361626c696572205632204c6f636b7570205472616e63686564204e46540000602085015261009860406103e8565b60118152705341422d56322d4c4f434b55502d54524160781b602082015230608052845190946001600160401b0382116102e75760015490600182811c921680156103da575b60208310146102c95781601f84931161036c575b50602090601f8311600114610306575f926102fb575b50508160011b915f199060031b1c1916176001555b83516001600160401b0381116102e757600254600181811c911680156102dd575b60208210146102c957601f8111610266575b50602094601f8211600114610203579481929394955f926101f8575b50508160011b915f199060031b1c1916176002555b5f80546001600160a01b031990811685178255600880549091169290921790915560405192907fbdd36143ee09de60bdefca70680e0f71189b2ed7acee364b53917ad433fdaf808180a360a0526001600755614a20908161040e823960805181613e32015260a051818181612fa10152613edb0152f35b015190505f8061016c565b601f1982169560025f52805f20915f5b88811061024e57508360019596979810610236575b505050811b01600255610181565b01515f1960f88460031b161c191690555f8080610228565b91926020600181928685015181550194019201610213565b60025f527f405787fa12a823e0f2b7631cc41b3ba8828b3321ca811111fa75cd3aa3bb5ace601f830160051c810191602084106102bf575b601f0160051c01905b8181106102b45750610150565b5f81556001016102a7565b909150819061029e565b634e487b7160e01b5f52602260045260245ffd5b90607f169061013e565b634e487b7160e01b5f52604160045260245ffd5b015190505f80610108565b60015f9081528281209350601f198516905b818110610354575090846001959493921061033c575b505050811b0160015561011d565b01515f1960f88460031b161c191690555f808061032e565b92936020600181928786015181550195019301610318565b60015f529091507fb10e2d527612073b26eecdfd717e6a320cf44b4afac2b0732d9fcbe2b7fa0cf6601f840160051c810191602085106103d0575b90601f859493920160051c01905b8181106103c257506100f2565b5f81558493506001016103b5565b90915081906103a7565b91607f16916100de565b5f80fd5b6040519190601f01601f191682016001600160401b038111838210176102e75760405256fe6080806040526004361015610012575f80fd5b5f3560e01c90816301ffc9a71461330d57508063027b6744146132eb57806306fdde0314613230578063081812fc14613212578063095ea7b31461310d5780631400ecec1461305c5780631c1cdd4c14612ff85780631e99d56914612fdb57806323b872dd14612fc45780632fe4304114612f8a578063303acc8514612f4d57806332fbe22b14612df0578063406887cb14612c8157806340e58ee5146129aa578063425d30dd1461295a57806342842e0e1461293157806342966c681461276d57806344267570146127475780634857501f146126d65780634869e12d1461269c5780634cc55e11146122f657806357404b12146122685780636352211e146122395780636d0cee751461223957806370a08231146121cf57806375829def146121615780637cad6cd1146120705780637de6b1db14611f235780637f5799f914611eca5780638659c27014611b13578063894e9a0d146117d4578063897f362b146115095780638f69b993146114895780639067b6771461143a57806395d89b4114611332578063a22cb4651461127e578063a80fc0711461122d578063ad35efd4146111ce578063b25645691461117e578063b88d4fde146110f4578063b8a3be66146110bf578063b971302a14611071578063bc2be1be14611022578063c156a11d14610c08578063c87b56dd14610afd578063d4dbd20b14610aac578063d511609f14610a61578063d975dfed14610a16578063e985e9c5146109bd578063ea5ead1914610690578063eac8f5b81461063f578063f590c176146105e4578063f851a440146105bf5763fdd46d601461026e575f80fd5b346105bb5760603660031901126105bb5760043561028a61343a565b90604435916001600160801b038316908184036105bb576102a9613e28565b825f52600a60205260ff600160405f20015460a81c16156105a957825f52600a60205260ff600160405f20015460a01c16610596576001600160a01b03811690811561058357821561057057835f5260036020526001600160a01b0360405f205416948583141580610560575b610545576001600160801b0361032b86614680565b1680851161052b575061035090855f52600a602052600260405f20015460801c6146a6565b5f858152600a6020526040902060020180546001600160801b031660809290921b6001600160801b03191691909117815561038a906139ce565b6001600160801b036103ae8160208401511692826040818351169201511690613611565b1611156104f9575b835f52600a6020526103da836001600160a01b03600160405f200154169283614804565b81847f40b88e5c41c5a97ffb7b6ef88a0a2d505aa0c634cf8a0275cb236ea7dd87ed4d6020604051878152a47ff8e1a15aba9398e019f0b49df1a4fde98ee17ae345cb5f6b5e2c27f5033e8ce76020604051858152a183331415806104e3575b61044057005b604051926392b9102b60e01b84526004840152336024840152604483015260648201526020816084815f865af19081156104d8576392b9102b60e01b916001600160e01b0319915f916104a9575b50160361049757005b632187e5e760e21b5f5260045260245ffd5b6104cb915060203d6020116104d1575b6104c3818361359d565b810190613b11565b5f61048e565b503d6104b9565b6040513d5f823e3d90fd5b50835f52600960205260ff60405f20541661043a565b5f848152600a6020526040902060018101805460ff60a01b1916600160a01b179055805460ff60f01b191690556103b6565b848663287ecaef60e21b5f5260045260245260445260645ffd5b828563b34359d360e01b5f526004523360245260445260645ffd5b5061056a8561455b565b15610316565b8363d2aabcd960e01b5f5260045260245ffd5b83630ff7ee2d60e31b5f5260045260245ffd5b82634a5541ef60e01b5f5260045260245ffd5b8262b8e7e760e51b5f5260045260245ffd5b5f80fd5b346105bb575f3660031901126105bb5760206001600160a01b035f5416604051908152f35b346105bb5760203660031901126105bb57600435805f52600a60205260ff600160405f20015460a81c161561062e575f52600a602052602060405f205460f81c6040519015158152f35b62b8e7e760e51b5f5260045260245ffd5b346105bb5760203660031901126105bb57600435805f52600a60205260ff600160405f20015460a81c161561062e575f52600a60205260206001600160a01b03600160405f20015416604051908152f35b346105bb5760403660031901126105bb576004356106ac61343a565b6106b582614680565b916106be613e28565b805f52600a60205260ff600160405f20015460a81c161561062e57805f52600a60205260ff600160405f20015460a01c166109ab576001600160a01b0382168015610998576001600160801b03841692831561098557825f5260036020526001600160a01b0360405f205416948583141580610975575b61095a576001600160801b0361074a85614680565b16808611610940575061076f90845f52600a602052600260405f20015460801c6146a6565b5f848152600a6020526040902060020180546001600160801b031660809290921b6001600160801b0319169190911781556107a9906139ce565b6001600160801b036107cd8160208401511692826040818351169201511690613611565b16111561090e575b825f52600a6020526107f9846001600160a01b03600160405f200154169283614804565b81837f40b88e5c41c5a97ffb7b6ef88a0a2d505aa0c634cf8a0275cb236ea7dd87ed4d6020604051888152a47ff8e1a15aba9398e019f0b49df1a4fde98ee17ae345cb5f6b5e2c27f5033e8ce76020604051848152a183331415806108f8575b610869575b602083604051908152f35b604051916392b9102b60e01b8352600483015233602483015260448201528160648201526020816084815f875af19081156104d8576392b9102b60e01b916001600160e01b0319915f916108d9575b5016036108c657818061085e565b50632187e5e760e21b5f5260045260245ffd5b6108f2915060203d6020116104d1576104c3818361359d565b856108b8565b50835f52600960205260ff60405f205416610859565b5f838152600a6020526040902060018101805460ff60a01b1916600160a01b179055805460ff60f01b191690556107d5565b858563287ecaef60e21b5f5260045260245260445260645ffd5b828463b34359d360e01b5f526004523360245260445260645ffd5b5061097f8461455b565b15610735565b8263d2aabcd960e01b5f5260045260245ffd5b50630ff7ee2d60e31b5f5260045260245ffd5b634a5541ef60e01b5f5260045260245ffd5b346105bb5760403660031901126105bb576109d6613424565b6001600160a01b036109e661343a565b91165f5260066020526001600160a01b0360405f2091165f52602052602060ff60405f2054166040519015158152f35b346105bb5760203660031901126105bb57600435805f52600a60205260ff600160405f20015460a81c161561062e57610a50602091614680565b6001600160801b0360405191168152f35b346105bb5760203660031901126105bb57600435805f52600a60205260ff600160405f20015460a81c161561062e575f52600a6020526020600260405f20015460801c604051908152f35b346105bb5760203660031901126105bb57600435805f52600a60205260ff600160405f20015460a81c161561062e575f52600a60205260206001600160801b03600360405f20015416604051908152f35b346105bb5760203660031901126105bb57600435610b1a81613b31565b505f6001600160a01b0360085416916044604051809481937fe9dc637500000000000000000000000000000000000000000000000000000000835230600484015260248301525afa80156104d8575f90610b8b575b610b87906040519182916020835260208301906133ff565b0390f35b503d805f833e610b9b818361359d565b8101906020818303126105bb5780519067ffffffffffffffff82116105bb57019080601f830112156105bb57815191610bd3836135bf565b91610be1604051938461359d565b838352602084830101116105bb57610b8792610c0391602080850191016133de565b610b6f565b346105bb5760403660031901126105bb57600435610c2461343a565b610c2c613e28565b815f52600a60205260ff600160405f20015460a81c161561101057815f5260036020526001600160a01b0360405f20541690813303610ff957610c6e83614680565b906001600160801b0382169182158015610d02575b50506001600160a01b03811615610cef57610ca6846001600160a01b0392613cee565b169182610cc05783637e27328960e01b5f5260045260245ffd5b8084918403610cd457602083604051908152f35b9091506364283d7b60e01b5f5260045260245260445260645ffd5b633250574960e11b5f525f60045260245ffd5b610d0a613e28565b855f52600a60205260ff600160405f20015460a81c1615610fe757855f52600a60205260ff600160405f20015460a01c16610fd4578415610fc157610fae57845f5260036020526001600160a01b0360405f205416908185141580610f9e575b610f83576001600160801b03610d7f87614680565b16808511610f695750610da490865f52600a602052600260405f20015460801c6146a6565b5f868152600a6020526040902060020180546001600160801b031660809290921b6001600160801b031916919091178155610dde906139ce565b6001600160801b03610e028160208401511692826040818351169201511690613611565b161115610f37575b845f52600a6020526001600160a01b03600160405f20015416610e2e848683614804565b84867f40b88e5c41c5a97ffb7b6ef88a0a2d505aa0c634cf8a0275cb236ea7dd87ed4d6020604051888152a47ff8e1a15aba9398e019f0b49df1a4fde98ee17ae345cb5f6b5e2c27f5033e8ce76020604051878152a18033141580610f21575b610e99575b80610c83565b6040516392b9102b60e01b81528560048201523360248201528460448201528360648201526020816084815f865af19081156104d8576392b9102b60e01b916001600160e01b0319915f91610f02575b501614610e9357632187e5e760e21b5f5260045260245ffd5b610f1b915060203d6020116104d1576104c3818361359d565b88610ee9565b50805f52600960205260ff60405f205416610e8e565b5f858152600a6020526040902060018101805460ff60a01b1916600160a01b179055805460ff60f01b19169055610e0a565b848763287ecaef60e21b5f5260045260245260445260645ffd5b848663b34359d360e01b5f526004523360245260445260645ffd5b50610fa88661455b565b15610d6a565b8463d2aabcd960e01b5f5260045260245ffd5b85630ff7ee2d60e31b5f5260045260245ffd5b85634a5541ef60e01b5f5260045260245ffd5b8562b8e7e760e51b5f5260045260245ffd5b8263216caf0d60e01b5f526004523360245260445ffd5b5062b8e7e760e51b5f5260045260245ffd5b346105bb5760203660031901126105bb57600435805f52600a60205260ff600160405f20015460a81c161561062e575f52600a602052602064ffffffffff60405f205460a01c16604051908152f35b346105bb5760203660031901126105bb57600435805f52600a60205260ff600160405f20015460a81c161561062e575f52600a60205260206001600160a01b0360405f205416604051908152f35b346105bb5760203660031901126105bb576004355f52600a602052602060ff600160405f20015460a81c166040519015158152f35b346105bb5760803660031901126105bb5761110d613424565b61111561343a565b6064359167ffffffffffffffff83116105bb57366023840112156105bb57826004013591611142836135bf565b92611150604051948561359d565b80845236602482870101116105bb576020815f92602461117c9801838801378501015260443591613a21565b005b346105bb5760203660031901126105bb57600435805f52600a60205260ff600160405f20015460a81c161561062e575f52600a602052602060ff600160405f20015460b01c166040519015158152f35b346105bb5760203660031901126105bb57600435805f52600a60205260ff600160405f20015460a81c161561062e5761120690613c5a565b6040516005821015611219576020918152f35b634e487b7160e01b5f52602160045260245ffd5b346105bb5760203660031901126105bb57600435805f52600a60205260ff600160405f20015460a81c161561062e575f52600a60205260206001600160801b03600260405f20015416604051908152f35b346105bb5760403660031901126105bb57611297613424565b602435908115158092036105bb576001600160a01b031690811561130657335f52600660205260405f20825f5260205260405f2060ff1981541660ff83161790556040519081527f17307eab39ab6107e8899845ad3d59bd9653f200f220920489ca2b5937696c3160203392a3005b507f5b08ba18000000000000000000000000000000000000000000000000000000005f5260045260245ffd5b346105bb575f3660031901126105bb576040515f6002548060011c90600181168015611430575b60208310811461141c578285529081156113f8575060011461139a575b610b87836113868185038261359d565b6040519182916020835260208301906133ff565b91905060025f527f405787fa12a823e0f2b7631cc41b3ba8828b3321ca811111fa75cd3aa3bb5ace915f905b8082106113de57509091508101602001611386611376565b9192600181602092548385880101520191019092916113c6565b60ff191660208086019190915291151560051b840190910191506113869050611376565b634e487b7160e01b5f52602260045260245ffd5b91607f1691611359565b346105bb5760203660031901126105bb57600435805f52600a60205260ff600160405f20015460a81c161561062e575f52600a602052602064ffffffffff60405f205460c81c16604051908152f35b346105bb5760203660031901126105bb57600435805f52600a60205260ff600160405f20015460a81c161561062e576114c190613c5a565b60058110158061121957600282149081156114fd575b81156114eb575b6020826040519015158152f35b905061121957600460209114826114de565b5050600381145f6114d7565b346105bb5760203660031901126105bb5760043567ffffffffffffffff81116105bb578036036101206003198201126105bb57611544613e28565b60c482013590602219018112156105bb5781019060048201359167ffffffffffffffff83116105bb5760248101908360061b80360383136105bb57600460209161158d87613875565b9661159b604051988961359d565b875282870193010101913683116105bb57905b8282106117ba575050508151916115c483613875565b926115d2604051948561359d565b808452601f196115e182613875565b015f5b81811061179757505064ffffffffff4216916001600160801b0361160782613b52565b51511664ffffffffff80602061161c85613b52565b510151168501166040519161163083613548565b8252602082015261164086613b52565b5261164a85613b52565b5060015b8281106117225750505061166482600401613a00565b9261167160248401613a00565b9261167e6044820161392e565b916064820135936001600160a01b0385168095036105bb5760209661171a966116da966001600160801b0361170f976001600160a01b036116c160848a01613a14565b94816116cf60a48c01613a14565b976040519d8e61352b565b168c52168c8b0152166040890152606088015215156080870152151560a086015260c085015260e084015260e43691016138c3565b610100820152613e82565b604051908152f35b806001600160801b0361173760019385613b5f565b51511664ffffffffff8060206117505f1986018c613b5f565b510151168160206117618689613b5f565b5101511601166040519161177483613548565b825260208201526117858289613b5f565b526117908188613b5f565b500161164e565b6020906040516117a681613548565b5f81525f83820152828289010152016115e4565b60206040916117c9368561388d565b8152019101906115ae565b346105bb5760203660031901126105bb5760043560606101606040516117f981613564565b5f81525f60208201525f60408201525f838201525f60808201525f60a08201525f60c08201525f60e08201525f6101008201525f61012082015260405161183f81613581565b5f81525f60208201525f60408201526101408201520152805f52600a60205260ff600160405f20015460a81c161561062e57805f52600a60205260405f2060405191610140830183811067ffffffffffffffff821117611aff576040528154916001600160a01b0383168452602084019264ffffffffff8160a01c168452604085019064ffffffffff8160c81c16825285606081019260ff8360f01c1615158452608082019260f81c1515835260018501549260a08301956001600160a01b038516875261193c600260c086019260ff8860a01c161515845260ff61010060e0890198828b60a81c1615158a52019860b01c1615158852016139ce565b6101208b0190815261194d89613c5a565b600581101561121957600214611af7575b5196516001600160a01b0316925164ffffffffff169551151590511515935115159451151595885f52600360205260405f20546001600160a01b03169a516001600160a01b0316995164ffffffffff16985f52600b60205260405f2092511515926040519a6119cc8c613564565b8b5260208b019b8c5260408b01998a5260608b0191825260808b0192835260a08b0193845260c08b0194855260e08b019586526101008b019687526101208b019788526101408b01988952611a209061395a565b986101608b01998a526040519b8c9b60208d52516001600160a01b031660208d0152516001600160a01b031660408c01525164ffffffffff1660608b01525164ffffffffff1660808a015251151560a089015251151560c0880152516001600160a01b031660e08701525115156101008601525115156101208501525115156101408401525180516001600160801b031661016084015260208101516001600160801b0316610180840152604001516001600160801b03166101a0830152516101c082016101c090526101e08201610b87916134cf565b5f875261195e565b634e487b7160e01b5f52604160045260245ffd5b346105bb5760203660031901126105bb5760043567ffffffffffffffff81116105bb57611b4490369060040161349e565b90611b4d613e28565b5f915b808310611b5957005b611b6483828461390a565b3592611b6e613e28565b835f52600a60205260ff600160405f20015460a81c1615611eb857835f52600a60205260ff600160405f20015460a01c165f14611bb85783634a5541ef60e01b5f5260045260245ffd5b909192805f52600a60205260405f205460f81c611ea657611bed815f52600a6020526001600160a01b0360405f205416331490565b15611e9057611bfb81613b73565b90805f52600a602052611c13600260405f20016139ce565b916001600160801b038351166001600160801b0382161015611e7d57815f52600a60205260ff60405f205460f01c1615611e6a57806001600160801b03602081611c67948188511603169501511690613611565b5f828152600a6020526040902080547dffffffffffffffffffffffffffffffffffffffffffffffffffffffffffff16600160f81b179055916001600160801b038316908115611e45575b825f52600a602052600360405f20016001600160801b0382166001600160801b0319825416179055825f52600a6020526001600160a01b0360405f205416835f5260036020526001600160a01b0360405f20541694845f52600a60205285827f5edb27d6c1a327513b90a792050debf074b7194444885e3144d4decc5caaaa50611d796001600160a01b03600160405f2001541694611d51888588614804565b604080518b81526001600160801b03808b166020830152909216908201529081906060820190565b0390a47ff8e1a15aba9398e019f0b49df1a4fde98ee17ae345cb5f6b5e2c27f5033e8ce76020604051868152a1845f52600960205260ff60405f205416611dca575b50505050506001019190611b50565b60405193630d4af11f60e31b855260048501526024840152604483015260648201526020816084815f865af19081156104d857630d4af11f60e31b916001600160e01b0319915f91611e27575b5016036104975780808080611dbb565b611e3f915060203d81116104d1576104c3818361359d565b87611e17565b825f52600a602052600160405f2001600160a01b60ff60a01b19825416179055611cb1565b506339c6dc7360e21b5f5260045260245ffd5b506322cad1af60e11b5f5260045260245ffd5b63216caf0d60e01b5f526004523360245260445ffd5b63fe19f19f60e01b5f5260045260245ffd5b8362b8e7e760e51b5f5260045260245ffd5b346105bb5760203660031901126105bb57600435805f52600a60205260ff600160405f20015460a81c161561062e575f52600b602052610b87611f0f60405f2061395a565b6040519182916020835260208301906134cf565b346105bb5760203660031901126105bb57600435611f3f613e28565b805f52600a60205260ff600160405f20015460a81c161561062e57611f6381613c5a565b60058110156112195760048103611f875750634a5541ef60e01b5f5260045260245ffd5b60038103611fa2575063fe19f19f60e01b5f5260045260245ffd5b60021461205e57611fc7815f52600a6020526001600160a01b0360405f205416331490565b15611e9057805f52600a60205260ff60405f205460f01c161561204c576020817ff8e1a15aba9398e019f0b49df1a4fde98ee17ae345cb5f6b5e2c27f5033e8ce7925f52600a825260405f2060ff60f01b19815416905560405190807f0eb069207093cd3e51cd1370d2d369770057fbe29947e577e5fb428c6c6fc78f5f80a28152a1005b6339c6dc7360e21b5f5260045260245ffd5b6322cad1af60e11b5f5260045260245ffd5b346105bb5760203660031901126105bb576004356001600160a01b0381168091036105bb576001600160a01b035f541633810361214b575060085490806001600160a01b03198316176008556001600160a01b036040519216825260208201527fa2548bd4b805e907c1558a47b5858324fe8bb4a2e1ddfca647eecbf65610eebc60403392a26007545f1981019081116121375760407f6bd5c950a8d8df17f772f5af37cb3655737899cbf903264b9795592da439661c91815190600182526020820152a1005b634e487b7160e01b5f52601160045260245ffd5b6331b339a960e21b5f526004523360245260445ffd5b346105bb5760203660031901126105bb5761217a613424565b5f546001600160a01b03811633810361214b57506001600160a01b036001600160a01b0319921691829116175f55337fbdd36143ee09de60bdefca70680e0f71189b2ed7acee364b53917ad433fdaf805f80a3005b346105bb5760203660031901126105bb576001600160a01b036121f0613424565b16801561220d575f526004602052602060405f2054604051908152f35b7f89c62b64000000000000000000000000000000000000000000000000000000005f525f60045260245ffd5b346105bb5760203660031901126105bb576020612257600435613b31565b6001600160a01b0360405191168152f35b346105bb5760203660031901126105bb57600435612284613942565b50805f52600a60205260ff600160405f20015460a81c161561062e575f908152600a6020526040908190205481519064ffffffffff60c882901c81169160a01c166122ce83613548565b825260208201526122f48251809264ffffffffff60208092828151168552015116910152565bf35b346105bb5760403660031901126105bb5760043567ffffffffffffffff81116105bb5761232790369060040161349e565b9060243567ffffffffffffffff81116105bb5761234890369060040161349e565b919092612353613e28565b82810361266c575f5b81811061236557005b61237081838561390a565b3561237c82848661390a565b355f5260036020526001600160a01b0360405f205416906123a66123a184888a61390a565b61392e565b916123af613e28565b815f52600a60205260ff600160405f20015460a81c161561101057815f52600a60205260ff600160405f20015460a01c16612659578015610998576001600160801b03831690811561098557825f5260036020526001600160a01b0360405f205416938482141580612649575b61262e576001600160801b0361243185614680565b16808411612614575061245690845f52600a602052600260405f20015460801c6146a6565b5f848152600a6020526040902060020180546001600160801b031660809290921b6001600160801b031916919091178155612490906139ce565b6001600160801b036124b48160208401511692826040818351169201511690613611565b1611156125e2575b825f52600a6020526001600160a01b03600160405f200154166124e0838383614804565b81847f40b88e5c41c5a97ffb7b6ef88a0a2d505aa0c634cf8a0275cb236ea7dd87ed4d6020604051878152a47ff8e1a15aba9398e019f0b49df1a4fde98ee17ae345cb5f6b5e2c27f5033e8ce76020604051858152a183331415806125cc575b612551575b5050505060010161235c565b604051926392b9102b60e01b84526004840152336024840152604483015260648201526020816084815f865af19081156104d8576392b9102b60e01b916001600160e01b0319915f916125ae575b50160361049757808080612545565b6125c6915060203d81116104d1576104c3818361359d565b8961259f565b50835f52600960205260ff60405f205416612540565b5f838152600a6020526040902060018101805460ff60a01b1916600160a01b179055805460ff60f01b191690556124bc565b838563287ecaef60e21b5f5260045260245260445260645ffd5b508263b34359d360e01b5f526004523360245260445260645ffd5b506126538461455b565b1561241c565b50634a5541ef60e01b5f5260045260245ffd5b90507faec93440000000000000000000000000000000000000000000000000000000005f5260045260245260445ffd5b346105bb5760203660031901126105bb57600435805f52600a60205260ff600160405f20015460a81c161561062e57610a506020916145cd565b346105bb5760203660031901126105bb57600435805f52600a60205260ff600160405f20015460a81c161561062e575f61270f82613c5a565b60058110156112195760020361272d575b6020906040519015158152f35b505f52600a602052602060ff60405f205460f01c16612720565b346105bb575f3660031901126105bb5760206001600160a01b0360085416604051908152f35b346105bb5760203660031901126105bb57600435612789613e28565b805f52600a60205260ff600160405f20015460a81c161561062e57805f52600a60205260ff600160405f20015460a01c1615612906576127c88161455b565b15611e9057805f5260036020526001600160a01b0360405f2054161515806128ff575b806128e2575b6128d0577ff8e1a15aba9398e019f0b49df1a4fde98ee17ae345cb5f6b5e2c27f5033e8ce76020604051838152a1805f5260036020526001600160a01b0360405f2054168015908115612899575b825f52600360205260405f206001600160a01b03198154169055825f827fddf252ad1be2c89b69c2b068fc378daa952ba7f163c4a11628f55a4df523b3ef8280a45061288757005b637e27328960e01b5f5260045260245ffd5b6128b8835f52600560205260405f206001600160a01b03198154169055565b805f52600460205260405f205f19815401905561283f565b630da9b01360e01b5f5260045260245ffd5b50805f52600a60205260ff600160405f20015460b01c16156127f1565b505f6127eb565b7f817cd639000000000000000000000000000000000000000000000000000000005f5260045260245ffd5b346105bb5761117c61294236613464565b906040519261295260208561359d565b5f8452613a21565b346105bb5760203660031901126105bb57600435805f52600a60205260ff600160405f20015460a81c161561062e575f52600a602052602060ff600160405f20015460a01c166040519015158152f35b346105bb5760203660031901126105bb576004356129c6613e28565b805f52600a60205260ff600160405f20015460a81c161561062e57805f52600a60205260ff600160405f20015460a01c165f14612a0f57634a5541ef60e01b5f5260045260245ffd5b805f52600a60205260405f205460f81c611ea657612a41815f52600a6020526001600160a01b0360405f205416331490565b15611e9057612a4f81613b73565b90805f52600a602052612a67600260405f20016139ce565b916001600160801b038351166001600160801b0382161015611e7d57815f52600a60205260ff60405f205460f01c1615611e6a57806001600160801b03602081612abb948188511603169501511690613611565b5f828152600a6020526040902080547dffffffffffffffffffffffffffffffffffffffffffffffffffffffffffff16600160f81b179055916001600160801b038316908115612c5c575b825f52600a602052600360405f20016001600160801b0382166001600160801b0319825416179055825f52600a6020526001600160a01b0360405f205416835f5260036020526001600160a01b0360405f20541694845f52600a60205285827f5edb27d6c1a327513b90a792050debf074b7194444885e3144d4decc5caaaa50612ba56001600160a01b03600160405f2001541694611d51888588614804565b0390a47ff8e1a15aba9398e019f0b49df1a4fde98ee17ae345cb5f6b5e2c27f5033e8ce76020604051868152a1845f52600960205260ff60405f205416612be857005b60405193630d4af11f60e31b855260048501526024840152604483015260648201526020816084815f865af19081156104d857630d4af11f60e31b916001600160e01b0319915f91612c3d5750160361049757005b612c56915060203d6020116104d1576104c3818361359d565b8461048e565b825f52600a602052600160405f2001600160a01b60ff60a01b19825416179055612b05565b346105bb5760203660031901126105bb57612c9a613424565b6001600160a01b035f541690338203612dd957806001600160a01b03913b15612dad57166040516301ffc9a760e01b81527ff8ee98d3000000000000000000000000000000000000000000000000000000006004820152602081602481855afa9081156104d8575f91612d7e575b5015612d5357805f52600960205260405f20600160ff198254161790556040519081527fb4378d4e289cb3f40f4f75a99c9cafa76e3df1c4dc31309babc23dc91bd7280160203392a2005b7f7fb843ea000000000000000000000000000000000000000000000000000000005f5260045260245ffd5b612da0915060203d602011612da6575b612d98818361359d565b8101906138f2565b82612d08565b503d612d8e565b7f5a2b2d83000000000000000000000000000000000000000000000000000000005f521660045260245ffd5b506331b339a960e21b5f526004523360245260445ffd5b346105bb5760203660031901126105bb5760043567ffffffffffffffff81116105bb5761014060031982360301126105bb57612e2a613e28565b604051612e368161352b565b612e4282600401613450565b8152612e5060248301613450565b6020820152612e61604483016135db565b604082015260648201356001600160a01b03811681036105bb576060820152612e8c6084830161351e565b6080820152612e9d60a4830161351e565b60a0820152612eae60c48301613863565b60c082015260e482013567ffffffffffffffff81116105bb57820191366023840112156105bb57600483013592612ee484613875565b90612ef2604051928361359d565b848252602060048184019660061b83010101903682116105bb57602401945b818610612f3357602061171a8661170f878760e08401526101043691016138c3565b6020604091612f42368961388d565b815201950194612f11565b346105bb5760203660031901126105bb576001600160a01b03612f6e613424565b165f526009602052602060ff60405f2054166040519015158152f35b346105bb575f3660031901126105bb5760206040517f00000000000000000000000000000000000000000000000000000000000000008152f35b346105bb5761117c612fd536613464565b91613631565b346105bb575f3660031901126105bb576020600754604051908152f35b346105bb5760203660031901126105bb57600435805f52600a60205260ff600160405f20015460a81c161561062e5761303090613c5a565b6005811015611219578060209115908115613051575b506040519015158152f35b600191501482613046565b346105bb5760203660031901126105bb57600435805f52600a60205260ff600160405f20015460a81c161561062e576020905f90805f52600a835260ff60405f205460f01c16806130f1575b6130bf575b506001600160801b0360405191168152f35b6130eb9150805f52600a83526130e56001600160801b03600260405f2001541691613b73565b90613611565b826130ad565b50805f52600a835260ff600160405f20015460a01c16156130a8565b346105bb5760403660031901126105bb57613126613424565b60243561313281613b31565b331515806131ff575b806131cc575b6131a05781906001600160a01b0380851691167f8c5be1e5ebec7d5bd14f71427d1e84f3dd0314c0f7b2291e5b200ac8c7c3b9255f80a45f5260056020526001600160a01b0360405f2091166001600160a01b03198254161790555f80f35b7fa9fbf51f000000000000000000000000000000000000000000000000000000005f523360045260245ffd5b506001600160a01b0381165f52600660205260405f206001600160a01b0333165f5260205260ff60405f20541615613141565b50336001600160a01b038216141561313b565b346105bb5760203660031901126105bb5760206122576004356135ef565b346105bb575f3660031901126105bb576040515f6001548060011c906001811680156132e1575b60208310811461141c578285529081156113f8575060011461328357610b87836113868185038261359d565b91905060015f527fb10e2d527612073b26eecdfd717e6a320cf44b4afac2b0732d9fcbe2b7fa0cf6915f905b8082106132c757509091508101602001611386611376565b9192600181602092548385880101520191019092916132af565b91607f1691613257565b346105bb575f3660031901126105bb57602060405167016345785d8a00008152f35b346105bb5760203660031901126105bb57600435906001600160e01b031982168092036105bb57817f490649060000000000000000000000000000000000000000000000000000000060209314908115613369575b5015158152f35b7f80ac58cd000000000000000000000000000000000000000000000000000000008114915081156133b4575b81156133a3575b5083613362565b6301ffc9a760e01b9150148361339c565b7f5b5e139f0000000000000000000000000000000000000000000000000000000081149150613395565b5f5b8381106133ef5750505f910152565b81810151838201526020016133e0565b90602091613418815180928185528580860191016133de565b601f01601f1916010190565b600435906001600160a01b03821682036105bb57565b602435906001600160a01b03821682036105bb57565b35906001600160a01b03821682036105bb57565b60609060031901126105bb576004356001600160a01b03811681036105bb57906024356001600160a01b03811681036105bb579060443590565b9181601f840112156105bb5782359167ffffffffffffffff83116105bb576020808501948460051b0101116105bb57565b90602080835192838152019201905f5b8181106134ec5750505090565b825180516001600160801b0316855260209081015164ffffffffff1681860152604090940193909201916001016134df565b359081151582036105bb57565b610120810190811067ffffffffffffffff821117611aff57604052565b6040810190811067ffffffffffffffff821117611aff57604052565b610180810190811067ffffffffffffffff821117611aff57604052565b6060810190811067ffffffffffffffff821117611aff57604052565b90601f8019910116810190811067ffffffffffffffff821117611aff57604052565b67ffffffffffffffff8111611aff57601f01601f191660200190565b35906001600160801b03821682036105bb57565b6135f881613b31565b505f5260056020526001600160a01b0360405f20541690565b906001600160801b03809116911603906001600160801b03821161213757565b91906001600160a01b03168015610cef57815f5260036020526001600160a01b0360405f20541615158061385b575b8061383e575b61382b577ff8e1a15aba9398e019f0b49df1a4fde98ee17ae345cb5f6b5e2c27f5033e8ce76020604051848152a1815f5260036020526001600160a01b0360405f20541692823315159283613776575b6001600160a01b0393508561373f575b805f52600460205260405f2060018154019055815f52600360205260405f20816001600160a01b0319825416179055857fddf252ad1be2c89b69c2b068fc378daa952ba7f163c4a11628f55a4df523b3ef5f80a41680830361372757505050565b6364283d7b60e01b5f5260045260245260445260645ffd5b61375e825f52600560205260405f206001600160a01b03198154169055565b855f52600460205260405f205f1981540190556136c6565b91929050806137d4575b1561378d578282916136b6565b82846137a557637e27328960e01b5f5260045260245ffd5b7f177e802f000000000000000000000000000000000000000000000000000000005f523360045260245260445ffd5b503384148015613802575b806137805750825f526005602052336001600160a01b0360405f20541614613780565b50835f52600660205260405f206001600160a01b0333165f5260205260ff60405f2054166137df565b50630da9b01360e01b5f5260045260245ffd5b50815f52600a60205260ff600160405f20015460b01c1615613666565b506001613660565b359064ffffffffff821682036105bb57565b67ffffffffffffffff8111611aff5760051b60200190565b91908260409103126105bb576040516138a581613548565b60206138be8183956138b6816135db565b855201613863565b910152565b91908260409103126105bb576040516138db81613548565b60208082946138e981613450565b84520135910152565b908160209103126105bb575180151581036105bb5790565b919081101561391a5760051b0190565b634e487b7160e01b5f52603260045260245ffd5b356001600160801b03811681036105bb5790565b6040519061394f82613548565b5f6020838281520152565b90815461396681613875565b92613974604051948561359d565b81845260208401905f5260205f205f915b8383106139925750505050565b6001602081926040516139a481613548565b64ffffffffff86546001600160801b038116835260801c1683820152815201920192019190613985565b906040516139db81613581565b60406001600160801b03600183958054838116865260801c6020860152015416910152565b356001600160a01b03811681036105bb5790565b3580151581036105bb5790565b90613a2d838284613631565b803b613a3a575b50505050565b602091613a806001600160a01b03809316956040519586948594630a85bd0160e11b865233600487015216602485015260448401526080606484015260848301906133ff565b03815f865af15f9181613af0575b50613abc5750613a9c614651565b80519081613ab75782633250574960e11b5f5260045260245ffd5b602001fd5b6001600160e01b0319630a85bd0160e11b911603613ade57505f808080613a34565b633250574960e11b5f5260045260245ffd5b613b0a91925060203d6020116104d1576104c3818361359d565b905f613a8e565b908160209103126105bb57516001600160e01b0319811681036105bb5790565b805f5260036020526001600160a01b0360405f205416908115612887575090565b80511561391a5760200190565b805182101561391a5760209160051b010190565b9064ffffffffff421691805f52600b602052613b9160405f2061395a565b908364ffffffffff6020613ba485613b52565b5101511611613c5357805f52600a6020528364ffffffffff60405f205460c81c161115613c3457506001600160801b03613bdd82613b52565b515116916001925b8251841015613c2d578464ffffffffff6020613c018787613b5f565b5101511611613c2d576001600160801b0360019181613c208787613b5f565b5151160116930192613be5565b9350915050565b919250505f52600a6020526001600160801b03600260405f2001541690565b505f925050565b805f52600a60205260ff600160405f20015460a01c165f14613c7c5750600490565b805f52600a60205260405f205460f81c613ce857805f52600a60205264ffffffffff60405f205460a01c164210613ce357613cb681613b73565b905f52600a6020526001600160801b0380600260405f200154169116105f14613cde57600190565b600290565b505f90565b50600390565b90805f5260036020526001600160a01b0360405f205416151580613e16575b80613df9575b6128d0577ff8e1a15aba9398e019f0b49df1a4fde98ee17ae345cb5f6b5e2c27f5033e8ce76020604051838152a1805f5260036020526001600160a01b038060405f2054169283613dc2575b1680613daa575b815f52600360205260405f20816001600160a01b0319825416179055827fddf252ad1be2c89b69c2b068fc378daa952ba7f163c4a11628f55a4df523b3ef5f80a490565b805f52600460205260405f2060018154019055613d66565b613de1835f52600560205260405f206001600160a01b03198154169055565b835f52600460205260405f205f198154019055613d5f565b50805f52600a60205260ff600160405f20015460b01c1615613d13565b506001600160a01b0382161515613d0d565b6001600160a01b037f0000000000000000000000000000000000000000000000000000000000000000163003613e5a57565b7fa1c0d6e5000000000000000000000000000000000000000000000000000000005f5260045ffd5b90613ea46001600160801b0360408401511660206101008501510151906146c6565b916001600160801b038351169060e08101519160c082019264ffffffffff845116821561453357801561450b57815180156144e3577f000000000000000000000000000000000000000000000000000000000000000081116144b8575064ffffffffff6020613f1284613b52565b5101511681101561447457505f905f905f81515f905b8082106143ec575050505064ffffffffff804216911690818110156143be5750506001600160801b03169081810361439057505060075493845f52600a60205260405f20916001600160801b038251166001600160801b036002850191166001600160801b03198254161790556001600160a01b03606082015116916001600160a01b036001850193166001600160a01b031984541617835560808201948551151560ff60f01b197eff00000000000000000000000000000000000000000000000000000000000087549260f01b169116178555835493750100000000000000000000000000000000000000000060a08501957fffffffffffffffffff0000ffffffffffffffffffffffffffffffffffffffffff76ff000000000000000000000000000000000000000000008851151560b01b169116171790556001600160a01b0380845116166001600160a01b03198654161785555184549060e0840151917fffff00000000000000000000ffffffffffffffffffffffffffffffffffffffff78ffffffffff00000000000000000000000000000000000000007dffffffffff0000000000000000000000000000000000000000000000000060206140f48751975f19890190613b5f565b51015160c81b169360a01b169116171785555f5b8181106142de575050600187016007556001600160a01b036020830151168015610cef5761413e886001600160a01b0392613cee565b166142b257868261418c6001600160a01b0360607ffeb1cb9ce021c8bd5fb1eb836e6284c68866fa32d1d844238de19955238f8076960151166001600160801b0385511690309033906147a3565b6001600160801b0360208401511680614282575b506001600160a01b03815116946142776142596001600160a01b03602085015116986001600160a01b036060860151169a511515935115156001600160a01b0361010060e088015193549764ffffffffff604051996141fe8b613548565b818160a01c168b5260c81c1660208a015201515116946001600160801b0360206040519a8b9a8b5233828c01528281511660408c01520151166060890152608088015260a087015261014060c08701526101408601906134cf565b9260e085019064ffffffffff60208092828151168552015116910152565b6101208301520390a4565b6142ac906001600160a01b036060840151166001600160a01b0361010085015151169033906147a3565b5f6141a0565b7f73c6ac6e000000000000000000000000000000000000000000000000000000005f525f60045260245ffd5b885f52600b60205260405f20906142f98160e0870151613b5f565b5182549268010000000000000000841015611aff576001840180825584101561391a576001936020915f52815f2001916001600160801b0380825116166001600160801b031984541617835501517fffffffffffffffffffffff0000000000ffffffffffffffffffffffffffffffff74ffffffffff0000000000000000000000000000000083549260801b16911617905501614108565b7f6375ff13000000000000000000000000000000000000000000000000000000005f5260045260245260445ffd5b7f210aec0e000000000000000000000000000000000000000000000000000000005f5260045260245260445ffd5b9193509193614410906001600160801b036144078588613b5f565b515116906146a6565b9364ffffffffff8060206144248685613b5f565b5101511694168085111561444057506001849301909291613f28565b8490847fd97494c6000000000000000000000000000000000000000000000000000000005f5260045260245260445260645ffd5b64ffffffffff602061448584613b52565b51015116907ff1fb2cc5000000000000000000000000000000000000000000000000000000005f5260045260245260445ffd5b7f73627f74000000000000000000000000000000000000000000000000000000005f5260045260245ffd5b7f7ea4ccdf000000000000000000000000000000000000000000000000000000005f5260045ffd5b7fd572dbcb000000000000000000000000000000000000000000000000000000005f5260045ffd5b7f6095d3bc000000000000000000000000000000000000000000000000000000005f5260045ffd5b805f5260036020526001600160a01b0360405f205416908133149182156145a1575b508115614588575090565b90506001600160a01b0361459c33926135ef565b161490565b9091505f52600660205260405f206001600160a01b0333165f5260205260ff60405f205416905f61457d565b805f52600a6020526145e4600260405f20016139ce565b90805f52600a60205260ff600160405f20015460a01c165f146146125750602001516001600160801b031690565b90815f52600a60205260405f205460f81c614634575061463190613b73565b90565b61463191506001600160801b036040818351169201511690613611565b3d1561467b573d90614662826135bf565b91614670604051938461359d565b82523d5f602084013e565b606090565b6146319061468d816145cd565b905f52600a602052600260405f20015460801c90613611565b906001600160801b03809116911601906001600160801b03821161213757565b9190916040516146d581613548565b5f81525f6020820152926001600160801b0382169081156147865767016345785d8a0000811161474f576147116001600160801b0391836148d9565b166020850191818352111561473b576001600160801b03918261473692511690613611565b168252565b634e487b7160e01b5f52600160045260245ffd5b7f4fea5c1a000000000000000000000000000000000000000000000000000000005f5260045267016345785d8a000060245260445ffd5b505050905060405161479781613548565b5f81525f602082015290565b9091926001600160a01b036148029481604051957f23b872dd0000000000000000000000000000000000000000000000000000000060208801521660248601521660448401526064830152606482526147fd60848361359d565b614854565b565b614802926001600160a01b03604051937fa9059cbb0000000000000000000000000000000000000000000000000000000060208601521660248401526044830152604482526147fd60648361359d565b5f806001600160a01b0361487d93169360208151910182865af1614876614651565b9083614987565b80519081151591826148be575b50506148935750565b7f5274afe7000000000000000000000000000000000000000000000000000000005f5260045260245ffd5b6148d192506020809183010191016138f2565b155f8061488a565b9091905f198382098382029182808310920391808303921461497657670de0b6b3a7640000821015614946577faccb18165bd6fe31ae1cf318dc5b51eee0e1ba569b88cd74c1773b91fac106699394670de0b6b3a7640000910990828211900360ee1b910360121c170290565b84907f5173648d000000000000000000000000000000000000000000000000000000005f5260045260245260445ffd5b5050670de0b6b3a764000090049150565b906149c4575080511561499c57805190602001fd5b7f1425ea42000000000000000000000000000000000000000000000000000000005f5260045ffd5b81511580614a0a575b6149d5575090565b6001600160a01b03907f9996b315000000000000000000000000000000000000000000000000000000005f521660045260245ffd5b50803b156149cd56fea164736f6c634300081a000a","linkReferences":{}},"methodIdentifiers":{"MAX_BROKER_FEE()":"027b6744","MAX_TRANCHE_COUNT()":"2fe43041","admin()":"f851a440","allowToHook(address)":"406887cb","approve(address,uint256)":"095ea7b3","balanceOf(address)":"70a08231","burn(uint256)":"42966c68","cancel(uint256)":"40e58ee5","cancelMultiple(uint256[])":"8659c270","createWithDurations((address,address,uint128,address,bool,bool,(uint128,uint40)[],(address,uint256)))":"897f362b","createWithTimestamps((address,address,uint128,address,bool,bool,uint40,(uint128,uint40)[],(address,uint256)))":"32fbe22b","getApproved(uint256)":"081812fc","getAsset(uint256)":"eac8f5b8","getDepositedAmount(uint256)":"a80fc071","getEndTime(uint256)":"9067b677","getRecipient(uint256)":"6d0cee75","getRefundedAmount(uint256)":"d4dbd20b","getSender(uint256)":"b971302a","getStartTime(uint256)":"bc2be1be","getStream(uint256)":"894e9a0d","getTimestamps(uint256)":"57404b12","getTranches(uint256)":"7f5799f9","getWithdrawnAmount(uint256)":"d511609f","isAllowedToHook(address)":"303acc85","isApprovedForAll(address,address)":"e985e9c5","isCancelable(uint256)":"4857501f","isCold(uint256)":"8f69b993","isDepleted(uint256)":"425d30dd","isStream(uint256)":"b8a3be66","isTransferable(uint256)":"b2564569","isWarm(uint256)":"1c1cdd4c","name()":"06fdde03","nextStreamId()":"1e99d569","nftDescriptor()":"44267570","ownerOf(uint256)":"6352211e","refundableAmountOf(uint256)":"1400ecec","renounce(uint256)":"7de6b1db","safeTransferFrom(address,address,uint256)":"42842e0e","safeTransferFrom(address,address,uint256,bytes)":"b88d4fde","setApprovalForAll(address,bool)":"a22cb465","setNFTDescriptor(address)":"7cad6cd1","statusOf(uint256)":"ad35efd4","streamedAmountOf(uint256)":"4869e12d","supportsInterface(bytes4)":"01ffc9a7","symbol()":"95d89b41","tokenURI(uint256)":"c87b56dd","transferAdmin(address)":"75829def","transferFrom(address,address,uint256)":"23b872dd","wasCanceled(uint256)":"f590c176","withdraw(uint256,address,uint128)":"fdd46d60","withdrawMax(uint256,address)":"ea5ead19","withdrawMaxAndTransfer(uint256,address)":"c156a11d","withdrawMultiple(uint256[],uint128[])":"4cc55e11","withdrawableAmountOf(uint256)":"d975dfed"},"id":86}