{"abi":[{"type":"constructor","inputs":[{"name":"initialAdmin","type":"address","internalType":"address"},{"name":"initialNFTDescriptor","type":"address","internalType":"contract ISablierV2NFTDescriptor"}],"stateMutability":"nonpayable"},{"type":"function","name":"MAX_BROKER_FEE","inputs":[],"outputs":[{"name":"","type":"uint256","internalType":"UD60x18"}],"stateMutability":"view"},{"type":"function","name":"admin","inputs":[],"outputs":[{"name":"","type":"address","internalType":"address"}],"stateMutability":"view"},{"type":"function","name":"allowToHook","inputs":[{"name":"recipient","type":"address","internalType":"address"}],"outputs":[],"stateMutability":"nonpayable"},{"type":"function","name":"approve","inputs":[{"name":"to","type":"address","internalType":"address"},{"name":"tokenId","type":"uint256","internalType":"uint256"}],"outputs":[],"stateMutability":"nonpayable"},{"type":"function","name":"balanceOf","inputs":[{"name":"owner","type":"address","internalType":"address"}],"outputs":[{"name":"","type":"uint256","internalType":"uint256"}],"stateMutability":"view"},{"type":"function","name":"burn","inputs":[{"name":"streamId","type":"uint256","internalType":"uint256"}],"outputs":[],"stateMutability":"nonpayable"},{"type":"function","name":"cancel","inputs":[{"name":"streamId","type":"uint256","internalType":"uint256"}],"outputs":[],"stateMutability":"nonpayable"},{"type":"function","name":"cancelMultiple","inputs":[{"name":"streamIds","type":"uint256[]","internalType":"uint256[]"}],"outputs":[],"stateMutability":"nonpayable"},{"type":"function","name":"claimRebasingAssetYield","inputs":[{"name":"asset","type":"address","internalType":"contract IERC20Rebasing"},{"name":"amount","type":"uint256","internalType":"uint256"},{"name":"to","type":"address","internalType":"address"}],"outputs":[{"name":"claimed","type":"uint256","internalType":"uint256"}],"stateMutability":"nonpayable"},{"type":"function","name":"configureRebasingAsset","inputs":[{"name":"asset","type":"address","internalType":"contract IERC20Rebasing"},{"name":"yieldMode","type":"uint8","internalType":"enum YieldMode"}],"outputs":[],"stateMutability":"nonpayable"},{"type":"function","name":"configureYieldAndGas","inputs":[{"name":"blast","type":"address","internalType":"contract IBlast"},{"name":"yieldMode","type":"uint8","internalType":"enum YieldMode"},{"name":"gasMode","type":"uint8","internalType":"enum GasMode"},{"name":"governor","type":"address","internalType":"address"}],"outputs":[],"stateMutability":"nonpayable"},{"type":"function","name":"createWithDurations","inputs":[{"name":"params","type":"tuple","internalType":"struct LockupLinear.CreateWithDurations","components":[{"name":"sender","type":"address","internalType":"address"},{"name":"recipient","type":"address","internalType":"address"},{"name":"totalAmount","type":"uint128","internalType":"uint128"},{"name":"asset","type":"address","internalType":"contract IERC20"},{"name":"cancelable","type":"bool","internalType":"bool"},{"name":"transferable","type":"bool","internalType":"bool"},{"name":"durations","type":"tuple","internalType":"struct LockupLinear.Durations","components":[{"name":"cliff","type":"uint40","internalType":"uint40"},{"name":"total","type":"uint40","internalType":"uint40"}]},{"name":"broker","type":"tuple","internalType":"struct Broker","components":[{"name":"account","type":"address","internalType":"address"},{"name":"fee","type":"uint256","internalType":"UD60x18"}]}]}],"outputs":[{"name":"streamId","type":"uint256","internalType":"uint256"}],"stateMutability":"nonpayable"},{"type":"function","name":"createWithTimestamps","inputs":[{"name":"params","type":"tuple","internalType":"struct LockupLinear.CreateWithTimestamps","components":[{"name":"sender","type":"address","internalType":"address"},{"name":"recipient","type":"address","internalType":"address"},{"name":"totalAmount","type":"uint128","internalType":"uint128"},{"name":"asset","type":"address","internalType":"contract IERC20"},{"name":"cancelable","type":"bool","internalType":"bool"},{"name":"transferable","type":"bool","internalType":"bool"},{"name":"timestamps","type":"tuple","internalType":"struct LockupLinear.Timestamps","components":[{"name":"start","type":"uint40","internalType":"uint40"},{"name":"cliff","type":"uint40","internalType":"uint40"},{"name":"end","type":"uint40","internalType":"uint40"}]},{"name":"broker","type":"tuple","internalType":"struct Broker","components":[{"name":"account","type":"address","internalType":"address"},{"name":"fee","type":"uint256","internalType":"UD60x18"}]}]}],"outputs":[{"name":"streamId","type":"uint256","internalType":"uint256"}],"stateMutability":"nonpayable"},{"type":"function","name":"getApproved","inputs":[{"name":"tokenId","type":"uint256","internalType":"uint256"}],"outputs":[{"name":"","type":"address","internalType":"address"}],"stateMutability":"view"},{"type":"function","name":"getAsset","inputs":[{"name":"streamId","type":"uint256","internalType":"uint256"}],"outputs":[{"name":"asset","type":"address","internalType":"contract IERC20"}],"stateMutability":"view"},{"type":"function","name":"getClaimableRebasingAssetYield","inputs":[{"name":"asset","type":"address","internalType":"contract IERC20Rebasing"}],"outputs":[{"name":"claimableYield","type":"uint256","internalType":"uint256"}],"stateMutability":"view"},{"type":"function","name":"getCliffTime","inputs":[{"name":"streamId","type":"uint256","internalType":"uint256"}],"outputs":[{"name":"cliffTime","type":"uint40","internalType":"uint40"}],"stateMutability":"view"},{"type":"function","name":"getDepositedAmount","inputs":[{"name":"streamId","type":"uint256","internalType":"uint256"}],"outputs":[{"name":"depositedAmount","type":"uint128","internalType":"uint128"}],"stateMutability":"view"},{"type":"function","name":"getEndTime","inputs":[{"name":"streamId","type":"uint256","internalType":"uint256"}],"outputs":[{"name":"endTime","type":"uint40","internalType":"uint40"}],"stateMutability":"view"},{"type":"function","name":"getRebasingAssetConfiguration","inputs":[{"name":"asset","type":"address","internalType":"contract IERC20Rebasing"}],"outputs":[{"name":"yieldMode","type":"uint8","internalType":"enum YieldMode"}],"stateMutability":"view"},{"type":"function","name":"getRecipient","inputs":[{"name":"streamId","type":"uint256","internalType":"uint256"}],"outputs":[{"name":"recipient","type":"address","internalType":"address"}],"stateMutability":"view"},{"type":"function","name":"getRefundedAmount","inputs":[{"name":"streamId","type":"uint256","internalType":"uint256"}],"outputs":[{"name":"refundedAmount","type":"uint128","internalType":"uint128"}],"stateMutability":"view"},{"type":"function","name":"getSender","inputs":[{"name":"streamId","type":"uint256","internalType":"uint256"}],"outputs":[{"name":"sender","type":"address","internalType":"address"}],"stateMutability":"view"},{"type":"function","name":"getStartTime","inputs":[{"name":"streamId","type":"uint256","internalType":"uint256"}],"outputs":[{"name":"startTime","type":"uint40","internalType":"uint40"}],"stateMutability":"view"},{"type":"function","name":"getStream","inputs":[{"name":"streamId","type":"uint256","internalType":"uint256"}],"outputs":[{"name":"stream","type":"tuple","internalType":"struct LockupLinear.StreamLL","components":[{"name":"sender","type":"address","internalType":"address"},{"name":"recipient","type":"address","internalType":"address"},{"name":"startTime","type":"uint40","internalType":"uint40"},{"name":"isCancelable","type":"bool","internalType":"bool"},{"name":"wasCanceled","type":"bool","internalType":"bool"},{"name":"asset","type":"address","internalType":"contract IERC20"},{"name":"endTime","type":"uint40","internalType":"uint40"},{"name":"isDepleted","type":"bool","internalType":"bool"},{"name":"isStream","type":"bool","internalType":"bool"},{"name":"isTransferable","type":"bool","internalType":"bool"},{"name":"amounts","type":"tuple","internalType":"struct Lockup.Amounts","components":[{"name":"deposited","type":"uint128","internalType":"uint128"},{"name":"withdrawn","type":"uint128","internalType":"uint128"},{"name":"refunded","type":"uint128","internalType":"uint128"}]},{"name":"cliffTime","type":"uint40","internalType":"uint40"}]}],"stateMutability":"view"},{"type":"function","name":"getTimestamps","inputs":[{"name":"streamId","type":"uint256","internalType":"uint256"}],"outputs":[{"name":"timestamps","type":"tuple","internalType":"struct LockupLinear.Timestamps","components":[{"name":"start","type":"uint40","internalType":"uint40"},{"name":"cliff","type":"uint40","internalType":"uint40"},{"name":"end","type":"uint40","internalType":"uint40"}]}],"stateMutability":"view"},{"type":"function","name":"getWithdrawnAmount","inputs":[{"name":"streamId","type":"uint256","internalType":"uint256"}],"outputs":[{"name":"withdrawnAmount","type":"uint128","internalType":"uint128"}],"stateMutability":"view"},{"type":"function","name":"isAllowedToHook","inputs":[{"name":"recipient","type":"address","internalType":"address"}],"outputs":[{"name":"result","type":"bool","internalType":"bool"}],"stateMutability":"view"},{"type":"function","name":"isApprovedForAll","inputs":[{"name":"owner","type":"address","internalType":"address"},{"name":"operator","type":"address","internalType":"address"}],"outputs":[{"name":"","type":"bool","internalType":"bool"}],"stateMutability":"view"},{"type":"function","name":"isCancelable","inputs":[{"name":"streamId","type":"uint256","internalType":"uint256"}],"outputs":[{"name":"result","type":"bool","internalType":"bool"}],"stateMutability":"view"},{"type":"function","name":"isCold","inputs":[{"name":"streamId","type":"uint256","internalType":"uint256"}],"outputs":[{"name":"result","type":"bool","internalType":"bool"}],"stateMutability":"view"},{"type":"function","name":"isDepleted","inputs":[{"name":"streamId","type":"uint256","internalType":"uint256"}],"outputs":[{"name":"result","type":"bool","internalType":"bool"}],"stateMutability":"view"},{"type":"function","name":"isStream","inputs":[{"name":"streamId","type":"uint256","internalType":"uint256"}],"outputs":[{"name":"result","type":"bool","internalType":"bool"}],"stateMutability":"view"},{"type":"function","name":"isTransferable","inputs":[{"name":"streamId","type":"uint256","internalType":"uint256"}],"outputs":[{"name":"result","type":"bool","internalType":"bool"}],"stateMutability":"view"},{"type":"function","name":"isWarm","inputs":[{"name":"streamId","type":"uint256","internalType":"uint256"}],"outputs":[{"name":"result","type":"bool","internalType":"bool"}],"stateMutability":"view"},{"type":"function","name":"name","inputs":[],"outputs":[{"name":"","type":"string","internalType":"string"}],"stateMutability":"view"},{"type":"function","name":"nextStreamId","inputs":[],"outputs":[{"name":"","type":"uint256","internalType":"uint256"}],"stateMutability":"view"},{"type":"function","name":"nftDescriptor","inputs":[],"outputs":[{"name":"","type":"address","internalType":"contract ISablierV2NFTDescriptor"}],"stateMutability":"view"},{"type":"function","name":"ownerOf","inputs":[{"name":"tokenId","type":"uint256","internalType":"uint256"}],"outputs":[{"name":"","type":"address","internalType":"address"}],"stateMutability":"view"},{"type":"function","name":"refundableAmountOf","inputs":[{"name":"streamId","type":"uint256","internalType":"uint256"}],"outputs":[{"name":"refundableAmount","type":"uint128","internalType":"uint128"}],"stateMutability":"view"},{"type":"function","name":"renounce","inputs":[{"name":"streamId","type":"uint256","internalType":"uint256"}],"outputs":[],"stateMutability":"nonpayable"},{"type":"function","name":"safeTransferFrom","inputs":[{"name":"from","type":"address","internalType":"address"},{"name":"to","type":"address","internalType":"address"},{"name":"tokenId","type":"uint256","internalType":"uint256"}],"outputs":[],"stateMutability":"nonpayable"},{"type":"function","name":"safeTransferFrom","inputs":[{"name":"from","type":"address","internalType":"address"},{"name":"to","type":"address","internalType":"address"},{"name":"tokenId","type":"uint256","internalType":"uint256"},{"name":"data","type":"bytes","internalType":"bytes"}],"outputs":[],"stateMutability":"nonpayable"},{"type":"function","name":"setApprovalForAll","inputs":[{"name":"operator","type":"address","internalType":"address"},{"name":"approved","type":"bool","internalType":"bool"}],"outputs":[],"stateMutability":"nonpayable"},{"type":"function","name":"setNFTDescriptor","inputs":[{"name":"newNFTDescriptor","type":"address","internalType":"contract ISablierV2NFTDescriptor"}],"outputs":[],"stateMutability":"nonpayable"},{"type":"function","name":"statusOf","inputs":[{"name":"streamId","type":"uint256","internalType":"uint256"}],"outputs":[{"name":"status","type":"uint8","internalType":"enum Lockup.Status"}],"stateMutability":"view"},{"type":"function","name":"streamedAmountOf","inputs":[{"name":"streamId","type":"uint256","internalType":"uint256"}],"outputs":[{"name":"streamedAmount","type":"uint128","internalType":"uint128"}],"stateMutability":"view"},{"type":"function","name":"supportsInterface","inputs":[{"name":"interfaceId","type":"bytes4","internalType":"bytes4"}],"outputs":[{"name":"","type":"bool","internalType":"bool"}],"stateMutability":"view"},{"type":"function","name":"symbol","inputs":[],"outputs":[{"name":"","type":"string","internalType":"string"}],"stateMutability":"view"},{"type":"function","name":"tokenURI","inputs":[{"name":"streamId","type":"uint256","internalType":"uint256"}],"outputs":[{"name":"uri","type":"string","internalType":"string"}],"stateMutability":"view"},{"type":"function","name":"transferAdmin","inputs":[{"name":"newAdmin","type":"address","internalType":"address"}],"outputs":[],"stateMutability":"nonpayable"},{"type":"function","name":"transferFrom","inputs":[{"name":"from","type":"address","internalType":"address"},{"name":"to","type":"address","internalType":"address"},{"name":"tokenId","type":"uint256","internalType":"uint256"}],"outputs":[],"stateMutability":"nonpayable"},{"type":"function","name":"wasCanceled","inputs":[{"name":"streamId","type":"uint256","internalType":"uint256"}],"outputs":[{"name":"result","type":"bool","internalType":"bool"}],"stateMutability":"view"},{"type":"function","name":"withdraw","inputs":[{"name":"streamId","type":"uint256","internalType":"uint256"},{"name":"to","type":"address","internalType":"address"},{"name":"amount","type":"uint128","internalType":"uint128"}],"outputs":[],"stateMutability":"nonpayable"},{"type":"function","name":"withdrawMax","inputs":[{"name":"streamId","type":"uint256","internalType":"uint256"},{"name":"to","type":"address","internalType":"address"}],"outputs":[{"name":"withdrawnAmount","type":"uint128","internalType":"uint128"}],"stateMutability":"nonpayable"},{"type":"function","name":"withdrawMaxAndTransfer","inputs":[{"name":"streamId","type":"uint256","internalType":"uint256"},{"name":"newRecipient","type":"address","internalType":"address"}],"outputs":[{"name":"withdrawnAmount","type":"uint128","internalType":"uint128"}],"stateMutability":"nonpayable"},{"type":"function","name":"withdrawMultiple","inputs":[{"name":"streamIds","type":"uint256[]","internalType":"uint256[]"},{"name":"amounts","type":"uint128[]","internalType":"uint128[]"}],"outputs":[],"stateMutability":"nonpayable"},{"type":"function","name":"withdrawableAmountOf","inputs":[{"name":"streamId","type":"uint256","internalType":"uint256"}],"outputs":[{"name":"withdrawableAmount","type":"uint128","internalType":"uint128"}],"stateMutability":"view"},{"type":"event","name":"AllowToHook","inputs":[{"name":"admin","type":"address","indexed":true,"internalType":"address"},{"name":"recipient","type":"address","indexed":false,"internalType":"address"}],"anonymous":false},{"type":"event","name":"Approval","inputs":[{"name":"owner","type":"address","indexed":true,"internalType":"address"},{"name":"approved","type":"address","indexed":true,"internalType":"address"},{"name":"tokenId","type":"uint256","indexed":true,"internalType":"uint256"}],"anonymous":false},{"type":"event","name":"ApprovalForAll","inputs":[{"name":"owner","type":"address","indexed":true,"internalType":"address"},{"name":"operator","type":"address","indexed":true,"internalType":"address"},{"name":"approved","type":"bool","indexed":false,"internalType":"bool"}],"anonymous":false},{"type":"event","name":"BatchMetadataUpdate","inputs":[{"name":"_fromTokenId","type":"uint256","indexed":false,"internalType":"uint256"},{"name":"_toTokenId","type":"uint256","indexed":false,"internalType":"uint256"}],"anonymous":false},{"type":"event","name":"CancelLockupStream","inputs":[{"name":"streamId","type":"uint256","indexed":false,"internalType":"uint256"},{"name":"sender","type":"address","indexed":true,"internalType":"address"},{"name":"recipient","type":"address","indexed":true,"internalType":"address"},{"name":"asset","type":"address","indexed":true,"internalType":"contract IERC20"},{"name":"senderAmount","type":"uint128","indexed":false,"internalType":"uint128"},{"name":"recipientAmount","type":"uint128","indexed":false,"internalType":"uint128"}],"anonymous":false},{"type":"event","name":"CreateLockupLinearStream","inputs":[{"name":"streamId","type":"uint256","indexed":false,"internalType":"uint256"},{"name":"funder","type":"address","indexed":false,"internalType":"address"},{"name":"sender","type":"address","indexed":true,"internalType":"address"},{"name":"recipient","type":"address","indexed":true,"internalType":"address"},{"name":"amounts","type":"tuple","indexed":false,"internalType":"struct Lockup.CreateAmounts","components":[{"name":"deposit","type":"uint128","internalType":"uint128"},{"name":"brokerFee","type":"uint128","internalType":"uint128"}]},{"name":"asset","type":"address","indexed":true,"internalType":"contract IERC20"},{"name":"cancelable","type":"bool","indexed":false,"internalType":"bool"},{"name":"transferable","type":"bool","indexed":false,"internalType":"bool"},{"name":"timestamps","type":"tuple","indexed":false,"internalType":"struct LockupLinear.Timestamps","components":[{"name":"start","type":"uint40","internalType":"uint40"},{"name":"cliff","type":"uint40","internalType":"uint40"},{"name":"end","type":"uint40","internalType":"uint40"}]},{"name":"broker","type":"address","indexed":false,"internalType":"address"}],"anonymous":false},{"type":"event","name":"MetadataUpdate","inputs":[{"name":"_tokenId","type":"uint256","indexed":false,"internalType":"uint256"}],"anonymous":false},{"type":"event","name":"RenounceLockupStream","inputs":[{"name":"streamId","type":"uint256","indexed":true,"internalType":"uint256"}],"anonymous":false},{"type":"event","name":"SetNFTDescriptor","inputs":[{"name":"admin","type":"address","indexed":true,"internalType":"address"},{"name":"oldNFTDescriptor","type":"address","indexed":false,"internalType":"contract ISablierV2NFTDescriptor"},{"name":"newNFTDescriptor","type":"address","indexed":false,"internalType":"contract ISablierV2NFTDescriptor"}],"anonymous":false},{"type":"event","name":"Transfer","inputs":[{"name":"from","type":"address","indexed":true,"internalType":"address"},{"name":"to","type":"address","indexed":true,"internalType":"address"},{"name":"tokenId","type":"uint256","indexed":true,"internalType":"uint256"}],"anonymous":false},{"type":"event","name":"TransferAdmin","inputs":[{"name":"oldAdmin","type":"address","indexed":true,"internalType":"address"},{"name":"newAdmin","type":"address","indexed":true,"internalType":"address"}],"anonymous":false},{"type":"event","name":"WithdrawFromLockupStream","inputs":[{"name":"streamId","type":"uint256","indexed":true,"internalType":"uint256"},{"name":"to","type":"address","indexed":true,"internalType":"address"},{"name":"asset","type":"address","indexed":true,"internalType":"contract IERC20"},{"name":"amount","type":"uint128","indexed":false,"internalType":"uint128"}],"anonymous":false},{"type":"error","name":"AddressEmptyCode","inputs":[{"name":"target","type":"address","internalType":"address"}]},{"type":"error","name":"AddressInsufficientBalance","inputs":[{"name":"account","type":"address","internalType":"address"}]},{"type":"error","name":"CallerNotAdmin","inputs":[{"name":"admin","type":"address","internalType":"address"},{"name":"caller","type":"address","internalType":"address"}]},{"type":"error","name":"DelegateCall","inputs":[]},{"type":"error","name":"ERC721IncorrectOwner","inputs":[{"name":"sender","type":"address","internalType":"address"},{"name":"tokenId","type":"uint256","internalType":"uint256"},{"name":"owner","type":"address","internalType":"address"}]},{"type":"error","name":"ERC721InsufficientApproval","inputs":[{"name":"operator","type":"address","internalType":"address"},{"name":"tokenId","type":"uint256","internalType":"uint256"}]},{"type":"error","name":"ERC721InvalidApprover","inputs":[{"name":"approver","type":"address","internalType":"address"}]},{"type":"error","name":"ERC721InvalidOperator","inputs":[{"name":"operator","type":"address","internalType":"address"}]},{"type":"error","name":"ERC721InvalidOwner","inputs":[{"name":"owner","type":"address","internalType":"address"}]},{"type":"error","name":"ERC721InvalidReceiver","inputs":[{"name":"receiver","type":"address","internalType":"address"}]},{"type":"error","name":"ERC721InvalidSender","inputs":[{"name":"sender","type":"address","internalType":"address"}]},{"type":"error","name":"ERC721NonexistentToken","inputs":[{"name":"tokenId","type":"uint256","internalType":"uint256"}]},{"type":"error","name":"FailedInnerCall","inputs":[]},{"type":"error","name":"PRBMath_MulDiv18_Overflow","inputs":[{"name":"x","type":"uint256","internalType":"uint256"},{"name":"y","type":"uint256","internalType":"uint256"}]},{"type":"error","name":"PRBMath_MulDiv_Overflow","inputs":[{"name":"x","type":"uint256","internalType":"uint256"},{"name":"y","type":"uint256","internalType":"uint256"},{"name":"denominator","type":"uint256","internalType":"uint256"}]},{"type":"error","name":"SablierV2LockupLinear_CliffTimeNotLessThanEndTime","inputs":[{"name":"cliffTime","type":"uint40","internalType":"uint40"},{"name":"endTime","type":"uint40","internalType":"uint40"}]},{"type":"error","name":"SablierV2LockupLinear_StartTimeNotLessThanCliffTime","inputs":[{"name":"startTime","type":"uint40","internalType":"uint40"},{"name":"cliffTime","type":"uint40","internalType":"uint40"}]},{"type":"error","name":"SablierV2LockupLinear_StartTimeNotLessThanEndTime","inputs":[{"name":"startTime","type":"uint40","internalType":"uint40"},{"name":"endTime","type":"uint40","internalType":"uint40"}]},{"type":"error","name":"SablierV2Lockup_AllowToHookUnsupportedInterface","inputs":[{"name":"recipient","type":"address","internalType":"address"}]},{"type":"error","name":"SablierV2Lockup_AllowToHookZeroCodeSize","inputs":[{"name":"recipient","type":"address","internalType":"address"}]},{"type":"error","name":"SablierV2Lockup_BrokerFeeTooHigh","inputs":[{"name":"brokerFee","type":"uint256","internalType":"UD60x18"},{"name":"maxBrokerFee","type":"uint256","internalType":"UD60x18"}]},{"type":"error","name":"SablierV2Lockup_DepositAmountZero","inputs":[]},{"type":"error","name":"SablierV2Lockup_EndTimeNotInTheFuture","inputs":[{"name":"blockTimestamp","type":"uint40","internalType":"uint40"},{"name":"endTime","type":"uint40","internalType":"uint40"}]},{"type":"error","name":"SablierV2Lockup_InvalidHookSelector","inputs":[{"name":"recipient","type":"address","internalType":"address"}]},{"type":"error","name":"SablierV2Lockup_NotTransferable","inputs":[{"name":"tokenId","type":"uint256","internalType":"uint256"}]},{"type":"error","name":"SablierV2Lockup_Null","inputs":[{"name":"streamId","type":"uint256","internalType":"uint256"}]},{"type":"error","name":"SablierV2Lockup_Overdraw","inputs":[{"name":"streamId","type":"uint256","internalType":"uint256"},{"name":"amount","type":"uint128","internalType":"uint128"},{"name":"withdrawableAmount","type":"uint128","internalType":"uint128"}]},{"type":"error","name":"SablierV2Lockup_StartTimeZero","inputs":[]},{"type":"error","name":"SablierV2Lockup_StreamCanceled","inputs":[{"name":"streamId","type":"uint256","internalType":"uint256"}]},{"type":"error","name":"SablierV2Lockup_StreamDepleted","inputs":[{"name":"streamId","type":"uint256","internalType":"uint256"}]},{"type":"error","name":"SablierV2Lockup_StreamNotCancelable","inputs":[{"name":"streamId","type":"uint256","internalType":"uint256"}]},{"type":"error","name":"SablierV2Lockup_StreamNotDepleted","inputs":[{"name":"streamId","type":"uint256","internalType":"uint256"}]},{"type":"error","name":"SablierV2Lockup_StreamSettled","inputs":[{"name":"streamId","type":"uint256","internalType":"uint256"}]},{"type":"error","name":"SablierV2Lockup_Unauthorized","inputs":[{"name":"streamId","type":"uint256","internalType":"uint256"},{"name":"caller","type":"address","internalType":"address"}]},{"type":"error","name":"SablierV2Lockup_WithdrawAmountZero","inputs":[{"name":"streamId","type":"uint256","internalType":"uint256"}]},{"type":"error","name":"SablierV2Lockup_WithdrawArrayCountsNotEqual","inputs":[{"name":"streamIdsCount","type":"uint256","internalType":"uint256"},{"name":"amountsCount","type":"uint256","internalType":"uint256"}]},{"type":"error","name":"SablierV2Lockup_WithdrawToZeroAddress","inputs":[{"name":"streamId","type":"uint256","internalType":"uint256"}]},{"type":"error","name":"SablierV2Lockup_WithdrawalAddressNotRecipient","inputs":[{"name":"streamId","type":"uint256","internalType":"uint256"},{"name":"caller","type":"address","internalType":"address"},{"name":"to","type":"address","internalType":"address"}]},{"type":"error","name":"SafeERC20FailedOperation","inputs":[{"name":"token","type":"address","internalType":"address"}]}],"bytecode":{"object":"0x60a0604052346103bf576151006040813803918261001c816103c3565b9384928339810103126103bf5780516001600160a01b03811691908290036103bf57602001516001600160a01b038116908190036103bf5761005e60406103c3565b91601c83527f5361626c696572205632204c6f636b7570204c696e656172204e465400000000602084015261009360406103c3565b601181527029a0a116ab1916a627a1a5aaa816a624a760791b60208201523060805283519092906001600160401b0381116102d057600154600181811c911680156103b5575b60208210146102b257601f8111610352575b50602094601f82116001146102ef579481929394955f926102e4575b50508160011b915f199060031b1c1916176001555b82516001600160401b0381116102d057600254600181811c911680156102c6575b60208210146102b257601f811161024f575b506020601f82116001146101ec57819293945f926101e1575b50508160011b915f199060031b1c1916176002555b5f80546001600160a01b031990811684178255600880549091169290921790915560405191907fbdd36143ee09de60bdefca70680e0f71189b2ed7acee364b53917ad433fdaf808180a36001600755614d1790816103e98239608051816140660152f35b015190505f80610168565b601f1982169060025f52805f20915f5b8181106102375750958360019596971061021f575b505050811b0160025561017d565b01515f1960f88460031b161c191690555f8080610211565b9192602060018192868b0151815501940192016101fc565b60025f527f405787fa12a823e0f2b7631cc41b3ba8828b3321ca811111fa75cd3aa3bb5ace601f830160051c810191602084106102a8575b601f0160051c01905b81811061029d575061014f565b5f8155600101610290565b9091508190610287565b634e487b7160e01b5f52602260045260245ffd5b90607f169061013d565b634e487b7160e01b5f52604160045260245ffd5b015190505f80610107565b601f1982169560015f52805f20915f5b88811061033a57508360019596979810610322575b505050811b0160015561011c565b01515f1960f88460031b161c191690555f8080610314565b919260206001819286850151815501940192016102ff565b60015f527fb10e2d527612073b26eecdfd717e6a320cf44b4afac2b0732d9fcbe2b7fa0cf6601f830160051c810191602084106103ab575b601f0160051c01905b8181106103a057506100eb565b5f8155600101610393565b909150819061038a565b90607f16906100d9565b5f80fd5b6040519190601f01601f191682016001600160401b038111838210176102d05760405256fe6080806040526004361015610012575f80fd5b5f905f3560e01c90816301ffc9a71461369357508063027b67441461367157806306fdde031461357d578063081812fc1461355f578063095ea7b31461345a5780631400ecec146133a95780631c1cdd4c146133455780631e99d5691461332857806323b872dd146133115780632c5a6fb81461326e578063303acc8514613231578063406887cb146130c257806340e58ee514612dea578063425d30dd14612d9a57806342842e0e14612d7157806342966c6814612bad5780634426757014612b875780634857501f14612b165780634869e12d14612adc5780634cc55e11146126ea57806353b15727146125bf57806357404b12146124fb5780636352211e1461237457806363e55549146124585780636900ebd0146123a35780636d0cee751461237457806370a082311461230a57806375829def1461229c578063780a82c8146122505780637cad6cd1146121755780637de6b1db146120285780638659c27014611c5f578063894e9a0d146119775780638f69b993146118e35780639067b67714611883578063932733351461178957806395d89b411461167c578063a22cb465146115c6578063a80fc07114611573578063a8ef018a146114bb578063ab167ccc1461133a578063ad35efd4146112c7578063b256456914611275578063b88d4fde146111e4578063b8a3be66146111af578063b971302a1461115f578063bc2be1be1461110e578063c156a11d14610cd1578063c87b56dd14610bb1578063d4dbd20b14610b5e578063d511609f14610b11578063d975dfed14610ac4578063e985e9c514610a71578063ea5ead19146106fb578063eac8f5b8146106a8578063f590c1761461064b578063f851a440146106255763fdd46d601461029c575f80fd5b34610622576060366003190112610622576004356102b86137c0565b906102c161392f565b6102c961405c565b818452600a60205260ff600160408620015460a81c161561061057818452600a60205260ff600160408620015460a01c166105fd576001600160a01b0383169081156105ea576001600160801b03169081156105d75782855260036020526001600160a01b036040862054169384821415806105c7575b6105ac576001600160801b03610355856148a6565b168084116105915750838652600a60205282600260408820015460801c016001600160801b03811161057d576103b490858852600a60205260026040892001906001600160801b036001600160801b031983549260801b169116179055565b838652600a6020526103cb60026040882001613c35565b6001600160801b036103ef8160208401511692826040818351169201511690613967565b161115610541575b838652600a60205261041b836001600160a01b03600160408a2001541692836148cc565b81847f40b88e5c41c5a97ffb7b6ef88a0a2d505aa0c634cf8a0275cb236ea7dd87ed4d6020604051878152a47ff8e1a15aba9398e019f0b49df1a4fde98ee17ae345cb5f6b5e2c27f5033e8ce76020604051858152a1833314158061052b575b610483578480f35b604051926392b9102b60e01b845260048401523360248401526044830152606482015260208160848186865af1908115610520576392b9102b60e01b916001600160e01b03199185916104f1575b5016036104df578080808480f35b632187e5e760e21b8252600452602490fd5b610513915060203d602011610519575b61050b81836138f1565b810190613d6b565b5f6104d1565b503d610501565b6040513d85823e3d90fd5b50838552600960205260ff60408620541661047b565b838652600a60205260016040872001600160a01b60ff60a01b19825416179055838652600a6020526040862060ff60f01b1981541690556103f7565b602487634e487b7160e01b81526011600452fd5b86606491858763287ecaef60e21b8452600452602452604452fd5b606486838663b34359d360e01b835260045233602452604452fd5b506105d1846140b6565b15610340565b6024858463d2aabcd960e01b8252600452fd5b60248584630ff7ee2d60e31b8252600452fd5b60248483634a5541ef60e01b8252600452fd5b6024848362b8e7e760e51b8252600452fd5b80fd5b50346106225780600319360112610622576001600160a01b036020915416604051908152f35b50346106225760203660031901126106225760043590818152600a60205260ff600160408320015460a81c1615610697578060209260409252600a8352205460f81c6040519015158152f35b60249162b8e7e760e51b8252600452fd5b50346106225760203660031901126106225760043590818152600a60205260ff600160408320015460a81c16156106975760016040826020946001600160a01b039452600a855220015416604051908152f35b503461062257604036600319011261062257600435906107196137c0565b610722836148a6565b9261072b61405c565b808352600a60205260ff600160408520015460a81c1615610a6057808352600a60205260ff600160408520015460a01c16610a4e576001600160a01b038216938415610a3b576001600160801b0316938415610a285781845260036020526001600160a01b03604085205416928382141580610a18575b6109fd576001600160801b036107b7846148a6565b168087116109e25750828552600a60205285600260408720015460801c016001600160801b0381116109ce5761081690848752600a60205260026040882001906001600160801b036001600160801b031983549260801b169116179055565b828552600a60205261082d60026040872001613c35565b6001600160801b036108518160208401511692826040818351169201511690613967565b161115610992575b828552600a60205261087d866001600160a01b0360016040892001541692836148cc565b81837f40b88e5c41c5a97ffb7b6ef88a0a2d505aa0c634cf8a0275cb236ea7dd87ed4d60206040518a8152a47ff8e1a15aba9398e019f0b49df1a4fde98ee17ae345cb5f6b5e2c27f5033e8ce76020604051848152a1823314158061097c575b6108ed575b602085604051908152f35b604051916392b9102b60e01b83526004830152336024830152604482015283606482015260208160848186865af1908115610520576392b9102b60e01b916001600160e01b031991859161095d575b50160361094a5780806108e2565b60249250632187e5e760e21b8252600452fd5b610976915060203d6020116105195761050b81836138f1565b5f61093c565b50828452600960205260ff6040852054166108dd565b828552600a60205260016040862001600160a01b60ff60a01b19825416179055828552600a6020526040852060ff60f01b198154169055610859565b602486634e487b7160e01b81526011600452fd5b85606491888663287ecaef60e21b8452600452602452604452fd5b606485838563b34359d360e01b835260045233602452604452fd5b50610a22836140b6565b156107a2565b6024848363d2aabcd960e01b8252600452fd5b60248483630ff7ee2d60e31b8252600452fd5b634a5541ef60e01b8352600452602482fd5b62b8e7e760e51b8352600452602482fd5b5034610622576040366003190112610622576001600160a01b036040610a956137aa565b9282610a9f6137c0565b9416815260066020522091165f52602052602060ff60405f2054166040519015158152f35b50346106225760203660031901126106225760043590818152600a60205260ff600160408320015460a81c1615610697576020610b00836148a6565b6001600160801b0360405191168152f35b50346106225760203660031901126106225760043590818152600a60205260ff600160408320015460a81c16156106975760408160209360029352600a845220015460801c604051908152f35b50346106225760203660031901126106225760043590818152600a60205260ff600160408320015460a81c16156106975760036040826020946001600160801b039452600a855220015416604051908152f35b503461062257602036600319011261062257600435610bcf81613d8b565b50816001600160a01b0360085416916044604051809481937fe9dc637500000000000000000000000000000000000000000000000000000000835230600484015260248301525afa908115610cc6578291610c3f575b60405160208082528190610c3b90820185613785565b0390f35b90503d8083833e610c5081836138f1565b810190602081830312610cbe5780519067ffffffffffffffff8211610cc2570181601f82011215610cbe57805192610c8784613913565b92610c9560405194856138f1565b848452602085840101116106225750610c3b92610cb89160208085019101613764565b5f610c25565b8280fd5b8380fd5b6040513d84823e3d90fd5b50346106225760403660031901126106225760043590610cef6137c0565b91610cf861405c565b808252600a60205260ff600160408420015460a81c16156110fc5780825260036020526001600160a01b036040832054168033036110e5576001600160801b03610d41836148a6565b169384158015610dc8575b506001600160a01b03811615610db557610d6e836001600160a01b0392613f22565b169081610d885760248484637e27328960e01b8252600452fd5b8082939203610d9c57602085604051908152f35b606494506364283d7b60e01b8452600452602452604452fd5b602484633250574960e11b815280600452fd5b610dd061405c565b838552600a60205260ff600160408720015460a81c16156110d357838552600a60205260ff600160408720015460a01c166110c05782156110ad5761109a5782845260036020526001600160a01b03604085205416808314158061108a575b61106f576001600160801b03610e44856148a6565b168087116110545750838552600a60205285600260408720015460801c016001600160801b0381116109ce57610ea390858752600a60205260026040882001906001600160801b036001600160801b031983549260801b169116179055565b838552600a602052610eba60026040872001613c35565b6001600160801b03610ede8160208401511692826040818351169201511690613967565b161115611018575b838552600a6020526001600160a01b03600160408720015416610f0a8785836148cc565b83857f40b88e5c41c5a97ffb7b6ef88a0a2d505aa0c634cf8a0275cb236ea7dd87ed4d60206040518b8152a47ff8e1a15aba9398e019f0b49df1a4fde98ee17ae345cb5f6b5e2c27f5033e8ce76020604051868152a18033141580611002575b15610d4c576040516392b9102b60e01b815284600482015233602482015283604482015286606482015260208160848189865af1908115610ff7576392b9102b60e01b916001600160e01b0319918891610fd8575b501614610d4c57632187e5e760e21b8552600452602484fd5b610ff1915060203d6020116105195761050b81836138f1565b5f610fbf565b6040513d88823e3d90fd5b50808552600960205260ff604086205416610f6a565b838552600a60205260016040862001600160a01b60ff60a01b19825416179055838552600a6020526040852060ff60f01b198154169055610ee6565b85606491888763287ecaef60e21b8452600452602452604452fd5b606485848663b34359d360e01b835260045233602452604452fd5b50611094846140b6565b15610e2f565b6024848463d2aabcd960e01b8252600452fd5b60248585630ff7ee2d60e31b8252600452fd5b60248585634a5541ef60e01b8252600452fd5b6024858562b8e7e760e51b8252600452fd5b6044838363216caf0d60e01b825260045233602452fd5b6024925062b8e7e760e51b8252600452fd5b50346106225760203660031901126106225760043590818152600a60205260ff600160408320015460a81c16156106975760408160209364ffffffffff9352600a8452205460a01c16604051908152f35b50346106225760203660031901126106225760043590818152600a60205260ff600160408320015460a81c1615610697576040816020936001600160a01b039352600a8452205416604051908152f35b50346106225760203660031901126106225760ff600160406020936004358152600a855220015460a81c166040519015158152f35b5034610622576080366003190112610622576111fe6137aa565b6112066137c0565b906064359067ffffffffffffffff8211610cc25736602383011215610cc2578160040135928461123585613913565b9361124360405195866138f1565b8585523660248783010111611271578561126e96602460209301838801378501015260443591613c7b565b80f35b5080fd5b50346106225760203660031901126106225760043590818152600a60205260ff600160408320015460a81c161561069757600160408260209460ff9452600a855220015460b01c166040519015158152f35b503461062257602036600319011261062257600435808252600a60205260ff600160408420015460a81c16156113295761130090613e8e565b60405190600581101561131557602092508152f35b602483634e487b7160e01b81526021600452fd5b62b8e7e760e51b8252600452602490fd5b5034610622576101403660031901126106225761135561405c565b61135d613c17565b9064ffffffffff421680835264ffffffffff611377613c67565b166114a0575b60e4359064ffffffffff82168203610cbe570164ffffffffff1660408301526001600160a01b036004359081169290838103610cbe57506024356001600160a01b03811690818103610cc257506044356001600160801b0381169081810361149c57506064356001600160a01b03811680910361149c576084359182151592838103611498575060a43593841515948581036114945750604051976114218961384e565b8852602088015260408701526060860152608085015260a084015260c0830152604061010319360112610622576040519061145b826138d5565b61010435906001600160a01b038216820361062257602061148c8585858152610124358482015260e08201526141ac565b604051908152f35b8780fd5b8680fd5b8480fd5b64ffffffffff6114ae613c67565b820116602084015261137d565b503461062257602036600319011261062257602460206001600160a01b036114e16137aa565b16604051928380927fc44b11f70000000000000000000000000000000000000000000000000000000082523060048301525afa908115610cc6578291611534575b6020826115326040518092613841565bf35b90506020813d60201161156b575b8161154f602093836138f1565b810103126112715751600381101561127157602091505f611522565b3d9150611542565b50346106225760203660031901126106225760043590818152600a60205260ff600160408320015460a81c16156106975760026040826020946001600160801b039452600a855220015416604051908152f35b5034610622576040366003190112610622576115e06137aa565b60243590811515809203610cbe576001600160a01b031690811561165057338352600660205260408320825f5260205260405f2060ff1981541660ff83161790556040519081527f17307eab39ab6107e8899845ad3d59bd9653f200f220920489ca2b5937696c3160203392a380f35b602483837f5b08ba18000000000000000000000000000000000000000000000000000000008252600452fd5b50346106225780600319360112610622576040519080600254908160011c9160018116801561177f575b60208410811461176b5783865290811561174457506001146116e7575b610c3b846116d3818603826138f1565b604051918291602083526020830190613785565b600281527f405787fa12a823e0f2b7631cc41b3ba8828b3321ca811111fa75cd3aa3bb5ace939250905b80821061172a575090915081016020016116d3826116c3565b919260018160209254838588010152019101909291611711565b60ff191660208087019190915292151560051b850190920192506116d391508390506116c3565b602483634e487b7160e01b81526022600452fd5b92607f16926116a6565b5034611869576080366003190112611869576004356001600160a01b0381168091036118695760243560038110156118695760443591600283101561186957606435906001600160a01b038216809203611869576001600160a01b035f541633810361186d5750803b15611869575f92836064926118369460405197889687957fc8992e610000000000000000000000000000000000000000000000000000000087526004870190613841565b602485015260448401525af1801561185e57611850575080f35b61185c91505f906138f1565b005b6040513d5f823e3d90fd5b5f80fd5b6331b339a960e21b5f526004523360245260445ffd5b3461186957602036600319011261186957600435805f52600a60205260ff600160405f20015460a81c16156118d2575f52600a602052602064ffffffffff60405f205460c81c16604051908152f35b62b8e7e760e51b5f5260045260245ffd5b3461186957602036600319011261186957600435805f52600a60205260ff600160405f20015460a81c16156118d25761191b90613e8e565b600581101580611957576002821490811561196b575b8115611945575b6020826040519015158152f35b90506119575760046020911482611938565b634e487b7160e01b5f52602160045260245ffd5b5050600381145f611931565b34611869576020366003190112611869576004355f61016060405161199b8161389b565b8281528260208201528260408201528260608201528260808201528260a08201528260c08201528260e082015282610100820152826101208201526119de613c17565b6101408201520152805f52600a60205260ff600160405f20015460a81c16156118d257805f52600a60205260405f20604051611a19816138b8565b81546001600160a01b0381168252602082019364ffffffffff8260a01c168552604083019364ffffffffff8360c81c1685526060840160ff8460f01c1615158152608085019360f81c1515845260018201549360a08601956001600160a01b038616875260c081019560ff8160a01c1615158752611ab8600260e084019660ff8460a81c161515885260ff61010086019460b01c161515845201613c35565b6101208301908152611ac987613e8e565b600581101561195757600214611c57575b5197516001600160a01b031692865f52600b60205260405f205464ffffffffff16995164ffffffffff1694511515915115159751151595511515965f52600360205260405f20546001600160a01b031692516001600160a01b03169a5164ffffffffff169051151592604051611b4f8161389b565b8c81526020810191825260408101928352606081019384526080810194855260a0810195865260c0810196875260e0810197885261010081019889526101208101998a5261014081019a8b52610160019a8b526040519b8c52516001600160a01b031660208c01525164ffffffffff1660408b015251151560608a01525115156080890152516001600160a01b031660a08801525164ffffffffff1660c087015251151560e08601525115156101008501525115156101208401525180516001600160801b031661014084015260208101516001600160801b0316610160840152604001516001600160801b03166101808301525164ffffffffff166101a08201526101c090f35b5f8552611ada565b346118695760203660031901126118695760043567ffffffffffffffff811161186957611c90903690600401613810565b90611c9961405c565b5f915b808310611ca557005b611cb0838284613bf3565b3592611cba61405c565b835f52600a60205260ff600160405f20015460a81c161561201657835f52600a60205260ff600160405f20015460a01c165f14611d045783634a5541ef60e01b5f5260045260245ffd5b909192805f52600a60205260405f205460f81c61200457611d39815f52600a6020526001600160a01b0360405f205416331490565b15611fee57611d4781613dac565b90805f52600a602052611d5f600260405f2001613c35565b916001600160801b038351166001600160801b0382161015611fdb57815f52600a60205260ff60405f205460f01c1615611fc857806001600160801b03602081611db3948188511603169501511690613967565b5f828152600a6020526040902080547dffffffffffffffffffffffffffffffffffffffffffffffffffffffffffff16600160f81b179055916001600160801b038316908115611fa3575b825f52600a602052600360405f20016001600160801b0382166001600160801b0319825416179055825f52600a6020526001600160a01b0360405f205416835f5260036020526001600160a01b0360405f20541694845f52600a60205285827f5edb27d6c1a327513b90a792050debf074b7194444885e3144d4decc5caaaa50611ec56001600160a01b03600160405f2001541694611e9d8885886148cc565b604080518b81526001600160801b03808b166020830152909216908201529081906060820190565b0390a47ff8e1a15aba9398e019f0b49df1a4fde98ee17ae345cb5f6b5e2c27f5033e8ce76020604051868152a1845f52600960205260ff60405f205416611f16575b50505050506001019190611c9c565b60405193630d4af11f60e31b855260048501526024840152604483015260648201526020816084815f865af190811561185e57630d4af11f60e31b916001600160e01b0319915f91611f85575b501603611f735780808080611f07565b632187e5e760e21b5f5260045260245ffd5b611f9d915060203d81116105195761050b81836138f1565b87611f63565b825f52600a602052600160405f2001600160a01b60ff60a01b19825416179055611dfd565b506339c6dc7360e21b5f5260045260245ffd5b506322cad1af60e11b5f5260045260245ffd5b63216caf0d60e01b5f526004523360245260445ffd5b63fe19f19f60e01b5f5260045260245ffd5b8362b8e7e760e51b5f5260045260245ffd5b346118695760203660031901126118695760043561204461405c565b805f52600a60205260ff600160405f20015460a81c16156118d25761206881613e8e565b6005811015611957576004810361208c5750634a5541ef60e01b5f5260045260245ffd5b600381036120a7575063fe19f19f60e01b5f5260045260245ffd5b600214612163576120cc815f52600a6020526001600160a01b0360405f205416331490565b15611fee57805f52600a60205260ff60405f205460f01c1615612151576020817ff8e1a15aba9398e019f0b49df1a4fde98ee17ae345cb5f6b5e2c27f5033e8ce7925f52600a825260405f2060ff60f01b19815416905560405190807f0eb069207093cd3e51cd1370d2d369770057fbe29947e577e5fb428c6c6fc78f5f80a28152a1005b6339c6dc7360e21b5f5260045260245ffd5b6322cad1af60e11b5f5260045260245ffd5b34611869576020366003190112611869576004356001600160a01b038116809103611869576001600160a01b035f541633810361186d575060085490806001600160a01b03198316176008556001600160a01b036040519216825260208201527fa2548bd4b805e907c1558a47b5858324fe8bb4a2e1ddfca647eecbf65610eebc60403392a26007545f19810190811161223c5760407f6bd5c950a8d8df17f772f5af37cb3655737899cbf903264b9795592da439661c91815190600182526020820152a1005b634e487b7160e01b5f52601160045260245ffd5b3461186957602036600319011261186957600435805f52600a60205260ff600160405f20015460a81c16156118d2575f52600b602052602064ffffffffff60405f205416604051908152f35b34611869576020366003190112611869576122b56137aa565b5f546001600160a01b03811633810361186d57506001600160a01b036001600160a01b0319921691829116175f55337fbdd36143ee09de60bdefca70680e0f71189b2ed7acee364b53917ad433fdaf805f80a3005b34611869576020366003190112611869576001600160a01b0361232b6137aa565b168015612348575f526004602052602060405f2054604051908152f35b7f89c62b64000000000000000000000000000000000000000000000000000000005f525f60045260245ffd5b34611869576020366003190112611869576020612392600435613d8b565b6001600160a01b0360405191168152f35b34611869576040366003190112611869576123bc6137aa565b6024356003811015611869576001600160a01b035f541633810361186d575061242160246020925f6001600160a01b0360405196879586947f1a33757d0000000000000000000000000000000000000000000000000000000086526004860190613841565b165af1801561185e5761243057005b61185c9060203d602011612451575b61244981836138f1565b810190613bcc565b503d61243f565b3461186957602036600319011261186957602460206001600160a01b0361247d6137aa565b16604051928380927fe12f3a610000000000000000000000000000000000000000000000000000000082523060048301525afa801561185e575f906124c8575b602090604051908152f35b506020813d6020116124f3575b816124e2602093836138f1565b8101031261186957602090516124bd565b3d91506124d5565b3461186957602036600319011261186957600435612517613c17565b50805f52600a60205260ff600160405f20015460a81c16156118d257806060915f52600a60205264ffffffffff60405f205460a01c1690805f52600b60205264ffffffffff60405f205416905f52600a60205264ffffffffff60405f205460c81c1690604051926125878461387f565b835260208301526040820152611532604051809264ffffffffff60408092828151168552826020820151166020860152015116910152565b3461186957610160366003190112611869576125d961405c565b6040516125e58161384e565b6125ed6137aa565b81526125f76137c0565b602082015261260461392f565b60408201526064356001600160a01b0381168103611869576060820152608435801515810361186957608082015260a43580151581036118695760a082015260603660c31901126118695760405161265b8161387f565b60c43564ffffffffff8116810361186957815260e43564ffffffffff811681036118695760208201526101043564ffffffffff8116810361186957604082015260c082015260406101231936011261186957604051906126ba826138d5565b61012435906001600160a01b0382168203611869578261148c9260209452610144358482015260e08201526141ac565b346118695760403660031901126118695760043567ffffffffffffffff81116118695761271b903690600401613810565b60243567ffffffffffffffff81116118695761273b903690600401613810565b61274693919361405c565b808303612aad575f5b83811061275857005b612763818585613bf3565b3561276f828686613bf3565b355f5260036020526001600160a01b0360405f20541690612791838589613bf3565b356001600160801b0381169081810361186957506127ad61405c565b815f52600a60205260ff600160405f20015460a81c1615612a9b57815f52600a60205260ff600160405f20015460a01c16612a88578215612a75578015612a6257815f5260036020526001600160a01b0360405f205416928381141580612a52575b612a38576001600160801b03612824846148a6565b16808311612a1e5750825f52600a60205281600260405f20015460801c016001600160801b03811161223c5761288390845f52600a602052600260405f2001906001600160801b036001600160801b031983549260801b169116179055565b825f52600a60205261289a600260405f2001613c35565b6001600160801b036128be8160208401511692826040818351169201511690613967565b1611156129ec575b825f52600a6020526001600160a01b03600160405f200154166128ea8383836148cc565b81847f40b88e5c41c5a97ffb7b6ef88a0a2d505aa0c634cf8a0275cb236ea7dd87ed4d6020604051878152a47ff8e1a15aba9398e019f0b49df1a4fde98ee17ae345cb5f6b5e2c27f5033e8ce76020604051858152a183331415806129d6575b61295b575b5050505060010161274f565b604051926392b9102b60e01b84526004840152336024840152604483015260648201526020816084815f865af190811561185e576392b9102b60e01b916001600160e01b0319915f916129b8575b501603611f735780808061294f565b6129d0915060203d81116105195761050b81836138f1565b896129a9565b50835f52600960205260ff60405f20541661294a565b5f838152600a6020526040902060018101805460ff60a01b1916600160a01b179055805460ff60f01b191690556128c6565b828463287ecaef60e21b5f5260045260245260445260645ffd5b8263b34359d360e01b5f526004523360245260445260645ffd5b50612a5c836140b6565b1561280f565b5063d2aabcd960e01b5f5260045260245ffd5b50630ff7ee2d60e31b5f5260045260245ffd5b50634a5541ef60e01b5f5260045260245ffd5b5062b8e7e760e51b5f5260045260245ffd5b827faec93440000000000000000000000000000000000000000000000000000000005f5260045260245260445ffd5b3461186957602036600319011261186957600435805f52600a60205260ff600160405f20015460a81c16156118d257610b00602091614128565b3461186957602036600319011261186957600435805f52600a60205260ff600160405f20015460a81c16156118d2575f612b4f82613e8e565b600581101561195757600203612b6d575b6020906040519015158152f35b505f52600a602052602060ff60405f205460f01c16612b60565b34611869575f3660031901126118695760206001600160a01b0360085416604051908152f35b3461186957602036600319011261186957600435612bc961405c565b805f52600a60205260ff600160405f20015460a81c16156118d257805f52600a60205260ff600160405f20015460a01c1615612d4657612c08816140b6565b15611fee57805f5260036020526001600160a01b0360405f205416151580612d3f575b80612d22575b612d10577ff8e1a15aba9398e019f0b49df1a4fde98ee17ae345cb5f6b5e2c27f5033e8ce76020604051838152a1805f5260036020526001600160a01b0360405f2054168015908115612cd9575b825f52600360205260405f206001600160a01b03198154169055825f827fddf252ad1be2c89b69c2b068fc378daa952ba7f163c4a11628f55a4df523b3ef8280a450612cc757005b637e27328960e01b5f5260045260245ffd5b612cf8835f52600560205260405f206001600160a01b03198154169055565b805f52600460205260405f205f198154019055612c7f565b630da9b01360e01b5f5260045260245ffd5b50805f52600a60205260ff600160405f20015460b01c1615612c31565b505f612c2b565b7f817cd639000000000000000000000000000000000000000000000000000000005f5260045260245ffd5b346118695761185c612d82366137d6565b9060405192612d926020856138f1565b5f8452613c7b565b3461186957602036600319011261186957600435805f52600a60205260ff600160405f20015460a81c16156118d2575f52600a602052602060ff600160405f20015460a01c166040519015158152f35b3461186957602036600319011261186957600435612e0661405c565b805f52600a60205260ff600160405f20015460a81c16156118d257805f52600a60205260ff600160405f20015460a01c165f14612e4f57634a5541ef60e01b5f5260045260245ffd5b805f52600a60205260405f205460f81c61200457612e81815f52600a6020526001600160a01b0360405f205416331490565b15611fee57612e8f81613dac565b90805f52600a602052612ea7600260405f2001613c35565b916001600160801b038351166001600160801b0382161015611fdb57815f52600a60205260ff60405f205460f01c1615611fc857806001600160801b03602081612efb948188511603169501511690613967565b5f828152600a6020526040902080547dffffffffffffffffffffffffffffffffffffffffffffffffffffffffffff16600160f81b179055916001600160801b03831690811561309d575b825f52600a602052600360405f20016001600160801b0382166001600160801b0319825416179055825f52600a6020526001600160a01b0360405f205416835f5260036020526001600160a01b0360405f20541694845f52600a60205285827f5edb27d6c1a327513b90a792050debf074b7194444885e3144d4decc5caaaa50612fe56001600160a01b03600160405f2001541694611e9d8885886148cc565b0390a47ff8e1a15aba9398e019f0b49df1a4fde98ee17ae345cb5f6b5e2c27f5033e8ce76020604051868152a1845f52600960205260ff60405f20541661302857005b60405193630d4af11f60e31b855260048501526024840152604483015260648201526020816084815f865af190811561185e57630d4af11f60e31b916001600160e01b0319915f9161307e575b501603611f7357005b613097915060203d6020116105195761050b81836138f1565b84613075565b825f52600a602052600160405f2001600160a01b60ff60a01b19825416179055612f45565b34611869576020366003190112611869576130db6137aa565b6001600160a01b035f54169033820361321a57806001600160a01b03913b156131ee57166040516301ffc9a760e01b81527ff8ee98d3000000000000000000000000000000000000000000000000000000006004820152602081602481855afa90811561185e575f916131bf575b501561319457805f52600960205260405f20600160ff198254161790556040519081527fb4378d4e289cb3f40f4f75a99c9cafa76e3df1c4dc31309babc23dc91bd7280160203392a2005b7f7fb843ea000000000000000000000000000000000000000000000000000000005f5260045260245ffd5b6131e1915060203d6020116131e7575b6131d981836138f1565b810190613bdb565b82613149565b503d6131cf565b7f5a2b2d83000000000000000000000000000000000000000000000000000000005f521660045260245ffd5b506331b339a960e21b5f526004523360245260445ffd5b34611869576020366003190112611869576001600160a01b036132526137aa565b165f526009602052602060ff60405f2054166040519015158152f35b34611869576060366003190112611869576132876137aa565b6044356001600160a01b0381168103611869576001600160a01b035f541633810361186d576040517faad3ec960000000000000000000000000000000000000000000000000000000081526001600160a01b0383811660048301526024803590830152602090829060449082905f9089165af1801561185e575f906124c857602090604051908152f35b346118695761185c613322366137d6565b91613987565b34611869575f366003190112611869576020600754604051908152f35b3461186957602036600319011261186957600435805f52600a60205260ff600160405f20015460a81c16156118d25761337d90613e8e565b600581101561195757806020911590811561339e575b506040519015158152f35b600191501482613393565b3461186957602036600319011261186957600435805f52600a60205260ff600160405f20015460a81c16156118d2576020905f90805f52600a835260ff60405f205460f01c168061343e575b61340c575b506001600160801b0360405191168152f35b6134389150805f52600a83526134326001600160801b03600260405f2001541691613dac565b90613967565b826133fa565b50805f52600a835260ff600160405f20015460a01c16156133f5565b34611869576040366003190112611869576134736137aa565b60243561347f81613d8b565b3315158061354c575b80613519575b6134ed5781906001600160a01b0380851691167f8c5be1e5ebec7d5bd14f71427d1e84f3dd0314c0f7b2291e5b200ac8c7c3b9255f80a45f5260056020526001600160a01b0360405f2091166001600160a01b03198254161790555f80f35b7fa9fbf51f000000000000000000000000000000000000000000000000000000005f523360045260245ffd5b506001600160a01b0381165f52600660205260405f206001600160a01b0333165f5260205260ff60405f2054161561348e565b50336001600160a01b0382161415613488565b34611869576020366003190112611869576020612392600435613945565b34611869575f366003190112611869576040515f6001548060011c90600181168015613667575b6020831081146136535782855290811561362f57506001146135d1575b610c3b836116d3818503826138f1565b91905060015f527fb10e2d527612073b26eecdfd717e6a320cf44b4afac2b0732d9fcbe2b7fa0cf6915f905b808210613615575090915081016020016116d36135c1565b9192600181602092548385880101520191019092916135fd565b60ff191660208086019190915291151560051b840190910191506116d390506135c1565b634e487b7160e01b5f52602260045260245ffd5b91607f16916135a4565b34611869575f36600319011261186957602060405167016345785d8a00008152f35b3461186957602036600319011261186957600435906001600160e01b0319821680920361186957817f4906490600000000000000000000000000000000000000000000000000000000602093149081156136ef575b5015158152f35b7f80ac58cd0000000000000000000000000000000000000000000000000000000081149150811561373a575b8115613729575b50836136e8565b6301ffc9a760e01b91501483613722565b7f5b5e139f000000000000000000000000000000000000000000000000000000008114915061371b565b5f5b8381106137755750505f910152565b8181015183820152602001613766565b9060209161379e81518092818552858086019101613764565b601f01601f1916010190565b600435906001600160a01b038216820361186957565b602435906001600160a01b038216820361186957565b6060906003190112611869576004356001600160a01b038116810361186957906024356001600160a01b0381168103611869579060443590565b9181601f840112156118695782359167ffffffffffffffff8311611869576020808501948460051b01011161186957565b9060038210156119575752565b610100810190811067ffffffffffffffff82111761386b57604052565b634e487b7160e01b5f52604160045260245ffd5b6060810190811067ffffffffffffffff82111761386b57604052565b610180810190811067ffffffffffffffff82111761386b57604052565b610140810190811067ffffffffffffffff82111761386b57604052565b6040810190811067ffffffffffffffff82111761386b57604052565b90601f8019910116810190811067ffffffffffffffff82111761386b57604052565b67ffffffffffffffff811161386b57601f01601f191660200190565b604435906001600160801b038216820361186957565b61394e81613d8b565b505f5260056020526001600160a01b0360405f20541690565b906001600160801b03809116911603906001600160801b03821161223c57565b91906001600160a01b03168015613bb957815f5260036020526001600160a01b0360405f205416151580613bb1575b80613b94575b613b81577ff8e1a15aba9398e019f0b49df1a4fde98ee17ae345cb5f6b5e2c27f5033e8ce76020604051848152a1815f5260036020526001600160a01b0360405f20541692823315159283613acc575b6001600160a01b03935085613a95575b805f52600460205260405f2060018154019055815f52600360205260405f20816001600160a01b0319825416179055857fddf252ad1be2c89b69c2b068fc378daa952ba7f163c4a11628f55a4df523b3ef5f80a416808303613a7d57505050565b6364283d7b60e01b5f5260045260245260445260645ffd5b613ab4825f52600560205260405f206001600160a01b03198154169055565b855f52600460205260405f205f198154019055613a1c565b9192905080613b2a575b15613ae357828291613a0c565b8284613afb57637e27328960e01b5f5260045260245ffd5b7f177e802f000000000000000000000000000000000000000000000000000000005f523360045260245260445ffd5b503384148015613b58575b80613ad65750825f526005602052336001600160a01b0360405f20541614613ad6565b50835f52600660205260405f206001600160a01b0333165f5260205260ff60405f205416613b35565b50630da9b01360e01b5f5260045260245ffd5b50815f52600a60205260ff600160405f20015460b01c16156139bc565b5060016139b6565b633250574960e11b5f525f60045260245ffd5b90816020910312611869575190565b90816020910312611869575180151581036118695790565b9190811015613c035760051b0190565b634e487b7160e01b5f52603260045260245ffd5b60405190613c248261387f565b5f6040838281528260208201520152565b90604051613c428161387f565b60406001600160801b03600183958054838116865260801c6020860152015416910152565b60c43564ffffffffff811681036118695790565b90613c87838284613987565b803b613c94575b50505050565b602091613cda6001600160a01b03809316956040519586948594630a85bd0160e11b86523360048701521660248501526044840152608060648401526084830190613785565b03815f865af15f9181613d4a575b50613d165750613cf6614877565b80519081613d115782633250574960e11b5f5260045260245ffd5b602001fd5b6001600160e01b0319630a85bd0160e11b911603613d3857505f808080613c8e565b633250574960e11b5f5260045260245ffd5b613d6491925060203d6020116105195761050b81836138f1565b905f613ce8565b9081602091031261186957516001600160e01b0319811681036118695790565b805f5260036020526001600160a01b0360405f205416908115612cc7575090565b805f52600b60205264ffffffffff60405f205416815f52600a60205264ffffffffff60405f205460a01c169042108015613e84575b613e7e57815f52600a60205264ffffffffff60405f205460c81c169081421015613e615780613e139203904203614a5f565b815f52600a602052613e366001600160801b03600260405f200154168092614b4b565b908111613e4b576001600160801b0391501690565b505f52600a602052600260405f20015460801c90565b50505f52600a6020526001600160801b03600260405f2001541690565b50505f90565b5042811015613de1565b805f52600a60205260ff600160405f20015460a01c165f14613eb05750600490565b805f52600a60205260405f205460f81c613f1c57805f52600a60205264ffffffffff60405f205460a01c164210613f1757613eea81613dac565b905f52600a6020526001600160801b0380600260405f200154169116105f14613f1257600190565b600290565b505f90565b50600390565b90805f5260036020526001600160a01b0360405f20541615158061404a575b8061402d575b612d10577ff8e1a15aba9398e019f0b49df1a4fde98ee17ae345cb5f6b5e2c27f5033e8ce76020604051838152a1805f5260036020526001600160a01b038060405f2054169283613ff6575b1680613fde575b815f52600360205260405f20816001600160a01b0319825416179055827fddf252ad1be2c89b69c2b068fc378daa952ba7f163c4a11628f55a4df523b3ef5f80a490565b805f52600460205260405f2060018154019055613f9a565b614015835f52600560205260405f206001600160a01b03198154169055565b835f52600460205260405f205f198154019055613f93565b50805f52600a60205260ff600160405f20015460b01c1615613f47565b506001600160a01b0382161515613f41565b6001600160a01b037f000000000000000000000000000000000000000000000000000000000000000016300361408e57565b7fa1c0d6e5000000000000000000000000000000000000000000000000000000005f5260045ffd5b805f5260036020526001600160a01b0360405f205416908133149182156140fc575b5081156140e3575090565b90506001600160a01b036140f73392613945565b161490565b9091505f52600660205260405f206001600160a01b0333165f5260205260ff60405f205416905f6140d8565b805f52600a60205261413f600260405f2001613c35565b90805f52600a60205260ff600160405f20015460a01c165f1461416d5750602001516001600160801b031690565b90815f52600a60205260405f205460f81c61418f575061418c90613dac565b90565b61418c91506001600160801b036040818351169201511690613967565b906141cd6001600160801b03604084015116602060e0850151015190614928565b916001600160801b0383511660c0820151901561484f5764ffffffffff81511615614827576020810164ffffffffff8151168061479b575b5050604064ffffffffff82511691019064ffffffffff825116908181101561476d57505064ffffffffff804216915116908181101561473f5750506007549280516001600160801b0316916040519261425d8461387f565b8352602083015f9052604083015f905260608101516001600160a01b03169260c082015190604082015164ffffffffff16946080840195888751151560a087015115159287516001600160a01b0316965164ffffffffff1691604051976142c3896138b8565b885260208801928352604088019182526060880190815260808801915f835260a0890196875260c08901935f855260e08a0195600187526101008b019788526101208b01998a525f52600a60205260405f2099516001600160a01b03166001600160a01b03168a546001600160a01b031916178a5551908954905160c81b7dffffffffff00000000000000000000000000000000000000000000000000169160a01b78ffffffffff000000000000000000000000000000000000000016907fffff00000000000000000000ffffffffffffffffffffffffffffffffffffffff161717885551151587549060f01b7eff000000000000000000000000000000000000000000000000000000000000169060ff60f01b191617875551151586549060f81b7fff0000000000000000000000000000000000000000000000000000000000000016907effffffffffffffffffffffffffffffffffffffffffffffffffffffffffffff161786556001860193516001600160a01b03166001600160a01b031684546001600160a01b03191617845551151583549060a01b74ff0000000000000000000000000000000000000000169060ff60a01b19161783555115159082549051151560b01b76ff00000000000000000000000000000000000000000000169160a81b75ff00000000000000000000000000000000000000000016907fffffffffffffffffff0000ffffffffffffffffffffffffffffffffffffffffff16171790556002820190519081516001600160801b03166001600160801b031681546001600160801b03191617815560208201516001600160801b031661454391906001600160801b036001600160801b031983549260801b169116179055565b604001516001600160801b031690600301906001600160801b031681546001600160801b03191617905560c08101516020015164ffffffffff168061471f575b50600185016007556001600160a01b036020820151168015613bb9576145b1866001600160a01b0392613f22565b166146f3576145dc6001600160a01b036060830151166001600160801b038451169030903390614a05565b7f44cb432df42caa86b7ec73644ab8aec922bc44c71c98fc330addc75b88adbc7c6101408660208501946001600160801b03865116806146c4575b506146bb6001600160a01b03865116956001600160a01b03602082015116976001600160a01b03606083015116995115156001600160801b0360a0840151151592816001600160a01b0360e060c0880151970151511697604051998a523360208b01525116604089015251166060870152608086015260a085015260c084019064ffffffffff60408092828151168552826020820151166020860152015116910152565b610120820152a4565b6146ed906001600160a01b036060880151166001600160a01b0360e08901515116903390614a05565b5f614617565b7f73c6ac6e000000000000000000000000000000000000000000000000000000005f525f60045260245ffd5b855f52600b60205260405f209064ffffffffff198254161790555f614583565b7f210aec0e000000000000000000000000000000000000000000000000000000005f5260045260245260445ffd5b7f5057f084000000000000000000000000000000000000000000000000000000005f5260045260245260445ffd5b64ffffffffff835116818110156147f957505064ffffffffff90511664ffffffffff60408301511690818110614205577f9fee2691000000000000000000000000000000000000000000000000000000005f5260045260245260445ffd5b7fb39831ea000000000000000000000000000000000000000000000000000000005f5260045260245260445ffd5b7fd572dbcb000000000000000000000000000000000000000000000000000000005f5260045ffd5b7f6095d3bc000000000000000000000000000000000000000000000000000000005f5260045ffd5b3d156148a1573d9061488882613913565b9161489660405193846138f1565b82523d5f602084013e565b606090565b61418c906148b381614128565b905f52600a602052600260405f20015460801c90613967565b6040517fa9059cbb0000000000000000000000000000000000000000000000000000000060208201526001600160a01b03929092166024830152604480830193909352918152614926916149216064836138f1565b614bf9565b565b919091604051614937816138d5565b5f81525f6020820152926001600160801b0382169081156149e85767016345785d8a000081116149b1576149736001600160801b039183614b4b565b166020850191818352111561499d576001600160801b03918261499892511690613967565b168252565b634e487b7160e01b5f52600160045260245ffd5b7f4fea5c1a000000000000000000000000000000000000000000000000000000005f5260045267016345785d8a000060245260445ffd5b50505090506040516149f9816138d5565b5f81525f602082015290565b9091926001600160a01b036149269481604051957f23b872dd0000000000000000000000000000000000000000000000000000000060208801521660248601521660448401526064830152606482526149216084836138f1565b5f19670de0b6b3a7640000820991670de0b6b3a7640000820291828085109403938085039414614b2a5781841015614af057670de0b6b3a7640000829109600182190182168092046002816003021880820260020302808202600203028082026002030280820260020302808202600203028091026002030293600183805f03040190848311900302920304170290565b7f63a05778000000000000000000000000000000000000000000000000000000005f52600452670de0b6b3a764000060245260445260645ffd5b5091508115614b37570490565b634e487b7160e01b5f52601260045260245ffd5b9091905f1983820983820291828083109203918083039214614be857670de0b6b3a7640000821015614bb8577faccb18165bd6fe31ae1cf318dc5b51eee0e1ba569b88cd74c1773b91fac106699394670de0b6b3a7640000910990828211900360ee1b910360121c170290565b84907f5173648d000000000000000000000000000000000000000000000000000000005f5260045260245260445ffd5b5050670de0b6b3a764000090049150565b5f806001600160a01b03614c2293169360208151910182865af1614c1b614877565b9083614c7e565b8051908115159182614c63575b5050614c385750565b7f5274afe7000000000000000000000000000000000000000000000000000000005f5260045260245ffd5b614c769250602080918301019101613bdb565b155f80614c2f565b90614cbb5750805115614c9357805190602001fd5b7f1425ea42000000000000000000000000000000000000000000000000000000005f5260045ffd5b81511580614d01575b614ccc575090565b6001600160a01b03907f9996b315000000000000000000000000000000000000000000000000000000005f521660045260245ffd5b50803b15614cc456fea164736f6c634300081a000a","linkReferences":{}},"methodIdentifiers":{"MAX_BROKER_FEE()":"027b6744","admin()":"f851a440","allowToHook(address)":"406887cb","approve(address,uint256)":"095ea7b3","balanceOf(address)":"70a08231","burn(uint256)":"42966c68","cancel(uint256)":"40e58ee5","cancelMultiple(uint256[])":"8659c270","claimRebasingAssetYield(address,uint256,address)":"2c5a6fb8","configureRebasingAsset(address,uint8)":"6900ebd0","configureYieldAndGas(address,uint8,uint8,address)":"93273335","createWithDurations((address,address,uint128,address,bool,bool,(uint40,uint40),(address,uint256)))":"ab167ccc","createWithTimestamps((address,address,uint128,address,bool,bool,(uint40,uint40,uint40),(address,uint256)))":"53b15727","getApproved(uint256)":"081812fc","getAsset(uint256)":"eac8f5b8","getClaimableRebasingAssetYield(address)":"63e55549","getCliffTime(uint256)":"780a82c8","getDepositedAmount(uint256)":"a80fc071","getEndTime(uint256)":"9067b677","getRebasingAssetConfiguration(address)":"a8ef018a","getRecipient(uint256)":"6d0cee75","getRefundedAmount(uint256)":"d4dbd20b","getSender(uint256)":"b971302a","getStartTime(uint256)":"bc2be1be","getStream(uint256)":"894e9a0d","getTimestamps(uint256)":"57404b12","getWithdrawnAmount(uint256)":"d511609f","isAllowedToHook(address)":"303acc85","isApprovedForAll(address,address)":"e985e9c5","isCancelable(uint256)":"4857501f","isCold(uint256)":"8f69b993","isDepleted(uint256)":"425d30dd","isStream(uint256)":"b8a3be66","isTransferable(uint256)":"b2564569","isWarm(uint256)":"1c1cdd4c","name()":"06fdde03","nextStreamId()":"1e99d569","nftDescriptor()":"44267570","ownerOf(uint256)":"6352211e","refundableAmountOf(uint256)":"1400ecec","renounce(uint256)":"7de6b1db","safeTransferFrom(address,address,uint256)":"42842e0e","safeTransferFrom(address,address,uint256,bytes)":"b88d4fde","setApprovalForAll(address,bool)":"a22cb465","setNFTDescriptor(address)":"7cad6cd1","statusOf(uint256)":"ad35efd4","streamedAmountOf(uint256)":"4869e12d","supportsInterface(bytes4)":"01ffc9a7","symbol()":"95d89b41","tokenURI(uint256)":"c87b56dd","transferAdmin(address)":"75829def","transferFrom(address,address,uint256)":"23b872dd","wasCanceled(uint256)":"f590c176","withdraw(uint256,address,uint128)":"fdd46d60","withdrawMax(uint256,address)":"ea5ead19","withdrawMaxAndTransfer(uint256,address)":"c156a11d","withdrawMultiple(uint256[],uint128[])":"4cc55e11","withdrawableAmountOf(uint256)":"d975dfed"},"id":85}