{
  "abi": [
    {
      "type": "constructor",
      "inputs": [
        {
          "name": "initialAdmin",
          "type": "address",
          "internalType": "address"
        },
        {
          "name": "initialNFTDescriptor",
          "type": "address",
          "internalType": "contract ISablierV2NFTDescriptor"
        },
        {
          "name": "maxTrancheCount",
          "type": "uint256",
          "internalType": "uint256"
        }
      ],
      "stateMutability": "nonpayable"
    },
    {
      "type": "function",
      "name": "MAX_BROKER_FEE",
      "inputs": [],
      "outputs": [
        {
          "name": "",
          "type": "uint256",
          "internalType": "UD60x18"
        }
      ],
      "stateMutability": "view"
    },
    {
      "type": "function",
      "name": "MAX_TRANCHE_COUNT",
      "inputs": [],
      "outputs": [
        {
          "name": "",
          "type": "uint256",
          "internalType": "uint256"
        }
      ],
      "stateMutability": "view"
    },
    {
      "type": "function",
      "name": "admin",
      "inputs": [],
      "outputs": [
        {
          "name": "",
          "type": "address",
          "internalType": "address"
        }
      ],
      "stateMutability": "view"
    },
    {
      "type": "function",
      "name": "allowToHook",
      "inputs": [
        {
          "name": "recipient",
          "type": "address",
          "internalType": "address"
        }
      ],
      "outputs": [],
      "stateMutability": "nonpayable"
    },
    {
      "type": "function",
      "name": "approve",
      "inputs": [
        {
          "name": "to",
          "type": "address",
          "internalType": "address"
        },
        {
          "name": "tokenId",
          "type": "uint256",
          "internalType": "uint256"
        }
      ],
      "outputs": [],
      "stateMutability": "nonpayable"
    },
    {
      "type": "function",
      "name": "balanceOf",
      "inputs": [
        {
          "name": "owner",
          "type": "address",
          "internalType": "address"
        }
      ],
      "outputs": [
        {
          "name": "",
          "type": "uint256",
          "internalType": "uint256"
        }
      ],
      "stateMutability": "view"
    },
    {
      "type": "function",
      "name": "burn",
      "inputs": [
        {
          "name": "streamId",
          "type": "uint256",
          "internalType": "uint256"
        }
      ],
      "outputs": [],
      "stateMutability": "nonpayable"
    },
    {
      "type": "function",
      "name": "cancel",
      "inputs": [
        {
          "name": "streamId",
          "type": "uint256",
          "internalType": "uint256"
        }
      ],
      "outputs": [],
      "stateMutability": "nonpayable"
    },
    {
      "type": "function",
      "name": "cancelMultiple",
      "inputs": [
        {
          "name": "streamIds",
          "type": "uint256[]",
          "internalType": "uint256[]"
        }
      ],
      "outputs": [],
      "stateMutability": "nonpayable"
    },
    {
      "type": "function",
      "name": "claimRebasingAssetYield",
      "inputs": [
        {
          "name": "asset",
          "type": "address",
          "internalType": "contract IERC20Rebasing"
        },
        {
          "name": "amount",
          "type": "uint256",
          "internalType": "uint256"
        },
        {
          "name": "to",
          "type": "address",
          "internalType": "address"
        }
      ],
      "outputs": [
        {
          "name": "claimed",
          "type": "uint256",
          "internalType": "uint256"
        }
      ],
      "stateMutability": "nonpayable"
    },
    {
      "type": "function",
      "name": "configureRebasingAsset",
      "inputs": [
        {
          "name": "asset",
          "type": "address",
          "internalType": "contract IERC20Rebasing"
        },
        {
          "name": "yieldMode",
          "type": "uint8",
          "internalType": "enum YieldMode"
        }
      ],
      "outputs": [],
      "stateMutability": "nonpayable"
    },
    {
      "type": "function",
      "name": "configureYieldAndGas",
      "inputs": [
        {
          "name": "blast",
          "type": "address",
          "internalType": "contract IBlast"
        },
        {
          "name": "yieldMode",
          "type": "uint8",
          "internalType": "enum YieldMode"
        },
        {
          "name": "gasMode",
          "type": "uint8",
          "internalType": "enum GasMode"
        },
        {
          "name": "governor",
          "type": "address",
          "internalType": "address"
        }
      ],
      "outputs": [],
      "stateMutability": "nonpayable"
    },
    {
      "type": "function",
      "name": "createWithDurations",
      "inputs": [
        {
          "name": "params",
          "type": "tuple",
          "internalType": "struct LockupTranched.CreateWithDurations",
          "components": [
            {
              "name": "sender",
              "type": "address",
              "internalType": "address"
            },
            {
              "name": "recipient",
              "type": "address",
              "internalType": "address"
            },
            {
              "name": "totalAmount",
              "type": "uint128",
              "internalType": "uint128"
            },
            {
              "name": "asset",
              "type": "address",
              "internalType": "contract IERC20"
            },
            {
              "name": "cancelable",
              "type": "bool",
              "internalType": "bool"
            },
            {
              "name": "transferable",
              "type": "bool",
              "internalType": "bool"
            },
            {
              "name": "tranches",
              "type": "tuple[]",
              "internalType": "struct LockupTranched.TrancheWithDuration[]",
              "components": [
                {
                  "name": "amount",
                  "type": "uint128",
                  "internalType": "uint128"
                },
                {
                  "name": "duration",
                  "type": "uint40",
                  "internalType": "uint40"
                }
              ]
            },
            {
              "name": "broker",
              "type": "tuple",
              "internalType": "struct Broker",
              "components": [
                {
                  "name": "account",
                  "type": "address",
                  "internalType": "address"
                },
                {
                  "name": "fee",
                  "type": "uint256",
                  "internalType": "UD60x18"
                }
              ]
            }
          ]
        }
      ],
      "outputs": [
        {
          "name": "streamId",
          "type": "uint256",
          "internalType": "uint256"
        }
      ],
      "stateMutability": "nonpayable"
    },
    {
      "type": "function",
      "name": "createWithTimestamps",
      "inputs": [
        {
          "name": "params",
          "type": "tuple",
          "internalType": "struct LockupTranched.CreateWithTimestamps",
          "components": [
            {
              "name": "sender",
              "type": "address",
              "internalType": "address"
            },
            {
              "name": "recipient",
              "type": "address",
              "internalType": "address"
            },
            {
              "name": "totalAmount",
              "type": "uint128",
              "internalType": "uint128"
            },
            {
              "name": "asset",
              "type": "address",
              "internalType": "contract IERC20"
            },
            {
              "name": "cancelable",
              "type": "bool",
              "internalType": "bool"
            },
            {
              "name": "transferable",
              "type": "bool",
              "internalType": "bool"
            },
            {
              "name": "startTime",
              "type": "uint40",
              "internalType": "uint40"
            },
            {
              "name": "tranches",
              "type": "tuple[]",
              "internalType": "struct LockupTranched.Tranche[]",
              "components": [
                {
                  "name": "amount",
                  "type": "uint128",
                  "internalType": "uint128"
                },
                {
                  "name": "timestamp",
                  "type": "uint40",
                  "internalType": "uint40"
                }
              ]
            },
            {
              "name": "broker",
              "type": "tuple",
              "internalType": "struct Broker",
              "components": [
                {
                  "name": "account",
                  "type": "address",
                  "internalType": "address"
                },
                {
                  "name": "fee",
                  "type": "uint256",
                  "internalType": "UD60x18"
                }
              ]
            }
          ]
        }
      ],
      "outputs": [
        {
          "name": "streamId",
          "type": "uint256",
          "internalType": "uint256"
        }
      ],
      "stateMutability": "nonpayable"
    },
    {
      "type": "function",
      "name": "getApproved",
      "inputs": [
        {
          "name": "tokenId",
          "type": "uint256",
          "internalType": "uint256"
        }
      ],
      "outputs": [
        {
          "name": "",
          "type": "address",
          "internalType": "address"
        }
      ],
      "stateMutability": "view"
    },
    {
      "type": "function",
      "name": "getAsset",
      "inputs": [
        {
          "name": "streamId",
          "type": "uint256",
          "internalType": "uint256"
        }
      ],
      "outputs": [
        {
          "name": "asset",
          "type": "address",
          "internalType": "contract IERC20"
        }
      ],
      "stateMutability": "view"
    },
    {
      "type": "function",
      "name": "getClaimableRebasingAssetYield",
      "inputs": [
        {
          "name": "asset",
          "type": "address",
          "internalType": "contract IERC20Rebasing"
        }
      ],
      "outputs": [
        {
          "name": "claimableYield",
          "type": "uint256",
          "internalType": "uint256"
        }
      ],
      "stateMutability": "view"
    },
    {
      "type": "function",
      "name": "getDepositedAmount",
      "inputs": [
        {
          "name": "streamId",
          "type": "uint256",
          "internalType": "uint256"
        }
      ],
      "outputs": [
        {
          "name": "depositedAmount",
          "type": "uint128",
          "internalType": "uint128"
        }
      ],
      "stateMutability": "view"
    },
    {
      "type": "function",
      "name": "getEndTime",
      "inputs": [
        {
          "name": "streamId",
          "type": "uint256",
          "internalType": "uint256"
        }
      ],
      "outputs": [
        {
          "name": "endTime",
          "type": "uint40",
          "internalType": "uint40"
        }
      ],
      "stateMutability": "view"
    },
    {
      "type": "function",
      "name": "getRebasingAssetConfiguration",
      "inputs": [
        {
          "name": "asset",
          "type": "address",
          "internalType": "contract IERC20Rebasing"
        }
      ],
      "outputs": [
        {
          "name": "yieldMode",
          "type": "uint8",
          "internalType": "enum YieldMode"
        }
      ],
      "stateMutability": "view"
    },
    {
      "type": "function",
      "name": "getRecipient",
      "inputs": [
        {
          "name": "streamId",
          "type": "uint256",
          "internalType": "uint256"
        }
      ],
      "outputs": [
        {
          "name": "recipient",
          "type": "address",
          "internalType": "address"
        }
      ],
      "stateMutability": "view"
    },
    {
      "type": "function",
      "name": "getRefundedAmount",
      "inputs": [
        {
          "name": "streamId",
          "type": "uint256",
          "internalType": "uint256"
        }
      ],
      "outputs": [
        {
          "name": "refundedAmount",
          "type": "uint128",
          "internalType": "uint128"
        }
      ],
      "stateMutability": "view"
    },
    {
      "type": "function",
      "name": "getSender",
      "inputs": [
        {
          "name": "streamId",
          "type": "uint256",
          "internalType": "uint256"
        }
      ],
      "outputs": [
        {
          "name": "sender",
          "type": "address",
          "internalType": "address"
        }
      ],
      "stateMutability": "view"
    },
    {
      "type": "function",
      "name": "getStartTime",
      "inputs": [
        {
          "name": "streamId",
          "type": "uint256",
          "internalType": "uint256"
        }
      ],
      "outputs": [
        {
          "name": "startTime",
          "type": "uint40",
          "internalType": "uint40"
        }
      ],
      "stateMutability": "view"
    },
    {
      "type": "function",
      "name": "getStream",
      "inputs": [
        {
          "name": "streamId",
          "type": "uint256",
          "internalType": "uint256"
        }
      ],
      "outputs": [
        {
          "name": "stream",
          "type": "tuple",
          "internalType": "struct LockupTranched.StreamLT",
          "components": [
            {
              "name": "sender",
              "type": "address",
              "internalType": "address"
            },
            {
              "name": "recipient",
              "type": "address",
              "internalType": "address"
            },
            {
              "name": "startTime",
              "type": "uint40",
              "internalType": "uint40"
            },
            {
              "name": "endTime",
              "type": "uint40",
              "internalType": "uint40"
            },
            {
              "name": "isCancelable",
              "type": "bool",
              "internalType": "bool"
            },
            {
              "name": "wasCanceled",
              "type": "bool",
              "internalType": "bool"
            },
            {
              "name": "asset",
              "type": "address",
              "internalType": "contract IERC20"
            },
            {
              "name": "isDepleted",
              "type": "bool",
              "internalType": "bool"
            },
            {
              "name": "isStream",
              "type": "bool",
              "internalType": "bool"
            },
            {
              "name": "isTransferable",
              "type": "bool",
              "internalType": "bool"
            },
            {
              "name": "amounts",
              "type": "tuple",
              "internalType": "struct Lockup.Amounts",
              "components": [
                {
                  "name": "deposited",
                  "type": "uint128",
                  "internalType": "uint128"
                },
                {
                  "name": "withdrawn",
                  "type": "uint128",
                  "internalType": "uint128"
                },
                {
                  "name": "refunded",
                  "type": "uint128",
                  "internalType": "uint128"
                }
              ]
            },
            {
              "name": "tranches",
              "type": "tuple[]",
              "internalType": "struct LockupTranched.Tranche[]",
              "components": [
                {
                  "name": "amount",
                  "type": "uint128",
                  "internalType": "uint128"
                },
                {
                  "name": "timestamp",
                  "type": "uint40",
                  "internalType": "uint40"
                }
              ]
            }
          ]
        }
      ],
      "stateMutability": "view"
    },
    {
      "type": "function",
      "name": "getTimestamps",
      "inputs": [
        {
          "name": "streamId",
          "type": "uint256",
          "internalType": "uint256"
        }
      ],
      "outputs": [
        {
          "name": "timestamps",
          "type": "tuple",
          "internalType": "struct LockupTranched.Timestamps",
          "components": [
            {
              "name": "start",
              "type": "uint40",
              "internalType": "uint40"
            },
            {
              "name": "end",
              "type": "uint40",
              "internalType": "uint40"
            }
          ]
        }
      ],
      "stateMutability": "view"
    },
    {
      "type": "function",
      "name": "getTranches",
      "inputs": [
        {
          "name": "streamId",
          "type": "uint256",
          "internalType": "uint256"
        }
      ],
      "outputs": [
        {
          "name": "tranches",
          "type": "tuple[]",
          "internalType": "struct LockupTranched.Tranche[]",
          "components": [
            {
              "name": "amount",
              "type": "uint128",
              "internalType": "uint128"
            },
            {
              "name": "timestamp",
              "type": "uint40",
              "internalType": "uint40"
            }
          ]
        }
      ],
      "stateMutability": "view"
    },
    {
      "type": "function",
      "name": "getWithdrawnAmount",
      "inputs": [
        {
          "name": "streamId",
          "type": "uint256",
          "internalType": "uint256"
        }
      ],
      "outputs": [
        {
          "name": "withdrawnAmount",
          "type": "uint128",
          "internalType": "uint128"
        }
      ],
      "stateMutability": "view"
    },
    {
      "type": "function",
      "name": "isAllowedToHook",
      "inputs": [
        {
          "name": "recipient",
          "type": "address",
          "internalType": "address"
        }
      ],
      "outputs": [
        {
          "name": "result",
          "type": "bool",
          "internalType": "bool"
        }
      ],
      "stateMutability": "view"
    },
    {
      "type": "function",
      "name": "isApprovedForAll",
      "inputs": [
        {
          "name": "owner",
          "type": "address",
          "internalType": "address"
        },
        {
          "name": "operator",
          "type": "address",
          "internalType": "address"
        }
      ],
      "outputs": [
        {
          "name": "",
          "type": "bool",
          "internalType": "bool"
        }
      ],
      "stateMutability": "view"
    },
    {
      "type": "function",
      "name": "isCancelable",
      "inputs": [
        {
          "name": "streamId",
          "type": "uint256",
          "internalType": "uint256"
        }
      ],
      "outputs": [
        {
          "name": "result",
          "type": "bool",
          "internalType": "bool"
        }
      ],
      "stateMutability": "view"
    },
    {
      "type": "function",
      "name": "isCold",
      "inputs": [
        {
          "name": "streamId",
          "type": "uint256",
          "internalType": "uint256"
        }
      ],
      "outputs": [
        {
          "name": "result",
          "type": "bool",
          "internalType": "bool"
        }
      ],
      "stateMutability": "view"
    },
    {
      "type": "function",
      "name": "isDepleted",
      "inputs": [
        {
          "name": "streamId",
          "type": "uint256",
          "internalType": "uint256"
        }
      ],
      "outputs": [
        {
          "name": "result",
          "type": "bool",
          "internalType": "bool"
        }
      ],
      "stateMutability": "view"
    },
    {
      "type": "function",
      "name": "isStream",
      "inputs": [
        {
          "name": "streamId",
          "type": "uint256",
          "internalType": "uint256"
        }
      ],
      "outputs": [
        {
          "name": "result",
          "type": "bool",
          "internalType": "bool"
        }
      ],
      "stateMutability": "view"
    },
    {
      "type": "function",
      "name": "isTransferable",
      "inputs": [
        {
          "name": "streamId",
          "type": "uint256",
          "internalType": "uint256"
        }
      ],
      "outputs": [
        {
          "name": "result",
          "type": "bool",
          "internalType": "bool"
        }
      ],
      "stateMutability": "view"
    },
    {
      "type": "function",
      "name": "isWarm",
      "inputs": [
        {
          "name": "streamId",
          "type": "uint256",
          "internalType": "uint256"
        }
      ],
      "outputs": [
        {
          "name": "result",
          "type": "bool",
          "internalType": "bool"
        }
      ],
      "stateMutability": "view"
    },
    {
      "type": "function",
      "name": "name",
      "inputs": [],
      "outputs": [
        {
          "name": "",
          "type": "string",
          "internalType": "string"
        }
      ],
      "stateMutability": "view"
    },
    {
      "type": "function",
      "name": "nextStreamId",
      "inputs": [],
      "outputs": [
        {
          "name": "",
          "type": "uint256",
          "internalType": "uint256"
        }
      ],
      "stateMutability": "view"
    },
    {
      "type": "function",
      "name": "nftDescriptor",
      "inputs": [],
      "outputs": [
        {
          "name": "",
          "type": "address",
          "internalType": "contract ISablierV2NFTDescriptor"
        }
      ],
      "stateMutability": "view"
    },
    {
      "type": "function",
      "name": "ownerOf",
      "inputs": [
        {
          "name": "tokenId",
          "type": "uint256",
          "internalType": "uint256"
        }
      ],
      "outputs": [
        {
          "name": "",
          "type": "address",
          "internalType": "address"
        }
      ],
      "stateMutability": "view"
    },
    {
      "type": "function",
      "name": "refundableAmountOf",
      "inputs": [
        {
          "name": "streamId",
          "type": "uint256",
          "internalType": "uint256"
        }
      ],
      "outputs": [
        {
          "name": "refundableAmount",
          "type": "uint128",
          "internalType": "uint128"
        }
      ],
      "stateMutability": "view"
    },
    {
      "type": "function",
      "name": "renounce",
      "inputs": [
        {
          "name": "streamId",
          "type": "uint256",
          "internalType": "uint256"
        }
      ],
      "outputs": [],
      "stateMutability": "nonpayable"
    },
    {
      "type": "function",
      "name": "safeTransferFrom",
      "inputs": [
        {
          "name": "from",
          "type": "address",
          "internalType": "address"
        },
        {
          "name": "to",
          "type": "address",
          "internalType": "address"
        },
        {
          "name": "tokenId",
          "type": "uint256",
          "internalType": "uint256"
        }
      ],
      "outputs": [],
      "stateMutability": "nonpayable"
    },
    {
      "type": "function",
      "name": "safeTransferFrom",
      "inputs": [
        {
          "name": "from",
          "type": "address",
          "internalType": "address"
        },
        {
          "name": "to",
          "type": "address",
          "internalType": "address"
        },
        {
          "name": "tokenId",
          "type": "uint256",
          "internalType": "uint256"
        },
        {
          "name": "data",
          "type": "bytes",
          "internalType": "bytes"
        }
      ],
      "outputs": [],
      "stateMutability": "nonpayable"
    },
    {
      "type": "function",
      "name": "setApprovalForAll",
      "inputs": [
        {
          "name": "operator",
          "type": "address",
          "internalType": "address"
        },
        {
          "name": "approved",
          "type": "bool",
          "internalType": "bool"
        }
      ],
      "outputs": [],
      "stateMutability": "nonpayable"
    },
    {
      "type": "function",
      "name": "setNFTDescriptor",
      "inputs": [
        {
          "name": "newNFTDescriptor",
          "type": "address",
          "internalType": "contract ISablierV2NFTDescriptor"
        }
      ],
      "outputs": [],
      "stateMutability": "nonpayable"
    },
    {
      "type": "function",
      "name": "statusOf",
      "inputs": [
        {
          "name": "streamId",
          "type": "uint256",
          "internalType": "uint256"
        }
      ],
      "outputs": [
        {
          "name": "status",
          "type": "uint8",
          "internalType": "enum Lockup.Status"
        }
      ],
      "stateMutability": "view"
    },
    {
      "type": "function",
      "name": "streamedAmountOf",
      "inputs": [
        {
          "name": "streamId",
          "type": "uint256",
          "internalType": "uint256"
        }
      ],
      "outputs": [
        {
          "name": "streamedAmount",
          "type": "uint128",
          "internalType": "uint128"
        }
      ],
      "stateMutability": "view"
    },
    {
      "type": "function",
      "name": "supportsInterface",
      "inputs": [
        {
          "name": "interfaceId",
          "type": "bytes4",
          "internalType": "bytes4"
        }
      ],
      "outputs": [
        {
          "name": "",
          "type": "bool",
          "internalType": "bool"
        }
      ],
      "stateMutability": "view"
    },
    {
      "type": "function",
      "name": "symbol",
      "inputs": [],
      "outputs": [
        {
          "name": "",
          "type": "string",
          "internalType": "string"
        }
      ],
      "stateMutability": "view"
    },
    {
      "type": "function",
      "name": "tokenURI",
      "inputs": [
        {
          "name": "streamId",
          "type": "uint256",
          "internalType": "uint256"
        }
      ],
      "outputs": [
        {
          "name": "uri",
          "type": "string",
          "internalType": "string"
        }
      ],
      "stateMutability": "view"
    },
    {
      "type": "function",
      "name": "transferAdmin",
      "inputs": [
        {
          "name": "newAdmin",
          "type": "address",
          "internalType": "address"
        }
      ],
      "outputs": [],
      "stateMutability": "nonpayable"
    },
    {
      "type": "function",
      "name": "transferFrom",
      "inputs": [
        {
          "name": "from",
          "type": "address",
          "internalType": "address"
        },
        {
          "name": "to",
          "type": "address",
          "internalType": "address"
        },
        {
          "name": "tokenId",
          "type": "uint256",
          "internalType": "uint256"
        }
      ],
      "outputs": [],
      "stateMutability": "nonpayable"
    },
    {
      "type": "function",
      "name": "wasCanceled",
      "inputs": [
        {
          "name": "streamId",
          "type": "uint256",
          "internalType": "uint256"
        }
      ],
      "outputs": [
        {
          "name": "result",
          "type": "bool",
          "internalType": "bool"
        }
      ],
      "stateMutability": "view"
    },
    {
      "type": "function",
      "name": "withdraw",
      "inputs": [
        {
          "name": "streamId",
          "type": "uint256",
          "internalType": "uint256"
        },
        {
          "name": "to",
          "type": "address",
          "internalType": "address"
        },
        {
          "name": "amount",
          "type": "uint128",
          "internalType": "uint128"
        }
      ],
      "outputs": [],
      "stateMutability": "nonpayable"
    },
    {
      "type": "function",
      "name": "withdrawMax",
      "inputs": [
        {
          "name": "streamId",
          "type": "uint256",
          "internalType": "uint256"
        },
        {
          "name": "to",
          "type": "address",
          "internalType": "address"
        }
      ],
      "outputs": [
        {
          "name": "withdrawnAmount",
          "type": "uint128",
          "internalType": "uint128"
        }
      ],
      "stateMutability": "nonpayable"
    },
    {
      "type": "function",
      "name": "withdrawMaxAndTransfer",
      "inputs": [
        {
          "name": "streamId",
          "type": "uint256",
          "internalType": "uint256"
        },
        {
          "name": "newRecipient",
          "type": "address",
          "internalType": "address"
        }
      ],
      "outputs": [
        {
          "name": "withdrawnAmount",
          "type": "uint128",
          "internalType": "uint128"
        }
      ],
      "stateMutability": "nonpayable"
    },
    {
      "type": "function",
      "name": "withdrawMultiple",
      "inputs": [
        {
          "name": "streamIds",
          "type": "uint256[]",
          "internalType": "uint256[]"
        },
        {
          "name": "amounts",
          "type": "uint128[]",
          "internalType": "uint128[]"
        }
      ],
      "outputs": [],
      "stateMutability": "nonpayable"
    },
    {
      "type": "function",
      "name": "withdrawableAmountOf",
      "inputs": [
        {
          "name": "streamId",
          "type": "uint256",
          "internalType": "uint256"
        }
      ],
      "outputs": [
        {
          "name": "withdrawableAmount",
          "type": "uint128",
          "internalType": "uint128"
        }
      ],
      "stateMutability": "view"
    },
    {
      "type": "event",
      "name": "AllowToHook",
      "inputs": [
        {
          "name": "admin",
          "type": "address",
          "indexed": true,
          "internalType": "address"
        },
        {
          "name": "recipient",
          "type": "address",
          "indexed": false,
          "internalType": "address"
        }
      ],
      "anonymous": false
    },
    {
      "type": "event",
      "name": "Approval",
      "inputs": [
        {
          "name": "owner",
          "type": "address",
          "indexed": true,
          "internalType": "address"
        },
        {
          "name": "approved",
          "type": "address",
          "indexed": true,
          "internalType": "address"
        },
        {
          "name": "tokenId",
          "type": "uint256",
          "indexed": true,
          "internalType": "uint256"
        }
      ],
      "anonymous": false
    },
    {
      "type": "event",
      "name": "ApprovalForAll",
      "inputs": [
        {
          "name": "owner",
          "type": "address",
          "indexed": true,
          "internalType": "address"
        },
        {
          "name": "operator",
          "type": "address",
          "indexed": true,
          "internalType": "address"
        },
        {
          "name": "approved",
          "type": "bool",
          "indexed": false,
          "internalType": "bool"
        }
      ],
      "anonymous": false
    },
    {
      "type": "event",
      "name": "BatchMetadataUpdate",
      "inputs": [
        {
          "name": "_fromTokenId",
          "type": "uint256",
          "indexed": false,
          "internalType": "uint256"
        },
        {
          "name": "_toTokenId",
          "type": "uint256",
          "indexed": false,
          "internalType": "uint256"
        }
      ],
      "anonymous": false
    },
    {
      "type": "event",
      "name": "CancelLockupStream",
      "inputs": [
        {
          "name": "streamId",
          "type": "uint256",
          "indexed": false,
          "internalType": "uint256"
        },
        {
          "name": "sender",
          "type": "address",
          "indexed": true,
          "internalType": "address"
        },
        {
          "name": "recipient",
          "type": "address",
          "indexed": true,
          "internalType": "address"
        },
        {
          "name": "asset",
          "type": "address",
          "indexed": true,
          "internalType": "contract IERC20"
        },
        {
          "name": "senderAmount",
          "type": "uint128",
          "indexed": false,
          "internalType": "uint128"
        },
        {
          "name": "recipientAmount",
          "type": "uint128",
          "indexed": false,
          "internalType": "uint128"
        }
      ],
      "anonymous": false
    },
    {
      "type": "event",
      "name": "CreateLockupTranchedStream",
      "inputs": [
        {
          "name": "streamId",
          "type": "uint256",
          "indexed": false,
          "internalType": "uint256"
        },
        {
          "name": "funder",
          "type": "address",
          "indexed": false,
          "internalType": "address"
        },
        {
          "name": "sender",
          "type": "address",
          "indexed": true,
          "internalType": "address"
        },
        {
          "name": "recipient",
          "type": "address",
          "indexed": true,
          "internalType": "address"
        },
        {
          "name": "amounts",
          "type": "tuple",
          "indexed": false,
          "internalType": "struct Lockup.CreateAmounts",
          "components": [
            {
              "name": "deposit",
              "type": "uint128",
              "internalType": "uint128"
            },
            {
              "name": "brokerFee",
              "type": "uint128",
              "internalType": "uint128"
            }
          ]
        },
        {
          "name": "asset",
          "type": "address",
          "indexed": true,
          "internalType": "contract IERC20"
        },
        {
          "name": "cancelable",
          "type": "bool",
          "indexed": false,
          "internalType": "bool"
        },
        {
          "name": "transferable",
          "type": "bool",
          "indexed": false,
          "internalType": "bool"
        },
        {
          "name": "tranches",
          "type": "tuple[]",
          "indexed": false,
          "internalType": "struct LockupTranched.Tranche[]",
          "components": [
            {
              "name": "amount",
              "type": "uint128",
              "internalType": "uint128"
            },
            {
              "name": "timestamp",
              "type": "uint40",
              "internalType": "uint40"
            }
          ]
        },
        {
          "name": "timestamps",
          "type": "tuple",
          "indexed": false,
          "internalType": "struct LockupTranched.Timestamps",
          "components": [
            {
              "name": "start",
              "type": "uint40",
              "internalType": "uint40"
            },
            {
              "name": "end",
              "type": "uint40",
              "internalType": "uint40"
            }
          ]
        },
        {
          "name": "broker",
          "type": "address",
          "indexed": false,
          "internalType": "address"
        }
      ],
      "anonymous": false
    },
    {
      "type": "event",
      "name": "MetadataUpdate",
      "inputs": [
        {
          "name": "_tokenId",
          "type": "uint256",
          "indexed": false,
          "internalType": "uint256"
        }
      ],
      "anonymous": false
    },
    {
      "type": "event",
      "name": "RenounceLockupStream",
      "inputs": [
        {
          "name": "streamId",
          "type": "uint256",
          "indexed": true,
          "internalType": "uint256"
        }
      ],
      "anonymous": false
    },
    {
      "type": "event",
      "name": "SetNFTDescriptor",
      "inputs": [
        {
          "name": "admin",
          "type": "address",
          "indexed": true,
          "internalType": "address"
        },
        {
          "name": "oldNFTDescriptor",
          "type": "address",
          "indexed": false,
          "internalType": "contract ISablierV2NFTDescriptor"
        },
        {
          "name": "newNFTDescriptor",
          "type": "address",
          "indexed": false,
          "internalType": "contract ISablierV2NFTDescriptor"
        }
      ],
      "anonymous": false
    },
    {
      "type": "event",
      "name": "Transfer",
      "inputs": [
        {
          "name": "from",
          "type": "address",
          "indexed": true,
          "internalType": "address"
        },
        {
          "name": "to",
          "type": "address",
          "indexed": true,
          "internalType": "address"
        },
        {
          "name": "tokenId",
          "type": "uint256",
          "indexed": true,
          "internalType": "uint256"
        }
      ],
      "anonymous": false
    },
    {
      "type": "event",
      "name": "TransferAdmin",
      "inputs": [
        {
          "name": "oldAdmin",
          "type": "address",
          "indexed": true,
          "internalType": "address"
        },
        {
          "name": "newAdmin",
          "type": "address",
          "indexed": true,
          "internalType": "address"
        }
      ],
      "anonymous": false
    },
    {
      "type": "event",
      "name": "WithdrawFromLockupStream",
      "inputs": [
        {
          "name": "streamId",
          "type": "uint256",
          "indexed": true,
          "internalType": "uint256"
        },
        {
          "name": "to",
          "type": "address",
          "indexed": true,
          "internalType": "address"
        },
        {
          "name": "asset",
          "type": "address",
          "indexed": true,
          "internalType": "contract IERC20"
        },
        {
          "name": "amount",
          "type": "uint128",
          "indexed": false,
          "internalType": "uint128"
        }
      ],
      "anonymous": false
    },
    {
      "type": "error",
      "name": "AddressEmptyCode",
      "inputs": [
        {
          "name": "target",
          "type": "address",
          "internalType": "address"
        }
      ]
    },
    {
      "type": "error",
      "name": "AddressInsufficientBalance",
      "inputs": [
        {
          "name": "account",
          "type": "address",
          "internalType": "address"
        }
      ]
    },
    {
      "type": "error",
      "name": "CallerNotAdmin",
      "inputs": [
        {
          "name": "admin",
          "type": "address",
          "internalType": "address"
        },
        {
          "name": "caller",
          "type": "address",
          "internalType": "address"
        }
      ]
    },
    {
      "type": "error",
      "name": "DelegateCall",
      "inputs": []
    },
    {
      "type": "error",
      "name": "ERC721IncorrectOwner",
      "inputs": [
        {
          "name": "sender",
          "type": "address",
          "internalType": "address"
        },
        {
          "name": "tokenId",
          "type": "uint256",
          "internalType": "uint256"
        },
        {
          "name": "owner",
          "type": "address",
          "internalType": "address"
        }
      ]
    },
    {
      "type": "error",
      "name": "ERC721InsufficientApproval",
      "inputs": [
        {
          "name": "operator",
          "type": "address",
          "internalType": "address"
        },
        {
          "name": "tokenId",
          "type": "uint256",
          "internalType": "uint256"
        }
      ]
    },
    {
      "type": "error",
      "name": "ERC721InvalidApprover",
      "inputs": [
        {
          "name": "approver",
          "type": "address",
          "internalType": "address"
        }
      ]
    },
    {
      "type": "error",
      "name": "ERC721InvalidOperator",
      "inputs": [
        {
          "name": "operator",
          "type": "address",
          "internalType": "address"
        }
      ]
    },
    {
      "type": "error",
      "name": "ERC721InvalidOwner",
      "inputs": [
        {
          "name": "owner",
          "type": "address",
          "internalType": "address"
        }
      ]
    },
    {
      "type": "error",
      "name": "ERC721InvalidReceiver",
      "inputs": [
        {
          "name": "receiver",
          "type": "address",
          "internalType": "address"
        }
      ]
    },
    {
      "type": "error",
      "name": "ERC721InvalidSender",
      "inputs": [
        {
          "name": "sender",
          "type": "address",
          "internalType": "address"
        }
      ]
    },
    {
      "type": "error",
      "name": "ERC721NonexistentToken",
      "inputs": [
        {
          "name": "tokenId",
          "type": "uint256",
          "internalType": "uint256"
        }
      ]
    },
    {
      "type": "error",
      "name": "FailedInnerCall",
      "inputs": []
    },
    {
      "type": "error",
      "name": "PRBMath_MulDiv18_Overflow",
      "inputs": [
        {
          "name": "x",
          "type": "uint256",
          "internalType": "uint256"
        },
        {
          "name": "y",
          "type": "uint256",
          "internalType": "uint256"
        }
      ]
    },
    {
      "type": "error",
      "name": "SablierV2LockupTranched_DepositAmountNotEqualToTrancheAmountsSum",
      "inputs": [
        {
          "name": "depositAmount",
          "type": "uint128",
          "internalType": "uint128"
        },
        {
          "name": "trancheAmountsSum",
          "type": "uint128",
          "internalType": "uint128"
        }
      ]
    },
    {
      "type": "error",
      "name": "SablierV2LockupTranched_StartTimeNotLessThanFirstTrancheTimestamp",
      "inputs": [
        {
          "name": "startTime",
          "type": "uint40",
          "internalType": "uint40"
        },
        {
          "name": "firstTrancheTimestamp",
          "type": "uint40",
          "internalType": "uint40"
        }
      ]
    },
    {
      "type": "error",
      "name": "SablierV2LockupTranched_TrancheCountTooHigh",
      "inputs": [
        {
          "name": "count",
          "type": "uint256",
          "internalType": "uint256"
        }
      ]
    },
    {
      "type": "error",
      "name": "SablierV2LockupTranched_TrancheCountZero",
      "inputs": []
    },
    {
      "type": "error",
      "name": "SablierV2LockupTranched_TrancheTimestampsNotOrdered",
      "inputs": [
        {
          "name": "index",
          "type": "uint256",
          "internalType": "uint256"
        },
        {
          "name": "previousTimestamp",
          "type": "uint40",
          "internalType": "uint40"
        },
        {
          "name": "currentTimestamp",
          "type": "uint40",
          "internalType": "uint40"
        }
      ]
    },
    {
      "type": "error",
      "name": "SablierV2Lockup_AllowToHookUnsupportedInterface",
      "inputs": [
        {
          "name": "recipient",
          "type": "address",
          "internalType": "address"
        }
      ]
    },
    {
      "type": "error",
      "name": "SablierV2Lockup_AllowToHookZeroCodeSize",
      "inputs": [
        {
          "name": "recipient",
          "type": "address",
          "internalType": "address"
        }
      ]
    },
    {
      "type": "error",
      "name": "SablierV2Lockup_BrokerFeeTooHigh",
      "inputs": [
        {
          "name": "brokerFee",
          "type": "uint256",
          "internalType": "UD60x18"
        },
        {
          "name": "maxBrokerFee",
          "type": "uint256",
          "internalType": "UD60x18"
        }
      ]
    },
    {
      "type": "error",
      "name": "SablierV2Lockup_DepositAmountZero",
      "inputs": []
    },
    {
      "type": "error",
      "name": "SablierV2Lockup_EndTimeNotInTheFuture",
      "inputs": [
        {
          "name": "blockTimestamp",
          "type": "uint40",
          "internalType": "uint40"
        },
        {
          "name": "endTime",
          "type": "uint40",
          "internalType": "uint40"
        }
      ]
    },
    {
      "type": "error",
      "name": "SablierV2Lockup_InvalidHookSelector",
      "inputs": [
        {
          "name": "recipient",
          "type": "address",
          "internalType": "address"
        }
      ]
    },
    {
      "type": "error",
      "name": "SablierV2Lockup_NotTransferable",
      "inputs": [
        {
          "name": "tokenId",
          "type": "uint256",
          "internalType": "uint256"
        }
      ]
    },
    {
      "type": "error",
      "name": "SablierV2Lockup_Null",
      "inputs": [
        {
          "name": "streamId",
          "type": "uint256",
          "internalType": "uint256"
        }
      ]
    },
    {
      "type": "error",
      "name": "SablierV2Lockup_Overdraw",
      "inputs": [
        {
          "name": "streamId",
          "type": "uint256",
          "internalType": "uint256"
        },
        {
          "name": "amount",
          "type": "uint128",
          "internalType": "uint128"
        },
        {
          "name": "withdrawableAmount",
          "type": "uint128",
          "internalType": "uint128"
        }
      ]
    },
    {
      "type": "error",
      "name": "SablierV2Lockup_StartTimeZero",
      "inputs": []
    },
    {
      "type": "error",
      "name": "SablierV2Lockup_StreamCanceled",
      "inputs": [
        {
          "name": "streamId",
          "type": "uint256",
          "internalType": "uint256"
        }
      ]
    },
    {
      "type": "error",
      "name": "SablierV2Lockup_StreamDepleted",
      "inputs": [
        {
          "name": "streamId",
          "type": "uint256",
          "internalType": "uint256"
        }
      ]
    },
    {
      "type": "error",
      "name": "SablierV2Lockup_StreamNotCancelable",
      "inputs": [
        {
          "name": "streamId",
          "type": "uint256",
          "internalType": "uint256"
        }
      ]
    },
    {
      "type": "error",
      "name": "SablierV2Lockup_StreamNotDepleted",
      "inputs": [
        {
          "name": "streamId",
          "type": "uint256",
          "internalType": "uint256"
        }
      ]
    },
    {
      "type": "error",
      "name": "SablierV2Lockup_StreamSettled",
      "inputs": [
        {
          "name": "streamId",
          "type": "uint256",
          "internalType": "uint256"
        }
      ]
    },
    {
      "type": "error",
      "name": "SablierV2Lockup_Unauthorized",
      "inputs": [
        {
          "name": "streamId",
          "type": "uint256",
          "internalType": "uint256"
        },
        {
          "name": "caller",
          "type": "address",
          "internalType": "address"
        }
      ]
    },
    {
      "type": "error",
      "name": "SablierV2Lockup_WithdrawAmountZero",
      "inputs": [
        {
          "name": "streamId",
          "type": "uint256",
          "internalType": "uint256"
        }
      ]
    },
    {
      "type": "error",
      "name": "SablierV2Lockup_WithdrawArrayCountsNotEqual",
      "inputs": [
        {
          "name": "streamIdsCount",
          "type": "uint256",
          "internalType": "uint256"
        },
        {
          "name": "amountsCount",
          "type": "uint256",
          "internalType": "uint256"
        }
      ]
    },
    {
      "type": "error",
      "name": "SablierV2Lockup_WithdrawToZeroAddress",
      "inputs": [
        {
          "name": "streamId",
          "type": "uint256",
          "internalType": "uint256"
        }
      ]
    },
    {
      "type": "error",
      "name": "SablierV2Lockup_WithdrawalAddressNotRecipient",
      "inputs": [
        {
          "name": "streamId",
          "type": "uint256",
          "internalType": "uint256"
        },
        {
          "name": "caller",
          "type": "address",
          "internalType": "address"
        },
        {
          "name": "to",
          "type": "address",
          "internalType": "address"
        }
      ]
    },
    {
      "type": "error",
      "name": "SafeERC20FailedOperation",
      "inputs": [
        {
          "name": "token",
          "type": "address",
          "internalType": "address"
        }
      ]
    }
  ],
  "bytecode": {
    "object": "0x60c0604052346103e4576153856060813803918261001c816103e8565b9384928339810103126103e45780516001600160a01b038116908190036103e45760208201516001600160a01b03811692908390036103e4576040015161006360406103e8565b92601e84527f5361626c696572205632204c6f636b7570205472616e63686564204e46540000602085015261009860406103e8565b60118152705341422d56322d4c4f434b55502d54524160781b602082015230608052845190946001600160401b0382116102e75760015490600182811c921680156103da575b60208310146102c95781601f84931161036c575b50602090601f8311600114610306575f926102fb575b50508160011b915f199060031b1c1916176001555b83516001600160401b0381116102e757600254600181811c911680156102dd575b60208210146102c957601f8111610266575b50602094601f8211600114610203579481929394955f926101f8575b50508160011b915f199060031b1c1916176002555b5f80546001600160a01b031990811685178255600880549091169290921790915560405192907fbdd36143ee09de60bdefca70680e0f71189b2ed7acee364b53917ad433fdaf808180a360a0526001600755614f77908161040e823960805181614384015260a0518181816133e8015261442d0152f35b015190505f8061016c565b601f1982169560025f52805f20915f5b88811061024e57508360019596979810610236575b505050811b01600255610181565b01515f1960f88460031b161c191690555f8080610228565b91926020600181928685015181550194019201610213565b60025f527f405787fa12a823e0f2b7631cc41b3ba8828b3321ca811111fa75cd3aa3bb5ace601f830160051c810191602084106102bf575b601f0160051c01905b8181106102b45750610150565b5f81556001016102a7565b909150819061029e565b634e487b7160e01b5f52602260045260245ffd5b90607f169061013e565b634e487b7160e01b5f52604160045260245ffd5b015190505f80610108565b60015f9081528281209350601f198516905b818110610354575090846001959493921061033c575b505050811b0160015561011d565b01515f1960f88460031b161c191690555f808061032e565b92936020600181928786015181550195019301610318565b60015f529091507fb10e2d527612073b26eecdfd717e6a320cf44b4afac2b0732d9fcbe2b7fa0cf6601f840160051c810191602085106103d0575b90601f859493920160051c01905b8181106103c257506100f2565b5f81558493506001016103b5565b90915081906103a7565b91607f16916100de565b5f80fd5b6040519190601f01601f191682016001600160401b038111838210176102e75760405256fe6080806040526004361015610012575f80fd5b5f905f3560e01c90816301ffc9a71461383057508063027b67441461380e57806306fdde031461371a578063081812fc146136fc578063095ea7b3146135f75780631400ecec146135465780631c1cdd4c146134e25780631e99d569146134c557806323b872dd146134ae5780632c5a6fb81461340b5780632fe43041146133d1578063303acc851461339457806332fbe22b14613237578063406887cb146130c857806340e58ee514612df0578063425d30dd14612da057806342842e0e14612d7757806342966c6814612bb35780634426757014612b8d5780634857501f14612b1c5780634869e12d14612ae25780634cc55e111461270457806357404b12146126785780636352211e146124f157806363e55549146125d55780636900ebd0146125205780636d0cee75146124f157806370a082311461248757806375829def146124195780637cad6cd11461233e5780637de6b1db146121f15780637f5799f9146121985780638659c27014611dcf578063894e9a0d14611a90578063897f362b146117c55780638f69b993146117315780639067b677146116d157806393273335146115d757806395d89b41146114ca578063a22cb46514611414578063a80fc071146113c1578063a8ef018a14611309578063ad35efd414611296578063b256456914611244578063b88d4fde146111b3578063b8a3be661461117e578063b971302a1461112e578063bc2be1be146110dd578063c156a11d14610ca3578063c87b56dd14610b83578063d4dbd20b14610b30578063d511609f14610ae3578063d975dfed14610a96578063e985e9c514610a43578063ea5ead19146106ed578063eac8f5b81461069a578063f590c1761461063d578063f851a440146106175763fdd46d60146102a7575f80fd5b34610614576060366003190112610614576004356102c361395d565b90604435916001600160801b03831690818403610610576102e261437a565b828552600a60205260ff600160408720015460a81c16156105fe57828552600a60205260ff600160408720015460a01c166105eb576001600160a01b0381169081156105d85782156105c55783865260036020526001600160a01b036040872054169485831415806105b5575b61059a576001600160801b0361036486614bd2565b1680851161057f575061038990858852600a602052600260408920015460801c614bf8565b848752600a60205260026040882001906001600160801b036001600160801b031983549260801b169116179055838652600a6020526103cd60026040882001613f20565b6001600160801b036103f18160208401511692826040818351169201511690613b41565b161115610543575b838652600a60205261041d836001600160a01b03600160408a200154169283614d56565b81847f40b88e5c41c5a97ffb7b6ef88a0a2d505aa0c634cf8a0275cb236ea7dd87ed4d6020604051878152a47ff8e1a15aba9398e019f0b49df1a4fde98ee17ae345cb5f6b5e2c27f5033e8ce76020604051858152a1833314158061052d575b610485578480f35b604051926392b9102b60e01b845260048401523360248401526044830152606482015260208160848186865af1908115610522576392b9102b60e01b916001600160e01b03199185916104f3575b5016036104e1578080808480f35b632187e5e760e21b8252600452602490fd5b610515915060203d60201161051b575b61050d8183613acd565b810190614063565b5f6104d3565b503d610503565b6040513d85823e3d90fd5b50838552600960205260ff60408620541661047d565b838652600a60205260016040872001600160a01b60ff60a01b19825416179055838652600a6020526040862060ff60f01b1981541690556103f9565b87606491868863287ecaef60e21b8452600452602452604452fd5b606487848763b34359d360e01b835260045233602452604452fd5b506105bf85614aad565b1561034f565b6024868563d2aabcd960e01b8252600452fd5b60248685630ff7ee2d60e31b8252600452fd5b60248584634a5541ef60e01b8252600452fd5b6024858462b8e7e760e51b8252600452fd5b8480fd5b80fd5b50346106145780600319360112610614576001600160a01b036020915416604051908152f35b50346106145760203660031901126106145760043590818152600a60205260ff600160408320015460a81c1615610689578060209260409252600a8352205460f81c6040519015158152f35b60249162b8e7e760e51b8252600452fd5b50346106145760203660031901126106145760043590818152600a60205260ff600160408320015460a81c16156106895760016040826020946001600160a01b039452600a855220015416604051908152f35b5034610614576040366003190112610614576004359061070b61395d565b9161071581614bd2565b9061071e61437a565b808352600a60205260ff600160408520015460a81c1615610a3257808352600a60205260ff600160408520015460a01c16610a20576001600160a01b0384168015610a0d576001600160801b0383169485156109fa5782855260036020526001600160a01b036040862054169384831415806109ea575b6109cf576001600160801b036107aa85614bd2565b168088116109b457506107cf90848752600a602052600260408820015460801c614bf8565b838652600a60205260026040872001906001600160801b036001600160801b031983549260801b169116179055828552600a60205261081360026040872001613f20565b6001600160801b036108378160208401511692826040818351169201511690613b41565b161115610978575b828552600a602052610863866001600160a01b036001604089200154169283614d56565b81837f40b88e5c41c5a97ffb7b6ef88a0a2d505aa0c634cf8a0275cb236ea7dd87ed4d60206040518a8152a47ff8e1a15aba9398e019f0b49df1a4fde98ee17ae345cb5f6b5e2c27f5033e8ce76020604051848152a18233141580610962575b6108d3575b602085604051908152f35b604051916392b9102b60e01b83526004830152336024830152604482015283606482015260208160848186865af1908115610522576392b9102b60e01b916001600160e01b0319918591610943575b5016036109305780806108c8565b60249250632187e5e760e21b8252600452fd5b61095c915060203d60201161051b5761050d8183613acd565b5f610922565b50828452600960205260ff6040852054166108c3565b828552600a60205260016040862001600160a01b60ff60a01b19825416179055828552600a6020526040852060ff60f01b19815416905561083f565b86606491898763287ecaef60e21b8452600452602452604452fd5b606486848663b34359d360e01b835260045233602452604452fd5b506109f484614aad565b15610795565b6024858463d2aabcd960e01b8252600452fd5b60248483630ff7ee2d60e31b8252600452fd5b634a5541ef60e01b8352600452602482fd5b62b8e7e760e51b8352600452602482fd5b5034610614576040366003190112610614576001600160a01b036040610a67613947565b9282610a7161395d565b9416815260066020522091165f52602052602060ff60405f2054166040519015158152f35b50346106145760203660031901126106145760043590818152600a60205260ff600160408320015460a81c1615610689576020610ad283614bd2565b6001600160801b0360405191168152f35b50346106145760203660031901126106145760043590818152600a60205260ff600160408320015460a81c16156106895760408160209360029352600a845220015460801c604051908152f35b50346106145760203660031901126106145760043590818152600a60205260ff600160408320015460a81c16156106895760036040826020946001600160801b039452600a855220015416604051908152f35b503461061457602036600319011261061457600435610ba181614083565b50816001600160a01b0360085416916044604051809481937fe9dc637500000000000000000000000000000000000000000000000000000000835230600484015260248301525afa908115610c98578291610c11575b60405160208082528190610c0d90820185613922565b0390f35b90503d8083833e610c228183613acd565b810190602081830312610c905780519067ffffffffffffffff8211610c94570181601f82011215610c9057805192610c5984613aef565b92610c676040519485613acd565b848452602085840101116106145750610c0d92610c8a9160208085019101613901565b5f610bf7565b8280fd5b8380fd5b6040513d84823e3d90fd5b50346106145760403660031901126106145760043590610cc161395d565b91610cca61437a565b808252600a60205260ff600160408420015460a81c16156110cb5780825260036020526001600160a01b036040832054168033036110b457610d0b82614bd2565b936001600160801b0385169485158015610d9d575b50506001600160a01b03811615610d8a57610d43836001600160a01b0392614240565b169081610d5d5760248484637e27328960e01b8252600452fd5b8082939203610d7157602085604051908152f35b606494506364283d7b60e01b8452600452602452604452fd5b602484633250574960e11b815280600452fd5b610da561437a565b848652600a60205260ff600160408820015460a81c16156110a257848652600a60205260ff600160408820015460a01c1661108f57831561107c576110695783855260036020526001600160a01b03604086205416908184141580611059575b61103e576001600160801b03610e1a86614bd2565b168088116110235750610e3f90858752600a602052600260408820015460801c614bf8565b848652600a60205260026040872001906001600160801b036001600160801b031983549260801b169116179055838552600a602052610e8360026040872001613f20565b6001600160801b03610ea78160208401511692826040818351169201511690613b41565b161115610fe7575b838552600a6020526001600160a01b03600160408720015416610ed3878583614d56565b83857f40b88e5c41c5a97ffb7b6ef88a0a2d505aa0c634cf8a0275cb236ea7dd87ed4d60206040518b8152a47ff8e1a15aba9398e019f0b49df1a4fde98ee17ae345cb5f6b5e2c27f5033e8ce76020604051868152a18033141580610fd1575b610f3e575b80610d20565b6040516392b9102b60e01b815284600482015233602482015283604482015286606482015260208160848189865af1908115610fc6576392b9102b60e01b916001600160e01b0319918891610fa7575b501614610f3857632187e5e760e21b8552600452602484fd5b610fc0915060203d60201161051b5761050d8183613acd565b5f610f8e565b6040513d88823e3d90fd5b50808552600960205260ff604086205416610f33565b838552600a60205260016040862001600160a01b60ff60a01b19825416179055838552600a6020526040852060ff60f01b198154169055610eaf565b86606491898863287ecaef60e21b8452600452602452604452fd5b606486858763b34359d360e01b835260045233602452604452fd5b5061106385614aad565b15610e05565b6024858563d2aabcd960e01b8252600452fd5b60248686630ff7ee2d60e31b8252600452fd5b60248686634a5541ef60e01b8252600452fd5b6024868662b8e7e760e51b8252600452fd5b6044838363216caf0d60e01b825260045233602452fd5b6024925062b8e7e760e51b8252600452fd5b50346106145760203660031901126106145760043590818152600a60205260ff600160408320015460a81c16156106895760408160209364ffffffffff9352600a8452205460a01c16604051908152f35b50346106145760203660031901126106145760043590818152600a60205260ff600160408320015460a81c1615610689576040816020936001600160a01b039352600a8452205416604051908152f35b50346106145760203660031901126106145760ff600160406020936004358152600a855220015460a81c166040519015158152f35b5034610614576080366003190112610614576111cd613947565b6111d561395d565b906064359067ffffffffffffffff8211610c945736602383011215610c94578160040135928461120485613aef565b936112126040519586613acd565b8585523660248783010111611240578561123d96602460209301838801378501015260443591613f73565b80f35b5080fd5b50346106145760203660031901126106145760043590818152600a60205260ff600160408320015460a81c161561068957600160408260209460ff9452600a855220015460b01c166040519015158152f35b503461061457602036600319011261061457600435808252600a60205260ff600160408420015460a81c16156112f8576112cf906141ac565b6040519060058110156112e457602092508152f35b602483634e487b7160e01b81526021600452fd5b62b8e7e760e51b8252600452602490fd5b503461061457602036600319011261061457602460206001600160a01b0361132f613947565b16604051928380927fc44b11f70000000000000000000000000000000000000000000000000000000082523060048301525afa908115610c98578291611382575b6020826113806040518092613a4e565bf35b90506020813d6020116113b9575b8161139d60209383613acd565b810103126112405751600381101561124057602091505f611370565b3d9150611390565b50346106145760203660031901126106145760043590818152600a60205260ff600160408320015460a81c16156106895760026040826020946001600160801b039452600a855220015416604051908152f35b50346106145760403660031901126106145761142e613947565b60243590811515809203610c90576001600160a01b031690811561149e57338352600660205260408320825f5260205260405f2060ff1981541660ff83161790556040519081527f17307eab39ab6107e8899845ad3d59bd9653f200f220920489ca2b5937696c3160203392a380f35b602483837f5b08ba18000000000000000000000000000000000000000000000000000000008252600452fd5b50346106145780600319360112610614576040519080600254908160011c916001811680156115cd575b6020841081146115b9578386529081156115925750600114611535575b610c0d8461152181860382613acd565b604051918291602083526020830190613922565b600281527f405787fa12a823e0f2b7631cc41b3ba8828b3321ca811111fa75cd3aa3bb5ace939250905b8082106115785750909150810160200161152182611511565b91926001816020925483858801015201910190929161155f565b60ff191660208087019190915292151560051b850190920192506115219150839050611511565b602483634e487b7160e01b81526022600452fd5b92607f16926114f4565b50346116b75760803660031901126116b7576004356001600160a01b0381168091036116b75760243560038110156116b7576044359160028310156116b757606435906001600160a01b0382168092036116b7576001600160a01b035f54163381036116bb5750803b156116b7575f92836064926116849460405197889687957fc8992e610000000000000000000000000000000000000000000000000000000087526004870190613a4e565b602485015260448401525af180156116ac5761169e575080f35b6116aa91505f90613acd565b005b6040513d5f823e3d90fd5b5f80fd5b6331b339a960e21b5f526004523360245260445ffd5b346116b75760203660031901126116b757600435805f52600a60205260ff600160405f20015460a81c1615611720575f52600a602052602064ffffffffff60405f205460c81c16604051908152f35b62b8e7e760e51b5f5260045260245ffd5b346116b75760203660031901126116b757600435805f52600a60205260ff600160405f20015460a81c161561172057611769906141ac565b6005811015806117a557600282149081156117b9575b8115611793575b6020826040519015158152f35b90506117a55760046020911482611786565b634e487b7160e01b5f52602160045260245ffd5b5050600381145f61177f565b346116b75760203660031901126116b75760043567ffffffffffffffff81116116b7578036036101206003198201126116b75761180061437a565b60c482013590602219018112156116b75781019060048201359167ffffffffffffffff83116116b75760248101908360061b80360383136116b757600460209161184987613dc7565b966118576040519889613acd565b875282870193010101913683116116b757905b828210611a765750505081519161188083613dc7565b9261188e6040519485613acd565b808452601f1961189d82613dc7565b015f5b818110611a5357505064ffffffffff4216916001600160801b036118c3826140a4565b51511664ffffffffff8060206118d8856140a4565b51015116850116604051916118ec83613a78565b825260208201526118fc866140a4565b52611906856140a4565b5060015b8281106119de5750505061192082600401613f52565b9261192d60248401613f52565b9261193a60448201613e80565b916064820135936001600160a01b0385168095036116b7576020966119d696611996966001600160801b036119cb976001600160a01b0361197d60848a01613f66565b948161198b60a48c01613f66565b976040519d8e613a5b565b168c52168c8b0152166040890152606088015215156080870152151560a086015260c085015260e084015260e4369101613e15565b6101008201526143d4565b604051908152f35b806001600160801b036119f3600193856140b1565b51511664ffffffffff806020611a0c5f1986018c6140b1565b51015116816020611a1d86896140b1565b51015116011660405191611a3083613a78565b82526020820152611a4182896140b1565b52611a4c81886140b1565b500161190a565b602090604051611a6281613a78565b5f81525f83820152828289010152016118a0565b6020604091611a853685613ddf565b81520191019061186a565b346116b75760203660031901126116b7576004356060610160604051611ab581613a94565b5f81525f60208201525f60408201525f838201525f60808201525f60a08201525f60c08201525f60e08201525f6101008201525f610120820152604051611afb81613ab1565b5f81525f60208201525f60408201526101408201520152805f52600a60205260ff600160405f20015460a81c161561172057805f52600a60205260405f2060405191610140830183811067ffffffffffffffff821117611dbb576040528154916001600160a01b0383168452602084019264ffffffffff8160a01c168452604085019064ffffffffff8160c81c16825285606081019260ff8360f01c1615158452608082019260f81c1515835260018501549260a08301956001600160a01b0385168752611bf8600260c086019260ff8860a01c161515845260ff61010060e0890198828b60a81c1615158a52019860b01c161515885201613f20565b6101208b01908152611c09896141ac565b60058110156117a557600214611db3575b5196516001600160a01b0316925164ffffffffff169551151590511515935115159451151595885f52600360205260405f20546001600160a01b03169a516001600160a01b0316995164ffffffffff16985f52600b60205260405f2092511515926040519a611c888c613a94565b8b5260208b019b8c5260408b01998a5260608b0191825260808b0192835260a08b0193845260c08b0194855260e08b019586526101008b019687526101208b019788526101408b01988952611cdc90613eac565b986101608b01998a526040519b8c9b60208d52516001600160a01b031660208d0152516001600160a01b031660408c01525164ffffffffff1660608b01525164ffffffffff1660808a015251151560a089015251151560c0880152516001600160a01b031660e08701525115156101008601525115156101208501525115156101408401525180516001600160801b031661016084015260208101516001600160801b0316610180840152604001516001600160801b03166101a0830152516101c082016101c090526101e08201610c0d916139f2565b5f8752611c1a565b634e487b7160e01b5f52604160045260245ffd5b346116b75760203660031901126116b75760043567ffffffffffffffff81116116b757611e009036906004016139c1565b90611e0961437a565b5f915b808310611e1557005b611e20838284613e5c565b3592611e2a61437a565b835f52600a60205260ff600160405f20015460a81c161561218657835f52600a60205260ff600160405f20015460a01c165f14611e745783634a5541ef60e01b5f5260045260245ffd5b909192805f52600a60205260405f205460f81c61217457611ea9815f52600a6020526001600160a01b0360405f205416331490565b1561215e57611eb7816140c5565b90805f52600a602052611ecf600260405f2001613f20565b916001600160801b038351166001600160801b038216101561214b57815f52600a60205260ff60405f205460f01c161561213857806001600160801b03602081611f23948188511603169501511690613b41565b5f828152600a6020526040902080547dffffffffffffffffffffffffffffffffffffffffffffffffffffffffffff16600160f81b179055916001600160801b038316908115612113575b825f52600a602052600360405f20016001600160801b0382166001600160801b0319825416179055825f52600a6020526001600160a01b0360405f205416835f5260036020526001600160a01b0360405f20541694845f52600a60205285827f5edb27d6c1a327513b90a792050debf074b7194444885e3144d4decc5caaaa506120356001600160a01b03600160405f200154169461200d888588614d56565b604080518b81526001600160801b03808b166020830152909216908201529081906060820190565b0390a47ff8e1a15aba9398e019f0b49df1a4fde98ee17ae345cb5f6b5e2c27f5033e8ce76020604051868152a1845f52600960205260ff60405f205416612086575b50505050506001019190611e0c565b60405193630d4af11f60e31b855260048501526024840152604483015260648201526020816084815f865af19081156116ac57630d4af11f60e31b916001600160e01b0319915f916120f5575b5016036120e35780808080612077565b632187e5e760e21b5f5260045260245ffd5b61210d915060203d811161051b5761050d8183613acd565b876120d3565b825f52600a602052600160405f2001600160a01b60ff60a01b19825416179055611f6d565b506339c6dc7360e21b5f5260045260245ffd5b506322cad1af60e11b5f5260045260245ffd5b63216caf0d60e01b5f526004523360245260445ffd5b63fe19f19f60e01b5f5260045260245ffd5b8362b8e7e760e51b5f5260045260245ffd5b346116b75760203660031901126116b757600435805f52600a60205260ff600160405f20015460a81c1615611720575f52600b602052610c0d6121dd60405f20613eac565b6040519182916020835260208301906139f2565b346116b75760203660031901126116b75760043561220d61437a565b805f52600a60205260ff600160405f20015460a81c161561172057612231816141ac565b60058110156117a557600481036122555750634a5541ef60e01b5f5260045260245ffd5b60038103612270575063fe19f19f60e01b5f5260045260245ffd5b60021461232c57612295815f52600a6020526001600160a01b0360405f205416331490565b1561215e57805f52600a60205260ff60405f205460f01c161561231a576020817ff8e1a15aba9398e019f0b49df1a4fde98ee17ae345cb5f6b5e2c27f5033e8ce7925f52600a825260405f2060ff60f01b19815416905560405190807f0eb069207093cd3e51cd1370d2d369770057fbe29947e577e5fb428c6c6fc78f5f80a28152a1005b6339c6dc7360e21b5f5260045260245ffd5b6322cad1af60e11b5f5260045260245ffd5b346116b75760203660031901126116b7576004356001600160a01b0381168091036116b7576001600160a01b035f54163381036116bb575060085490806001600160a01b03198316176008556001600160a01b036040519216825260208201527fa2548bd4b805e907c1558a47b5858324fe8bb4a2e1ddfca647eecbf65610eebc60403392a26007545f1981019081116124055760407f6bd5c950a8d8df17f772f5af37cb3655737899cbf903264b9795592da439661c91815190600182526020820152a1005b634e487b7160e01b5f52601160045260245ffd5b346116b75760203660031901126116b757612432613947565b5f546001600160a01b0381163381036116bb57506001600160a01b036001600160a01b0319921691829116175f55337fbdd36143ee09de60bdefca70680e0f71189b2ed7acee364b53917ad433fdaf805f80a3005b346116b75760203660031901126116b7576001600160a01b036124a8613947565b1680156124c5575f526004602052602060405f2054604051908152f35b7f89c62b64000000000000000000000000000000000000000000000000000000005f525f60045260245ffd5b346116b75760203660031901126116b757602061250f600435614083565b6001600160a01b0360405191168152f35b346116b75760403660031901126116b757612539613947565b60243560038110156116b7576001600160a01b035f54163381036116bb575061259e60246020925f6001600160a01b0360405196879586947f1a33757d0000000000000000000000000000000000000000000000000000000086526004860190613a4e565b165af180156116ac576125ad57005b6116aa9060203d6020116125ce575b6125c68183613acd565b810190613da6565b503d6125bc565b346116b75760203660031901126116b757602460206001600160a01b036125fa613947565b16604051928380927fe12f3a610000000000000000000000000000000000000000000000000000000082523060048301525afa80156116ac575f90612645575b602090604051908152f35b506020813d602011612670575b8161265f60209383613acd565b810103126116b7576020905161263a565b3d9150612652565b346116b75760203660031901126116b757600435612694613e94565b50805f52600a60205260ff600160405f20015460a81c1615611720575f908152600a6020526040908190205481519064ffffffffff60c882901c81169160a01c166126de83613a78565b825260208201526113808251809264ffffffffff60208092828151168552015116910152565b346116b75760403660031901126116b75760043567ffffffffffffffff81116116b7576127359036906004016139c1565b9060243567ffffffffffffffff81116116b7576127569036906004016139c1565b91909261276161437a565b828103612ab2575f5b81811061277357005b61277e818385613e5c565b3561278a828486613e5c565b355f5260036020526001600160a01b0360405f205416906127b46127af84888a613e5c565b613e80565b916127bd61437a565b815f52600a60205260ff600160405f20015460a81c1615612aa057815f52600a60205260ff600160405f20015460a01c16612a8d578015612a7a576001600160801b038316908115612a6757825f5260036020526001600160a01b0360405f205416938482141580612a57575b612a3c576001600160801b0361283f85614bd2565b16808411612a22575061286490845f52600a602052600260405f20015460801c614bf8565b5f848152600a6020526040902060020180546001600160801b031660809290921b6001600160801b03191691909117815561289e90613f20565b6001600160801b036128c28160208401511692826040818351169201511690613b41565b1611156129f0575b825f52600a6020526001600160a01b03600160405f200154166128ee838383614d56565b81847f40b88e5c41c5a97ffb7b6ef88a0a2d505aa0c634cf8a0275cb236ea7dd87ed4d6020604051878152a47ff8e1a15aba9398e019f0b49df1a4fde98ee17ae345cb5f6b5e2c27f5033e8ce76020604051858152a183331415806129da575b61295f575b5050505060010161276a565b604051926392b9102b60e01b84526004840152336024840152604483015260648201526020816084815f865af19081156116ac576392b9102b60e01b916001600160e01b0319915f916129bc575b5016036120e357808080612953565b6129d4915060203d811161051b5761050d8183613acd565b896129ad565b50835f52600960205260ff60405f20541661294e565b5f838152600a6020526040902060018101805460ff60a01b1916600160a01b179055805460ff60f01b191690556128ca565b838563287ecaef60e21b5f5260045260245260445260645ffd5b508263b34359d360e01b5f526004523360245260445260645ffd5b50612a6184614aad565b1561282a565b8263d2aabcd960e01b5f5260045260245ffd5b50630ff7ee2d60e31b5f5260045260245ffd5b50634a5541ef60e01b5f5260045260245ffd5b5062b8e7e760e51b5f5260045260245ffd5b90507faec93440000000000000000000000000000000000000000000000000000000005f5260045260245260445ffd5b346116b75760203660031901126116b757600435805f52600a60205260ff600160405f20015460a81c161561172057610ad2602091614b1f565b346116b75760203660031901126116b757600435805f52600a60205260ff600160405f20015460a81c1615611720575f612b55826141ac565b60058110156117a557600203612b73575b6020906040519015158152f35b505f52600a602052602060ff60405f205460f01c16612b66565b346116b7575f3660031901126116b75760206001600160a01b0360085416604051908152f35b346116b75760203660031901126116b757600435612bcf61437a565b805f52600a60205260ff600160405f20015460a81c161561172057805f52600a60205260ff600160405f20015460a01c1615612d4c57612c0e81614aad565b1561215e57805f5260036020526001600160a01b0360405f205416151580612d45575b80612d28575b612d16577ff8e1a15aba9398e019f0b49df1a4fde98ee17ae345cb5f6b5e2c27f5033e8ce76020604051838152a1805f5260036020526001600160a01b0360405f2054168015908115612cdf575b825f52600360205260405f206001600160a01b03198154169055825f827fddf252ad1be2c89b69c2b068fc378daa952ba7f163c4a11628f55a4df523b3ef8280a450612ccd57005b637e27328960e01b5f5260045260245ffd5b612cfe835f52600560205260405f206001600160a01b03198154169055565b805f52600460205260405f205f198154019055612c85565b630da9b01360e01b5f5260045260245ffd5b50805f52600a60205260ff600160405f20015460b01c1615612c37565b505f612c31565b7f817cd639000000000000000000000000000000000000000000000000000000005f5260045260245ffd5b346116b7576116aa612d8836613987565b9060405192612d98602085613acd565b5f8452613f73565b346116b75760203660031901126116b757600435805f52600a60205260ff600160405f20015460a81c1615611720575f52600a602052602060ff600160405f20015460a01c166040519015158152f35b346116b75760203660031901126116b757600435612e0c61437a565b805f52600a60205260ff600160405f20015460a81c161561172057805f52600a60205260ff600160405f20015460a01c165f14612e5557634a5541ef60e01b5f5260045260245ffd5b805f52600a60205260405f205460f81c61217457612e87815f52600a6020526001600160a01b0360405f205416331490565b1561215e57612e95816140c5565b90805f52600a602052612ead600260405f2001613f20565b916001600160801b038351166001600160801b038216101561214b57815f52600a60205260ff60405f205460f01c161561213857806001600160801b03602081612f01948188511603169501511690613b41565b5f828152600a6020526040902080547dffffffffffffffffffffffffffffffffffffffffffffffffffffffffffff16600160f81b179055916001600160801b0383169081156130a3575b825f52600a602052600360405f20016001600160801b0382166001600160801b0319825416179055825f52600a6020526001600160a01b0360405f205416835f5260036020526001600160a01b0360405f20541694845f52600a60205285827f5edb27d6c1a327513b90a792050debf074b7194444885e3144d4decc5caaaa50612feb6001600160a01b03600160405f200154169461200d888588614d56565b0390a47ff8e1a15aba9398e019f0b49df1a4fde98ee17ae345cb5f6b5e2c27f5033e8ce76020604051868152a1845f52600960205260ff60405f20541661302e57005b60405193630d4af11f60e31b855260048501526024840152604483015260648201526020816084815f865af19081156116ac57630d4af11f60e31b916001600160e01b0319915f91613084575b5016036120e357005b61309d915060203d60201161051b5761050d8183613acd565b8461307b565b825f52600a602052600160405f2001600160a01b60ff60a01b19825416179055612f4b565b346116b75760203660031901126116b7576130e1613947565b6001600160a01b035f54169033820361322057806001600160a01b03913b156131f457166040516301ffc9a760e01b81527ff8ee98d3000000000000000000000000000000000000000000000000000000006004820152602081602481855afa9081156116ac575f916131c5575b501561319a57805f52600960205260405f20600160ff198254161790556040519081527fb4378d4e289cb3f40f4f75a99c9cafa76e3df1c4dc31309babc23dc91bd7280160203392a2005b7f7fb843ea000000000000000000000000000000000000000000000000000000005f5260045260245ffd5b6131e7915060203d6020116131ed575b6131df8183613acd565b810190613e44565b8261314f565b503d6131d5565b7f5a2b2d83000000000000000000000000000000000000000000000000000000005f521660045260245ffd5b506331b339a960e21b5f526004523360245260445ffd5b346116b75760203660031901126116b75760043567ffffffffffffffff81116116b75761014060031982360301126116b75761327161437a565b60405161327d81613a5b565b61328982600401613973565b815261329760248301613973565b60208201526132a860448301613b0b565b604082015260648201356001600160a01b03811681036116b75760608201526132d360848301613a41565b60808201526132e460a48301613a41565b60a08201526132f560c48301613db5565b60c082015260e482013567ffffffffffffffff81116116b757820191366023840112156116b75760048301359261332b84613dc7565b906133396040519283613acd565b848252602060048184019660061b83010101903682116116b757602401945b81861061337a5760206119d6866119cb878760e0840152610104369101613e15565b60206040916133893689613ddf565b815201950194613358565b346116b75760203660031901126116b7576001600160a01b036133b5613947565b165f526009602052602060ff60405f2054166040519015158152f35b346116b7575f3660031901126116b75760206040517f00000000000000000000000000000000000000000000000000000000000000008152f35b346116b75760603660031901126116b757613424613947565b6044356001600160a01b03811681036116b7576001600160a01b035f54163381036116bb576040517faad3ec960000000000000000000000000000000000000000000000000000000081526001600160a01b0383811660048301526024803590830152602090829060449082905f9089165af180156116ac575f9061264557602090604051908152f35b346116b7576116aa6134bf36613987565b91613b61565b346116b7575f3660031901126116b7576020600754604051908152f35b346116b75760203660031901126116b757600435805f52600a60205260ff600160405f20015460a81c16156117205761351a906141ac565b60058110156117a557806020911590811561353b575b506040519015158152f35b600191501482613530565b346116b75760203660031901126116b757600435805f52600a60205260ff600160405f20015460a81c1615611720576020905f90805f52600a835260ff60405f205460f01c16806135db575b6135a9575b506001600160801b0360405191168152f35b6135d59150805f52600a83526135cf6001600160801b03600260405f20015416916140c5565b90613b41565b82613597565b50805f52600a835260ff600160405f20015460a01c1615613592565b346116b75760403660031901126116b757613610613947565b60243561361c81614083565b331515806136e9575b806136b6575b61368a5781906001600160a01b0380851691167f8c5be1e5ebec7d5bd14f71427d1e84f3dd0314c0f7b2291e5b200ac8c7c3b9255f80a45f5260056020526001600160a01b0360405f2091166001600160a01b03198254161790555f80f35b7fa9fbf51f000000000000000000000000000000000000000000000000000000005f523360045260245ffd5b506001600160a01b0381165f52600660205260405f206001600160a01b0333165f5260205260ff60405f2054161561362b565b50336001600160a01b0382161415613625565b346116b75760203660031901126116b757602061250f600435613b1f565b346116b7575f3660031901126116b7576040515f6001548060011c90600181168015613804575b6020831081146137f0578285529081156137cc575060011461376e575b610c0d8361152181850382613acd565b91905060015f527fb10e2d527612073b26eecdfd717e6a320cf44b4afac2b0732d9fcbe2b7fa0cf6915f905b8082106137b25750909150810160200161152161375e565b91926001816020925483858801015201910190929161379a565b60ff191660208086019190915291151560051b84019091019150611521905061375e565b634e487b7160e01b5f52602260045260245ffd5b91607f1691613741565b346116b7575f3660031901126116b757602060405167016345785d8a00008152f35b346116b75760203660031901126116b757600435906001600160e01b031982168092036116b757817f49064906000000000000000000000000000000000000000000000000000000006020931490811561388c575b5015158152f35b7f80ac58cd000000000000000000000000000000000000000000000000000000008114915081156138d7575b81156138c6575b5083613885565b6301ffc9a760e01b915014836138bf565b7f5b5e139f00000000000000000000000000000000000000000000000000000000811491506138b8565b5f5b8381106139125750505f910152565b8181015183820152602001613903565b9060209161393b81518092818552858086019101613901565b601f01601f1916010190565b600435906001600160a01b03821682036116b757565b602435906001600160a01b03821682036116b757565b35906001600160a01b03821682036116b757565b60609060031901126116b7576004356001600160a01b03811681036116b757906024356001600160a01b03811681036116b7579060443590565b9181601f840112156116b75782359167ffffffffffffffff83116116b7576020808501948460051b0101116116b757565b90602080835192838152019201905f5b818110613a0f5750505090565b825180516001600160801b0316855260209081015164ffffffffff168186015260409094019390920191600101613a02565b359081151582036116b757565b9060038210156117a55752565b610120810190811067ffffffffffffffff821117611dbb57604052565b6040810190811067ffffffffffffffff821117611dbb57604052565b610180810190811067ffffffffffffffff821117611dbb57604052565b6060810190811067ffffffffffffffff821117611dbb57604052565b90601f8019910116810190811067ffffffffffffffff821117611dbb57604052565b67ffffffffffffffff8111611dbb57601f01601f191660200190565b35906001600160801b03821682036116b757565b613b2881614083565b505f5260056020526001600160a01b0360405f20541690565b906001600160801b03809116911603906001600160801b03821161240557565b91906001600160a01b03168015613d9357815f5260036020526001600160a01b0360405f205416151580613d8b575b80613d6e575b613d5b577ff8e1a15aba9398e019f0b49df1a4fde98ee17ae345cb5f6b5e2c27f5033e8ce76020604051848152a1815f5260036020526001600160a01b0360405f20541692823315159283613ca6575b6001600160a01b03935085613c6f575b805f52600460205260405f2060018154019055815f52600360205260405f20816001600160a01b0319825416179055857fddf252ad1be2c89b69c2b068fc378daa952ba7f163c4a11628f55a4df523b3ef5f80a416808303613c5757505050565b6364283d7b60e01b5f5260045260245260445260645ffd5b613c8e825f52600560205260405f206001600160a01b03198154169055565b855f52600460205260405f205f198154019055613bf6565b9192905080613d04575b15613cbd57828291613be6565b8284613cd557637e27328960e01b5f5260045260245ffd5b7f177e802f000000000000000000000000000000000000000000000000000000005f523360045260245260445ffd5b503384148015613d32575b80613cb05750825f526005602052336001600160a01b0360405f20541614613cb0565b50835f52600660205260405f206001600160a01b0333165f5260205260ff60405f205416613d0f565b50630da9b01360e01b5f5260045260245ffd5b50815f52600a60205260ff600160405f20015460b01c1615613b96565b506001613b90565b633250574960e11b5f525f60045260245ffd5b908160209103126116b7575190565b359064ffffffffff821682036116b757565b67ffffffffffffffff8111611dbb5760051b60200190565b91908260409103126116b757604051613df781613a78565b6020613e10818395613e0881613b0b565b855201613db5565b910152565b91908260409103126116b757604051613e2d81613a78565b6020808294613e3b81613973565b84520135910152565b908160209103126116b7575180151581036116b75790565b9190811015613e6c5760051b0190565b634e487b7160e01b5f52603260045260245ffd5b356001600160801b03811681036116b75790565b60405190613ea182613a78565b5f6020838281520152565b908154613eb881613dc7565b92613ec66040519485613acd565b81845260208401905f5260205f205f915b838310613ee45750505050565b600160208192604051613ef681613a78565b64ffffffffff86546001600160801b038116835260801c1683820152815201920192019190613ed7565b90604051613f2d81613ab1565b60406001600160801b03600183958054838116865260801c6020860152015416910152565b356001600160a01b03811681036116b75790565b3580151581036116b75790565b90613f7f838284613b61565b803b613f8c575b50505050565b602091613fd26001600160a01b03809316956040519586948594630a85bd0160e11b86523360048701521660248501526044840152608060648401526084830190613922565b03815f865af15f9181614042575b5061400e5750613fee614ba3565b805190816140095782633250574960e11b5f5260045260245ffd5b602001fd5b6001600160e01b0319630a85bd0160e11b91160361403057505f808080613f86565b633250574960e11b5f5260045260245ffd5b61405c91925060203d60201161051b5761050d8183613acd565b905f613fe0565b908160209103126116b757516001600160e01b0319811681036116b75790565b805f5260036020526001600160a01b0360405f205416908115612ccd575090565b805115613e6c5760200190565b8051821015613e6c5760209160051b010190565b9064ffffffffff421691805f52600b6020526140e360405f20613eac565b908364ffffffffff60206140f6856140a4565b51015116116141a557805f52600a6020528364ffffffffff60405f205460c81c16111561418657506001600160801b0361412f826140a4565b515116916001925b825184101561417f578464ffffffffff602061415387876140b1565b510151161161417f576001600160801b036001918161417287876140b1565b5151160116930192614137565b9350915050565b919250505f52600a6020526001600160801b03600260405f2001541690565b505f925050565b805f52600a60205260ff600160405f20015460a01c165f146141ce5750600490565b805f52600a60205260405f205460f81c61423a57805f52600a60205264ffffffffff60405f205460a01c16421061423557614208816140c5565b905f52600a6020526001600160801b0380600260405f200154169116105f1461423057600190565b600290565b505f90565b50600390565b90805f5260036020526001600160a01b0360405f205416151580614368575b8061434b575b612d16577ff8e1a15aba9398e019f0b49df1a4fde98ee17ae345cb5f6b5e2c27f5033e8ce76020604051838152a1805f5260036020526001600160a01b038060405f2054169283614314575b16806142fc575b815f52600360205260405f20816001600160a01b0319825416179055827fddf252ad1be2c89b69c2b068fc378daa952ba7f163c4a11628f55a4df523b3ef5f80a490565b805f52600460205260405f20600181540190556142b8565b614333835f52600560205260405f206001600160a01b03198154169055565b835f52600460205260405f205f1981540190556142b1565b50805f52600a60205260ff600160405f20015460b01c1615614265565b506001600160a01b038216151561425f565b6001600160a01b037f00000000000000000000000000000000000000000000000000000000000000001630036143ac57565b7fa1c0d6e5000000000000000000000000000000000000000000000000000000005f5260045ffd5b906143f66001600160801b036040840151166020610100850151015190614c18565b916001600160801b038351169060e08101519160c082019264ffffffffff8451168215614a85578015614a5d5781518015614a35577f00000000000000000000000000000000000000000000000000000000000000008111614a0a575064ffffffffff6020614464846140a4565b510151168110156149c657505f905f905f81515f905b80821061493e575050505064ffffffffff804216911690818110156149105750506001600160801b0316908181036148e257505060075493845f52600a60205260405f20916001600160801b038251166001600160801b036002850191166001600160801b03198254161790556001600160a01b03606082015116916001600160a01b036001850193166001600160a01b031984541617835560808201948551151560ff60f01b197eff00000000000000000000000000000000000000000000000000000000000087549260f01b169116178555835493750100000000000000000000000000000000000000000060a08501957fffffffffffffffffff0000ffffffffffffffffffffffffffffffffffffffffff76ff000000000000000000000000000000000000000000008851151560b01b169116171790556001600160a01b0380845116166001600160a01b03198654161785555184549060e0840151917fffff00000000000000000000ffffffffffffffffffffffffffffffffffffffff78ffffffffff00000000000000000000000000000000000000007dffffffffff0000000000000000000000000000000000000000000000000060206146468751975f198901906140b1565b51015160c81b169360a01b169116171785555f5b818110614830575050600187016007556001600160a01b036020830151168015613d9357614690886001600160a01b0392614240565b166148045786826146de6001600160a01b0360607ffeb1cb9ce021c8bd5fb1eb836e6284c68866fa32d1d844238de19955238f8076960151166001600160801b038551169030903390614cf5565b6001600160801b03602084015116806147d4575b506001600160a01b03815116946147c96147ab6001600160a01b03602085015116986001600160a01b036060860151169a511515935115156001600160a01b0361010060e088015193549764ffffffffff604051996147508b613a78565b818160a01c168b5260c81c1660208a015201515116946001600160801b0360206040519a8b9a8b5233828c01528281511660408c01520151166060890152608088015260a087015261014060c08701526101408601906139f2565b9260e085019064ffffffffff60208092828151168552015116910152565b6101208301520390a4565b6147fe906001600160a01b036060840151166001600160a01b036101008501515116903390614cf5565b5f6146f2565b7f73c6ac6e000000000000000000000000000000000000000000000000000000005f525f60045260245ffd5b885f52600b60205260405f209061484b8160e08701516140b1565b5182549268010000000000000000841015611dbb5760018401808255841015613e6c576001936020915f52815f2001916001600160801b0380825116166001600160801b031984541617835501517fffffffffffffffffffffff0000000000ffffffffffffffffffffffffffffffff74ffffffffff0000000000000000000000000000000083549260801b1691161790550161465a565b7f6375ff13000000000000000000000000000000000000000000000000000000005f5260045260245260445ffd5b7f210aec0e000000000000000000000000000000000000000000000000000000005f5260045260245260445ffd5b9193509193614962906001600160801b0361495985886140b1565b51511690614bf8565b9364ffffffffff80602061497686856140b1565b510151169416808511156149925750600184930190929161447a565b8490847fd97494c6000000000000000000000000000000000000000000000000000000005f5260045260245260445260645ffd5b64ffffffffff60206149d7846140a4565b51015116907ff1fb2cc5000000000000000000000000000000000000000000000000000000005f5260045260245260445ffd5b7f73627f74000000000000000000000000000000000000000000000000000000005f5260045260245ffd5b7f7ea4ccdf000000000000000000000000000000000000000000000000000000005f5260045ffd5b7fd572dbcb000000000000000000000000000000000000000000000000000000005f5260045ffd5b7f6095d3bc000000000000000000000000000000000000000000000000000000005f5260045ffd5b805f5260036020526001600160a01b0360405f20541690813314918215614af3575b508115614ada575090565b90506001600160a01b03614aee3392613b1f565b161490565b9091505f52600660205260405f206001600160a01b0333165f5260205260ff60405f205416905f614acf565b805f52600a602052614b36600260405f2001613f20565b90805f52600a60205260ff600160405f20015460a01c165f14614b645750602001516001600160801b031690565b90815f52600a60205260405f205460f81c614b865750614b83906140c5565b90565b614b8391506001600160801b036040818351169201511690613b41565b3d15614bcd573d90614bb482613aef565b91614bc26040519384613acd565b82523d5f602084013e565b606090565b614b8390614bdf81614b1f565b905f52600a602052600260405f20015460801c90613b41565b906001600160801b03809116911601906001600160801b03821161240557565b919091604051614c2781613a78565b5f81525f6020820152926001600160801b038216908115614cd85767016345785d8a00008111614ca157614c636001600160801b039183614e30565b1660208501918183521115614c8d576001600160801b039182614c8892511690613b41565b168252565b634e487b7160e01b5f52600160045260245ffd5b7f4fea5c1a000000000000000000000000000000000000000000000000000000005f5260045267016345785d8a000060245260445ffd5b5050509050604051614ce981613a78565b5f81525f602082015290565b9091926001600160a01b03614d549481604051957f23b872dd000000000000000000000000000000000000000000000000000000006020880152166024860152166044840152606483015260648252614d4f608483613acd565b614dab565b565b6040517fa9059cbb0000000000000000000000000000000000000000000000000000000060208201526001600160a01b03929092166024830152604480830193909352918152614d5491614d4f606483613acd565b5f806001600160a01b03614dd493169360208151910182865af1614dcd614ba3565b9083614ede565b8051908115159182614e15575b5050614dea5750565b7f5274afe7000000000000000000000000000000000000000000000000000000005f5260045260245ffd5b614e289250602080918301019101613e44565b155f80614de1565b9091905f1983820983820291828083109203918083039214614ecd57670de0b6b3a7640000821015614e9d577faccb18165bd6fe31ae1cf318dc5b51eee0e1ba569b88cd74c1773b91fac106699394670de0b6b3a7640000910990828211900360ee1b910360121c170290565b84907f5173648d000000000000000000000000000000000000000000000000000000005f5260045260245260445ffd5b5050670de0b6b3a764000090049150565b90614f1b5750805115614ef357805190602001fd5b7f1425ea42000000000000000000000000000000000000000000000000000000005f5260045ffd5b81511580614f61575b614f2c575090565b6001600160a01b03907f9996b315000000000000000000000000000000000000000000000000000000005f521660045260245ffd5b50803b15614f2456fea164736f6c634300081a000a",
    "linkReferences": {}
  },
  "methodIdentifiers": {
    "MAX_BROKER_FEE()": "027b6744",
    "MAX_TRANCHE_COUNT()": "2fe43041",
    "admin()": "f851a440",
    "allowToHook(address)": "406887cb",
    "approve(address,uint256)": "095ea7b3",
    "balanceOf(address)": "70a08231",
    "burn(uint256)": "42966c68",
    "cancel(uint256)": "40e58ee5",
    "cancelMultiple(uint256[])": "8659c270",
    "claimRebasingAssetYield(address,uint256,address)": "2c5a6fb8",
    "configureRebasingAsset(address,uint8)": "6900ebd0",
    "configureYieldAndGas(address,uint8,uint8,address)": "93273335",
    "createWithDurations((address,address,uint128,address,bool,bool,(uint128,uint40)[],(address,uint256)))": "897f362b",
    "createWithTimestamps((address,address,uint128,address,bool,bool,uint40,(uint128,uint40)[],(address,uint256)))": "32fbe22b",
    "getApproved(uint256)": "081812fc",
    "getAsset(uint256)": "eac8f5b8",
    "getClaimableRebasingAssetYield(address)": "63e55549",
    "getDepositedAmount(uint256)": "a80fc071",
    "getEndTime(uint256)": "9067b677",
    "getRebasingAssetConfiguration(address)": "a8ef018a",
    "getRecipient(uint256)": "6d0cee75",
    "getRefundedAmount(uint256)": "d4dbd20b",
    "getSender(uint256)": "b971302a",
    "getStartTime(uint256)": "bc2be1be",
    "getStream(uint256)": "894e9a0d",
    "getTimestamps(uint256)": "57404b12",
    "getTranches(uint256)": "7f5799f9",
    "getWithdrawnAmount(uint256)": "d511609f",
    "isAllowedToHook(address)": "303acc85",
    "isApprovedForAll(address,address)": "e985e9c5",
    "isCancelable(uint256)": "4857501f",
    "isCold(uint256)": "8f69b993",
    "isDepleted(uint256)": "425d30dd",
    "isStream(uint256)": "b8a3be66",
    "isTransferable(uint256)": "b2564569",
    "isWarm(uint256)": "1c1cdd4c",
    "name()": "06fdde03",
    "nextStreamId()": "1e99d569",
    "nftDescriptor()": "44267570",
    "ownerOf(uint256)": "6352211e",
    "refundableAmountOf(uint256)": "1400ecec",
    "renounce(uint256)": "7de6b1db",
    "safeTransferFrom(address,address,uint256)": "42842e0e",
    "safeTransferFrom(address,address,uint256,bytes)": "b88d4fde",
    "setApprovalForAll(address,bool)": "a22cb465",
    "setNFTDescriptor(address)": "7cad6cd1",
    "statusOf(uint256)": "ad35efd4",
    "streamedAmountOf(uint256)": "4869e12d",
    "supportsInterface(bytes4)": "01ffc9a7",
    "symbol()": "95d89b41",
    "tokenURI(uint256)": "c87b56dd",
    "transferAdmin(address)": "75829def",
    "transferFrom(address,address,uint256)": "23b872dd",
    "wasCanceled(uint256)": "f590c176",
    "withdraw(uint256,address,uint128)": "fdd46d60",
    "withdrawMax(uint256,address)": "ea5ead19",
    "withdrawMaxAndTransfer(uint256,address)": "c156a11d",
    "withdrawMultiple(uint256[],uint128[])": "4cc55e11",
    "withdrawableAmountOf(uint256)": "d975dfed"
  },
  "id": 86
}