{
  "abi": [
    {
      "type": "constructor",
      "inputs": [
        {
          "name": "initialAdmin",
          "type": "address",
          "internalType": "address"
        },
        {
          "name": "initialComptroller",
          "type": "address",
          "internalType": "contract ISablierV2Comptroller"
        },
        {
          "name": "initialNFTDescriptor",
          "type": "address",
          "internalType": "contract ISablierV2NFTDescriptor"
        }
      ],
      "stateMutability": "nonpayable"
    },
    {
      "type": "function",
      "name": "MAX_FEE",
      "inputs": [],
      "outputs": [
        {
          "name": "",
          "type": "uint256",
          "internalType": "UD60x18"
        }
      ],
      "stateMutability": "view"
    },
    {
      "type": "function",
      "name": "admin",
      "inputs": [],
      "outputs": [
        {
          "name": "",
          "type": "address",
          "internalType": "address"
        }
      ],
      "stateMutability": "view"
    },
    {
      "type": "function",
      "name": "approve",
      "inputs": [
        {
          "name": "to",
          "type": "address",
          "internalType": "address"
        },
        {
          "name": "tokenId",
          "type": "uint256",
          "internalType": "uint256"
        }
      ],
      "outputs": [],
      "stateMutability": "nonpayable"
    },
    {
      "type": "function",
      "name": "balanceOf",
      "inputs": [
        {
          "name": "owner",
          "type": "address",
          "internalType": "address"
        }
      ],
      "outputs": [
        {
          "name": "",
          "type": "uint256",
          "internalType": "uint256"
        }
      ],
      "stateMutability": "view"
    },
    {
      "type": "function",
      "name": "burn",
      "inputs": [
        {
          "name": "streamId",
          "type": "uint256",
          "internalType": "uint256"
        }
      ],
      "outputs": [],
      "stateMutability": "nonpayable"
    },
    {
      "type": "function",
      "name": "cancel",
      "inputs": [
        {
          "name": "streamId",
          "type": "uint256",
          "internalType": "uint256"
        }
      ],
      "outputs": [],
      "stateMutability": "nonpayable"
    },
    {
      "type": "function",
      "name": "cancelMultiple",
      "inputs": [
        {
          "name": "streamIds",
          "type": "uint256[]",
          "internalType": "uint256[]"
        }
      ],
      "outputs": [],
      "stateMutability": "nonpayable"
    },
    {
      "type": "function",
      "name": "claimProtocolRevenues",
      "inputs": [
        {
          "name": "asset",
          "type": "address",
          "internalType": "contract IERC20"
        }
      ],
      "outputs": [],
      "stateMutability": "nonpayable"
    },
    {
      "type": "function",
      "name": "claimRebasingAssetYield",
      "inputs": [
        {
          "name": "asset",
          "type": "address",
          "internalType": "contract IERC20Rebasing"
        },
        {
          "name": "amount",
          "type": "uint256",
          "internalType": "uint256"
        },
        {
          "name": "to",
          "type": "address",
          "internalType": "address"
        }
      ],
      "outputs": [
        {
          "name": "claimed",
          "type": "uint256",
          "internalType": "uint256"
        }
      ],
      "stateMutability": "nonpayable"
    },
    {
      "type": "function",
      "name": "comptroller",
      "inputs": [],
      "outputs": [
        {
          "name": "",
          "type": "address",
          "internalType": "contract ISablierV2Comptroller"
        }
      ],
      "stateMutability": "view"
    },
    {
      "type": "function",
      "name": "configureRebasingAsset",
      "inputs": [
        {
          "name": "asset",
          "type": "address",
          "internalType": "contract IERC20Rebasing"
        },
        {
          "name": "yieldMode",
          "type": "uint8",
          "internalType": "enum YieldMode"
        }
      ],
      "outputs": [],
      "stateMutability": "nonpayable"
    },
    {
      "type": "function",
      "name": "configureYieldAndGas",
      "inputs": [
        {
          "name": "blast",
          "type": "address",
          "internalType": "contract IBlast"
        },
        {
          "name": "yieldMode",
          "type": "uint8",
          "internalType": "enum YieldMode"
        },
        {
          "name": "gasMode",
          "type": "uint8",
          "internalType": "enum GasMode"
        },
        {
          "name": "governor",
          "type": "address",
          "internalType": "address"
        }
      ],
      "outputs": [],
      "stateMutability": "nonpayable"
    },
    {
      "type": "function",
      "name": "createWithDurations",
      "inputs": [
        {
          "name": "params",
          "type": "tuple",
          "internalType": "struct LockupLinear.CreateWithDurations",
          "components": [
            {
              "name": "sender",
              "type": "address",
              "internalType": "address"
            },
            {
              "name": "recipient",
              "type": "address",
              "internalType": "address"
            },
            {
              "name": "totalAmount",
              "type": "uint128",
              "internalType": "uint128"
            },
            {
              "name": "asset",
              "type": "address",
              "internalType": "contract IERC20"
            },
            {
              "name": "cancelable",
              "type": "bool",
              "internalType": "bool"
            },
            {
              "name": "transferable",
              "type": "bool",
              "internalType": "bool"
            },
            {
              "name": "durations",
              "type": "tuple",
              "internalType": "struct LockupLinear.Durations",
              "components": [
                {
                  "name": "cliff",
                  "type": "uint40",
                  "internalType": "uint40"
                },
                {
                  "name": "total",
                  "type": "uint40",
                  "internalType": "uint40"
                }
              ]
            },
            {
              "name": "broker",
              "type": "tuple",
              "internalType": "struct Broker",
              "components": [
                {
                  "name": "account",
                  "type": "address",
                  "internalType": "address"
                },
                {
                  "name": "fee",
                  "type": "uint256",
                  "internalType": "UD60x18"
                }
              ]
            }
          ]
        }
      ],
      "outputs": [
        {
          "name": "streamId",
          "type": "uint256",
          "internalType": "uint256"
        }
      ],
      "stateMutability": "nonpayable"
    },
    {
      "type": "function",
      "name": "createWithRange",
      "inputs": [
        {
          "name": "params",
          "type": "tuple",
          "internalType": "struct LockupLinear.CreateWithRange",
          "components": [
            {
              "name": "sender",
              "type": "address",
              "internalType": "address"
            },
            {
              "name": "recipient",
              "type": "address",
              "internalType": "address"
            },
            {
              "name": "totalAmount",
              "type": "uint128",
              "internalType": "uint128"
            },
            {
              "name": "asset",
              "type": "address",
              "internalType": "contract IERC20"
            },
            {
              "name": "cancelable",
              "type": "bool",
              "internalType": "bool"
            },
            {
              "name": "transferable",
              "type": "bool",
              "internalType": "bool"
            },
            {
              "name": "range",
              "type": "tuple",
              "internalType": "struct LockupLinear.Range",
              "components": [
                {
                  "name": "start",
                  "type": "uint40",
                  "internalType": "uint40"
                },
                {
                  "name": "cliff",
                  "type": "uint40",
                  "internalType": "uint40"
                },
                {
                  "name": "end",
                  "type": "uint40",
                  "internalType": "uint40"
                }
              ]
            },
            {
              "name": "broker",
              "type": "tuple",
              "internalType": "struct Broker",
              "components": [
                {
                  "name": "account",
                  "type": "address",
                  "internalType": "address"
                },
                {
                  "name": "fee",
                  "type": "uint256",
                  "internalType": "UD60x18"
                }
              ]
            }
          ]
        }
      ],
      "outputs": [
        {
          "name": "streamId",
          "type": "uint256",
          "internalType": "uint256"
        }
      ],
      "stateMutability": "nonpayable"
    },
    {
      "type": "function",
      "name": "getApproved",
      "inputs": [
        {
          "name": "tokenId",
          "type": "uint256",
          "internalType": "uint256"
        }
      ],
      "outputs": [
        {
          "name": "",
          "type": "address",
          "internalType": "address"
        }
      ],
      "stateMutability": "view"
    },
    {
      "type": "function",
      "name": "getAsset",
      "inputs": [
        {
          "name": "streamId",
          "type": "uint256",
          "internalType": "uint256"
        }
      ],
      "outputs": [
        {
          "name": "asset",
          "type": "address",
          "internalType": "contract IERC20"
        }
      ],
      "stateMutability": "view"
    },
    {
      "type": "function",
      "name": "getClaimableRebasingAssetYield",
      "inputs": [
        {
          "name": "asset",
          "type": "address",
          "internalType": "contract IERC20Rebasing"
        }
      ],
      "outputs": [
        {
          "name": "claimableYield",
          "type": "uint256",
          "internalType": "uint256"
        }
      ],
      "stateMutability": "view"
    },
    {
      "type": "function",
      "name": "getCliffTime",
      "inputs": [
        {
          "name": "streamId",
          "type": "uint256",
          "internalType": "uint256"
        }
      ],
      "outputs": [
        {
          "name": "cliffTime",
          "type": "uint40",
          "internalType": "uint40"
        }
      ],
      "stateMutability": "view"
    },
    {
      "type": "function",
      "name": "getDepositedAmount",
      "inputs": [
        {
          "name": "streamId",
          "type": "uint256",
          "internalType": "uint256"
        }
      ],
      "outputs": [
        {
          "name": "depositedAmount",
          "type": "uint128",
          "internalType": "uint128"
        }
      ],
      "stateMutability": "view"
    },
    {
      "type": "function",
      "name": "getEndTime",
      "inputs": [
        {
          "name": "streamId",
          "type": "uint256",
          "internalType": "uint256"
        }
      ],
      "outputs": [
        {
          "name": "endTime",
          "type": "uint40",
          "internalType": "uint40"
        }
      ],
      "stateMutability": "view"
    },
    {
      "type": "function",
      "name": "getRange",
      "inputs": [
        {
          "name": "streamId",
          "type": "uint256",
          "internalType": "uint256"
        }
      ],
      "outputs": [
        {
          "name": "range",
          "type": "tuple",
          "internalType": "struct LockupLinear.Range",
          "components": [
            {
              "name": "start",
              "type": "uint40",
              "internalType": "uint40"
            },
            {
              "name": "cliff",
              "type": "uint40",
              "internalType": "uint40"
            },
            {
              "name": "end",
              "type": "uint40",
              "internalType": "uint40"
            }
          ]
        }
      ],
      "stateMutability": "view"
    },
    {
      "type": "function",
      "name": "getRebasingAssetConfiguration",
      "inputs": [
        {
          "name": "asset",
          "type": "address",
          "internalType": "contract IERC20Rebasing"
        }
      ],
      "outputs": [
        {
          "name": "yieldMode",
          "type": "uint8",
          "internalType": "enum YieldMode"
        }
      ],
      "stateMutability": "view"
    },
    {
      "type": "function",
      "name": "getRecipient",
      "inputs": [
        {
          "name": "streamId",
          "type": "uint256",
          "internalType": "uint256"
        }
      ],
      "outputs": [
        {
          "name": "recipient",
          "type": "address",
          "internalType": "address"
        }
      ],
      "stateMutability": "view"
    },
    {
      "type": "function",
      "name": "getRefundedAmount",
      "inputs": [
        {
          "name": "streamId",
          "type": "uint256",
          "internalType": "uint256"
        }
      ],
      "outputs": [
        {
          "name": "refundedAmount",
          "type": "uint128",
          "internalType": "uint128"
        }
      ],
      "stateMutability": "view"
    },
    {
      "type": "function",
      "name": "getSender",
      "inputs": [
        {
          "name": "streamId",
          "type": "uint256",
          "internalType": "uint256"
        }
      ],
      "outputs": [
        {
          "name": "sender",
          "type": "address",
          "internalType": "address"
        }
      ],
      "stateMutability": "view"
    },
    {
      "type": "function",
      "name": "getStartTime",
      "inputs": [
        {
          "name": "streamId",
          "type": "uint256",
          "internalType": "uint256"
        }
      ],
      "outputs": [
        {
          "name": "startTime",
          "type": "uint40",
          "internalType": "uint40"
        }
      ],
      "stateMutability": "view"
    },
    {
      "type": "function",
      "name": "getStream",
      "inputs": [
        {
          "name": "streamId",
          "type": "uint256",
          "internalType": "uint256"
        }
      ],
      "outputs": [
        {
          "name": "stream",
          "type": "tuple",
          "internalType": "struct LockupLinear.Stream",
          "components": [
            {
              "name": "sender",
              "type": "address",
              "internalType": "address"
            },
            {
              "name": "startTime",
              "type": "uint40",
              "internalType": "uint40"
            },
            {
              "name": "cliffTime",
              "type": "uint40",
              "internalType": "uint40"
            },
            {
              "name": "isCancelable",
              "type": "bool",
              "internalType": "bool"
            },
            {
              "name": "wasCanceled",
              "type": "bool",
              "internalType": "bool"
            },
            {
              "name": "asset",
              "type": "address",
              "internalType": "contract IERC20"
            },
            {
              "name": "endTime",
              "type": "uint40",
              "internalType": "uint40"
            },
            {
              "name": "isDepleted",
              "type": "bool",
              "internalType": "bool"
            },
            {
              "name": "isStream",
              "type": "bool",
              "internalType": "bool"
            },
            {
              "name": "isTransferable",
              "type": "bool",
              "internalType": "bool"
            },
            {
              "name": "amounts",
              "type": "tuple",
              "internalType": "struct Lockup.Amounts",
              "components": [
                {
                  "name": "deposited",
                  "type": "uint128",
                  "internalType": "uint128"
                },
                {
                  "name": "withdrawn",
                  "type": "uint128",
                  "internalType": "uint128"
                },
                {
                  "name": "refunded",
                  "type": "uint128",
                  "internalType": "uint128"
                }
              ]
            }
          ]
        }
      ],
      "stateMutability": "view"
    },
    {
      "type": "function",
      "name": "getWithdrawnAmount",
      "inputs": [
        {
          "name": "streamId",
          "type": "uint256",
          "internalType": "uint256"
        }
      ],
      "outputs": [
        {
          "name": "withdrawnAmount",
          "type": "uint128",
          "internalType": "uint128"
        }
      ],
      "stateMutability": "view"
    },
    {
      "type": "function",
      "name": "isApprovedForAll",
      "inputs": [
        {
          "name": "owner",
          "type": "address",
          "internalType": "address"
        },
        {
          "name": "operator",
          "type": "address",
          "internalType": "address"
        }
      ],
      "outputs": [
        {
          "name": "",
          "type": "bool",
          "internalType": "bool"
        }
      ],
      "stateMutability": "view"
    },
    {
      "type": "function",
      "name": "isCancelable",
      "inputs": [
        {
          "name": "streamId",
          "type": "uint256",
          "internalType": "uint256"
        }
      ],
      "outputs": [
        {
          "name": "result",
          "type": "bool",
          "internalType": "bool"
        }
      ],
      "stateMutability": "view"
    },
    {
      "type": "function",
      "name": "isCold",
      "inputs": [
        {
          "name": "streamId",
          "type": "uint256",
          "internalType": "uint256"
        }
      ],
      "outputs": [
        {
          "name": "result",
          "type": "bool",
          "internalType": "bool"
        }
      ],
      "stateMutability": "view"
    },
    {
      "type": "function",
      "name": "isDepleted",
      "inputs": [
        {
          "name": "streamId",
          "type": "uint256",
          "internalType": "uint256"
        }
      ],
      "outputs": [
        {
          "name": "result",
          "type": "bool",
          "internalType": "bool"
        }
      ],
      "stateMutability": "view"
    },
    {
      "type": "function",
      "name": "isStream",
      "inputs": [
        {
          "name": "streamId",
          "type": "uint256",
          "internalType": "uint256"
        }
      ],
      "outputs": [
        {
          "name": "result",
          "type": "bool",
          "internalType": "bool"
        }
      ],
      "stateMutability": "view"
    },
    {
      "type": "function",
      "name": "isTransferable",
      "inputs": [
        {
          "name": "streamId",
          "type": "uint256",
          "internalType": "uint256"
        }
      ],
      "outputs": [
        {
          "name": "result",
          "type": "bool",
          "internalType": "bool"
        }
      ],
      "stateMutability": "view"
    },
    {
      "type": "function",
      "name": "isWarm",
      "inputs": [
        {
          "name": "streamId",
          "type": "uint256",
          "internalType": "uint256"
        }
      ],
      "outputs": [
        {
          "name": "result",
          "type": "bool",
          "internalType": "bool"
        }
      ],
      "stateMutability": "view"
    },
    {
      "type": "function",
      "name": "name",
      "inputs": [],
      "outputs": [
        {
          "name": "",
          "type": "string",
          "internalType": "string"
        }
      ],
      "stateMutability": "view"
    },
    {
      "type": "function",
      "name": "nextStreamId",
      "inputs": [],
      "outputs": [
        {
          "name": "",
          "type": "uint256",
          "internalType": "uint256"
        }
      ],
      "stateMutability": "view"
    },
    {
      "type": "function",
      "name": "ownerOf",
      "inputs": [
        {
          "name": "tokenId",
          "type": "uint256",
          "internalType": "uint256"
        }
      ],
      "outputs": [
        {
          "name": "",
          "type": "address",
          "internalType": "address"
        }
      ],
      "stateMutability": "view"
    },
    {
      "type": "function",
      "name": "protocolRevenues",
      "inputs": [
        {
          "name": "asset",
          "type": "address",
          "internalType": "contract IERC20"
        }
      ],
      "outputs": [
        {
          "name": "revenues",
          "type": "uint128",
          "internalType": "uint128"
        }
      ],
      "stateMutability": "view"
    },
    {
      "type": "function",
      "name": "refundableAmountOf",
      "inputs": [
        {
          "name": "streamId",
          "type": "uint256",
          "internalType": "uint256"
        }
      ],
      "outputs": [
        {
          "name": "refundableAmount",
          "type": "uint128",
          "internalType": "uint128"
        }
      ],
      "stateMutability": "view"
    },
    {
      "type": "function",
      "name": "renounce",
      "inputs": [
        {
          "name": "streamId",
          "type": "uint256",
          "internalType": "uint256"
        }
      ],
      "outputs": [],
      "stateMutability": "nonpayable"
    },
    {
      "type": "function",
      "name": "safeTransferFrom",
      "inputs": [
        {
          "name": "from",
          "type": "address",
          "internalType": "address"
        },
        {
          "name": "to",
          "type": "address",
          "internalType": "address"
        },
        {
          "name": "tokenId",
          "type": "uint256",
          "internalType": "uint256"
        }
      ],
      "outputs": [],
      "stateMutability": "nonpayable"
    },
    {
      "type": "function",
      "name": "safeTransferFrom",
      "inputs": [
        {
          "name": "from",
          "type": "address",
          "internalType": "address"
        },
        {
          "name": "to",
          "type": "address",
          "internalType": "address"
        },
        {
          "name": "tokenId",
          "type": "uint256",
          "internalType": "uint256"
        },
        {
          "name": "data",
          "type": "bytes",
          "internalType": "bytes"
        }
      ],
      "outputs": [],
      "stateMutability": "nonpayable"
    },
    {
      "type": "function",
      "name": "setApprovalForAll",
      "inputs": [
        {
          "name": "operator",
          "type": "address",
          "internalType": "address"
        },
        {
          "name": "approved",
          "type": "bool",
          "internalType": "bool"
        }
      ],
      "outputs": [],
      "stateMutability": "nonpayable"
    },
    {
      "type": "function",
      "name": "setComptroller",
      "inputs": [
        {
          "name": "newComptroller",
          "type": "address",
          "internalType": "contract ISablierV2Comptroller"
        }
      ],
      "outputs": [],
      "stateMutability": "nonpayable"
    },
    {
      "type": "function",
      "name": "setNFTDescriptor",
      "inputs": [
        {
          "name": "newNFTDescriptor",
          "type": "address",
          "internalType": "contract ISablierV2NFTDescriptor"
        }
      ],
      "outputs": [],
      "stateMutability": "nonpayable"
    },
    {
      "type": "function",
      "name": "statusOf",
      "inputs": [
        {
          "name": "streamId",
          "type": "uint256",
          "internalType": "uint256"
        }
      ],
      "outputs": [
        {
          "name": "status",
          "type": "uint8",
          "internalType": "enum Lockup.Status"
        }
      ],
      "stateMutability": "view"
    },
    {
      "type": "function",
      "name": "streamedAmountOf",
      "inputs": [
        {
          "name": "streamId",
          "type": "uint256",
          "internalType": "uint256"
        }
      ],
      "outputs": [
        {
          "name": "streamedAmount",
          "type": "uint128",
          "internalType": "uint128"
        }
      ],
      "stateMutability": "view"
    },
    {
      "type": "function",
      "name": "supportsInterface",
      "inputs": [
        {
          "name": "interfaceId",
          "type": "bytes4",
          "internalType": "bytes4"
        }
      ],
      "outputs": [
        {
          "name": "",
          "type": "bool",
          "internalType": "bool"
        }
      ],
      "stateMutability": "view"
    },
    {
      "type": "function",
      "name": "symbol",
      "inputs": [],
      "outputs": [
        {
          "name": "",
          "type": "string",
          "internalType": "string"
        }
      ],
      "stateMutability": "view"
    },
    {
      "type": "function",
      "name": "tokenURI",
      "inputs": [
        {
          "name": "streamId",
          "type": "uint256",
          "internalType": "uint256"
        }
      ],
      "outputs": [
        {
          "name": "uri",
          "type": "string",
          "internalType": "string"
        }
      ],
      "stateMutability": "view"
    },
    {
      "type": "function",
      "name": "transferAdmin",
      "inputs": [
        {
          "name": "newAdmin",
          "type": "address",
          "internalType": "address"
        }
      ],
      "outputs": [],
      "stateMutability": "nonpayable"
    },
    {
      "type": "function",
      "name": "transferFrom",
      "inputs": [
        {
          "name": "from",
          "type": "address",
          "internalType": "address"
        },
        {
          "name": "to",
          "type": "address",
          "internalType": "address"
        },
        {
          "name": "tokenId",
          "type": "uint256",
          "internalType": "uint256"
        }
      ],
      "outputs": [],
      "stateMutability": "nonpayable"
    },
    {
      "type": "function",
      "name": "wasCanceled",
      "inputs": [
        {
          "name": "streamId",
          "type": "uint256",
          "internalType": "uint256"
        }
      ],
      "outputs": [
        {
          "name": "result",
          "type": "bool",
          "internalType": "bool"
        }
      ],
      "stateMutability": "view"
    },
    {
      "type": "function",
      "name": "withdraw",
      "inputs": [
        {
          "name": "streamId",
          "type": "uint256",
          "internalType": "uint256"
        },
        {
          "name": "to",
          "type": "address",
          "internalType": "address"
        },
        {
          "name": "amount",
          "type": "uint128",
          "internalType": "uint128"
        }
      ],
      "outputs": [],
      "stateMutability": "nonpayable"
    },
    {
      "type": "function",
      "name": "withdrawMax",
      "inputs": [
        {
          "name": "streamId",
          "type": "uint256",
          "internalType": "uint256"
        },
        {
          "name": "to",
          "type": "address",
          "internalType": "address"
        }
      ],
      "outputs": [],
      "stateMutability": "nonpayable"
    },
    {
      "type": "function",
      "name": "withdrawMaxAndTransfer",
      "inputs": [
        {
          "name": "streamId",
          "type": "uint256",
          "internalType": "uint256"
        },
        {
          "name": "newRecipient",
          "type": "address",
          "internalType": "address"
        }
      ],
      "outputs": [],
      "stateMutability": "nonpayable"
    },
    {
      "type": "function",
      "name": "withdrawMultiple",
      "inputs": [
        {
          "name": "streamIds",
          "type": "uint256[]",
          "internalType": "uint256[]"
        },
        {
          "name": "to",
          "type": "address",
          "internalType": "address"
        },
        {
          "name": "amounts",
          "type": "uint128[]",
          "internalType": "uint128[]"
        }
      ],
      "outputs": [],
      "stateMutability": "nonpayable"
    },
    {
      "type": "function",
      "name": "withdrawableAmountOf",
      "inputs": [
        {
          "name": "streamId",
          "type": "uint256",
          "internalType": "uint256"
        }
      ],
      "outputs": [
        {
          "name": "withdrawableAmount",
          "type": "uint128",
          "internalType": "uint128"
        }
      ],
      "stateMutability": "view"
    },
    {
      "type": "event",
      "name": "Approval",
      "inputs": [
        {
          "name": "owner",
          "type": "address",
          "indexed": true,
          "internalType": "address"
        },
        {
          "name": "approved",
          "type": "address",
          "indexed": true,
          "internalType": "address"
        },
        {
          "name": "tokenId",
          "type": "uint256",
          "indexed": true,
          "internalType": "uint256"
        }
      ],
      "anonymous": false
    },
    {
      "type": "event",
      "name": "ApprovalForAll",
      "inputs": [
        {
          "name": "owner",
          "type": "address",
          "indexed": true,
          "internalType": "address"
        },
        {
          "name": "operator",
          "type": "address",
          "indexed": true,
          "internalType": "address"
        },
        {
          "name": "approved",
          "type": "bool",
          "indexed": false,
          "internalType": "bool"
        }
      ],
      "anonymous": false
    },
    {
      "type": "event",
      "name": "BatchMetadataUpdate",
      "inputs": [
        {
          "name": "_fromTokenId",
          "type": "uint256",
          "indexed": false,
          "internalType": "uint256"
        },
        {
          "name": "_toTokenId",
          "type": "uint256",
          "indexed": false,
          "internalType": "uint256"
        }
      ],
      "anonymous": false
    },
    {
      "type": "event",
      "name": "CancelLockupStream",
      "inputs": [
        {
          "name": "streamId",
          "type": "uint256",
          "indexed": false,
          "internalType": "uint256"
        },
        {
          "name": "sender",
          "type": "address",
          "indexed": true,
          "internalType": "address"
        },
        {
          "name": "recipient",
          "type": "address",
          "indexed": true,
          "internalType": "address"
        },
        {
          "name": "asset",
          "type": "address",
          "indexed": true,
          "internalType": "contract IERC20"
        },
        {
          "name": "senderAmount",
          "type": "uint128",
          "indexed": false,
          "internalType": "uint128"
        },
        {
          "name": "recipientAmount",
          "type": "uint128",
          "indexed": false,
          "internalType": "uint128"
        }
      ],
      "anonymous": false
    },
    {
      "type": "event",
      "name": "ClaimProtocolRevenues",
      "inputs": [
        {
          "name": "admin",
          "type": "address",
          "indexed": true,
          "internalType": "address"
        },
        {
          "name": "asset",
          "type": "address",
          "indexed": true,
          "internalType": "contract IERC20"
        },
        {
          "name": "protocolRevenues",
          "type": "uint128",
          "indexed": false,
          "internalType": "uint128"
        }
      ],
      "anonymous": false
    },
    {
      "type": "event",
      "name": "CreateLockupLinearStream",
      "inputs": [
        {
          "name": "streamId",
          "type": "uint256",
          "indexed": false,
          "internalType": "uint256"
        },
        {
          "name": "funder",
          "type": "address",
          "indexed": false,
          "internalType": "address"
        },
        {
          "name": "sender",
          "type": "address",
          "indexed": true,
          "internalType": "address"
        },
        {
          "name": "recipient",
          "type": "address",
          "indexed": true,
          "internalType": "address"
        },
        {
          "name": "amounts",
          "type": "tuple",
          "indexed": false,
          "internalType": "struct Lockup.CreateAmounts",
          "components": [
            {
              "name": "deposit",
              "type": "uint128",
              "internalType": "uint128"
            },
            {
              "name": "protocolFee",
              "type": "uint128",
              "internalType": "uint128"
            },
            {
              "name": "brokerFee",
              "type": "uint128",
              "internalType": "uint128"
            }
          ]
        },
        {
          "name": "asset",
          "type": "address",
          "indexed": true,
          "internalType": "contract IERC20"
        },
        {
          "name": "cancelable",
          "type": "bool",
          "indexed": false,
          "internalType": "bool"
        },
        {
          "name": "transferable",
          "type": "bool",
          "indexed": false,
          "internalType": "bool"
        },
        {
          "name": "range",
          "type": "tuple",
          "indexed": false,
          "internalType": "struct LockupLinear.Range",
          "components": [
            {
              "name": "start",
              "type": "uint40",
              "internalType": "uint40"
            },
            {
              "name": "cliff",
              "type": "uint40",
              "internalType": "uint40"
            },
            {
              "name": "end",
              "type": "uint40",
              "internalType": "uint40"
            }
          ]
        },
        {
          "name": "broker",
          "type": "address",
          "indexed": false,
          "internalType": "address"
        }
      ],
      "anonymous": false
    },
    {
      "type": "event",
      "name": "MetadataUpdate",
      "inputs": [
        {
          "name": "_tokenId",
          "type": "uint256",
          "indexed": false,
          "internalType": "uint256"
        }
      ],
      "anonymous": false
    },
    {
      "type": "event",
      "name": "RenounceLockupStream",
      "inputs": [
        {
          "name": "streamId",
          "type": "uint256",
          "indexed": true,
          "internalType": "uint256"
        }
      ],
      "anonymous": false
    },
    {
      "type": "event",
      "name": "SetComptroller",
      "inputs": [
        {
          "name": "admin",
          "type": "address",
          "indexed": true,
          "internalType": "address"
        },
        {
          "name": "oldComptroller",
          "type": "address",
          "indexed": false,
          "internalType": "contract ISablierV2Comptroller"
        },
        {
          "name": "newComptroller",
          "type": "address",
          "indexed": false,
          "internalType": "contract ISablierV2Comptroller"
        }
      ],
      "anonymous": false
    },
    {
      "type": "event",
      "name": "SetNFTDescriptor",
      "inputs": [
        {
          "name": "admin",
          "type": "address",
          "indexed": true,
          "internalType": "address"
        },
        {
          "name": "oldNFTDescriptor",
          "type": "address",
          "indexed": false,
          "internalType": "contract ISablierV2NFTDescriptor"
        },
        {
          "name": "newNFTDescriptor",
          "type": "address",
          "indexed": false,
          "internalType": "contract ISablierV2NFTDescriptor"
        }
      ],
      "anonymous": false
    },
    {
      "type": "event",
      "name": "Transfer",
      "inputs": [
        {
          "name": "from",
          "type": "address",
          "indexed": true,
          "internalType": "address"
        },
        {
          "name": "to",
          "type": "address",
          "indexed": true,
          "internalType": "address"
        },
        {
          "name": "tokenId",
          "type": "uint256",
          "indexed": true,
          "internalType": "uint256"
        }
      ],
      "anonymous": false
    },
    {
      "type": "event",
      "name": "TransferAdmin",
      "inputs": [
        {
          "name": "oldAdmin",
          "type": "address",
          "indexed": true,
          "internalType": "address"
        },
        {
          "name": "newAdmin",
          "type": "address",
          "indexed": true,
          "internalType": "address"
        }
      ],
      "anonymous": false
    },
    {
      "type": "event",
      "name": "WithdrawFromLockupStream",
      "inputs": [
        {
          "name": "streamId",
          "type": "uint256",
          "indexed": true,
          "internalType": "uint256"
        },
        {
          "name": "to",
          "type": "address",
          "indexed": true,
          "internalType": "address"
        },
        {
          "name": "asset",
          "type": "address",
          "indexed": true,
          "internalType": "contract IERC20"
        },
        {
          "name": "amount",
          "type": "uint128",
          "indexed": false,
          "internalType": "uint128"
        }
      ],
      "anonymous": false
    },
    {
      "type": "error",
      "name": "CallerNotAdmin",
      "inputs": [
        {
          "name": "admin",
          "type": "address",
          "internalType": "address"
        },
        {
          "name": "caller",
          "type": "address",
          "internalType": "address"
        }
      ]
    },
    {
      "type": "error",
      "name": "DelegateCall",
      "inputs": []
    },
    {
      "type": "error",
      "name": "PRBMath_MulDiv18_Overflow",
      "inputs": [
        {
          "name": "x",
          "type": "uint256",
          "internalType": "uint256"
        },
        {
          "name": "y",
          "type": "uint256",
          "internalType": "uint256"
        }
      ]
    },
    {
      "type": "error",
      "name": "PRBMath_MulDiv_Overflow",
      "inputs": [
        {
          "name": "x",
          "type": "uint256",
          "internalType": "uint256"
        },
        {
          "name": "y",
          "type": "uint256",
          "internalType": "uint256"
        },
        {
          "name": "denominator",
          "type": "uint256",
          "internalType": "uint256"
        }
      ]
    },
    {
      "type": "error",
      "name": "SablierV2Base_NoProtocolRevenues",
      "inputs": [
        {
          "name": "asset",
          "type": "address",
          "internalType": "contract IERC20"
        }
      ]
    },
    {
      "type": "error",
      "name": "SablierV2LockupLinear_CliffTimeNotLessThanEndTime",
      "inputs": [
        {
          "name": "cliffTime",
          "type": "uint40",
          "internalType": "uint40"
        },
        {
          "name": "endTime",
          "type": "uint40",
          "internalType": "uint40"
        }
      ]
    },
    {
      "type": "error",
      "name": "SablierV2LockupLinear_StartTimeGreaterThanCliffTime",
      "inputs": [
        {
          "name": "startTime",
          "type": "uint40",
          "internalType": "uint40"
        },
        {
          "name": "cliffTime",
          "type": "uint40",
          "internalType": "uint40"
        }
      ]
    },
    {
      "type": "error",
      "name": "SablierV2Lockup_BrokerFeeTooHigh",
      "inputs": [
        {
          "name": "brokerFee",
          "type": "uint256",
          "internalType": "UD60x18"
        },
        {
          "name": "maxFee",
          "type": "uint256",
          "internalType": "UD60x18"
        }
      ]
    },
    {
      "type": "error",
      "name": "SablierV2Lockup_DepositAmountZero",
      "inputs": []
    },
    {
      "type": "error",
      "name": "SablierV2Lockup_EndTimeNotInTheFuture",
      "inputs": [
        {
          "name": "currentTime",
          "type": "uint40",
          "internalType": "uint40"
        },
        {
          "name": "endTime",
          "type": "uint40",
          "internalType": "uint40"
        }
      ]
    },
    {
      "type": "error",
      "name": "SablierV2Lockup_InvalidSenderWithdrawal",
      "inputs": [
        {
          "name": "streamId",
          "type": "uint256",
          "internalType": "uint256"
        },
        {
          "name": "sender",
          "type": "address",
          "internalType": "address"
        },
        {
          "name": "to",
          "type": "address",
          "internalType": "address"
        }
      ]
    },
    {
      "type": "error",
      "name": "SablierV2Lockup_NotTransferable",
      "inputs": [
        {
          "name": "tokenId",
          "type": "uint256",
          "internalType": "uint256"
        }
      ]
    },
    {
      "type": "error",
      "name": "SablierV2Lockup_Null",
      "inputs": [
        {
          "name": "streamId",
          "type": "uint256",
          "internalType": "uint256"
        }
      ]
    },
    {
      "type": "error",
      "name": "SablierV2Lockup_Overdraw",
      "inputs": [
        {
          "name": "streamId",
          "type": "uint256",
          "internalType": "uint256"
        },
        {
          "name": "amount",
          "type": "uint128",
          "internalType": "uint128"
        },
        {
          "name": "withdrawableAmount",
          "type": "uint128",
          "internalType": "uint128"
        }
      ]
    },
    {
      "type": "error",
      "name": "SablierV2Lockup_ProtocolFeeTooHigh",
      "inputs": [
        {
          "name": "protocolFee",
          "type": "uint256",
          "internalType": "UD60x18"
        },
        {
          "name": "maxFee",
          "type": "uint256",
          "internalType": "UD60x18"
        }
      ]
    },
    {
      "type": "error",
      "name": "SablierV2Lockup_StreamCanceled",
      "inputs": [
        {
          "name": "streamId",
          "type": "uint256",
          "internalType": "uint256"
        }
      ]
    },
    {
      "type": "error",
      "name": "SablierV2Lockup_StreamDepleted",
      "inputs": [
        {
          "name": "streamId",
          "type": "uint256",
          "internalType": "uint256"
        }
      ]
    },
    {
      "type": "error",
      "name": "SablierV2Lockup_StreamNotCancelable",
      "inputs": [
        {
          "name": "streamId",
          "type": "uint256",
          "internalType": "uint256"
        }
      ]
    },
    {
      "type": "error",
      "name": "SablierV2Lockup_StreamNotDepleted",
      "inputs": [
        {
          "name": "streamId",
          "type": "uint256",
          "internalType": "uint256"
        }
      ]
    },
    {
      "type": "error",
      "name": "SablierV2Lockup_StreamSettled",
      "inputs": [
        {
          "name": "streamId",
          "type": "uint256",
          "internalType": "uint256"
        }
      ]
    },
    {
      "type": "error",
      "name": "SablierV2Lockup_Unauthorized",
      "inputs": [
        {
          "name": "streamId",
          "type": "uint256",
          "internalType": "uint256"
        },
        {
          "name": "caller",
          "type": "address",
          "internalType": "address"
        }
      ]
    },
    {
      "type": "error",
      "name": "SablierV2Lockup_WithdrawAmountZero",
      "inputs": [
        {
          "name": "streamId",
          "type": "uint256",
          "internalType": "uint256"
        }
      ]
    },
    {
      "type": "error",
      "name": "SablierV2Lockup_WithdrawArrayCountsNotEqual",
      "inputs": [
        {
          "name": "streamIdsCount",
          "type": "uint256",
          "internalType": "uint256"
        },
        {
          "name": "amountsCount",
          "type": "uint256",
          "internalType": "uint256"
        }
      ]
    },
    {
      "type": "error",
      "name": "SablierV2Lockup_WithdrawToZeroAddress",
      "inputs": []
    }
  ],
  "bytecode": {
    "object": "0x60a034620003e757601f196001600160401b03601f6200509a3881900382810185168601919084831187841017620003ec57808792606094604052833981010312620003e75783516001600160a01b03928382169291839003620003e7576020918287015196858816809803620003e75760400151948516809503620003e7576200008962000402565b90601c82527f5361626c696572205632204c6f636b7570204c696e656172204e46540000000084830152620000bd62000402565b601181527029a0a116ab1916a627a1a5aaa816a624a760791b8582015230608052600080546001600160a01b031990811688178255600180548216909b178b5596817fbdd36143ee09de60bdefca70680e0f71189b2ed7acee364b53917ad433fdaf808180a38351858111620003d35760039485548c81811c91168015620003c8575b89821014620003b45790818684931162000361575b508890868311600114620002f8578492620002ec575b505060001982871b1c1916908b1b1784555b8151948511620002d8576004958654998b8b811c9b168015620002cd575b828c1014620002ba57848b1162000271575b869798999a50819487116001146200020a57505093620001fe575b505082871b92600019911b1c19161790555b600a541617600a55600955604051614c77908162000423823960805181613b6c0152f35b015191503880620001c8565b8883528183208c9890969594939116915b8282106200025757505085116200023c575b50505050811b019055620001da565b01519060f884600019921b161c19169055388080806200022d565b8484015187558c989096019593840193908101906200021b565b87835281832085880160051c81019b838910620002af575b860160051c019a8c905b8c8110620002a3575050620001ad565b848155018c9062000293565b909b508b9062000289565b634e487b7160e01b835260228852602483fd5b9a607f169a6200019b565b634e487b7160e01b81526041600452602490fd5b0151905038806200016b565b908c8e9416918886528a862092865b8c82821062000341575050841162000328575b505050811b0184556200017d565b015160001983891b60f8161c191690553880806200031a565b91929395968291958786015181550195019301908f959493929162000307565b9091508684528884208680850160051c8201928b8610620003aa575b918f91869594930160051c01915b8281106200039b57505062000155565b8681558594508f91016200038b565b925081926200037d565b634e487b7160e01b84526022600452602484fd5b90607f169062000140565b634e487b7160e01b82526041600452602482fd5b600080fd5b634e487b7160e01b600052604160045260246000fd5b60408051919082016001600160401b03811183821017620003ec5760405256fe608080604052600436101561001357600080fd5b600090813560e01c90816301ffc9a7146131f25750806306fdde031461312e578063081812fc1461310f578063095ea7b314612f805780631400ecec14612ee05780631c1cdd4c14612e7b5780631e99d56914612e5d57806323b872dd14612e335780632c5a6fb814612d5a57806339a73c0314612d1957806340e58ee514612a7b578063425d30dd14612a5c57806342842e0e14612a0c57806342966c68146128825780634857501f146127f85780634869e12d146127bd5780635fe3b567146127965780636352211e1461276657806363e55549146126c95780636900ebd0146126175780636d0cee75146125c157806370a082311461251857806375829def14612485578063780a82c8146124355780637cad6cd1146123645780637de6b1db146121845780638659c27014611e63578063894e9a0d14611c0f5780638bad38dd14611b925780638f69b99314611af65780639067b67714611aa357806393273335146119a257806395d89b411461189357806396ce143114611779578063a22cb465146116a8578063a2ffb897146112bb578063a6202bf2146111be578063a80fc0711461116c578063a8ef018a146110ad578063ab167ccc14610f74578063ad35efd414610f12578063b256456914610ef3578063b88d4fde14610e69578063b8a3be6614610e34578063b971302a14610de5578063bc063e1a14610dc2578063bc2be1be14610d72578063c156a11d146109f8578063c87b56dd146108be578063cc364f4814610810578063d4dbd20b146107be578063d511609f14610772578063d975dfed14610726578063e985e9c5146106d1578063ea5ead19146106ab578063eac8f5b814610642578063f590c17614610619578063f851a440146105f35763fdd46d60146102aa57600080fd5b346105f05760603660031901126105f0576004356102c6613337565b6102ce61349a565b906102d7613b62565b6102e08361358d565b6105d85761030483600052600b6020526001600160a01b0360406000205416331490565b908115806105c8575b6105a957838552602092600584526001600160a01b039182604088205416938061059d575b6105775782811692831561054d576001600160801b038084169384156105355761035b8961453f565b8281168611610501575093809392610401926103c661038e8d9a99988d8c52600b8d52600260408d20015460801c614567565b8c8b52600b8c526103c1600260408d20019182906001600160801b036001600160801b031983549260801b169116179055565b613679565b906103e2818c84015116928260408183511692015116906134ed565b1611156104d1575b898852600b895260016040892001541692836144e3565b82877f40b88e5c41c5a97ffb7b6ef88a0a2d505aa0c634cf8a0275cb236ea7dd87ed4d88604051868152a482331415806104c7575b610469575b837ff8e1a15aba9398e019f0b49df1a4fde98ee17ae345cb5f6b5e2c27f5033e8ce78688604051908152a180f35b823b156104c357608484928360405195869485936313375c3b60e01b85528b6004860152336024860152604485015260648401525af16104ab575b808061043b565b6104b4906133d6565b6104bf5782386104a4565b8280fd5b8380fd5b50823b1515610436565b898852600b89526040882060018101600160c81b60ff60c81b1982541617905560ff60f01b1981541690556103ea565b60405163287ecaef60e21b8152600481018b90526001600160801b03928316602482015291166044820152606490fd5b0390fd5b6024896040519063d2aabcd960e01b82526004820152fd5b60046040517fc61a0e9e000000000000000000000000000000000000000000000000000000008152fd5b858360649260405192632dcbf6b960e11b84526004840152336024840152166044820152fd5b50838382161415610332565b60405163216caf0d60e01b815260048101859052336024820152604490fd5b506105d284613bbe565b1561030d565b60248360405190634a5541ef60e01b82526004820152fd5b80fd5b50346105f057806003193601126105f0576001600160a01b036020915416604051908152f35b50346105f05760203660031901126105f057602061063860043561377a565b6040519015158152f35b50346105f05760203660031901126105f057600435808252600b60205260ff600160408420015460d01c16156106945760016040836001600160a01b039360209552600b855220015416604051908152f35b6024906040519062b8e7e760e51b82526004820152fd5b50346105f05760403660031901126105f0576004356106c8613337565b6102ce8261453f565b50346105f05760403660031901126105f0576106eb61330b565b60406106f5613337565b926001600160a01b0380931681526008602052209116600052602052602060ff604060002054166040519015158152f35b50346105f05760203660031901126105f05760ff6001604060043593848152600b60205220015460d01c16156106945761076160209161453f565b6001600160801b0360405191168152f35b50346105f05760203660031901126105f057600435808252600b60205260ff600160408420015460d01c16156106945760408260029260209452600b845220015460801c604051908152f35b50346105f05760203660031901126105f057600435808252600b60205260ff600160408420015460d01c16156106945760036040836001600160801b039360209552600b855220015416604051908152f35b50346105f05760203660031901126105f05760043561082d61365a565b50808252600b60205260ff600160408420015460d01c1615610694578160409160609352600b60205220600181549164ffffffffff918291015460a01c16906040519261087984613424565b818160a01c16845260c81c16602083015260408201526108bc60405180926040908164ffffffffff91828151168552826020820151166020860152015116910152565bf35b50346105f0576020806003193601126109e8576004356108fc6108f78260005260056020526001600160a01b0360406000205416151590565b6135c4565b826001600160a01b03600a5416916044604051809481937fe9dc637500000000000000000000000000000000000000000000000000000000835230600484015260248301525afa9283156109ec57809361096b575b50506109676040519282849384528301906132e6565b0390f35b909192503d8082843e61097e818461345c565b82019183818403126109e85780519067ffffffffffffffff82116104bf570182601f820112156109e8578051916109b48361347e565b936109c2604051958661345c565b8385528584840101116105f05750906109e0918480850191016132c3565b903880610951565b5080fd5b604051903d90823e3d90fd5b50346105f05760403660031901126105f057600435610a15613337565b90610a1e613b62565b808352602091600b835260ff600160408620015460d01c1615610d5b57818452600583526001600160a01b0380604086205416908133036105a957610a628461453f565b906001600160801b0390818316918215938415610a89575b89610a868989896139c7565b80f35b610a91613b62565b610a9a8861358d565b610d4357610abe88600052600b6020526001600160a01b0360406000205416331490565b94851580610d33575b610d1457888b5260058a528360408c2054169580610d0a575b610ce657861561054d57610cce57610af78861453f565b8281168511610c9e575090610b57610b248b969594938a8852600b8c52600260408920015460801c614567565b898752600b8b526103c1600260408920019182906001600160801b036001600160801b031983549260801b169116179055565b90610b73818b84015116928260408183511692015116906134ed565b161115610c6e575b868452600b8852600160408520015416610b968286836144e3565b84877f40b88e5c41c5a97ffb7b6ef88a0a2d505aa0c634cf8a0275cb236ea7dd87ed4d8a604051868152a48133141580610c64575b610c09575b5050507ff8e1a15aba9398e019f0b49df1a4fde98ee17ae345cb5f6b5e2c27f5033e8ce7610a8694604051858152a13880808080610a7a565b813b156104bf5782916084839260405194859384926313375c3b60e01b84528b600485015233602485015289604485015260648401525af1610c4c575b80610bd0565b610c55906133d6565b610c60578438610c46565b8480fd5b50813b1515610bcb565b868452600b88526040842060018101600160c81b60ff60c81b1982541617905560ff60f01b198154169055610b7b565b60405163287ecaef60e21b8152600481018a90526001600160801b03928316602482015291166044820152606490fd5b6024886040519063d2aabcd960e01b82526004820152fd5b6064898860405191632dcbf6b960e11b835260048301523360248301526044820152fd5b5085871415610ae0565b60405163216caf0d60e01b8152600481018a9052336024820152604490fd5b50610d3d89613bbe565b15610ac7565b60248860405190634a5541ef60e01b82526004820152fd5b6024826040519062b8e7e760e51b82526004820152fd5b50346105f05760203660031901126105f057600435808252600b60205260ff600160408420015460d01c16156106945760408264ffffffffff9260209452600b8452205460a01c16604051908152f35b50346105f057806003193601126105f057602060405167016345785d8a00008152f35b50346105f05760203660031901126105f057600435808252600b60205260ff600160408420015460d01c1615610694576040826001600160a01b039260209452600b8452205416604051908152f35b50346105f05760203660031901126105f05760ff600160406020936004358152600b855220015460d01c166040519015158152f35b50346105f05760803660031901126105f057610e8361330b565b610e8b613337565b906064359067ffffffffffffffff82116104c357366023830112156104c35781600401359284610eba8561347e565b93610ec8604051958661345c565b85855236602487830101116109e85785610a86966024602093018388013785010152604435916136e4565b50346105f05760203660031901126105f05760206106386004356136ad565b50346105f05760203660031901126105f057600435808252600b60205260ff600160408420015460d01c161561069457610f4b90613861565b604051906005811015610f6057602092508152f35b602483634e487b7160e01b81526021600452fd5b50346105f0576101403660031901126105f057610f8f613b62565b610f9761365a565b9064ffffffffff80421680845260c43582811681036110a85781018216602085015260e4359081831682036110a85701166040830152606435916001600160a01b03918284168094036105f057506084358015158091036110a85760a435908115158092036110a857602435948486168096036110a857600435958587168097036110a857604435906001600160801b0382168092036110a8576040519761103e89613407565b8852602088015260408701526060860152608085015260a084015260c08301526040610103193601126110a8576040519161107883613440565b6101043591821682036110a857826110a09260209452610124358482015260e0820152613ca2565b604051908152f35b600080fd5b50346105f057602090816003193601126105f057602490826001600160a01b036110d561330b565b16604051938480927fc44b11f70000000000000000000000000000000000000000000000000000000082523060048301525afa91821561115f578192611125575b50506108bc60405180926133b3565b9091508281813d8311611158575b61113d818361345c565b810103126109e857519060038210156105f057503880611116565b503d611133565b50604051903d90823e3d90fd5b50346105f05760203660031901126105f057600435808252600b60205260ff600160408420015460d01c16156106945760026040836001600160801b039360209552600b855220015416604051908152f35b50346105f05760203660031901126105f0576111d861330b565b6001600160a01b0380835416338103611292575081169081835260026020526001600160801b036040842054169081156112615781611232918486526002602052604086206001600160801b0319815416905533906144e3565b6040519081527fca7a4a65a94ed2f37538814e00e1cd4c41a78261561e3f3794592f11409cf5af60203392a380f35b602483604051907f8410168c0000000000000000000000000000000000000000000000000000000082526004820152fd5b6040516331b339a960e21b81526001600160a01b03919091166004820152336024820152604490fd5b50346105f05760603660031901126105f05767ffffffffffffffff6004358181116104bf576112ee903690600401613382565b906112f7613337565b92604435908111610c6057611310903690600401613382565b61131b949194613b62565b8084036116715791926001600160a01b038216159290865b81811061133e578780f35b611349818388613634565b359061135681858a613634565b356001600160801b03811681036110a85761136f613b62565b6113788361358d565b6105d85761139c83600052600b6020526001600160a01b0360406000205416331490565b801580611661575b6105a957838b5260056020526001600160a01b0360408c205416908061164e575b611621578761054d576001600160801b03821615611609576113e68461453f565b6001600160801b0381166001600160801b038416116115d75750908a91848352600b8060205261145660026103c1611427868360408a20015460801c614567565b918988528460205260408820019182906001600160801b036001600160801b031983549260801b169116179055565b6001600160801b0361147a81602084015116928260408183511692015116906134ed565b1611156115a7575b8584526020526001600160a01b036001604085200154166114ad6001600160801b0384168a836144e3565b6040516001600160801b0384168152867f40b88e5c41c5a97ffb7b6ef88a0a2d505aa0c634cf8a0275cb236ea7dd87ed4d60206001600160a01b038d1693a4803314158061159d575b611531575b5050507ff8e1a15aba9398e019f0b49df1a4fde98ee17ae345cb5f6b5e2c27f5033e8ce76020600193604051908152a101611333565b803b156104bf576001600160a01b036084898580946001600160801b0360405197889687956313375c3b60e01b87528d60048801523360248801521660448601521660648401525af1611585575b806114fb565b61158e906133d6565b61159957883861157f565b8880fd5b50803b15156114f6565b858452806020526040842060018101600160c81b60ff60c81b1982541617905560ff60f01b198154169055611482565b60405163287ecaef60e21b8152600481018690526001600160801b038481166024830152919091166044820152606490fd5b6024846040519063d2aabcd960e01b82526004820152fd5b6064846001600160a01b038960405192632dcbf6b960e11b84526004840152336024840152166044820152fd5b50806001600160a01b03881614156113c5565b5061166b84613bbe565b156113a4565b83604491604051917faec9344000000000000000000000000000000000000000000000000000000000835260048301526024820152fd5b50346105f05760403660031901126105f0576116c261330b565b602435908115158092036110a8576001600160a01b0316908133146117355733835260086020526040832082600052602052604060002060ff1981541660ff83161790556040519081527f17307eab39ab6107e8899845ad3d59bd9653f200f220920489ca2b5937696c3160203392a380f35b606460405162461bcd60e51b815260206004820152601960248201527f4552433732313a20617070726f766520746f2063616c6c6572000000000000006044820152fd5b50346105f0576101603660031901126105f057611794613b62565b604051906117a182613407565b6117a961330b565b82526117b3613337565b60208301526117c061349a565b60408301526117cd613321565b606083015260843580151581036110a857608083015260a43580151581036110a85760a083015260603660c31901126105f0575060405161180d81613424565b64ffffffffff60c43581811681036110a857825260e43581811681036110a85760208301526101043590811681036110a857604082015260c08201526040610123193601126110a8576040519061186382613440565b61012435906001600160a01b03821682036110a857826110a09260209452610144358482015260e0820152613ca2565b50346105f057806003193601126105f05760405190806004549160018360011c9260018516948515611998575b602095868610811461198457858852879493929187908215611962575050600114611908575b50506118f49250038361345c565b6109676040519282849384528301906132e6565b90859250600482527f8a35acfbc15ff81a39ae7d344fd709f28e8600b4aa8c65c6b64bfe7fe36bd19b5b85831061194a5750506118f4935082010138806118e6565b80548389018501528794508693909201918101611932565b92509350506118f494915060ff191682840152151560051b82010138806118e6565b602483634e487b7160e01b81526022600452fd5b93607f16936118c0565b50346105f05760803660031901126105f057600435906001600160a01b03918281168091036109e8576024359260038410156104bf576044359160028310156104c3576119ed613321565b918085541695338703611a7c57859650823b15611a785785611a4393606493829660405198899788967fc8992e6100000000000000000000000000000000000000000000000000000000885260048801906133b3565b60248601521660448401525af18015611a6d57611a5d5750f35b611a66906133d6565b6105f05780f35b6040513d84823e3d90fd5b8580fd5b6040516331b339a960e21b81526001600160a01b0388166004820152336024820152604490fd5b50346105f05760203660031901126105f057600435808252600b60205260ff600160408420015460d01c161561069457600160408364ffffffffff9360209552600b855220015460a01c16604051908152f35b50346105f05760203660031901126105f057600435808252600b60205260ff600160408420015460d01c161561069457611b2f90613861565b9060058210159081611b705760028314918215611b84575b8215611b5b575b6020836040519015158152f35b909150611b7057506004602091143880611b4e565b80634e487b7160e01b602492526021600452fd5b506003831491506000611b47565b50346105f05760203660031901126105f0576004356001600160a01b03908181168091036104bf5781835416338103611292575060015491816001600160a01b03198416176001556040519216825260208201527fdcb09aef4bf01068924ccce937981cbe59d25ba08380cf941aaaea4e4bd3960d60403392a280f35b50346105f05760203660031901126105f057604051611c2d816133ea565b8181528160208201528160408201528160608201528160808201528160a08201528160c08201528160e08201528161010082015281610120820152610140611c7361365a565b9101526004358152600b60205260ff600160408320015460d01c1615611e4b576004358152600b60205260408120611d4c600260405192611cb3846133ea565b80546001600160a01b038116855264ffffffffff8160a01c16602086015264ffffffffff8160c81c16604086015260ff8160f01c161515606086015260f81c1515608085015260ff60018201546001600160a01b03811660a087015264ffffffffff8160a01c1660c0870152818160c81c16151560e0870152818160d01c16151561010087015260d81c16151561012085015201613679565b610140820152611d5d600435613861565b6005811015610f60579160026101a09314611e40575b506108bc610140604051926001600160a01b03815116845264ffffffffff602082015116602085015264ffffffffff60408201511660408501526060810151151560608501526080810151151560808501526001600160a01b0360a08201511660a085015264ffffffffff60c08201511660c085015260e0810151151560e0850152610100810151151561010085015261012081015115156101208501520151610140830190604090816001600160801b0391828151168552826020820151166020860152015116910152565b606082015238611d73565b602460405162b8e7e760e51b81526004356004820152fd5b50346105f057602090816003193601126105f05760043567ffffffffffffffff81116109e857611e9883913690600401613382565b9190611ea2613b62565b83925b808410611eb0578480f35b611ebf84828497959697613634565b3594611ec9613b62565b611ed28661358d565b15611eef5760248660405190634a5541ef60e01b82526004820152fd5b611ef88661377a565b61216c57611f1c86600052600b6020526001600160a01b0360406000205416331490565b1561214d57611f2a866137ab565b95808552600b90818752611f4360026040882001613679565b906001600160801b039283835116848b1610156121355781885280895260ff604089205460f01c161561211d57611f938a858b611f8960409a9b9c9d9e838951166134ed565b96015116906134ed565b92828a52818b52868a20908b8b7f5edb27d6c1a327513b90a792050debf074b7194444885e3144d4decc5caaaa50845497600160f81b7dffffffffffffffffffffffffffffffffffffffffffffffffffffffffffff8a1617865560038a8216968715612103575b01998516998a6001600160801b03198254161790556001600160a01b0380991698899360058652818e822054169889965260019d8e9120015416946120408b85886144e3565b604080518a81526001600160801b0392831660208201529290911690820152606090a47ff8e1a15aba9398e019f0b49df1a4fde98ee17ae345cb5f6b5e2c27f5033e8ce78b604051858152a1813b6120a4575b505050505001919093919293611ea5565b813b156120ff57899493919285809460849360405197889687956372eba20360e01b875260048701526024860152604485015260648401525af16120eb575b808080612093565b6120f4906133d6565b610c605784876120e3565b8980fd5b60018101600160c81b60ff60c81b19825416179055611ffa565b602482604051906339c6dc7360e21b82526004820152fd5b602482604051906322cad1af60e11b82526004820152fd5b60405163216caf0d60e01b815260048101879052336024820152604490fd5b6024866040519063fe19f19f60e01b82526004820152fd5b50346105f0576020806003193601126109e857600435906121a3613b62565b818352600b815260ff600160408520015460d01c1615610d5b576121c682613861565b600581101561235057600481036121ef5760248360405190634a5541ef60e01b82526004820152fd5b6003810361220f576024836040519063fe19f19f60e01b82526004820152fd5b6002146121355761223682600052600b6020526001600160a01b0360406000205416331490565b1561233157818352600b815260ff604084205460f01c161561211d57818352600b81526040832060ff60f01b19815416905582604051837f0eb069207093cd3e51cd1370d2d369770057fbe29947e577e5fb428c6c6fc78f8380a2600583526001600160a01b03604083205416803b6122d9575b5050507ff8e1a15aba9398e019f0b49df1a4fde98ee17ae345cb5f6b5e2c27f5033e8ce791604051908152a180f35b803b156104bf57816024818580947f341a0bd90000000000000000000000000000000000000000000000000000000083528960048401525af161231d575b806122aa565b612326906133d6565b6104bf578238612317565b60405163216caf0d60e01b815260048101839052336024820152604490fd5b602484634e487b7160e01b81526021600452fd5b50346105f05760203660031901126105f0576004356001600160a01b03908181168091036104bf57818354163381036112925750600a5491816001600160a01b0319841617600a556040519216825260208201527fa2548bd4b805e907c1558a47b5858324fe8bb4a2e1ddfca647eecbf65610eebc60403392a260095460001981019081116124215760407f6bd5c950a8d8df17f772f5af37cb3655737899cbf903264b9795592da439661c91815190600182526020820152a180f35b602482634e487b7160e01b81526011600452fd5b50346105f05760203660031901126105f057600435808252600b60205260ff600160408420015460d01c16156106945760408264ffffffffff9260209452600b8452205460c81c16604051908152f35b50346105f05760203660031901126105f05761249f61330b565b9080546001600160a01b03808216933385036124f1576001600160a01b03199394501691829116178255337fbdd36143ee09de60bdefca70680e0f71189b2ed7acee364b53917ad433fdaf808380a380f35b6040516331b339a960e21b81526001600160a01b0386166004820152336024820152604490fd5b50346105f05760203660031901126105f0576001600160a01b0361253a61330b565b168015612557578160409160209352600683522054604051908152f35b608460405162461bcd60e51b815260206004820152602960248201527f4552433732313a2061646472657373207a65726f206973206e6f74206120766160448201527f6c6964206f776e657200000000000000000000000000000000000000000000006064820152fd5b50346105f05760203660031901126105f0576001600160a01b0360406020926004356126066108f78260005260056020526001600160a01b0360406000205416151590565b815260058452205416604051908152f35b50346105f05760403660031901126105f05761263161330b565b60243560038110156104bf576001600160a01b038084541633810361129257506024602092856126909360405196879586947f1a33757d00000000000000000000000000000000000000000000000000000000865260048601906133b3565b165af18015611a6d576126a1575080f35b602090813d83116126c2575b6126b7818361345c565b810103126110a85780f35b503d6126ad565b50346105f057602090816003193601126105f0576024826001600160a01b036126f061330b565b16604051928380927fe12f3a610000000000000000000000000000000000000000000000000000000082523060048301525afa9182156109ec5791612739575b50604051908152f35b90508181813d831161275f575b612750818361345c565b810103126110a8575138612730565b503d612746565b50346105f05760203660031901126105f057602061278560043561360f565b6001600160a01b0360405191168152f35b50346105f057806003193601126105f05760206001600160a01b0360015416604051908152f35b50346105f05760203660031901126105f05760ff6001604060043593848152600b60205220015460d01c161561069457610761602091613c27565b50346105f05760203660031901126105f05760043590818152600b60205260ff600160408320015460d01c1615610d5b578061283383613861565b92600584101561286e57600260209403612854575b50506040519015158152f35b8152600b8352604090205460f01c60ff1690503880612848565b602482634e487b7160e01b81526021600452fd5b50346105f05760203660031901126105f05760043561289f613b62565b6128a88161358d565b156129db576128b681613bbe565b156129bb576128c48161360f565b6128cd826136ad565b1590816129b3575b816129a0575b506129885760208161290d7ff8e1a15aba9398e019f0b49df1a4fde98ee17ae345cb5f6b5e2c27f5033e8ce79361360f565b90808552600783526001600160a01b0360408620926001600160a01b03199384815416905516918286526006845260408620600019815401905581865260058452604086209081541690558085604051937fddf252ad1be2c89b69c2b068fc378daa952ba7f163c4a11628f55a4df523b3ef8280a48152a180f35b60249060405190630da9b01360e01b82526004820152fd5b6001600160a01b039150161515386128db565b8391506128d5565b60405163216caf0d60e01b81526004810191909152336024820152604490fd5b602490604051907f817cd6390000000000000000000000000000000000000000000000000000000082526004820152fd5b50346105f057612a1b3661334d565b60405191602083019383851067ffffffffffffffff861117612a4657610a86946040528584526136e4565b634e487b7160e01b600052604160045260246000fd5b50346105f05760203660031901126105f057602061063860043561358d565b50346105f0576020806003193601126109e85760043590612a9a613b62565b612aa38261358d565b15612ac05760248260405190634a5541ef60e01b82526004820152fd5b90612aca8161377a565b612d0157612aee81600052600b6020526001600160a01b0360406000205416331490565b156129bb57612afc816137ab565b818452600b8352612b1260026040862001613679565b926001600160801b0391828551168382161015612ce957838652600b825260ff604087205460f01c1615612cd15792827ff8e1a15aba9398e019f0b49df1a4fde98ee17ae345cb5f6b5e2c27f5033e8ce783612b878784604097612b7d8d9b612c329b8e51166134ed565b9b015116906134ed565b92848852600b825287868120947f5edb27d6c1a327513b90a792050debf074b7194444885e3144d4decc5caaaa50865491600160f81b7dffffffffffffffffffffffffffffffffffffffffffffffffffffffffffff84161788556003858216988915612cb7575b01948d169c858e6001600160801b0319819854161790556001600160a01b038094169b8c94600589526001818e892054169d8e98600b8c52200154169685886144e3565b604080518b81526001600160801b0392831660208201529290911690820152606090a4604051848152a1823b612c66578480f35b823b15610c6057608492859160405197889687956372eba20360e01b875260048701526024860152604485015260648401525af1612ca8575b81818080808480f35b612cb1906133d6565b38612c9f565b60018101600160c81b60ff60c81b19825416179055612bee565b602484604051906339c6dc7360e21b82526004820152fd5b602484604051906322cad1af60e11b82526004820152fd5b6024906040519063fe19f19f60e01b82526004820152fd5b50346105f05760203660031901126105f0576001600160801b0360406020926001600160a01b03612d4861330b565b16815260028452205416604051908152f35b50346105f05760603660031901126105f057612d7461330b565b6001600160a01b039060443582811681036104c3578284541633810361129257506040517faad3ec960000000000000000000000000000000000000000000000000000000081526001600160a01b03919091166004820152602480359082015291602091839160449183918791165af1908115611a6d578291612dfd575b602082604051908152f35b90506020813d602011612e2b575b81612e186020938361345c565b810103126109e857602091505138612df2565b3d9150612e0b565b50346105f057610a86612e453661334d565b91612e58612e5384336138e8565b61351c565b6139c7565b50346105f057806003193601126105f0576020600954604051908152f35b50346105f05760203660031901126105f057600435808252600b60205260ff600160408420015460d01c161561069457612eb490613861565b906005821015611b705760208215838115612ed5575b506040519015158152f35b600191501482612eca565b50346105f05760203660031901126105f05760043590818152600b60205260ff600160408320015460d01c1615610d5b57602091604082828152600b85522060ff815460f01c1680612f6e575b612f45575b50506001600160801b0360405191168152f35b612f6792506001600160801b036002612f6192015416916137ab565b906134ed565b3880612f32565b5060ff600182015460c81c1615612f2d565b50346105f05760403660031901126105f057612f9a61330b565b602435906001600160a01b038080612fb18561360f565b169216918083146130a557803314908115613084575b501561301a57828452600760205260408420826001600160a01b0319825416179055612ff28361360f565b167f8c5be1e5ebec7d5bd14f71427d1e84f3dd0314c0f7b2291e5b200ac8c7c3b9258480a480f35b608460405162461bcd60e51b815260206004820152603d60248201527f4552433732313a20617070726f76652063616c6c6572206973206e6f7420746f60448201527f6b656e206f776e6572206f7220617070726f76656420666f7220616c6c0000006064820152fd5b9050845260086020526040842033855260205260ff60408520541638612fc7565b608460405162461bcd60e51b815260206004820152602160248201527f4552433732313a20617070726f76616c20746f2063757272656e74206f776e6560448201527f72000000000000000000000000000000000000000000000000000000000000006064820152fd5b50346105f05760203660031901126105f05760206127856004356134b0565b50346105f057806003193601126105f05760405190806003549160018360011c92600185169485156131e8575b60209586861081146119845785885287949392918790821561196257505060011461318e5750506118f49250038361345c565b90859250600382527fc2575a0e9e593c00f959f8c92f12db2869c3395a3b0502d05e2516446f71f85b5b8583106131d05750506118f4935082010138806118e6565b805483890185015287945086939092019181016131b8565b93607f169361315b565b9050346109e85760203660031901126109e8576004357fffffffff0000000000000000000000000000000000000000000000000000000081168091036104bf57602092507f80ac58cd000000000000000000000000000000000000000000000000000000008114908115613299575b811561326f575b5015158152f35b7f01ffc9a70000000000000000000000000000000000000000000000000000000091501438613268565b7f5b5e139f0000000000000000000000000000000000000000000000000000000081149150613261565b60005b8381106132d65750506000910152565b81810151838201526020016132c6565b906020916132ff815180928185528580860191016132c3565b601f01601f1916010190565b600435906001600160a01b03821682036110a857565b606435906001600160a01b03821682036110a857565b602435906001600160a01b03821682036110a857565b60609060031901126110a8576001600160a01b039060043582811681036110a8579160243590811681036110a8579060443590565b9181601f840112156110a85782359167ffffffffffffffff83116110a8576020808501948460051b0101116110a857565b9060038210156133c05752565b634e487b7160e01b600052602160045260246000fd5b67ffffffffffffffff8111612a4657604052565b610160810190811067ffffffffffffffff821117612a4657604052565b610100810190811067ffffffffffffffff821117612a4657604052565b6060810190811067ffffffffffffffff821117612a4657604052565b6040810190811067ffffffffffffffff821117612a4657604052565b90601f8019910116810190811067ffffffffffffffff821117612a4657604052565b67ffffffffffffffff8111612a4657601f01601f191660200190565b604435906001600160801b03821682036110a857565b6134d36108f78260005260056020526001600160a01b0360406000205416151590565b60005260076020526001600160a01b036040600020541690565b6001600160801b03918216908216039190821161350657565b634e487b7160e01b600052601160045260246000fd5b1561352357565b608460405162461bcd60e51b815260206004820152602d60248201527f4552433732313a2063616c6c6572206973206e6f7420746f6b656e206f776e6560448201527f72206f7220617070726f766564000000000000000000000000000000000000006064820152fd5b80600052600b60205260ff60016040600020015460d01c161561069457600052600b60205260ff60016040600020015460c81c1690565b156135cb57565b606460405162461bcd60e51b815260206004820152601860248201527f4552433732313a20696e76616c696420746f6b656e20494400000000000000006044820152fd5b60005260056020526001600160a01b03604060002054166136318115156135c4565b90565b91908110156136445760051b0190565b634e487b7160e01b600052603260045260246000fd5b6040519061366782613424565b60006040838281528260208201520152565b9060405161368681613424565b6040819360018154916001600160801b0392838116865260801c6020860152015416910152565b80600052600b60205260ff60016040600020015460d01c161561069457600052600b60205260ff60016040600020015460d81c1690565b906137089392916136f8612e5384336138e8565b6137038383836139c7565b6148b0565b1561370f57565b60405162461bcd60e51b815260206004820152603260248201527f4552433732313a207472616e7366657220746f206e6f6e20455243373231526560448201527f63656976657220696d706c656d656e74657200000000000000000000000000006064820152608490fd5b80600052600b60205260ff60016040600020015460d01c161561069457600052600b60205260406000205460f81c90565b600090808252600b6020526040822091825464ffffffffff42818360c81c16116138595780600186015460a01c169182421015613843576137f89394955060a01c16809103904203614a43565b90828152600b6020526001600160801b039261381e846002604085200154168094614b23565b92831161382b5750501690565b60029350604092508152600b60205220015460801c90565b505050505060026001600160801b039101541690565b505091505090565b80600052600b602052604060002060ff600182015460c81c16600014613888575050600490565b805460f81c6138e1575460a01c64ffffffffff1642106138db576138ab816137ab565b90600052600b6020526001600160801b0380600260406000200154169116106000146138d657600190565b600290565b50600090565b5050600390565b906001600160a01b0380806138fc8461360f565b1693169183831493841561392f575b508315613919575b50505090565b613925919293506134b0565b1614388080613913565b909350600052600860205260406000208260005260205260ff60406000205416923861390b565b1561395d57565b608460405162461bcd60e51b815260206004820152602560248201527f4552433732313a207472616e736665722066726f6d20696e636f72726563742060448201527f6f776e65720000000000000000000000000000000000000000000000000000006064820152fd5b906139f092916139d68361360f565b916001600160a01b03948593848094169687911614613956565b1690811580613af957613a02846136ad565b159081613af0575b5080613ae7575b613acf5791808492613a517ff8e1a15aba9398e019f0b49df1a4fde98ee17ae345cb5f6b5e2c27f5033e8ce796602096613a4a8561360f565b1614613956565b60009382855260078652604085206001600160a01b031990818154169055818652600687526040862060001981540190558286526040862060018154019055838652600587528260408720918254161790557fddf252ad1be2c89b69c2b068fc378daa952ba7f163c4a11628f55a4df523b3ef6040519580a48152a1565b60248360405190630da9b01360e01b82526004820152fd5b50831515613a11565b90501538613a0a565b608460405162461bcd60e51b8152602060048201526024808201527f4552433732313a207472616e7366657220746f20746865207a65726f2061646460448201527f72657373000000000000000000000000000000000000000000000000000000006064820152fd5b6001600160a01b037f0000000000000000000000000000000000000000000000000000000000000000163003613b9457565b60046040517fa1c0d6e5000000000000000000000000000000000000000000000000000000008152fd5b60009080825260056020526001600160a01b038060408420541692833314938415613c03575b50508215613bf157505090565b909150613bfe33926134b0565b161490565b60ff9294509060409181526008602052818120338252602052205416913880613be4565b80600052600b602052613c406002604060002001613679565b81600052600b602052604060002060ff600182015460c81c16600014613c7357506001600160801b039150602001511690565b5460f81c613c855750613631906137ab565b61363191506001600160801b0360408183511692015116906134ed565b906001600160a01b036001541660206001600160a01b036060850151166024604051809481937fdcf844a700000000000000000000000000000000000000000000000000000000835260048301525afa80156144d7576000906144a3575b613d2391506001600160801b0360408501511690602060e0860151015191614582565b916001600160801b0383511660c082015190156144795764ffffffffff815116602082019064ffffffffff8251169081811161443957505064ffffffffff604091511691019064ffffffffff82511690818110156143f957505064ffffffffff80421691511690818110156143b9575050600954926001600160801b0381511660405190613db082613424565b815260006020820152600060408201526001600160a01b036060840151169060c08401519164ffffffffff6020840151169064ffffffffff604085015116906080870151151560a088015115159364ffffffffff6001600160a01b038a511697511660405197613e1f896133ea565b88526020880152604087015260608601526000608086015260a085015260c0840152600060e0840152600161010084015261012083015261014082015284600052600b60205260406000206001600160a01b038251166001600160a01b0319825416178155613eb664ffffffffff602084015116829064ffffffffff60a01b1964ffffffffff60a01b83549260a01b169116179055565b604082015181547eff0000000000000000000000000000000000000000000000000000000000006060850151151560f01b169078ffffffffffffffffffffffffffffffffffffffffffffffffff7dffffffffff000000000000000000000000000000000000000000000000007fff000000000000000000000000000000000000000000000000000000000000006080880151151560f81b169460c81b1691161717178155600181016001600160a01b0360a0840151166001600160a01b0319825416178155613fad64ffffffffff60c085015116829064ffffffffff60a01b1964ffffffffff60a01b83549260a01b169116179055565b60e083015181546101008501516101208601517fffffffff000000ffffffffffffffffffffffffffffffffffffffffffffffffff90921692151560c81b79ff00000000000000000000000000000000000000000000000000169290921791151560d01b7aff0000000000000000000000000000000000000000000000000000169190911790151560d81b7bff00000000000000000000000000000000000000000000000000000016179055610140909101518051602082015160801b6001600160801b03199081166001600160801b03928316176002850155926040906003019201511682825416179055600185016009556001600160a01b0360608401511660005260026020526001600160801b0380604060002054168160208501511601166001600160a01b036060850151166000526040600020918254161790556001600160a01b036020830151168015614375576141286141228660005260056020526001600160a01b0360406000205416151590565b156146c1565b614131856136ad565b158061436c575b80614364575b61434c5760207ff8e1a15aba9398e019f0b49df1a4fde98ee17ae345cb5f6b5e2c27f5033e8ce7916141896141228860005260056020526001600160a01b0360406000205416151590565b806000526006825260406000206001815401905586600052600582526040600020816001600160a01b0319825416179055866040519160007fddf252ad1be2c89b69c2b068fc378daa952ba7f163c4a11628f55a4df523b3ef8180a4868152a16142196001600160a01b036060840151166001600160801b0380845116816020860151160116903090339061470c565b6001600160801b036040820151168061431d575b506001600160a01b038251167f075861cbceafeb777e8f15f357121b08f6f3adba387d599bb7b5278ca6192df5610160866001600160a01b03602087015116946143146001600160a01b03606089015116976080810151151560a08201511515906142de6001600160a01b0360e060c08601519501515116956040519788523360208901526040880190604090816001600160801b0391828151168552826020820151166020860152015116910152565b60a086015260c0850152805164ffffffffff90811660e08601526020820151811661010086015260409091015116610120840152565b610140820152a4565b614346906001600160a01b036060850151166001600160a01b0360e0860151511690339061470c565b3861422d565b60248560405190630da9b01360e01b82526004820152fd5b50600061413e565b50801515614138565b606460405162461bcd60e51b815260206004820152602060248201527f4552433732313a206d696e7420746f20746865207a65726f20616464726573736044820152fd5b6040517f210aec0e00000000000000000000000000000000000000000000000000000000815264ffffffffff918216600482015291166024820152604490fd5b6040517f9fee269100000000000000000000000000000000000000000000000000000000815264ffffffffff918216600482015291166024820152604490fd5b6040517f4c23297000000000000000000000000000000000000000000000000000000000815264ffffffffff918216600482015291166024820152604490fd5b60046040517f6095d3bc000000000000000000000000000000000000000000000000000000008152fd5b506020813d6020116144cf575b816144bd6020938361345c565b810103126110a857613d239051613d00565b3d91506144b0565b6040513d6000823e3d90fd5b6040517fa9059cbb0000000000000000000000000000000000000000000000000000000060208201526001600160a01b0392909216602483015260448083019390935291815261453d9161453860648361345c565b614777565b565b6136319061454c81613c27565b90600052600b60205260026040600020015460801c906134ed565b9190916001600160801b038080941691160191821161350657565b90929161458d61365a565b936001600160801b03928381169182156146995767016345785d8a00008082116146625780851161462b57506145d7856145c8819386614b23565b16946020890195865284614b23565b1691846145ee604089019480865282875116614567565b16101561461557614607849182614610955116906134ed565b915116906134ed565b168252565b634e487b7160e01b600052600160045260246000fd5b84604491604051917f4fea5c1a00000000000000000000000000000000000000000000000000000000835260048301526024820152fd5b60449250604051917f47152d6700000000000000000000000000000000000000000000000000000000835260048301526024820152fd5b505050505090506040516146ac81613424565b60008152600060208201526000604082015290565b156146c857565b606460405162461bcd60e51b815260206004820152601c60248201527f4552433732313a20746f6b656e20616c7265616479206d696e746564000000006044820152fd5b9290604051927f23b872dd0000000000000000000000000000000000000000000000000000000060208501526001600160a01b03809216602485015216604483015260648201526064815260a081019181831067ffffffffffffffff841117612a465761453d926040525b6001600160a01b0316906147d760405161479081613440565b6020938482527f5361666545524332303a206c6f772d6c6576656c2063616c6c206661696c6564858301526000808587829751910182855af16147d1614880565b91614bd2565b80519182159184831561485c575b5050509050156147f25750565b6084906040519062461bcd60e51b82526004820152602a60248201527f5361666545524332303a204552433230206f7065726174696f6e20646964206e60448201527f6f742073756363656564000000000000000000000000000000000000000000006064820152fd5b9193818094500103126109e8578201519081151582036105f05750803880846147e5565b3d156148ab573d906148918261347e565b9161489f604051938461345c565b82523d6000602084013e565b606090565b9290803b15614a3a5761491a916020916001600160a01b0394604051809581948293897f150b7a02000000000000000000000000000000000000000000000000000000009b8c865233600487015216602485015260448401526080606484015260848301906132e6565b03916000968791165af1908290826149d9575b50506149b35761493b614880565b805190816149ae5760405162461bcd60e51b815260206004820152603260248201527f4552433732313a207472616e7366657220746f206e6f6e20455243373231526560448201527f63656976657220696d706c656d656e74657200000000000000000000000000006064820152608490fd5b602001fd5b7fffffffff00000000000000000000000000000000000000000000000000000000161490565b909192506020813d602011614a32575b816149f66020938361345c565b810103126109e85751907fffffffff00000000000000000000000000000000000000000000000000000000821682036105f0575090388061492d565b3d91506149e9565b50505050600190565b670de0b6b3a7640000916000198383099280830292838086109503948086039514614aff5782851015614ac357908291096001821901821680920460028082600302188083028203028083028203028083028203028083028203028083028203028092029003029360018380600003040190848311900302920304170290565b82606492604051927f63a05778000000000000000000000000000000000000000000000000000000008452600484015260248301526044820152fd5b505080925015614b0d570490565b634e487b7160e01b600052601260045260246000fd5b90919060001983820983820291828083109203918083039214614bc157670de0b6b3a76400009081831015614b8a57947faccb18165bd6fe31ae1cf318dc5b51eee0e1ba569b88cd74c1773b91fac1066994950990828211900360ee1b910360121c170290565b60449086604051917f5173648d00000000000000000000000000000000000000000000000000000000835260048301526024820152fd5b5050670de0b6b3a764000090049150565b91929015614c335750815115614be6575090565b3b15614bef5790565b606460405162461bcd60e51b815260206004820152601d60248201527f416464726573733a2063616c6c20746f206e6f6e2d636f6e74726163740000006044820152fd5b825190915015614c465750805190602001fd5b6105319060405191829162461bcd60e51b83526020600484015260248301906132e656fea164736f6c6343000817000a",
    "linkReferences": {}
  },
  "methodIdentifiers": {
    "MAX_FEE()": "bc063e1a",
    "admin()": "f851a440",
    "approve(address,uint256)": "095ea7b3",
    "balanceOf(address)": "70a08231",
    "burn(uint256)": "42966c68",
    "cancel(uint256)": "40e58ee5",
    "cancelMultiple(uint256[])": "8659c270",
    "claimProtocolRevenues(address)": "a6202bf2",
    "claimRebasingAssetYield(address,uint256,address)": "2c5a6fb8",
    "comptroller()": "5fe3b567",
    "configureRebasingAsset(address,uint8)": "6900ebd0",
    "configureYieldAndGas(address,uint8,uint8,address)": "93273335",
    "createWithDurations((address,address,uint128,address,bool,bool,(uint40,uint40),(address,uint256)))": "ab167ccc",
    "createWithRange((address,address,uint128,address,bool,bool,(uint40,uint40,uint40),(address,uint256)))": "96ce1431",
    "getApproved(uint256)": "081812fc",
    "getAsset(uint256)": "eac8f5b8",
    "getClaimableRebasingAssetYield(address)": "63e55549",
    "getCliffTime(uint256)": "780a82c8",
    "getDepositedAmount(uint256)": "a80fc071",
    "getEndTime(uint256)": "9067b677",
    "getRange(uint256)": "cc364f48",
    "getRebasingAssetConfiguration(address)": "a8ef018a",
    "getRecipient(uint256)": "6d0cee75",
    "getRefundedAmount(uint256)": "d4dbd20b",
    "getSender(uint256)": "b971302a",
    "getStartTime(uint256)": "bc2be1be",
    "getStream(uint256)": "894e9a0d",
    "getWithdrawnAmount(uint256)": "d511609f",
    "isApprovedForAll(address,address)": "e985e9c5",
    "isCancelable(uint256)": "4857501f",
    "isCold(uint256)": "8f69b993",
    "isDepleted(uint256)": "425d30dd",
    "isStream(uint256)": "b8a3be66",
    "isTransferable(uint256)": "b2564569",
    "isWarm(uint256)": "1c1cdd4c",
    "name()": "06fdde03",
    "nextStreamId()": "1e99d569",
    "ownerOf(uint256)": "6352211e",
    "protocolRevenues(address)": "39a73c03",
    "refundableAmountOf(uint256)": "1400ecec",
    "renounce(uint256)": "7de6b1db",
    "safeTransferFrom(address,address,uint256)": "42842e0e",
    "safeTransferFrom(address,address,uint256,bytes)": "b88d4fde",
    "setApprovalForAll(address,bool)": "a22cb465",
    "setComptroller(address)": "8bad38dd",
    "setNFTDescriptor(address)": "7cad6cd1",
    "statusOf(uint256)": "ad35efd4",
    "streamedAmountOf(uint256)": "4869e12d",
    "supportsInterface(bytes4)": "01ffc9a7",
    "symbol()": "95d89b41",
    "tokenURI(uint256)": "c87b56dd",
    "transferAdmin(address)": "75829def",
    "transferFrom(address,address,uint256)": "23b872dd",
    "wasCanceled(uint256)": "f590c176",
    "withdraw(uint256,address,uint128)": "fdd46d60",
    "withdrawMax(uint256,address)": "ea5ead19",
    "withdrawMaxAndTransfer(uint256,address)": "c156a11d",
    "withdrawMultiple(uint256[],address,uint128[])": "a2ffb897",
    "withdrawableAmountOf(uint256)": "d975dfed"
  },
  "id": 80
}