{
  "abi": [
    {
      "inputs": [
        {
          "internalType": "address",
          "name": "initialAdmin",
          "type": "address"
        },
        {
          "internalType": "contract ISablierV2Comptroller",
          "name": "initialComptroller",
          "type": "address"
        },
        {
          "internalType": "contract ISablierV2NFTDescriptor",
          "name": "initialNFTDescriptor",
          "type": "address"
        }
      ],
      "stateMutability": "nonpayable",
      "type": "constructor"
    },
    {
      "inputs": [
        {
          "internalType": "address",
          "name": "admin",
          "type": "address"
        },
        {
          "internalType": "address",
          "name": "caller",
          "type": "address"
        }
      ],
      "name": "CallerNotAdmin",
      "type": "error"
    },
    {
      "inputs": [],
      "name": "DelegateCall",
      "type": "error"
    },
    {
      "inputs": [
        {
          "internalType": "uint256",
          "name": "x",
          "type": "uint256"
        },
        {
          "internalType": "uint256",
          "name": "y",
          "type": "uint256"
        }
      ],
      "name": "PRBMath_MulDiv18_Overflow",
      "type": "error"
    },
    {
      "inputs": [
        {
          "internalType": "uint256",
          "name": "x",
          "type": "uint256"
        },
        {
          "internalType": "uint256",
          "name": "y",
          "type": "uint256"
        },
        {
          "internalType": "uint256",
          "name": "denominator",
          "type": "uint256"
        }
      ],
      "name": "PRBMath_MulDiv_Overflow",
      "type": "error"
    },
    {
      "inputs": [
        {
          "internalType": "contract IERC20",
          "name": "asset",
          "type": "address"
        }
      ],
      "name": "SablierV2Base_NoProtocolRevenues",
      "type": "error"
    },
    {
      "inputs": [
        {
          "internalType": "uint40",
          "name": "cliffTime",
          "type": "uint40"
        },
        {
          "internalType": "uint40",
          "name": "endTime",
          "type": "uint40"
        }
      ],
      "name": "SablierV2LockupLinear_CliffTimeNotLessThanEndTime",
      "type": "error"
    },
    {
      "inputs": [
        {
          "internalType": "uint40",
          "name": "startTime",
          "type": "uint40"
        },
        {
          "internalType": "uint40",
          "name": "cliffTime",
          "type": "uint40"
        }
      ],
      "name": "SablierV2LockupLinear_StartTimeGreaterThanCliffTime",
      "type": "error"
    },
    {
      "inputs": [
        {
          "internalType": "UD60x18",
          "name": "brokerFee",
          "type": "uint256"
        },
        {
          "internalType": "UD60x18",
          "name": "maxFee",
          "type": "uint256"
        }
      ],
      "name": "SablierV2Lockup_BrokerFeeTooHigh",
      "type": "error"
    },
    {
      "inputs": [],
      "name": "SablierV2Lockup_DepositAmountZero",
      "type": "error"
    },
    {
      "inputs": [
        {
          "internalType": "uint40",
          "name": "currentTime",
          "type": "uint40"
        },
        {
          "internalType": "uint40",
          "name": "endTime",
          "type": "uint40"
        }
      ],
      "name": "SablierV2Lockup_EndTimeNotInTheFuture",
      "type": "error"
    },
    {
      "inputs": [
        {
          "internalType": "uint256",
          "name": "streamId",
          "type": "uint256"
        },
        {
          "internalType": "address",
          "name": "sender",
          "type": "address"
        },
        {
          "internalType": "address",
          "name": "to",
          "type": "address"
        }
      ],
      "name": "SablierV2Lockup_InvalidSenderWithdrawal",
      "type": "error"
    },
    {
      "inputs": [
        {
          "internalType": "uint256",
          "name": "streamId",
          "type": "uint256"
        }
      ],
      "name": "SablierV2Lockup_Null",
      "type": "error"
    },
    {
      "inputs": [
        {
          "internalType": "uint256",
          "name": "streamId",
          "type": "uint256"
        },
        {
          "internalType": "uint128",
          "name": "amount",
          "type": "uint128"
        },
        {
          "internalType": "uint128",
          "name": "withdrawableAmount",
          "type": "uint128"
        }
      ],
      "name": "SablierV2Lockup_Overdraw",
      "type": "error"
    },
    {
      "inputs": [
        {
          "internalType": "UD60x18",
          "name": "protocolFee",
          "type": "uint256"
        },
        {
          "internalType": "UD60x18",
          "name": "maxFee",
          "type": "uint256"
        }
      ],
      "name": "SablierV2Lockup_ProtocolFeeTooHigh",
      "type": "error"
    },
    {
      "inputs": [
        {
          "internalType": "uint256",
          "name": "streamId",
          "type": "uint256"
        }
      ],
      "name": "SablierV2Lockup_StreamCanceled",
      "type": "error"
    },
    {
      "inputs": [
        {
          "internalType": "uint256",
          "name": "streamId",
          "type": "uint256"
        }
      ],
      "name": "SablierV2Lockup_StreamDepleted",
      "type": "error"
    },
    {
      "inputs": [
        {
          "internalType": "uint256",
          "name": "streamId",
          "type": "uint256"
        }
      ],
      "name": "SablierV2Lockup_StreamNotCancelable",
      "type": "error"
    },
    {
      "inputs": [
        {
          "internalType": "uint256",
          "name": "streamId",
          "type": "uint256"
        }
      ],
      "name": "SablierV2Lockup_StreamNotDepleted",
      "type": "error"
    },
    {
      "inputs": [
        {
          "internalType": "uint256",
          "name": "streamId",
          "type": "uint256"
        }
      ],
      "name": "SablierV2Lockup_StreamSettled",
      "type": "error"
    },
    {
      "inputs": [
        {
          "internalType": "uint256",
          "name": "streamId",
          "type": "uint256"
        },
        {
          "internalType": "address",
          "name": "caller",
          "type": "address"
        }
      ],
      "name": "SablierV2Lockup_Unauthorized",
      "type": "error"
    },
    {
      "inputs": [
        {
          "internalType": "uint256",
          "name": "streamId",
          "type": "uint256"
        }
      ],
      "name": "SablierV2Lockup_WithdrawAmountZero",
      "type": "error"
    },
    {
      "inputs": [
        {
          "internalType": "uint256",
          "name": "streamIdsCount",
          "type": "uint256"
        },
        {
          "internalType": "uint256",
          "name": "amountsCount",
          "type": "uint256"
        }
      ],
      "name": "SablierV2Lockup_WithdrawArrayCountsNotEqual",
      "type": "error"
    },
    {
      "inputs": [],
      "name": "SablierV2Lockup_WithdrawToZeroAddress",
      "type": "error"
    },
    {
      "anonymous": false,
      "inputs": [
        {
          "indexed": true,
          "internalType": "address",
          "name": "owner",
          "type": "address"
        },
        {
          "indexed": true,
          "internalType": "address",
          "name": "approved",
          "type": "address"
        },
        {
          "indexed": true,
          "internalType": "uint256",
          "name": "tokenId",
          "type": "uint256"
        }
      ],
      "name": "Approval",
      "type": "event"
    },
    {
      "anonymous": false,
      "inputs": [
        {
          "indexed": true,
          "internalType": "address",
          "name": "owner",
          "type": "address"
        },
        {
          "indexed": true,
          "internalType": "address",
          "name": "operator",
          "type": "address"
        },
        {
          "indexed": false,
          "internalType": "bool",
          "name": "approved",
          "type": "bool"
        }
      ],
      "name": "ApprovalForAll",
      "type": "event"
    },
    {
      "anonymous": false,
      "inputs": [
        {
          "indexed": false,
          "internalType": "uint256",
          "name": "_fromTokenId",
          "type": "uint256"
        },
        {
          "indexed": false,
          "internalType": "uint256",
          "name": "_toTokenId",
          "type": "uint256"
        }
      ],
      "name": "BatchMetadataUpdate",
      "type": "event"
    },
    {
      "anonymous": false,
      "inputs": [
        {
          "indexed": true,
          "internalType": "uint256",
          "name": "streamId",
          "type": "uint256"
        },
        {
          "indexed": true,
          "internalType": "address",
          "name": "sender",
          "type": "address"
        },
        {
          "indexed": true,
          "internalType": "address",
          "name": "recipient",
          "type": "address"
        },
        {
          "indexed": false,
          "internalType": "uint128",
          "name": "senderAmount",
          "type": "uint128"
        },
        {
          "indexed": false,
          "internalType": "uint128",
          "name": "recipientAmount",
          "type": "uint128"
        }
      ],
      "name": "CancelLockupStream",
      "type": "event"
    },
    {
      "anonymous": false,
      "inputs": [
        {
          "indexed": true,
          "internalType": "address",
          "name": "admin",
          "type": "address"
        },
        {
          "indexed": true,
          "internalType": "contract IERC20",
          "name": "asset",
          "type": "address"
        },
        {
          "indexed": false,
          "internalType": "uint128",
          "name": "protocolRevenues",
          "type": "uint128"
        }
      ],
      "name": "ClaimProtocolRevenues",
      "type": "event"
    },
    {
      "anonymous": false,
      "inputs": [
        {
          "indexed": false,
          "internalType": "uint256",
          "name": "streamId",
          "type": "uint256"
        },
        {
          "indexed": false,
          "internalType": "address",
          "name": "funder",
          "type": "address"
        },
        {
          "indexed": true,
          "internalType": "address",
          "name": "sender",
          "type": "address"
        },
        {
          "indexed": true,
          "internalType": "address",
          "name": "recipient",
          "type": "address"
        },
        {
          "components": [
            {
              "internalType": "uint128",
              "name": "deposit",
              "type": "uint128"
            },
            {
              "internalType": "uint128",
              "name": "protocolFee",
              "type": "uint128"
            },
            {
              "internalType": "uint128",
              "name": "brokerFee",
              "type": "uint128"
            }
          ],
          "indexed": false,
          "internalType": "struct Lockup.CreateAmounts",
          "name": "amounts",
          "type": "tuple"
        },
        {
          "indexed": true,
          "internalType": "contract IERC20",
          "name": "asset",
          "type": "address"
        },
        {
          "indexed": false,
          "internalType": "bool",
          "name": "cancelable",
          "type": "bool"
        },
        {
          "components": [
            {
              "internalType": "uint40",
              "name": "start",
              "type": "uint40"
            },
            {
              "internalType": "uint40",
              "name": "cliff",
              "type": "uint40"
            },
            {
              "internalType": "uint40",
              "name": "end",
              "type": "uint40"
            }
          ],
          "indexed": false,
          "internalType": "struct LockupLinear.Range",
          "name": "range",
          "type": "tuple"
        },
        {
          "indexed": false,
          "internalType": "address",
          "name": "broker",
          "type": "address"
        }
      ],
      "name": "CreateLockupLinearStream",
      "type": "event"
    },
    {
      "anonymous": false,
      "inputs": [
        {
          "indexed": false,
          "internalType": "uint256",
          "name": "_tokenId",
          "type": "uint256"
        }
      ],
      "name": "MetadataUpdate",
      "type": "event"
    },
    {
      "anonymous": false,
      "inputs": [
        {
          "indexed": true,
          "internalType": "uint256",
          "name": "streamId",
          "type": "uint256"
        }
      ],
      "name": "RenounceLockupStream",
      "type": "event"
    },
    {
      "anonymous": false,
      "inputs": [
        {
          "indexed": true,
          "internalType": "address",
          "name": "admin",
          "type": "address"
        },
        {
          "indexed": false,
          "internalType": "contract ISablierV2Comptroller",
          "name": "oldComptroller",
          "type": "address"
        },
        {
          "indexed": false,
          "internalType": "contract ISablierV2Comptroller",
          "name": "newComptroller",
          "type": "address"
        }
      ],
      "name": "SetComptroller",
      "type": "event"
    },
    {
      "anonymous": false,
      "inputs": [
        {
          "indexed": true,
          "internalType": "address",
          "name": "admin",
          "type": "address"
        },
        {
          "indexed": false,
          "internalType": "contract ISablierV2NFTDescriptor",
          "name": "oldNFTDescriptor",
          "type": "address"
        },
        {
          "indexed": false,
          "internalType": "contract ISablierV2NFTDescriptor",
          "name": "newNFTDescriptor",
          "type": "address"
        }
      ],
      "name": "SetNFTDescriptor",
      "type": "event"
    },
    {
      "anonymous": false,
      "inputs": [
        {
          "indexed": true,
          "internalType": "address",
          "name": "from",
          "type": "address"
        },
        {
          "indexed": true,
          "internalType": "address",
          "name": "to",
          "type": "address"
        },
        {
          "indexed": true,
          "internalType": "uint256",
          "name": "tokenId",
          "type": "uint256"
        }
      ],
      "name": "Transfer",
      "type": "event"
    },
    {
      "anonymous": false,
      "inputs": [
        {
          "indexed": true,
          "internalType": "address",
          "name": "oldAdmin",
          "type": "address"
        },
        {
          "indexed": true,
          "internalType": "address",
          "name": "newAdmin",
          "type": "address"
        }
      ],
      "name": "TransferAdmin",
      "type": "event"
    },
    {
      "anonymous": false,
      "inputs": [
        {
          "indexed": true,
          "internalType": "uint256",
          "name": "streamId",
          "type": "uint256"
        },
        {
          "indexed": true,
          "internalType": "address",
          "name": "to",
          "type": "address"
        },
        {
          "indexed": false,
          "internalType": "uint128",
          "name": "amount",
          "type": "uint128"
        }
      ],
      "name": "WithdrawFromLockupStream",
      "type": "event"
    },
    {
      "inputs": [],
      "name": "MAX_FEE",
      "outputs": [
        {
          "internalType": "UD60x18",
          "name": "",
          "type": "uint256"
        }
      ],
      "stateMutability": "view",
      "type": "function"
    },
    {
      "inputs": [],
      "name": "admin",
      "outputs": [
        {
          "internalType": "address",
          "name": "",
          "type": "address"
        }
      ],
      "stateMutability": "view",
      "type": "function"
    },
    {
      "inputs": [
        {
          "internalType": "address",
          "name": "to",
          "type": "address"
        },
        {
          "internalType": "uint256",
          "name": "tokenId",
          "type": "uint256"
        }
      ],
      "name": "approve",
      "outputs": [],
      "stateMutability": "nonpayable",
      "type": "function"
    },
    {
      "inputs": [
        {
          "internalType": "address",
          "name": "owner",
          "type": "address"
        }
      ],
      "name": "balanceOf",
      "outputs": [
        {
          "internalType": "uint256",
          "name": "",
          "type": "uint256"
        }
      ],
      "stateMutability": "view",
      "type": "function"
    },
    {
      "inputs": [
        {
          "internalType": "uint256",
          "name": "streamId",
          "type": "uint256"
        }
      ],
      "name": "burn",
      "outputs": [],
      "stateMutability": "nonpayable",
      "type": "function"
    },
    {
      "inputs": [
        {
          "internalType": "uint256",
          "name": "streamId",
          "type": "uint256"
        }
      ],
      "name": "cancel",
      "outputs": [],
      "stateMutability": "nonpayable",
      "type": "function"
    },
    {
      "inputs": [
        {
          "internalType": "uint256[]",
          "name": "streamIds",
          "type": "uint256[]"
        }
      ],
      "name": "cancelMultiple",
      "outputs": [],
      "stateMutability": "nonpayable",
      "type": "function"
    },
    {
      "inputs": [
        {
          "internalType": "contract IERC20",
          "name": "asset",
          "type": "address"
        }
      ],
      "name": "claimProtocolRevenues",
      "outputs": [],
      "stateMutability": "nonpayable",
      "type": "function"
    },
    {
      "inputs": [],
      "name": "comptroller",
      "outputs": [
        {
          "internalType": "contract ISablierV2Comptroller",
          "name": "",
          "type": "address"
        }
      ],
      "stateMutability": "view",
      "type": "function"
    },
    {
      "inputs": [
        {
          "components": [
            {
              "internalType": "address",
              "name": "sender",
              "type": "address"
            },
            {
              "internalType": "address",
              "name": "recipient",
              "type": "address"
            },
            {
              "internalType": "uint128",
              "name": "totalAmount",
              "type": "uint128"
            },
            {
              "internalType": "contract IERC20",
              "name": "asset",
              "type": "address"
            },
            {
              "internalType": "bool",
              "name": "cancelable",
              "type": "bool"
            },
            {
              "components": [
                {
                  "internalType": "uint40",
                  "name": "cliff",
                  "type": "uint40"
                },
                {
                  "internalType": "uint40",
                  "name": "total",
                  "type": "uint40"
                }
              ],
              "internalType": "struct LockupLinear.Durations",
              "name": "durations",
              "type": "tuple"
            },
            {
              "components": [
                {
                  "internalType": "address",
                  "name": "account",
                  "type": "address"
                },
                {
                  "internalType": "UD60x18",
                  "name": "fee",
                  "type": "uint256"
                }
              ],
              "internalType": "struct Broker",
              "name": "broker",
              "type": "tuple"
            }
          ],
          "internalType": "struct LockupLinear.CreateWithDurations",
          "name": "params",
          "type": "tuple"
        }
      ],
      "name": "createWithDurations",
      "outputs": [
        {
          "internalType": "uint256",
          "name": "streamId",
          "type": "uint256"
        }
      ],
      "stateMutability": "nonpayable",
      "type": "function"
    },
    {
      "inputs": [
        {
          "components": [
            {
              "internalType": "address",
              "name": "sender",
              "type": "address"
            },
            {
              "internalType": "address",
              "name": "recipient",
              "type": "address"
            },
            {
              "internalType": "uint128",
              "name": "totalAmount",
              "type": "uint128"
            },
            {
              "internalType": "contract IERC20",
              "name": "asset",
              "type": "address"
            },
            {
              "internalType": "bool",
              "name": "cancelable",
              "type": "bool"
            },
            {
              "components": [
                {
                  "internalType": "uint40",
                  "name": "start",
                  "type": "uint40"
                },
                {
                  "internalType": "uint40",
                  "name": "cliff",
                  "type": "uint40"
                },
                {
                  "internalType": "uint40",
                  "name": "end",
                  "type": "uint40"
                }
              ],
              "internalType": "struct LockupLinear.Range",
              "name": "range",
              "type": "tuple"
            },
            {
              "components": [
                {
                  "internalType": "address",
                  "name": "account",
                  "type": "address"
                },
                {
                  "internalType": "UD60x18",
                  "name": "fee",
                  "type": "uint256"
                }
              ],
              "internalType": "struct Broker",
              "name": "broker",
              "type": "tuple"
            }
          ],
          "internalType": "struct LockupLinear.CreateWithRange",
          "name": "params",
          "type": "tuple"
        }
      ],
      "name": "createWithRange",
      "outputs": [
        {
          "internalType": "uint256",
          "name": "streamId",
          "type": "uint256"
        }
      ],
      "stateMutability": "nonpayable",
      "type": "function"
    },
    {
      "inputs": [
        {
          "internalType": "uint256",
          "name": "tokenId",
          "type": "uint256"
        }
      ],
      "name": "getApproved",
      "outputs": [
        {
          "internalType": "address",
          "name": "",
          "type": "address"
        }
      ],
      "stateMutability": "view",
      "type": "function"
    },
    {
      "inputs": [
        {
          "internalType": "uint256",
          "name": "streamId",
          "type": "uint256"
        }
      ],
      "name": "getAsset",
      "outputs": [
        {
          "internalType": "contract IERC20",
          "name": "asset",
          "type": "address"
        }
      ],
      "stateMutability": "view",
      "type": "function"
    },
    {
      "inputs": [
        {
          "internalType": "uint256",
          "name": "streamId",
          "type": "uint256"
        }
      ],
      "name": "getCliffTime",
      "outputs": [
        {
          "internalType": "uint40",
          "name": "cliffTime",
          "type": "uint40"
        }
      ],
      "stateMutability": "view",
      "type": "function"
    },
    {
      "inputs": [
        {
          "internalType": "uint256",
          "name": "streamId",
          "type": "uint256"
        }
      ],
      "name": "getDepositedAmount",
      "outputs": [
        {
          "internalType": "uint128",
          "name": "depositedAmount",
          "type": "uint128"
        }
      ],
      "stateMutability": "view",
      "type": "function"
    },
    {
      "inputs": [
        {
          "internalType": "uint256",
          "name": "streamId",
          "type": "uint256"
        }
      ],
      "name": "getEndTime",
      "outputs": [
        {
          "internalType": "uint40",
          "name": "endTime",
          "type": "uint40"
        }
      ],
      "stateMutability": "view",
      "type": "function"
    },
    {
      "inputs": [
        {
          "internalType": "uint256",
          "name": "streamId",
          "type": "uint256"
        }
      ],
      "name": "getRange",
      "outputs": [
        {
          "components": [
            {
              "internalType": "uint40",
              "name": "start",
              "type": "uint40"
            },
            {
              "internalType": "uint40",
              "name": "cliff",
              "type": "uint40"
            },
            {
              "internalType": "uint40",
              "name": "end",
              "type": "uint40"
            }
          ],
          "internalType": "struct LockupLinear.Range",
          "name": "range",
          "type": "tuple"
        }
      ],
      "stateMutability": "view",
      "type": "function"
    },
    {
      "inputs": [
        {
          "internalType": "uint256",
          "name": "streamId",
          "type": "uint256"
        }
      ],
      "name": "getRecipient",
      "outputs": [
        {
          "internalType": "address",
          "name": "recipient",
          "type": "address"
        }
      ],
      "stateMutability": "view",
      "type": "function"
    },
    {
      "inputs": [
        {
          "internalType": "uint256",
          "name": "streamId",
          "type": "uint256"
        }
      ],
      "name": "getRefundedAmount",
      "outputs": [
        {
          "internalType": "uint128",
          "name": "refundedAmount",
          "type": "uint128"
        }
      ],
      "stateMutability": "view",
      "type": "function"
    },
    {
      "inputs": [
        {
          "internalType": "uint256",
          "name": "streamId",
          "type": "uint256"
        }
      ],
      "name": "getSender",
      "outputs": [
        {
          "internalType": "address",
          "name": "sender",
          "type": "address"
        }
      ],
      "stateMutability": "view",
      "type": "function"
    },
    {
      "inputs": [
        {
          "internalType": "uint256",
          "name": "streamId",
          "type": "uint256"
        }
      ],
      "name": "getStartTime",
      "outputs": [
        {
          "internalType": "uint40",
          "name": "startTime",
          "type": "uint40"
        }
      ],
      "stateMutability": "view",
      "type": "function"
    },
    {
      "inputs": [
        {
          "internalType": "uint256",
          "name": "streamId",
          "type": "uint256"
        }
      ],
      "name": "getStream",
      "outputs": [
        {
          "components": [
            {
              "internalType": "address",
              "name": "sender",
              "type": "address"
            },
            {
              "internalType": "uint40",
              "name": "startTime",
              "type": "uint40"
            },
            {
              "internalType": "uint40",
              "name": "cliffTime",
              "type": "uint40"
            },
            {
              "internalType": "bool",
              "name": "isCancelable",
              "type": "bool"
            },
            {
              "internalType": "bool",
              "name": "wasCanceled",
              "type": "bool"
            },
            {
              "internalType": "contract IERC20",
              "name": "asset",
              "type": "address"
            },
            {
              "internalType": "uint40",
              "name": "endTime",
              "type": "uint40"
            },
            {
              "internalType": "bool",
              "name": "isDepleted",
              "type": "bool"
            },
            {
              "internalType": "bool",
              "name": "isStream",
              "type": "bool"
            },
            {
              "components": [
                {
                  "internalType": "uint128",
                  "name": "deposited",
                  "type": "uint128"
                },
                {
                  "internalType": "uint128",
                  "name": "withdrawn",
                  "type": "uint128"
                },
                {
                  "internalType": "uint128",
                  "name": "refunded",
                  "type": "uint128"
                }
              ],
              "internalType": "struct Lockup.Amounts",
              "name": "amounts",
              "type": "tuple"
            }
          ],
          "internalType": "struct LockupLinear.Stream",
          "name": "stream",
          "type": "tuple"
        }
      ],
      "stateMutability": "view",
      "type": "function"
    },
    {
      "inputs": [
        {
          "internalType": "uint256",
          "name": "streamId",
          "type": "uint256"
        }
      ],
      "name": "getWithdrawnAmount",
      "outputs": [
        {
          "internalType": "uint128",
          "name": "withdrawnAmount",
          "type": "uint128"
        }
      ],
      "stateMutability": "view",
      "type": "function"
    },
    {
      "inputs": [
        {
          "internalType": "address",
          "name": "owner",
          "type": "address"
        },
        {
          "internalType": "address",
          "name": "operator",
          "type": "address"
        }
      ],
      "name": "isApprovedForAll",
      "outputs": [
        {
          "internalType": "bool",
          "name": "",
          "type": "bool"
        }
      ],
      "stateMutability": "view",
      "type": "function"
    },
    {
      "inputs": [
        {
          "internalType": "uint256",
          "name": "streamId",
          "type": "uint256"
        }
      ],
      "name": "isCancelable",
      "outputs": [
        {
          "internalType": "bool",
          "name": "result",
          "type": "bool"
        }
      ],
      "stateMutability": "view",
      "type": "function"
    },
    {
      "inputs": [
        {
          "internalType": "uint256",
          "name": "streamId",
          "type": "uint256"
        }
      ],
      "name": "isCold",
      "outputs": [
        {
          "internalType": "bool",
          "name": "result",
          "type": "bool"
        }
      ],
      "stateMutability": "view",
      "type": "function"
    },
    {
      "inputs": [
        {
          "internalType": "uint256",
          "name": "streamId",
          "type": "uint256"
        }
      ],
      "name": "isDepleted",
      "outputs": [
        {
          "internalType": "bool",
          "name": "result",
          "type": "bool"
        }
      ],
      "stateMutability": "view",
      "type": "function"
    },
    {
      "inputs": [
        {
          "internalType": "uint256",
          "name": "streamId",
          "type": "uint256"
        }
      ],
      "name": "isStream",
      "outputs": [
        {
          "internalType": "bool",
          "name": "result",
          "type": "bool"
        }
      ],
      "stateMutability": "view",
      "type": "function"
    },
    {
      "inputs": [
        {
          "internalType": "uint256",
          "name": "streamId",
          "type": "uint256"
        }
      ],
      "name": "isWarm",
      "outputs": [
        {
          "internalType": "bool",
          "name": "result",
          "type": "bool"
        }
      ],
      "stateMutability": "view",
      "type": "function"
    },
    {
      "inputs": [],
      "name": "name",
      "outputs": [
        {
          "internalType": "string",
          "name": "",
          "type": "string"
        }
      ],
      "stateMutability": "view",
      "type": "function"
    },
    {
      "inputs": [],
      "name": "nextStreamId",
      "outputs": [
        {
          "internalType": "uint256",
          "name": "",
          "type": "uint256"
        }
      ],
      "stateMutability": "view",
      "type": "function"
    },
    {
      "inputs": [
        {
          "internalType": "uint256",
          "name": "tokenId",
          "type": "uint256"
        }
      ],
      "name": "ownerOf",
      "outputs": [
        {
          "internalType": "address",
          "name": "",
          "type": "address"
        }
      ],
      "stateMutability": "view",
      "type": "function"
    },
    {
      "inputs": [
        {
          "internalType": "contract IERC20",
          "name": "asset",
          "type": "address"
        }
      ],
      "name": "protocolRevenues",
      "outputs": [
        {
          "internalType": "uint128",
          "name": "revenues",
          "type": "uint128"
        }
      ],
      "stateMutability": "view",
      "type": "function"
    },
    {
      "inputs": [
        {
          "internalType": "uint256",
          "name": "streamId",
          "type": "uint256"
        }
      ],
      "name": "refundableAmountOf",
      "outputs": [
        {
          "internalType": "uint128",
          "name": "refundableAmount",
          "type": "uint128"
        }
      ],
      "stateMutability": "view",
      "type": "function"
    },
    {
      "inputs": [
        {
          "internalType": "uint256",
          "name": "streamId",
          "type": "uint256"
        }
      ],
      "name": "renounce",
      "outputs": [],
      "stateMutability": "nonpayable",
      "type": "function"
    },
    {
      "inputs": [
        {
          "internalType": "address",
          "name": "from",
          "type": "address"
        },
        {
          "internalType": "address",
          "name": "to",
          "type": "address"
        },
        {
          "internalType": "uint256",
          "name": "tokenId",
          "type": "uint256"
        }
      ],
      "name": "safeTransferFrom",
      "outputs": [],
      "stateMutability": "nonpayable",
      "type": "function"
    },
    {
      "inputs": [
        {
          "internalType": "address",
          "name": "from",
          "type": "address"
        },
        {
          "internalType": "address",
          "name": "to",
          "type": "address"
        },
        {
          "internalType": "uint256",
          "name": "tokenId",
          "type": "uint256"
        },
        {
          "internalType": "bytes",
          "name": "data",
          "type": "bytes"
        }
      ],
      "name": "safeTransferFrom",
      "outputs": [],
      "stateMutability": "nonpayable",
      "type": "function"
    },
    {
      "inputs": [
        {
          "internalType": "address",
          "name": "operator",
          "type": "address"
        },
        {
          "internalType": "bool",
          "name": "approved",
          "type": "bool"
        }
      ],
      "name": "setApprovalForAll",
      "outputs": [],
      "stateMutability": "nonpayable",
      "type": "function"
    },
    {
      "inputs": [
        {
          "internalType": "contract ISablierV2Comptroller",
          "name": "newComptroller",
          "type": "address"
        }
      ],
      "name": "setComptroller",
      "outputs": [],
      "stateMutability": "nonpayable",
      "type": "function"
    },
    {
      "inputs": [
        {
          "internalType": "contract ISablierV2NFTDescriptor",
          "name": "newNFTDescriptor",
          "type": "address"
        }
      ],
      "name": "setNFTDescriptor",
      "outputs": [],
      "stateMutability": "nonpayable",
      "type": "function"
    },
    {
      "inputs": [
        {
          "internalType": "uint256",
          "name": "streamId",
          "type": "uint256"
        }
      ],
      "name": "statusOf",
      "outputs": [
        {
          "internalType": "enum Lockup.Status",
          "name": "status",
          "type": "uint8"
        }
      ],
      "stateMutability": "view",
      "type": "function"
    },
    {
      "inputs": [
        {
          "internalType": "uint256",
          "name": "streamId",
          "type": "uint256"
        }
      ],
      "name": "streamedAmountOf",
      "outputs": [
        {
          "internalType": "uint128",
          "name": "streamedAmount",
          "type": "uint128"
        }
      ],
      "stateMutability": "view",
      "type": "function"
    },
    {
      "inputs": [
        {
          "internalType": "bytes4",
          "name": "interfaceId",
          "type": "bytes4"
        }
      ],
      "name": "supportsInterface",
      "outputs": [
        {
          "internalType": "bool",
          "name": "",
          "type": "bool"
        }
      ],
      "stateMutability": "view",
      "type": "function"
    },
    {
      "inputs": [],
      "name": "symbol",
      "outputs": [
        {
          "internalType": "string",
          "name": "",
          "type": "string"
        }
      ],
      "stateMutability": "view",
      "type": "function"
    },
    {
      "inputs": [
        {
          "internalType": "uint256",
          "name": "streamId",
          "type": "uint256"
        }
      ],
      "name": "tokenURI",
      "outputs": [
        {
          "internalType": "string",
          "name": "uri",
          "type": "string"
        }
      ],
      "stateMutability": "view",
      "type": "function"
    },
    {
      "inputs": [
        {
          "internalType": "address",
          "name": "newAdmin",
          "type": "address"
        }
      ],
      "name": "transferAdmin",
      "outputs": [],
      "stateMutability": "nonpayable",
      "type": "function"
    },
    {
      "inputs": [
        {
          "internalType": "address",
          "name": "from",
          "type": "address"
        },
        {
          "internalType": "address",
          "name": "to",
          "type": "address"
        },
        {
          "internalType": "uint256",
          "name": "tokenId",
          "type": "uint256"
        }
      ],
      "name": "transferFrom",
      "outputs": [],
      "stateMutability": "nonpayable",
      "type": "function"
    },
    {
      "inputs": [
        {
          "internalType": "uint256",
          "name": "streamId",
          "type": "uint256"
        }
      ],
      "name": "wasCanceled",
      "outputs": [
        {
          "internalType": "bool",
          "name": "result",
          "type": "bool"
        }
      ],
      "stateMutability": "view",
      "type": "function"
    },
    {
      "inputs": [
        {
          "internalType": "uint256",
          "name": "streamId",
          "type": "uint256"
        },
        {
          "internalType": "address",
          "name": "to",
          "type": "address"
        },
        {
          "internalType": "uint128",
          "name": "amount",
          "type": "uint128"
        }
      ],
      "name": "withdraw",
      "outputs": [],
      "stateMutability": "nonpayable",
      "type": "function"
    },
    {
      "inputs": [
        {
          "internalType": "uint256",
          "name": "streamId",
          "type": "uint256"
        },
        {
          "internalType": "address",
          "name": "to",
          "type": "address"
        }
      ],
      "name": "withdrawMax",
      "outputs": [],
      "stateMutability": "nonpayable",
      "type": "function"
    },
    {
      "inputs": [
        {
          "internalType": "uint256",
          "name": "streamId",
          "type": "uint256"
        },
        {
          "internalType": "address",
          "name": "newRecipient",
          "type": "address"
        }
      ],
      "name": "withdrawMaxAndTransfer",
      "outputs": [],
      "stateMutability": "nonpayable",
      "type": "function"
    },
    {
      "inputs": [
        {
          "internalType": "uint256[]",
          "name": "streamIds",
          "type": "uint256[]"
        },
        {
          "internalType": "address",
          "name": "to",
          "type": "address"
        },
        {
          "internalType": "uint128[]",
          "name": "amounts",
          "type": "uint128[]"
        }
      ],
      "name": "withdrawMultiple",
      "outputs": [],
      "stateMutability": "nonpayable",
      "type": "function"
    },
    {
      "inputs": [
        {
          "internalType": "uint256",
          "name": "streamId",
          "type": "uint256"
        }
      ],
      "name": "withdrawableAmountOf",
      "outputs": [
        {
          "internalType": "uint128",
          "name": "withdrawableAmount",
          "type": "uint128"
        }
      ],
      "stateMutability": "view",
      "type": "function"
    }
  ],
  "bytecode": {
    "object": "0x60a034620003e757601f196001600160401b03601f620048b23881900382810185168601919084831187841017620003ec57808792606094604052833981010312620003e75783516001600160a01b03928382169291839003620003e7576020918287015196858816809803620003e75760400151948516809503620003e7576200008962000402565b90601c82527f5361626c696572205632204c6f636b7570204c696e656172204e46540000000084830152620000bd62000402565b601181527029a0a116ab1916a627a1a5aaa816a624a760791b8582015230608052600080546001600160a01b031990811688178255600180548216909b178b5596817fbdd36143ee09de60bdefca70680e0f71189b2ed7acee364b53917ad433fdaf808180a38351858111620003d35760039485548c81811c91168015620003c8575b89821014620003b45790818684931162000361575b508890868311600114620002f8578492620002ec575b505060001982871b1c1916908b1b1784555b8151948511620002d8576004958654998b8b811c9b168015620002cd575b828c1014620002ba57848b1162000271575b869798999a50819487116001146200020a57505093620001fe575b505082871b92600019911b1c19161790555b600a541617600a5560095560405161448f908162000423823960805181613f9e0152f35b015191503880620001c8565b8883528183208c9890969594939116915b8282106200025757505085116200023c575b50505050811b019055620001da565b01519060f884600019921b161c19169055388080806200022d565b8484015187558c989096019593840193908101906200021b565b87835281832085880160051c81019b838910620002af575b860160051c019a8c905b8c8110620002a3575050620001ad565b848155018c9062000293565b909b508b9062000289565b634e487b7160e01b835260228852602483fd5b9a607f169a6200019b565b634e487b7160e01b81526041600452602490fd5b0151905038806200016b565b908c8e9416918886528a862092865b8c82821062000341575050841162000328575b505050811b0184556200017d565b015160001983891b60f8161c191690553880806200031a565b91929395968291958786015181550195019301908f959493929162000307565b9091508684528884208680850160051c8201928b8610620003aa575b918f91869594930160051c01915b8281106200039b57505062000155565b8681558594508f91016200038b565b925081926200037d565b634e487b7160e01b84526022600452602484fd5b90607f169062000140565b634e487b7160e01b82526041600452602482fd5b600080fd5b634e487b7160e01b600052604160045260246000fd5b60408051919082016001600160401b03811183821017620003ec5760405256fe608080604052600436101561001357600080fd5b600090813560e01c90816301ffc9a71461296e5750806306fdde03146128ac578063081812fc1461288d578063095ea7b3146126fe5780631400ecec1461265e5780631b4103a9146125435780631c1cdd4c146124de5780631e99d569146124c057806323b872dd1461249657806339a73c031461245557806340e58ee51461207b578063425d30dd1461205c57806342842e0e1461200c57806342966c6814611f1a5780634857501f14611e905780634869e12d14611e555780634bc78b7314611d405780635fe3b56714611d195780636352211e14611ce95780636d0cee7514611c9357806370a0823114611bea57806375829def14611b57578063780a82c814611b075780637cad6cd114611a365780637de6b1db1461184b5780638659c27014611413578063894e9a0d146111e25780638bad38dd146111655780638f69b993146110c95780639067b6771461107657806395d89b4114610f69578063a22cb46514610e98578063a2ffb89714610c43578063a6202bf214610b3d578063a80fc07114610aeb578063ad35efd414610a89578063b88d4fde146109f8578063b8a3be66146109c3578063b971302a14610974578063bc063e1a14610951578063bc2be1be14610901578063c156a11d14610834578063c87b56dd146106f6578063cc364f481461064a578063d4dbd20b146105f8578063d511609f146105ac578063d975dfed14610560578063e985e9c51461050b578063ea5ead19146104e5578063eac8f5b81461047c578063f590c17614610453578063f851a4401461042d5763fdd46d601461026857600080fd5b3461042a57606036600319011261042a57600435610284612a9d565b61028c612bdc565b90610295613f94565b61029e836131c3565b610412576102c283600052600b6020526001600160a01b0360406000205416331490565b1580610402575b6103df576102ed83600052600b6020526001600160a01b0360406000205416331490565b806103bd575b610390576001600160a01b03811615610366576001600160801b0382161561034e57916103446020927ff8e1a15aba9398e019f0b49df1a4fde98ee17ae345cb5f6b5e2c27f5033e8ce794836140bf565b604051908152a180f35b6024836040519063d2aabcd960e01b82526004820152fd5b60046040517fc61a0e9e000000000000000000000000000000000000000000000000000000008152fd5b826001600160a01b0360649260405192632dcbf6b960e11b84526004840152336024840152166044820152fd5b5082845260056020526001600160a01b038060408620541690821614156102f3565b60405163216caf0d60e01b815260048101849052336024820152604490fd5b0390fd5b5061040c836142e7565b156102c9565b60248360405190634a5541ef60e01b82526004820152fd5b80fd5b503461042a578060031936011261042a576001600160a01b036020915416604051908152f35b503461042a57602036600319011261042a576020610472600435613229565b6040519015158152f35b503461042a57602036600319011261042a57600435808252600b60205260ff600160408420015460d01c16156104ce5760016040836001600160a01b039360209552600b855220015416604051908152f35b6024906040519062b8e7e760e51b82526004820152fd5b503461042a57604036600319011261042a57600435610502612a9d565b61028c82614056565b503461042a57604036600319011261042a57610525612a87565b604061052f612a9d565b926001600160a01b0380931681526008602052209116600052602052602060ff604060002054166040519015158152f35b503461042a57602036600319011261042a5760ff6001604060043593848152600b60205220015460d01c16156104ce5761059b602091614056565b6001600160801b0360405191168152f35b503461042a57602036600319011261042a57600435808252600b60205260ff600160408420015460d01c16156104ce5760408260029260209452600b845220015460801c604051908152f35b503461042a57602036600319011261042a57600435808252600b60205260ff600160408420015460d01c16156104ce5760036040836001600160801b039360209552600b855220015416604051908152f35b503461042a57602036600319011261042a57600435610667613170565b50808252600b60205260ff600160408420015460d01c16156104ce578160409160609352600b60205220805490600164ffffffffff91015481604051936106ad85612b49565b818160a01c16855260c81c16602084015260a01c1660408201526106f460405180926040908164ffffffffff91828151168552826020820151166020860152015116910152565bf35b503461042a576020806003193601126108205760043561073461072f8260005260056020526001600160a01b0360406000205416151590565b612bf2565b826001600160a01b03600a5416916044604051809481937fe9dc637500000000000000000000000000000000000000000000000000000000835230600484015260248301525afa9283156108285780936107a3575b505061079f604051928284938452830190612a62565b0390f35b909192503d8082843e6107b68184612b9e565b82019183818403126108205780519067ffffffffffffffff8211610824570182601f82011215610820578051916107ec83612bc0565b936107fa6040519586612b9e565b83855285848401011161042a57509061081891848085019101612a3f565b903880610789565b5080fd5b8280fd5b604051903d90823e3d90fd5b503461042a57604036600319011261042a57600435610851612a9d565b610859613f94565b818352600b60205260ff600160408520015460d01c16156108ea5781835260056020526001600160a01b036040842054168033036103df5791610344816020937ff8e1a15aba9398e019f0b49df1a4fde98ee17ae345cb5f6b5e2c27f5033e8ce7956108c483614056565b6001600160801b0381166108d9575b50612e85565b6108e49082856140bf565b386108d3565b6024826040519062b8e7e760e51b82526004820152fd5b503461042a57602036600319011261042a57600435808252600b60205260ff600160408420015460d01c16156104ce5760408264ffffffffff9260209452600b8452205460a01c16604051908152f35b503461042a578060031936011261042a57602060405167016345785d8a00008152f35b503461042a57602036600319011261042a57600435808252600b60205260ff600160408420015460d01c16156104ce576040826001600160a01b039260209452600b8452205416604051908152f35b503461042a57602036600319011261042a5760ff600160406020936004358152600b855220015460d01c166040519015158152f35b503461042a57608036600319011261042a57610a12612a87565b610a1a612a9d565b906064359067ffffffffffffffff8211610a855736602383011215610a855781600401359284610a4985612bc0565b93610a576040519586612b9e565b85855236602487830101116108205785610a8296602460209301838801378501015260443591612d10565b80f35b8380fd5b503461042a57602036600319011261042a57600435808252600b60205260ff600160408420015460d01c16156104ce57610ac29061349f565b604051906005811015610ad757602092508152f35b602483634e487b7160e01b81526021600452fd5b503461042a57602036600319011261042a57600435808252600b60205260ff600160408420015460d01c16156104ce5760026040836001600160801b039360209552600b855220015416604051908152f35b503461042a57602036600319011261042a57610b57612a87565b6001600160a01b0380835416338103610c1a575081169081835260026020526001600160801b03604084205416908115610be95781610bba918486526002602052604086206fffffffffffffffffffffffffffffffff1981541690553390613ff0565b6040519081527fca7a4a65a94ed2f37538814e00e1cd4c41a78261561e3f3794592f11409cf5af60203392a380f35b602483604051907f8410168c0000000000000000000000000000000000000000000000000000000082526004820152fd5b6040516331b339a960e21b81526001600160a01b03919091166004820152336024820152604490fd5b503461042a57606036600319011261042a5767ffffffffffffffff60043581811161082457610c76903690600401612ae8565b91610c7f612a9d565b90604435908111610e9457610c98903690600401612ae8565b9093610ca2613f94565b818103610e5e57855b818110610cb6578680f35b610cc181838761407e565b35610ccd82858961407e565b356001600160801b0381168103610e5957610ce6613f94565b610cef826131c3565b610e4157610d1382600052600b6020526001600160a01b0360406000205416331490565b1580610e31575b610e1257610d3e82600052600b6020526001600160a01b0360406000205416331490565b80610dea575b610dbd576001600160a01b03861615610366576001600160801b03811615610da557602082610d987ff8e1a15aba9398e019f0b49df1a4fde98ee17ae345cb5f6b5e2c27f5033e8ce79389600197966140bf565b604051908152a101610cab565b6024826040519063d2aabcd960e01b82526004820152fd5b6064826001600160a01b038860405192632dcbf6b960e11b84526004840152336024840152166044820152fd5b5081895260056020526001600160a01b0360408a2054166001600160a01b0387161415610d44565b60405163216caf0d60e01b815260048101839052336024820152604490fd5b50610e3b826142e7565b15610d1a565b60248260405190634a5541ef60e01b82526004820152fd5b600080fd5b604491604051917faec9344000000000000000000000000000000000000000000000000000000000835260048301526024820152fd5b8480fd5b503461042a57604036600319011261042a57610eb2612a87565b60243590811515809203610e59576001600160a01b031690813314610f255733835260086020526040832082600052602052604060002060ff1981541660ff83161790556040519081527f17307eab39ab6107e8899845ad3d59bd9653f200f220920489ca2b5937696c3160203392a380f35b606460405162461bcd60e51b815260206004820152601960248201527f4552433732313a20617070726f766520746f2063616c6c6572000000000000006044820152fd5b503461042a578060031936011261042a57604051908060045491600183811c9281851694851561106c575b602095868610811461105857858852879493929187908215611036575050600114610fdc575b5050610fc892500383612b9e565b61079f604051928284938452830190612a62565b90859250600482527f8a35acfbc15ff81a39ae7d344fd709f28e8600b4aa8c65c6b64bfe7fe36bd19b5b85831061101e575050610fc893508201013880610fba565b80548389018501528794508693909201918101611006565b9250935050610fc894915060ff191682840152151560051b8201013880610fba565b602483634e487b7160e01b81526022600452fd5b93607f1693610f94565b503461042a57602036600319011261042a57600435808252600b60205260ff600160408420015460d01c16156104ce57600160408364ffffffffff9360209552600b855220015460a01c16604051908152f35b503461042a57602036600319011261042a57600435808252600b60205260ff600160408420015460d01c16156104ce576111029061349f565b90600582101590816111435760028314918215611157575b821561112e575b6020836040519015158152f35b90915061114357506004602091143880611121565b80634e487b7160e01b602492526021600452fd5b50600383149150600061111a565b503461042a57602036600319011261042a576004356001600160a01b03908181168091036108245781835416338103610c1a575060015491816001600160a01b03198416176001556040519216825260208201527fdcb09aef4bf01068924ccce937981cbe59d25ba08380cf941aaaea4e4bd3960d60403392a280f35b503461042a57602036600319011261042a5760405161120081612b65565b8181528160208201528160408201528160608201528160808201528160a08201528160c08201528160e08201528161010082015261012061123f613170565b9101526004358152600b60205260ff600160408320015460d01c16156113fb576004358152600b6020526040812061130a60026040519261127f84612b65565b80546001600160a01b038116855264ffffffffff8160a01c16602086015264ffffffffff8160c81c16604086015260ff8160f01c161515606086015260f81c1515608085015260ff60018201546001600160a01b03811660a087015264ffffffffff8160a01c1660c0870152818160c81c16151560e087015260d01c1615156101008501520161318f565b61012082015261131b60043561349f565b6005811015610ad75791600261018093146113f0575b506106f4610120604051926001600160a01b03815116845264ffffffffff602082015116602085015264ffffffffff60408201511660408501526060810151151560608501526080810151151560808501526001600160a01b0360a08201511660a085015264ffffffffff60c08201511660c085015260e0810151151560e085015261010081015115156101008501520151610120830190604090816001600160801b0391828151168552826020820151166020860152015116910152565b606082015238611331565b602460405162b8e7e760e51b81526004356004820152fd5b503461042a576020908160031936011261042a5760043567ffffffffffffffff81116108205761144883913690600401612ae8565b90611451613f94565b83915b80831061145f578480f35b61146e8382849795969761407e565b3593611478613f94565b611481856131c3565b1561149e5760248560405190634a5541ef60e01b82526004820152fd5b909192936114ab81613229565b611833576114cf81600052600b6020526001600160a01b0360406000205416331490565b1580611815575b6117f5576114e38161325a565b818652600b908188526114fb6002604089200161318f565b6001600160801b03918282511683821610156117dd57848952838a5260ff60408a205460f01c16156117c55792828261154d86838e6115438f9a829a60409e9d9a51166131fa565b94015116906131fa565b848752838652888720916115dc835494600160f81b7dffffffffffffffffffffffffffffffffffffffffffffffffffffffffffff871617855560038185169586156117ab575b0190831699818b6fffffffffffffffffffffffffffffffff19819454161790556001600160a01b0380971696879160058c52818f82205416998c5260019e8f9120015416613ff0565b3384036116d757843b611650575b50507f2971bd77136e1a620a6b1eb4ad5edd190e9fd391b26bfc5dea50b882fc6b9fd260407ff8e1a15aba9398e019f0b49df1a4fde98ee17ae345cb5f6b5e2c27f5033e8ce79786935b825191825288820152a4604051908152a1019190939293611454565b90919293809596503b156116d3576040516372eba20360e01b8152600481018790526001600160a01b03851660248201526001600160801b039182166044820152911660648201528b94939291908b90818160848183895af1156115ea576116be9192939597949650612b35565b6116cf57918a939194928a8d6115ea565b8980fd5b8b80fd5b833b61172c575b50507f2971bd77136e1a620a6b1eb4ad5edd190e9fd391b26bfc5dea50b882fc6b9fd260407ff8e1a15aba9398e019f0b49df1a4fde98ee17ae345cb5f6b5e2c27f5033e8ce7978693611634565b90919280949596503b156116d3576040516372eba20360e01b8152600481018790526001600160a01b03861660248201526001600160801b039182166044820152911660648201528b94939291908b90818160848183885af1156116de5761179a9192939597949650612b35565b6116cf57918a939194928a8d6116de565b60018101600160c81b60ff60c81b19825416179055611593565b602485604051906339c6dc7360e21b82526004820152fd5b602485604051906322cad1af60e11b82526004820152fd5b60405163216caf0d60e01b81526004810191909152336024820152604490fd5b50808552600586526001600160a01b036040862054163314156114d6565b6024906040519063fe19f19f60e01b82526004820152fd5b503461042a57602080600319360112610820576004359061186a613f94565b818352600b815260ff600160408520015460d01c16156108ea5761188d8261349f565b6005811015611a2257600481036118b65760248360405190634a5541ef60e01b82526004820152fd5b600381036118d6576024836040519063fe19f19f60e01b82526004820152fd5b600214611a0a576118fd82600052600b6020526001600160a01b0360406000205416331490565b15610e1257818352600b815260ff604084205460f01c16156119f257818352600b81526040832060ff60f01b19815416905560058152826001600160a01b03604082205416803b61199b575b50506040517ff8e1a15aba9398e019f0b49df1a4fde98ee17ae345cb5f6b5e2c27f5033e8ce792807f0eb069207093cd3e51cd1370d2d369770057fbe29947e577e5fb428c6c6fc78f8680a28152a180f35b803b15610820578180916024604051809481937f341a0bd90000000000000000000000000000000000000000000000000000000083528960048401525af115611949576119e790612b35565b610824578238611949565b602482604051906339c6dc7360e21b82526004820152fd5b602482604051906322cad1af60e11b82526004820152fd5b602484634e487b7160e01b81526021600452fd5b503461042a57602036600319011261042a576004356001600160a01b03908181168091036108245781835416338103610c1a5750600a5491816001600160a01b0319841617600a556040519216825260208201527fa2548bd4b805e907c1558a47b5858324fe8bb4a2e1ddfca647eecbf65610eebc60403392a26009546000198101908111611af35760407f6bd5c950a8d8df17f772f5af37cb3655737899cbf903264b9795592da439661c91815190600182526020820152a180f35b602482634e487b7160e01b81526011600452fd5b503461042a57602036600319011261042a57600435808252600b60205260ff600160408420015460d01c16156104ce5760408264ffffffffff9260209452600b8452205460c81c16604051908152f35b503461042a57602036600319011261042a57611b71612a87565b9080546001600160a01b0380821693338503611bc3576001600160a01b03199394501691829116178255337fbdd36143ee09de60bdefca70680e0f71189b2ed7acee364b53917ad433fdaf808380a380f35b6040516331b339a960e21b81526001600160a01b0386166004820152336024820152604490fd5b503461042a57602036600319011261042a576001600160a01b03611c0c612a87565b168015611c29578160409160209352600683522054604051908152f35b608460405162461bcd60e51b815260206004820152602960248201527f4552433732313a2061646472657373207a65726f206973206e6f74206120766160448201527f6c6964206f776e657200000000000000000000000000000000000000000000006064820152fd5b503461042a57602036600319011261042a576001600160a01b036040602092600435611cd861072f8260005260056020526001600160a01b0360406000205416151590565b815260058452205416604051908152f35b503461042a57602036600319011261042a576020611d08600435612c3d565b6001600160a01b0360405191168152f35b503461042a578060031936011261042a5760206001600160a01b0360015416604051908152f35b503461042a5761014036600319011261042a57611d5b613f94565b60405190611d6882612b19565b611d70612a87565b8252611d7a612a9d565b6020830152611d87612bdc565b60408301526001600160a01b03906064358281168103610e595760608401526084358015158103610e5957608084015260603660a319011261042a5750604051611dd081612b49565b64ffffffffff60a4358181168103610e5957825260c4358181168103610e5957602083015260e4359081168103610e5957604082015260a0830152604061010319360112610e595760405191611e2583612b82565b610104359182168203610e595782611e4d9260209452610124358482015260c08201526135a1565b604051908152f35b503461042a57602036600319011261042a5760ff6001604060043593848152600b60205220015460d01c16156104ce5761059b602091613526565b503461042a57602036600319011261042a5760043590818152600b60205260ff600160408320015460d01c16156108ea5780611ecb8361349f565b926005841015611f0657600260209403611eec575b50506040519015158152f35b8152600b8352604090205460f01c60ff1690503880611ee0565b602482634e487b7160e01b81526021600452fd5b503461042a57602036600319011261042a57600435611f37613f94565b611f40816131c3565b15611fdb57611f4e816142e7565b156117f557611f5c81612c3d565b5081611f6782612c3d565b82825260076020526001600160a01b0360408320916001600160a01b031992838154169055169081835260066020526040832060001981540190558383526005602052604083209081541690557fddf252ad1be2c89b69c2b068fc378daa952ba7f163c4a11628f55a4df523b3ef8280a480f35b602490604051907f817cd6390000000000000000000000000000000000000000000000000000000082526004820152fd5b503461042a5761201b36612ab3565b60405191602083019383851067ffffffffffffffff86111761204657610a8294604052858452612d10565b634e487b7160e01b600052604160045260246000fd5b503461042a57602036600319011261042a5760206104726004356131c3565b503461042a57602080600319360112610820576004359061209a613f94565b6120a3826131c3565b156120c05760248260405190634a5541ef60e01b82526004820152fd5b6120c982613229565b61243d576120ed82600052600b6020526001600160a01b0360406000205416331490565b158061241f575b610e12576121018261325a565b91808452600b82526121186002604086200161318f565b6001600160801b039384825116858216101561240757828652600b845260ff604087205460f01c16156123ef578161215c82878761154360409683839951166131fa565b848852600b8452828820916121eb835498600160f81b7dffffffffffffffffffffffffffffffffffffffffffffffffffffffffffff8b161785558a60038286169687156123d5575b019184169a828c6fffffffffffffffffffffffffffffffff198195541617905560016001600160a01b0380921698899360058c52600b8483832054169c5220015416613ff0565b3384036122c857908891853b61225b575b5050507f2971bd77136e1a620a6b1eb4ad5edd190e9fd391b26bfc5dea50b882fc6b9fd260407ff8e1a15aba9398e019f0b49df1a4fde98ee17ae345cb5f6b5e2c27f5033e8ce79786935b825191825288820152a4604051908152a180f35b853b15610824576040516372eba20360e01b8152600481018890526001600160a01b03861660248201526001600160801b03918216604482015291166064820152818160848183895af16122b0575b806121fc565b6122b990612b35565b6122c45786386122aa565b8680fd5b83989792983b612322575b50507f2971bd77136e1a620a6b1eb4ad5edd190e9fd391b26bfc5dea50b882fc6b9fd2604085927ff8e1a15aba9398e019f0b49df1a4fde98ee17ae345cb5f6b5e2c27f5033e8ce79899612247565b833b156123d1576040516372eba20360e01b8152600481018790526001600160a01b03861660248201526001600160801b03918216604482015291166064820152868160848183875af1612377575b806122d3565b604085927ff8e1a15aba9398e019f0b49df1a4fde98ee17ae345cb5f6b5e2c27f5033e8ce7986123c77f2971bd77136e1a620a6b1eb4ad5edd190e9fd391b26bfc5dea50b882fc6b9fd294612b35565b9850925050612371565b8780fd5b60018101600160c81b60ff60c81b198254161790556121a4565b602483604051906339c6dc7360e21b82526004820152fd5b602483604051906322cad1af60e11b82526004820152fd5b50818352600581526001600160a01b036040842054163314156120f4565b6024826040519063fe19f19f60e01b82526004820152fd5b503461042a57602036600319011261042a576001600160801b0360406020926001600160a01b03612484612a87565b16815260028452205416604051908152f35b503461042a57610a826124a836612ab3565b916124bb6124b68433612da6565b612c9f565b612e85565b503461042a578060031936011261042a576020600954604051908152f35b503461042a57602036600319011261042a57600435808252600b60205260ff600160408420015460d01c16156104ce576125179061349f565b9060058210156111435760208215838115612538575b506040519015158152f35b60019150148261252d565b503461042a5761012036600319011261042a5761255e613f94565b612566613170565b9064ffffffffff80421680845260a4358281168103610a855781018216602085015260c435908183168203610a855701166040830152606435916001600160a01b039081841680940361082457608435801515809103610a855760243594838616809603610e94576004359584871680970361265a57604435906001600160801b0382168092036122c457604051976125fe89612b19565b8852602088015260408701526060860152608085015260a0840152604060e319360112610820576040519161263283612b82565b60e435918216820361042a576020611e4d8585858152610104358482015260c08201526135a1565b8580fd5b503461042a57602036600319011261042a5760043590818152600b60205260ff600160408320015460d01c16156108ea57602091604082828152600b85522060ff815460f01c16806126ec575b6126c3575b50506001600160801b0360405191168152f35b6126e592506001600160801b0360026126df920154169161325a565b906131fa565b38806126b0565b5060ff600182015460c81c16156126ab565b503461042a57604036600319011261042a57612718612a87565b602435906001600160a01b03808061272f85612c3d565b1692169180831461282357803314908115612802575b501561279857828452600760205260408420826001600160a01b031982541617905561277083612c3d565b167f8c5be1e5ebec7d5bd14f71427d1e84f3dd0314c0f7b2291e5b200ac8c7c3b9258480a480f35b608460405162461bcd60e51b815260206004820152603d60248201527f4552433732313a20617070726f76652063616c6c6572206973206e6f7420746f60448201527f6b656e206f776e6572206f7220617070726f76656420666f7220616c6c0000006064820152fd5b9050845260086020526040842033855260205260ff60408520541638612745565b608460405162461bcd60e51b815260206004820152602160248201527f4552433732313a20617070726f76616c20746f2063757272656e74206f776e6560448201527f72000000000000000000000000000000000000000000000000000000000000006064820152fd5b503461042a57602036600319011261042a576020611d08600435612c62565b503461042a578060031936011261042a57604051908060035491600183811c92818516948515612964575b60209586861081146110585785885287949392918790821561103657505060011461290a575050610fc892500383612b9e565b90859250600382527fc2575a0e9e593c00f959f8c92f12db2869c3395a3b0502d05e2516446f71f85b5b85831061294c575050610fc893508201013880610fba565b80548389018501528794508693909201918101612934565b93607f16936128d7565b905034610820576020366003190112610820576004357fffffffff00000000000000000000000000000000000000000000000000000000811680910361082457602092507f80ac58cd000000000000000000000000000000000000000000000000000000008114908115612a15575b81156129eb575b5015158152f35b7f01ffc9a700000000000000000000000000000000000000000000000000000000915014386129e4565b7f5b5e139f00000000000000000000000000000000000000000000000000000000811491506129dd565b60005b838110612a525750506000910152565b8181015183820152602001612a42565b90602091612a7b81518092818552858086019101612a3f565b601f01601f1916010190565b600435906001600160a01b0382168203610e5957565b602435906001600160a01b0382168203610e5957565b6060906003190112610e59576001600160a01b03906004358281168103610e5957916024359081168103610e59579060443590565b9181601f84011215610e595782359167ffffffffffffffff8311610e59576020808501948460051b010111610e5957565b60e0810190811067ffffffffffffffff82111761204657604052565b67ffffffffffffffff811161204657604052565b6060810190811067ffffffffffffffff82111761204657604052565b610140810190811067ffffffffffffffff82111761204657604052565b6040810190811067ffffffffffffffff82111761204657604052565b90601f8019910116810190811067ffffffffffffffff82111761204657604052565b67ffffffffffffffff811161204657601f01601f191660200190565b604435906001600160801b0382168203610e5957565b15612bf957565b606460405162461bcd60e51b815260206004820152601860248201527f4552433732313a20696e76616c696420746f6b656e20494400000000000000006044820152fd5b60005260056020526001600160a01b0360406000205416612c5f811515612bf2565b90565b612c8561072f8260005260056020526001600160a01b0360406000205416151590565b60005260076020526001600160a01b036040600020541690565b15612ca657565b608460405162461bcd60e51b815260206004820152602d60248201527f4552433732313a2063616c6c6572206973206e6f7420746f6b656e206f776e6560448201527f72206f7220617070726f766564000000000000000000000000000000000000006064820152fd5b90612d34939291612d246124b68433612da6565b612d2f838383612e85565b612fdc565b15612d3b57565b60405162461bcd60e51b815260206004820152603260248201527f4552433732313a207472616e7366657220746f206e6f6e20455243373231526560448201527f63656976657220696d706c656d656e74657200000000000000000000000000006064820152608490fd5b906001600160a01b038080612dba84612c3d565b16931691838314938415612ded575b508315612dd7575b50505090565b612de391929350612c62565b1614388080612dd1565b909350600052600860205260406000208260005260205260ff604060002054169238612dc9565b15612e1b57565b608460405162461bcd60e51b815260206004820152602560248201527f4552433732313a207472616e736665722066726f6d20696e636f72726563742060448201527f6f776e65720000000000000000000000000000000000000000000000000000006064820152fd5b90612ead91612e9384612c3d565b916001600160a01b03938493848094169485911614612e14565b16918215612f435781612eca91612ec386612c3d565b1614612e14565b7fddf252ad1be2c89b69c2b068fc378daa952ba7f163c4a11628f55a4df523b3ef60008481526007602052604081206001600160a01b03199081815416905583825260066020526040822060001981540190558482526040822060018154019055858252600560205284604083209182541617905580a4565b608460405162461bcd60e51b8152602060048201526024808201527f4552433732313a207472616e7366657220746f20746865207a65726f2061646460448201527f72657373000000000000000000000000000000000000000000000000000000006064820152fd5b3d15612fd7573d90612fbd82612bc0565b91612fcb6040519384612b9e565b82523d6000602084013e565b606090565b91926000929190813b156131665760209161304c91856040519586809581947f150b7a02000000000000000000000000000000000000000000000000000000009b8c84523360048501526001600160a01b0380951660248501526044840152608060648401526084830190612a62565b0393165af190829082613106575b50506130e057613068612fac565b805190816130db5760405162461bcd60e51b815260206004820152603260248201527f4552433732313a207472616e7366657220746f206e6f6e20455243373231526560448201527f63656976657220696d706c656d656e74657200000000000000000000000000006064820152608490fd5b602001fd5b7fffffffff00000000000000000000000000000000000000000000000000000000161490565b909192506020813d821161315e575b8161312260209383612b9e565b810103126108205751907fffffffff000000000000000000000000000000000000000000000000000000008216820361042a575090388061305a565b3d9150613115565b5050505050600190565b6040519061317d82612b49565b60006040838281528260208201520152565b9060405161319c81612b49565b6040819360018154916001600160801b0392838116865260801c6020860152015416910152565b80600052600b60205260ff60016040600020015460d01c16156104ce57600052600b60205260ff60016040600020015460c81c1690565b6001600160801b03918216908216039190821161321357565b634e487b7160e01b600052601160045260246000fd5b80600052600b60205260ff60016040600020015460d01c16156104ce57600052600b60205260406000205460f81c90565b600090808252600b6020526040822091825464ffffffffff42818360c81c16116133085780600186015460a01c1691824210156132f2576132a79394955060a01c16809103904203613310565b90828152600b6020526001600160801b03926132cd8460026040852001541680946133f0565b9283116132da5750501690565b60029350604092508152600b60205220015460801c90565b505050505060026001600160801b039101541690565b505091505090565b670de0b6b3a76400009160001983830992808302928380861095039480860395146133cc578285101561339057908291096001821901821680920460028082600302188083028203028083028203028083028203028083028203028083028203028092029003029360018380600003040190848311900302920304170290565b82606492604051927f63a05778000000000000000000000000000000000000000000000000000000008452600484015260248301526044820152fd5b5050809250156133da570490565b634e487b7160e01b600052601260045260246000fd5b9091906000198382098382029182808310920391808303921461348e57670de0b6b3a7640000908183101561345757947faccb18165bd6fe31ae1cf318dc5b51eee0e1ba569b88cd74c1773b91fac1066994950990828211900360ee1b910360121c170290565b60449086604051917f5173648d00000000000000000000000000000000000000000000000000000000835260048301526024820152fd5b5050670de0b6b3a764000090049150565b80600052600b602052604060002060ff600182015460c81c166000146134c6575050600490565b805460f81c61351f575460a01c64ffffffffff164210613519576134e98161325a565b90600052600b6020526001600160801b03806002604060002001541691161060001461351457600190565b600290565b50600090565b5050600390565b80600052600b60205261353f600260406000200161318f565b81600052600b602052604060002060ff600182015460c81c1660001461357257506001600160801b039150602001511690565b5460f81c6135845750612c5f9061325a565b612c5f91506001600160801b0360408183511692015116906131fa565b906001600160a01b036001541660206001600160a01b036060850151166024604051809481937fdcf844a700000000000000000000000000000000000000000000000000000000835260048301525afa8015613d2b57600090613cf7575b61362291506001600160801b0360408501511690602060c0860151015191614350565b916001600160801b0383511660a08201519015613ccd5764ffffffffff815116602082019064ffffffffff82511690818111613c8d57505064ffffffffff604091511691019064ffffffffff8251169081811015613c4d57505064ffffffffff8042169151169081811015613c0d575050600954926001600160801b03815116604051906136af82612b49565b815260006020820152600060408201526001600160a01b036060840151169060a08401519164ffffffffff6020840151169064ffffffffff60408501511691608087015115159064ffffffffff6001600160a01b038951169651166040519661371788612b65565b87526020870152604086015260608501526000608085015260a084015260c0830152600060e0830152600161010083015261012082015284600052600b60205260406000206001600160a01b038251166001600160a01b03198254161781556137a864ffffffffff602084015116829064ffffffffff60a01b1964ffffffffff60a01b83549260a01b169116179055565b604082015181547eff0000000000000000000000000000000000000000000000000000000000006060850151151560f01b169078ffffffffffffffffffffffffffffffffffffffffffffffffff7dffffffffff000000000000000000000000000000000000000000000000007fff000000000000000000000000000000000000000000000000000000000000006080880151151560f81b169460c81b1691161717178155600181016001600160a01b0360a0840151166001600160a01b031982541617815561389f64ffffffffff60c085015116829064ffffffffff60a01b1964ffffffffff60a01b83549260a01b169116179055565b60e083015181546101008501517fffffffffff0000ffffffffffffffffffffffffffffffffffffffffffffffffff90911691151560c81b79ff00000000000000000000000000000000000000000000000000169190911790151560d01b7aff000000000000000000000000000000000000000000000000000016179055610120909101518051602082015160801b6fffffffffffffffffffffffffffffffff199081166001600160801b03928316176002850155926040906003019201511682825416179055600185016009556001600160a01b0360608401511660005260026020526001600160801b0380604060002054168160208501511601166001600160a01b036060850151166000526040600020918254161790556001600160a01b036020830151168015613bc95784906139f76139f18360005260056020526001600160a01b0360406000205416151590565b15613eb1565b613a1a6139f18360005260056020526001600160a01b0360406000205416151590565b8060005260066020526040600020600181540190558160005260056020526040600020816001600160a01b031982541617905560007fddf252ad1be2c89b69c2b068fc378daa952ba7f163c4a11628f55a4df523b3ef8180a4613aa36001600160a01b036060840151166001600160801b03808451168160208601511601169030903390613d37565b6001600160801b0360408201511680613b9a575b506001600160a01b038251167f6a14b1f86e996f59f3a5a72afa0f99cc59199944c80ad4f7260c9b3e3a07b1106101406001600160a01b03602086015116936001600160a01b0360608701511695613b9160808201511515916001600160a01b0360c060a0830151920151511692613b61604051958d87523360208801526040870190604090816001600160801b0391828151168552826020820151166020860152015116910152565b60a0850152805164ffffffffff90811660c08601526020820151811660e086015260409091015116610100840152565b610120820152a4565b613bc3906001600160a01b036060850151166001600160a01b0360c08601515116903390613d37565b38613ab7565b606460405162461bcd60e51b815260206004820152602060248201527f4552433732313a206d696e7420746f20746865207a65726f20616464726573736044820152fd5b6040517f210aec0e00000000000000000000000000000000000000000000000000000000815264ffffffffff918216600482015291166024820152604490fd5b6040517f9fee269100000000000000000000000000000000000000000000000000000000815264ffffffffff918216600482015291166024820152604490fd5b6040517f4c23297000000000000000000000000000000000000000000000000000000000815264ffffffffff918216600482015291166024820152604490fd5b60046040517f6095d3bc000000000000000000000000000000000000000000000000000000008152fd5b6020823d602011613d23575b81613d1060209383612b9e565b8101031261042a575061362290516135ff565b3d9150613d03565b6040513d6000823e3d90fd5b9290604051927f23b872dd0000000000000000000000000000000000000000000000000000000060208501526001600160a01b03809216602485015216604483015260648201526064815260a081019181831067ffffffffffffffff84111761204657613da692604052613da8565b565b6001600160a01b031690613e08604051613dc181612b82565b6020938482527f5361666545524332303a206c6f772d6c6576656c2063616c6c206661696c6564858301526000808587829751910182855af1613e02612fac565b91613efc565b805191821591848315613e8d575b505050905015613e235750565b6084906040519062461bcd60e51b82526004820152602a60248201527f5361666545524332303a204552433230206f7065726174696f6e20646964206e60448201527f6f742073756363656564000000000000000000000000000000000000000000006064820152fd5b9193818094500103126108205782015190811515820361042a575080388084613e16565b15613eb857565b606460405162461bcd60e51b815260206004820152601c60248201527f4552433732313a20746f6b656e20616c7265616479206d696e746564000000006044820152fd5b91929015613f5d5750815115613f10575090565b3b15613f195790565b606460405162461bcd60e51b815260206004820152601d60248201527f416464726573733a2063616c6c20746f206e6f6e2d636f6e74726163740000006044820152fd5b825190915015613f705750805190602001fd5b6103fe9060405191829162461bcd60e51b8352602060048401526024830190612a62565b6001600160a01b037f0000000000000000000000000000000000000000000000000000000000000000163003613fc657565b60046040517fa1c0d6e5000000000000000000000000000000000000000000000000000000008152fd5b916001600160a01b03604051927fa9059cbb000000000000000000000000000000000000000000000000000000006020850152166024830152604482015260448152608081019181831067ffffffffffffffff84111761204657613da692604052613da8565b612c5f9061406381613526565b90600052600b60205260026040600020015460801c906131fa565b919081101561408e5760051b0190565b634e487b7160e01b600052603260045260246000fd5b9190916001600160801b038080941691160191821161321357565b929190926001600160801b03806140d583614056565b1692818116938085116142aa5750600095838752602092600b84526141486141086040946002868c20015460801c6140a4565b868a52600b86526141436002868c20019182906001600160801b036fffffffffffffffffffffffffffffffff1983549260801b169116179055565b61318f565b906141638186840151169282868183511692015116906131fa565b16111561427b575b838752600b83526001600160a01b039161418e8683856001858d20015416613ff0565b848852600584528281892054168033141580614271575b6141da575b507ffa54f9f9bdcdd28778cbb9f78490df6691cc4e2729588e10f4cc0a26c465686a9495969750519586521693a3565b803b1561426d5797807ffa54f9f9bdcdd28778cbb9f78490df6691cc4e2729588e10f4cc0a26c465686a9697989960848451809481937f13375c3b0000000000000000000000000000000000000000000000000000000083528c600484015233602484015289891660448401528d60648401525af161425e575b88979695506141aa565b61426790612b35565b38614254565b8880fd5b50803b15156141a5565b838752600b835281872060018101600160c81b60ff60c81b1982541617905560ff60f01b19815416905561416b565b8360649186604051927fa1fb2bbc000000000000000000000000000000000000000000000000000000008452600484015260248301526044820152fd5b60009080825260056020526001600160a01b03806040842054169283331493841561432c575b5050821561431a57505090565b9091506143273392612c62565b161490565b60ff929450906040918152600860205281812033825260205220541691388061430d565b90929161435b613170565b936001600160801b03928381169182156144675767016345785d8a0000808211614430578085116143f957506143a5856143968193866133f0565b169460208901958652846133f0565b1691846143bc6040890194808652828751166140a4565b1610156143e3576143d58491826143de955116906131fa565b915116906131fa565b168252565b634e487b7160e01b600052600160045260246000fd5b84604491604051917f4fea5c1a00000000000000000000000000000000000000000000000000000000835260048301526024820152fd5b60449250604051917f47152d6700000000000000000000000000000000000000000000000000000000835260048301526024820152fd5b5050505050905060405161447a81612b49565b6000815260006020820152600060408201529056",
    "linkReferences": {}
  },
  "methodIdentifiers": {
    "MAX_FEE()": "bc063e1a",
    "admin()": "f851a440",
    "approve(address,uint256)": "095ea7b3",
    "balanceOf(address)": "70a08231",
    "burn(uint256)": "42966c68",
    "cancel(uint256)": "40e58ee5",
    "cancelMultiple(uint256[])": "8659c270",
    "claimProtocolRevenues(address)": "a6202bf2",
    "comptroller()": "5fe3b567",
    "createWithDurations((address,address,uint128,address,bool,(uint40,uint40),(address,uint256)))": "1b4103a9",
    "createWithRange((address,address,uint128,address,bool,(uint40,uint40,uint40),(address,uint256)))": "4bc78b73",
    "getApproved(uint256)": "081812fc",
    "getAsset(uint256)": "eac8f5b8",
    "getCliffTime(uint256)": "780a82c8",
    "getDepositedAmount(uint256)": "a80fc071",
    "getEndTime(uint256)": "9067b677",
    "getRange(uint256)": "cc364f48",
    "getRecipient(uint256)": "6d0cee75",
    "getRefundedAmount(uint256)": "d4dbd20b",
    "getSender(uint256)": "b971302a",
    "getStartTime(uint256)": "bc2be1be",
    "getStream(uint256)": "894e9a0d",
    "getWithdrawnAmount(uint256)": "d511609f",
    "isApprovedForAll(address,address)": "e985e9c5",
    "isCancelable(uint256)": "4857501f",
    "isCold(uint256)": "8f69b993",
    "isDepleted(uint256)": "425d30dd",
    "isStream(uint256)": "b8a3be66",
    "isWarm(uint256)": "1c1cdd4c",
    "name()": "06fdde03",
    "nextStreamId()": "1e99d569",
    "ownerOf(uint256)": "6352211e",
    "protocolRevenues(address)": "39a73c03",
    "refundableAmountOf(uint256)": "1400ecec",
    "renounce(uint256)": "7de6b1db",
    "safeTransferFrom(address,address,uint256)": "42842e0e",
    "safeTransferFrom(address,address,uint256,bytes)": "b88d4fde",
    "setApprovalForAll(address,bool)": "a22cb465",
    "setComptroller(address)": "8bad38dd",
    "setNFTDescriptor(address)": "7cad6cd1",
    "statusOf(uint256)": "ad35efd4",
    "streamedAmountOf(uint256)": "4869e12d",
    "supportsInterface(bytes4)": "01ffc9a7",
    "symbol()": "95d89b41",
    "tokenURI(uint256)": "c87b56dd",
    "transferAdmin(address)": "75829def",
    "transferFrom(address,address,uint256)": "23b872dd",
    "wasCanceled(uint256)": "f590c176",
    "withdraw(uint256,address,uint128)": "fdd46d60",
    "withdrawMax(uint256,address)": "ea5ead19",
    "withdrawMaxAndTransfer(uint256,address)": "c156a11d",
    "withdrawMultiple(uint256[],address,uint128[])": "a2ffb897",
    "withdrawableAmountOf(uint256)": "d975dfed"
  },
  "id": 75
}