{
  "abi": [
    {
      "type": "constructor",
      "inputs": [
        {
          "name": "initialAdmin",
          "type": "address",
          "internalType": "address"
        },
        {
          "name": "initialNFTDescriptor",
          "type": "address",
          "internalType": "contract ISablierV2NFTDescriptor"
        },
        {
          "name": "maxSegmentCount",
          "type": "uint256",
          "internalType": "uint256"
        }
      ],
      "stateMutability": "nonpayable"
    },
    {
      "type": "function",
      "name": "MAX_BROKER_FEE",
      "inputs": [],
      "outputs": [
        {
          "name": "",
          "type": "uint256",
          "internalType": "UD60x18"
        }
      ],
      "stateMutability": "view"
    },
    {
      "type": "function",
      "name": "MAX_SEGMENT_COUNT",
      "inputs": [],
      "outputs": [
        {
          "name": "",
          "type": "uint256",
          "internalType": "uint256"
        }
      ],
      "stateMutability": "view"
    },
    {
      "type": "function",
      "name": "admin",
      "inputs": [],
      "outputs": [
        {
          "name": "",
          "type": "address",
          "internalType": "address"
        }
      ],
      "stateMutability": "view"
    },
    {
      "type": "function",
      "name": "allowToHook",
      "inputs": [
        {
          "name": "recipient",
          "type": "address",
          "internalType": "address"
        }
      ],
      "outputs": [],
      "stateMutability": "nonpayable"
    },
    {
      "type": "function",
      "name": "approve",
      "inputs": [
        {
          "name": "to",
          "type": "address",
          "internalType": "address"
        },
        {
          "name": "tokenId",
          "type": "uint256",
          "internalType": "uint256"
        }
      ],
      "outputs": [],
      "stateMutability": "nonpayable"
    },
    {
      "type": "function",
      "name": "balanceOf",
      "inputs": [
        {
          "name": "owner",
          "type": "address",
          "internalType": "address"
        }
      ],
      "outputs": [
        {
          "name": "",
          "type": "uint256",
          "internalType": "uint256"
        }
      ],
      "stateMutability": "view"
    },
    {
      "type": "function",
      "name": "burn",
      "inputs": [
        {
          "name": "streamId",
          "type": "uint256",
          "internalType": "uint256"
        }
      ],
      "outputs": [],
      "stateMutability": "nonpayable"
    },
    {
      "type": "function",
      "name": "cancel",
      "inputs": [
        {
          "name": "streamId",
          "type": "uint256",
          "internalType": "uint256"
        }
      ],
      "outputs": [],
      "stateMutability": "nonpayable"
    },
    {
      "type": "function",
      "name": "cancelMultiple",
      "inputs": [
        {
          "name": "streamIds",
          "type": "uint256[]",
          "internalType": "uint256[]"
        }
      ],
      "outputs": [],
      "stateMutability": "nonpayable"
    },
    {
      "type": "function",
      "name": "claimRebasingAssetYield",
      "inputs": [
        {
          "name": "asset",
          "type": "address",
          "internalType": "contract IERC20Rebasing"
        },
        {
          "name": "amount",
          "type": "uint256",
          "internalType": "uint256"
        },
        {
          "name": "to",
          "type": "address",
          "internalType": "address"
        }
      ],
      "outputs": [
        {
          "name": "claimed",
          "type": "uint256",
          "internalType": "uint256"
        }
      ],
      "stateMutability": "nonpayable"
    },
    {
      "type": "function",
      "name": "configureRebasingAsset",
      "inputs": [
        {
          "name": "asset",
          "type": "address",
          "internalType": "contract IERC20Rebasing"
        },
        {
          "name": "yieldMode",
          "type": "uint8",
          "internalType": "enum YieldMode"
        }
      ],
      "outputs": [],
      "stateMutability": "nonpayable"
    },
    {
      "type": "function",
      "name": "configureYieldAndGas",
      "inputs": [
        {
          "name": "blast",
          "type": "address",
          "internalType": "contract IBlast"
        },
        {
          "name": "yieldMode",
          "type": "uint8",
          "internalType": "enum YieldMode"
        },
        {
          "name": "gasMode",
          "type": "uint8",
          "internalType": "enum GasMode"
        },
        {
          "name": "governor",
          "type": "address",
          "internalType": "address"
        }
      ],
      "outputs": [],
      "stateMutability": "nonpayable"
    },
    {
      "type": "function",
      "name": "createWithDurations",
      "inputs": [
        {
          "name": "params",
          "type": "tuple",
          "internalType": "struct LockupDynamic.CreateWithDurations",
          "components": [
            {
              "name": "sender",
              "type": "address",
              "internalType": "address"
            },
            {
              "name": "recipient",
              "type": "address",
              "internalType": "address"
            },
            {
              "name": "totalAmount",
              "type": "uint128",
              "internalType": "uint128"
            },
            {
              "name": "asset",
              "type": "address",
              "internalType": "contract IERC20"
            },
            {
              "name": "cancelable",
              "type": "bool",
              "internalType": "bool"
            },
            {
              "name": "transferable",
              "type": "bool",
              "internalType": "bool"
            },
            {
              "name": "segments",
              "type": "tuple[]",
              "internalType": "struct LockupDynamic.SegmentWithDuration[]",
              "components": [
                {
                  "name": "amount",
                  "type": "uint128",
                  "internalType": "uint128"
                },
                {
                  "name": "exponent",
                  "type": "uint64",
                  "internalType": "UD2x18"
                },
                {
                  "name": "duration",
                  "type": "uint40",
                  "internalType": "uint40"
                }
              ]
            },
            {
              "name": "broker",
              "type": "tuple",
              "internalType": "struct Broker",
              "components": [
                {
                  "name": "account",
                  "type": "address",
                  "internalType": "address"
                },
                {
                  "name": "fee",
                  "type": "uint256",
                  "internalType": "UD60x18"
                }
              ]
            }
          ]
        }
      ],
      "outputs": [
        {
          "name": "streamId",
          "type": "uint256",
          "internalType": "uint256"
        }
      ],
      "stateMutability": "nonpayable"
    },
    {
      "type": "function",
      "name": "createWithTimestamps",
      "inputs": [
        {
          "name": "params",
          "type": "tuple",
          "internalType": "struct LockupDynamic.CreateWithTimestamps",
          "components": [
            {
              "name": "sender",
              "type": "address",
              "internalType": "address"
            },
            {
              "name": "recipient",
              "type": "address",
              "internalType": "address"
            },
            {
              "name": "totalAmount",
              "type": "uint128",
              "internalType": "uint128"
            },
            {
              "name": "asset",
              "type": "address",
              "internalType": "contract IERC20"
            },
            {
              "name": "cancelable",
              "type": "bool",
              "internalType": "bool"
            },
            {
              "name": "transferable",
              "type": "bool",
              "internalType": "bool"
            },
            {
              "name": "startTime",
              "type": "uint40",
              "internalType": "uint40"
            },
            {
              "name": "segments",
              "type": "tuple[]",
              "internalType": "struct LockupDynamic.Segment[]",
              "components": [
                {
                  "name": "amount",
                  "type": "uint128",
                  "internalType": "uint128"
                },
                {
                  "name": "exponent",
                  "type": "uint64",
                  "internalType": "UD2x18"
                },
                {
                  "name": "timestamp",
                  "type": "uint40",
                  "internalType": "uint40"
                }
              ]
            },
            {
              "name": "broker",
              "type": "tuple",
              "internalType": "struct Broker",
              "components": [
                {
                  "name": "account",
                  "type": "address",
                  "internalType": "address"
                },
                {
                  "name": "fee",
                  "type": "uint256",
                  "internalType": "UD60x18"
                }
              ]
            }
          ]
        }
      ],
      "outputs": [
        {
          "name": "streamId",
          "type": "uint256",
          "internalType": "uint256"
        }
      ],
      "stateMutability": "nonpayable"
    },
    {
      "type": "function",
      "name": "getApproved",
      "inputs": [
        {
          "name": "tokenId",
          "type": "uint256",
          "internalType": "uint256"
        }
      ],
      "outputs": [
        {
          "name": "",
          "type": "address",
          "internalType": "address"
        }
      ],
      "stateMutability": "view"
    },
    {
      "type": "function",
      "name": "getAsset",
      "inputs": [
        {
          "name": "streamId",
          "type": "uint256",
          "internalType": "uint256"
        }
      ],
      "outputs": [
        {
          "name": "asset",
          "type": "address",
          "internalType": "contract IERC20"
        }
      ],
      "stateMutability": "view"
    },
    {
      "type": "function",
      "name": "getClaimableRebasingAssetYield",
      "inputs": [
        {
          "name": "asset",
          "type": "address",
          "internalType": "contract IERC20Rebasing"
        }
      ],
      "outputs": [
        {
          "name": "claimableYield",
          "type": "uint256",
          "internalType": "uint256"
        }
      ],
      "stateMutability": "view"
    },
    {
      "type": "function",
      "name": "getDepositedAmount",
      "inputs": [
        {
          "name": "streamId",
          "type": "uint256",
          "internalType": "uint256"
        }
      ],
      "outputs": [
        {
          "name": "depositedAmount",
          "type": "uint128",
          "internalType": "uint128"
        }
      ],
      "stateMutability": "view"
    },
    {
      "type": "function",
      "name": "getEndTime",
      "inputs": [
        {
          "name": "streamId",
          "type": "uint256",
          "internalType": "uint256"
        }
      ],
      "outputs": [
        {
          "name": "endTime",
          "type": "uint40",
          "internalType": "uint40"
        }
      ],
      "stateMutability": "view"
    },
    {
      "type": "function",
      "name": "getRebasingAssetConfiguration",
      "inputs": [
        {
          "name": "asset",
          "type": "address",
          "internalType": "contract IERC20Rebasing"
        }
      ],
      "outputs": [
        {
          "name": "yieldMode",
          "type": "uint8",
          "internalType": "enum YieldMode"
        }
      ],
      "stateMutability": "view"
    },
    {
      "type": "function",
      "name": "getRecipient",
      "inputs": [
        {
          "name": "streamId",
          "type": "uint256",
          "internalType": "uint256"
        }
      ],
      "outputs": [
        {
          "name": "recipient",
          "type": "address",
          "internalType": "address"
        }
      ],
      "stateMutability": "view"
    },
    {
      "type": "function",
      "name": "getRefundedAmount",
      "inputs": [
        {
          "name": "streamId",
          "type": "uint256",
          "internalType": "uint256"
        }
      ],
      "outputs": [
        {
          "name": "refundedAmount",
          "type": "uint128",
          "internalType": "uint128"
        }
      ],
      "stateMutability": "view"
    },
    {
      "type": "function",
      "name": "getSegments",
      "inputs": [
        {
          "name": "streamId",
          "type": "uint256",
          "internalType": "uint256"
        }
      ],
      "outputs": [
        {
          "name": "segments",
          "type": "tuple[]",
          "internalType": "struct LockupDynamic.Segment[]",
          "components": [
            {
              "name": "amount",
              "type": "uint128",
              "internalType": "uint128"
            },
            {
              "name": "exponent",
              "type": "uint64",
              "internalType": "UD2x18"
            },
            {
              "name": "timestamp",
              "type": "uint40",
              "internalType": "uint40"
            }
          ]
        }
      ],
      "stateMutability": "view"
    },
    {
      "type": "function",
      "name": "getSender",
      "inputs": [
        {
          "name": "streamId",
          "type": "uint256",
          "internalType": "uint256"
        }
      ],
      "outputs": [
        {
          "name": "sender",
          "type": "address",
          "internalType": "address"
        }
      ],
      "stateMutability": "view"
    },
    {
      "type": "function",
      "name": "getStartTime",
      "inputs": [
        {
          "name": "streamId",
          "type": "uint256",
          "internalType": "uint256"
        }
      ],
      "outputs": [
        {
          "name": "startTime",
          "type": "uint40",
          "internalType": "uint40"
        }
      ],
      "stateMutability": "view"
    },
    {
      "type": "function",
      "name": "getStream",
      "inputs": [
        {
          "name": "streamId",
          "type": "uint256",
          "internalType": "uint256"
        }
      ],
      "outputs": [
        {
          "name": "stream",
          "type": "tuple",
          "internalType": "struct LockupDynamic.StreamLD",
          "components": [
            {
              "name": "sender",
              "type": "address",
              "internalType": "address"
            },
            {
              "name": "recipient",
              "type": "address",
              "internalType": "address"
            },
            {
              "name": "startTime",
              "type": "uint40",
              "internalType": "uint40"
            },
            {
              "name": "endTime",
              "type": "uint40",
              "internalType": "uint40"
            },
            {
              "name": "isCancelable",
              "type": "bool",
              "internalType": "bool"
            },
            {
              "name": "wasCanceled",
              "type": "bool",
              "internalType": "bool"
            },
            {
              "name": "asset",
              "type": "address",
              "internalType": "contract IERC20"
            },
            {
              "name": "isDepleted",
              "type": "bool",
              "internalType": "bool"
            },
            {
              "name": "isStream",
              "type": "bool",
              "internalType": "bool"
            },
            {
              "name": "isTransferable",
              "type": "bool",
              "internalType": "bool"
            },
            {
              "name": "amounts",
              "type": "tuple",
              "internalType": "struct Lockup.Amounts",
              "components": [
                {
                  "name": "deposited",
                  "type": "uint128",
                  "internalType": "uint128"
                },
                {
                  "name": "withdrawn",
                  "type": "uint128",
                  "internalType": "uint128"
                },
                {
                  "name": "refunded",
                  "type": "uint128",
                  "internalType": "uint128"
                }
              ]
            },
            {
              "name": "segments",
              "type": "tuple[]",
              "internalType": "struct LockupDynamic.Segment[]",
              "components": [
                {
                  "name": "amount",
                  "type": "uint128",
                  "internalType": "uint128"
                },
                {
                  "name": "exponent",
                  "type": "uint64",
                  "internalType": "UD2x18"
                },
                {
                  "name": "timestamp",
                  "type": "uint40",
                  "internalType": "uint40"
                }
              ]
            }
          ]
        }
      ],
      "stateMutability": "view"
    },
    {
      "type": "function",
      "name": "getTimestamps",
      "inputs": [
        {
          "name": "streamId",
          "type": "uint256",
          "internalType": "uint256"
        }
      ],
      "outputs": [
        {
          "name": "timestamps",
          "type": "tuple",
          "internalType": "struct LockupDynamic.Timestamps",
          "components": [
            {
              "name": "start",
              "type": "uint40",
              "internalType": "uint40"
            },
            {
              "name": "end",
              "type": "uint40",
              "internalType": "uint40"
            }
          ]
        }
      ],
      "stateMutability": "view"
    },
    {
      "type": "function",
      "name": "getWithdrawnAmount",
      "inputs": [
        {
          "name": "streamId",
          "type": "uint256",
          "internalType": "uint256"
        }
      ],
      "outputs": [
        {
          "name": "withdrawnAmount",
          "type": "uint128",
          "internalType": "uint128"
        }
      ],
      "stateMutability": "view"
    },
    {
      "type": "function",
      "name": "isAllowedToHook",
      "inputs": [
        {
          "name": "recipient",
          "type": "address",
          "internalType": "address"
        }
      ],
      "outputs": [
        {
          "name": "result",
          "type": "bool",
          "internalType": "bool"
        }
      ],
      "stateMutability": "view"
    },
    {
      "type": "function",
      "name": "isApprovedForAll",
      "inputs": [
        {
          "name": "owner",
          "type": "address",
          "internalType": "address"
        },
        {
          "name": "operator",
          "type": "address",
          "internalType": "address"
        }
      ],
      "outputs": [
        {
          "name": "",
          "type": "bool",
          "internalType": "bool"
        }
      ],
      "stateMutability": "view"
    },
    {
      "type": "function",
      "name": "isCancelable",
      "inputs": [
        {
          "name": "streamId",
          "type": "uint256",
          "internalType": "uint256"
        }
      ],
      "outputs": [
        {
          "name": "result",
          "type": "bool",
          "internalType": "bool"
        }
      ],
      "stateMutability": "view"
    },
    {
      "type": "function",
      "name": "isCold",
      "inputs": [
        {
          "name": "streamId",
          "type": "uint256",
          "internalType": "uint256"
        }
      ],
      "outputs": [
        {
          "name": "result",
          "type": "bool",
          "internalType": "bool"
        }
      ],
      "stateMutability": "view"
    },
    {
      "type": "function",
      "name": "isDepleted",
      "inputs": [
        {
          "name": "streamId",
          "type": "uint256",
          "internalType": "uint256"
        }
      ],
      "outputs": [
        {
          "name": "result",
          "type": "bool",
          "internalType": "bool"
        }
      ],
      "stateMutability": "view"
    },
    {
      "type": "function",
      "name": "isStream",
      "inputs": [
        {
          "name": "streamId",
          "type": "uint256",
          "internalType": "uint256"
        }
      ],
      "outputs": [
        {
          "name": "result",
          "type": "bool",
          "internalType": "bool"
        }
      ],
      "stateMutability": "view"
    },
    {
      "type": "function",
      "name": "isTransferable",
      "inputs": [
        {
          "name": "streamId",
          "type": "uint256",
          "internalType": "uint256"
        }
      ],
      "outputs": [
        {
          "name": "result",
          "type": "bool",
          "internalType": "bool"
        }
      ],
      "stateMutability": "view"
    },
    {
      "type": "function",
      "name": "isWarm",
      "inputs": [
        {
          "name": "streamId",
          "type": "uint256",
          "internalType": "uint256"
        }
      ],
      "outputs": [
        {
          "name": "result",
          "type": "bool",
          "internalType": "bool"
        }
      ],
      "stateMutability": "view"
    },
    {
      "type": "function",
      "name": "name",
      "inputs": [],
      "outputs": [
        {
          "name": "",
          "type": "string",
          "internalType": "string"
        }
      ],
      "stateMutability": "view"
    },
    {
      "type": "function",
      "name": "nextStreamId",
      "inputs": [],
      "outputs": [
        {
          "name": "",
          "type": "uint256",
          "internalType": "uint256"
        }
      ],
      "stateMutability": "view"
    },
    {
      "type": "function",
      "name": "nftDescriptor",
      "inputs": [],
      "outputs": [
        {
          "name": "",
          "type": "address",
          "internalType": "contract ISablierV2NFTDescriptor"
        }
      ],
      "stateMutability": "view"
    },
    {
      "type": "function",
      "name": "ownerOf",
      "inputs": [
        {
          "name": "tokenId",
          "type": "uint256",
          "internalType": "uint256"
        }
      ],
      "outputs": [
        {
          "name": "",
          "type": "address",
          "internalType": "address"
        }
      ],
      "stateMutability": "view"
    },
    {
      "type": "function",
      "name": "refundableAmountOf",
      "inputs": [
        {
          "name": "streamId",
          "type": "uint256",
          "internalType": "uint256"
        }
      ],
      "outputs": [
        {
          "name": "refundableAmount",
          "type": "uint128",
          "internalType": "uint128"
        }
      ],
      "stateMutability": "view"
    },
    {
      "type": "function",
      "name": "renounce",
      "inputs": [
        {
          "name": "streamId",
          "type": "uint256",
          "internalType": "uint256"
        }
      ],
      "outputs": [],
      "stateMutability": "nonpayable"
    },
    {
      "type": "function",
      "name": "safeTransferFrom",
      "inputs": [
        {
          "name": "from",
          "type": "address",
          "internalType": "address"
        },
        {
          "name": "to",
          "type": "address",
          "internalType": "address"
        },
        {
          "name": "tokenId",
          "type": "uint256",
          "internalType": "uint256"
        }
      ],
      "outputs": [],
      "stateMutability": "nonpayable"
    },
    {
      "type": "function",
      "name": "safeTransferFrom",
      "inputs": [
        {
          "name": "from",
          "type": "address",
          "internalType": "address"
        },
        {
          "name": "to",
          "type": "address",
          "internalType": "address"
        },
        {
          "name": "tokenId",
          "type": "uint256",
          "internalType": "uint256"
        },
        {
          "name": "data",
          "type": "bytes",
          "internalType": "bytes"
        }
      ],
      "outputs": [],
      "stateMutability": "nonpayable"
    },
    {
      "type": "function",
      "name": "setApprovalForAll",
      "inputs": [
        {
          "name": "operator",
          "type": "address",
          "internalType": "address"
        },
        {
          "name": "approved",
          "type": "bool",
          "internalType": "bool"
        }
      ],
      "outputs": [],
      "stateMutability": "nonpayable"
    },
    {
      "type": "function",
      "name": "setNFTDescriptor",
      "inputs": [
        {
          "name": "newNFTDescriptor",
          "type": "address",
          "internalType": "contract ISablierV2NFTDescriptor"
        }
      ],
      "outputs": [],
      "stateMutability": "nonpayable"
    },
    {
      "type": "function",
      "name": "statusOf",
      "inputs": [
        {
          "name": "streamId",
          "type": "uint256",
          "internalType": "uint256"
        }
      ],
      "outputs": [
        {
          "name": "status",
          "type": "uint8",
          "internalType": "enum Lockup.Status"
        }
      ],
      "stateMutability": "view"
    },
    {
      "type": "function",
      "name": "streamedAmountOf",
      "inputs": [
        {
          "name": "streamId",
          "type": "uint256",
          "internalType": "uint256"
        }
      ],
      "outputs": [
        {
          "name": "streamedAmount",
          "type": "uint128",
          "internalType": "uint128"
        }
      ],
      "stateMutability": "view"
    },
    {
      "type": "function",
      "name": "supportsInterface",
      "inputs": [
        {
          "name": "interfaceId",
          "type": "bytes4",
          "internalType": "bytes4"
        }
      ],
      "outputs": [
        {
          "name": "",
          "type": "bool",
          "internalType": "bool"
        }
      ],
      "stateMutability": "view"
    },
    {
      "type": "function",
      "name": "symbol",
      "inputs": [],
      "outputs": [
        {
          "name": "",
          "type": "string",
          "internalType": "string"
        }
      ],
      "stateMutability": "view"
    },
    {
      "type": "function",
      "name": "tokenURI",
      "inputs": [
        {
          "name": "streamId",
          "type": "uint256",
          "internalType": "uint256"
        }
      ],
      "outputs": [
        {
          "name": "uri",
          "type": "string",
          "internalType": "string"
        }
      ],
      "stateMutability": "view"
    },
    {
      "type": "function",
      "name": "transferAdmin",
      "inputs": [
        {
          "name": "newAdmin",
          "type": "address",
          "internalType": "address"
        }
      ],
      "outputs": [],
      "stateMutability": "nonpayable"
    },
    {
      "type": "function",
      "name": "transferFrom",
      "inputs": [
        {
          "name": "from",
          "type": "address",
          "internalType": "address"
        },
        {
          "name": "to",
          "type": "address",
          "internalType": "address"
        },
        {
          "name": "tokenId",
          "type": "uint256",
          "internalType": "uint256"
        }
      ],
      "outputs": [],
      "stateMutability": "nonpayable"
    },
    {
      "type": "function",
      "name": "wasCanceled",
      "inputs": [
        {
          "name": "streamId",
          "type": "uint256",
          "internalType": "uint256"
        }
      ],
      "outputs": [
        {
          "name": "result",
          "type": "bool",
          "internalType": "bool"
        }
      ],
      "stateMutability": "view"
    },
    {
      "type": "function",
      "name": "withdraw",
      "inputs": [
        {
          "name": "streamId",
          "type": "uint256",
          "internalType": "uint256"
        },
        {
          "name": "to",
          "type": "address",
          "internalType": "address"
        },
        {
          "name": "amount",
          "type": "uint128",
          "internalType": "uint128"
        }
      ],
      "outputs": [],
      "stateMutability": "nonpayable"
    },
    {
      "type": "function",
      "name": "withdrawMax",
      "inputs": [
        {
          "name": "streamId",
          "type": "uint256",
          "internalType": "uint256"
        },
        {
          "name": "to",
          "type": "address",
          "internalType": "address"
        }
      ],
      "outputs": [
        {
          "name": "withdrawnAmount",
          "type": "uint128",
          "internalType": "uint128"
        }
      ],
      "stateMutability": "nonpayable"
    },
    {
      "type": "function",
      "name": "withdrawMaxAndTransfer",
      "inputs": [
        {
          "name": "streamId",
          "type": "uint256",
          "internalType": "uint256"
        },
        {
          "name": "newRecipient",
          "type": "address",
          "internalType": "address"
        }
      ],
      "outputs": [
        {
          "name": "withdrawnAmount",
          "type": "uint128",
          "internalType": "uint128"
        }
      ],
      "stateMutability": "nonpayable"
    },
    {
      "type": "function",
      "name": "withdrawMultiple",
      "inputs": [
        {
          "name": "streamIds",
          "type": "uint256[]",
          "internalType": "uint256[]"
        },
        {
          "name": "amounts",
          "type": "uint128[]",
          "internalType": "uint128[]"
        }
      ],
      "outputs": [],
      "stateMutability": "nonpayable"
    },
    {
      "type": "function",
      "name": "withdrawableAmountOf",
      "inputs": [
        {
          "name": "streamId",
          "type": "uint256",
          "internalType": "uint256"
        }
      ],
      "outputs": [
        {
          "name": "withdrawableAmount",
          "type": "uint128",
          "internalType": "uint128"
        }
      ],
      "stateMutability": "view"
    },
    {
      "type": "event",
      "name": "AllowToHook",
      "inputs": [
        {
          "name": "admin",
          "type": "address",
          "indexed": true,
          "internalType": "address"
        },
        {
          "name": "recipient",
          "type": "address",
          "indexed": false,
          "internalType": "address"
        }
      ],
      "anonymous": false
    },
    {
      "type": "event",
      "name": "Approval",
      "inputs": [
        {
          "name": "owner",
          "type": "address",
          "indexed": true,
          "internalType": "address"
        },
        {
          "name": "approved",
          "type": "address",
          "indexed": true,
          "internalType": "address"
        },
        {
          "name": "tokenId",
          "type": "uint256",
          "indexed": true,
          "internalType": "uint256"
        }
      ],
      "anonymous": false
    },
    {
      "type": "event",
      "name": "ApprovalForAll",
      "inputs": [
        {
          "name": "owner",
          "type": "address",
          "indexed": true,
          "internalType": "address"
        },
        {
          "name": "operator",
          "type": "address",
          "indexed": true,
          "internalType": "address"
        },
        {
          "name": "approved",
          "type": "bool",
          "indexed": false,
          "internalType": "bool"
        }
      ],
      "anonymous": false
    },
    {
      "type": "event",
      "name": "BatchMetadataUpdate",
      "inputs": [
        {
          "name": "_fromTokenId",
          "type": "uint256",
          "indexed": false,
          "internalType": "uint256"
        },
        {
          "name": "_toTokenId",
          "type": "uint256",
          "indexed": false,
          "internalType": "uint256"
        }
      ],
      "anonymous": false
    },
    {
      "type": "event",
      "name": "CancelLockupStream",
      "inputs": [
        {
          "name": "streamId",
          "type": "uint256",
          "indexed": false,
          "internalType": "uint256"
        },
        {
          "name": "sender",
          "type": "address",
          "indexed": true,
          "internalType": "address"
        },
        {
          "name": "recipient",
          "type": "address",
          "indexed": true,
          "internalType": "address"
        },
        {
          "name": "asset",
          "type": "address",
          "indexed": true,
          "internalType": "contract IERC20"
        },
        {
          "name": "senderAmount",
          "type": "uint128",
          "indexed": false,
          "internalType": "uint128"
        },
        {
          "name": "recipientAmount",
          "type": "uint128",
          "indexed": false,
          "internalType": "uint128"
        }
      ],
      "anonymous": false
    },
    {
      "type": "event",
      "name": "CreateLockupDynamicStream",
      "inputs": [
        {
          "name": "streamId",
          "type": "uint256",
          "indexed": false,
          "internalType": "uint256"
        },
        {
          "name": "funder",
          "type": "address",
          "indexed": false,
          "internalType": "address"
        },
        {
          "name": "sender",
          "type": "address",
          "indexed": true,
          "internalType": "address"
        },
        {
          "name": "recipient",
          "type": "address",
          "indexed": true,
          "internalType": "address"
        },
        {
          "name": "amounts",
          "type": "tuple",
          "indexed": false,
          "internalType": "struct Lockup.CreateAmounts",
          "components": [
            {
              "name": "deposit",
              "type": "uint128",
              "internalType": "uint128"
            },
            {
              "name": "brokerFee",
              "type": "uint128",
              "internalType": "uint128"
            }
          ]
        },
        {
          "name": "asset",
          "type": "address",
          "indexed": true,
          "internalType": "contract IERC20"
        },
        {
          "name": "cancelable",
          "type": "bool",
          "indexed": false,
          "internalType": "bool"
        },
        {
          "name": "transferable",
          "type": "bool",
          "indexed": false,
          "internalType": "bool"
        },
        {
          "name": "segments",
          "type": "tuple[]",
          "indexed": false,
          "internalType": "struct LockupDynamic.Segment[]",
          "components": [
            {
              "name": "amount",
              "type": "uint128",
              "internalType": "uint128"
            },
            {
              "name": "exponent",
              "type": "uint64",
              "internalType": "UD2x18"
            },
            {
              "name": "timestamp",
              "type": "uint40",
              "internalType": "uint40"
            }
          ]
        },
        {
          "name": "timestamps",
          "type": "tuple",
          "indexed": false,
          "internalType": "struct LockupDynamic.Timestamps",
          "components": [
            {
              "name": "start",
              "type": "uint40",
              "internalType": "uint40"
            },
            {
              "name": "end",
              "type": "uint40",
              "internalType": "uint40"
            }
          ]
        },
        {
          "name": "broker",
          "type": "address",
          "indexed": false,
          "internalType": "address"
        }
      ],
      "anonymous": false
    },
    {
      "type": "event",
      "name": "MetadataUpdate",
      "inputs": [
        {
          "name": "_tokenId",
          "type": "uint256",
          "indexed": false,
          "internalType": "uint256"
        }
      ],
      "anonymous": false
    },
    {
      "type": "event",
      "name": "RenounceLockupStream",
      "inputs": [
        {
          "name": "streamId",
          "type": "uint256",
          "indexed": true,
          "internalType": "uint256"
        }
      ],
      "anonymous": false
    },
    {
      "type": "event",
      "name": "SetNFTDescriptor",
      "inputs": [
        {
          "name": "admin",
          "type": "address",
          "indexed": true,
          "internalType": "address"
        },
        {
          "name": "oldNFTDescriptor",
          "type": "address",
          "indexed": false,
          "internalType": "contract ISablierV2NFTDescriptor"
        },
        {
          "name": "newNFTDescriptor",
          "type": "address",
          "indexed": false,
          "internalType": "contract ISablierV2NFTDescriptor"
        }
      ],
      "anonymous": false
    },
    {
      "type": "event",
      "name": "Transfer",
      "inputs": [
        {
          "name": "from",
          "type": "address",
          "indexed": true,
          "internalType": "address"
        },
        {
          "name": "to",
          "type": "address",
          "indexed": true,
          "internalType": "address"
        },
        {
          "name": "tokenId",
          "type": "uint256",
          "indexed": true,
          "internalType": "uint256"
        }
      ],
      "anonymous": false
    },
    {
      "type": "event",
      "name": "TransferAdmin",
      "inputs": [
        {
          "name": "oldAdmin",
          "type": "address",
          "indexed": true,
          "internalType": "address"
        },
        {
          "name": "newAdmin",
          "type": "address",
          "indexed": true,
          "internalType": "address"
        }
      ],
      "anonymous": false
    },
    {
      "type": "event",
      "name": "WithdrawFromLockupStream",
      "inputs": [
        {
          "name": "streamId",
          "type": "uint256",
          "indexed": true,
          "internalType": "uint256"
        },
        {
          "name": "to",
          "type": "address",
          "indexed": true,
          "internalType": "address"
        },
        {
          "name": "asset",
          "type": "address",
          "indexed": true,
          "internalType": "contract IERC20"
        },
        {
          "name": "amount",
          "type": "uint128",
          "indexed": false,
          "internalType": "uint128"
        }
      ],
      "anonymous": false
    },
    {
      "type": "error",
      "name": "AddressEmptyCode",
      "inputs": [
        {
          "name": "target",
          "type": "address",
          "internalType": "address"
        }
      ]
    },
    {
      "type": "error",
      "name": "AddressInsufficientBalance",
      "inputs": [
        {
          "name": "account",
          "type": "address",
          "internalType": "address"
        }
      ]
    },
    {
      "type": "error",
      "name": "CallerNotAdmin",
      "inputs": [
        {
          "name": "admin",
          "type": "address",
          "internalType": "address"
        },
        {
          "name": "caller",
          "type": "address",
          "internalType": "address"
        }
      ]
    },
    {
      "type": "error",
      "name": "DelegateCall",
      "inputs": []
    },
    {
      "type": "error",
      "name": "ERC721IncorrectOwner",
      "inputs": [
        {
          "name": "sender",
          "type": "address",
          "internalType": "address"
        },
        {
          "name": "tokenId",
          "type": "uint256",
          "internalType": "uint256"
        },
        {
          "name": "owner",
          "type": "address",
          "internalType": "address"
        }
      ]
    },
    {
      "type": "error",
      "name": "ERC721InsufficientApproval",
      "inputs": [
        {
          "name": "operator",
          "type": "address",
          "internalType": "address"
        },
        {
          "name": "tokenId",
          "type": "uint256",
          "internalType": "uint256"
        }
      ]
    },
    {
      "type": "error",
      "name": "ERC721InvalidApprover",
      "inputs": [
        {
          "name": "approver",
          "type": "address",
          "internalType": "address"
        }
      ]
    },
    {
      "type": "error",
      "name": "ERC721InvalidOperator",
      "inputs": [
        {
          "name": "operator",
          "type": "address",
          "internalType": "address"
        }
      ]
    },
    {
      "type": "error",
      "name": "ERC721InvalidOwner",
      "inputs": [
        {
          "name": "owner",
          "type": "address",
          "internalType": "address"
        }
      ]
    },
    {
      "type": "error",
      "name": "ERC721InvalidReceiver",
      "inputs": [
        {
          "name": "receiver",
          "type": "address",
          "internalType": "address"
        }
      ]
    },
    {
      "type": "error",
      "name": "ERC721InvalidSender",
      "inputs": [
        {
          "name": "sender",
          "type": "address",
          "internalType": "address"
        }
      ]
    },
    {
      "type": "error",
      "name": "ERC721NonexistentToken",
      "inputs": [
        {
          "name": "tokenId",
          "type": "uint256",
          "internalType": "uint256"
        }
      ]
    },
    {
      "type": "error",
      "name": "FailedInnerCall",
      "inputs": []
    },
    {
      "type": "error",
      "name": "PRBMath_MulDiv18_Overflow",
      "inputs": [
        {
          "name": "x",
          "type": "uint256",
          "internalType": "uint256"
        },
        {
          "name": "y",
          "type": "uint256",
          "internalType": "uint256"
        }
      ]
    },
    {
      "type": "error",
      "name": "PRBMath_MulDiv_Overflow",
      "inputs": [
        {
          "name": "x",
          "type": "uint256",
          "internalType": "uint256"
        },
        {
          "name": "y",
          "type": "uint256",
          "internalType": "uint256"
        },
        {
          "name": "denominator",
          "type": "uint256",
          "internalType": "uint256"
        }
      ]
    },
    {
      "type": "error",
      "name": "PRBMath_SD59x18_Div_InputTooSmall",
      "inputs": []
    },
    {
      "type": "error",
      "name": "PRBMath_SD59x18_Div_Overflow",
      "inputs": [
        {
          "name": "x",
          "type": "int256",
          "internalType": "SD59x18"
        },
        {
          "name": "y",
          "type": "int256",
          "internalType": "SD59x18"
        }
      ]
    },
    {
      "type": "error",
      "name": "PRBMath_SD59x18_Exp2_InputTooBig",
      "inputs": [
        {
          "name": "x",
          "type": "int256",
          "internalType": "SD59x18"
        }
      ]
    },
    {
      "type": "error",
      "name": "PRBMath_SD59x18_IntoUint256_Underflow",
      "inputs": [
        {
          "name": "x",
          "type": "int256",
          "internalType": "SD59x18"
        }
      ]
    },
    {
      "type": "error",
      "name": "PRBMath_SD59x18_Log_InputTooSmall",
      "inputs": [
        {
          "name": "x",
          "type": "int256",
          "internalType": "SD59x18"
        }
      ]
    },
    {
      "type": "error",
      "name": "PRBMath_SD59x18_Mul_InputTooSmall",
      "inputs": []
    },
    {
      "type": "error",
      "name": "PRBMath_SD59x18_Mul_Overflow",
      "inputs": [
        {
          "name": "x",
          "type": "int256",
          "internalType": "SD59x18"
        },
        {
          "name": "y",
          "type": "int256",
          "internalType": "SD59x18"
        }
      ]
    },
    {
      "type": "error",
      "name": "SablierV2LockupDynamic_DepositAmountNotEqualToSegmentAmountsSum",
      "inputs": [
        {
          "name": "depositAmount",
          "type": "uint128",
          "internalType": "uint128"
        },
        {
          "name": "segmentAmountsSum",
          "type": "uint128",
          "internalType": "uint128"
        }
      ]
    },
    {
      "type": "error",
      "name": "SablierV2LockupDynamic_SegmentCountTooHigh",
      "inputs": [
        {
          "name": "count",
          "type": "uint256",
          "internalType": "uint256"
        }
      ]
    },
    {
      "type": "error",
      "name": "SablierV2LockupDynamic_SegmentCountZero",
      "inputs": []
    },
    {
      "type": "error",
      "name": "SablierV2LockupDynamic_SegmentTimestampsNotOrdered",
      "inputs": [
        {
          "name": "index",
          "type": "uint256",
          "internalType": "uint256"
        },
        {
          "name": "previousTimestamp",
          "type": "uint40",
          "internalType": "uint40"
        },
        {
          "name": "currentTimestamp",
          "type": "uint40",
          "internalType": "uint40"
        }
      ]
    },
    {
      "type": "error",
      "name": "SablierV2LockupDynamic_StartTimeNotLessThanFirstSegmentTimestamp",
      "inputs": [
        {
          "name": "startTime",
          "type": "uint40",
          "internalType": "uint40"
        },
        {
          "name": "firstSegmentTimestamp",
          "type": "uint40",
          "internalType": "uint40"
        }
      ]
    },
    {
      "type": "error",
      "name": "SablierV2Lockup_AllowToHookUnsupportedInterface",
      "inputs": [
        {
          "name": "recipient",
          "type": "address",
          "internalType": "address"
        }
      ]
    },
    {
      "type": "error",
      "name": "SablierV2Lockup_AllowToHookZeroCodeSize",
      "inputs": [
        {
          "name": "recipient",
          "type": "address",
          "internalType": "address"
        }
      ]
    },
    {
      "type": "error",
      "name": "SablierV2Lockup_BrokerFeeTooHigh",
      "inputs": [
        {
          "name": "brokerFee",
          "type": "uint256",
          "internalType": "UD60x18"
        },
        {
          "name": "maxBrokerFee",
          "type": "uint256",
          "internalType": "UD60x18"
        }
      ]
    },
    {
      "type": "error",
      "name": "SablierV2Lockup_DepositAmountZero",
      "inputs": []
    },
    {
      "type": "error",
      "name": "SablierV2Lockup_EndTimeNotInTheFuture",
      "inputs": [
        {
          "name": "blockTimestamp",
          "type": "uint40",
          "internalType": "uint40"
        },
        {
          "name": "endTime",
          "type": "uint40",
          "internalType": "uint40"
        }
      ]
    },
    {
      "type": "error",
      "name": "SablierV2Lockup_InvalidHookSelector",
      "inputs": [
        {
          "name": "recipient",
          "type": "address",
          "internalType": "address"
        }
      ]
    },
    {
      "type": "error",
      "name": "SablierV2Lockup_NotTransferable",
      "inputs": [
        {
          "name": "tokenId",
          "type": "uint256",
          "internalType": "uint256"
        }
      ]
    },
    {
      "type": "error",
      "name": "SablierV2Lockup_Null",
      "inputs": [
        {
          "name": "streamId",
          "type": "uint256",
          "internalType": "uint256"
        }
      ]
    },
    {
      "type": "error",
      "name": "SablierV2Lockup_Overdraw",
      "inputs": [
        {
          "name": "streamId",
          "type": "uint256",
          "internalType": "uint256"
        },
        {
          "name": "amount",
          "type": "uint128",
          "internalType": "uint128"
        },
        {
          "name": "withdrawableAmount",
          "type": "uint128",
          "internalType": "uint128"
        }
      ]
    },
    {
      "type": "error",
      "name": "SablierV2Lockup_StartTimeZero",
      "inputs": []
    },
    {
      "type": "error",
      "name": "SablierV2Lockup_StreamCanceled",
      "inputs": [
        {
          "name": "streamId",
          "type": "uint256",
          "internalType": "uint256"
        }
      ]
    },
    {
      "type": "error",
      "name": "SablierV2Lockup_StreamDepleted",
      "inputs": [
        {
          "name": "streamId",
          "type": "uint256",
          "internalType": "uint256"
        }
      ]
    },
    {
      "type": "error",
      "name": "SablierV2Lockup_StreamNotCancelable",
      "inputs": [
        {
          "name": "streamId",
          "type": "uint256",
          "internalType": "uint256"
        }
      ]
    },
    {
      "type": "error",
      "name": "SablierV2Lockup_StreamNotDepleted",
      "inputs": [
        {
          "name": "streamId",
          "type": "uint256",
          "internalType": "uint256"
        }
      ]
    },
    {
      "type": "error",
      "name": "SablierV2Lockup_StreamSettled",
      "inputs": [
        {
          "name": "streamId",
          "type": "uint256",
          "internalType": "uint256"
        }
      ]
    },
    {
      "type": "error",
      "name": "SablierV2Lockup_Unauthorized",
      "inputs": [
        {
          "name": "streamId",
          "type": "uint256",
          "internalType": "uint256"
        },
        {
          "name": "caller",
          "type": "address",
          "internalType": "address"
        }
      ]
    },
    {
      "type": "error",
      "name": "SablierV2Lockup_WithdrawAmountZero",
      "inputs": [
        {
          "name": "streamId",
          "type": "uint256",
          "internalType": "uint256"
        }
      ]
    },
    {
      "type": "error",
      "name": "SablierV2Lockup_WithdrawArrayCountsNotEqual",
      "inputs": [
        {
          "name": "streamIdsCount",
          "type": "uint256",
          "internalType": "uint256"
        },
        {
          "name": "amountsCount",
          "type": "uint256",
          "internalType": "uint256"
        }
      ]
    },
    {
      "type": "error",
      "name": "SablierV2Lockup_WithdrawToZeroAddress",
      "inputs": [
        {
          "name": "streamId",
          "type": "uint256",
          "internalType": "uint256"
        }
      ]
    },
    {
      "type": "error",
      "name": "SablierV2Lockup_WithdrawalAddressNotRecipient",
      "inputs": [
        {
          "name": "streamId",
          "type": "uint256",
          "internalType": "uint256"
        },
        {
          "name": "caller",
          "type": "address",
          "internalType": "address"
        },
        {
          "name": "to",
          "type": "address",
          "internalType": "address"
        }
      ]
    },
    {
      "type": "error",
      "name": "SafeERC20FailedOperation",
      "inputs": [
        {
          "name": "token",
          "type": "address",
          "internalType": "address"
        }
      ]
    }
  ],
  "bytecode": {
    "object": "0x60c0604052346103e457615ef96060813803918261001c816103e8565b9384928339810103126103e45780516001600160a01b038116908190036103e45760208201516001600160a01b03811692908390036103e4576040015161006360406103e8565b92601d84527f5361626c696572205632204c6f636b75702044796e616d6963204e4654000000602085015261009860406103e8565b601181527029a0a116ab1916a627a1a5aaa816a22ca760791b602082015230608052845190946001600160401b0382116102e75760015490600182811c921680156103da575b60208310146102c95781601f84931161036c575b50602090601f8311600114610306575f926102fb575b50508160011b915f199060031b1c1916176001555b83516001600160401b0381116102e757600254600181811c911680156102dd575b60208210146102c957601f8111610266575b50602094601f8211600114610203579481929394955f926101f8575b50508160011b915f199060031b1c1916176002555b5f80546001600160a01b031990811685178255600880549091169290921790915560405192907fbdd36143ee09de60bdefca70680e0f71189b2ed7acee364b53917ad433fdaf808180a360a0526001600755615aeb908161040e823960805181613dd9015260a051818181610dec0152613ea30152f35b015190505f8061016c565b601f1982169560025f52805f20915f5b88811061024e57508360019596979810610236575b505050811b01600255610181565b01515f1960f88460031b161c191690555f8080610228565b91926020600181928685015181550194019201610213565b60025f527f405787fa12a823e0f2b7631cc41b3ba8828b3321ca811111fa75cd3aa3bb5ace601f830160051c810191602084106102bf575b601f0160051c01905b8181106102b45750610150565b5f81556001016102a7565b909150819061029e565b634e487b7160e01b5f52602260045260245ffd5b90607f169061013e565b634e487b7160e01b5f52604160045260245ffd5b015190505f80610108565b60015f9081528281209350601f198516905b818110610354575090846001959493921061033c575b505050811b0160015561011d565b01515f1960f88460031b161c191690555f808061032e565b92936020600181928786015181550195019301610318565b60015f529091507fb10e2d527612073b26eecdfd717e6a320cf44b4afac2b0732d9fcbe2b7fa0cf6601f840160051c810191602085106103d0575b90601f859493920160051c01905b8181106103c257506100f2565b5f81558493506001016103b5565b90915081906103a7565b91607f16916100de565b5f80fd5b6040519190601f01601f191682016001600160401b038111838210176102e75760405256fe6080806040526004361015610012575f80fd5b5f905f3560e01c90816301ffc9a714612c2957508063027b674414612c0757806306fdde0314612b13578063081812fc14612af5578063095ea7b3146129f05780631400ecec1461293f5780631c1cdd4c146128db5780631e99d569146128be57806323b872dd146128a75780632c5a6fb814612804578063303acc85146127c757806331df3d48146126b4578063406887cb1461254557806340e58ee51461222c578063425d30dd146121dc57806342842e0e146121b357806342966c6814611fef5780634426757014611fc95780634857501f14611f585780634869e12d14611f1e5780634cc55e1114611e2657806354c0229214611b7557806357404b1214611ae95780636352211e1461196257806363e5554914611a465780636900ebd0146119915780636d0cee751461196257806370a08231146118f857806375829def1461188a5780637cad6cd1146117af5780637de6b1db146116305780638659c27014611232578063894e9a0d14610f035780638f69b99314610e6f5780639067b67714610e0f5780639188ec8414610dd55780639327333514610cdb57806395d89b4114610bce578063a22cb46514610b18578063a80fc07114610ac5578063a8ef018a14610a0d578063ad35efd41461099a578063b256456914610948578063b637b865146108ec578063b88d4fde1461085e578063b8a3be6614610829578063b971302a146107d9578063bc2be1be14610788578063c156a11d14610657578063c87b56dd1461053b578063d4dbd20b146104e8578063d511609f1461049b578063d975dfed1461045f578063e985e9c51461040c578063ea5ead19146103c7578063eac8f5b814610374578063f590c17614610317578063f851a440146102f15763fdd46d60146102a7575f80fd5b346102ee5760603660031901126102ee576102c0612d56565b6044356001600160801b03811681036102ea576102e7916102df613dcf565b600435613883565b80f35b8280fd5b80fd5b50346102ee57806003193601126102ee576001600160a01b036020915416604051908152f35b50346102ee5760203660031901126102ee5760043590818152600a60205260ff600160408320015460a81c1615610363578060209260409252600a8352205460f81c6040519015158152f35b60249162b8e7e760e51b8252600452fd5b50346102ee5760203660031901126102ee5760043590818152600a60205260ff600160408320015460a81c16156103635760016040826020946001600160a01b039452600a855220015416604051908152f35b50346102ee5760403660031901126102ee5760206004356103fb6103e9612d56565b916103f3816146aa565b928391613514565b6001600160801b0360405191168152f35b50346102ee5760403660031901126102ee576001600160a01b036040610430612d40565b928261043a612d56565b9416815260066020522091165f52602052602060ff60405f2054166040519015158152f35b50346102ee5760203660031901126102ee5760043590815f52600a60205260ff600160405f20015460a81c16156103635760206103fb836146aa565b50346102ee5760203660031901126102ee5760043590818152600a60205260ff600160408320015460a81c16156103635760408160209360029352600a845220015460801c604051908152f35b50346102ee5760203660031901126102ee5760043590818152600a60205260ff600160408320015460a81c16156103635760036040826020946001600160801b039452600a855220015416604051908152f35b50346102ee5760203660031901126102ee5760043561055981613b51565b50816001600160a01b0360085416916044604051809481937fe9dc637500000000000000000000000000000000000000000000000000000000835230600484015260248301525afa90811561064c5782916105c9575b604051602080825281906105c590820185612d1b565b0390f35b90503d8083833e6105da8183612ee6565b8101906020818303126102ea5780519067ffffffffffffffff8211610648570181601f820112156102ea5780519261061184612f08565b9261061f6040519485612ee6565b848452602085840101116102ee57506105c5926106429160208085019101612cfa565b5f6105af565b8380fd5b6040513d84823e3d90fd5b50346102ee5760403660031901126102ee5760043590610675612d56565b9161067e613dcf565b808252600a60205260ff600160408420015460a81c161561077657805f5260036020526001600160a01b0360405f2054169283330361075e576106c0826146aa565b6001600160801b038116918261074e575b6001600160a01b0381161561073b576106f2846001600160a01b0392613c95565b168061070b5760248585637e27328960e01b8252600452fd5b8086948587930361072157602085604051908152f35b60649350856364283d7b60e01b8452600452602452604452fd5b602485633250574960e11b815280600452fd5b610759828786613514565b6106d1565b63216caf0d60e01b8352600482905233602452604483fd5b6024925062b8e7e760e51b8252600452fd5b50346102ee5760203660031901126102ee5760043590818152600a60205260ff600160408320015460a81c16156103635760408160209364ffffffffff9352600a8452205460a01c16604051908152f35b50346102ee5760203660031901126102ee5760043590818152600a60205260ff600160408320015460a81c1615610363576040816020936001600160a01b039352600a8452205416604051908152f35b50346102ee5760203660031901126102ee5760ff600160406020936004358152600a855220015460a81c166040519015158152f35b50346102ee5760803660031901126102ee57610878612d40565b610880612d56565b906064359067ffffffffffffffff8211610648573660238301121561064857816004013592846108af85612f08565b936108bd6040519586612ee6565b85855236602487830101116108e857856102e796602460209301838801378501015260443591613424565b5080fd5b50346102ee5760203660031901126102ee5760043590818152600a60205260ff600160408320015460a81c1615610363576040816105c5936109349352600b6020522061339d565b604051918291602083526020830190612deb565b50346102ee5760203660031901126102ee5760043590818152600a60205260ff600160408320015460a81c161561036357600160408260209460ff9452600a855220015460b01c166040519015158152f35b50346102ee5760203660031901126102ee57600435805f52600a60205260ff600160405f20015460a81c16156109fc576109d390613c01565b6040519060058110156109e857602092508152f35b602483634e487b7160e01b81526021600452fd5b62b8e7e760e51b8252600452602490fd5b50346102ee5760203660031901126102ee57602460206001600160a01b03610a33612d40565b16604051928380927fc44b11f70000000000000000000000000000000000000000000000000000000082523060048301525afa90811561064c578291610a86575b602082610a846040518092612e5d565bf35b90506020813d602011610abd575b81610aa160209383612ee6565b810103126108e8575160038110156108e857602091505f610a74565b3d9150610a94565b50346102ee5760203660031901126102ee5760043590818152600a60205260ff600160408320015460a81c16156103635760026040826020946001600160801b039452600a855220015416604051908152f35b50346102ee5760403660031901126102ee57610b32612d40565b602435908115158092036102ea576001600160a01b0316908115610ba257338352600660205260408320825f5260205260405f2060ff1981541660ff83161790556040519081527f17307eab39ab6107e8899845ad3d59bd9653f200f220920489ca2b5937696c3160203392a380f35b602483837f5b08ba18000000000000000000000000000000000000000000000000000000008252600452fd5b50346102ee57806003193601126102ee576040519080600254908160011c91600181168015610cd1575b602084108114610cbd57838652908115610c965750600114610c39575b6105c584610c2581860382612ee6565b604051918291602083526020830190612d1b565b600281527f405787fa12a823e0f2b7631cc41b3ba8828b3321ca811111fa75cd3aa3bb5ace939250905b808210610c7c57509091508101602001610c2582610c15565b919260018160209254838588010152019101909291610c63565b60ff191660208087019190915292151560051b85019092019250610c259150839050610c15565b602483634e487b7160e01b81526022600452fd5b92607f1692610bf8565b5034610dbb576080366003190112610dbb576004356001600160a01b038116809103610dbb576024356003811015610dbb57604435916002831015610dbb57606435906001600160a01b038216809203610dbb576001600160a01b035f5416338103610dbf5750803b15610dbb575f9283606492610d889460405197889687957fc8992e610000000000000000000000000000000000000000000000000000000087526004870190612e5d565b602485015260448401525af18015610db057610da2575080f35b610dae91505f90612ee6565b005b6040513d5f823e3d90fd5b5f80fd5b6331b339a960e21b5f526004523360245260445ffd5b34610dbb575f366003190112610dbb5760206040517f00000000000000000000000000000000000000000000000000000000000000008152f35b34610dbb576020366003190112610dbb57600435805f52600a60205260ff600160405f20015460a81c1615610e5e575f52600a602052602064ffffffffff60405f205460c81c16604051908152f35b62b8e7e760e51b5f5260045260245ffd5b34610dbb576020366003190112610dbb57600435805f52600a60205260ff600160405f20015460a81c1615610e5e57610ea790613c01565b600581101580610ee35760028214908115610ef7575b8115610ed1575b6020826040519015158152f35b9050610ee35760046020911482610ec4565b634e487b7160e01b5f52602160045260245ffd5b5050600381145f610ebd565b34610dbb576020366003190112610dbb57600435604051610180810181811067ffffffffffffffff82111761121e57606091610160916040525f81525f60208201525f60408201525f838201525f60808201525f60a08201525f60c08201525f60e08201525f6101008201525f610120820152610f7e61334d565b6101408201520152805f52600a60205260ff600160405f20015460a81c1615610e5e57805f52600a60205260405f20604051610fb981612ec9565b8154906001600160a01b0382168152602081019264ffffffffff8360a01c1684526040820164ffffffffff8460c81c168152606083019160ff8560f01c1615158352608084019460f81c1515855260018101549160a08501946001600160a01b038416865260c0810160ff8560a01c1615158152611058600260e084019560ff8860a81c161515875260ff61010086019860b01c16151588520161336b565b6101208301908152600261106b8c613c01565b61107481612e6a565b14611216575b5196516001600160a01b0316925164ffffffffff1695511515905115159351151594511515958a5f52600360205260405f20546001600160a01b03169a5f52600b60205260405f2092516001600160a01b0316995164ffffffffff1698511515926040519a6110eb6101808d612ee6565b8b5260208b019b8c5260408b01998a5260608b0191825260808b0192835260a08b0193845260c08b0194855260e08b019586526101008b019687526101208b019788526101408b0198895261113f9061339d565b986101608b01998a526040519b8c9b60208d52516001600160a01b031660208d0152516001600160a01b031660408c01525164ffffffffff1660608b01525164ffffffffff1660808a015251151560a089015251151560c0880152516001600160a01b031660e08701525115156101008601525115156101208501525115156101408401525180516001600160801b031661016084015260208101516001600160801b0316610180840152604001516001600160801b03166101a0830152516101c082016101c090526101e082016105c591612deb565b5f875261107a565b634e487b7160e01b5f52604160045260245ffd5b34610dbb576020366003190112610dbb5760043567ffffffffffffffff8111610dbb57611263903690600401612dba565b9061126c613dcf565b5f915b80831061127857005b6112838382846132dc565b359261128d613dcf565b835f52600a60205260ff600160405f20015460a81c161561161d57835f52600a60205260ff600160405f20015460a01c165f146112d75783634a5541ef60e01b5f5260045260245ffd5b909192805f52600a60205260405f205460f81c61160b5761130c815f52600a6020526001600160a01b0360405f205416331490565b156115f55761131a81613b72565b90805f52600a602052611332600260405f200161336b565b916001600160801b038351166001600160801b03821610156115e157815f52600a60205260ff60405f205460f01c16156115cd57806001600160801b03602081611386948188511603169501511690612f5a565b5f828152600a6020526040902080547dffffffffffffffffffffffffffffffffffffffffffffffffffffffffffff16600160f81b179055916001600160801b0383169081156115a8575b825f52600a602052600360405f20016001600160801b0382166fffffffffffffffffffffffffffffffff19825416179055825f52600a6020526001600160a01b0360405f205416835f5260036020526001600160a01b0360405f20541694845f52600a60205285827f5edb27d6c1a327513b90a792050debf074b7194444885e3144d4decc5caaaa506114a16001600160a01b03600160405f2001541694611479888588614b04565b604080518b81526001600160801b03808b166020830152909216908201529081906060820190565b0390a47ff8e1a15aba9398e019f0b49df1a4fde98ee17ae345cb5f6b5e2c27f5033e8ce76020604051868152a160ff6114eb866001600160a01b03165f52600960205260405f2090565b5416611501575b5050505050600101919061126f565b60405193630d4af11f60e31b855260048501526024840152604483015260648201526020816084815f865af1908115610db057630d4af11f60e31b916001600160e01b0319915f9161157a575b50160361155e57808080806114f2565b632187e5e760e21b5f526001600160a01b03602491166004525ffd5b61159b915060203d81116115a1575b6115938183612ee6565b810190613b31565b8761154e565b503d611589565b825f52600a602052600160405f2001600160a01b60ff60a01b198254161790556113d0565b506339c6dc7360e21b5f526024906004525ffd5b506322cad1af60e11b5f526024906004525ffd5b63216caf0d60e01b5f526004523360245260445ffd5b63fe19f19f60e01b5f5260045260245ffd5b8362b8e7e760e51b5f526024906004525ffd5b34610dbb576020366003190112610dbb5760043561164c613dcf565b805f52600a60205260ff600160405f20015460a81c1615610e5e5761167081613c01565b61167981612e6a565b600481036116945750634a5541ef60e01b5f5260045260245ffd5b61169d81612e6a565b600381036116b8575063fe19f19f60e01b5f5260045260245ffd5b6002906116c481612e6a565b1461179d576116e7815f52600a6020526001600160a01b0360405f205416331490565b1561177e57805f52600a60205260ff60405f205460f01c161561176c576020817ff8e1a15aba9398e019f0b49df1a4fde98ee17ae345cb5f6b5e2c27f5033e8ce7925f52600a825260405f2060ff60f01b19815416905560405190807f0eb069207093cd3e51cd1370d2d369770057fbe29947e577e5fb428c6c6fc78f5f80a28152a1005b6339c6dc7360e21b5f5260045260245ffd5b63216caf0d60e01b5f526004526001600160a01b03331660245260445ffd5b6322cad1af60e11b5f5260045260245ffd5b34610dbb576020366003190112610dbb576004356001600160a01b038116809103610dbb576001600160a01b035f5416338103610dbf575060085490806001600160a01b03198316176008556001600160a01b036040519216825260208201527fa2548bd4b805e907c1558a47b5858324fe8bb4a2e1ddfca647eecbf65610eebc60403392a26007545f1981019081116118765760407f6bd5c950a8d8df17f772f5af37cb3655737899cbf903264b9795592da439661c91815190600182526020820152a1005b634e487b7160e01b5f52601160045260245ffd5b34610dbb576020366003190112610dbb576118a3612d40565b5f546001600160a01b038116338103610dbf57506001600160a01b036001600160a01b0319921691829116175f55337fbdd36143ee09de60bdefca70680e0f71189b2ed7acee364b53917ad433fdaf805f80a3005b34610dbb576020366003190112610dbb576001600160a01b03611919612d40565b168015611936575f526004602052602060405f2054604051908152f35b7f89c62b64000000000000000000000000000000000000000000000000000000005f525f60045260245ffd5b34610dbb576020366003190112610dbb576020611980600435613b51565b6001600160a01b0360405191168152f35b34610dbb576040366003190112610dbb576119aa612d40565b6024356003811015610dbb576001600160a01b035f5416338103610dbf5750611a0f60246020925f6001600160a01b0360405196879586947f1a33757d0000000000000000000000000000000000000000000000000000000086526004860190612e5d565b165af18015610db057611a1e57005b610dae9060203d602011611a3f575b611a378183612ee6565b8101906131bf565b503d611a2d565b34610dbb576020366003190112610dbb57602460206001600160a01b03611a6b612d40565b16604051928380927fe12f3a610000000000000000000000000000000000000000000000000000000082523060048301525afa8015610db0575f90611ab6575b602090604051908152f35b506020813d602011611ae1575b81611ad060209383612ee6565b81010312610dbb5760209051611aab565b3d9150611ac3565b34610dbb576020366003190112610dbb57600435611b05613335565b50805f52600a60205260ff600160405f20015460a81c1615610e5e575f908152600a6020526040908190205481519064ffffffffff60c882901c81169160a01c16611b4f83612ead565b82526020820152610a848251809264ffffffffff60208092828151168552015116910152565b34610dbb576020366003190112610dbb5760043567ffffffffffffffff8111610dbb57803603610120600319820112610dbb57611bb0613dcf565b60c48201359060221901811215610dbb57810160048101359067ffffffffffffffff8211610dbb576024016060820236038113610dbb57611bf29136916131f8565b90815191611bff836131e0565b92611c0d6040519485612ee6565b808452601f19611c1c826131e0565b015f5b818110611e0f57505064ffffffffff4216916001600160801b03611c4282613e29565b51511667ffffffffffffffff6020611c5984613e29565b5101511664ffffffffff806040611c6f86613e29565b510151168601169060405192611c8484612e91565b835260208301526040820152611c9986613e29565b52611ca385613e29565b5060015b828110611d7b57505050611cbd82600401613314565b92611cca60248401613314565b92611cd760448201613300565b916064820135936001600160a01b038516809503610dbb57602096611d7396611d33966001600160801b03611d68976001600160a01b03611d1a60848a01613328565b9481611d2860a48c01613328565b976040519d8e612e74565b168c52168c8b0152166040890152606088015215156080870152151560a086015260c085015260e084015260e4369101613295565b610100820152613e4a565b604051908152f35b806001600160801b03611d9060019385613e36565b51511667ffffffffffffffff6020611da88487613e36565b5101511664ffffffffff806040611dc25f1987018d613e36565b51015116816040611dd3878a613e36565b5101511601169060405192611de784612e91565b835260208301526040820152611dfd8289613e36565b52611e088188613e36565b5001611ca7565b602090611e1a61334d565b82828901015201611c1f565b34610dbb576040366003190112610dbb5760043567ffffffffffffffff8111610dbb57611e57903690600401612dba565b9060243567ffffffffffffffff8111610dbb57611e78903690600401612dba565b9091611e82613dcf565b818403611eee575f5b848110611e9457005b80611ee8611ea560019388866132dc565b35611eb18389876132dc565b355f5260036020526001600160a01b0360405f205416611eda611ed585898b6132dc565b613300565b91611ee3613dcf565b613883565b01611e8b565b50827faec93440000000000000000000000000000000000000000000000000000000005f5260045260245260445ffd5b34610dbb576020366003190112610dbb57600435805f52600a60205260ff600160405f20015460a81c1615610e5e576103fb6020916145fa565b34610dbb576020366003190112610dbb57600435805f52600a60205260ff600160405f20015460a81c1615610e5e575f611f9182613c01565b6005811015610ee357600203611faf575b6020906040519015158152f35b505f52600a602052602060ff60405f205460f01c16611fa2565b34610dbb575f366003190112610dbb5760206001600160a01b0360085416604051908152f35b34610dbb576020366003190112610dbb5760043561200b613dcf565b805f52600a60205260ff600160405f20015460a81c1615610e5e57805f52600a60205260ff600160405f20015460a01c16156121885761204a81614588565b156115f557805f5260036020526001600160a01b0360405f205416151580612181575b80612164575b612152577ff8e1a15aba9398e019f0b49df1a4fde98ee17ae345cb5f6b5e2c27f5033e8ce76020604051838152a1805f5260036020526001600160a01b0360405f205416801590811561211b575b825f52600360205260405f206001600160a01b03198154169055825f827fddf252ad1be2c89b69c2b068fc378daa952ba7f163c4a11628f55a4df523b3ef8280a45061210957005b637e27328960e01b5f5260045260245ffd5b61213a835f52600560205260405f206001600160a01b03198154169055565b805f52600460205260405f205f1981540190556120c1565b630da9b01360e01b5f5260045260245ffd5b50805f52600a60205260ff600160405f20015460b01c1615612073565b505f61206d565b7f817cd639000000000000000000000000000000000000000000000000000000005f5260045260245ffd5b34610dbb57610dae6121c436612d80565b90604051926121d4602085612ee6565b5f8452613424565b34610dbb576020366003190112610dbb57600435805f52600a60205260ff600160405f20015460a81c1615610e5e575f52600a602052602060ff600160405f20015460a01c166040519015158152f35b34610dbb576020366003190112610dbb57600435612248613dcf565b805f52600a60205260ff600160405f20015460a81c1615610e5e57805f52600a60205260ff600160405f20015460a01c165f1461229157634a5541ef60e01b5f5260045260245ffd5b805f52600a60205260405f205460f81c61160b576122c3815f52600a6020526001600160a01b0360405f205416331490565b1561177e576122d181613b72565b90805f52600a6020526122e9600260405f200161336b565b916001600160801b038351166001600160801b038216101561253257815f52600a60205260ff60405f205460f01c161561251f57806001600160801b0360208161233d948188511603169501511690612f5a565b5f828152600a6020526040902080547dffffffffffffffffffffffffffffffffffffffffffffffffffffffffffff16600160f81b179055916001600160801b0383169081156124fa575b825f52600a602052600360405f20016001600160801b0382166fffffffffffffffffffffffffffffffff19825416179055825f52600a6020526001600160a01b0360405f205416835f5260036020526001600160a01b0360405f20541694845f52600a60205285827f5edb27d6c1a327513b90a792050debf074b7194444885e3144d4decc5caaaa506124306001600160a01b03600160405f2001541694611479888588614b04565b0390a47ff8e1a15aba9398e019f0b49df1a4fde98ee17ae345cb5f6b5e2c27f5033e8ce76020604051868152a1845f52600960205260ff60405f20541661247357005b60405193630d4af11f60e31b855260048501526024840152604483015260648201526020816084815f865af1908115610db057630d4af11f60e31b916001600160e01b0319915f916124db575b5016036124c957005b632187e5e760e21b5f5260045260245ffd5b6124f4915060203d6020116115a1576115938183612ee6565b846124c0565b825f52600a602052600160405f2001600160a01b60ff60a01b19825416179055612387565b506339c6dc7360e21b5f5260045260245ffd5b506322cad1af60e11b5f5260045260245ffd5b34610dbb576020366003190112610dbb5761255e612d40565b6001600160a01b035f54169033820361269d57806001600160a01b03913b1561267157166040516301ffc9a760e01b81527ff8ee98d3000000000000000000000000000000000000000000000000000000006004820152602081602481855afa908115610db0575f91612642575b501561261757805f52600960205260405f20600160ff198254161790556040519081527fb4378d4e289cb3f40f4f75a99c9cafa76e3df1c4dc31309babc23dc91bd7280160203392a2005b7f7fb843ea000000000000000000000000000000000000000000000000000000005f5260045260245ffd5b612664915060203d60201161266a575b61265c8183612ee6565b8101906132c4565b826125cc565b503d612652565b7f5a2b2d83000000000000000000000000000000000000000000000000000000005f521660045260245ffd5b506331b339a960e21b5f526004523360245260445ffd5b34610dbb576020366003190112610dbb5760043567ffffffffffffffff8111610dbb576101406003198236030112610dbb576126ee613dcf565b604051906126fb82612e74565b61270781600401612d6c565b825261271560248201612d6c565b602083015261272660448201612f24565b604083015260648101356001600160a01b0381168103610dbb57606083015261275160848201612e50565b608083015261276260a48201612e50565b60a083015261277360c482016131ce565b60c083015260e481013567ffffffffffffffff8111610dbb5781019136602384011215610dbb57611d68611d73926127b760209536906024600482013591016131f8565b60e0840152610104369101613295565b34610dbb576020366003190112610dbb576001600160a01b036127e8612d40565b165f526009602052602060ff60405f2054166040519015158152f35b34610dbb576060366003190112610dbb5761281d612d40565b6044356001600160a01b0381168103610dbb576001600160a01b035f5416338103610dbf576040517faad3ec960000000000000000000000000000000000000000000000000000000081526001600160a01b0383811660048301526024803590830152602090829060449082905f9089165af18015610db0575f90611ab657602090604051908152f35b34610dbb57610dae6128b836612d80565b91612f7a565b34610dbb575f366003190112610dbb576020600754604051908152f35b34610dbb576020366003190112610dbb57600435805f52600a60205260ff600160405f20015460a81c1615610e5e5761291390613c01565b6005811015610ee3578060209115908115612934575b506040519015158152f35b600191501482612929565b34610dbb576020366003190112610dbb57600435805f52600a60205260ff600160405f20015460a81c1615610e5e576020905f90805f52600a835260ff60405f205460f01c16806129d4575b6129a2575b506001600160801b0360405191168152f35b6129ce9150805f52600a83526129c86001600160801b03600260405f2001541691613b72565b90612f5a565b82612990565b50805f52600a835260ff600160405f20015460a01c161561298b565b34610dbb576040366003190112610dbb57612a09612d40565b602435612a1581613b51565b33151580612ae2575b80612aaf575b612a835781906001600160a01b0380851691167f8c5be1e5ebec7d5bd14f71427d1e84f3dd0314c0f7b2291e5b200ac8c7c3b9255f80a45f5260056020526001600160a01b0360405f2091166001600160a01b03198254161790555f80f35b7fa9fbf51f000000000000000000000000000000000000000000000000000000005f523360045260245ffd5b506001600160a01b0381165f52600660205260405f206001600160a01b0333165f5260205260ff60405f20541615612a24565b50336001600160a01b0382161415612a1e565b34610dbb576020366003190112610dbb576020611980600435612f38565b34610dbb575f366003190112610dbb576040515f6001548060011c90600181168015612bfd575b602083108114612be957828552908115612bc55750600114612b67575b6105c583610c2581850382612ee6565b91905060015f527fb10e2d527612073b26eecdfd717e6a320cf44b4afac2b0732d9fcbe2b7fa0cf6915f905b808210612bab57509091508101602001610c25612b57565b919260018160209254838588010152019101909291612b93565b60ff191660208086019190915291151560051b84019091019150610c259050612b57565b634e487b7160e01b5f52602260045260245ffd5b91607f1691612b3a565b34610dbb575f366003190112610dbb57602060405167016345785d8a00008152f35b34610dbb576020366003190112610dbb57600435906001600160e01b03198216809203610dbb57817f490649060000000000000000000000000000000000000000000000000000000060209314908115612c85575b5015158152f35b7f80ac58cd00000000000000000000000000000000000000000000000000000000811491508115612cd0575b8115612cbf575b5083612c7e565b6301ffc9a760e01b91501483612cb8565b7f5b5e139f0000000000000000000000000000000000000000000000000000000081149150612cb1565b5f5b838110612d0b5750505f910152565b8181015183820152602001612cfc565b90602091612d3481518092818552858086019101612cfa565b601f01601f1916010190565b600435906001600160a01b0382168203610dbb57565b602435906001600160a01b0382168203610dbb57565b35906001600160a01b0382168203610dbb57565b6060906003190112610dbb576004356001600160a01b0381168103610dbb57906024356001600160a01b0381168103610dbb579060443590565b9181601f84011215610dbb5782359167ffffffffffffffff8311610dbb576020808501948460051b010111610dbb57565b90602080835192838152019201905f5b818110612e085750505090565b9091926020606060019264ffffffffff604088516001600160801b03815116845267ffffffffffffffff86820151168685015201511660408201520194019101919091612dfb565b35908115158203610dbb57565b906003821015610ee35752565b60051115610ee357565b610120810190811067ffffffffffffffff82111761121e57604052565b6060810190811067ffffffffffffffff82111761121e57604052565b6040810190811067ffffffffffffffff82111761121e57604052565b610140810190811067ffffffffffffffff82111761121e57604052565b90601f8019910116810190811067ffffffffffffffff82111761121e57604052565b67ffffffffffffffff811161121e57601f01601f191660200190565b35906001600160801b0382168203610dbb57565b612f4181613b51565b505f5260056020526001600160a01b0360405f20541690565b906001600160801b03809116911603906001600160801b03821161187657565b91906001600160a01b031680156131ac57815f5260036020526001600160a01b0360405f2054161515806131a4575b80613187575b613174577ff8e1a15aba9398e019f0b49df1a4fde98ee17ae345cb5f6b5e2c27f5033e8ce76020604051848152a1815f5260036020526001600160a01b0360405f205416928233151592836130bf575b6001600160a01b03935085613088575b805f52600460205260405f2060018154019055815f52600360205260405f20816001600160a01b0319825416179055857fddf252ad1be2c89b69c2b068fc378daa952ba7f163c4a11628f55a4df523b3ef5f80a41680830361307057505050565b6364283d7b60e01b5f5260045260245260445260645ffd5b6130a7825f52600560205260405f206001600160a01b03198154169055565b855f52600460205260405f205f19815401905561300f565b919290508061311d575b156130d657828291612fff565b82846130ee57637e27328960e01b5f5260045260245ffd5b7f177e802f000000000000000000000000000000000000000000000000000000005f523360045260245260445ffd5b50338414801561314b575b806130c95750825f526005602052336001600160a01b0360405f205416146130c9565b50835f52600660205260405f206001600160a01b0333165f5260205260ff60405f205416613128565b50630da9b01360e01b5f5260045260245ffd5b50815f52600a60205260ff600160405f20015460b01c1615612faf565b506001612fa9565b633250574960e11b5f525f60045260245ffd5b90816020910312610dbb575190565b359064ffffffffff82168203610dbb57565b67ffffffffffffffff811161121e5760051b60200190565b929192613204826131e0565b936132126040519586612ee6565b6060602086858152019302820191818311610dbb57925b8284106132365750505050565b606084830312610dbb576040519061324d82612e91565b61325685612f24565b825260208501359067ffffffffffffffff82168203610dbb5782602092836060950152613285604088016131ce565b6040820152815201930192613229565b9190826040910312610dbb576040516132ad81612ead565b60208082946132bb81612d6c565b84520135910152565b90816020910312610dbb57518015158103610dbb5790565b91908110156132ec5760051b0190565b634e487b7160e01b5f52603260045260245ffd5b356001600160801b0381168103610dbb5790565b356001600160a01b0381168103610dbb5790565b358015158103610dbb5790565b6040519061334282612ead565b5f6020838281520152565b6040519061335a82612e91565b5f6040838281528260208201520152565b9060405161337881612e91565b60406001600160801b03600183958054838116865260801c6020860152015416910152565b9081546133a9816131e0565b926133b76040519485612ee6565b81845260208401905f5260205f205f915b8383106133d55750505050565b6001602081926040516133e781612e91565b64ffffffffff86546001600160801b038116835267ffffffffffffffff8160801c168584015260c01c1660408201528152019201920191906133c8565b90613430838284612f7a565b803b61343d575b50505050565b6020916134836001600160a01b03809316956040519586948594630a85bd0160e11b86523360048701521660248501526044840152608060648401526084830190612d1b565b03815f865af15f91816134f3575b506134bf575061349f61467b565b805190816134ba5782633250574960e11b5f5260045260245ffd5b602001fd5b6001600160e01b0319630a85bd0160e11b9116036134e157505f808080613437565b633250574960e11b5f5260045260245ffd5b61350d91925060203d6020116115a1576115938183612ee6565b905f613491565b9061351d613dcf565b815f52600a60205260ff600160405f20015460a81c161561387157815f52600a60205260ff600160405f20015460a01c1661385e576001600160a01b0381168015613832576001600160801b03841691821561380657835f5260036020526001600160a01b0360405f2054169485831415806137f6575b6137c2576001600160801b036135a9866146aa565b1680851161378f57506135ce90855f52600a602052600260405f20015460801c6146d0565b5f858152600a6020526040902060020180546001600160801b031660809290921b6fffffffffffffffffffffffffffffffff19169190911781556136119061336b565b6001600160801b036136358160208401511692826040818351169201511690612f5a565b16111561375d575b835f52600a602052613661836001600160a01b03600160405f200154169283614b04565b81847f40b88e5c41c5a97ffb7b6ef88a0a2d505aa0c634cf8a0275cb236ea7dd87ed4d6020604051878152a47ff8e1a15aba9398e019f0b49df1a4fde98ee17ae345cb5f6b5e2c27f5033e8ce76020604051858152a18333141580613747575b6136cb5750505050565b604051926392b9102b60e01b84526004840152336024840152604483015260648201526020816084815f865af1908115610db0576392b9102b60e01b916001600160e01b0319915f91613728575b5016036124c957808080613437565b613741915060203d6020116115a1576115938183612ee6565b5f613719565b50835f52600960205260ff60405f2054166136c1565b5f848152600a6020526040902060018101805460ff60a01b1916600160a01b179055805460ff60f01b1916905561363d565b84867fa1fb2bbc000000000000000000000000000000000000000000000000000000005f5260045260245260445260645ffd5b82857fb34359d3000000000000000000000000000000000000000000000000000000005f526004523360245260445260645ffd5b5061380085614588565b15613594565b837fd2aabcd9000000000000000000000000000000000000000000000000000000005f5260045260245ffd5b827f7fbf7168000000000000000000000000000000000000000000000000000000005f5260045260245ffd5b50634a5541ef60e01b5f5260045260245ffd5b5062b8e7e760e51b5f5260045260245ffd5b90815f52600a60205260ff600160405f20015460a81c161561387157815f52600a60205260ff600160405f20015460a01c1661385e576001600160a01b0381168015613832576001600160801b03841691821561380657835f5260036020526001600160a01b0360405f205416948583141580613b21575b6137c2576001600160801b03613910866146aa565b1680851161378f575061393590855f52600a602052600260405f20015460801c6146d0565b5f858152600a6020526040902060020180546001600160801b031660809290921b6fffffffffffffffffffffffffffffffff19169190911781556139789061336b565b6001600160801b0361399c8160208401511692826040818351169201511690612f5a565b161115613aef575b835f52600a6020526139c8836001600160a01b03600160405f200154169283614b04565b81847f40b88e5c41c5a97ffb7b6ef88a0a2d505aa0c634cf8a0275cb236ea7dd87ed4d6020604051878152a47ff8e1a15aba9398e019f0b49df1a4fde98ee17ae345cb5f6b5e2c27f5033e8ce76020604051858152a18333141580613aca575b613a325750505050565b604051926392b9102b60e01b84526004840152336024840152604483015260648201526020816084815f865af1908115610db0576392b9102b60e01b916001600160e01b0319915f91613aab575b501603613a8f57808080613437565b6001600160a01b0390632187e5e760e21b5f521660045260245ffd5b613ac4915060203d6020116115a1576115938183612ee6565b5f613a80565b5060ff613ae8856001600160a01b03165f52600960205260405f2090565b5416613a28565b5f848152600a6020526040902060018101805460ff60a01b1916600160a01b179055805460ff60f01b191690556139a4565b50613b2b85614588565b156138fb565b90816020910312610dbb57516001600160e01b031981168103610dbb5790565b805f5260036020526001600160a01b0360405f205416908115612109575090565b64ffffffffff4216815f52600a6020528064ffffffffff60405f205460a01c161015613bfb57815f52600a60205264ffffffffff60405f205460c81c161115613be057805f52600b602052600160405f2054115f14613bd757613bd4906147b0565b90565b613bd4906146f0565b5f52600a6020526001600160801b03600260405f2001541690565b50505f90565b805f52600a60205260ff600160405f20015460a01c165f14613c235750600490565b805f52600a60205260405f205460f81c613c8f57805f52600a60205264ffffffffff60405f205460a01c164210613c8a57613c5d81613b72565b905f52600a6020526001600160801b0380600260405f200154169116105f14613c8557600190565b600290565b505f90565b50600390565b90805f5260036020526001600160a01b0360405f205416151580613dbd575b80613da0575b612152577ff8e1a15aba9398e019f0b49df1a4fde98ee17ae345cb5f6b5e2c27f5033e8ce76020604051838152a1805f5260036020526001600160a01b038060405f2054169283613d69575b1680613d51575b815f52600360205260405f20816001600160a01b0319825416179055827fddf252ad1be2c89b69c2b068fc378daa952ba7f163c4a11628f55a4df523b3ef5f80a490565b805f52600460205260405f2060018154019055613d0d565b613d88835f52600560205260405f206001600160a01b03198154169055565b835f52600460205260405f205f198154019055613d06565b50805f52600a60205260ff600160405f20015460b01c1615613cba565b506001600160a01b0382161515613cb4565b6001600160a01b037f0000000000000000000000000000000000000000000000000000000000000000163003613e0157565b7fa1c0d6e5000000000000000000000000000000000000000000000000000000005f5260045ffd5b8051156132ec5760200190565b80518210156132ec5760209160051b010190565b90613e6c6001600160801b0360408401511660206101008501510151906149c6565b916001600160801b038351169060e08101519160c082019264ffffffffff84511682156145605780156145385781518015614510577f000000000000000000000000000000000000000000000000000000000000000081116144e5575064ffffffffff6040613eda84613e29565b510151168110156144a157505f905f905f81515f905b808210614419575050505064ffffffffff804216911690818110156143eb5750506001600160801b0316908181036143bd57505060075493845f52600a60205260405f20916001600160801b038251166001600160801b036002850191166fffffffffffffffffffffffffffffffff198254161790556001600160a01b03606082015116916001600160a01b036001850193166001600160a01b031984541617835560808201948551151560ff60f01b197eff00000000000000000000000000000000000000000000000000000000000087549260f01b169116178555835493750100000000000000000000000000000000000000000060a08501957fffffffffffffffffff0000ffffffffffffffffffffffffffffffffffffffffff76ff000000000000000000000000000000000000000000008851151560b01b169116171790556001600160a01b0380845116166001600160a01b03198654161785555184549060e0840151917fffff00000000000000000000ffffffffffffffffffffffffffffffffffffffff78ffffffffff00000000000000000000000000000000000000007dffffffffff0000000000000000000000000000000000000000000000000060406140c58751975f19890190613e36565b51015160c81b169360a01b169116171785555f5b8181106142af575050600187016007556001600160a01b0360208301511680156131ac5761410f886001600160a01b0392613c95565b1661428357868261415d6001600160a01b0360607f33eb09bbf19ea3fb22c760d5164234f8bf62ca07dcf5a437ad389e96b0bd6443960151166001600160801b038551169030903390614aa3565b6001600160801b0360208401511680614253575b506001600160a01b038151169461424861422a6001600160a01b03602085015116986001600160a01b036060860151169a511515935115156001600160a01b0361010060e088015193549764ffffffffff604051996141cf8b612ead565b818160a01c168b5260c81c1660208a015201515116946001600160801b0360206040519a8b9a8b5233828c01528281511660408c01520151166060890152608088015260a087015261014060c0870152610140860190612deb565b9260e085019064ffffffffff60208092828151168552015116910152565b6101208301520390a4565b61427d906001600160a01b036060840151166001600160a01b036101008501515116903390614aa3565b5f614171565b7f73c6ac6e000000000000000000000000000000000000000000000000000000005f525f60045260245ffd5b885f52600b60205260405f20906142ca8160e0870151613e36565b5182546801000000000000000081101561121e57600181018085558110156132ec576001935f5260205f2001906001600160801b0380825116166fffffffffffffffffffffffffffffffff198354161782556020810151907fffffff00000000000000000000000000ffffffffffffffffffffffffffffffff7cffffffffff000000000000000000000000000000000000000000000000604077ffffffffffffffff0000000000000000000000000000000086549560801b1693847fffffffffffffffff0000000000000000ffffffffffffffffffffffffffffffff8716178755015160c01b16921617179055016140d9565b7fd90b7e39000000000000000000000000000000000000000000000000000000005f5260045260245260445ffd5b7f210aec0e000000000000000000000000000000000000000000000000000000005f5260045260245260445ffd5b919350919361443d906001600160801b036144348588613e36565b515116906146d0565b9364ffffffffff8060406144518685613e36565b5101511694168085111561446d57506001849301909291613ef0565b8490847f9588ac09000000000000000000000000000000000000000000000000000000005f5260045260245260445260645ffd5b64ffffffffff60406144b284613e29565b51015116907ff539a17c000000000000000000000000000000000000000000000000000000005f5260045260245260445ffd5b7f4757689b000000000000000000000000000000000000000000000000000000005f5260045260245ffd5b7f3952c64e000000000000000000000000000000000000000000000000000000005f5260045ffd5b7fd572dbcb000000000000000000000000000000000000000000000000000000005f5260045ffd5b7f6095d3bc000000000000000000000000000000000000000000000000000000005f5260045ffd5b805f5260036020526001600160a01b0360405f205416908133149182156145ce575b5081156145b5575090565b90506001600160a01b036145c93392612f38565b161490565b9091505f52600660205260405f206001600160a01b0333165f5260205260ff60405f205416905f6145aa565b805f52600a602052614611600260405f200161336b565b90805f52600a60205260ff600160405f20015460a01c165f1461463f5750602001516001600160801b031690565b90815f52600a60205260405f205460f81c61465e5750613bd490613b72565b613bd491506001600160801b036040818351169201511690612f5a565b3d156146a5573d9061468c82612f08565b9161469a6040519384612ee6565b82523d5f602084013e565b606090565b613bd4906146b7816145fa565b905f52600a602052600260405f20015460801c90612f5a565b906001600160801b03809116911601906001600160801b03821161187657565b5f818152600a60205260409020546147279064ffffffffff60a082901c811660c89290921c81168290038116914282160316614b59565b90805f52600b60205260405f208054156132ec575f5261477c67ffffffffffffffff60205f205460801c1692825f52600a6020526147776001600160801b03600260405f20015416948592614c39565b614cac565b91821361479957506147956001600160801b0391614d87565b1690565b90505f52600a602052600260405f20015460801c90565b9064ffffffffff421691805f52600a60205260405f2090604051906147d482612ec9565b61012061486760028554956001600160a01b0387168652602086019664ffffffffff8160a01c16885264ffffffffff8160c81c16604088015260ff8160f01c161515606088015260f81c1515608087015260ff60018201546001600160a01b03811660a0890152818160a01c16151560c0890152818160a81c16151560e089015260b01c1615156101008701520161336b565b92019182525f52600b60205261487f60405f2061339d565b915f9264ffffffffff604061489383613e29565b510151168664ffffffffff5f925b1610614987578161491864ffffffffff9697988784816001600160801b036148d06147779861491d9b9a613e36565b5151169a8b9867ffffffffffffffff60206148eb868b613e36565b51015116978260406148fd8784613e36565b51015116948061496a575050511680925b0316920316614b59565b614c39565b91821361493e5750906001600160801b036149388193614d87565b16011690565b6001600160801b03915060209051015116806001600160801b038316115f14614965575090565b905090565b604092509061497c915f190190613e36565b51015116809261490e565b936001600160801b036001918161499e8886613e36565b51511601169401958064ffffffffff8060406149ba8b87613e36565b510151169892986148a1565b9190916040516149d581612ead565b5f81525f6020820152926001600160801b038216908115614a865767016345785d8a00008111614a4f57614a116001600160801b0391836159a4565b1660208501918183521115614a3b576001600160801b039182614a3692511690612f5a565b168252565b634e487b7160e01b5f52600160045260245ffd5b7f4fea5c1a000000000000000000000000000000000000000000000000000000005f5260045267016345785d8a000060245260445ffd5b5050509050604051614a9781612ead565b5f81525f602082015290565b9091926001600160a01b03614b029481604051957f23b872dd000000000000000000000000000000000000000000000000000000006020880152166024860152166044840152606483015260648252614afd608483612ee6565b614dbc565b565b6040517fa9059cbb0000000000000000000000000000000000000000000000000000000060208201526001600160a01b03929092166024830152604480830193909352918152614b0291614afd606483612ee6565b600160ff1b81148015614c2c575b614c04575f811215614bfb57614b8b815f035b5f841215614bf457835f0390614e41565b917f7fffffffffffffffffffffffffffffffffffffffffffffffffffffffffffffff8311614bc5575f1991181315614bc05790565b5f0390565b907fd49c26b3000000000000000000000000000000000000000000000000000000005f5260045260245260445ffd5b8390614e41565b614b8b81614b7a565b7f9fe2b450000000000000000000000000000000000000000000000000000000005f5260045ffd5b50600160ff1b8214614b67565b80614c535750614c4f57670de0b6b3a764000090565b5f90565b90670de0b6b3a76400008214614c9e5780614c76575050670de0b6b3a764000090565b670de0b6b3a76400008114614c9a57614c9590614777613bd493614f47565b61509e565b5090565b5050670de0b6b3a764000090565b600160ff1b81148015614d7a575b614d52575f811215614d4957614cde815f035b5f841215614d4257835f03906159a4565b917f7fffffffffffffffffffffffffffffffffffffffffffffffffffffffffffffff8311614d13575f1991181315614bc05790565b907f120b5b43000000000000000000000000000000000000000000000000000000005f5260045260245260445ffd5b83906159a4565b614cde81614ccd565b7fa6070c25000000000000000000000000000000000000000000000000000000005f5260045ffd5b50600160ff1b8214614cba565b5f8112614d915790565b7f2463f3d5000000000000000000000000000000000000000000000000000000005f5260045260245ffd5b5f806001600160a01b03614de593169360208151910182865af1614dde61467b565b9083615a52565b8051908115159182614e26575b5050614dfb5750565b7f5274afe7000000000000000000000000000000000000000000000000000000005f5260045260245ffd5b614e3992506020809183010191016132c4565b155f80614df2565b5f19670de0b6b3a7640000820991670de0b6b3a7640000820291828085109403938085039414614f0c5781841015614ed257670de0b6b3a7640000829109600182190182168092046002816003021880820260020302808202600203028082026002030280820260020302808202600203028091026002030293600183805f03040190848311900302920304170290565b7f63a05778000000000000000000000000000000000000000000000000000000005f52600452670de0b6b3a764000060245260445260645ffd5b5091508115614f19570490565b634e487b7160e01b5f52601260045260245ffd5b8015614f19576ec097ce7bc90715b34b9f10000000000590565b805f81131561507357670de0b6b3a7640000811261505357506001905b670de0b6b3a764000081056001600160801b03811160071b90811c67ffffffffffffffff811160061b90811c63ffffffff811160051b90811c61ffff811160041b90811c9060ff821160031b91821c92600f841160021b93841c94600160038711811b96871c119617171717171717670de0b6b3a7640000810291811d90670de0b6b3a7640000821461504057506706f05b59d3b20000905b5f821361500a5750500290565b80670de0b6b3a764000091020590671bc16d674ec80000821215615032575b60011d90614ffd565b809192019160011d90615029565b9050670de0b6b3a7640000929150020290565b5f1991508015614f19576ec097ce7bc90715b34b9f100000000005614f64565b7f059b101b000000000000000000000000000000000000000000000000000000005f5260045260245ffd5b5f8112156150cb5768033dd1780914b97114198112613c8a576150c2905f0361509e565b613bd490614f2d565b680a688906bd8affffff811361597957670de0b6b3a76400009060401b057780000000000000000000000000000000000000000000000067ff000000000000008216615844575b670de0b6b3a76400009066ff0000000000008316615734575b65ff0000000000831661562c575b64ff00000000831661552c575b63ff0000008316615434575b62ff00008316615344575b61ff00831661525c575b60ff831661517c575b029060401c60bf031c90565b60808316615249575b60408316615236575b60208316615223575b60108316615210575b600883166151fd575b600483166151ea575b600283166151d7575b600183161561517057680100000000000000010260401c615170565b680100000000000000010260401c6151bb565b680100000000000000030260401c6151b2565b680100000000000000060260401c6151a9565b6801000000000000000b0260401c6151a0565b680100000000000000160260401c615197565b6801000000000000002c0260401c61518e565b680100000000000000590260401c615185565b6180008316615331575b614000831661531e575b612000831661530b575b61100083166152f8575b61080083166152e5575b61040083166152d2575b61020083166152bf575b61010083161561516757680100000000000000b10260401c615167565b680100000000000001630260401c6152a2565b680100000000000002c60260401c615298565b6801000000000000058c0260401c61528e565b68010000000000000b170260401c615284565b6801000000000000162e0260401c61527a565b68010000000000002c5d0260401c615270565b680100000000000058b90260401c615266565b628000008316615421575b62400000831661540e575b6220000083166153fb575b6210000083166153e8575b6208000083166153d5575b6204000083166153c2575b6202000083166153af575b6201000083161561515d576801000000000000b1720260401c61515d565b680100000000000162e40260401c615391565b6801000000000002c5c80260401c615386565b68010000000000058b910260401c61537b565b680100000000000b17210260401c615370565b68010000000000162e430260401c615365565b680100000000002c5c860260401c61535a565b6801000000000058b90c0260401c61534f565b63800000008316615519575b63400000008316615506575b632000000083166154f3575b631000000083166154e0575b630800000083166154cd575b630400000083166154ba575b630200000083166154a7575b63010000008316156151525768010000000000b172180260401c615152565b6801000000000162e4300260401c615488565b68010000000002c5c8600260401c61547c565b680100000000058b90c00260401c615470565b6801000000000b17217f0260401c615464565b680100000000162e42ff0260401c615458565b6801000000002c5c85fe0260401c61544c565b68010000000058b90bfc0260401c615440565b6480000000008316615619575b6440000000008316615606575b64200000000083166155f3575b64100000000083166155e0575b64080000000083166155cd575b64040000000083166155ba575b64020000000083166155a7575b64010000000083161561514657680100000000b17217f80260401c615146565b68010000000162e42ff10260401c615587565b680100000002c5c85fe30260401c61557a565b6801000000058b90bfce0260401c61556d565b68010000000b17217fbb0260401c615560565b6801000000162e42fff00260401c615553565b68010000002c5c8601cc0260401c615546565b680100000058b90c0b490260401c615539565b658000000000008316615721575b65400000000000831661570e575b6520000000000083166156fb575b6510000000000083166156e8575b6508000000000083166156d5575b6504000000000083166156c2575b6502000000000083166156af575b65010000000000831615615139576801000000b1721835510260401c615139565b680100000162e430e5a20260401c61568e565b6801000002c5c863b73f0260401c615680565b68010000058b90cf1e6e0260401c615672565b680100000b1721bcfc9a0260401c615664565b68010000162e43f4f8310260401c615656565b680100002c5c89d5ec6d0260401c615648565b6801000058b91b5bc9ae0260401c61563a565b66800000000000008316615831575b6640000000000000831661581e575b6620000000000000831661580b575b661000000000000083166157f8575b660800000000000083166157e5575b660400000000000083166157d2575b660200000000000083166157bf575b660100000000000083161561512b5768010000b17255775c040260401c61512b565b6801000162e525ee05470260401c61579d565b68010002c5cc37da94920260401c61578e565b680100058ba01fb9f96d0260401c61577f565b6801000b175effdc76ba0260401c615770565b680100162f3904051fa10260401c615761565b6801002c605e2e8cec500260401c615752565b68010058c86da1c09ea20260401c615743565b678000000000000000821661595a575b670de0b6b3a7640000906740000000000000008316615947575b6720000000000000008316615934575b6710000000000000008316615921575b670800000000000000831661590e575b67040000000000000083166158fb575b67020000000000000083166158e8575b67010000000000000083166158d5575b9050615112565b680100b1afa5abcbed610260401c6158ce565b68010163da9fb33356d80260401c6158be565b680102c9a3e778060ee70260401c6158ae565b6801059b0d31585743ae0260401c61589e565b68010b5586cf9890f62a0260401c61588e565b6801172b83c7d517adce0260401c61587e565b6801306fe0a31b7152df0260401c61586e565b5077b504f333f9de648480000000000000000000000000000000615854565b7f0360d028000000000000000000000000000000000000000000000000000000005f5260045260245ffd5b9091905f1983820983820291828083109203918083039214615a4157670de0b6b3a7640000821015615a11577faccb18165bd6fe31ae1cf318dc5b51eee0e1ba569b88cd74c1773b91fac106699394670de0b6b3a7640000910990828211900360ee1b910360121c170290565b84907f5173648d000000000000000000000000000000000000000000000000000000005f5260045260245260445ffd5b5050670de0b6b3a764000090049150565b90615a8f5750805115615a6757805190602001fd5b7f1425ea42000000000000000000000000000000000000000000000000000000005f5260045ffd5b81511580615ad5575b615aa0575090565b6001600160a01b03907f9996b315000000000000000000000000000000000000000000000000000000005f521660045260245ffd5b50803b15615a9856fea164736f6c634300081a000a",
    "linkReferences": {}
  },
  "methodIdentifiers": {
    "MAX_BROKER_FEE()": "027b6744",
    "MAX_SEGMENT_COUNT()": "9188ec84",
    "admin()": "f851a440",
    "allowToHook(address)": "406887cb",
    "approve(address,uint256)": "095ea7b3",
    "balanceOf(address)": "70a08231",
    "burn(uint256)": "42966c68",
    "cancel(uint256)": "40e58ee5",
    "cancelMultiple(uint256[])": "8659c270",
    "claimRebasingAssetYield(address,uint256,address)": "2c5a6fb8",
    "configureRebasingAsset(address,uint8)": "6900ebd0",
    "configureYieldAndGas(address,uint8,uint8,address)": "93273335",
    "createWithDurations((address,address,uint128,address,bool,bool,(uint128,uint64,uint40)[],(address,uint256)))": "54c02292",
    "createWithTimestamps((address,address,uint128,address,bool,bool,uint40,(uint128,uint64,uint40)[],(address,uint256)))": "31df3d48",
    "getApproved(uint256)": "081812fc",
    "getAsset(uint256)": "eac8f5b8",
    "getClaimableRebasingAssetYield(address)": "63e55549",
    "getDepositedAmount(uint256)": "a80fc071",
    "getEndTime(uint256)": "9067b677",
    "getRebasingAssetConfiguration(address)": "a8ef018a",
    "getRecipient(uint256)": "6d0cee75",
    "getRefundedAmount(uint256)": "d4dbd20b",
    "getSegments(uint256)": "b637b865",
    "getSender(uint256)": "b971302a",
    "getStartTime(uint256)": "bc2be1be",
    "getStream(uint256)": "894e9a0d",
    "getTimestamps(uint256)": "57404b12",
    "getWithdrawnAmount(uint256)": "d511609f",
    "isAllowedToHook(address)": "303acc85",
    "isApprovedForAll(address,address)": "e985e9c5",
    "isCancelable(uint256)": "4857501f",
    "isCold(uint256)": "8f69b993",
    "isDepleted(uint256)": "425d30dd",
    "isStream(uint256)": "b8a3be66",
    "isTransferable(uint256)": "b2564569",
    "isWarm(uint256)": "1c1cdd4c",
    "name()": "06fdde03",
    "nextStreamId()": "1e99d569",
    "nftDescriptor()": "44267570",
    "ownerOf(uint256)": "6352211e",
    "refundableAmountOf(uint256)": "1400ecec",
    "renounce(uint256)": "7de6b1db",
    "safeTransferFrom(address,address,uint256)": "42842e0e",
    "safeTransferFrom(address,address,uint256,bytes)": "b88d4fde",
    "setApprovalForAll(address,bool)": "a22cb465",
    "setNFTDescriptor(address)": "7cad6cd1",
    "statusOf(uint256)": "ad35efd4",
    "streamedAmountOf(uint256)": "4869e12d",
    "supportsInterface(bytes4)": "01ffc9a7",
    "symbol()": "95d89b41",
    "tokenURI(uint256)": "c87b56dd",
    "transferAdmin(address)": "75829def",
    "transferFrom(address,address,uint256)": "23b872dd",
    "wasCanceled(uint256)": "f590c176",
    "withdraw(uint256,address,uint128)": "fdd46d60",
    "withdrawMax(uint256,address)": "ea5ead19",
    "withdrawMaxAndTransfer(uint256,address)": "c156a11d",
    "withdrawMultiple(uint256[],uint128[])": "4cc55e11",
    "withdrawableAmountOf(uint256)": "d975dfed"
  },
  "id": 84
}