{
  "abi": [
    {
      "inputs": [
        {
          "internalType": "contract ISablierV2Archive",
          "name": "archive_",
          "type": "address"
        }
      ],
      "stateMutability": "nonpayable",
      "type": "constructor"
    },
    {
      "inputs": [],
      "name": "CallNotDelegateCall",
      "type": "error"
    },
    {
      "inputs": [
        {
          "internalType": "address",
          "name": "caller",
          "type": "address"
        }
      ],
      "name": "SablierV2ProxyPlugin_UnknownCaller",
      "type": "error"
    },
    {
      "inputs": [],
      "name": "archive",
      "outputs": [
        {
          "internalType": "contract ISablierV2Archive",
          "name": "",
          "type": "address"
        }
      ],
      "stateMutability": "view",
      "type": "function"
    },
    {
      "inputs": [],
      "name": "getMethods",
      "outputs": [
        {
          "internalType": "bytes4[]",
          "name": "methods",
          "type": "bytes4[]"
        }
      ],
      "stateMutability": "pure",
      "type": "function"
    },
    {
      "inputs": [
        {
          "internalType": "uint256",
          "name": "streamId",
          "type": "uint256"
        },
        {
          "internalType": "address",
          "name": "",
          "type": "address"
        },
        {
          "internalType": "uint128",
          "name": "senderAmount",
          "type": "uint128"
        },
        {
          "internalType": "uint128",
          "name": "",
          "type": "uint128"
        }
      ],
      "name": "onStreamCanceled",
      "outputs": [],
      "stateMutability": "nonpayable",
      "type": "function"
    }
  ],
  "bytecode": {
    "object": "0x60c03461007d57601f61096f38819003918201601f19168301916001600160401b038311848410176100825780849260209460405283398101031261007d57516001600160a01b038116810361007d573060805260a0526040516108d6908161009982396080518160c6015260a05181818161012201526106b70152f35b600080fd5b634e487b7160e01b600052604160045260246000fdfe608060408181526004908136101561001657600080fd5b600092833560e01c90816302a214601461066d575080636aeb459414610571576372eba2031461004557600080fd5b3461056d5760807ffffffffffffffffffffffffffffffffffffffffffffffffffffffffffffffffc36011261056d578135602491823573ffffffffffffffffffffffffffffffffffffffff908181160361056957604435926fffffffffffffffffffffffffffffffff808516809503610485576064359081160361056557817f000000000000000000000000000000000000000000000000000000000000000016301461053d578251937ff794062e0000000000000000000000000000000000000000000000000000000085523387860152602094858188818c887f0000000000000000000000000000000000000000000000000000000000000000165af190811561044a578991610510575b50156104e25783517fb971302a000000000000000000000000000000000000000000000000000000008152828882015285818881335afa90811561044a5789916104c5575b50833091160361049a578351917feac8f5b80000000000000000000000000000000000000000000000000000000083528783015284828781335afa918215610490578892610454575b5083517f8da5cb5b00000000000000000000000000000000000000000000000000000000815285818981305afa90811561044a57899161041d575b5084519184878401927fa9059cbb0000000000000000000000000000000000000000000000000000000084521688840152604483015260448252608082019367ffffffffffffffff93838610858711176103f257858752169189918291610281876106df565b8887527f5361666545524332303a206c6f772d6c6576656c2063616c6c206661696c656460a0820152519082855af1903d156103e3573d9283116103b857906103079392918551926102fa887fffffffffffffffffffffffffffffffffffffffffffffffffffffffffffffffe0601f840116018561072a565b83523d8a8885013e6107b4565b8051908382159283156103a0575b50505015610321578480f35b517f08c379a000000000000000000000000000000000000000000000000000000000815292830152602a908201527f5361666545524332303a204552433230206f7065726174696f6e20646964206e60448201527f6f742073756363656564000000000000000000000000000000000000000000006064820152608490fd5b6103b0935082018101910161076b565b388381610315565b868960418a7f4e487b7100000000000000000000000000000000000000000000000000000000835252fd5b906103079392506060916107b4565b888b60418c7f4e487b7100000000000000000000000000000000000000000000000000000000835252fd5b61043d9150863d8811610443575b610435818361072a565b810190610788565b3861021b565b503d61042b565b85513d8b823e3d90fd5b9091508481813d8311610489575b61046c818361072a565b81010312610485575182811681036104855790386101e0565b8780fd5b503d610462565b84513d8a823e3d90fd5b85886001897f4e487b7100000000000000000000000000000000000000000000000000000000835252fd5b6104dc9150863d881161044357610435818361072a565b38610197565b83517f09bd4d6800000000000000000000000000000000000000000000000000000000815233818901528690fd5b6105309150863d8811610536575b610528818361072a565b81019061076b565b38610152565b503d61051e565b8583517fbbff6135000000000000000000000000000000000000000000000000000000008152fd5b8680fd5b8580fd5b8280fd5b50903461056d57827ffffffffffffffffffffffffffffffffffffffffffffffffffffffffffffffffc36011261056d5781516105ac816106df565b6001938482526020908183019382368637835115610641575091907f72eba20300000000000000000000000000000000000000000000000000000000849694528451948186019282875251809352850195925b82811061060c5785870386f35b83517fffffffff00000000000000000000000000000000000000000000000000000000168752958101959281019284016105ff565b9060326024927f4e487b7100000000000000000000000000000000000000000000000000000000835252fd5b8490346106db57817ffffffffffffffffffffffffffffffffffffffffffffffffffffffffffffffffc3601126106db5760209073ffffffffffffffffffffffffffffffffffffffff7f0000000000000000000000000000000000000000000000000000000000000000168152f35b5080fd5b6040810190811067ffffffffffffffff8211176106fb57604052565b7f4e487b7100000000000000000000000000000000000000000000000000000000600052604160045260246000fd5b90601f7fffffffffffffffffffffffffffffffffffffffffffffffffffffffffffffffe0910116810190811067ffffffffffffffff8211176106fb57604052565b90816020910312610783575180151581036107835790565b600080fd5b90816020910312610783575173ffffffffffffffffffffffffffffffffffffffff811681036107835790565b9192901561082f57508151156107c8575090565b3b156107d15790565b60646040517f08c379a000000000000000000000000000000000000000000000000000000000815260206004820152601d60248201527f416464726573733a2063616c6c20746f206e6f6e2d636f6e74726163740000006044820152fd5b8251909150156108425750805190602001fd5b604051907f08c379a000000000000000000000000000000000000000000000000000000000825281602080600483015282519283602484015260005b8481106108bf575050507fffffffffffffffffffffffffffffffffffffffffffffffffffffffffffffffe0601f836000604480968601015201168101030190fd5b81810183015186820160440152859350820161087e56",
    "linkReferences": {}
  },
  "methodIdentifiers": {
    "archive()": "02a21460",
    "getMethods()": "6aeb4594",
    "onStreamCanceled(uint256,address,uint128,uint128)": "72eba203"
  },
  "id": 98
}