{
  "abi": [
    {
      "inputs": [
        {
          "internalType": "address",
          "name": "initialAdmin",
          "type": "address"
        },
        {
          "internalType": "contract ISablierV2Comptroller",
          "name": "initialComptroller",
          "type": "address"
        },
        {
          "internalType": "contract ISablierV2NFTDescriptor",
          "name": "initialNFTDescriptor",
          "type": "address"
        }
      ],
      "stateMutability": "nonpayable",
      "type": "constructor"
    },
    {
      "inputs": [
        {
          "internalType": "address",
          "name": "admin",
          "type": "address"
        },
        {
          "internalType": "address",
          "name": "caller",
          "type": "address"
        }
      ],
      "name": "CallerNotAdmin",
      "type": "error"
    },
    {
      "inputs": [],
      "name": "DelegateCall",
      "type": "error"
    },
    {
      "inputs": [
        {
          "internalType": "uint256",
          "name": "x",
          "type": "uint256"
        },
        {
          "internalType": "uint256",
          "name": "y",
          "type": "uint256"
        }
      ],
      "name": "PRBMath_MulDiv18_Overflow",
      "type": "error"
    },
    {
      "inputs": [
        {
          "internalType": "uint256",
          "name": "x",
          "type": "uint256"
        },
        {
          "internalType": "uint256",
          "name": "y",
          "type": "uint256"
        },
        {
          "internalType": "uint256",
          "name": "denominator",
          "type": "uint256"
        }
      ],
      "name": "PRBMath_MulDiv_Overflow",
      "type": "error"
    },
    {
      "inputs": [
        {
          "internalType": "contract IERC20",
          "name": "asset",
          "type": "address"
        }
      ],
      "name": "SablierV2Base_NoProtocolRevenues",
      "type": "error"
    },
    {
      "inputs": [
        {
          "internalType": "uint40",
          "name": "cliffTime",
          "type": "uint40"
        },
        {
          "internalType": "uint40",
          "name": "endTime",
          "type": "uint40"
        }
      ],
      "name": "SablierV2LockupLinear_CliffTimeNotLessThanEndTime",
      "type": "error"
    },
    {
      "inputs": [
        {
          "internalType": "uint40",
          "name": "startTime",
          "type": "uint40"
        },
        {
          "internalType": "uint40",
          "name": "cliffTime",
          "type": "uint40"
        }
      ],
      "name": "SablierV2LockupLinear_StartTimeGreaterThanCliffTime",
      "type": "error"
    },
    {
      "inputs": [
        {
          "internalType": "UD60x18",
          "name": "brokerFee",
          "type": "uint256"
        },
        {
          "internalType": "UD60x18",
          "name": "maxFee",
          "type": "uint256"
        }
      ],
      "name": "SablierV2Lockup_BrokerFeeTooHigh",
      "type": "error"
    },
    {
      "inputs": [],
      "name": "SablierV2Lockup_DepositAmountZero",
      "type": "error"
    },
    {
      "inputs": [
        {
          "internalType": "uint40",
          "name": "currentTime",
          "type": "uint40"
        },
        {
          "internalType": "uint40",
          "name": "endTime",
          "type": "uint40"
        }
      ],
      "name": "SablierV2Lockup_EndTimeNotInTheFuture",
      "type": "error"
    },
    {
      "inputs": [
        {
          "internalType": "uint256",
          "name": "streamId",
          "type": "uint256"
        },
        {
          "internalType": "address",
          "name": "sender",
          "type": "address"
        },
        {
          "internalType": "address",
          "name": "to",
          "type": "address"
        }
      ],
      "name": "SablierV2Lockup_InvalidSenderWithdrawal",
      "type": "error"
    },
    {
      "inputs": [
        {
          "internalType": "uint256",
          "name": "tokenId",
          "type": "uint256"
        }
      ],
      "name": "SablierV2Lockup_NotTransferrable",
      "type": "error"
    },
    {
      "inputs": [
        {
          "internalType": "uint256",
          "name": "streamId",
          "type": "uint256"
        }
      ],
      "name": "SablierV2Lockup_Null",
      "type": "error"
    },
    {
      "inputs": [
        {
          "internalType": "uint256",
          "name": "streamId",
          "type": "uint256"
        },
        {
          "internalType": "uint128",
          "name": "amount",
          "type": "uint128"
        },
        {
          "internalType": "uint128",
          "name": "withdrawableAmount",
          "type": "uint128"
        }
      ],
      "name": "SablierV2Lockup_Overdraw",
      "type": "error"
    },
    {
      "inputs": [
        {
          "internalType": "UD60x18",
          "name": "protocolFee",
          "type": "uint256"
        },
        {
          "internalType": "UD60x18",
          "name": "maxFee",
          "type": "uint256"
        }
      ],
      "name": "SablierV2Lockup_ProtocolFeeTooHigh",
      "type": "error"
    },
    {
      "inputs": [
        {
          "internalType": "uint256",
          "name": "streamId",
          "type": "uint256"
        }
      ],
      "name": "SablierV2Lockup_StreamCanceled",
      "type": "error"
    },
    {
      "inputs": [
        {
          "internalType": "uint256",
          "name": "streamId",
          "type": "uint256"
        }
      ],
      "name": "SablierV2Lockup_StreamDepleted",
      "type": "error"
    },
    {
      "inputs": [
        {
          "internalType": "uint256",
          "name": "streamId",
          "type": "uint256"
        }
      ],
      "name": "SablierV2Lockup_StreamNotCancelable",
      "type": "error"
    },
    {
      "inputs": [
        {
          "internalType": "uint256",
          "name": "streamId",
          "type": "uint256"
        }
      ],
      "name": "SablierV2Lockup_StreamNotDepleted",
      "type": "error"
    },
    {
      "inputs": [
        {
          "internalType": "uint256",
          "name": "streamId",
          "type": "uint256"
        }
      ],
      "name": "SablierV2Lockup_StreamSettled",
      "type": "error"
    },
    {
      "inputs": [
        {
          "internalType": "uint256",
          "name": "streamId",
          "type": "uint256"
        },
        {
          "internalType": "address",
          "name": "caller",
          "type": "address"
        }
      ],
      "name": "SablierV2Lockup_Unauthorized",
      "type": "error"
    },
    {
      "inputs": [
        {
          "internalType": "uint256",
          "name": "streamId",
          "type": "uint256"
        }
      ],
      "name": "SablierV2Lockup_WithdrawAmountZero",
      "type": "error"
    },
    {
      "inputs": [
        {
          "internalType": "uint256",
          "name": "streamIdsCount",
          "type": "uint256"
        },
        {
          "internalType": "uint256",
          "name": "amountsCount",
          "type": "uint256"
        }
      ],
      "name": "SablierV2Lockup_WithdrawArrayCountsNotEqual",
      "type": "error"
    },
    {
      "inputs": [],
      "name": "SablierV2Lockup_WithdrawToZeroAddress",
      "type": "error"
    },
    {
      "anonymous": false,
      "inputs": [
        {
          "indexed": true,
          "internalType": "address",
          "name": "owner",
          "type": "address"
        },
        {
          "indexed": true,
          "internalType": "address",
          "name": "approved",
          "type": "address"
        },
        {
          "indexed": true,
          "internalType": "uint256",
          "name": "tokenId",
          "type": "uint256"
        }
      ],
      "name": "Approval",
      "type": "event"
    },
    {
      "anonymous": false,
      "inputs": [
        {
          "indexed": true,
          "internalType": "address",
          "name": "owner",
          "type": "address"
        },
        {
          "indexed": true,
          "internalType": "address",
          "name": "operator",
          "type": "address"
        },
        {
          "indexed": false,
          "internalType": "bool",
          "name": "approved",
          "type": "bool"
        }
      ],
      "name": "ApprovalForAll",
      "type": "event"
    },
    {
      "anonymous": false,
      "inputs": [
        {
          "indexed": false,
          "internalType": "uint256",
          "name": "_fromTokenId",
          "type": "uint256"
        },
        {
          "indexed": false,
          "internalType": "uint256",
          "name": "_toTokenId",
          "type": "uint256"
        }
      ],
      "name": "BatchMetadataUpdate",
      "type": "event"
    },
    {
      "anonymous": false,
      "inputs": [
        {
          "indexed": false,
          "internalType": "uint256",
          "name": "streamId",
          "type": "uint256"
        },
        {
          "indexed": true,
          "internalType": "address",
          "name": "sender",
          "type": "address"
        },
        {
          "indexed": true,
          "internalType": "address",
          "name": "recipient",
          "type": "address"
        },
        {
          "indexed": true,
          "internalType": "contract IERC20",
          "name": "asset",
          "type": "address"
        },
        {
          "indexed": false,
          "internalType": "uint128",
          "name": "senderAmount",
          "type": "uint128"
        },
        {
          "indexed": false,
          "internalType": "uint128",
          "name": "recipientAmount",
          "type": "uint128"
        }
      ],
      "name": "CancelLockupStream",
      "type": "event"
    },
    {
      "anonymous": false,
      "inputs": [
        {
          "indexed": true,
          "internalType": "address",
          "name": "admin",
          "type": "address"
        },
        {
          "indexed": true,
          "internalType": "contract IERC20",
          "name": "asset",
          "type": "address"
        },
        {
          "indexed": false,
          "internalType": "uint128",
          "name": "protocolRevenues",
          "type": "uint128"
        }
      ],
      "name": "ClaimProtocolRevenues",
      "type": "event"
    },
    {
      "anonymous": false,
      "inputs": [
        {
          "indexed": false,
          "internalType": "uint256",
          "name": "streamId",
          "type": "uint256"
        },
        {
          "indexed": false,
          "internalType": "address",
          "name": "funder",
          "type": "address"
        },
        {
          "indexed": true,
          "internalType": "address",
          "name": "sender",
          "type": "address"
        },
        {
          "indexed": true,
          "internalType": "address",
          "name": "recipient",
          "type": "address"
        },
        {
          "components": [
            {
              "internalType": "uint128",
              "name": "deposit",
              "type": "uint128"
            },
            {
              "internalType": "uint128",
              "name": "protocolFee",
              "type": "uint128"
            },
            {
              "internalType": "uint128",
              "name": "brokerFee",
              "type": "uint128"
            }
          ],
          "indexed": false,
          "internalType": "struct Lockup.CreateAmounts",
          "name": "amounts",
          "type": "tuple"
        },
        {
          "indexed": true,
          "internalType": "contract IERC20",
          "name": "asset",
          "type": "address"
        },
        {
          "indexed": false,
          "internalType": "bool",
          "name": "cancelable",
          "type": "bool"
        },
        {
          "indexed": false,
          "internalType": "bool",
          "name": "transferable",
          "type": "bool"
        },
        {
          "components": [
            {
              "internalType": "uint40",
              "name": "start",
              "type": "uint40"
            },
            {
              "internalType": "uint40",
              "name": "cliff",
              "type": "uint40"
            },
            {
              "internalType": "uint40",
              "name": "end",
              "type": "uint40"
            }
          ],
          "indexed": false,
          "internalType": "struct LockupLinear.Range",
          "name": "range",
          "type": "tuple"
        },
        {
          "indexed": false,
          "internalType": "address",
          "name": "broker",
          "type": "address"
        }
      ],
      "name": "CreateLockupLinearStream",
      "type": "event"
    },
    {
      "anonymous": false,
      "inputs": [
        {
          "indexed": false,
          "internalType": "uint256",
          "name": "_tokenId",
          "type": "uint256"
        }
      ],
      "name": "MetadataUpdate",
      "type": "event"
    },
    {
      "anonymous": false,
      "inputs": [
        {
          "indexed": true,
          "internalType": "uint256",
          "name": "streamId",
          "type": "uint256"
        }
      ],
      "name": "RenounceLockupStream",
      "type": "event"
    },
    {
      "anonymous": false,
      "inputs": [
        {
          "indexed": true,
          "internalType": "address",
          "name": "admin",
          "type": "address"
        },
        {
          "indexed": false,
          "internalType": "contract ISablierV2Comptroller",
          "name": "oldComptroller",
          "type": "address"
        },
        {
          "indexed": false,
          "internalType": "contract ISablierV2Comptroller",
          "name": "newComptroller",
          "type": "address"
        }
      ],
      "name": "SetComptroller",
      "type": "event"
    },
    {
      "anonymous": false,
      "inputs": [
        {
          "indexed": true,
          "internalType": "address",
          "name": "admin",
          "type": "address"
        },
        {
          "indexed": false,
          "internalType": "contract ISablierV2NFTDescriptor",
          "name": "oldNFTDescriptor",
          "type": "address"
        },
        {
          "indexed": false,
          "internalType": "contract ISablierV2NFTDescriptor",
          "name": "newNFTDescriptor",
          "type": "address"
        }
      ],
      "name": "SetNFTDescriptor",
      "type": "event"
    },
    {
      "anonymous": false,
      "inputs": [
        {
          "indexed": true,
          "internalType": "address",
          "name": "from",
          "type": "address"
        },
        {
          "indexed": true,
          "internalType": "address",
          "name": "to",
          "type": "address"
        },
        {
          "indexed": true,
          "internalType": "uint256",
          "name": "tokenId",
          "type": "uint256"
        }
      ],
      "name": "Transfer",
      "type": "event"
    },
    {
      "anonymous": false,
      "inputs": [
        {
          "indexed": true,
          "internalType": "address",
          "name": "oldAdmin",
          "type": "address"
        },
        {
          "indexed": true,
          "internalType": "address",
          "name": "newAdmin",
          "type": "address"
        }
      ],
      "name": "TransferAdmin",
      "type": "event"
    },
    {
      "anonymous": false,
      "inputs": [
        {
          "indexed": true,
          "internalType": "uint256",
          "name": "streamId",
          "type": "uint256"
        },
        {
          "indexed": true,
          "internalType": "address",
          "name": "to",
          "type": "address"
        },
        {
          "indexed": true,
          "internalType": "contract IERC20",
          "name": "asset",
          "type": "address"
        },
        {
          "indexed": false,
          "internalType": "uint128",
          "name": "amount",
          "type": "uint128"
        }
      ],
      "name": "WithdrawFromLockupStream",
      "type": "event"
    },
    {
      "inputs": [],
      "name": "MAX_FEE",
      "outputs": [
        {
          "internalType": "UD60x18",
          "name": "",
          "type": "uint256"
        }
      ],
      "stateMutability": "view",
      "type": "function"
    },
    {
      "inputs": [],
      "name": "admin",
      "outputs": [
        {
          "internalType": "address",
          "name": "",
          "type": "address"
        }
      ],
      "stateMutability": "view",
      "type": "function"
    },
    {
      "inputs": [
        {
          "internalType": "address",
          "name": "to",
          "type": "address"
        },
        {
          "internalType": "uint256",
          "name": "tokenId",
          "type": "uint256"
        }
      ],
      "name": "approve",
      "outputs": [],
      "stateMutability": "nonpayable",
      "type": "function"
    },
    {
      "inputs": [
        {
          "internalType": "address",
          "name": "owner",
          "type": "address"
        }
      ],
      "name": "balanceOf",
      "outputs": [
        {
          "internalType": "uint256",
          "name": "",
          "type": "uint256"
        }
      ],
      "stateMutability": "view",
      "type": "function"
    },
    {
      "inputs": [
        {
          "internalType": "uint256",
          "name": "streamId",
          "type": "uint256"
        }
      ],
      "name": "burn",
      "outputs": [],
      "stateMutability": "nonpayable",
      "type": "function"
    },
    {
      "inputs": [
        {
          "internalType": "uint256",
          "name": "streamId",
          "type": "uint256"
        }
      ],
      "name": "cancel",
      "outputs": [],
      "stateMutability": "nonpayable",
      "type": "function"
    },
    {
      "inputs": [
        {
          "internalType": "uint256[]",
          "name": "streamIds",
          "type": "uint256[]"
        }
      ],
      "name": "cancelMultiple",
      "outputs": [],
      "stateMutability": "nonpayable",
      "type": "function"
    },
    {
      "inputs": [
        {
          "internalType": "contract IERC20",
          "name": "asset",
          "type": "address"
        }
      ],
      "name": "claimProtocolRevenues",
      "outputs": [],
      "stateMutability": "nonpayable",
      "type": "function"
    },
    {
      "inputs": [],
      "name": "comptroller",
      "outputs": [
        {
          "internalType": "contract ISablierV2Comptroller",
          "name": "",
          "type": "address"
        }
      ],
      "stateMutability": "view",
      "type": "function"
    },
    {
      "inputs": [
        {
          "components": [
            {
              "internalType": "address",
              "name": "sender",
              "type": "address"
            },
            {
              "internalType": "address",
              "name": "recipient",
              "type": "address"
            },
            {
              "internalType": "uint128",
              "name": "totalAmount",
              "type": "uint128"
            },
            {
              "internalType": "contract IERC20",
              "name": "asset",
              "type": "address"
            },
            {
              "internalType": "bool",
              "name": "cancelable",
              "type": "bool"
            },
            {
              "internalType": "bool",
              "name": "transferable",
              "type": "bool"
            },
            {
              "components": [
                {
                  "internalType": "uint40",
                  "name": "cliff",
                  "type": "uint40"
                },
                {
                  "internalType": "uint40",
                  "name": "total",
                  "type": "uint40"
                }
              ],
              "internalType": "struct LockupLinear.Durations",
              "name": "durations",
              "type": "tuple"
            },
            {
              "components": [
                {
                  "internalType": "address",
                  "name": "account",
                  "type": "address"
                },
                {
                  "internalType": "UD60x18",
                  "name": "fee",
                  "type": "uint256"
                }
              ],
              "internalType": "struct Broker",
              "name": "broker",
              "type": "tuple"
            }
          ],
          "internalType": "struct LockupLinear.CreateWithDurations",
          "name": "params",
          "type": "tuple"
        }
      ],
      "name": "createWithDurations",
      "outputs": [
        {
          "internalType": "uint256",
          "name": "streamId",
          "type": "uint256"
        }
      ],
      "stateMutability": "nonpayable",
      "type": "function"
    },
    {
      "inputs": [
        {
          "components": [
            {
              "internalType": "address",
              "name": "sender",
              "type": "address"
            },
            {
              "internalType": "address",
              "name": "recipient",
              "type": "address"
            },
            {
              "internalType": "uint128",
              "name": "totalAmount",
              "type": "uint128"
            },
            {
              "internalType": "contract IERC20",
              "name": "asset",
              "type": "address"
            },
            {
              "internalType": "bool",
              "name": "cancelable",
              "type": "bool"
            },
            {
              "internalType": "bool",
              "name": "transferable",
              "type": "bool"
            },
            {
              "components": [
                {
                  "internalType": "uint40",
                  "name": "start",
                  "type": "uint40"
                },
                {
                  "internalType": "uint40",
                  "name": "cliff",
                  "type": "uint40"
                },
                {
                  "internalType": "uint40",
                  "name": "end",
                  "type": "uint40"
                }
              ],
              "internalType": "struct LockupLinear.Range",
              "name": "range",
              "type": "tuple"
            },
            {
              "components": [
                {
                  "internalType": "address",
                  "name": "account",
                  "type": "address"
                },
                {
                  "internalType": "UD60x18",
                  "name": "fee",
                  "type": "uint256"
                }
              ],
              "internalType": "struct Broker",
              "name": "broker",
              "type": "tuple"
            }
          ],
          "internalType": "struct LockupLinear.CreateWithRange",
          "name": "params",
          "type": "tuple"
        }
      ],
      "name": "createWithRange",
      "outputs": [
        {
          "internalType": "uint256",
          "name": "streamId",
          "type": "uint256"
        }
      ],
      "stateMutability": "nonpayable",
      "type": "function"
    },
    {
      "inputs": [
        {
          "internalType": "uint256",
          "name": "tokenId",
          "type": "uint256"
        }
      ],
      "name": "getApproved",
      "outputs": [
        {
          "internalType": "address",
          "name": "",
          "type": "address"
        }
      ],
      "stateMutability": "view",
      "type": "function"
    },
    {
      "inputs": [
        {
          "internalType": "uint256",
          "name": "streamId",
          "type": "uint256"
        }
      ],
      "name": "getAsset",
      "outputs": [
        {
          "internalType": "contract IERC20",
          "name": "asset",
          "type": "address"
        }
      ],
      "stateMutability": "view",
      "type": "function"
    },
    {
      "inputs": [
        {
          "internalType": "uint256",
          "name": "streamId",
          "type": "uint256"
        }
      ],
      "name": "getCliffTime",
      "outputs": [
        {
          "internalType": "uint40",
          "name": "cliffTime",
          "type": "uint40"
        }
      ],
      "stateMutability": "view",
      "type": "function"
    },
    {
      "inputs": [
        {
          "internalType": "uint256",
          "name": "streamId",
          "type": "uint256"
        }
      ],
      "name": "getDepositedAmount",
      "outputs": [
        {
          "internalType": "uint128",
          "name": "depositedAmount",
          "type": "uint128"
        }
      ],
      "stateMutability": "view",
      "type": "function"
    },
    {
      "inputs": [
        {
          "internalType": "uint256",
          "name": "streamId",
          "type": "uint256"
        }
      ],
      "name": "getEndTime",
      "outputs": [
        {
          "internalType": "uint40",
          "name": "endTime",
          "type": "uint40"
        }
      ],
      "stateMutability": "view",
      "type": "function"
    },
    {
      "inputs": [
        {
          "internalType": "uint256",
          "name": "streamId",
          "type": "uint256"
        }
      ],
      "name": "getRange",
      "outputs": [
        {
          "components": [
            {
              "internalType": "uint40",
              "name": "start",
              "type": "uint40"
            },
            {
              "internalType": "uint40",
              "name": "cliff",
              "type": "uint40"
            },
            {
              "internalType": "uint40",
              "name": "end",
              "type": "uint40"
            }
          ],
          "internalType": "struct LockupLinear.Range",
          "name": "range",
          "type": "tuple"
        }
      ],
      "stateMutability": "view",
      "type": "function"
    },
    {
      "inputs": [
        {
          "internalType": "uint256",
          "name": "streamId",
          "type": "uint256"
        }
      ],
      "name": "getRecipient",
      "outputs": [
        {
          "internalType": "address",
          "name": "recipient",
          "type": "address"
        }
      ],
      "stateMutability": "view",
      "type": "function"
    },
    {
      "inputs": [
        {
          "internalType": "uint256",
          "name": "streamId",
          "type": "uint256"
        }
      ],
      "name": "getRefundedAmount",
      "outputs": [
        {
          "internalType": "uint128",
          "name": "refundedAmount",
          "type": "uint128"
        }
      ],
      "stateMutability": "view",
      "type": "function"
    },
    {
      "inputs": [
        {
          "internalType": "uint256",
          "name": "streamId",
          "type": "uint256"
        }
      ],
      "name": "getSender",
      "outputs": [
        {
          "internalType": "address",
          "name": "sender",
          "type": "address"
        }
      ],
      "stateMutability": "view",
      "type": "function"
    },
    {
      "inputs": [
        {
          "internalType": "uint256",
          "name": "streamId",
          "type": "uint256"
        }
      ],
      "name": "getStartTime",
      "outputs": [
        {
          "internalType": "uint40",
          "name": "startTime",
          "type": "uint40"
        }
      ],
      "stateMutability": "view",
      "type": "function"
    },
    {
      "inputs": [
        {
          "internalType": "uint256",
          "name": "streamId",
          "type": "uint256"
        }
      ],
      "name": "getStream",
      "outputs": [
        {
          "components": [
            {
              "internalType": "address",
              "name": "sender",
              "type": "address"
            },
            {
              "internalType": "uint40",
              "name": "startTime",
              "type": "uint40"
            },
            {
              "internalType": "uint40",
              "name": "cliffTime",
              "type": "uint40"
            },
            {
              "internalType": "bool",
              "name": "isCancelable",
              "type": "bool"
            },
            {
              "internalType": "bool",
              "name": "wasCanceled",
              "type": "bool"
            },
            {
              "internalType": "contract IERC20",
              "name": "asset",
              "type": "address"
            },
            {
              "internalType": "uint40",
              "name": "endTime",
              "type": "uint40"
            },
            {
              "internalType": "bool",
              "name": "isDepleted",
              "type": "bool"
            },
            {
              "internalType": "bool",
              "name": "isStream",
              "type": "bool"
            },
            {
              "internalType": "bool",
              "name": "isTransferable",
              "type": "bool"
            },
            {
              "components": [
                {
                  "internalType": "uint128",
                  "name": "deposited",
                  "type": "uint128"
                },
                {
                  "internalType": "uint128",
                  "name": "withdrawn",
                  "type": "uint128"
                },
                {
                  "internalType": "uint128",
                  "name": "refunded",
                  "type": "uint128"
                }
              ],
              "internalType": "struct Lockup.Amounts",
              "name": "amounts",
              "type": "tuple"
            }
          ],
          "internalType": "struct LockupLinear.Stream",
          "name": "stream",
          "type": "tuple"
        }
      ],
      "stateMutability": "view",
      "type": "function"
    },
    {
      "inputs": [
        {
          "internalType": "uint256",
          "name": "streamId",
          "type": "uint256"
        }
      ],
      "name": "getWithdrawnAmount",
      "outputs": [
        {
          "internalType": "uint128",
          "name": "withdrawnAmount",
          "type": "uint128"
        }
      ],
      "stateMutability": "view",
      "type": "function"
    },
    {
      "inputs": [
        {
          "internalType": "address",
          "name": "owner",
          "type": "address"
        },
        {
          "internalType": "address",
          "name": "operator",
          "type": "address"
        }
      ],
      "name": "isApprovedForAll",
      "outputs": [
        {
          "internalType": "bool",
          "name": "",
          "type": "bool"
        }
      ],
      "stateMutability": "view",
      "type": "function"
    },
    {
      "inputs": [
        {
          "internalType": "uint256",
          "name": "streamId",
          "type": "uint256"
        }
      ],
      "name": "isCancelable",
      "outputs": [
        {
          "internalType": "bool",
          "name": "result",
          "type": "bool"
        }
      ],
      "stateMutability": "view",
      "type": "function"
    },
    {
      "inputs": [
        {
          "internalType": "uint256",
          "name": "streamId",
          "type": "uint256"
        }
      ],
      "name": "isCold",
      "outputs": [
        {
          "internalType": "bool",
          "name": "result",
          "type": "bool"
        }
      ],
      "stateMutability": "view",
      "type": "function"
    },
    {
      "inputs": [
        {
          "internalType": "uint256",
          "name": "streamId",
          "type": "uint256"
        }
      ],
      "name": "isDepleted",
      "outputs": [
        {
          "internalType": "bool",
          "name": "result",
          "type": "bool"
        }
      ],
      "stateMutability": "view",
      "type": "function"
    },
    {
      "inputs": [
        {
          "internalType": "uint256",
          "name": "streamId",
          "type": "uint256"
        }
      ],
      "name": "isStream",
      "outputs": [
        {
          "internalType": "bool",
          "name": "result",
          "type": "bool"
        }
      ],
      "stateMutability": "view",
      "type": "function"
    },
    {
      "inputs": [
        {
          "internalType": "uint256",
          "name": "streamId",
          "type": "uint256"
        }
      ],
      "name": "isTransferable",
      "outputs": [
        {
          "internalType": "bool",
          "name": "result",
          "type": "bool"
        }
      ],
      "stateMutability": "view",
      "type": "function"
    },
    {
      "inputs": [
        {
          "internalType": "uint256",
          "name": "streamId",
          "type": "uint256"
        }
      ],
      "name": "isWarm",
      "outputs": [
        {
          "internalType": "bool",
          "name": "result",
          "type": "bool"
        }
      ],
      "stateMutability": "view",
      "type": "function"
    },
    {
      "inputs": [],
      "name": "name",
      "outputs": [
        {
          "internalType": "string",
          "name": "",
          "type": "string"
        }
      ],
      "stateMutability": "view",
      "type": "function"
    },
    {
      "inputs": [],
      "name": "nextStreamId",
      "outputs": [
        {
          "internalType": "uint256",
          "name": "",
          "type": "uint256"
        }
      ],
      "stateMutability": "view",
      "type": "function"
    },
    {
      "inputs": [
        {
          "internalType": "uint256",
          "name": "tokenId",
          "type": "uint256"
        }
      ],
      "name": "ownerOf",
      "outputs": [
        {
          "internalType": "address",
          "name": "",
          "type": "address"
        }
      ],
      "stateMutability": "view",
      "type": "function"
    },
    {
      "inputs": [
        {
          "internalType": "contract IERC20",
          "name": "asset",
          "type": "address"
        }
      ],
      "name": "protocolRevenues",
      "outputs": [
        {
          "internalType": "uint128",
          "name": "revenues",
          "type": "uint128"
        }
      ],
      "stateMutability": "view",
      "type": "function"
    },
    {
      "inputs": [
        {
          "internalType": "uint256",
          "name": "streamId",
          "type": "uint256"
        }
      ],
      "name": "refundableAmountOf",
      "outputs": [
        {
          "internalType": "uint128",
          "name": "refundableAmount",
          "type": "uint128"
        }
      ],
      "stateMutability": "view",
      "type": "function"
    },
    {
      "inputs": [
        {
          "internalType": "uint256",
          "name": "streamId",
          "type": "uint256"
        }
      ],
      "name": "renounce",
      "outputs": [],
      "stateMutability": "nonpayable",
      "type": "function"
    },
    {
      "inputs": [
        {
          "internalType": "address",
          "name": "from",
          "type": "address"
        },
        {
          "internalType": "address",
          "name": "to",
          "type": "address"
        },
        {
          "internalType": "uint256",
          "name": "tokenId",
          "type": "uint256"
        }
      ],
      "name": "safeTransferFrom",
      "outputs": [],
      "stateMutability": "nonpayable",
      "type": "function"
    },
    {
      "inputs": [
        {
          "internalType": "address",
          "name": "from",
          "type": "address"
        },
        {
          "internalType": "address",
          "name": "to",
          "type": "address"
        },
        {
          "internalType": "uint256",
          "name": "tokenId",
          "type": "uint256"
        },
        {
          "internalType": "bytes",
          "name": "data",
          "type": "bytes"
        }
      ],
      "name": "safeTransferFrom",
      "outputs": [],
      "stateMutability": "nonpayable",
      "type": "function"
    },
    {
      "inputs": [
        {
          "internalType": "address",
          "name": "operator",
          "type": "address"
        },
        {
          "internalType": "bool",
          "name": "approved",
          "type": "bool"
        }
      ],
      "name": "setApprovalForAll",
      "outputs": [],
      "stateMutability": "nonpayable",
      "type": "function"
    },
    {
      "inputs": [
        {
          "internalType": "contract ISablierV2Comptroller",
          "name": "newComptroller",
          "type": "address"
        }
      ],
      "name": "setComptroller",
      "outputs": [],
      "stateMutability": "nonpayable",
      "type": "function"
    },
    {
      "inputs": [
        {
          "internalType": "contract ISablierV2NFTDescriptor",
          "name": "newNFTDescriptor",
          "type": "address"
        }
      ],
      "name": "setNFTDescriptor",
      "outputs": [],
      "stateMutability": "nonpayable",
      "type": "function"
    },
    {
      "inputs": [
        {
          "internalType": "uint256",
          "name": "streamId",
          "type": "uint256"
        }
      ],
      "name": "statusOf",
      "outputs": [
        {
          "internalType": "enum Lockup.Status",
          "name": "status",
          "type": "uint8"
        }
      ],
      "stateMutability": "view",
      "type": "function"
    },
    {
      "inputs": [
        {
          "internalType": "uint256",
          "name": "streamId",
          "type": "uint256"
        }
      ],
      "name": "streamedAmountOf",
      "outputs": [
        {
          "internalType": "uint128",
          "name": "streamedAmount",
          "type": "uint128"
        }
      ],
      "stateMutability": "view",
      "type": "function"
    },
    {
      "inputs": [
        {
          "internalType": "bytes4",
          "name": "interfaceId",
          "type": "bytes4"
        }
      ],
      "name": "supportsInterface",
      "outputs": [
        {
          "internalType": "bool",
          "name": "",
          "type": "bool"
        }
      ],
      "stateMutability": "view",
      "type": "function"
    },
    {
      "inputs": [],
      "name": "symbol",
      "outputs": [
        {
          "internalType": "string",
          "name": "",
          "type": "string"
        }
      ],
      "stateMutability": "view",
      "type": "function"
    },
    {
      "inputs": [
        {
          "internalType": "uint256",
          "name": "streamId",
          "type": "uint256"
        }
      ],
      "name": "tokenURI",
      "outputs": [
        {
          "internalType": "string",
          "name": "uri",
          "type": "string"
        }
      ],
      "stateMutability": "view",
      "type": "function"
    },
    {
      "inputs": [
        {
          "internalType": "address",
          "name": "newAdmin",
          "type": "address"
        }
      ],
      "name": "transferAdmin",
      "outputs": [],
      "stateMutability": "nonpayable",
      "type": "function"
    },
    {
      "inputs": [
        {
          "internalType": "address",
          "name": "from",
          "type": "address"
        },
        {
          "internalType": "address",
          "name": "to",
          "type": "address"
        },
        {
          "internalType": "uint256",
          "name": "tokenId",
          "type": "uint256"
        }
      ],
      "name": "transferFrom",
      "outputs": [],
      "stateMutability": "nonpayable",
      "type": "function"
    },
    {
      "inputs": [
        {
          "internalType": "uint256",
          "name": "streamId",
          "type": "uint256"
        }
      ],
      "name": "wasCanceled",
      "outputs": [
        {
          "internalType": "bool",
          "name": "result",
          "type": "bool"
        }
      ],
      "stateMutability": "view",
      "type": "function"
    },
    {
      "inputs": [
        {
          "internalType": "uint256",
          "name": "streamId",
          "type": "uint256"
        },
        {
          "internalType": "address",
          "name": "to",
          "type": "address"
        },
        {
          "internalType": "uint128",
          "name": "amount",
          "type": "uint128"
        }
      ],
      "name": "withdraw",
      "outputs": [],
      "stateMutability": "nonpayable",
      "type": "function"
    },
    {
      "inputs": [
        {
          "internalType": "uint256",
          "name": "streamId",
          "type": "uint256"
        },
        {
          "internalType": "address",
          "name": "to",
          "type": "address"
        }
      ],
      "name": "withdrawMax",
      "outputs": [],
      "stateMutability": "nonpayable",
      "type": "function"
    },
    {
      "inputs": [
        {
          "internalType": "uint256",
          "name": "streamId",
          "type": "uint256"
        },
        {
          "internalType": "address",
          "name": "newRecipient",
          "type": "address"
        }
      ],
      "name": "withdrawMaxAndTransfer",
      "outputs": [],
      "stateMutability": "nonpayable",
      "type": "function"
    },
    {
      "inputs": [
        {
          "internalType": "uint256[]",
          "name": "streamIds",
          "type": "uint256[]"
        },
        {
          "internalType": "address",
          "name": "to",
          "type": "address"
        },
        {
          "internalType": "uint128[]",
          "name": "amounts",
          "type": "uint128[]"
        }
      ],
      "name": "withdrawMultiple",
      "outputs": [],
      "stateMutability": "nonpayable",
      "type": "function"
    },
    {
      "inputs": [
        {
          "internalType": "uint256",
          "name": "streamId",
          "type": "uint256"
        }
      ],
      "name": "withdrawableAmountOf",
      "outputs": [
        {
          "internalType": "uint128",
          "name": "withdrawableAmount",
          "type": "uint128"
        }
      ],
      "stateMutability": "view",
      "type": "function"
    }
  ],
  "bytecode": {
    "object": "0x60a034620003e757601f196001600160401b03601f62004ca23881900382810185168601919084831187841017620003ec57808792606094604052833981010312620003e75783516001600160a01b03928382169291839003620003e7576020918287015196858816809803620003e75760400151948516809503620003e7576200008962000402565b90601c82527f5361626c696572205632204c6f636b7570204c696e656172204e46540000000084830152620000bd62000402565b601181527029a0a116ab1916a627a1a5aaa816a624a760791b8582015230608052600080546001600160a01b031990811688178255600180548216909b178b5596817fbdd36143ee09de60bdefca70680e0f71189b2ed7acee364b53917ad433fdaf808180a38351858111620003d35760039485548c81811c91168015620003c8575b89821014620003b45790818684931162000361575b508890868311600114620002f8578492620002ec575b505060001982871b1c1916908b1b1784555b8151948511620002d8576004958654998b8b811c9b168015620002cd575b828c1014620002ba57848b1162000271575b869798999a50819487116001146200020a57505093620001fe575b505082871b92600019911b1c19161790555b600a541617600a5560095560405161487f9081620004238239608051816145a90152f35b015191503880620001c8565b8883528183208c9890969594939116915b8282106200025757505085116200023c575b50505050811b019055620001da565b01519060f884600019921b161c19169055388080806200022d565b8484015187558c989096019593840193908101906200021b565b87835281832085880160051c81019b838910620002af575b860160051c019a8c905b8c8110620002a3575050620001ad565b848155018c9062000293565b909b508b9062000289565b634e487b7160e01b835260228852602483fd5b9a607f169a6200019b565b634e487b7160e01b81526041600452602490fd5b0151905038806200016b565b908c8e9416918886528a862092865b8c82821062000341575050841162000328575b505050811b0184556200017d565b015160001983891b60f8161c191690553880806200031a565b91929395968291958786015181550195019301908f959493929162000307565b9091508684528884208680850160051c8201928b8610620003aa575b918f91869594930160051c01915b8281106200039b57505062000155565b8681558594508f91016200038b565b925081926200037d565b634e487b7160e01b84526022600452602484fd5b90607f169062000140565b634e487b7160e01b82526041600452602482fd5b600080fd5b634e487b7160e01b600052604160045260246000fd5b60408051919082016001600160401b03811183821017620003ec5760405256fe608080604052600436101561001357600080fd5b600090813560e01c90816301ffc9a714612e245750806306fdde0314612d62578063081812fc14612d43578063095ea7b314612bb45780631400ecec14612b145780631c1cdd4c14612aaf5780631e99d56914612a9157806323b872dd14612a6757806339a73c0314612a2657806340e58ee514612788578063425d30dd1461276957806342842e0e1461271957806342966c681461258f5780634857501f146125055780634869e12d146124ca5780635fe3b567146124a35780636352211e146124735780636d0cee751461241d57806370a082311461237457806375829def146122e1578063780a82c8146122915780637cad6cd1146121c05780637de6b1db14611fc95780638659c27014611ca8578063894e9a0d14611a545780638bad38dd146119d75780638f69b9931461193b5780639067b677146118e857806395d89b41146117db57806396ce1431146116bc578063a22cb465146115eb578063a2ffb897146111fe578063a6202bf214611101578063a80fc071146110af578063ab167ccc14610f76578063ad35efd414610f14578063b256456914610ef5578063b88d4fde14610e68578063b8a3be6614610e33578063b971302a14610de4578063bc063e1a14610dc1578063bc2be1be14610d71578063c156a11d146109c1578063c87b56dd14610887578063cc364f48146107d9578063d4dbd20b14610787578063d511609f1461073b578063d975dfed146106ef578063e985e9c51461069a578063ea5ead1914610674578063eac8f5b81461060b578063f590c176146105e2578063f851a440146105bc5763fdd46d601461027357600080fd5b346105b95760603660031901126105b95760043561028f612f53565b610297613093565b906102a061459f565b6102a983613723565b6105a1576102cd83600052600b6020526001600160a01b0360406000205416331490565b90811580610591575b61057257838552602092600584526001600160a01b0391826040882054169380610566575b61054057828116928315610516576001600160801b038084169384156104fe5761032489614661565b82811686116104ca5750938093926103ca9261038f6103578d9a99988d8c52600b8d52600260408d20015460801c6146af565b8c8b52600b8c5261038a600260408d20019182906001600160801b036001600160801b031983549260801b169116179055565b6136b8565b906103ab818c840151169282604081835116920151169061375a565b16111561049a575b898852600b895260016040892001541692836145fb565b82877f40b88e5c41c5a97ffb7b6ef88a0a2d505aa0c634cf8a0275cb236ea7dd87ed4d88604051868152a48233141580610490575b610432575b837ff8e1a15aba9398e019f0b49df1a4fde98ee17ae345cb5f6b5e2c27f5033e8ce78688604051908152a180f35b823b1561048c57608484928360405195869485936313375c3b60e01b85528b6004860152336024860152604485015260648401525af1610474575b8080610404565b61047d90612fcf565b61048857823861046d565b8280fd5b8380fd5b50823b15156103ff565b898852600b89526040882060018101600160c81b60ff60c81b1982541617905560ff60f01b1981541690556103b3565b60405163287ecaef60e21b8152600481018b90526001600160801b03928316602482015291166044820152606490fd5b0390fd5b6024896040519063d2aabcd960e01b82526004820152fd5b60046040517fc61a0e9e000000000000000000000000000000000000000000000000000000008152fd5b858360649260405192632dcbf6b960e11b84526004840152336024840152166044820152fd5b508383821614156102fb565b60405163216caf0d60e01b815260048101859052336024820152604490fd5b5061059b846146ca565b156102d6565b60248360405190634a5541ef60e01b82526004820152fd5b80fd5b50346105b957806003193601126105b9576001600160a01b036020915416604051908152f35b50346105b95760203660031901126105b9576020610601600435613789565b6040519015158152f35b50346105b95760203660031901126105b957600435808252600b60205260ff600160408420015460d01c161561065d5760016040836001600160a01b039360209552600b855220015416604051908152f35b6024906040519062b8e7e760e51b82526004820152fd5b50346105b95760403660031901126105b957600435610691612f53565b61029782614661565b50346105b95760403660031901126105b9576106b4612f3d565b60406106be612f53565b926001600160a01b0380931681526008602052209116600052602052602060ff604060002054166040519015158152f35b50346105b95760203660031901126105b95760ff6001604060043593848152600b60205220015460d01c161561065d5761072a602091614661565b6001600160801b0360405191168152f35b50346105b95760203660031901126105b957600435808252600b60205260ff600160408420015460d01c161561065d5760408260029260209452600b845220015460801c604051908152f35b50346105b95760203660031901126105b957600435808252600b60205260ff600160408420015460d01c161561065d5760036040836001600160801b039360209552600b855220015416604051908152f35b50346105b95760203660031901126105b9576004356107f6613699565b50808252600b60205260ff600160408420015460d01c161561065d578160409160609352600b60205220600181549164ffffffffff918291015460a01c1690604051926108428461301d565b818160a01c16845260c81c166020830152604082015261088560405180926040908164ffffffffff91828151168552826020820151166020860152015116910152565bf35b50346105b9576020806003193601126109b1576004356108c56108c08260005260056020526001600160a01b0360406000205416151590565b6130a9565b826001600160a01b03600a5416916044604051809481937fe9dc637500000000000000000000000000000000000000000000000000000000835230600484015260248301525afa9283156109b5578093610934575b5050610930604051928284938452830190612f18565b0390f35b909192503d8082843e6109478184613055565b82019183818403126109b15780519067ffffffffffffffff8211610488570182601f820112156109b15780519161097d83613077565b9361098b6040519586613055565b8385528584840101116105b95750906109a991848085019101612ef5565b90388061091a565b5080fd5b604051903d90823e3d90fd5b50346105b95760403660031901126105b9576004356109de612f53565b906109e761459f565b808352602090600b825260ff600160408620015460d01c161561065d57808452600582526001600160a01b03928360408620541693843303610d5257610a2c83614661565b906001600160801b0390818316918215938415610a7d575b897ff8e1a15aba9398e019f0b49df1a4fde98ee17ae345cb5f6b5e2c27f5033e8ce78989610a73818b8f61333c565b604051908152a180f35b610a8561459f565b610a8e87613723565b610d3a57610ab287600052600b6020526001600160a01b0360406000205416331490565b94851580610d2a575b610d0b57878b52600589528360408c2054169580610d01575b610cdd57891561051657610cc557610aeb87614661565b8281168511610c95575090610b4b610b188b96959493898852600b8b52600260408920015460801c6146af565b888752600b8a5261038a600260408920019182906001600160801b036001600160801b031983549260801b169116179055565b90610b67818a840151169282604081835116920151169061375a565b161115610c65575b858452600b8752600160408520015416610b8a8289836145fb565b87867f40b88e5c41c5a97ffb7b6ef88a0a2d505aa0c634cf8a0275cb236ea7dd87ed4d89604051868152a48133141580610c5b575b610c00575b50505081610a73917ff8e1a15aba9398e019f0b49df1a4fde98ee17ae345cb5f6b5e2c27f5033e8ce7958686604051858152a195819338610a44565b813b156104885782916084839260405194859384926313375c3b60e01b84528a60048501523360248501528c604485015260648401525af1610c43575b80610bc4565b610c4c90612fcf565b610c57578438610c3d565b8480fd5b50813b1515610bbf565b858452600b87526040842060018101600160c81b60ff60c81b1982541617905560ff60f01b198154169055610b6f565b60405163287ecaef60e21b8152600481018990526001600160801b03928316602482015291166044820152606490fd5b6024876040519063d2aabcd960e01b82526004820152fd5b6064888b60405191632dcbf6b960e11b835260048301523360248301526044820152fd5b50858a1415610ad4565b60405163216caf0d60e01b815260048101899052336024820152604490fd5b50610d34886146ca565b15610abb565b60248760405190634a5541ef60e01b82526004820152fd5b60405163216caf0d60e01b815260048101849052336024820152604490fd5b50346105b95760203660031901126105b957600435808252600b60205260ff600160408420015460d01c161561065d5760408264ffffffffff9260209452600b8452205460a01c16604051908152f35b50346105b957806003193601126105b957602060405167016345785d8a00008152f35b50346105b95760203660031901126105b957600435808252600b60205260ff600160408420015460d01c161561065d576040826001600160a01b039260209452600b8452205416604051908152f35b50346105b95760203660031901126105b95760ff600160406020936004358152600b855220015460d01c166040519015158152f35b50346105b95760803660031901126105b957610e82612f3d565b610e8a612f53565b906064359067ffffffffffffffff821161048c573660238301121561048c5781600401359284610eb985613077565b93610ec76040519586613055565b85855236602487830101116109b15785610ef2966024602093018388013785010152604435916131c7565b80f35b50346105b95760203660031901126105b95760206106016004356136ec565b50346105b95760203660031901126105b957600435808252600b60205260ff600160408420015460d01c161561065d57610f4d906139ff565b604051906005811015610f6257602092508152f35b602483634e487b7160e01b81526021600452fd5b50346105b9576101403660031901126105b957610f9161459f565b610f99613699565b9064ffffffffff80421680845260c43582811681036110aa5781018216602085015260e4359081831682036110aa5701166040830152606435916001600160a01b03918284168094036105b957506084358015158091036110aa5760a435908115158092036110aa57602435948486168096036110aa57600435958587168097036110aa57604435906001600160801b0382168092036110aa576040519761104089613000565b8852602088015260408701526060860152608085015260a084015260c08301526040610103193601126110aa576040519161107a83613039565b6101043591821682036110aa57826110a29260209452610124358482015260e0820152613b01565b604051908152f35b600080fd5b50346105b95760203660031901126105b957600435808252600b60205260ff600160408420015460d01c161561065d5760026040836001600160801b039360209552600b855220015416604051908152f35b50346105b95760203660031901126105b95761111b612f3d565b6001600160a01b03808354163381036111d5575081169081835260026020526001600160801b036040842054169081156111a45781611175918486526002602052604086206001600160801b0319815416905533906145fb565b6040519081527fca7a4a65a94ed2f37538814e00e1cd4c41a78261561e3f3794592f11409cf5af60203392a380f35b602483604051907f8410168c0000000000000000000000000000000000000000000000000000000082526004820152fd5b6040516331b339a960e21b81526001600160a01b03919091166004820152336024820152604490fd5b50346105b95760603660031901126105b95767ffffffffffffffff60043581811161048857611231903690600401612f9e565b9061123a612f53565b92604435908111610c5757611253903690600401612f9e565b61125e94919461459f565b8084036115b45791926001600160a01b038216159290865b818110611281578780f35b61128c818388614689565b359061129981858a614689565b356001600160801b03811681036110aa576112b261459f565b6112bb83613723565b6105a1576112df83600052600b6020526001600160a01b0360406000205416331490565b8015806115a4575b61057257838b5260056020526001600160a01b0360408c2054169080611591575b6115645787610516576001600160801b0382161561154c5761132984614661565b6001600160801b0381166001600160801b0384161161151a5750908a91848352600b80602052611399600261038a61136a868360408a20015460801c6146af565b918988528460205260408820019182906001600160801b036001600160801b031983549260801b169116179055565b6001600160801b036113bd816020840151169282604081835116920151169061375a565b1611156114ea575b8584526020526001600160a01b036001604085200154166113f06001600160801b0384168a836145fb565b6040516001600160801b0384168152867f40b88e5c41c5a97ffb7b6ef88a0a2d505aa0c634cf8a0275cb236ea7dd87ed4d60206001600160a01b038d1693a480331415806114e0575b611474575b5050507ff8e1a15aba9398e019f0b49df1a4fde98ee17ae345cb5f6b5e2c27f5033e8ce76020600193604051908152a101611276565b803b15610488576001600160a01b036084898580946001600160801b0360405197889687956313375c3b60e01b87528d60048801523360248801521660448601521660648401525af16114c8575b8061143e565b6114d190612fcf565b6114dc5788386114c2565b8880fd5b50803b1515611439565b858452806020526040842060018101600160c81b60ff60c81b1982541617905560ff60f01b1981541690556113c5565b60405163287ecaef60e21b8152600481018690526001600160801b038481166024830152919091166044820152606490fd5b6024846040519063d2aabcd960e01b82526004820152fd5b6064846001600160a01b038960405192632dcbf6b960e11b84526004840152336024840152166044820152fd5b50806001600160a01b0388161415611308565b506115ae846146ca565b156112e7565b83604491604051917faec9344000000000000000000000000000000000000000000000000000000000835260048301526024820152fd5b50346105b95760403660031901126105b957611605612f3d565b602435908115158092036110aa576001600160a01b0316908133146116785733835260086020526040832082600052602052604060002060ff1981541660ff83161790556040519081527f17307eab39ab6107e8899845ad3d59bd9653f200f220920489ca2b5937696c3160203392a380f35b606460405162461bcd60e51b815260206004820152601960248201527f4552433732313a20617070726f766520746f2063616c6c6572000000000000006044820152fd5b50346105b9576101603660031901126105b9576116d761459f565b604051906116e482613000565b6116ec612f3d565b82526116f6612f53565b6020830152611703613093565b60408301526001600160a01b039060643582811681036110aa57606084015260843580151581036110aa57608084015260a43580151581036110aa5760a084015260603660c31901126105b9575060405161175d8161301d565b64ffffffffff60c43581811681036110aa57825260e43581811681036110aa5760208301526101043590811681036110aa57604082015260c08301526040610123193601126110aa57604051916117b383613039565b6101243591821682036110aa57826110a29260209452610144358482015260e0820152613b01565b50346105b957806003193601126105b957604051908060045491600183811c928185169485156118de575b60209586861081146118ca578588528794939291879082156118a857505060011461184e575b505061183a92500383613055565b610930604051928284938452830190612f18565b90859250600482527f8a35acfbc15ff81a39ae7d344fd709f28e8600b4aa8c65c6b64bfe7fe36bd19b5b85831061189057505061183a9350820101388061182c565b80548389018501528794508693909201918101611878565b925093505061183a94915060ff191682840152151560051b820101388061182c565b602483634e487b7160e01b81526022600452fd5b93607f1693611806565b50346105b95760203660031901126105b957600435808252600b60205260ff600160408420015460d01c161561065d57600160408364ffffffffff9360209552600b855220015460a01c16604051908152f35b50346105b95760203660031901126105b957600435808252600b60205260ff600160408420015460d01c161561065d57611974906139ff565b90600582101590816119b557600283149182156119c9575b82156119a0575b6020836040519015158152f35b9091506119b557506004602091143880611993565b80634e487b7160e01b602492526021600452fd5b50600383149150600061198c565b50346105b95760203660031901126105b9576004356001600160a01b039081811680910361048857818354163381036111d5575060015491816001600160a01b03198416176001556040519216825260208201527fdcb09aef4bf01068924ccce937981cbe59d25ba08380cf941aaaea4e4bd3960d60403392a280f35b50346105b95760203660031901126105b957604051611a7281612fe3565b8181528160208201528160408201528160608201528160808201528160a08201528160c08201528160e08201528161010082015281610120820152610140611ab8613699565b9101526004358152600b60205260ff600160408320015460d01c1615611c90576004358152600b60205260408120611b91600260405192611af884612fe3565b80546001600160a01b038116855264ffffffffff8160a01c16602086015264ffffffffff8160c81c16604086015260ff8160f01c161515606086015260f81c1515608085015260ff60018201546001600160a01b03811660a087015264ffffffffff8160a01c1660c0870152818160c81c16151560e0870152818160d01c16151561010087015260d81c161515610120850152016136b8565b610140820152611ba26004356139ff565b6005811015610f62579160026101a09314611c85575b50610885610140604051926001600160a01b03815116845264ffffffffff602082015116602085015264ffffffffff60408201511660408501526060810151151560608501526080810151151560808501526001600160a01b0360a08201511660a085015264ffffffffff60c08201511660c085015260e0810151151560e0850152610100810151151561010085015261012081015115156101208501520151610140830190604090816001600160801b0391828151168552826020820151166020860152015116910152565b606082015238611bb8565b602460405162b8e7e760e51b81526004356004820152fd5b50346105b957602090816003193601126105b95760043567ffffffffffffffff81116109b157611cdd83913690600401612f9e565b9190611ce761459f565b83925b808410611cf5578480f35b611d0484828497959697614689565b3594611d0e61459f565b611d1786613723565b15611d345760248660405190634a5541ef60e01b82526004820152fd5b611d3d86613789565b611fb157611d6186600052600b6020526001600160a01b0360406000205416331490565b15611f9257611d6f866137ba565b95808552600b90818752611d88600260408820016136b8565b906001600160801b039283835116848b161015611f7a5781885280895260ff604089205460f01c1615611f6257611dd88a858b611dce60409a9b9c9d9e8389511661375a565b960151169061375a565b92828a52818b52868a20908b8b7f5edb27d6c1a327513b90a792050debf074b7194444885e3144d4decc5caaaa50845497600160f81b7dffffffffffffffffffffffffffffffffffffffffffffffffffffffffffff8a1617865560038a8216968715611f48575b01998516998a6001600160801b03198254161790556001600160a01b0380991698899360058652818e822054169889965260019d8e912001541694611e858b85886145fb565b604080518a81526001600160801b0392831660208201529290911690820152606090a47ff8e1a15aba9398e019f0b49df1a4fde98ee17ae345cb5f6b5e2c27f5033e8ce78b604051858152a1813b611ee9575b505050505001919093919293611cea565b813b15611f4457899493919285809460849360405197889687956372eba20360e01b875260048701526024860152604485015260648401525af1611f30575b808080611ed8565b611f3990612fcf565b610c57578487611f28565b8980fd5b60018101600160c81b60ff60c81b19825416179055611e3f565b602482604051906339c6dc7360e21b82526004820152fd5b602482604051906322cad1af60e11b82526004820152fd5b60405163216caf0d60e01b815260048101879052336024820152604490fd5b6024866040519063fe19f19f60e01b82526004820152fd5b50346105b9576020806003193601126109b15760043590611fe861459f565b818352600b815260ff600160408520015460d01c16156121a95761200b826139ff565b600581101561219557600481036120345760248360405190634a5541ef60e01b82526004820152fd5b60038103612054576024836040519063fe19f19f60e01b82526004820152fd5b600214611f7a5761207b82600052600b6020526001600160a01b0360406000205416331490565b1561217657818352600b815260ff604084205460f01c1615611f6257818352600b81526040832060ff60f01b19815416905582604051837f0eb069207093cd3e51cd1370d2d369770057fbe29947e577e5fb428c6c6fc78f8380a2600583526001600160a01b03604083205416803b61211e575b5050507ff8e1a15aba9398e019f0b49df1a4fde98ee17ae345cb5f6b5e2c27f5033e8ce791604051908152a180f35b803b1561048857816024818580947f341a0bd90000000000000000000000000000000000000000000000000000000083528960048401525af1612162575b806120ef565b61216b90612fcf565b61048857823861215c565b60405163216caf0d60e01b815260048101839052336024820152604490fd5b602484634e487b7160e01b81526021600452fd5b6024826040519062b8e7e760e51b82526004820152fd5b50346105b95760203660031901126105b9576004356001600160a01b039081811680910361048857818354163381036111d55750600a5491816001600160a01b0319841617600a556040519216825260208201527fa2548bd4b805e907c1558a47b5858324fe8bb4a2e1ddfca647eecbf65610eebc60403392a2600954600019810190811161227d5760407f6bd5c950a8d8df17f772f5af37cb3655737899cbf903264b9795592da439661c91815190600182526020820152a180f35b602482634e487b7160e01b81526011600452fd5b50346105b95760203660031901126105b957600435808252600b60205260ff600160408420015460d01c161561065d5760408264ffffffffff9260209452600b8452205460c81c16604051908152f35b50346105b95760203660031901126105b9576122fb612f3d565b9080546001600160a01b038082169333850361234d576001600160a01b03199394501691829116178255337fbdd36143ee09de60bdefca70680e0f71189b2ed7acee364b53917ad433fdaf808380a380f35b6040516331b339a960e21b81526001600160a01b0386166004820152336024820152604490fd5b50346105b95760203660031901126105b9576001600160a01b03612396612f3d565b1680156123b3578160409160209352600683522054604051908152f35b608460405162461bcd60e51b815260206004820152602960248201527f4552433732313a2061646472657373207a65726f206973206e6f74206120766160448201527f6c6964206f776e657200000000000000000000000000000000000000000000006064820152fd5b50346105b95760203660031901126105b9576001600160a01b0360406020926004356124626108c08260005260056020526001600160a01b0360406000205416151590565b815260058452205416604051908152f35b50346105b95760203660031901126105b95760206124926004356130f4565b6001600160a01b0360405191168152f35b50346105b957806003193601126105b95760206001600160a01b0360015416604051908152f35b50346105b95760203660031901126105b95760ff6001604060043593848152600b60205220015460d01c161561065d5761072a602091613a86565b50346105b95760203660031901126105b95760043590818152600b60205260ff600160408320015460d01c16156121a95780612540836139ff565b92600584101561257b57600260209403612561575b50506040519015158152f35b8152600b8352604090205460f01c60ff1690503880612555565b602482634e487b7160e01b81526021600452fd5b50346105b95760203660031901126105b9576004356125ac61459f565b6125b581613723565b156126e8576125c3816146ca565b156126c8576125d1816130f4565b6125da826136ec565b1590816126c0575b816126ad575b506126955760208161261a7ff8e1a15aba9398e019f0b49df1a4fde98ee17ae345cb5f6b5e2c27f5033e8ce7936130f4565b90808552600783526001600160a01b0360408620926001600160a01b03199384815416905516918286526006845260408620600019815401905581865260058452604086209081541690558085604051937fddf252ad1be2c89b69c2b068fc378daa952ba7f163c4a11628f55a4df523b3ef8280a48152a180f35b602490604051906378630aa960e01b82526004820152fd5b6001600160a01b039150161515386125e8565b8391506125e2565b60405163216caf0d60e01b81526004810191909152336024820152604490fd5b602490604051907f817cd6390000000000000000000000000000000000000000000000000000000082526004820152fd5b50346105b95761272836612f69565b60405191602083019383851067ffffffffffffffff86111761275357610ef2946040528584526131c7565b634e487b7160e01b600052604160045260246000fd5b50346105b95760203660031901126105b9576020610601600435613723565b50346105b9576020806003193601126109b157600435906127a761459f565b6127b082613723565b156127cd5760248260405190634a5541ef60e01b82526004820152fd5b906127d781613789565b612a0e576127fb81600052600b6020526001600160a01b0360406000205416331490565b156126c857612809816137ba565b818452600b835261281f600260408620016136b8565b926001600160801b03918285511683821610156129f657838652600b825260ff604087205460f01c16156129de5792827ff8e1a15aba9398e019f0b49df1a4fde98ee17ae345cb5f6b5e2c27f5033e8ce783612894878460409761288a8d9b61293f9b8e511661375a565b9b0151169061375a565b92848852600b825287868120947f5edb27d6c1a327513b90a792050debf074b7194444885e3144d4decc5caaaa50865491600160f81b7dffffffffffffffffffffffffffffffffffffffffffffffffffffffffffff841617885560038582169889156129c4575b01948d169c858e6001600160801b0319819854161790556001600160a01b038094169b8c94600589526001818e892054169d8e98600b8c52200154169685886145fb565b604080518b81526001600160801b0392831660208201529290911690820152606090a4604051848152a1823b612973578480f35b823b15610c5757608492859160405197889687956372eba20360e01b875260048701526024860152604485015260648401525af16129b5575b81818080808480f35b6129be90612fcf565b386129ac565b60018101600160c81b60ff60c81b198254161790556128fb565b602484604051906339c6dc7360e21b82526004820152fd5b602484604051906322cad1af60e11b82526004820152fd5b6024906040519063fe19f19f60e01b82526004820152fd5b50346105b95760203660031901126105b9576001600160801b0360406020926001600160a01b03612a55612f3d565b16815260028452205416604051908152f35b50346105b957610ef2612a7936612f69565b91612a8c612a87843361325d565b613156565b61333c565b50346105b957806003193601126105b9576020600954604051908152f35b50346105b95760203660031901126105b957600435808252600b60205260ff600160408420015460d01c161561065d57612ae8906139ff565b9060058210156119b55760208215838115612b09575b506040519015158152f35b600191501482612afe565b50346105b95760203660031901126105b95760043590818152600b60205260ff600160408320015460d01c16156121a957602091604082828152600b85522060ff815460f01c1680612ba2575b612b79575b50506001600160801b0360405191168152f35b612b9b92506001600160801b036002612b9592015416916137ba565b9061375a565b3880612b66565b5060ff600182015460c81c1615612b61565b50346105b95760403660031901126105b957612bce612f3d565b602435906001600160a01b038080612be5856130f4565b16921691808314612cd957803314908115612cb8575b5015612c4e57828452600760205260408420826001600160a01b0319825416179055612c26836130f4565b167f8c5be1e5ebec7d5bd14f71427d1e84f3dd0314c0f7b2291e5b200ac8c7c3b9258480a480f35b608460405162461bcd60e51b815260206004820152603d60248201527f4552433732313a20617070726f76652063616c6c6572206973206e6f7420746f60448201527f6b656e206f776e6572206f7220617070726f76656420666f7220616c6c0000006064820152fd5b9050845260086020526040842033855260205260ff60408520541638612bfb565b608460405162461bcd60e51b815260206004820152602160248201527f4552433732313a20617070726f76616c20746f2063757272656e74206f776e6560448201527f72000000000000000000000000000000000000000000000000000000000000006064820152fd5b50346105b95760203660031901126105b9576020612492600435613119565b50346105b957806003193601126105b957604051908060035491600183811c92818516948515612e1a575b60209586861081146118ca578588528794939291879082156118a8575050600114612dc057505061183a92500383613055565b90859250600382527fc2575a0e9e593c00f959f8c92f12db2869c3395a3b0502d05e2516446f71f85b5b858310612e0257505061183a9350820101388061182c565b80548389018501528794508693909201918101612dea565b93607f1693612d8d565b9050346109b15760203660031901126109b1576004357fffffffff00000000000000000000000000000000000000000000000000000000811680910361048857602092507f80ac58cd000000000000000000000000000000000000000000000000000000008114908115612ecb575b8115612ea1575b5015158152f35b7f01ffc9a70000000000000000000000000000000000000000000000000000000091501438612e9a565b7f5b5e139f0000000000000000000000000000000000000000000000000000000081149150612e93565b60005b838110612f085750506000910152565b8181015183820152602001612ef8565b90602091612f3181518092818552858086019101612ef5565b601f01601f1916010190565b600435906001600160a01b03821682036110aa57565b602435906001600160a01b03821682036110aa57565b60609060031901126110aa576001600160a01b039060043582811681036110aa579160243590811681036110aa579060443590565b9181601f840112156110aa5782359167ffffffffffffffff83116110aa576020808501948460051b0101116110aa57565b67ffffffffffffffff811161275357604052565b610160810190811067ffffffffffffffff82111761275357604052565b610100810190811067ffffffffffffffff82111761275357604052565b6060810190811067ffffffffffffffff82111761275357604052565b6040810190811067ffffffffffffffff82111761275357604052565b90601f8019910116810190811067ffffffffffffffff82111761275357604052565b67ffffffffffffffff811161275357601f01601f191660200190565b604435906001600160801b03821682036110aa57565b156130b057565b606460405162461bcd60e51b815260206004820152601860248201527f4552433732313a20696e76616c696420746f6b656e20494400000000000000006044820152fd5b60005260056020526001600160a01b03604060002054166131168115156130a9565b90565b61313c6108c08260005260056020526001600160a01b0360406000205416151590565b60005260076020526001600160a01b036040600020541690565b1561315d57565b608460405162461bcd60e51b815260206004820152602d60248201527f4552433732313a2063616c6c6572206973206e6f7420746f6b656e206f776e6560448201527f72206f7220617070726f766564000000000000000000000000000000000000006064820152fd5b906131eb9392916131db612a87843361325d565b6131e683838361333c565b613507565b156131f257565b60405162461bcd60e51b815260206004820152603260248201527f4552433732313a207472616e7366657220746f206e6f6e20455243373231526560448201527f63656976657220696d706c656d656e74657200000000000000000000000000006064820152608490fd5b906001600160a01b038080613271846130f4565b169316918383149384156132a4575b50831561328e575b50505090565b61329a91929350613119565b1614388080613288565b909350600052600860205260406000208260005260205260ff604060002054169238613280565b156132d257565b608460405162461bcd60e51b815260206004820152602560248201527f4552433732313a207472616e736665722066726f6d20696e636f72726563742060448201527f6f776e65720000000000000000000000000000000000000000000000000000006064820152fd5b90613365929161334b836130f4565b916001600160a01b039485938480941696879116146132cb565b169081158061346e57613377846136ec565b159081613465575b508061345c575b61344457918084926133c67ff8e1a15aba9398e019f0b49df1a4fde98ee17ae345cb5f6b5e2c27f5033e8ce7966020966133bf856130f4565b16146132cb565b60009382855260078652604085206001600160a01b031990818154169055818652600687526040862060001981540190558286526040862060018154019055838652600587528260408720918254161790557fddf252ad1be2c89b69c2b068fc378daa952ba7f163c4a11628f55a4df523b3ef6040519580a48152a1565b602483604051906378630aa960e01b82526004820152fd5b50831515613386565b9050153861337f565b608460405162461bcd60e51b8152602060048201526024808201527f4552433732313a207472616e7366657220746f20746865207a65726f2061646460448201527f72657373000000000000000000000000000000000000000000000000000000006064820152fd5b3d15613502573d906134e882613077565b916134f66040519384613055565b82523d6000602084013e565b606090565b9290803b1561369057613571916020916001600160a01b0394604051809581948293897f150b7a02000000000000000000000000000000000000000000000000000000009b8c86523360048701521660248501526044840152608060648401526084830190612f18565b03916000968791165af190829082613630575b505061360a576135926134d7565b805190816136055760405162461bcd60e51b815260206004820152603260248201527f4552433732313a207472616e7366657220746f206e6f6e20455243373231526560448201527f63656976657220696d706c656d656e74657200000000000000000000000000006064820152608490fd5b602001fd5b7fffffffff00000000000000000000000000000000000000000000000000000000161490565b909192506020813d8211613688575b8161364c60209383613055565b810103126109b15751907fffffffff00000000000000000000000000000000000000000000000000000000821682036105b95750903880613584565b3d915061363f565b50505050600190565b604051906136a68261301d565b60006040838281528260208201520152565b906040516136c58161301d565b6040819360018154916001600160801b0392838116865260801c6020860152015416910152565b80600052600b60205260ff60016040600020015460d01c161561065d57600052600b60205260ff60016040600020015460d81c1690565b80600052600b60205260ff60016040600020015460d01c161561065d57600052600b60205260ff60016040600020015460c81c1690565b6001600160801b03918216908216039190821161377357565b634e487b7160e01b600052601160045260246000fd5b80600052600b60205260ff60016040600020015460d01c161561065d57600052600b60205260406000205460f81c90565b600090808252600b6020526040822091825464ffffffffff42818360c81c16116138685780600186015460a01c169182421015613852576138079394955060a01c16809103904203613870565b90828152600b6020526001600160801b039261382d846002604085200154168094613950565b92831161383a5750501690565b60029350604092508152600b60205220015460801c90565b505050505060026001600160801b039101541690565b505091505090565b670de0b6b3a764000091600019838309928083029283808610950394808603951461392c57828510156138f057908291096001821901821680920460028082600302188083028203028083028203028083028203028083028203028083028203028092029003029360018380600003040190848311900302920304170290565b82606492604051927f63a05778000000000000000000000000000000000000000000000000000000008452600484015260248301526044820152fd5b50508092501561393a570490565b634e487b7160e01b600052601260045260246000fd5b909190600019838209838202918280831092039180830392146139ee57670de0b6b3a764000090818310156139b757947faccb18165bd6fe31ae1cf318dc5b51eee0e1ba569b88cd74c1773b91fac1066994950990828211900360ee1b910360121c170290565b60449086604051917f5173648d00000000000000000000000000000000000000000000000000000000835260048301526024820152fd5b5050670de0b6b3a764000090049150565b80600052600b602052604060002060ff600182015460c81c16600014613a26575050600490565b805460f81c613a7f575460a01c64ffffffffff164210613a7957613a49816137ba565b90600052600b6020526001600160801b038060026040600020015416911610600014613a7457600190565b600290565b50600090565b5050600390565b80600052600b602052613a9f60026040600020016136b8565b81600052600b602052604060002060ff600182015460c81c16600014613ad257506001600160801b039150602001511690565b5460f81c613ae45750613116906137ba565b61311691506001600160801b03604081835116920151169061375a565b906001600160a01b036001541660206001600160a01b036060850151166024604051809481937fdcf844a700000000000000000000000000000000000000000000000000000000835260048301525afa801561433657600090614302575b613b8291506001600160801b0360408501511690602060e0860151015191614733565b916001600160801b0383511660c082015190156142d85764ffffffffff815116602082019064ffffffffff8251169081811161429857505064ffffffffff604091511691019064ffffffffff825116908181101561425857505064ffffffffff8042169151169081811015614218575050600954926001600160801b0381511660405190613c0f8261301d565b815260006020820152600060408201526001600160a01b036060840151169060c08401519164ffffffffff6020840151169064ffffffffff604085015116906080870151151560a088015115159364ffffffffff6001600160a01b038a511697511660405197613c7e89612fe3565b88526020880152604087015260608601526000608086015260a085015260c0840152600060e0840152600161010084015261012083015261014082015284600052600b60205260406000206001600160a01b038251166001600160a01b0319825416178155613d1564ffffffffff602084015116829064ffffffffff60a01b1964ffffffffff60a01b83549260a01b169116179055565b604082015181547eff0000000000000000000000000000000000000000000000000000000000006060850151151560f01b169078ffffffffffffffffffffffffffffffffffffffffffffffffff7dffffffffff000000000000000000000000000000000000000000000000007fff000000000000000000000000000000000000000000000000000000000000006080880151151560f81b169460c81b1691161717178155600181016001600160a01b0360a0840151166001600160a01b0319825416178155613e0c64ffffffffff60c085015116829064ffffffffff60a01b1964ffffffffff60a01b83549260a01b169116179055565b60e083015181546101008501516101208601517fffffffff000000ffffffffffffffffffffffffffffffffffffffffffffffffff90921692151560c81b79ff00000000000000000000000000000000000000000000000000169290921791151560d01b7aff0000000000000000000000000000000000000000000000000000169190911790151560d81b7bff00000000000000000000000000000000000000000000000000000016179055610140909101518051602082015160801b6001600160801b03199081166001600160801b03928316176002850155926040906003019201511682825416179055600185016009556001600160a01b0360608401511660005260026020526001600160801b0380604060002054168160208501511601166001600160a01b036060850151166000526040600020918254161790556001600160a01b0360208301511680156141d457613f87613f818660005260056020526001600160a01b0360406000205416151590565b156144bc565b613f90856136ec565b15806141cb575b806141c3575b6141ab5760207ff8e1a15aba9398e019f0b49df1a4fde98ee17ae345cb5f6b5e2c27f5033e8ce791613fe8613f818860005260056020526001600160a01b0360406000205416151590565b806000526006825260406000206001815401905586600052600582526040600020816001600160a01b0319825416179055866040519160007fddf252ad1be2c89b69c2b068fc378daa952ba7f163c4a11628f55a4df523b3ef8180a4868152a16140786001600160a01b036060840151166001600160801b03808451168160208601511601169030903390614342565b6001600160801b036040820151168061417c575b506001600160a01b038251167f075861cbceafeb777e8f15f357121b08f6f3adba387d599bb7b5278ca6192df5610160866001600160a01b03602087015116946141736001600160a01b03606089015116976080810151151560a082015115159061413d6001600160a01b0360e060c08601519501515116956040519788523360208901526040880190604090816001600160801b0391828151168552826020820151166020860152015116910152565b60a086015260c0850152805164ffffffffff90811660e08601526020820151811661010086015260409091015116610120840152565b610140820152a4565b6141a5906001600160a01b036060850151166001600160a01b0360e08601515116903390614342565b3861408c565b602485604051906378630aa960e01b82526004820152fd5b506000613f9d565b50801515613f97565b606460405162461bcd60e51b815260206004820152602060248201527f4552433732313a206d696e7420746f20746865207a65726f20616464726573736044820152fd5b6040517f210aec0e00000000000000000000000000000000000000000000000000000000815264ffffffffff918216600482015291166024820152604490fd5b6040517f9fee269100000000000000000000000000000000000000000000000000000000815264ffffffffff918216600482015291166024820152604490fd5b6040517f4c23297000000000000000000000000000000000000000000000000000000000815264ffffffffff918216600482015291166024820152604490fd5b60046040517f6095d3bc000000000000000000000000000000000000000000000000000000008152fd5b6020823d60201161432e575b8161431b60209383613055565b810103126105b95750613b829051613b5f565b3d915061430e565b6040513d6000823e3d90fd5b9290604051927f23b872dd0000000000000000000000000000000000000000000000000000000060208501526001600160a01b03809216602485015216604483015260648201526064815260a081019181831067ffffffffffffffff841117612753576143b1926040526143b3565b565b6001600160a01b0316906144136040516143cc81613039565b6020938482527f5361666545524332303a206c6f772d6c6576656c2063616c6c206661696c6564858301526000808587829751910182855af161440d6134d7565b91614507565b805191821591848315614498575b50505090501561442e5750565b6084906040519062461bcd60e51b82526004820152602a60248201527f5361666545524332303a204552433230206f7065726174696f6e20646964206e60448201527f6f742073756363656564000000000000000000000000000000000000000000006064820152fd5b9193818094500103126109b1578201519081151582036105b9575080388084614421565b156144c357565b606460405162461bcd60e51b815260206004820152601c60248201527f4552433732313a20746f6b656e20616c7265616479206d696e746564000000006044820152fd5b91929015614568575081511561451b575090565b3b156145245790565b606460405162461bcd60e51b815260206004820152601d60248201527f416464726573733a2063616c6c20746f206e6f6e2d636f6e74726163740000006044820152fd5b82519091501561457b5750805190602001fd5b6104fa9060405191829162461bcd60e51b8352602060048401526024830190612f18565b6001600160a01b037f00000000000000000000000000000000000000000000000000000000000000001630036145d157565b60046040517fa1c0d6e5000000000000000000000000000000000000000000000000000000008152fd5b916001600160a01b03604051927fa9059cbb000000000000000000000000000000000000000000000000000000006020850152166024830152604482015260448152608081019181831067ffffffffffffffff841117612753576143b1926040526143b3565b6131169061466e81613a86565b90600052600b60205260026040600020015460801c9061375a565b91908110156146995760051b0190565b634e487b7160e01b600052603260045260246000fd5b9190916001600160801b038080941691160191821161377357565b60009080825260056020526001600160a01b03806040842054169283331493841561470f575b505082156146fd57505090565b90915061470a3392613119565b161490565b60ff92945090604091815260086020528181203382526020522054169138806146f0565b90929161473e613699565b936001600160801b039283811691821561484a5767016345785d8a0000808211614813578085116147dc575061478885614779819386613950565b16946020890195865284613950565b16918461479f6040890194808652828751166146af565b1610156147c6576147b88491826147c19551169061375a565b9151169061375a565b168252565b634e487b7160e01b600052600160045260246000fd5b84604491604051917f4fea5c1a00000000000000000000000000000000000000000000000000000000835260048301526024820152fd5b60449250604051917f47152d6700000000000000000000000000000000000000000000000000000000835260048301526024820152fd5b5050505050905060405161485d8161301d565b6000815260006020820152600060408201529056fea164736f6c6343000815000a",
    "linkReferences": {}
  },
  "methodIdentifiers": {
    "MAX_FEE()": "bc063e1a",
    "admin()": "f851a440",
    "approve(address,uint256)": "095ea7b3",
    "balanceOf(address)": "70a08231",
    "burn(uint256)": "42966c68",
    "cancel(uint256)": "40e58ee5",
    "cancelMultiple(uint256[])": "8659c270",
    "claimProtocolRevenues(address)": "a6202bf2",
    "comptroller()": "5fe3b567",
    "createWithDurations((address,address,uint128,address,bool,bool,(uint40,uint40),(address,uint256)))": "ab167ccc",
    "createWithRange((address,address,uint128,address,bool,bool,(uint40,uint40,uint40),(address,uint256)))": "96ce1431",
    "getApproved(uint256)": "081812fc",
    "getAsset(uint256)": "eac8f5b8",
    "getCliffTime(uint256)": "780a82c8",
    "getDepositedAmount(uint256)": "a80fc071",
    "getEndTime(uint256)": "9067b677",
    "getRange(uint256)": "cc364f48",
    "getRecipient(uint256)": "6d0cee75",
    "getRefundedAmount(uint256)": "d4dbd20b",
    "getSender(uint256)": "b971302a",
    "getStartTime(uint256)": "bc2be1be",
    "getStream(uint256)": "894e9a0d",
    "getWithdrawnAmount(uint256)": "d511609f",
    "isApprovedForAll(address,address)": "e985e9c5",
    "isCancelable(uint256)": "4857501f",
    "isCold(uint256)": "8f69b993",
    "isDepleted(uint256)": "425d30dd",
    "isStream(uint256)": "b8a3be66",
    "isTransferable(uint256)": "b2564569",
    "isWarm(uint256)": "1c1cdd4c",
    "name()": "06fdde03",
    "nextStreamId()": "1e99d569",
    "ownerOf(uint256)": "6352211e",
    "protocolRevenues(address)": "39a73c03",
    "refundableAmountOf(uint256)": "1400ecec",
    "renounce(uint256)": "7de6b1db",
    "safeTransferFrom(address,address,uint256)": "42842e0e",
    "safeTransferFrom(address,address,uint256,bytes)": "b88d4fde",
    "setApprovalForAll(address,bool)": "a22cb465",
    "setComptroller(address)": "8bad38dd",
    "setNFTDescriptor(address)": "7cad6cd1",
    "statusOf(uint256)": "ad35efd4",
    "streamedAmountOf(uint256)": "4869e12d",
    "supportsInterface(bytes4)": "01ffc9a7",
    "symbol()": "95d89b41",
    "tokenURI(uint256)": "c87b56dd",
    "transferAdmin(address)": "75829def",
    "transferFrom(address,address,uint256)": "23b872dd",
    "wasCanceled(uint256)": "f590c176",
    "withdraw(uint256,address,uint128)": "fdd46d60",
    "withdrawMax(uint256,address)": "ea5ead19",
    "withdrawMaxAndTransfer(uint256,address)": "c156a11d",
    "withdrawMultiple(uint256[],address,uint128[])": "a2ffb897",
    "withdrawableAmountOf(uint256)": "d975dfed"
  },
  "id": 77
}