{
  "abi": [
    {
      "inputs": [
        {
          "internalType": "address",
          "name": "initialAdmin",
          "type": "address"
        },
        {
          "internalType": "contract ISablierV2Comptroller",
          "name": "initialComptroller",
          "type": "address"
        },
        {
          "internalType": "contract ISablierV2NFTDescriptor",
          "name": "initialNFTDescriptor",
          "type": "address"
        },
        {
          "internalType": "uint256",
          "name": "maxSegmentCount",
          "type": "uint256"
        }
      ],
      "stateMutability": "nonpayable",
      "type": "constructor"
    },
    {
      "inputs": [
        {
          "internalType": "address",
          "name": "admin",
          "type": "address"
        },
        {
          "internalType": "address",
          "name": "caller",
          "type": "address"
        }
      ],
      "name": "CallerNotAdmin",
      "type": "error"
    },
    {
      "inputs": [],
      "name": "DelegateCall",
      "type": "error"
    },
    {
      "inputs": [
        {
          "internalType": "uint256",
          "name": "x",
          "type": "uint256"
        },
        {
          "internalType": "uint256",
          "name": "y",
          "type": "uint256"
        }
      ],
      "name": "PRBMath_MulDiv18_Overflow",
      "type": "error"
    },
    {
      "inputs": [
        {
          "internalType": "uint256",
          "name": "x",
          "type": "uint256"
        },
        {
          "internalType": "uint256",
          "name": "y",
          "type": "uint256"
        },
        {
          "internalType": "uint256",
          "name": "denominator",
          "type": "uint256"
        }
      ],
      "name": "PRBMath_MulDiv_Overflow",
      "type": "error"
    },
    {
      "inputs": [],
      "name": "PRBMath_SD59x18_Div_InputTooSmall",
      "type": "error"
    },
    {
      "inputs": [
        {
          "internalType": "SD59x18",
          "name": "x",
          "type": "int256"
        },
        {
          "internalType": "SD59x18",
          "name": "y",
          "type": "int256"
        }
      ],
      "name": "PRBMath_SD59x18_Div_Overflow",
      "type": "error"
    },
    {
      "inputs": [
        {
          "internalType": "SD59x18",
          "name": "x",
          "type": "int256"
        }
      ],
      "name": "PRBMath_SD59x18_Exp2_InputTooBig",
      "type": "error"
    },
    {
      "inputs": [
        {
          "internalType": "SD59x18",
          "name": "x",
          "type": "int256"
        }
      ],
      "name": "PRBMath_SD59x18_IntoUint256_Underflow",
      "type": "error"
    },
    {
      "inputs": [
        {
          "internalType": "SD59x18",
          "name": "x",
          "type": "int256"
        }
      ],
      "name": "PRBMath_SD59x18_Log_InputTooSmall",
      "type": "error"
    },
    {
      "inputs": [],
      "name": "PRBMath_SD59x18_Mul_InputTooSmall",
      "type": "error"
    },
    {
      "inputs": [
        {
          "internalType": "SD59x18",
          "name": "x",
          "type": "int256"
        },
        {
          "internalType": "SD59x18",
          "name": "y",
          "type": "int256"
        }
      ],
      "name": "PRBMath_SD59x18_Mul_Overflow",
      "type": "error"
    },
    {
      "inputs": [
        {
          "internalType": "contract IERC20",
          "name": "asset",
          "type": "address"
        }
      ],
      "name": "SablierV2Base_NoProtocolRevenues",
      "type": "error"
    },
    {
      "inputs": [
        {
          "internalType": "uint128",
          "name": "depositAmount",
          "type": "uint128"
        },
        {
          "internalType": "uint128",
          "name": "segmentAmountsSum",
          "type": "uint128"
        }
      ],
      "name": "SablierV2LockupDynamic_DepositAmountNotEqualToSegmentAmountsSum",
      "type": "error"
    },
    {
      "inputs": [
        {
          "internalType": "uint256",
          "name": "count",
          "type": "uint256"
        }
      ],
      "name": "SablierV2LockupDynamic_SegmentCountTooHigh",
      "type": "error"
    },
    {
      "inputs": [],
      "name": "SablierV2LockupDynamic_SegmentCountZero",
      "type": "error"
    },
    {
      "inputs": [
        {
          "internalType": "uint256",
          "name": "index",
          "type": "uint256"
        },
        {
          "internalType": "uint40",
          "name": "previousMilestone",
          "type": "uint40"
        },
        {
          "internalType": "uint40",
          "name": "currentMilestone",
          "type": "uint40"
        }
      ],
      "name": "SablierV2LockupDynamic_SegmentMilestonesNotOrdered",
      "type": "error"
    },
    {
      "inputs": [
        {
          "internalType": "uint40",
          "name": "startTime",
          "type": "uint40"
        },
        {
          "internalType": "uint40",
          "name": "firstSegmentMilestone",
          "type": "uint40"
        }
      ],
      "name": "SablierV2LockupDynamic_StartTimeNotLessThanFirstSegmentMilestone",
      "type": "error"
    },
    {
      "inputs": [
        {
          "internalType": "UD60x18",
          "name": "brokerFee",
          "type": "uint256"
        },
        {
          "internalType": "UD60x18",
          "name": "maxFee",
          "type": "uint256"
        }
      ],
      "name": "SablierV2Lockup_BrokerFeeTooHigh",
      "type": "error"
    },
    {
      "inputs": [],
      "name": "SablierV2Lockup_DepositAmountZero",
      "type": "error"
    },
    {
      "inputs": [
        {
          "internalType": "uint40",
          "name": "currentTime",
          "type": "uint40"
        },
        {
          "internalType": "uint40",
          "name": "endTime",
          "type": "uint40"
        }
      ],
      "name": "SablierV2Lockup_EndTimeNotInTheFuture",
      "type": "error"
    },
    {
      "inputs": [
        {
          "internalType": "uint256",
          "name": "streamId",
          "type": "uint256"
        },
        {
          "internalType": "address",
          "name": "sender",
          "type": "address"
        },
        {
          "internalType": "address",
          "name": "to",
          "type": "address"
        }
      ],
      "name": "SablierV2Lockup_InvalidSenderWithdrawal",
      "type": "error"
    },
    {
      "inputs": [
        {
          "internalType": "uint256",
          "name": "tokenId",
          "type": "uint256"
        }
      ],
      "name": "SablierV2Lockup_NotTransferrable",
      "type": "error"
    },
    {
      "inputs": [
        {
          "internalType": "uint256",
          "name": "streamId",
          "type": "uint256"
        }
      ],
      "name": "SablierV2Lockup_Null",
      "type": "error"
    },
    {
      "inputs": [
        {
          "internalType": "uint256",
          "name": "streamId",
          "type": "uint256"
        },
        {
          "internalType": "uint128",
          "name": "amount",
          "type": "uint128"
        },
        {
          "internalType": "uint128",
          "name": "withdrawableAmount",
          "type": "uint128"
        }
      ],
      "name": "SablierV2Lockup_Overdraw",
      "type": "error"
    },
    {
      "inputs": [
        {
          "internalType": "UD60x18",
          "name": "protocolFee",
          "type": "uint256"
        },
        {
          "internalType": "UD60x18",
          "name": "maxFee",
          "type": "uint256"
        }
      ],
      "name": "SablierV2Lockup_ProtocolFeeTooHigh",
      "type": "error"
    },
    {
      "inputs": [
        {
          "internalType": "uint256",
          "name": "streamId",
          "type": "uint256"
        }
      ],
      "name": "SablierV2Lockup_StreamCanceled",
      "type": "error"
    },
    {
      "inputs": [
        {
          "internalType": "uint256",
          "name": "streamId",
          "type": "uint256"
        }
      ],
      "name": "SablierV2Lockup_StreamDepleted",
      "type": "error"
    },
    {
      "inputs": [
        {
          "internalType": "uint256",
          "name": "streamId",
          "type": "uint256"
        }
      ],
      "name": "SablierV2Lockup_StreamNotCancelable",
      "type": "error"
    },
    {
      "inputs": [
        {
          "internalType": "uint256",
          "name": "streamId",
          "type": "uint256"
        }
      ],
      "name": "SablierV2Lockup_StreamNotDepleted",
      "type": "error"
    },
    {
      "inputs": [
        {
          "internalType": "uint256",
          "name": "streamId",
          "type": "uint256"
        }
      ],
      "name": "SablierV2Lockup_StreamSettled",
      "type": "error"
    },
    {
      "inputs": [
        {
          "internalType": "uint256",
          "name": "streamId",
          "type": "uint256"
        },
        {
          "internalType": "address",
          "name": "caller",
          "type": "address"
        }
      ],
      "name": "SablierV2Lockup_Unauthorized",
      "type": "error"
    },
    {
      "inputs": [
        {
          "internalType": "uint256",
          "name": "streamId",
          "type": "uint256"
        }
      ],
      "name": "SablierV2Lockup_WithdrawAmountZero",
      "type": "error"
    },
    {
      "inputs": [
        {
          "internalType": "uint256",
          "name": "streamIdsCount",
          "type": "uint256"
        },
        {
          "internalType": "uint256",
          "name": "amountsCount",
          "type": "uint256"
        }
      ],
      "name": "SablierV2Lockup_WithdrawArrayCountsNotEqual",
      "type": "error"
    },
    {
      "inputs": [],
      "name": "SablierV2Lockup_WithdrawToZeroAddress",
      "type": "error"
    },
    {
      "anonymous": false,
      "inputs": [
        {
          "indexed": true,
          "internalType": "address",
          "name": "owner",
          "type": "address"
        },
        {
          "indexed": true,
          "internalType": "address",
          "name": "approved",
          "type": "address"
        },
        {
          "indexed": true,
          "internalType": "uint256",
          "name": "tokenId",
          "type": "uint256"
        }
      ],
      "name": "Approval",
      "type": "event"
    },
    {
      "anonymous": false,
      "inputs": [
        {
          "indexed": true,
          "internalType": "address",
          "name": "owner",
          "type": "address"
        },
        {
          "indexed": true,
          "internalType": "address",
          "name": "operator",
          "type": "address"
        },
        {
          "indexed": false,
          "internalType": "bool",
          "name": "approved",
          "type": "bool"
        }
      ],
      "name": "ApprovalForAll",
      "type": "event"
    },
    {
      "anonymous": false,
      "inputs": [
        {
          "indexed": false,
          "internalType": "uint256",
          "name": "_fromTokenId",
          "type": "uint256"
        },
        {
          "indexed": false,
          "internalType": "uint256",
          "name": "_toTokenId",
          "type": "uint256"
        }
      ],
      "name": "BatchMetadataUpdate",
      "type": "event"
    },
    {
      "anonymous": false,
      "inputs": [
        {
          "indexed": false,
          "internalType": "uint256",
          "name": "streamId",
          "type": "uint256"
        },
        {
          "indexed": true,
          "internalType": "address",
          "name": "sender",
          "type": "address"
        },
        {
          "indexed": true,
          "internalType": "address",
          "name": "recipient",
          "type": "address"
        },
        {
          "indexed": true,
          "internalType": "contract IERC20",
          "name": "asset",
          "type": "address"
        },
        {
          "indexed": false,
          "internalType": "uint128",
          "name": "senderAmount",
          "type": "uint128"
        },
        {
          "indexed": false,
          "internalType": "uint128",
          "name": "recipientAmount",
          "type": "uint128"
        }
      ],
      "name": "CancelLockupStream",
      "type": "event"
    },
    {
      "anonymous": false,
      "inputs": [
        {
          "indexed": true,
          "internalType": "address",
          "name": "admin",
          "type": "address"
        },
        {
          "indexed": true,
          "internalType": "contract IERC20",
          "name": "asset",
          "type": "address"
        },
        {
          "indexed": false,
          "internalType": "uint128",
          "name": "protocolRevenues",
          "type": "uint128"
        }
      ],
      "name": "ClaimProtocolRevenues",
      "type": "event"
    },
    {
      "anonymous": false,
      "inputs": [
        {
          "indexed": false,
          "internalType": "uint256",
          "name": "streamId",
          "type": "uint256"
        },
        {
          "indexed": false,
          "internalType": "address",
          "name": "funder",
          "type": "address"
        },
        {
          "indexed": true,
          "internalType": "address",
          "name": "sender",
          "type": "address"
        },
        {
          "indexed": true,
          "internalType": "address",
          "name": "recipient",
          "type": "address"
        },
        {
          "components": [
            {
              "internalType": "uint128",
              "name": "deposit",
              "type": "uint128"
            },
            {
              "internalType": "uint128",
              "name": "protocolFee",
              "type": "uint128"
            },
            {
              "internalType": "uint128",
              "name": "brokerFee",
              "type": "uint128"
            }
          ],
          "indexed": false,
          "internalType": "struct Lockup.CreateAmounts",
          "name": "amounts",
          "type": "tuple"
        },
        {
          "indexed": true,
          "internalType": "contract IERC20",
          "name": "asset",
          "type": "address"
        },
        {
          "indexed": false,
          "internalType": "bool",
          "name": "cancelable",
          "type": "bool"
        },
        {
          "indexed": false,
          "internalType": "bool",
          "name": "transferable",
          "type": "bool"
        },
        {
          "components": [
            {
              "internalType": "uint128",
              "name": "amount",
              "type": "uint128"
            },
            {
              "internalType": "UD2x18",
              "name": "exponent",
              "type": "uint64"
            },
            {
              "internalType": "uint40",
              "name": "milestone",
              "type": "uint40"
            }
          ],
          "indexed": false,
          "internalType": "struct LockupDynamic.Segment[]",
          "name": "segments",
          "type": "tuple[]"
        },
        {
          "components": [
            {
              "internalType": "uint40",
              "name": "start",
              "type": "uint40"
            },
            {
              "internalType": "uint40",
              "name": "end",
              "type": "uint40"
            }
          ],
          "indexed": false,
          "internalType": "struct LockupDynamic.Range",
          "name": "range",
          "type": "tuple"
        },
        {
          "indexed": false,
          "internalType": "address",
          "name": "broker",
          "type": "address"
        }
      ],
      "name": "CreateLockupDynamicStream",
      "type": "event"
    },
    {
      "anonymous": false,
      "inputs": [
        {
          "indexed": false,
          "internalType": "uint256",
          "name": "_tokenId",
          "type": "uint256"
        }
      ],
      "name": "MetadataUpdate",
      "type": "event"
    },
    {
      "anonymous": false,
      "inputs": [
        {
          "indexed": true,
          "internalType": "uint256",
          "name": "streamId",
          "type": "uint256"
        }
      ],
      "name": "RenounceLockupStream",
      "type": "event"
    },
    {
      "anonymous": false,
      "inputs": [
        {
          "indexed": true,
          "internalType": "address",
          "name": "admin",
          "type": "address"
        },
        {
          "indexed": false,
          "internalType": "contract ISablierV2Comptroller",
          "name": "oldComptroller",
          "type": "address"
        },
        {
          "indexed": false,
          "internalType": "contract ISablierV2Comptroller",
          "name": "newComptroller",
          "type": "address"
        }
      ],
      "name": "SetComptroller",
      "type": "event"
    },
    {
      "anonymous": false,
      "inputs": [
        {
          "indexed": true,
          "internalType": "address",
          "name": "admin",
          "type": "address"
        },
        {
          "indexed": false,
          "internalType": "contract ISablierV2NFTDescriptor",
          "name": "oldNFTDescriptor",
          "type": "address"
        },
        {
          "indexed": false,
          "internalType": "contract ISablierV2NFTDescriptor",
          "name": "newNFTDescriptor",
          "type": "address"
        }
      ],
      "name": "SetNFTDescriptor",
      "type": "event"
    },
    {
      "anonymous": false,
      "inputs": [
        {
          "indexed": true,
          "internalType": "address",
          "name": "from",
          "type": "address"
        },
        {
          "indexed": true,
          "internalType": "address",
          "name": "to",
          "type": "address"
        },
        {
          "indexed": true,
          "internalType": "uint256",
          "name": "tokenId",
          "type": "uint256"
        }
      ],
      "name": "Transfer",
      "type": "event"
    },
    {
      "anonymous": false,
      "inputs": [
        {
          "indexed": true,
          "internalType": "address",
          "name": "oldAdmin",
          "type": "address"
        },
        {
          "indexed": true,
          "internalType": "address",
          "name": "newAdmin",
          "type": "address"
        }
      ],
      "name": "TransferAdmin",
      "type": "event"
    },
    {
      "anonymous": false,
      "inputs": [
        {
          "indexed": true,
          "internalType": "uint256",
          "name": "streamId",
          "type": "uint256"
        },
        {
          "indexed": true,
          "internalType": "address",
          "name": "to",
          "type": "address"
        },
        {
          "indexed": true,
          "internalType": "contract IERC20",
          "name": "asset",
          "type": "address"
        },
        {
          "indexed": false,
          "internalType": "uint128",
          "name": "amount",
          "type": "uint128"
        }
      ],
      "name": "WithdrawFromLockupStream",
      "type": "event"
    },
    {
      "inputs": [],
      "name": "MAX_FEE",
      "outputs": [
        {
          "internalType": "UD60x18",
          "name": "",
          "type": "uint256"
        }
      ],
      "stateMutability": "view",
      "type": "function"
    },
    {
      "inputs": [],
      "name": "MAX_SEGMENT_COUNT",
      "outputs": [
        {
          "internalType": "uint256",
          "name": "",
          "type": "uint256"
        }
      ],
      "stateMutability": "view",
      "type": "function"
    },
    {
      "inputs": [],
      "name": "admin",
      "outputs": [
        {
          "internalType": "address",
          "name": "",
          "type": "address"
        }
      ],
      "stateMutability": "view",
      "type": "function"
    },
    {
      "inputs": [
        {
          "internalType": "address",
          "name": "to",
          "type": "address"
        },
        {
          "internalType": "uint256",
          "name": "tokenId",
          "type": "uint256"
        }
      ],
      "name": "approve",
      "outputs": [],
      "stateMutability": "nonpayable",
      "type": "function"
    },
    {
      "inputs": [
        {
          "internalType": "address",
          "name": "owner",
          "type": "address"
        }
      ],
      "name": "balanceOf",
      "outputs": [
        {
          "internalType": "uint256",
          "name": "",
          "type": "uint256"
        }
      ],
      "stateMutability": "view",
      "type": "function"
    },
    {
      "inputs": [
        {
          "internalType": "uint256",
          "name": "streamId",
          "type": "uint256"
        }
      ],
      "name": "burn",
      "outputs": [],
      "stateMutability": "nonpayable",
      "type": "function"
    },
    {
      "inputs": [
        {
          "internalType": "uint256",
          "name": "streamId",
          "type": "uint256"
        }
      ],
      "name": "cancel",
      "outputs": [],
      "stateMutability": "nonpayable",
      "type": "function"
    },
    {
      "inputs": [
        {
          "internalType": "uint256[]",
          "name": "streamIds",
          "type": "uint256[]"
        }
      ],
      "name": "cancelMultiple",
      "outputs": [],
      "stateMutability": "nonpayable",
      "type": "function"
    },
    {
      "inputs": [
        {
          "internalType": "contract IERC20",
          "name": "asset",
          "type": "address"
        }
      ],
      "name": "claimProtocolRevenues",
      "outputs": [],
      "stateMutability": "nonpayable",
      "type": "function"
    },
    {
      "inputs": [],
      "name": "comptroller",
      "outputs": [
        {
          "internalType": "contract ISablierV2Comptroller",
          "name": "",
          "type": "address"
        }
      ],
      "stateMutability": "view",
      "type": "function"
    },
    {
      "inputs": [
        {
          "components": [
            {
              "internalType": "address",
              "name": "sender",
              "type": "address"
            },
            {
              "internalType": "bool",
              "name": "cancelable",
              "type": "bool"
            },
            {
              "internalType": "bool",
              "name": "transferable",
              "type": "bool"
            },
            {
              "internalType": "address",
              "name": "recipient",
              "type": "address"
            },
            {
              "internalType": "uint128",
              "name": "totalAmount",
              "type": "uint128"
            },
            {
              "internalType": "contract IERC20",
              "name": "asset",
              "type": "address"
            },
            {
              "components": [
                {
                  "internalType": "address",
                  "name": "account",
                  "type": "address"
                },
                {
                  "internalType": "UD60x18",
                  "name": "fee",
                  "type": "uint256"
                }
              ],
              "internalType": "struct Broker",
              "name": "broker",
              "type": "tuple"
            },
            {
              "components": [
                {
                  "internalType": "uint128",
                  "name": "amount",
                  "type": "uint128"
                },
                {
                  "internalType": "UD2x18",
                  "name": "exponent",
                  "type": "uint64"
                },
                {
                  "internalType": "uint40",
                  "name": "delta",
                  "type": "uint40"
                }
              ],
              "internalType": "struct LockupDynamic.SegmentWithDelta[]",
              "name": "segments",
              "type": "tuple[]"
            }
          ],
          "internalType": "struct LockupDynamic.CreateWithDeltas",
          "name": "params",
          "type": "tuple"
        }
      ],
      "name": "createWithDeltas",
      "outputs": [
        {
          "internalType": "uint256",
          "name": "streamId",
          "type": "uint256"
        }
      ],
      "stateMutability": "nonpayable",
      "type": "function"
    },
    {
      "inputs": [
        {
          "components": [
            {
              "internalType": "address",
              "name": "sender",
              "type": "address"
            },
            {
              "internalType": "uint40",
              "name": "startTime",
              "type": "uint40"
            },
            {
              "internalType": "bool",
              "name": "cancelable",
              "type": "bool"
            },
            {
              "internalType": "bool",
              "name": "transferable",
              "type": "bool"
            },
            {
              "internalType": "address",
              "name": "recipient",
              "type": "address"
            },
            {
              "internalType": "uint128",
              "name": "totalAmount",
              "type": "uint128"
            },
            {
              "internalType": "contract IERC20",
              "name": "asset",
              "type": "address"
            },
            {
              "components": [
                {
                  "internalType": "address",
                  "name": "account",
                  "type": "address"
                },
                {
                  "internalType": "UD60x18",
                  "name": "fee",
                  "type": "uint256"
                }
              ],
              "internalType": "struct Broker",
              "name": "broker",
              "type": "tuple"
            },
            {
              "components": [
                {
                  "internalType": "uint128",
                  "name": "amount",
                  "type": "uint128"
                },
                {
                  "internalType": "UD2x18",
                  "name": "exponent",
                  "type": "uint64"
                },
                {
                  "internalType": "uint40",
                  "name": "milestone",
                  "type": "uint40"
                }
              ],
              "internalType": "struct LockupDynamic.Segment[]",
              "name": "segments",
              "type": "tuple[]"
            }
          ],
          "internalType": "struct LockupDynamic.CreateWithMilestones",
          "name": "params",
          "type": "tuple"
        }
      ],
      "name": "createWithMilestones",
      "outputs": [
        {
          "internalType": "uint256",
          "name": "streamId",
          "type": "uint256"
        }
      ],
      "stateMutability": "nonpayable",
      "type": "function"
    },
    {
      "inputs": [
        {
          "internalType": "uint256",
          "name": "tokenId",
          "type": "uint256"
        }
      ],
      "name": "getApproved",
      "outputs": [
        {
          "internalType": "address",
          "name": "",
          "type": "address"
        }
      ],
      "stateMutability": "view",
      "type": "function"
    },
    {
      "inputs": [
        {
          "internalType": "uint256",
          "name": "streamId",
          "type": "uint256"
        }
      ],
      "name": "getAsset",
      "outputs": [
        {
          "internalType": "contract IERC20",
          "name": "asset",
          "type": "address"
        }
      ],
      "stateMutability": "view",
      "type": "function"
    },
    {
      "inputs": [
        {
          "internalType": "uint256",
          "name": "streamId",
          "type": "uint256"
        }
      ],
      "name": "getDepositedAmount",
      "outputs": [
        {
          "internalType": "uint128",
          "name": "depositedAmount",
          "type": "uint128"
        }
      ],
      "stateMutability": "view",
      "type": "function"
    },
    {
      "inputs": [
        {
          "internalType": "uint256",
          "name": "streamId",
          "type": "uint256"
        }
      ],
      "name": "getEndTime",
      "outputs": [
        {
          "internalType": "uint40",
          "name": "endTime",
          "type": "uint40"
        }
      ],
      "stateMutability": "view",
      "type": "function"
    },
    {
      "inputs": [
        {
          "internalType": "uint256",
          "name": "streamId",
          "type": "uint256"
        }
      ],
      "name": "getRange",
      "outputs": [
        {
          "components": [
            {
              "internalType": "uint40",
              "name": "start",
              "type": "uint40"
            },
            {
              "internalType": "uint40",
              "name": "end",
              "type": "uint40"
            }
          ],
          "internalType": "struct LockupDynamic.Range",
          "name": "range",
          "type": "tuple"
        }
      ],
      "stateMutability": "view",
      "type": "function"
    },
    {
      "inputs": [
        {
          "internalType": "uint256",
          "name": "streamId",
          "type": "uint256"
        }
      ],
      "name": "getRecipient",
      "outputs": [
        {
          "internalType": "address",
          "name": "recipient",
          "type": "address"
        }
      ],
      "stateMutability": "view",
      "type": "function"
    },
    {
      "inputs": [
        {
          "internalType": "uint256",
          "name": "streamId",
          "type": "uint256"
        }
      ],
      "name": "getRefundedAmount",
      "outputs": [
        {
          "internalType": "uint128",
          "name": "refundedAmount",
          "type": "uint128"
        }
      ],
      "stateMutability": "view",
      "type": "function"
    },
    {
      "inputs": [
        {
          "internalType": "uint256",
          "name": "streamId",
          "type": "uint256"
        }
      ],
      "name": "getSegments",
      "outputs": [
        {
          "components": [
            {
              "internalType": "uint128",
              "name": "amount",
              "type": "uint128"
            },
            {
              "internalType": "UD2x18",
              "name": "exponent",
              "type": "uint64"
            },
            {
              "internalType": "uint40",
              "name": "milestone",
              "type": "uint40"
            }
          ],
          "internalType": "struct LockupDynamic.Segment[]",
          "name": "segments",
          "type": "tuple[]"
        }
      ],
      "stateMutability": "view",
      "type": "function"
    },
    {
      "inputs": [
        {
          "internalType": "uint256",
          "name": "streamId",
          "type": "uint256"
        }
      ],
      "name": "getSender",
      "outputs": [
        {
          "internalType": "address",
          "name": "sender",
          "type": "address"
        }
      ],
      "stateMutability": "view",
      "type": "function"
    },
    {
      "inputs": [
        {
          "internalType": "uint256",
          "name": "streamId",
          "type": "uint256"
        }
      ],
      "name": "getStartTime",
      "outputs": [
        {
          "internalType": "uint40",
          "name": "startTime",
          "type": "uint40"
        }
      ],
      "stateMutability": "view",
      "type": "function"
    },
    {
      "inputs": [
        {
          "internalType": "uint256",
          "name": "streamId",
          "type": "uint256"
        }
      ],
      "name": "getStream",
      "outputs": [
        {
          "components": [
            {
              "internalType": "address",
              "name": "sender",
              "type": "address"
            },
            {
              "internalType": "uint40",
              "name": "startTime",
              "type": "uint40"
            },
            {
              "internalType": "uint40",
              "name": "endTime",
              "type": "uint40"
            },
            {
              "internalType": "bool",
              "name": "isCancelable",
              "type": "bool"
            },
            {
              "internalType": "bool",
              "name": "wasCanceled",
              "type": "bool"
            },
            {
              "internalType": "contract IERC20",
              "name": "asset",
              "type": "address"
            },
            {
              "internalType": "bool",
              "name": "isDepleted",
              "type": "bool"
            },
            {
              "internalType": "bool",
              "name": "isStream",
              "type": "bool"
            },
            {
              "internalType": "bool",
              "name": "isTransferable",
              "type": "bool"
            },
            {
              "components": [
                {
                  "internalType": "uint128",
                  "name": "deposited",
                  "type": "uint128"
                },
                {
                  "internalType": "uint128",
                  "name": "withdrawn",
                  "type": "uint128"
                },
                {
                  "internalType": "uint128",
                  "name": "refunded",
                  "type": "uint128"
                }
              ],
              "internalType": "struct Lockup.Amounts",
              "name": "amounts",
              "type": "tuple"
            },
            {
              "components": [
                {
                  "internalType": "uint128",
                  "name": "amount",
                  "type": "uint128"
                },
                {
                  "internalType": "UD2x18",
                  "name": "exponent",
                  "type": "uint64"
                },
                {
                  "internalType": "uint40",
                  "name": "milestone",
                  "type": "uint40"
                }
              ],
              "internalType": "struct LockupDynamic.Segment[]",
              "name": "segments",
              "type": "tuple[]"
            }
          ],
          "internalType": "struct LockupDynamic.Stream",
          "name": "stream",
          "type": "tuple"
        }
      ],
      "stateMutability": "view",
      "type": "function"
    },
    {
      "inputs": [
        {
          "internalType": "uint256",
          "name": "streamId",
          "type": "uint256"
        }
      ],
      "name": "getWithdrawnAmount",
      "outputs": [
        {
          "internalType": "uint128",
          "name": "withdrawnAmount",
          "type": "uint128"
        }
      ],
      "stateMutability": "view",
      "type": "function"
    },
    {
      "inputs": [
        {
          "internalType": "address",
          "name": "owner",
          "type": "address"
        },
        {
          "internalType": "address",
          "name": "operator",
          "type": "address"
        }
      ],
      "name": "isApprovedForAll",
      "outputs": [
        {
          "internalType": "bool",
          "name": "",
          "type": "bool"
        }
      ],
      "stateMutability": "view",
      "type": "function"
    },
    {
      "inputs": [
        {
          "internalType": "uint256",
          "name": "streamId",
          "type": "uint256"
        }
      ],
      "name": "isCancelable",
      "outputs": [
        {
          "internalType": "bool",
          "name": "result",
          "type": "bool"
        }
      ],
      "stateMutability": "view",
      "type": "function"
    },
    {
      "inputs": [
        {
          "internalType": "uint256",
          "name": "streamId",
          "type": "uint256"
        }
      ],
      "name": "isCold",
      "outputs": [
        {
          "internalType": "bool",
          "name": "result",
          "type": "bool"
        }
      ],
      "stateMutability": "view",
      "type": "function"
    },
    {
      "inputs": [
        {
          "internalType": "uint256",
          "name": "streamId",
          "type": "uint256"
        }
      ],
      "name": "isDepleted",
      "outputs": [
        {
          "internalType": "bool",
          "name": "result",
          "type": "bool"
        }
      ],
      "stateMutability": "view",
      "type": "function"
    },
    {
      "inputs": [
        {
          "internalType": "uint256",
          "name": "streamId",
          "type": "uint256"
        }
      ],
      "name": "isStream",
      "outputs": [
        {
          "internalType": "bool",
          "name": "result",
          "type": "bool"
        }
      ],
      "stateMutability": "view",
      "type": "function"
    },
    {
      "inputs": [
        {
          "internalType": "uint256",
          "name": "streamId",
          "type": "uint256"
        }
      ],
      "name": "isTransferable",
      "outputs": [
        {
          "internalType": "bool",
          "name": "result",
          "type": "bool"
        }
      ],
      "stateMutability": "view",
      "type": "function"
    },
    {
      "inputs": [
        {
          "internalType": "uint256",
          "name": "streamId",
          "type": "uint256"
        }
      ],
      "name": "isWarm",
      "outputs": [
        {
          "internalType": "bool",
          "name": "result",
          "type": "bool"
        }
      ],
      "stateMutability": "view",
      "type": "function"
    },
    {
      "inputs": [],
      "name": "name",
      "outputs": [
        {
          "internalType": "string",
          "name": "",
          "type": "string"
        }
      ],
      "stateMutability": "view",
      "type": "function"
    },
    {
      "inputs": [],
      "name": "nextStreamId",
      "outputs": [
        {
          "internalType": "uint256",
          "name": "",
          "type": "uint256"
        }
      ],
      "stateMutability": "view",
      "type": "function"
    },
    {
      "inputs": [
        {
          "internalType": "uint256",
          "name": "tokenId",
          "type": "uint256"
        }
      ],
      "name": "ownerOf",
      "outputs": [
        {
          "internalType": "address",
          "name": "",
          "type": "address"
        }
      ],
      "stateMutability": "view",
      "type": "function"
    },
    {
      "inputs": [
        {
          "internalType": "contract IERC20",
          "name": "asset",
          "type": "address"
        }
      ],
      "name": "protocolRevenues",
      "outputs": [
        {
          "internalType": "uint128",
          "name": "revenues",
          "type": "uint128"
        }
      ],
      "stateMutability": "view",
      "type": "function"
    },
    {
      "inputs": [
        {
          "internalType": "uint256",
          "name": "streamId",
          "type": "uint256"
        }
      ],
      "name": "refundableAmountOf",
      "outputs": [
        {
          "internalType": "uint128",
          "name": "refundableAmount",
          "type": "uint128"
        }
      ],
      "stateMutability": "view",
      "type": "function"
    },
    {
      "inputs": [
        {
          "internalType": "uint256",
          "name": "streamId",
          "type": "uint256"
        }
      ],
      "name": "renounce",
      "outputs": [],
      "stateMutability": "nonpayable",
      "type": "function"
    },
    {
      "inputs": [
        {
          "internalType": "address",
          "name": "from",
          "type": "address"
        },
        {
          "internalType": "address",
          "name": "to",
          "type": "address"
        },
        {
          "internalType": "uint256",
          "name": "tokenId",
          "type": "uint256"
        }
      ],
      "name": "safeTransferFrom",
      "outputs": [],
      "stateMutability": "nonpayable",
      "type": "function"
    },
    {
      "inputs": [
        {
          "internalType": "address",
          "name": "from",
          "type": "address"
        },
        {
          "internalType": "address",
          "name": "to",
          "type": "address"
        },
        {
          "internalType": "uint256",
          "name": "tokenId",
          "type": "uint256"
        },
        {
          "internalType": "bytes",
          "name": "data",
          "type": "bytes"
        }
      ],
      "name": "safeTransferFrom",
      "outputs": [],
      "stateMutability": "nonpayable",
      "type": "function"
    },
    {
      "inputs": [
        {
          "internalType": "address",
          "name": "operator",
          "type": "address"
        },
        {
          "internalType": "bool",
          "name": "approved",
          "type": "bool"
        }
      ],
      "name": "setApprovalForAll",
      "outputs": [],
      "stateMutability": "nonpayable",
      "type": "function"
    },
    {
      "inputs": [
        {
          "internalType": "contract ISablierV2Comptroller",
          "name": "newComptroller",
          "type": "address"
        }
      ],
      "name": "setComptroller",
      "outputs": [],
      "stateMutability": "nonpayable",
      "type": "function"
    },
    {
      "inputs": [
        {
          "internalType": "contract ISablierV2NFTDescriptor",
          "name": "newNFTDescriptor",
          "type": "address"
        }
      ],
      "name": "setNFTDescriptor",
      "outputs": [],
      "stateMutability": "nonpayable",
      "type": "function"
    },
    {
      "inputs": [
        {
          "internalType": "uint256",
          "name": "streamId",
          "type": "uint256"
        }
      ],
      "name": "statusOf",
      "outputs": [
        {
          "internalType": "enum Lockup.Status",
          "name": "status",
          "type": "uint8"
        }
      ],
      "stateMutability": "view",
      "type": "function"
    },
    {
      "inputs": [
        {
          "internalType": "uint256",
          "name": "streamId",
          "type": "uint256"
        }
      ],
      "name": "streamedAmountOf",
      "outputs": [
        {
          "internalType": "uint128",
          "name": "streamedAmount",
          "type": "uint128"
        }
      ],
      "stateMutability": "view",
      "type": "function"
    },
    {
      "inputs": [
        {
          "internalType": "bytes4",
          "name": "interfaceId",
          "type": "bytes4"
        }
      ],
      "name": "supportsInterface",
      "outputs": [
        {
          "internalType": "bool",
          "name": "",
          "type": "bool"
        }
      ],
      "stateMutability": "view",
      "type": "function"
    },
    {
      "inputs": [],
      "name": "symbol",
      "outputs": [
        {
          "internalType": "string",
          "name": "",
          "type": "string"
        }
      ],
      "stateMutability": "view",
      "type": "function"
    },
    {
      "inputs": [
        {
          "internalType": "uint256",
          "name": "streamId",
          "type": "uint256"
        }
      ],
      "name": "tokenURI",
      "outputs": [
        {
          "internalType": "string",
          "name": "uri",
          "type": "string"
        }
      ],
      "stateMutability": "view",
      "type": "function"
    },
    {
      "inputs": [
        {
          "internalType": "address",
          "name": "newAdmin",
          "type": "address"
        }
      ],
      "name": "transferAdmin",
      "outputs": [],
      "stateMutability": "nonpayable",
      "type": "function"
    },
    {
      "inputs": [
        {
          "internalType": "address",
          "name": "from",
          "type": "address"
        },
        {
          "internalType": "address",
          "name": "to",
          "type": "address"
        },
        {
          "internalType": "uint256",
          "name": "tokenId",
          "type": "uint256"
        }
      ],
      "name": "transferFrom",
      "outputs": [],
      "stateMutability": "nonpayable",
      "type": "function"
    },
    {
      "inputs": [
        {
          "internalType": "uint256",
          "name": "streamId",
          "type": "uint256"
        }
      ],
      "name": "wasCanceled",
      "outputs": [
        {
          "internalType": "bool",
          "name": "result",
          "type": "bool"
        }
      ],
      "stateMutability": "view",
      "type": "function"
    },
    {
      "inputs": [
        {
          "internalType": "uint256",
          "name": "streamId",
          "type": "uint256"
        },
        {
          "internalType": "address",
          "name": "to",
          "type": "address"
        },
        {
          "internalType": "uint128",
          "name": "amount",
          "type": "uint128"
        }
      ],
      "name": "withdraw",
      "outputs": [],
      "stateMutability": "nonpayable",
      "type": "function"
    },
    {
      "inputs": [
        {
          "internalType": "uint256",
          "name": "streamId",
          "type": "uint256"
        },
        {
          "internalType": "address",
          "name": "to",
          "type": "address"
        }
      ],
      "name": "withdrawMax",
      "outputs": [],
      "stateMutability": "nonpayable",
      "type": "function"
    },
    {
      "inputs": [
        {
          "internalType": "uint256",
          "name": "streamId",
          "type": "uint256"
        },
        {
          "internalType": "address",
          "name": "newRecipient",
          "type": "address"
        }
      ],
      "name": "withdrawMaxAndTransfer",
      "outputs": [],
      "stateMutability": "nonpayable",
      "type": "function"
    },
    {
      "inputs": [
        {
          "internalType": "uint256[]",
          "name": "streamIds",
          "type": "uint256[]"
        },
        {
          "internalType": "address",
          "name": "to",
          "type": "address"
        },
        {
          "internalType": "uint128[]",
          "name": "amounts",
          "type": "uint128[]"
        }
      ],
      "name": "withdrawMultiple",
      "outputs": [],
      "stateMutability": "nonpayable",
      "type": "function"
    },
    {
      "inputs": [
        {
          "internalType": "uint256",
          "name": "streamId",
          "type": "uint256"
        }
      ],
      "name": "withdrawableAmountOf",
      "outputs": [
        {
          "internalType": "uint128",
          "name": "withdrawableAmount",
          "type": "uint128"
        }
      ],
      "stateMutability": "view",
      "type": "function"
    }
  ],
  "bytecode": {
    "object": "0x60c0346200046e57601f62005cde38819003918201601f19168301916001600160401b038311848410176200032b578084926080946040528339810103126200046e5780516001600160a01b038082169290918390036200046e5760208101518281168091036200046e5760408201519183831683036200046e5760600151936200008962000473565b90601d82527f5361626c696572205632204c6f636b75702044796e616d6963204e46540000006020830152620000be62000473565b601181527029a0a116ab1916a627a1a5aaa816a22ca760791b602082015230608052600080546001600160a01b03199081168417825560018054909116909517909455927fbdd36143ee09de60bdefca70680e0f71189b2ed7acee364b53917ad433fdaf808180a38051906001600160401b0382116200032b5760035490600182811c9216801562000463575b60208310146200044d5781601f849311620003d8575b50602090601f83116001146200034d5760009262000341575b50508160011b916000199060031b1c1916176003555b80516001600160401b0381116200032b576004918254600181811c9116801562000320575b60208210146200030b579081601f849311620002b3575b50602090601f831160011462000248576000926200023c575b50508160011b916000199060031b1c19161790555b1660018060a01b0319600a541617600a5560a052600160095560405161584a9081620004948239608051816152d3015260a05181818161126b01526148330152f35b015190503880620001e5565b6000858152602081209350601f198516905b8181106200029a575090846001959493921062000280575b505050811b019055620001fa565b015160001960f88460031b161c1916905538808062000272565b929360206001819287860151815501950193016200025a565b909150836000526020600020601f840160051c8101916020851062000300575b90601f859493920160051c01905b818110620002f05750620001cc565b60008155849350600101620002e1565b9091508190620002d3565b602284634e487b7160e01b6000525260246000fd5b90607f1690620001b5565b634e487b7160e01b600052604160045260246000fd5b0151905038806200017a565b600360009081527fc2575a0e9e593c00f959f8c92f12db2869c3395a3b0502d05e2516446f71f85b9350601f198516905b818110620003bf5750908460019594939210620003a5575b505050811b0160035562000190565b015160001960f88460031b161c1916905538808062000396565b929360206001819287860151815501950193016200037e565b60036000529091507fc2575a0e9e593c00f959f8c92f12db2869c3395a3b0502d05e2516446f71f85b601f840160051c8101916020851062000442575b90601f859493920160051c01905b81811062000432575062000161565b6000815584935060010162000423565b909150819062000415565b634e487b7160e01b600052602260045260246000fd5b91607f16916200014b565b600080fd5b60408051919082016001600160401b038111838210176200032b5760405256fe608080604052600436101561001357600080fd5b60003560e01c90816301ffc9a7146129375750806306fdde0314612874578063081812fc14612856578063095ea7b3146126c25780631400ecec1461261d57806316844456146123a25780631c1cdd4c1461233c5780631e99d5691461231e57806323b872dd146122f557806339a73c03146122b257806340e58ee514612079578063425d30dd1461205b57806342842e0e1461200b57806342966c6814611e8d5780634857501f14611e175780634869e12d14611ddb5780635fe3b56714611db45780636352211e14611d855780636d0cee7514611d2d57806370a0823114611c8357806375829def14611bf15780637cad6cd114611b1f5780637de6b1db1461194a5780638659c2701461164d578063894e9a0d146113e05780638bad38dd146113645780638f69b993146112e15780639067b6771461128e5780639188ec841461125357806395d89b4114611145578063a22cb46514611074578063a2ffb89714610f7b578063a6202bf214610e7b578063a80fc07114610e26578063ad35efd414610dc3578063b256456914610da5578063b637b86514610d45578063b88d4fde14610cba578063b8a3be6614610c83578063b971302a14610c31578063bc063e1a14610c0e578063bc2be1be14610bbb578063c156a11d14610acd578063c33cd35e146109b8578063c87b56dd14610885578063cc364f48146107eb578063d4dbd20b14610796578063d511609f14610747578063d975dfed146106fa578063e985e9c5146106a3578063ea5ead1914610652578063eac8f5b8146105e6578063f590c176146105be578063f851a440146105975763fdd46d601461027c57600080fd5b3461048057606036600319011261048057600435610298612a64565b604435916001600160801b039182841693848103610480576102b86152c9565b6102c183613352565b61057f576102e583600052600b6020526001600160a01b0360406000205416331490565b9182158061056f575b6105505783600052602094600586526001600160a01b039081604060002054169480610544575b61051e5781831693841561050d5788156104f5576103328761538b565b8281168a116104c1575091889161038e6103626103cb958a600052600b8c5260026040600020015460801c61565a565b89600052600b8b52600260406000200190836001600160801b031983549260801b1691161781556132e7565b906103aa818b8401511692826040818351169201511690613389565b16111561048f575b86600052600b8852600160406000200154169283615325565b81847f40b88e5c41c5a97ffb7b6ef88a0a2d505aa0c634cf8a0275cb236ea7dd87ed4d876040518a8152a48133141580610485575b61041f575b60008051602061581e8339815191528484604051908152a1005b813b156104805760008051602061581e8339815191529460846000928360405195869485936313375c3b60e01b8552896004860152336024860152604485015260648401525af1610471575b80610405565b61047a90612bd7565b3861046b565b600080fd5b50813b1515610400565b86600052600b8852604060002060018101600160a01b60ff60a01b1982541617905560ff60f01b1981541690556103b2565b60405163287ecaef60e21b8152600481018990526001600160801b03928316602482015291166044820152606490fd5b0390fd5b6024876040519063d2aabcd960e01b82526004820152fd5b600460405163630d074f60e11b8152fd5b606486838560405192632dcbf6b960e11b84526004840152336024840152166044820152fd5b50848284161415610315565b60405163216caf0d60e01b815260048101859052336024820152604490fd5b5061057984615675565b156102ee565b60248360405190634a5541ef60e01b82526004820152fd5b346104805760003660031901126104805760206001600160a01b0360005416604051908152f35b346104805760203660031901126104805760206105dc6004356133a2565b6040519015158152f35b346104805760203660031901126104805760043580600052600b60205260ff60016040600020015460a81c161561063b57600052600b60205260206001600160a01b0360016040600020015416604051908152f35b6024906040519062b8e7e760e51b82526004820152fd5b346104805760403660031901126104805760008051602061581e833981519152602060043561069a610682612a64565b61068b8361538b565b906106946152c9565b836153c3565b604051908152a1005b34610480576040366003190112610480576106bc612a4e565b6106c4612a64565b906001600160a01b03809116600052600860205260406000209116600052602052602060ff604060002054166040519015158152f35b346104805760203660031901126104805760043580600052600b60205260ff60016040600020015460a81c161561063b5761073660209161538b565b6001600160801b0360405191168152f35b346104805760203660031901126104805760043580600052600b60205260ff60016040600020015460a81c161561063b57600052600b602052602060026040600020015460801c604051908152f35b346104805760203660031901126104805760043580600052600b60205260ff60016040600020015460a81c161561063b57600052600b60205260206001600160801b0360036040600020015416604051908152f35b34610480576020366003190112610480576004356000602060405161080f81612b9e565b828152015280600052600b60205260ff60016040600020015460a81c161561063b57600052600b6020526040806000205464ffffffffff82519161085283612b9e565b818160a01c16835260c81c166020820152610883825180926020908164ffffffffff91828151168552015116910152565bf35b346104805760208060031936011261048057600435906108c36108be8360005260056020526001600160a01b0360406000205416151590565b612c3d565b60006001600160a01b03600a5416926044604051809581937fe9dc637500000000000000000000000000000000000000000000000000000000835230600484015260248301525afa9182156109ac57600092610933575b5061092f604051928284938452830190612a29565b0390f35b9091503d806000833e6109468183612beb565b81019082818303126104805780519067ffffffffffffffff8211610480570181601f8201121561048057805161097b81612c0d565b926109896040519485612beb565b818452848284010111610480576109a591848085019101612a06565b908261091a565b6040513d6000823e3d90fd5b3461048057600319602036820112610480576004359067ffffffffffffffff9081831161048057610140908336030112610480576109f46152c9565b60405191610a0183612b81565b610a0d81600401612a7a565b8352610a1b602482016133d3565b6020840152610a2c60448201612b58565b6040840152610a3d60648201612b58565b6060840152610a4e60848201612a7a565b6080840152610a5f60a48201612c29565b60a0840152610a7060c48201612a7a565b60c0840152610a823660e483016134b9565b60e084015261012481013591821161048057013660238201121561048057602091610aba610ac59236906024600482013591016133e5565b610100820152614785565b604051908152f35b3461048057604036600319011261048057600435610ae9612a64565b610af16152c9565b81600052600b60205260ff60016040600020015460a81c1615610ba4578160005260056020526001600160a01b0360406000205416803303610b85579161069a8160209360008051602061581e83398151915295610b4e8361538b565b6001600160801b038116610b63575b50612ed0565b610b7690610b6f6152c9565b82856153c3565b8686604051858152a187610b5d565b60405163216caf0d60e01b815260048101849052336024820152604490fd5b6024826040519062b8e7e760e51b82526004820152fd5b346104805760203660031901126104805760043580600052600b60205260ff60016040600020015460a81c161561063b57600052600b602052602064ffffffffff60406000205460a01c16604051908152f35b3461048057600036600319011261048057602060405167016345785d8a00008152f35b346104805760203660031901126104805760043580600052600b60205260ff60016040600020015460a81c161561063b57600052600b60205260206001600160a01b0360406000205416604051908152f35b3461048057602036600319011261048057600435600052600b602052602060ff60016040600020015460a81c166040519015158152f35b3461048057608036600319011261048057610cd3612a4e565b610cdb612a64565b6064359167ffffffffffffffff8311610480573660238401121561048057826004013591610d0883612c0d565b92610d166040519485612beb565b8084523660248287010111610480576020816000926024610d439801838801378501015260443591612d5b565b005b346104805760203660031901126104805760043580600052600b60205260ff60016040600020015460a81c161561063b57600052600b60205261092f610d91600460406000200161323a565b604051918291602083526020830190612af4565b346104805760203660031901126104805760206105dc60043561331b565b346104805760203660031901126104805760043580600052600b60205260ff60016040600020015460a81c161561063b57610dfd90614689565b6040516005821015610e10576020918152f35b634e487b7160e01b600052602160045260246000fd5b346104805760203660031901126104805760043580600052600b60205260ff60016040600020015460a81c161561063b57600052600b60205260206001600160801b0360026040600020015416604051908152f35b3461048057602036600319011261048057610e94612a4e565b6001600160a01b038060005416338103610f5257508116908160005260026020526001600160801b0360406000205416908115610f215781610ef39184600052600260205260406000206001600160801b031981541690553390615325565b6040519081527fca7a4a65a94ed2f37538814e00e1cd4c41a78261561e3f3794592f11409cf5af60203392a3005b602483604051907f8410168c0000000000000000000000000000000000000000000000000000000082526004820152fd5b6040516331b339a960e21b81526001600160a01b03919091166004820152336024820152604490fd5b346104805760603660031901126104805767ffffffffffffffff60043581811161048057610fad903690600401612ac3565b610fb5612a64565b9260443590811161048057610fce903690600401612ac3565b9190610fd86152c9565b82820361103d5760005b828110610feb57005b8060008051602061581e833981519152602061100a600194878a6153b3565b3561103061102161101c868b8a6153b3565b6134a5565b6110296152c9565b8b836153c3565b604051908152a101610fe2565b50604491604051917faec9344000000000000000000000000000000000000000000000000000000000835260048301526024820152fd5b346104805760403660031901126104805761108d612a4e565b60243590811515809203610480576001600160a01b03169081331461110157336000526008602052604060002082600052602052604060002060ff1981541660ff83161790556040519081527f17307eab39ab6107e8899845ad3d59bd9653f200f220920489ca2b5937696c3160203392a3005b606460405162461bcd60e51b815260206004820152601960248201527f4552433732313a20617070726f766520746f2063616c6c6572000000000000006044820152fd5b3461048057600036600319011261048057604051600060045490600182811c91818416918215611249575b60209485851084146112335785879486865291826000146112135750506001146111b6575b506111a292500383612beb565b61092f604051928284938452830190612a29565b84915060046000527f8a35acfbc15ff81a39ae7d344fd709f28e8600b4aa8c65c6b64bfe7fe36bd19b906000915b8583106111fb5750506111a2935082010185611195565b805483890185015287945086939092019181016111e4565b60ff1916858201526111a295151560051b85010192508791506111959050565b634e487b7160e01b600052602260045260246000fd5b92607f1692611170565b346104805760003660031901126104805760206040517f00000000000000000000000000000000000000000000000000000000000000008152f35b346104805760203660031901126104805760043580600052600b60205260ff60016040600020015460a81c161561063b57600052600b602052602064ffffffffff60406000205460c81c16604051908152f35b346104805760203660031901126104805760043580600052600b60205260ff60016040600020015460a81c161561063b5761131b90614689565b600581101580610e105760028214908115611357575b8115611345575b6020826040519015158152f35b9050610e105760046020911482611338565b5050600381146000611331565b34610480576020366003190112610480576004356001600160a01b0390818116809103610480578160005416338103610f52575060015491816001600160a01b03198416176001556040519216825260208201527fdcb09aef4bf01068924ccce937981cbe59d25ba08380cf941aaaea4e4bd3960d60403392a2005b3461048057602036600319011261048057606061014060405161140281612bba565b60008152600060208201526000604082015260008382015260006080820152600060a0820152600060c0820152600060e082015260006101008201526114466132c8565b6101208201520152600435600052600b60205260ff60016040600020015460a81c161561163557600435600052600b602052604060002061152960046040519261148f84612bba565b80546001600160a01b038116855264ffffffffff8160a01c16602086015264ffffffffff8160c81c16604086015260ff8160f01c161515606086015260f81c1515608085015260ff60018201546001600160a01b03811660a0870152818160a01c16151560c0870152818160a81c16151560e087015260b01c16151561010085015261151d600282016132e7565b6101208501520161323a565b61014082015261153a600435614689565b906005821015610e105760026101409214611629575b61092f604051928392602084526001600160a01b03815116602085015264ffffffffff602082015116604085015264ffffffffff60408201511660608501526060810151151560808501526080810151151560a08501526001600160a01b0360a08201511660c085015260c0810151151560e085015260e08101511515610100850152610100810151151561012085015261161561012082015183860190604090816001600160801b0391828151168552826020820151166020860152015116910152565b01516101a0808401526101c0830190612af4565b60006060820152611550565b602460405162b8e7e760e51b81526004356004820152fd5b34610480576020806003193601126104805760043567ffffffffffffffff81116104805761167f903690600401612ac3565b906116886152c9565b6000915b80831061169557005b6116a08382846153b3565b35926116aa6152c9565b6116b384613352565b156116d05760248460405190634a5541ef60e01b82526004820152fd5b6116dc849293946133a2565b6119325761170082600052600b6020526001600160a01b0360406000205416331490565b156119135761170e826134e8565b82600052600b80875261172760026040600020016132e7565b906001600160801b03928383511684821610156118fb578560005281895260ff60406000205460f01c16156118e3579061179582858b61178b7f5edb27d6c1a327513b90a792050debf074b7194444885e3144d4decc5caaaa509683895116613389565b9601511690613389565b9580600052818a526040600020938a855498600160f81b7dffffffffffffffffffffffffffffffffffffffffffffffffffffffffffff8b1617875560038882169788156118c9575b0197831697886001600160801b03198254161790556001600160a01b03809a16958691600584528b604060002054169687945260019b8c6040600020015416946118288b8588615325565b604080518881526001600160801b0392831660208201529290911690820152606090a460008051602061581e8339815191528a604051838152a1813b611876575b505050505001919061168c565b813b15610480576000608492819560405197889687956372eba20360e01b875260048701526024860152604485015260648401525af16118ba575b80808080611869565b6118c390612bd7565b856118b1565b60018101600160a01b60ff60a01b198254161790556117dd565b602486604051906339c6dc7360e21b82526004820152fd5b602486604051906322cad1af60e11b82526004820152fd5b60405163216caf0d60e01b815260048101839052336024820152604490fd5b6024826040519063fe19f19f60e01b82526004820152fd5b346104805760208060031936011261048057600435906119686152c9565b81600052600b815260ff60016040600020015460a81c1615610ba45761198d82614689565b6005811015610e1057600481036119b65760248360405190634a5541ef60e01b82526004820152fd5b600381036119d6576024836040519063fe19f19f60e01b82526004820152fd5b600214611b07576119fd82600052600b6020526001600160a01b0360406000205416331490565b156119135781600052600b815260ff60406000205460f01c1615611aef5781600052600b8152604060002060ff60f01b19815416905560405191807f0eb069207093cd3e51cd1370d2d369770057fbe29947e577e5fb428c6c6fc78f600080a2600582526001600160a01b036040600020541692833b611a92575b60008051602061581e8339815191528383604051908152a1005b833b15610480576000816024818360008051602061581e833981519152987f341a0bd90000000000000000000000000000000000000000000000000000000083528760048401525af115611a7857611ae990612bd7565b83611a78565b602482604051906339c6dc7360e21b82526004820152fd5b602482604051906322cad1af60e11b82526004820152fd5b34610480576020366003190112610480576004356001600160a01b0390818116809103610480578160005416338103610f525750600a5491816001600160a01b0319841617600a556040519216825260208201527fa2548bd4b805e907c1558a47b5858324fe8bb4a2e1ddfca647eecbf65610eebc60403392a26009546000198101908111611bdb5760407f6bd5c950a8d8df17f772f5af37cb3655737899cbf903264b9795592da439661c91815190600182526020820152a1005b634e487b7160e01b600052601160045260246000fd5b3461048057602036600319011261048057611c0a612a4e565b6000546001600160a01b0380821692338403611c5c576001600160a01b03199350169182911617600055337fbdd36143ee09de60bdefca70680e0f71189b2ed7acee364b53917ad433fdaf80600080a3005b6040516331b339a960e21b81526001600160a01b0385166004820152336024820152604490fd5b34610480576020366003190112610480576001600160a01b03611ca4612a4e565b168015611cc35760005260066020526020604060002054604051908152f35b608460405162461bcd60e51b815260206004820152602960248201527f4552433732313a2061646472657373207a65726f206973206e6f74206120766160448201527f6c6964206f776e657200000000000000000000000000000000000000000000006064820152fd5b3461048057602036600319011261048057600435611d646108be8260005260056020526001600160a01b0360406000205416151590565b600052600560205260206001600160a01b0360406000205416604051908152f35b34610480576020366003190112610480576020611da3600435612c88565b6001600160a01b0360405191168152f35b346104805760003660031901126104805760206001600160a01b0360015416604051908152f35b346104805760203660031901126104805760043580600052600b60205260ff60016040600020015460a81c161561063b5761073660209161470a565b346104805760203660031901126104805760043580600052600b60205260ff60016040600020015460a81c161561063b576000611e5382614689565b6005811015610e1057600203611e71575b6020906040519015158152f35b50600052600b602052602060ff60406000205460f01c16611e64565b3461048057602036600319011261048057600435611ea96152c9565b611eb281613352565b15611fda57611ec081615675565b15611fba57611ece81612c88565b611ed78261331b565b159081611fb1575b81611f9e575b50611f8657602081611f0560008051602061581e83398151915293612c88565b9080600052600783526001600160a01b036040600020926001600160a01b031993848154169055169182600052600684526040600020600019815401905581600052600584526040600020908154169055806000604051937fddf252ad1be2c89b69c2b068fc378daa952ba7f163c4a11628f55a4df523b3ef8280a48152a1005b602490604051906378630aa960e01b82526004820152fd5b6001600160a01b03915016151582611ee5565b60009150611edf565b60405163216caf0d60e01b81526004810191909152336024820152604490fd5b602490604051907f817cd6390000000000000000000000000000000000000000000000000000000082526004820152fd5b346104805761201936612a8e565b60405191602083019383851067ffffffffffffffff86111761204557610d439460405260008452612d5b565b634e487b7160e01b600052604160045260246000fd5b346104805760203660031901126104805760206105dc600435613352565b346104805760208060031936011261048057600435906120976152c9565b6120a082613352565b156120bd5760248260405190634a5541ef60e01b82526004820152fd5b6120c6826133a2565b611932576120ea82600052600b6020526001600160a01b0360406000205416331490565b15611913576120f8826134e8565b9180600052600b825261211160026040600020016132e7565b906001600160801b0393848351168582161015611b075781600052600b845260ff60406000205460f01c1615611aef5780858561215461215e9483885116613389565b9501511690613389565b9080600052600b845260008051602061581e833981519152604060002094855494600160f81b7dffffffffffffffffffffffffffffffffffffffffffffffffffffffffffff87161787556003888616978815612298575b0197811697886001600160801b03198254161790556001600160a01b038096169560058352867f5edb27d6c1a327513b90a792050debf074b7194444885e3144d4decc5caaaa508260406000205416978893600b875260016040600020015416946122218d8588615325565b604080518a81526001600160801b0392831660208201529290911690820152606090a4604051838152a1813b61225357005b813b15610480576000608492819560405197889687956372eba20360e01b875260048701526024860152604485015260648401525af161228f57005b610d4390612bd7565b60018101600160a01b60ff60a01b198254161790556121b5565b34610480576020366003190112610480576001600160a01b036122d3612a4e565b16600052600260205260206001600160801b0360406000205416604051908152f35b3461048057610d4361230636612a8e565b916123196123148433612df1565b612cea565b612ed0565b34610480576000366003190112610480576020600954604051908152f35b346104805760203660031901126104805760043580600052600b60205260ff60016040600020015460a81c161561063b5761237690614689565b6005811015610e10578060209115908115612397575b506040519015158152f35b60019150148261238c565b346104805760206003198181360112610480576004359067ffffffffffffffff908183116104805761012083360391820112610480576123e06152c9565b61010483013590602219018112156104805782016004810135908282116104805760240160608202360381136104805761241b9136916133e5565b9182519061242882613222565b916124366040519384612beb565b808352601f1961244582613222565b018660005b8281106126075750505064ffffffffff90814216946001600160801b03968761247282613553565b515116828a61248084613553565b510151168580604061249186613553565b510151168a011690604051926124a684612b65565b83528b83015260408201526124ba87613553565b526124c486613553565b5060019386855b8a8c87831061258657908b846001600160a01b038c60a48101358281169081900361048057610ac595612546956125769461250860248601613484565b61251460448701613484565b61252060648801613491565b9161252d88600401613491565b948461253b60848b016134a5565b966040519d8e612b81565b168c528d8c0152151560408b0152151560608a01521660808801521660a086015260c085015260c43691016134b9565b60e0830152610100820152614785565b8893858060406125ba8b866125aa8a8e9a6125a1828d613576565b5151169a613576565b5101511694600019890190613576565b510151168160406125cb888c613576565b51015116011691604051936125df85612b65565b845283015260408201526125f3828b613576565b526125fe818a613576565b500187906124cb565b61260f6132c8565b82828801015201879061244a565b346104805760203660031901126104805760043580600052600b60205260ff60016040600020015460a81c161561063b5760209060009080600052600b8352604060002060ff815460f01c16806126b0575b612687575b50506001600160801b0360405191168152f35b6126a992506001600160801b0360026126a392015416916134e8565b90613389565b8280612674565b5060ff600182015460a01c161561266f565b34610480576040366003190112610480576126db612a4e565b602435906001600160a01b0380806126f285612c88565b169216918083146127ec578033149081156127c7575b501561275d578260005260076020526040600020826001600160a01b031982541617905561273583612c88565b167f8c5be1e5ebec7d5bd14f71427d1e84f3dd0314c0f7b2291e5b200ac8c7c3b925600080a4005b608460405162461bcd60e51b815260206004820152603d60248201527f4552433732313a20617070726f76652063616c6c6572206973206e6f7420746f60448201527f6b656e206f776e6572206f7220617070726f76656420666f7220616c6c0000006064820152fd5b9050600052600860205260406000203360005260205260ff6040600020541684612708565b608460405162461bcd60e51b815260206004820152602160248201527f4552433732313a20617070726f76616c20746f2063757272656e74206f776e6560448201527f72000000000000000000000000000000000000000000000000000000000000006064820152fd5b34610480576020366003190112610480576020611da3600435612cad565b3461048057600036600319011261048057604051600060035490600182811c9181841691821561292d575b60209485851084146112335785879486865291826000146112135750506001146128d057506111a292500383612beb565b84915060036000527fc2575a0e9e593c00f959f8c92f12db2869c3395a3b0502d05e2516446f71f85b906000915b8583106129155750506111a2935082010185611195565b805483890185015287945086939092019181016128fe565b92607f169261289f565b3461048057602036600319011261048057600435907fffffffff00000000000000000000000000000000000000000000000000000000821680920361048057817f80ac58cd00000000000000000000000000000000000000000000000000000000602093149081156129dc575b81156129b2575b5015158152f35b7f01ffc9a700000000000000000000000000000000000000000000000000000000915014836129ab565b7f5b5e139f00000000000000000000000000000000000000000000000000000000811491506129a4565b60005b838110612a195750506000910152565b8181015183820152602001612a09565b90602091612a4281518092818552858086019101612a06565b601f01601f1916010190565b600435906001600160a01b038216820361048057565b602435906001600160a01b038216820361048057565b35906001600160a01b038216820361048057565b6060906003190112610480576001600160a01b0390600435828116810361048057916024359081168103610480579060443590565b9181601f840112156104805782359167ffffffffffffffff8311610480576020808501948460051b01011161048057565b90815180825260208080930193019160005b828110612b14575050505090565b835180516001600160801b031686528083015167ffffffffffffffff168684015260409081015164ffffffffff169086015260609094019392810192600101612b06565b3590811515820361048057565b6060810190811067ffffffffffffffff82111761204557604052565b610120810190811067ffffffffffffffff82111761204557604052565b6040810190811067ffffffffffffffff82111761204557604052565b610160810190811067ffffffffffffffff82111761204557604052565b67ffffffffffffffff811161204557604052565b90601f8019910116810190811067ffffffffffffffff82111761204557604052565b67ffffffffffffffff811161204557601f01601f191660200190565b35906001600160801b038216820361048057565b15612c4457565b606460405162461bcd60e51b815260206004820152601860248201527f4552433732313a20696e76616c696420746f6b656e20494400000000000000006044820152fd5b60005260056020526001600160a01b0360406000205416612caa811515612c3d565b90565b612cd06108be8260005260056020526001600160a01b0360406000205416151590565b60005260076020526001600160a01b036040600020541690565b15612cf157565b608460405162461bcd60e51b815260206004820152602d60248201527f4552433732313a2063616c6c6572206973206e6f7420746f6b656e206f776e6560448201527f72206f7220617070726f766564000000000000000000000000000000000000006064820152fd5b90612d7f939291612d6f6123148433612df1565b612d7a838383612ed0565b613089565b15612d8657565b60405162461bcd60e51b815260206004820152603260248201527f4552433732313a207472616e7366657220746f206e6f6e20455243373231526560448201527f63656976657220696d706c656d656e74657200000000000000000000000000006064820152608490fd5b906001600160a01b038080612e0584612c88565b16931691838314938415612e38575b508315612e22575b50505090565b612e2e91929350612cad565b1614388080612e1c565b909350600052600860205260406000208260005260205260ff604060002054169238612e14565b15612e6657565b608460405162461bcd60e51b815260206004820152602560248201527f4552433732313a207472616e736665722066726f6d20696e636f72726563742060448201527f6f776e65720000000000000000000000000000000000000000000000000000006064820152fd5b90612ef99291612edf83612c88565b916001600160a01b03948593848094169687911614612e5f565b1690811580612ff057612f0b8461331b565b159081612fe7575b5080612fde575b612fc65791808492612f4860008051602061581e83398151915296602096612f4185612c88565b1614612e5f565b60009382855260078652604085206001600160a01b031990818154169055818652600687526040862060001981540190558286526040862060018154019055838652600587528260408720918254161790557fddf252ad1be2c89b69c2b068fc378daa952ba7f163c4a11628f55a4df523b3ef6040519580a48152a1565b602483604051906378630aa960e01b82526004820152fd5b50831515612f1a565b90501538612f13565b608460405162461bcd60e51b8152602060048201526024808201527f4552433732313a207472616e7366657220746f20746865207a65726f2061646460448201527f72657373000000000000000000000000000000000000000000000000000000006064820152fd5b3d15613084573d9061306a82612c0d565b916130786040519384612beb565b82523d6000602084013e565b606090565b9290803b15613219576130f3916020916001600160a01b0394604051809581948293897f150b7a02000000000000000000000000000000000000000000000000000000009b8c86523360048701521660248501526044840152608060648401526084830190612a29565b03916000968791165af1908290826131b2575b505061318c57613114613059565b805190816131875760405162461bcd60e51b815260206004820152603260248201527f4552433732313a207472616e7366657220746f206e6f6e20455243373231526560448201527f63656976657220696d706c656d656e74657200000000000000000000000000006064820152608490fd5b602001fd5b7fffffffff00000000000000000000000000000000000000000000000000000000161490565b909192506020813d8211613211575b816131ce60209383612beb565b8101031261320d5751907fffffffff000000000000000000000000000000000000000000000000000000008216820361320a5750903880613106565b80fd5b5080fd5b3d91506131c1565b50505050600190565b67ffffffffffffffff81116120455760051b60200190565b90815461324681613222565b9260409361325685519182612beb565b828152809460208092019260005281600020906000935b85851061327c57505050505050565b6001848192845161328c81612b65565b64ffffffffff87546001600160801b038116835267ffffffffffffffff8160801c168584015260c01c168682015281520193019401939161326d565b604051906132d582612b65565b60006040838281528260208201520152565b906040516132f481612b65565b6040819360018154916001600160801b0392838116865260801c6020860152015416910152565b80600052600b60205260ff60016040600020015460a81c161561063b57600052600b60205260ff60016040600020015460b01c1690565b80600052600b60205260ff60016040600020015460a81c161561063b57600052600b60205260ff60016040600020015460a01c1690565b6001600160801b039182169082160391908211611bdb57565b80600052600b60205260ff60016040600020015460a81c161561063b57600052600b60205260406000205460f81c90565b359064ffffffffff8216820361048057565b9291926133f182613222565b60409461340086519283612beb565b8195848352602080930191606080960285019481861161048057925b85841061342c5750505050505050565b86848303126104805782519061344182612b65565b61344a85612c29565b8252858501359067ffffffffffffffff8216820361048057828792838b9501526134758688016133d3565b8682015281520193019261341c565b3580151581036104805790565b356001600160a01b03811681036104805790565b356001600160801b03811681036104805790565b9190826040910312610480576040516134d181612b9e565b60208082946134df81612a7a565b84520135910152565b64ffffffffff80421682600052600b602052604060002091825482828260a01c1610156135495760c81c16111561353757600401546001101561352e57612caa9061358a565b612caa906145ba565b6001600160801b039150600201541690565b5050505050600090565b8051156135605760200190565b634e487b7160e01b600052603260045260246000fd5b80518210156135605760209160051b010190565b64ffffffffff90814216906000908152600b6020526040908181208251936135b185612bba565b8154956001600160a01b039182881687526020870197828160a01c168952828160c81c168789015260ff8160f01c161515606089015260f81c1515608088015260ff6001938486015490811660a08a0152818160a01c16151560c08a0152818160a81c16151560e08a015260b01c16151561010088015261014061364b600461363c600288016132e7565b966101208b019788520161323a565b970191878352808761365d889a613553565b5101511693828288965b16106137415750916136f16136f6928488816136fb98976001600160801b039e8f6136938b8a51613576565b5151169d8a8f9b60206136b067ffffffffffffffff928d51613576565b510151169984836136c2848451613576565b5101511696508115613735576136e092935051906000190190613576565b5101511680925b03169203166137b5565b613b24565b613987565b92831361371457505061370e8391613779565b16011690565b5160200151929392831692841683101591506137309050575090565b905090565b505050511680926136e7565b8094986001600160801b0390816137598c8851613576565b51511601169801938282808a613770898951613576565b51015116613667565b600081126137845790565b602490604051907f2463f3d50000000000000000000000000000000000000000000000000000000082526004820152fd5b90600160ff1b80831490811561389d575b5061387357600082121561386a576137ef826000035b60008312156138635782600003906138a7565b917f7fffffffffffffffffffffffffffffffffffffffffffffffffffffffffffffff831161382d5760009160001991181315613829575090565b0390565b604491604051917fd49c26b300000000000000000000000000000000000000000000000000000000835260048301526024820152fd5b82906138a7565b6137ef826137dc565b60046040517f9fe2b450000000000000000000000000000000000000000000000000000000008152fd5b90508114386137c6565b670de0b6b3a7640000916000198383099280830292838086109503948086039514613963578285101561392757908291096001821901821680920460028082600302188083028203028083028203028083028203028083028203028083028203028092029003029360018380600003040190848311900302920304170290565b82606492604051927f63a05778000000000000000000000000000000000000000000000000000000008452600484015260248301526044820152fd5b505080925015613971570490565b634e487b7160e01b600052601260045260246000fd5b90600160ff1b808314908115613a6b575b50613a41576000821215613a38576139c1826000035b6000831215613a31578260000390613a75565b917f7fffffffffffffffffffffffffffffffffffffffffffffffffffffffffffffff83116139fb5760009160001991181315613829575090565b604491604051917f120b5b4300000000000000000000000000000000000000000000000000000000835260048301526024820152fd5b8290613a75565b6139c1826139ae565b60046040517fa6070c25000000000000000000000000000000000000000000000000000000008152fd5b9050811438613998565b90919060001983820983820291828083109203918083039214613b1357670de0b6b3a76400009081831015613adc57947faccb18165bd6fe31ae1cf318dc5b51eee0e1ba569b88cd74c1773b91fac1066994950990828211900360ee1b910360121c170290565b60449086604051917f5173648d00000000000000000000000000000000000000000000000000000000835260048301526024820152fd5b5050670de0b6b3a764000090049150565b80613b3e5750600090612caa5750670de0b6b3a764000090565b90670de0b6b3a7640000808314613b8b575080613b63575050670de0b6b3a764000090565b670de0b6b3a76400008114613b8757613b82906136f6612caa93614465565b613bab565b5090565b91505090565b8015613971576ec097ce7bc90715b34b9f10000000000590565b6000811215613be05768033dd1780914b97114198112613bda57613bd190600003613bab565b612caa90613b91565b50600090565b680a688906bd8affffff811361443457670de0b6b3a764000080604092831b05907780000000000000000000000000000000000000000000000067ff000000000000008316614317575b66ff000000000000831661420f575b65ff0000000000831661410f575b64ff000000008316614017575b63ff0000008316613f27575b62ff00008316613e3f575b61ff008316613d5f575b60ff8316613c88575b02911c60bf031c90565b60808316613d4d575b838316613d3b575b60208316613d29575b60108316613d17575b60088316613d05575b60048316613cf3575b60028316613ce1575b6001831615613c7e576801000000000000000102831c613c7e565b6801000000000000000102831c613cc6565b6801000000000000000302831c613cbd565b6801000000000000000602831c613cb4565b6801000000000000000b02831c613cab565b6801000000000000001602831c613ca2565b6801000000000000002c02831c613c99565b6801000000000000005902831c613c91565b6180008316613e2d575b6140008316613e1b575b6120008316613e09575b6110008316613df7575b6108008316613de5575b6104008316613dd3575b6102008316613dc1575b610100831615613c7557680100000000000000b102831c613c75565b6801000000000000016302831c613da5565b680100000000000002c602831c613d9b565b6801000000000000058c02831c613d91565b68010000000000000b1702831c613d87565b6801000000000000162e02831c613d7d565b68010000000000002c5d02831c613d73565b680100000000000058b902831c613d69565b628000008316613f15575b624000008316613f03575b622000008316613ef1575b621000008316613edf575b620800008316613ecd575b620400008316613ebb575b620200008316613ea9575b62010000831615613c6b576801000000000000b17202831c613c6b565b680100000000000162e402831c613e8c565b6801000000000002c5c802831c613e81565b68010000000000058b9102831c613e76565b680100000000000b172102831c613e6b565b68010000000000162e4302831c613e60565b680100000000002c5c8602831c613e55565b6801000000000058b90c02831c613e4a565b63800000008316614005575b63400000008316613ff3575b63200000008316613fe1575b63100000008316613fcf575b63080000008316613fbd575b63040000008316613fab575b63020000008316613f99575b6301000000831615613c605768010000000000b1721802831c613c60565b6801000000000162e43002831c613f7b565b68010000000002c5c86002831c613f6f565b680100000000058b90c002831c613f63565b6801000000000b17217f02831c613f57565b680100000000162e42ff02831c613f4b565b6801000000002c5c85fe02831c613f3f565b68010000000058b90bfc02831c613f33565b64800000000083166140fd575b64400000000083166140eb575b64200000000083166140d9575b64100000000083166140c7575b64080000000083166140b5575b64040000000083166140a3575b6402000000008316614091575b640100000000831615613c5457680100000000b17217f802831c613c54565b68010000000162e42ff102831c614072565b680100000002c5c85fe302831c614065565b6801000000058b90bfce02831c614058565b68010000000b17217fbb02831c61404b565b6801000000162e42fff002831c61403e565b68010000002c5c8601cc02831c614031565b680100000058b90c0b4902831c614024565b6580000000000083166141fd575b6540000000000083166141eb575b6520000000000083166141d9575b6510000000000083166141c7575b6508000000000083166141b5575b6504000000000083166141a3575b650200000000008316614191575b65010000000000831615613c47576801000000b17218355102831c613c47565b680100000162e430e5a202831c614171565b6801000002c5c863b73f02831c614163565b68010000058b90cf1e6e02831c614155565b680100000b1721bcfc9a02831c614147565b68010000162e43f4f83102831c614139565b680100002c5c89d5ec6d02831c61412b565b6801000058b91b5bc9ae02831c61411d565b66800000000000008316614305575b664000000000000083166142f3575b662000000000000083166142e1575b661000000000000083166142cf575b660800000000000083166142bd575b660400000000000083166142ab575b66020000000000008316614299575b6601000000000000831615613c395768010000b17255775c0402831c613c39565b6801000162e525ee054702831c614278565b68010002c5cc37da949202831c614269565b680100058ba01fb9f96d02831c61425a565b6801000b175effdc76ba02831c61424b565b680100162f3904051fa102831c61423c565b6801002c605e2e8cec5002831c61422d565b68010058c86da1c09ea202831c61421e565b6780000000000000008316614415575b6740000000000000008316614403575b67200000000000000083166143f1575b67100000000000000083166143df575b67080000000000000083166143cd575b67040000000000000083166143bb575b67020000000000000083166143a9575b670100000000000000831615613c2a57680100b1afa5abcbed6102831c613c2a565b68010163da9fb33356d802831c614387565b680102c9a3e778060ee702831c614377565b6801059b0d31585743ae02831c614367565b68010b5586cf9890f62a02831c614357565b6801172b83c7d517adce02831c614347565b6801306fe0a31b7152df02831c614337565b5077b504f333f9de648480000000000000000000000000000000614327565b602490604051907f0360d0280000000000000000000000000000000000000000000000000000000082526004820152fd5b8060008083131561458957670de0b6b3a76400009283811261455257506001925b808305906001600160801b03821160071b91821c9167ffffffffffffffff831160061b92831c63ffffffff811160051b90811c61ffff811160041b90811c60ff811160031b90811c91600f831160021b92831c936001978860038711811b96871c11961717171717171781810294811d9082821461454657506706f05b59d3b20000905b84821361451a5750505050500290565b808391020590671bc16d674ec80000821215614539575b831d9061450a565b8091950194831d90614531565b93505093925050020290565b6000199392508015614575576ec097ce7bc90715b34b9f10000000000591614486565b602482634e487b7160e01b81526012600452fd5b602483604051907f059b101b0000000000000000000000000000000000000000000000000000000082526004820152fd5b64ffffffffff6145ef600091838352600b60205280806040852054818160a01c1693849160c81c1603169181421603166137b5565b91808252600b602052600460408320018054156146755790829167ffffffffffffffff93526146476020832054828452600b6020526136f66001600160801b03968760026040882001541696879360801c1690613b24565b92831361465d57505061465990613779565b1690565b60029350604092508152600b60205220015460801c90565b602483634e487b7160e01b81526032600452fd5b80600052600b602052604060002060ff600182015460a01c166000146146b0575050600490565b805460f81c614703575460a01c64ffffffffff164210613bda576146d3816134e8565b90600052600b6020526001600160801b0380600260406000200154169116106000146146fe57600190565b600290565b5050600390565b80600052600b60205261472360026040600020016132e7565b81600052600b602052604060002060ff600182015460a01c1660001461475657506001600160801b039150602001511690565b5460f81c6147685750612caa906134e8565b612caa91506001600160801b036040818351169201511690613389565b906001600160a01b036001541660206001600160a01b0360c0850151166024604051809481937fdcf844a700000000000000000000000000000000000000000000000000000000835260048301525afa80156109ac57600090615038575b61480691506001600160801b0360a08501511690602060e08601510151916156de565b6001600160801b0381511661010084015164ffffffffff602086015116821561500e5781518015614fe4577f00000000000000000000000000000000000000000000000000000000000000008111614fb3575064ffffffffff604061486a84613553565b51015116811015614f5c5750600090819082815184905b808210614ec9575050505064ffffffffff421664ffffffffff8216811015614e895750506001600160801b0316808203614e525750506009549283600052600b6020526040600020916001600160801b0381511660028401906001600160801b03198254161790556001600160a01b0360c083015116600184015490750100000000000000000000000000000000000000000060408501511515928654927fffffffffffffffffff0000ff000000000000000000000000000000000000000076ff000000000000000000000000000000000000000000006060890151151560b01b16921617171760018601556001600160a01b0384511691610100850151926040614993855195600019870190613576565b510151927fff000000000000000000000000000000000000000000000000000000000000007eff0000000000000000000000000000000000000000000000000000000000007dffffffffff0000000000000000000000000000000000000000000000000078ffffffffff000000000000000000000000000000000000000060208b015160a01b169660c81b169460f01b16911617171717845560005b818110614d82575050600185016009556001600160a01b0360c08301511660005260026020526001600160801b0380604060002054168160208401511601166001600160a01b0360c0840151166000526040600020906001600160801b03198254161790556001600160a01b036080830151168015614d3e57614ad1614acb8760005260056020526001600160a01b0360406000205416151590565b156151e6565b614ada8661331b565b1580614d35575b80614d2d575b614d1557602060008051602061581e83398151915291614b20614acb8960005260056020526001600160a01b0360406000205416151590565b806000526006825260406000206001815401905587600052600582526040600020816001600160a01b0319825416179055876040519160007fddf252ad1be2c89b69c2b068fc378daa952ba7f163c4a11628f55a4df523b3ef8180a4878152a1614bb06001600160a01b0360c0840151166001600160801b0380845116816020860151160116903090339061506c565b6001600160801b0360408201511680614ce6575b507fef3d668acee46576ad5d407c42ab4d0cde13f3cd70b28f09a0fb9e3bf5bf09cb614ca36001600160a01b03845116926001600160a01b03608086015116946001600160a01b0360c08201511696614cdb614cbb60408401511515928c606086015115156001600160a01b0360e061010089015194549864ffffffffff6040519a614c4f8c612b9e565b818160a01c168c5260c81c1660208b01520151511695604051998a99610160948b523360208c015260408b0190604090816001600160801b0391828151168552826020820151166020860152015116910152565b60a089015260c08801528060e0880152860190612af4565b926101008501906020908164ffffffffff91828151168552015116910152565b6101408301520390a4565b614d0f906001600160a01b0360c0850151166001600160a01b0360e0860151511690339061506c565b38614bc4565b602486604051906378630aa960e01b82526004820152fd5b506000614ae7565b50801515614ae1565b606460405162461bcd60e51b815260206004820152602060248201527f4552433732313a206d696e7420746f20746865207a65726f20616464726573736044820152fd5b614d9181610100860151613576565b51906004860154916801000000000000000083101561204557600183018060048901558310156135605760019260048801600052602060002001906001600160801b03815116908254917fffffff00000000000000000000000000000000000000000000000000000000007cffffffffff000000000000000000000000000000000000000000000000604077ffffffffffffffff00000000000000000000000000000000602086015160801b1694015160c01b169316171717905501614a2f565b60449250604051917fd90b7e3900000000000000000000000000000000000000000000000000000000835260048301526024820152fd5b6040517f210aec0e00000000000000000000000000000000000000000000000000000000815264ffffffffff918216600482015291166024820152604490fd5b9193509193614eed906001600160801b03614ee48588613576565b5151169061565a565b9364ffffffffff806040614f018685613576565b51015116941680851115614f1f575060018493019192919092614881565b8385606492604051927f7b0bada8000000000000000000000000000000000000000000000000000000008452600484015260248301526044820152fd5b64ffffffffff6040614f6d84613553565b5101516040517fb4c9e52c00000000000000000000000000000000000000000000000000000000815264ffffffffff938416600482015291169091166024820152604490fd5b602490604051907f4757689b0000000000000000000000000000000000000000000000000000000082526004820152fd5b60046040517f3952c64e000000000000000000000000000000000000000000000000000000008152fd5b60046040517f6095d3bc000000000000000000000000000000000000000000000000000000008152fd5b6020823d602011615064575b8161505160209383612beb565b8101031261320a575061480690516147e3565b3d9150615044565b9290604051927f23b872dd0000000000000000000000000000000000000000000000000000000060208501526001600160a01b03809216602485015216604483015260648201526064815260a081019181831067ffffffffffffffff841117612045576150db926040526150dd565b565b6001600160a01b03169061513d6040516150f681612b9e565b6020938482527f5361666545524332303a206c6f772d6c6576656c2063616c6c206661696c6564858301526000808587829751910182855af1615137613059565b91615231565b8051918215918483156151c2575b5050509050156151585750565b6084906040519062461bcd60e51b82526004820152602a60248201527f5361666545524332303a204552433230206f7065726174696f6e20646964206e60448201527f6f742073756363656564000000000000000000000000000000000000000000006064820152fd5b91938180945001031261320d5782015190811515820361320a57508038808461514b565b156151ed57565b606460405162461bcd60e51b815260206004820152601c60248201527f4552433732313a20746f6b656e20616c7265616479206d696e746564000000006044820152fd5b919290156152925750815115615245575090565b3b1561524e5790565b606460405162461bcd60e51b815260206004820152601d60248201527f416464726573733a2063616c6c20746f206e6f6e2d636f6e74726163740000006044820152fd5b8251909150156152a55750805190602001fd5b6104f19060405191829162461bcd60e51b8352602060048401526024830190612a29565b6001600160a01b037f00000000000000000000000000000000000000000000000000000000000000001630036152fb57565b60046040517fa1c0d6e5000000000000000000000000000000000000000000000000000000008152fd5b916001600160a01b03604051927fa9059cbb000000000000000000000000000000000000000000000000000000006020850152166024830152604482015260448152608081019181831067ffffffffffffffff841117612045576150db926040526150dd565b612caa906153988161470a565b90600052600b60205260026040600020015460801c90613389565b91908110156135605760051b0190565b906153cd82613352565b615642576153f182600052600b6020526001600160a01b0360406000205416331490565b91821580615632575b611fba576000928184526020600581526001600160a01b03936040918583882054169380615626575b615601578582169586156155f1576001600160801b03808a16998a156155da5761544c8861538b565b8281168c116155ab5750926155008b89946001898e7f40b88e5c41c5a97ffb7b6ef88a0a2d505aa0c634cf8a0275cb236ea7dd87ed4d978f9a6154a26154cb918c8552600b8b526002868620015460801c61565a565b8b8452600b8a5260028585200190836001600160801b031983549260801b1691161781556132e7565b906154e6818a84015116928286818351169201511690613389565b16111561557d575b888152600b8752200154169687615325565b85518b8152a48133141580615573575b61551d575b505050505050565b813b1561556f576084929185915196879586946313375c3b60e01b86526004860152336024860152604485015260648401525af1615560575b8080808080615515565b61556990612bd7565b38615556565b8480fd5b50813b1515615510565b888152600b8752818120838101600160a01b60ff60a01b1982541617905560ff60f01b1981541690556154ee565b865163287ecaef60e21b8152600481018a90526001600160801b03928316602482015291166044820152606490fd5b60248887519063d2aabcd960e01b82526004820152fd5b6004845163630d074f60e11b8152fd5b6064858784865192632dcbf6b960e11b84526004840152336024840152166044820152fd5b50838683161415615423565b5061563c81615675565b156153fa565b60248260405190634a5541ef60e01b82526004820152fd5b9190916001600160801b0380809416911601918211611bdb57565b60009080825260056020526001600160a01b0380604084205416928333149384156156ba575b505082156156a857505090565b9091506156b53392612cad565b161490565b60ff929450906040918152600860205281812033825260205220541691388061569b565b9092916156e96132c8565b936001600160801b03928381169182156157f55767016345785d8a00008082116157be57808511615787575061573385615724819386613a75565b16946020890195865284613a75565b16918461574a60408901948086528287511661565a565b1610156157715761576384918261576c95511690613389565b91511690613389565b168252565b634e487b7160e01b600052600160045260246000fd5b84604491604051917f4fea5c1a00000000000000000000000000000000000000000000000000000000835260048301526024820152fd5b60449250604051917f47152d6700000000000000000000000000000000000000000000000000000000835260048301526024820152fd5b5050505050905060405161580881612b65565b6000815260006020820152600060408201529056fef8e1a15aba9398e019f0b49df1a4fde98ee17ae345cb5f6b5e2c27f5033e8ce7a164736f6c6343000815000a",
    "linkReferences": {}
  },
  "methodIdentifiers": {
    "MAX_FEE()": "bc063e1a",
    "MAX_SEGMENT_COUNT()": "9188ec84",
    "admin()": "f851a440",
    "approve(address,uint256)": "095ea7b3",
    "balanceOf(address)": "70a08231",
    "burn(uint256)": "42966c68",
    "cancel(uint256)": "40e58ee5",
    "cancelMultiple(uint256[])": "8659c270",
    "claimProtocolRevenues(address)": "a6202bf2",
    "comptroller()": "5fe3b567",
    "createWithDeltas((address,bool,bool,address,uint128,address,(address,uint256),(uint128,uint64,uint40)[]))": "16844456",
    "createWithMilestones((address,uint40,bool,bool,address,uint128,address,(address,uint256),(uint128,uint64,uint40)[]))": "c33cd35e",
    "getApproved(uint256)": "081812fc",
    "getAsset(uint256)": "eac8f5b8",
    "getDepositedAmount(uint256)": "a80fc071",
    "getEndTime(uint256)": "9067b677",
    "getRange(uint256)": "cc364f48",
    "getRecipient(uint256)": "6d0cee75",
    "getRefundedAmount(uint256)": "d4dbd20b",
    "getSegments(uint256)": "b637b865",
    "getSender(uint256)": "b971302a",
    "getStartTime(uint256)": "bc2be1be",
    "getStream(uint256)": "894e9a0d",
    "getWithdrawnAmount(uint256)": "d511609f",
    "isApprovedForAll(address,address)": "e985e9c5",
    "isCancelable(uint256)": "4857501f",
    "isCold(uint256)": "8f69b993",
    "isDepleted(uint256)": "425d30dd",
    "isStream(uint256)": "b8a3be66",
    "isTransferable(uint256)": "b2564569",
    "isWarm(uint256)": "1c1cdd4c",
    "name()": "06fdde03",
    "nextStreamId()": "1e99d569",
    "ownerOf(uint256)": "6352211e",
    "protocolRevenues(address)": "39a73c03",
    "refundableAmountOf(uint256)": "1400ecec",
    "renounce(uint256)": "7de6b1db",
    "safeTransferFrom(address,address,uint256)": "42842e0e",
    "safeTransferFrom(address,address,uint256,bytes)": "b88d4fde",
    "setApprovalForAll(address,bool)": "a22cb465",
    "setComptroller(address)": "8bad38dd",
    "setNFTDescriptor(address)": "7cad6cd1",
    "statusOf(uint256)": "ad35efd4",
    "streamedAmountOf(uint256)": "4869e12d",
    "supportsInterface(bytes4)": "01ffc9a7",
    "symbol()": "95d89b41",
    "tokenURI(uint256)": "c87b56dd",
    "transferAdmin(address)": "75829def",
    "transferFrom(address,address,uint256)": "23b872dd",
    "wasCanceled(uint256)": "f590c176",
    "withdraw(uint256,address,uint128)": "fdd46d60",
    "withdrawMax(uint256,address)": "ea5ead19",
    "withdrawMaxAndTransfer(uint256,address)": "c156a11d",
    "withdrawMultiple(uint256[],address,uint128[])": "a2ffb897",
    "withdrawableAmountOf(uint256)": "d975dfed"
  },
  "id": 67
}