{
  "abi": [
    {
      "type": "constructor",
      "inputs": [
        {
          "name": "initialAdmin",
          "type": "address",
          "internalType": "address"
        },
        {
          "name": "initialComptroller",
          "type": "address",
          "internalType": "contract ISablierV2Comptroller"
        },
        {
          "name": "initialNFTDescriptor",
          "type": "address",
          "internalType": "contract ISablierV2NFTDescriptor"
        }
      ],
      "stateMutability": "nonpayable"
    },
    {
      "type": "function",
      "name": "MAX_FEE",
      "inputs": [],
      "outputs": [
        {
          "name": "",
          "type": "uint256",
          "internalType": "UD60x18"
        }
      ],
      "stateMutability": "view"
    },
    {
      "type": "function",
      "name": "admin",
      "inputs": [],
      "outputs": [
        {
          "name": "",
          "type": "address",
          "internalType": "address"
        }
      ],
      "stateMutability": "view"
    },
    {
      "type": "function",
      "name": "approve",
      "inputs": [
        {
          "name": "to",
          "type": "address",
          "internalType": "address"
        },
        {
          "name": "tokenId",
          "type": "uint256",
          "internalType": "uint256"
        }
      ],
      "outputs": [],
      "stateMutability": "nonpayable"
    },
    {
      "type": "function",
      "name": "balanceOf",
      "inputs": [
        {
          "name": "owner",
          "type": "address",
          "internalType": "address"
        }
      ],
      "outputs": [
        {
          "name": "",
          "type": "uint256",
          "internalType": "uint256"
        }
      ],
      "stateMutability": "view"
    },
    {
      "type": "function",
      "name": "burn",
      "inputs": [
        {
          "name": "streamId",
          "type": "uint256",
          "internalType": "uint256"
        }
      ],
      "outputs": [],
      "stateMutability": "nonpayable"
    },
    {
      "type": "function",
      "name": "cancel",
      "inputs": [
        {
          "name": "streamId",
          "type": "uint256",
          "internalType": "uint256"
        }
      ],
      "outputs": [],
      "stateMutability": "nonpayable"
    },
    {
      "type": "function",
      "name": "cancelMultiple",
      "inputs": [
        {
          "name": "streamIds",
          "type": "uint256[]",
          "internalType": "uint256[]"
        }
      ],
      "outputs": [],
      "stateMutability": "nonpayable"
    },
    {
      "type": "function",
      "name": "claimProtocolRevenues",
      "inputs": [
        {
          "name": "asset",
          "type": "address",
          "internalType": "contract IERC20"
        }
      ],
      "outputs": [],
      "stateMutability": "nonpayable"
    },
    {
      "type": "function",
      "name": "comptroller",
      "inputs": [],
      "outputs": [
        {
          "name": "",
          "type": "address",
          "internalType": "contract ISablierV2Comptroller"
        }
      ],
      "stateMutability": "view"
    },
    {
      "type": "function",
      "name": "createWithDurations",
      "inputs": [
        {
          "name": "params",
          "type": "tuple",
          "internalType": "struct LockupLinear.CreateWithDurations",
          "components": [
            {
              "name": "sender",
              "type": "address",
              "internalType": "address"
            },
            {
              "name": "recipient",
              "type": "address",
              "internalType": "address"
            },
            {
              "name": "totalAmount",
              "type": "uint128",
              "internalType": "uint128"
            },
            {
              "name": "asset",
              "type": "address",
              "internalType": "contract IERC20"
            },
            {
              "name": "cancelable",
              "type": "bool",
              "internalType": "bool"
            },
            {
              "name": "transferable",
              "type": "bool",
              "internalType": "bool"
            },
            {
              "name": "durations",
              "type": "tuple",
              "internalType": "struct LockupLinear.Durations",
              "components": [
                {
                  "name": "cliff",
                  "type": "uint40",
                  "internalType": "uint40"
                },
                {
                  "name": "total",
                  "type": "uint40",
                  "internalType": "uint40"
                }
              ]
            },
            {
              "name": "broker",
              "type": "tuple",
              "internalType": "struct Broker",
              "components": [
                {
                  "name": "account",
                  "type": "address",
                  "internalType": "address"
                },
                {
                  "name": "fee",
                  "type": "uint256",
                  "internalType": "UD60x18"
                }
              ]
            }
          ]
        }
      ],
      "outputs": [
        {
          "name": "streamId",
          "type": "uint256",
          "internalType": "uint256"
        }
      ],
      "stateMutability": "nonpayable"
    },
    {
      "type": "function",
      "name": "createWithRange",
      "inputs": [
        {
          "name": "params",
          "type": "tuple",
          "internalType": "struct LockupLinear.CreateWithRange",
          "components": [
            {
              "name": "sender",
              "type": "address",
              "internalType": "address"
            },
            {
              "name": "recipient",
              "type": "address",
              "internalType": "address"
            },
            {
              "name": "totalAmount",
              "type": "uint128",
              "internalType": "uint128"
            },
            {
              "name": "asset",
              "type": "address",
              "internalType": "contract IERC20"
            },
            {
              "name": "cancelable",
              "type": "bool",
              "internalType": "bool"
            },
            {
              "name": "transferable",
              "type": "bool",
              "internalType": "bool"
            },
            {
              "name": "range",
              "type": "tuple",
              "internalType": "struct LockupLinear.Range",
              "components": [
                {
                  "name": "start",
                  "type": "uint40",
                  "internalType": "uint40"
                },
                {
                  "name": "cliff",
                  "type": "uint40",
                  "internalType": "uint40"
                },
                {
                  "name": "end",
                  "type": "uint40",
                  "internalType": "uint40"
                }
              ]
            },
            {
              "name": "broker",
              "type": "tuple",
              "internalType": "struct Broker",
              "components": [
                {
                  "name": "account",
                  "type": "address",
                  "internalType": "address"
                },
                {
                  "name": "fee",
                  "type": "uint256",
                  "internalType": "UD60x18"
                }
              ]
            }
          ]
        }
      ],
      "outputs": [
        {
          "name": "streamId",
          "type": "uint256",
          "internalType": "uint256"
        }
      ],
      "stateMutability": "nonpayable"
    },
    {
      "type": "function",
      "name": "getApproved",
      "inputs": [
        {
          "name": "tokenId",
          "type": "uint256",
          "internalType": "uint256"
        }
      ],
      "outputs": [
        {
          "name": "",
          "type": "address",
          "internalType": "address"
        }
      ],
      "stateMutability": "view"
    },
    {
      "type": "function",
      "name": "getAsset",
      "inputs": [
        {
          "name": "streamId",
          "type": "uint256",
          "internalType": "uint256"
        }
      ],
      "outputs": [
        {
          "name": "asset",
          "type": "address",
          "internalType": "contract IERC20"
        }
      ],
      "stateMutability": "view"
    },
    {
      "type": "function",
      "name": "getCliffTime",
      "inputs": [
        {
          "name": "streamId",
          "type": "uint256",
          "internalType": "uint256"
        }
      ],
      "outputs": [
        {
          "name": "cliffTime",
          "type": "uint40",
          "internalType": "uint40"
        }
      ],
      "stateMutability": "view"
    },
    {
      "type": "function",
      "name": "getDepositedAmount",
      "inputs": [
        {
          "name": "streamId",
          "type": "uint256",
          "internalType": "uint256"
        }
      ],
      "outputs": [
        {
          "name": "depositedAmount",
          "type": "uint128",
          "internalType": "uint128"
        }
      ],
      "stateMutability": "view"
    },
    {
      "type": "function",
      "name": "getEndTime",
      "inputs": [
        {
          "name": "streamId",
          "type": "uint256",
          "internalType": "uint256"
        }
      ],
      "outputs": [
        {
          "name": "endTime",
          "type": "uint40",
          "internalType": "uint40"
        }
      ],
      "stateMutability": "view"
    },
    {
      "type": "function",
      "name": "getRange",
      "inputs": [
        {
          "name": "streamId",
          "type": "uint256",
          "internalType": "uint256"
        }
      ],
      "outputs": [
        {
          "name": "range",
          "type": "tuple",
          "internalType": "struct LockupLinear.Range",
          "components": [
            {
              "name": "start",
              "type": "uint40",
              "internalType": "uint40"
            },
            {
              "name": "cliff",
              "type": "uint40",
              "internalType": "uint40"
            },
            {
              "name": "end",
              "type": "uint40",
              "internalType": "uint40"
            }
          ]
        }
      ],
      "stateMutability": "view"
    },
    {
      "type": "function",
      "name": "getRecipient",
      "inputs": [
        {
          "name": "streamId",
          "type": "uint256",
          "internalType": "uint256"
        }
      ],
      "outputs": [
        {
          "name": "recipient",
          "type": "address",
          "internalType": "address"
        }
      ],
      "stateMutability": "view"
    },
    {
      "type": "function",
      "name": "getRefundedAmount",
      "inputs": [
        {
          "name": "streamId",
          "type": "uint256",
          "internalType": "uint256"
        }
      ],
      "outputs": [
        {
          "name": "refundedAmount",
          "type": "uint128",
          "internalType": "uint128"
        }
      ],
      "stateMutability": "view"
    },
    {
      "type": "function",
      "name": "getSender",
      "inputs": [
        {
          "name": "streamId",
          "type": "uint256",
          "internalType": "uint256"
        }
      ],
      "outputs": [
        {
          "name": "sender",
          "type": "address",
          "internalType": "address"
        }
      ],
      "stateMutability": "view"
    },
    {
      "type": "function",
      "name": "getStartTime",
      "inputs": [
        {
          "name": "streamId",
          "type": "uint256",
          "internalType": "uint256"
        }
      ],
      "outputs": [
        {
          "name": "startTime",
          "type": "uint40",
          "internalType": "uint40"
        }
      ],
      "stateMutability": "view"
    },
    {
      "type": "function",
      "name": "getStream",
      "inputs": [
        {
          "name": "streamId",
          "type": "uint256",
          "internalType": "uint256"
        }
      ],
      "outputs": [
        {
          "name": "stream",
          "type": "tuple",
          "internalType": "struct LockupLinear.Stream",
          "components": [
            {
              "name": "sender",
              "type": "address",
              "internalType": "address"
            },
            {
              "name": "startTime",
              "type": "uint40",
              "internalType": "uint40"
            },
            {
              "name": "cliffTime",
              "type": "uint40",
              "internalType": "uint40"
            },
            {
              "name": "isCancelable",
              "type": "bool",
              "internalType": "bool"
            },
            {
              "name": "wasCanceled",
              "type": "bool",
              "internalType": "bool"
            },
            {
              "name": "asset",
              "type": "address",
              "internalType": "contract IERC20"
            },
            {
              "name": "endTime",
              "type": "uint40",
              "internalType": "uint40"
            },
            {
              "name": "isDepleted",
              "type": "bool",
              "internalType": "bool"
            },
            {
              "name": "isStream",
              "type": "bool",
              "internalType": "bool"
            },
            {
              "name": "isTransferable",
              "type": "bool",
              "internalType": "bool"
            },
            {
              "name": "amounts",
              "type": "tuple",
              "internalType": "struct Lockup.Amounts",
              "components": [
                {
                  "name": "deposited",
                  "type": "uint128",
                  "internalType": "uint128"
                },
                {
                  "name": "withdrawn",
                  "type": "uint128",
                  "internalType": "uint128"
                },
                {
                  "name": "refunded",
                  "type": "uint128",
                  "internalType": "uint128"
                }
              ]
            }
          ]
        }
      ],
      "stateMutability": "view"
    },
    {
      "type": "function",
      "name": "getWithdrawnAmount",
      "inputs": [
        {
          "name": "streamId",
          "type": "uint256",
          "internalType": "uint256"
        }
      ],
      "outputs": [
        {
          "name": "withdrawnAmount",
          "type": "uint128",
          "internalType": "uint128"
        }
      ],
      "stateMutability": "view"
    },
    {
      "type": "function",
      "name": "isApprovedForAll",
      "inputs": [
        {
          "name": "owner",
          "type": "address",
          "internalType": "address"
        },
        {
          "name": "operator",
          "type": "address",
          "internalType": "address"
        }
      ],
      "outputs": [
        {
          "name": "",
          "type": "bool",
          "internalType": "bool"
        }
      ],
      "stateMutability": "view"
    },
    {
      "type": "function",
      "name": "isCancelable",
      "inputs": [
        {
          "name": "streamId",
          "type": "uint256",
          "internalType": "uint256"
        }
      ],
      "outputs": [
        {
          "name": "result",
          "type": "bool",
          "internalType": "bool"
        }
      ],
      "stateMutability": "view"
    },
    {
      "type": "function",
      "name": "isCold",
      "inputs": [
        {
          "name": "streamId",
          "type": "uint256",
          "internalType": "uint256"
        }
      ],
      "outputs": [
        {
          "name": "result",
          "type": "bool",
          "internalType": "bool"
        }
      ],
      "stateMutability": "view"
    },
    {
      "type": "function",
      "name": "isDepleted",
      "inputs": [
        {
          "name": "streamId",
          "type": "uint256",
          "internalType": "uint256"
        }
      ],
      "outputs": [
        {
          "name": "result",
          "type": "bool",
          "internalType": "bool"
        }
      ],
      "stateMutability": "view"
    },
    {
      "type": "function",
      "name": "isStream",
      "inputs": [
        {
          "name": "streamId",
          "type": "uint256",
          "internalType": "uint256"
        }
      ],
      "outputs": [
        {
          "name": "result",
          "type": "bool",
          "internalType": "bool"
        }
      ],
      "stateMutability": "view"
    },
    {
      "type": "function",
      "name": "isTransferable",
      "inputs": [
        {
          "name": "streamId",
          "type": "uint256",
          "internalType": "uint256"
        }
      ],
      "outputs": [
        {
          "name": "result",
          "type": "bool",
          "internalType": "bool"
        }
      ],
      "stateMutability": "view"
    },
    {
      "type": "function",
      "name": "isWarm",
      "inputs": [
        {
          "name": "streamId",
          "type": "uint256",
          "internalType": "uint256"
        }
      ],
      "outputs": [
        {
          "name": "result",
          "type": "bool",
          "internalType": "bool"
        }
      ],
      "stateMutability": "view"
    },
    {
      "type": "function",
      "name": "name",
      "inputs": [],
      "outputs": [
        {
          "name": "",
          "type": "string",
          "internalType": "string"
        }
      ],
      "stateMutability": "view"
    },
    {
      "type": "function",
      "name": "nextStreamId",
      "inputs": [],
      "outputs": [
        {
          "name": "",
          "type": "uint256",
          "internalType": "uint256"
        }
      ],
      "stateMutability": "view"
    },
    {
      "type": "function",
      "name": "ownerOf",
      "inputs": [
        {
          "name": "tokenId",
          "type": "uint256",
          "internalType": "uint256"
        }
      ],
      "outputs": [
        {
          "name": "",
          "type": "address",
          "internalType": "address"
        }
      ],
      "stateMutability": "view"
    },
    {
      "type": "function",
      "name": "protocolRevenues",
      "inputs": [
        {
          "name": "asset",
          "type": "address",
          "internalType": "contract IERC20"
        }
      ],
      "outputs": [
        {
          "name": "revenues",
          "type": "uint128",
          "internalType": "uint128"
        }
      ],
      "stateMutability": "view"
    },
    {
      "type": "function",
      "name": "refundableAmountOf",
      "inputs": [
        {
          "name": "streamId",
          "type": "uint256",
          "internalType": "uint256"
        }
      ],
      "outputs": [
        {
          "name": "refundableAmount",
          "type": "uint128",
          "internalType": "uint128"
        }
      ],
      "stateMutability": "view"
    },
    {
      "type": "function",
      "name": "renounce",
      "inputs": [
        {
          "name": "streamId",
          "type": "uint256",
          "internalType": "uint256"
        }
      ],
      "outputs": [],
      "stateMutability": "nonpayable"
    },
    {
      "type": "function",
      "name": "safeTransferFrom",
      "inputs": [
        {
          "name": "from",
          "type": "address",
          "internalType": "address"
        },
        {
          "name": "to",
          "type": "address",
          "internalType": "address"
        },
        {
          "name": "tokenId",
          "type": "uint256",
          "internalType": "uint256"
        }
      ],
      "outputs": [],
      "stateMutability": "nonpayable"
    },
    {
      "type": "function",
      "name": "safeTransferFrom",
      "inputs": [
        {
          "name": "from",
          "type": "address",
          "internalType": "address"
        },
        {
          "name": "to",
          "type": "address",
          "internalType": "address"
        },
        {
          "name": "tokenId",
          "type": "uint256",
          "internalType": "uint256"
        },
        {
          "name": "data",
          "type": "bytes",
          "internalType": "bytes"
        }
      ],
      "outputs": [],
      "stateMutability": "nonpayable"
    },
    {
      "type": "function",
      "name": "setApprovalForAll",
      "inputs": [
        {
          "name": "operator",
          "type": "address",
          "internalType": "address"
        },
        {
          "name": "approved",
          "type": "bool",
          "internalType": "bool"
        }
      ],
      "outputs": [],
      "stateMutability": "nonpayable"
    },
    {
      "type": "function",
      "name": "setComptroller",
      "inputs": [
        {
          "name": "newComptroller",
          "type": "address",
          "internalType": "contract ISablierV2Comptroller"
        }
      ],
      "outputs": [],
      "stateMutability": "nonpayable"
    },
    {
      "type": "function",
      "name": "setNFTDescriptor",
      "inputs": [
        {
          "name": "newNFTDescriptor",
          "type": "address",
          "internalType": "contract ISablierV2NFTDescriptor"
        }
      ],
      "outputs": [],
      "stateMutability": "nonpayable"
    },
    {
      "type": "function",
      "name": "statusOf",
      "inputs": [
        {
          "name": "streamId",
          "type": "uint256",
          "internalType": "uint256"
        }
      ],
      "outputs": [
        {
          "name": "status",
          "type": "uint8",
          "internalType": "enum Lockup.Status"
        }
      ],
      "stateMutability": "view"
    },
    {
      "type": "function",
      "name": "streamedAmountOf",
      "inputs": [
        {
          "name": "streamId",
          "type": "uint256",
          "internalType": "uint256"
        }
      ],
      "outputs": [
        {
          "name": "streamedAmount",
          "type": "uint128",
          "internalType": "uint128"
        }
      ],
      "stateMutability": "view"
    },
    {
      "type": "function",
      "name": "supportsInterface",
      "inputs": [
        {
          "name": "interfaceId",
          "type": "bytes4",
          "internalType": "bytes4"
        }
      ],
      "outputs": [
        {
          "name": "",
          "type": "bool",
          "internalType": "bool"
        }
      ],
      "stateMutability": "view"
    },
    {
      "type": "function",
      "name": "symbol",
      "inputs": [],
      "outputs": [
        {
          "name": "",
          "type": "string",
          "internalType": "string"
        }
      ],
      "stateMutability": "view"
    },
    {
      "type": "function",
      "name": "tokenURI",
      "inputs": [
        {
          "name": "streamId",
          "type": "uint256",
          "internalType": "uint256"
        }
      ],
      "outputs": [
        {
          "name": "uri",
          "type": "string",
          "internalType": "string"
        }
      ],
      "stateMutability": "view"
    },
    {
      "type": "function",
      "name": "transferAdmin",
      "inputs": [
        {
          "name": "newAdmin",
          "type": "address",
          "internalType": "address"
        }
      ],
      "outputs": [],
      "stateMutability": "nonpayable"
    },
    {
      "type": "function",
      "name": "transferFrom",
      "inputs": [
        {
          "name": "from",
          "type": "address",
          "internalType": "address"
        },
        {
          "name": "to",
          "type": "address",
          "internalType": "address"
        },
        {
          "name": "tokenId",
          "type": "uint256",
          "internalType": "uint256"
        }
      ],
      "outputs": [],
      "stateMutability": "nonpayable"
    },
    {
      "type": "function",
      "name": "wasCanceled",
      "inputs": [
        {
          "name": "streamId",
          "type": "uint256",
          "internalType": "uint256"
        }
      ],
      "outputs": [
        {
          "name": "result",
          "type": "bool",
          "internalType": "bool"
        }
      ],
      "stateMutability": "view"
    },
    {
      "type": "function",
      "name": "withdraw",
      "inputs": [
        {
          "name": "streamId",
          "type": "uint256",
          "internalType": "uint256"
        },
        {
          "name": "to",
          "type": "address",
          "internalType": "address"
        },
        {
          "name": "amount",
          "type": "uint128",
          "internalType": "uint128"
        }
      ],
      "outputs": [],
      "stateMutability": "nonpayable"
    },
    {
      "type": "function",
      "name": "withdrawMax",
      "inputs": [
        {
          "name": "streamId",
          "type": "uint256",
          "internalType": "uint256"
        },
        {
          "name": "to",
          "type": "address",
          "internalType": "address"
        }
      ],
      "outputs": [],
      "stateMutability": "nonpayable"
    },
    {
      "type": "function",
      "name": "withdrawMaxAndTransfer",
      "inputs": [
        {
          "name": "streamId",
          "type": "uint256",
          "internalType": "uint256"
        },
        {
          "name": "newRecipient",
          "type": "address",
          "internalType": "address"
        }
      ],
      "outputs": [],
      "stateMutability": "nonpayable"
    },
    {
      "type": "function",
      "name": "withdrawMultiple",
      "inputs": [
        {
          "name": "streamIds",
          "type": "uint256[]",
          "internalType": "uint256[]"
        },
        {
          "name": "to",
          "type": "address",
          "internalType": "address"
        },
        {
          "name": "amounts",
          "type": "uint128[]",
          "internalType": "uint128[]"
        }
      ],
      "outputs": [],
      "stateMutability": "nonpayable"
    },
    {
      "type": "function",
      "name": "withdrawableAmountOf",
      "inputs": [
        {
          "name": "streamId",
          "type": "uint256",
          "internalType": "uint256"
        }
      ],
      "outputs": [
        {
          "name": "withdrawableAmount",
          "type": "uint128",
          "internalType": "uint128"
        }
      ],
      "stateMutability": "view"
    },
    {
      "type": "event",
      "name": "Approval",
      "inputs": [
        {
          "name": "owner",
          "type": "address",
          "indexed": true,
          "internalType": "address"
        },
        {
          "name": "approved",
          "type": "address",
          "indexed": true,
          "internalType": "address"
        },
        {
          "name": "tokenId",
          "type": "uint256",
          "indexed": true,
          "internalType": "uint256"
        }
      ],
      "anonymous": false
    },
    {
      "type": "event",
      "name": "ApprovalForAll",
      "inputs": [
        {
          "name": "owner",
          "type": "address",
          "indexed": true,
          "internalType": "address"
        },
        {
          "name": "operator",
          "type": "address",
          "indexed": true,
          "internalType": "address"
        },
        {
          "name": "approved",
          "type": "bool",
          "indexed": false,
          "internalType": "bool"
        }
      ],
      "anonymous": false
    },
    {
      "type": "event",
      "name": "BatchMetadataUpdate",
      "inputs": [
        {
          "name": "_fromTokenId",
          "type": "uint256",
          "indexed": false,
          "internalType": "uint256"
        },
        {
          "name": "_toTokenId",
          "type": "uint256",
          "indexed": false,
          "internalType": "uint256"
        }
      ],
      "anonymous": false
    },
    {
      "type": "event",
      "name": "CancelLockupStream",
      "inputs": [
        {
          "name": "streamId",
          "type": "uint256",
          "indexed": false,
          "internalType": "uint256"
        },
        {
          "name": "sender",
          "type": "address",
          "indexed": true,
          "internalType": "address"
        },
        {
          "name": "recipient",
          "type": "address",
          "indexed": true,
          "internalType": "address"
        },
        {
          "name": "asset",
          "type": "address",
          "indexed": true,
          "internalType": "contract IERC20"
        },
        {
          "name": "senderAmount",
          "type": "uint128",
          "indexed": false,
          "internalType": "uint128"
        },
        {
          "name": "recipientAmount",
          "type": "uint128",
          "indexed": false,
          "internalType": "uint128"
        }
      ],
      "anonymous": false
    },
    {
      "type": "event",
      "name": "ClaimProtocolRevenues",
      "inputs": [
        {
          "name": "admin",
          "type": "address",
          "indexed": true,
          "internalType": "address"
        },
        {
          "name": "asset",
          "type": "address",
          "indexed": true,
          "internalType": "contract IERC20"
        },
        {
          "name": "protocolRevenues",
          "type": "uint128",
          "indexed": false,
          "internalType": "uint128"
        }
      ],
      "anonymous": false
    },
    {
      "type": "event",
      "name": "CreateLockupLinearStream",
      "inputs": [
        {
          "name": "streamId",
          "type": "uint256",
          "indexed": false,
          "internalType": "uint256"
        },
        {
          "name": "funder",
          "type": "address",
          "indexed": false,
          "internalType": "address"
        },
        {
          "name": "sender",
          "type": "address",
          "indexed": true,
          "internalType": "address"
        },
        {
          "name": "recipient",
          "type": "address",
          "indexed": true,
          "internalType": "address"
        },
        {
          "name": "amounts",
          "type": "tuple",
          "indexed": false,
          "internalType": "struct Lockup.CreateAmounts",
          "components": [
            {
              "name": "deposit",
              "type": "uint128",
              "internalType": "uint128"
            },
            {
              "name": "protocolFee",
              "type": "uint128",
              "internalType": "uint128"
            },
            {
              "name": "brokerFee",
              "type": "uint128",
              "internalType": "uint128"
            }
          ]
        },
        {
          "name": "asset",
          "type": "address",
          "indexed": true,
          "internalType": "contract IERC20"
        },
        {
          "name": "cancelable",
          "type": "bool",
          "indexed": false,
          "internalType": "bool"
        },
        {
          "name": "transferable",
          "type": "bool",
          "indexed": false,
          "internalType": "bool"
        },
        {
          "name": "range",
          "type": "tuple",
          "indexed": false,
          "internalType": "struct LockupLinear.Range",
          "components": [
            {
              "name": "start",
              "type": "uint40",
              "internalType": "uint40"
            },
            {
              "name": "cliff",
              "type": "uint40",
              "internalType": "uint40"
            },
            {
              "name": "end",
              "type": "uint40",
              "internalType": "uint40"
            }
          ]
        },
        {
          "name": "broker",
          "type": "address",
          "indexed": false,
          "internalType": "address"
        }
      ],
      "anonymous": false
    },
    {
      "type": "event",
      "name": "MetadataUpdate",
      "inputs": [
        {
          "name": "_tokenId",
          "type": "uint256",
          "indexed": false,
          "internalType": "uint256"
        }
      ],
      "anonymous": false
    },
    {
      "type": "event",
      "name": "RenounceLockupStream",
      "inputs": [
        {
          "name": "streamId",
          "type": "uint256",
          "indexed": true,
          "internalType": "uint256"
        }
      ],
      "anonymous": false
    },
    {
      "type": "event",
      "name": "SetComptroller",
      "inputs": [
        {
          "name": "admin",
          "type": "address",
          "indexed": true,
          "internalType": "address"
        },
        {
          "name": "oldComptroller",
          "type": "address",
          "indexed": false,
          "internalType": "contract ISablierV2Comptroller"
        },
        {
          "name": "newComptroller",
          "type": "address",
          "indexed": false,
          "internalType": "contract ISablierV2Comptroller"
        }
      ],
      "anonymous": false
    },
    {
      "type": "event",
      "name": "SetNFTDescriptor",
      "inputs": [
        {
          "name": "admin",
          "type": "address",
          "indexed": true,
          "internalType": "address"
        },
        {
          "name": "oldNFTDescriptor",
          "type": "address",
          "indexed": false,
          "internalType": "contract ISablierV2NFTDescriptor"
        },
        {
          "name": "newNFTDescriptor",
          "type": "address",
          "indexed": false,
          "internalType": "contract ISablierV2NFTDescriptor"
        }
      ],
      "anonymous": false
    },
    {
      "type": "event",
      "name": "Transfer",
      "inputs": [
        {
          "name": "from",
          "type": "address",
          "indexed": true,
          "internalType": "address"
        },
        {
          "name": "to",
          "type": "address",
          "indexed": true,
          "internalType": "address"
        },
        {
          "name": "tokenId",
          "type": "uint256",
          "indexed": true,
          "internalType": "uint256"
        }
      ],
      "anonymous": false
    },
    {
      "type": "event",
      "name": "TransferAdmin",
      "inputs": [
        {
          "name": "oldAdmin",
          "type": "address",
          "indexed": true,
          "internalType": "address"
        },
        {
          "name": "newAdmin",
          "type": "address",
          "indexed": true,
          "internalType": "address"
        }
      ],
      "anonymous": false
    },
    {
      "type": "event",
      "name": "WithdrawFromLockupStream",
      "inputs": [
        {
          "name": "streamId",
          "type": "uint256",
          "indexed": true,
          "internalType": "uint256"
        },
        {
          "name": "to",
          "type": "address",
          "indexed": true,
          "internalType": "address"
        },
        {
          "name": "asset",
          "type": "address",
          "indexed": true,
          "internalType": "contract IERC20"
        },
        {
          "name": "amount",
          "type": "uint128",
          "indexed": false,
          "internalType": "uint128"
        }
      ],
      "anonymous": false
    },
    {
      "type": "error",
      "name": "CallerNotAdmin",
      "inputs": [
        {
          "name": "admin",
          "type": "address",
          "internalType": "address"
        },
        {
          "name": "caller",
          "type": "address",
          "internalType": "address"
        }
      ]
    },
    {
      "type": "error",
      "name": "DelegateCall",
      "inputs": []
    },
    {
      "type": "error",
      "name": "PRBMath_MulDiv18_Overflow",
      "inputs": [
        {
          "name": "x",
          "type": "uint256",
          "internalType": "uint256"
        },
        {
          "name": "y",
          "type": "uint256",
          "internalType": "uint256"
        }
      ]
    },
    {
      "type": "error",
      "name": "PRBMath_MulDiv_Overflow",
      "inputs": [
        {
          "name": "x",
          "type": "uint256",
          "internalType": "uint256"
        },
        {
          "name": "y",
          "type": "uint256",
          "internalType": "uint256"
        },
        {
          "name": "denominator",
          "type": "uint256",
          "internalType": "uint256"
        }
      ]
    },
    {
      "type": "error",
      "name": "SablierV2Base_NoProtocolRevenues",
      "inputs": [
        {
          "name": "asset",
          "type": "address",
          "internalType": "contract IERC20"
        }
      ]
    },
    {
      "type": "error",
      "name": "SablierV2LockupLinear_CliffTimeNotLessThanEndTime",
      "inputs": [
        {
          "name": "cliffTime",
          "type": "uint40",
          "internalType": "uint40"
        },
        {
          "name": "endTime",
          "type": "uint40",
          "internalType": "uint40"
        }
      ]
    },
    {
      "type": "error",
      "name": "SablierV2LockupLinear_StartTimeGreaterThanCliffTime",
      "inputs": [
        {
          "name": "startTime",
          "type": "uint40",
          "internalType": "uint40"
        },
        {
          "name": "cliffTime",
          "type": "uint40",
          "internalType": "uint40"
        }
      ]
    },
    {
      "type": "error",
      "name": "SablierV2Lockup_BrokerFeeTooHigh",
      "inputs": [
        {
          "name": "brokerFee",
          "type": "uint256",
          "internalType": "UD60x18"
        },
        {
          "name": "maxFee",
          "type": "uint256",
          "internalType": "UD60x18"
        }
      ]
    },
    {
      "type": "error",
      "name": "SablierV2Lockup_DepositAmountZero",
      "inputs": []
    },
    {
      "type": "error",
      "name": "SablierV2Lockup_EndTimeNotInTheFuture",
      "inputs": [
        {
          "name": "currentTime",
          "type": "uint40",
          "internalType": "uint40"
        },
        {
          "name": "endTime",
          "type": "uint40",
          "internalType": "uint40"
        }
      ]
    },
    {
      "type": "error",
      "name": "SablierV2Lockup_InvalidSenderWithdrawal",
      "inputs": [
        {
          "name": "streamId",
          "type": "uint256",
          "internalType": "uint256"
        },
        {
          "name": "sender",
          "type": "address",
          "internalType": "address"
        },
        {
          "name": "to",
          "type": "address",
          "internalType": "address"
        }
      ]
    },
    {
      "type": "error",
      "name": "SablierV2Lockup_NotTransferable",
      "inputs": [
        {
          "name": "tokenId",
          "type": "uint256",
          "internalType": "uint256"
        }
      ]
    },
    {
      "type": "error",
      "name": "SablierV2Lockup_Null",
      "inputs": [
        {
          "name": "streamId",
          "type": "uint256",
          "internalType": "uint256"
        }
      ]
    },
    {
      "type": "error",
      "name": "SablierV2Lockup_Overdraw",
      "inputs": [
        {
          "name": "streamId",
          "type": "uint256",
          "internalType": "uint256"
        },
        {
          "name": "amount",
          "type": "uint128",
          "internalType": "uint128"
        },
        {
          "name": "withdrawableAmount",
          "type": "uint128",
          "internalType": "uint128"
        }
      ]
    },
    {
      "type": "error",
      "name": "SablierV2Lockup_ProtocolFeeTooHigh",
      "inputs": [
        {
          "name": "protocolFee",
          "type": "uint256",
          "internalType": "UD60x18"
        },
        {
          "name": "maxFee",
          "type": "uint256",
          "internalType": "UD60x18"
        }
      ]
    },
    {
      "type": "error",
      "name": "SablierV2Lockup_StreamCanceled",
      "inputs": [
        {
          "name": "streamId",
          "type": "uint256",
          "internalType": "uint256"
        }
      ]
    },
    {
      "type": "error",
      "name": "SablierV2Lockup_StreamDepleted",
      "inputs": [
        {
          "name": "streamId",
          "type": "uint256",
          "internalType": "uint256"
        }
      ]
    },
    {
      "type": "error",
      "name": "SablierV2Lockup_StreamNotCancelable",
      "inputs": [
        {
          "name": "streamId",
          "type": "uint256",
          "internalType": "uint256"
        }
      ]
    },
    {
      "type": "error",
      "name": "SablierV2Lockup_StreamNotDepleted",
      "inputs": [
        {
          "name": "streamId",
          "type": "uint256",
          "internalType": "uint256"
        }
      ]
    },
    {
      "type": "error",
      "name": "SablierV2Lockup_StreamSettled",
      "inputs": [
        {
          "name": "streamId",
          "type": "uint256",
          "internalType": "uint256"
        }
      ]
    },
    {
      "type": "error",
      "name": "SablierV2Lockup_Unauthorized",
      "inputs": [
        {
          "name": "streamId",
          "type": "uint256",
          "internalType": "uint256"
        },
        {
          "name": "caller",
          "type": "address",
          "internalType": "address"
        }
      ]
    },
    {
      "type": "error",
      "name": "SablierV2Lockup_WithdrawAmountZero",
      "inputs": [
        {
          "name": "streamId",
          "type": "uint256",
          "internalType": "uint256"
        }
      ]
    },
    {
      "type": "error",
      "name": "SablierV2Lockup_WithdrawArrayCountsNotEqual",
      "inputs": [
        {
          "name": "streamIdsCount",
          "type": "uint256",
          "internalType": "uint256"
        },
        {
          "name": "amountsCount",
          "type": "uint256",
          "internalType": "uint256"
        }
      ]
    },
    {
      "type": "error",
      "name": "SablierV2Lockup_WithdrawToZeroAddress",
      "inputs": []
    }
  ],
  "bytecode": {
    "object": "0x60a034620003e757601f196001600160401b03601f62004c533881900382810185168601919084831187841017620003ec57808792606094604052833981010312620003e75783516001600160a01b03928382169291839003620003e7576020918287015196858816809803620003e75760400151948516809503620003e7576200008962000402565b90601c82527f5361626c696572205632204c6f636b7570204c696e656172204e46540000000084830152620000bd62000402565b601181527029a0a116ab1916a627a1a5aaa816a624a760791b8582015230608052600080546001600160a01b031990811688178255600180548216909b178b5596817fbdd36143ee09de60bdefca70680e0f71189b2ed7acee364b53917ad433fdaf808180a38351858111620003d35760039485548c81811c91168015620003c8575b89821014620003b45790818684931162000361575b508890868311600114620002f8578492620002ec575b505060001982871b1c1916908b1b1784555b8151948511620002d8576004958654998b8b811c9b168015620002cd575b828c1014620002ba57848b1162000271575b869798999a50819487116001146200020a57505093620001fe575b505082871b92600019911b1c19161790555b600a541617600a556009556040516148309081620004238239608051816137190152f35b015191503880620001c8565b8883528183208c9890969594939116915b8282106200025757505085116200023c575b50505050811b019055620001da565b01519060f884600019921b161c19169055388080806200022d565b8484015187558c989096019593840193908101906200021b565b87835281832085880160051c81019b838910620002af575b860160051c019a8c905b8c8110620002a3575050620001ad565b848155018c9062000293565b909b508b9062000289565b634e487b7160e01b835260228852602483fd5b9a607f169a6200019b565b634e487b7160e01b81526041600452602490fd5b0151905038806200016b565b908c8e9416918886528a862092865b8c82821062000341575050841162000328575b505050811b0184556200017d565b015160001983891b60f8161c191690553880806200031a565b91929395968291958786015181550195019301908f959493929162000307565b9091508684528884208680850160051c8201928b8610620003aa575b918f91869594930160051c01915b8281106200039b57505062000155565b8681558594508f91016200038b565b925081926200037d565b634e487b7160e01b84526022600452602484fd5b90607f169062000140565b634e487b7160e01b82526041600452602482fd5b600080fd5b634e487b7160e01b600052604160045260246000fd5b60408051919082016001600160401b03811183821017620003ec5760405256fe608080604052600436101561001357600080fd5b600090813560e01c90816301ffc9a714612dd85750806306fdde0314612d14578063081812fc14612cf5578063095ea7b314612b665780631400ecec14612ac65780631c1cdd4c14612a615780631e99d56914612a4357806323b872dd14612a1957806339a73c03146129d857806340e58ee51461273a578063425d30dd1461271b57806342842e0e146126cb57806342966c68146125415780634857501f146124b75780634869e12d1461247c5780635fe3b567146124555780636352211e146124255780636d0cee75146123cf57806370a082311461232657806375829def14612293578063780a82c8146122435780637cad6cd1146121725780637de6b1db14611f925780638659c27014611c71578063894e9a0d14611a1d5780638bad38dd146119a05780638f69b993146119045780639067b677146118b157806395d89b41146117a257806396ce143114611683578063a22cb465146115b2578063a2ffb897146111c5578063a6202bf2146110c8578063a80fc07114611076578063ab167ccc14610f3d578063ad35efd414610edb578063b256456914610ebc578063b88d4fde14610e32578063b8a3be6614610dfd578063b971302a14610dae578063bc063e1a14610d8b578063bc2be1be14610d3b578063c156a11d146109c1578063c87b56dd14610887578063cc364f48146107d9578063d4dbd20b14610787578063d511609f1461073b578063d975dfed146106ef578063e985e9c51461069a578063ea5ead1914610674578063eac8f5b81461060b578063f590c176146105e2578063f851a440146105bc5763fdd46d601461027357600080fd5b346105b95760603660031901126105b95760043561028f612f07565b610297613047565b906102a061370f565b6102a98361313a565b6105a1576102cd83600052600b6020526001600160a01b0360406000205416331490565b90811580610591575b61057257838552602092600584526001600160a01b0391826040882054169380610566575b61054057828116928315610516576001600160801b038084169384156104fe57610324896140f8565b82811686116104ca5750938093926103ca9261038f6103578d9a99988d8c52600b8d52600260408d20015460801c614120565b8c8b52600b8c5261038a600260408d20019182906001600160801b036001600160801b031983549260801b169116179055565b613226565b906103ab818c840151169282604081835116920151169061309a565b16111561049a575b898852600b89526001604089200154169283614090565b82877f40b88e5c41c5a97ffb7b6ef88a0a2d505aa0c634cf8a0275cb236ea7dd87ed4d88604051868152a48233141580610490575b610432575b837ff8e1a15aba9398e019f0b49df1a4fde98ee17ae345cb5f6b5e2c27f5033e8ce78688604051908152a180f35b823b1561048c57608484928360405195869485936313375c3b60e01b85528b6004860152336024860152604485015260648401525af1610474575b8080610404565b61047d90612f83565b61048857823861046d565b8280fd5b8380fd5b50823b15156103ff565b898852600b89526040882060018101600160c81b60ff60c81b1982541617905560ff60f01b1981541690556103b3565b60405163287ecaef60e21b8152600481018b90526001600160801b03928316602482015291166044820152606490fd5b0390fd5b6024896040519063d2aabcd960e01b82526004820152fd5b60046040517fc61a0e9e000000000000000000000000000000000000000000000000000000008152fd5b858360649260405192632dcbf6b960e11b84526004840152336024840152166044820152fd5b508383821614156102fb565b60405163216caf0d60e01b815260048101859052336024820152604490fd5b5061059b8461376b565b156102d6565b60248360405190634a5541ef60e01b82526004820152fd5b80fd5b50346105b957806003193601126105b9576001600160a01b036020915416604051908152f35b50346105b95760203660031901126105b9576020610601600435613327565b6040519015158152f35b50346105b95760203660031901126105b957600435808252600b60205260ff600160408420015460d01c161561065d5760016040836001600160a01b039360209552600b855220015416604051908152f35b6024906040519062b8e7e760e51b82526004820152fd5b50346105b95760403660031901126105b957600435610691612f07565b610297826140f8565b50346105b95760403660031901126105b9576106b4612ef1565b60406106be612f07565b926001600160a01b0380931681526008602052209116600052602052602060ff604060002054166040519015158152f35b50346105b95760203660031901126105b95760ff6001604060043593848152600b60205220015460d01c161561065d5761072a6020916140f8565b6001600160801b0360405191168152f35b50346105b95760203660031901126105b957600435808252600b60205260ff600160408420015460d01c161561065d5760408260029260209452600b845220015460801c604051908152f35b50346105b95760203660031901126105b957600435808252600b60205260ff600160408420015460d01c161561065d5760036040836001600160801b039360209552600b855220015416604051908152f35b50346105b95760203660031901126105b9576004356107f6613207565b50808252600b60205260ff600160408420015460d01c161561065d578160409160609352600b60205220600181549164ffffffffff918291015460a01c16906040519261084284612fd1565b818160a01c16845260c81c166020830152604082015261088560405180926040908164ffffffffff91828151168552826020820151166020860152015116910152565bf35b50346105b9576020806003193601126109b1576004356108c56108c08260005260056020526001600160a01b0360406000205416151590565b613171565b826001600160a01b03600a5416916044604051809481937fe9dc637500000000000000000000000000000000000000000000000000000000835230600484015260248301525afa9283156109b5578093610934575b5050610930604051928284938452830190612ecc565b0390f35b909192503d8082843e6109478184613009565b82019183818403126109b15780519067ffffffffffffffff8211610488570182601f820112156109b15780519161097d8361302b565b9361098b6040519586613009565b8385528584840101116105b95750906109a991848085019101612ea9565b90388061091a565b5080fd5b604051903d90823e3d90fd5b50346105b95760403660031901126105b9576004356109de612f07565b906109e761370f565b808352602091600b835260ff600160408620015460d01c1615610d2457818452600583526001600160a01b03806040862054169081330361057257610a2b846140f8565b906001600160801b0390818316918215938415610a52575b89610a4f898989613574565b80f35b610a5a61370f565b610a638861313a565b610d0c57610a8788600052600b6020526001600160a01b0360406000205416331490565b94851580610cfc575b610cdd57888b5260058a528360408c2054169580610cd3575b610caf57861561051657610c9757610ac0886140f8565b8281168511610c67575090610b20610aed8b969594938a8852600b8c52600260408920015460801c614120565b898752600b8b5261038a600260408920019182906001600160801b036001600160801b031983549260801b169116179055565b90610b3c818b840151169282604081835116920151169061309a565b161115610c37575b868452600b8852600160408520015416610b5f828683614090565b84877f40b88e5c41c5a97ffb7b6ef88a0a2d505aa0c634cf8a0275cb236ea7dd87ed4d8a604051868152a48133141580610c2d575b610bd2575b5050507ff8e1a15aba9398e019f0b49df1a4fde98ee17ae345cb5f6b5e2c27f5033e8ce7610a4f94604051858152a13880808080610a43565b813b156104885782916084839260405194859384926313375c3b60e01b84528b600485015233602485015289604485015260648401525af1610c15575b80610b99565b610c1e90612f83565b610c29578438610c0f565b8480fd5b50813b1515610b94565b868452600b88526040842060018101600160c81b60ff60c81b1982541617905560ff60f01b198154169055610b44565b60405163287ecaef60e21b8152600481018a90526001600160801b03928316602482015291166044820152606490fd5b6024886040519063d2aabcd960e01b82526004820152fd5b6064898860405191632dcbf6b960e11b835260048301523360248301526044820152fd5b5085871415610aa9565b60405163216caf0d60e01b8152600481018a9052336024820152604490fd5b50610d068961376b565b15610a90565b60248860405190634a5541ef60e01b82526004820152fd5b6024826040519062b8e7e760e51b82526004820152fd5b50346105b95760203660031901126105b957600435808252600b60205260ff600160408420015460d01c161561065d5760408264ffffffffff9260209452600b8452205460a01c16604051908152f35b50346105b957806003193601126105b957602060405167016345785d8a00008152f35b50346105b95760203660031901126105b957600435808252600b60205260ff600160408420015460d01c161561065d576040826001600160a01b039260209452600b8452205416604051908152f35b50346105b95760203660031901126105b95760ff600160406020936004358152600b855220015460d01c166040519015158152f35b50346105b95760803660031901126105b957610e4c612ef1565b610e54612f07565b906064359067ffffffffffffffff821161048c573660238301121561048c5781600401359284610e838561302b565b93610e916040519586613009565b85855236602487830101116109b15785610a4f96602460209301838801378501015260443591613291565b50346105b95760203660031901126105b957602061060160043561325a565b50346105b95760203660031901126105b957600435808252600b60205260ff600160408420015460d01c161561065d57610f149061340e565b604051906005811015610f2957602092508152f35b602483634e487b7160e01b81526021600452fd5b50346105b9576101403660031901126105b957610f5861370f565b610f60613207565b9064ffffffffff80421680845260c43582811681036110715781018216602085015260e4359081831682036110715701166040830152606435916001600160a01b03918284168094036105b957506084358015158091036110715760a435908115158092036110715760243594848616809603611071576004359585871680970361107157604435906001600160801b038216809203611071576040519761100789612fb4565b8852602088015260408701526060860152608085015260a084015260c0830152604061010319360112611071576040519161104183612fed565b61010435918216820361107157826110699260209452610124358482015260e082015261384f565b604051908152f35b600080fd5b50346105b95760203660031901126105b957600435808252600b60205260ff600160408420015460d01c161561065d5760026040836001600160801b039360209552600b855220015416604051908152f35b50346105b95760203660031901126105b9576110e2612ef1565b6001600160a01b038083541633810361119c575081169081835260026020526001600160801b0360408420541690811561116b578161113c918486526002602052604086206001600160801b031981541690553390614090565b6040519081527fca7a4a65a94ed2f37538814e00e1cd4c41a78261561e3f3794592f11409cf5af60203392a380f35b602483604051907f8410168c0000000000000000000000000000000000000000000000000000000082526004820152fd5b6040516331b339a960e21b81526001600160a01b03919091166004820152336024820152604490fd5b50346105b95760603660031901126105b95767ffffffffffffffff600435818111610488576111f8903690600401612f52565b90611201612f07565b92604435908111610c295761121a903690600401612f52565b61122594919461370f565b80840361157b5791926001600160a01b038216159290865b818110611248578780f35b6112538183886131e1565b359061126081858a6131e1565b356001600160801b03811681036110715761127961370f565b6112828361313a565b6105a1576112a683600052600b6020526001600160a01b0360406000205416331490565b80158061156b575b61057257838b5260056020526001600160a01b0360408c2054169080611558575b61152b5787610516576001600160801b03821615611513576112f0846140f8565b6001600160801b0381166001600160801b038416116114e15750908a91848352600b80602052611360600261038a611331868360408a20015460801c614120565b918988528460205260408820019182906001600160801b036001600160801b031983549260801b169116179055565b6001600160801b03611384816020840151169282604081835116920151169061309a565b1611156114b1575b8584526020526001600160a01b036001604085200154166113b76001600160801b0384168a83614090565b6040516001600160801b0384168152867f40b88e5c41c5a97ffb7b6ef88a0a2d505aa0c634cf8a0275cb236ea7dd87ed4d60206001600160a01b038d1693a480331415806114a7575b61143b575b5050507ff8e1a15aba9398e019f0b49df1a4fde98ee17ae345cb5f6b5e2c27f5033e8ce76020600193604051908152a10161123d565b803b15610488576001600160a01b036084898580946001600160801b0360405197889687956313375c3b60e01b87528d60048801523360248801521660448601521660648401525af161148f575b80611405565b61149890612f83565b6114a3578838611489565b8880fd5b50803b1515611400565b858452806020526040842060018101600160c81b60ff60c81b1982541617905560ff60f01b19815416905561138c565b60405163287ecaef60e21b8152600481018690526001600160801b038481166024830152919091166044820152606490fd5b6024846040519063d2aabcd960e01b82526004820152fd5b6064846001600160a01b038960405192632dcbf6b960e11b84526004840152336024840152166044820152fd5b50806001600160a01b03881614156112cf565b506115758461376b565b156112ae565b83604491604051917faec9344000000000000000000000000000000000000000000000000000000000835260048301526024820152fd5b50346105b95760403660031901126105b9576115cc612ef1565b60243590811515809203611071576001600160a01b03169081331461163f5733835260086020526040832082600052602052604060002060ff1981541660ff83161790556040519081527f17307eab39ab6107e8899845ad3d59bd9653f200f220920489ca2b5937696c3160203392a380f35b606460405162461bcd60e51b815260206004820152601960248201527f4552433732313a20617070726f766520746f2063616c6c6572000000000000006044820152fd5b50346105b9576101603660031901126105b95761169e61370f565b604051906116ab82612fb4565b6116b3612ef1565b82526116bd612f07565b60208301526116ca613047565b60408301526001600160a01b03906064358281168103611071576060840152608435801515810361107157608084015260a43580151581036110715760a084015260603660c31901126105b9575060405161172481612fd1565b64ffffffffff60c435818116810361107157825260e435818116810361107157602083015261010435908116810361107157604082015260c0830152604061012319360112611071576040519161177a83612fed565b61012435918216820361107157826110699260209452610144358482015260e082015261384f565b50346105b957806003193601126105b95760405190806004549160018360011c92600185169485156118a7575b602095868610811461189357858852879493929187908215611871575050600114611817575b505061180392500383613009565b610930604051928284938452830190612ecc565b90859250600482527f8a35acfbc15ff81a39ae7d344fd709f28e8600b4aa8c65c6b64bfe7fe36bd19b5b858310611859575050611803935082010138806117f5565b80548389018501528794508693909201918101611841565b925093505061180394915060ff191682840152151560051b82010138806117f5565b602483634e487b7160e01b81526022600452fd5b93607f16936117cf565b50346105b95760203660031901126105b957600435808252600b60205260ff600160408420015460d01c161561065d57600160408364ffffffffff9360209552600b855220015460a01c16604051908152f35b50346105b95760203660031901126105b957600435808252600b60205260ff600160408420015460d01c161561065d5761193d9061340e565b906005821015908161197e5760028314918215611992575b8215611969575b6020836040519015158152f35b90915061197e5750600460209114388061195c565b80634e487b7160e01b602492526021600452fd5b506003831491506000611955565b50346105b95760203660031901126105b9576004356001600160a01b0390818116809103610488578183541633810361119c575060015491816001600160a01b03198416176001556040519216825260208201527fdcb09aef4bf01068924ccce937981cbe59d25ba08380cf941aaaea4e4bd3960d60403392a280f35b50346105b95760203660031901126105b957604051611a3b81612f97565b8181528160208201528160408201528160608201528160808201528160a08201528160c08201528160e08201528161010082015281610120820152610140611a81613207565b9101526004358152600b60205260ff600160408320015460d01c1615611c59576004358152600b60205260408120611b5a600260405192611ac184612f97565b80546001600160a01b038116855264ffffffffff8160a01c16602086015264ffffffffff8160c81c16604086015260ff8160f01c161515606086015260f81c1515608085015260ff60018201546001600160a01b03811660a087015264ffffffffff8160a01c1660c0870152818160c81c16151560e0870152818160d01c16151561010087015260d81c16151561012085015201613226565b610140820152611b6b60043561340e565b6005811015610f29579160026101a09314611c4e575b50610885610140604051926001600160a01b03815116845264ffffffffff602082015116602085015264ffffffffff60408201511660408501526060810151151560608501526080810151151560808501526001600160a01b0360a08201511660a085015264ffffffffff60c08201511660c085015260e0810151151560e0850152610100810151151561010085015261012081015115156101208501520151610140830190604090816001600160801b0391828151168552826020820151166020860152015116910152565b606082015238611b81565b602460405162b8e7e760e51b81526004356004820152fd5b50346105b957602090816003193601126105b95760043567ffffffffffffffff81116109b157611ca683913690600401612f52565b9190611cb061370f565b83925b808410611cbe578480f35b611ccd848284979596976131e1565b3594611cd761370f565b611ce08661313a565b15611cfd5760248660405190634a5541ef60e01b82526004820152fd5b611d0686613327565b611f7a57611d2a86600052600b6020526001600160a01b0360406000205416331490565b15611f5b57611d3886613358565b95808552600b90818752611d5160026040882001613226565b906001600160801b039283835116848b161015611f435781885280895260ff604089205460f01c1615611f2b57611da18a858b611d9760409a9b9c9d9e8389511661309a565b960151169061309a565b92828a52818b52868a20908b8b7f5edb27d6c1a327513b90a792050debf074b7194444885e3144d4decc5caaaa50845497600160f81b7dffffffffffffffffffffffffffffffffffffffffffffffffffffffffffff8a1617865560038a8216968715611f11575b01998516998a6001600160801b03198254161790556001600160a01b0380991698899360058652818e822054169889965260019d8e912001541694611e4e8b8588614090565b604080518a81526001600160801b0392831660208201529290911690820152606090a47ff8e1a15aba9398e019f0b49df1a4fde98ee17ae345cb5f6b5e2c27f5033e8ce78b604051858152a1813b611eb2575b505050505001919093919293611cb3565b813b15611f0d57899493919285809460849360405197889687956372eba20360e01b875260048701526024860152604485015260648401525af1611ef9575b808080611ea1565b611f0290612f83565b610c29578487611ef1565b8980fd5b60018101600160c81b60ff60c81b19825416179055611e08565b602482604051906339c6dc7360e21b82526004820152fd5b602482604051906322cad1af60e11b82526004820152fd5b60405163216caf0d60e01b815260048101879052336024820152604490fd5b6024866040519063fe19f19f60e01b82526004820152fd5b50346105b9576020806003193601126109b15760043590611fb161370f565b818352600b815260ff600160408520015460d01c1615610d2457611fd48261340e565b600581101561215e5760048103611ffd5760248360405190634a5541ef60e01b82526004820152fd5b6003810361201d576024836040519063fe19f19f60e01b82526004820152fd5b600214611f435761204482600052600b6020526001600160a01b0360406000205416331490565b1561213f57818352600b815260ff604084205460f01c1615611f2b57818352600b81526040832060ff60f01b19815416905582604051837f0eb069207093cd3e51cd1370d2d369770057fbe29947e577e5fb428c6c6fc78f8380a2600583526001600160a01b03604083205416803b6120e7575b5050507ff8e1a15aba9398e019f0b49df1a4fde98ee17ae345cb5f6b5e2c27f5033e8ce791604051908152a180f35b803b1561048857816024818580947f341a0bd90000000000000000000000000000000000000000000000000000000083528960048401525af161212b575b806120b8565b61213490612f83565b610488578238612125565b60405163216caf0d60e01b815260048101839052336024820152604490fd5b602484634e487b7160e01b81526021600452fd5b50346105b95760203660031901126105b9576004356001600160a01b0390818116809103610488578183541633810361119c5750600a5491816001600160a01b0319841617600a556040519216825260208201527fa2548bd4b805e907c1558a47b5858324fe8bb4a2e1ddfca647eecbf65610eebc60403392a2600954600019810190811161222f5760407f6bd5c950a8d8df17f772f5af37cb3655737899cbf903264b9795592da439661c91815190600182526020820152a180f35b602482634e487b7160e01b81526011600452fd5b50346105b95760203660031901126105b957600435808252600b60205260ff600160408420015460d01c161561065d5760408264ffffffffff9260209452600b8452205460c81c16604051908152f35b50346105b95760203660031901126105b9576122ad612ef1565b9080546001600160a01b03808216933385036122ff576001600160a01b03199394501691829116178255337fbdd36143ee09de60bdefca70680e0f71189b2ed7acee364b53917ad433fdaf808380a380f35b6040516331b339a960e21b81526001600160a01b0386166004820152336024820152604490fd5b50346105b95760203660031901126105b9576001600160a01b03612348612ef1565b168015612365578160409160209352600683522054604051908152f35b608460405162461bcd60e51b815260206004820152602960248201527f4552433732313a2061646472657373207a65726f206973206e6f74206120766160448201527f6c6964206f776e657200000000000000000000000000000000000000000000006064820152fd5b50346105b95760203660031901126105b9576001600160a01b0360406020926004356124146108c08260005260056020526001600160a01b0360406000205416151590565b815260058452205416604051908152f35b50346105b95760203660031901126105b95760206124446004356131bc565b6001600160a01b0360405191168152f35b50346105b957806003193601126105b95760206001600160a01b0360015416604051908152f35b50346105b95760203660031901126105b95760ff6001604060043593848152600b60205220015460d01c161561065d5761072a6020916137d4565b50346105b95760203660031901126105b95760043590818152600b60205260ff600160408320015460d01c1615610d2457806124f28361340e565b92600584101561252d57600260209403612513575b50506040519015158152f35b8152600b8352604090205460f01c60ff1690503880612507565b602482634e487b7160e01b81526021600452fd5b50346105b95760203660031901126105b95760043561255e61370f565b6125678161313a565b1561269a576125758161376b565b1561267a57612583816131bc565b61258c8261325a565b159081612672575b8161265f575b50612647576020816125cc7ff8e1a15aba9398e019f0b49df1a4fde98ee17ae345cb5f6b5e2c27f5033e8ce7936131bc565b90808552600783526001600160a01b0360408620926001600160a01b03199384815416905516918286526006845260408620600019815401905581865260058452604086209081541690558085604051937fddf252ad1be2c89b69c2b068fc378daa952ba7f163c4a11628f55a4df523b3ef8280a48152a180f35b60249060405190630da9b01360e01b82526004820152fd5b6001600160a01b0391501615153861259a565b839150612594565b60405163216caf0d60e01b81526004810191909152336024820152604490fd5b602490604051907f817cd6390000000000000000000000000000000000000000000000000000000082526004820152fd5b50346105b9576126da36612f1d565b60405191602083019383851067ffffffffffffffff86111761270557610a4f94604052858452613291565b634e487b7160e01b600052604160045260246000fd5b50346105b95760203660031901126105b957602061060160043561313a565b50346105b9576020806003193601126109b1576004359061275961370f565b6127628261313a565b1561277f5760248260405190634a5541ef60e01b82526004820152fd5b9061278981613327565b6129c0576127ad81600052600b6020526001600160a01b0360406000205416331490565b1561267a576127bb81613358565b818452600b83526127d160026040862001613226565b926001600160801b03918285511683821610156129a857838652600b825260ff604087205460f01c16156129905792827ff8e1a15aba9398e019f0b49df1a4fde98ee17ae345cb5f6b5e2c27f5033e8ce783612846878460409761283c8d9b6128f19b8e511661309a565b9b0151169061309a565b92848852600b825287868120947f5edb27d6c1a327513b90a792050debf074b7194444885e3144d4decc5caaaa50865491600160f81b7dffffffffffffffffffffffffffffffffffffffffffffffffffffffffffff84161788556003858216988915612976575b01948d169c858e6001600160801b0319819854161790556001600160a01b038094169b8c94600589526001818e892054169d8e98600b8c5220015416968588614090565b604080518b81526001600160801b0392831660208201529290911690820152606090a4604051848152a1823b612925578480f35b823b15610c2957608492859160405197889687956372eba20360e01b875260048701526024860152604485015260648401525af1612967575b81818080808480f35b61297090612f83565b3861295e565b60018101600160c81b60ff60c81b198254161790556128ad565b602484604051906339c6dc7360e21b82526004820152fd5b602484604051906322cad1af60e11b82526004820152fd5b6024906040519063fe19f19f60e01b82526004820152fd5b50346105b95760203660031901126105b9576001600160801b0360406020926001600160a01b03612a07612ef1565b16815260028452205416604051908152f35b50346105b957610a4f612a2b36612f1d565b91612a3e612a398433613495565b6130c9565b613574565b50346105b957806003193601126105b9576020600954604051908152f35b50346105b95760203660031901126105b957600435808252600b60205260ff600160408420015460d01c161561065d57612a9a9061340e565b90600582101561197e5760208215838115612abb575b506040519015158152f35b600191501482612ab0565b50346105b95760203660031901126105b95760043590818152600b60205260ff600160408320015460d01c1615610d2457602091604082828152600b85522060ff815460f01c1680612b54575b612b2b575b50506001600160801b0360405191168152f35b612b4d92506001600160801b036002612b479201541691613358565b9061309a565b3880612b18565b5060ff600182015460c81c1615612b13565b50346105b95760403660031901126105b957612b80612ef1565b602435906001600160a01b038080612b97856131bc565b16921691808314612c8b57803314908115612c6a575b5015612c0057828452600760205260408420826001600160a01b0319825416179055612bd8836131bc565b167f8c5be1e5ebec7d5bd14f71427d1e84f3dd0314c0f7b2291e5b200ac8c7c3b9258480a480f35b608460405162461bcd60e51b815260206004820152603d60248201527f4552433732313a20617070726f76652063616c6c6572206973206e6f7420746f60448201527f6b656e206f776e6572206f7220617070726f76656420666f7220616c6c0000006064820152fd5b9050845260086020526040842033855260205260ff60408520541638612bad565b608460405162461bcd60e51b815260206004820152602160248201527f4552433732313a20617070726f76616c20746f2063757272656e74206f776e6560448201527f72000000000000000000000000000000000000000000000000000000000000006064820152fd5b50346105b95760203660031901126105b957602061244460043561305d565b50346105b957806003193601126105b95760405190806003549160018360011c9260018516948515612dce575b602095868610811461189357858852879493929187908215611871575050600114612d7457505061180392500383613009565b90859250600382527fc2575a0e9e593c00f959f8c92f12db2869c3395a3b0502d05e2516446f71f85b5b858310612db6575050611803935082010138806117f5565b80548389018501528794508693909201918101612d9e565b93607f1693612d41565b9050346109b15760203660031901126109b1576004357fffffffff00000000000000000000000000000000000000000000000000000000811680910361048857602092507f80ac58cd000000000000000000000000000000000000000000000000000000008114908115612e7f575b8115612e55575b5015158152f35b7f01ffc9a70000000000000000000000000000000000000000000000000000000091501438612e4e565b7f5b5e139f0000000000000000000000000000000000000000000000000000000081149150612e47565b60005b838110612ebc5750506000910152565b8181015183820152602001612eac565b90602091612ee581518092818552858086019101612ea9565b601f01601f1916010190565b600435906001600160a01b038216820361107157565b602435906001600160a01b038216820361107157565b6060906003190112611071576001600160a01b0390600435828116810361107157916024359081168103611071579060443590565b9181601f840112156110715782359167ffffffffffffffff8311611071576020808501948460051b01011161107157565b67ffffffffffffffff811161270557604052565b610160810190811067ffffffffffffffff82111761270557604052565b610100810190811067ffffffffffffffff82111761270557604052565b6060810190811067ffffffffffffffff82111761270557604052565b6040810190811067ffffffffffffffff82111761270557604052565b90601f8019910116810190811067ffffffffffffffff82111761270557604052565b67ffffffffffffffff811161270557601f01601f191660200190565b604435906001600160801b038216820361107157565b6130806108c08260005260056020526001600160a01b0360406000205416151590565b60005260076020526001600160a01b036040600020541690565b6001600160801b0391821690821603919082116130b357565b634e487b7160e01b600052601160045260246000fd5b156130d057565b608460405162461bcd60e51b815260206004820152602d60248201527f4552433732313a2063616c6c6572206973206e6f7420746f6b656e206f776e6560448201527f72206f7220617070726f766564000000000000000000000000000000000000006064820152fd5b80600052600b60205260ff60016040600020015460d01c161561065d57600052600b60205260ff60016040600020015460c81c1690565b1561317857565b606460405162461bcd60e51b815260206004820152601860248201527f4552433732313a20696e76616c696420746f6b656e20494400000000000000006044820152fd5b60005260056020526001600160a01b03604060002054166131de811515613171565b90565b91908110156131f15760051b0190565b634e487b7160e01b600052603260045260246000fd5b6040519061321482612fd1565b60006040838281528260208201520152565b9060405161323381612fd1565b6040819360018154916001600160801b0392838116865260801c6020860152015416910152565b80600052600b60205260ff60016040600020015460d01c161561065d57600052600b60205260ff60016040600020015460d81c1690565b906132b59392916132a5612a398433613495565b6132b0838383613574565b614469565b156132bc57565b60405162461bcd60e51b815260206004820152603260248201527f4552433732313a207472616e7366657220746f206e6f6e20455243373231526560448201527f63656976657220696d706c656d656e74657200000000000000000000000000006064820152608490fd5b80600052600b60205260ff60016040600020015460d01c161561065d57600052600b60205260406000205460f81c90565b600090808252600b6020526040822091825464ffffffffff42818360c81c16116134065780600186015460a01c1691824210156133f0576133a59394955060a01c168091039042036145fc565b90828152600b6020526001600160801b03926133cb8460026040852001541680946146dc565b9283116133d85750501690565b60029350604092508152600b60205220015460801c90565b505050505060026001600160801b039101541690565b505091505090565b80600052600b602052604060002060ff600182015460c81c16600014613435575050600490565b805460f81c61348e575460a01c64ffffffffff1642106134885761345881613358565b90600052600b6020526001600160801b03806002604060002001541691161060001461348357600190565b600290565b50600090565b5050600390565b906001600160a01b0380806134a9846131bc565b169316918383149384156134dc575b5083156134c6575b50505090565b6134d29192935061305d565b16143880806134c0565b909350600052600860205260406000208260005260205260ff6040600020541692386134b8565b1561350a57565b608460405162461bcd60e51b815260206004820152602560248201527f4552433732313a207472616e736665722066726f6d20696e636f72726563742060448201527f6f776e65720000000000000000000000000000000000000000000000000000006064820152fd5b9061359d9291613583836131bc565b916001600160a01b03948593848094169687911614613503565b16908115806136a6576135af8461325a565b15908161369d575b5080613694575b61367c57918084926135fe7ff8e1a15aba9398e019f0b49df1a4fde98ee17ae345cb5f6b5e2c27f5033e8ce7966020966135f7856131bc565b1614613503565b60009382855260078652604085206001600160a01b031990818154169055818652600687526040862060001981540190558286526040862060018154019055838652600587528260408720918254161790557fddf252ad1be2c89b69c2b068fc378daa952ba7f163c4a11628f55a4df523b3ef6040519580a48152a1565b60248360405190630da9b01360e01b82526004820152fd5b508315156135be565b905015386135b7565b608460405162461bcd60e51b8152602060048201526024808201527f4552433732313a207472616e7366657220746f20746865207a65726f2061646460448201527f72657373000000000000000000000000000000000000000000000000000000006064820152fd5b6001600160a01b037f000000000000000000000000000000000000000000000000000000000000000016300361374157565b60046040517fa1c0d6e5000000000000000000000000000000000000000000000000000000008152fd5b60009080825260056020526001600160a01b0380604084205416928333149384156137b0575b5050821561379e57505090565b9091506137ab339261305d565b161490565b60ff9294509060409181526008602052818120338252602052205416913880613791565b80600052600b6020526137ed6002604060002001613226565b81600052600b602052604060002060ff600182015460c81c1660001461382057506001600160801b039150602001511690565b5460f81c61383257506131de90613358565b6131de91506001600160801b03604081835116920151169061309a565b906001600160a01b036001541660206001600160a01b036060850151166024604051809481937fdcf844a700000000000000000000000000000000000000000000000000000000835260048301525afa801561408457600090614050575b6138d091506001600160801b0360408501511690602060e086015101519161413b565b916001600160801b0383511660c082015190156140265764ffffffffff815116602082019064ffffffffff82511690818111613fe657505064ffffffffff604091511691019064ffffffffff8251169081811015613fa657505064ffffffffff8042169151169081811015613f66575050600954926001600160801b038151166040519061395d82612fd1565b815260006020820152600060408201526001600160a01b036060840151169060c08401519164ffffffffff6020840151169064ffffffffff604085015116906080870151151560a088015115159364ffffffffff6001600160a01b038a5116975116604051976139cc89612f97565b88526020880152604087015260608601526000608086015260a085015260c0840152600060e0840152600161010084015261012083015261014082015284600052600b60205260406000206001600160a01b038251166001600160a01b0319825416178155613a6364ffffffffff602084015116829064ffffffffff60a01b1964ffffffffff60a01b83549260a01b169116179055565b604082015181547eff0000000000000000000000000000000000000000000000000000000000006060850151151560f01b169078ffffffffffffffffffffffffffffffffffffffffffffffffff7dffffffffff000000000000000000000000000000000000000000000000007fff000000000000000000000000000000000000000000000000000000000000006080880151151560f81b169460c81b1691161717178155600181016001600160a01b0360a0840151166001600160a01b0319825416178155613b5a64ffffffffff60c085015116829064ffffffffff60a01b1964ffffffffff60a01b83549260a01b169116179055565b60e083015181546101008501516101208601517fffffffff000000ffffffffffffffffffffffffffffffffffffffffffffffffff90921692151560c81b79ff00000000000000000000000000000000000000000000000000169290921791151560d01b7aff0000000000000000000000000000000000000000000000000000169190911790151560d81b7bff00000000000000000000000000000000000000000000000000000016179055610140909101518051602082015160801b6001600160801b03199081166001600160801b03928316176002850155926040906003019201511682825416179055600185016009556001600160a01b0360608401511660005260026020526001600160801b0380604060002054168160208501511601166001600160a01b036060850151166000526040600020918254161790556001600160a01b036020830151168015613f2257613cd5613ccf8660005260056020526001600160a01b0360406000205416151590565b1561427a565b613cde8561325a565b1580613f19575b80613f11575b613ef95760207ff8e1a15aba9398e019f0b49df1a4fde98ee17ae345cb5f6b5e2c27f5033e8ce791613d36613ccf8860005260056020526001600160a01b0360406000205416151590565b806000526006825260406000206001815401905586600052600582526040600020816001600160a01b0319825416179055866040519160007fddf252ad1be2c89b69c2b068fc378daa952ba7f163c4a11628f55a4df523b3ef8180a4868152a1613dc66001600160a01b036060840151166001600160801b038084511681602086015116011690309033906142c5565b6001600160801b0360408201511680613eca575b506001600160a01b038251167f075861cbceafeb777e8f15f357121b08f6f3adba387d599bb7b5278ca6192df5610160866001600160a01b0360208701511694613ec16001600160a01b03606089015116976080810151151560a0820151151590613e8b6001600160a01b0360e060c08601519501515116956040519788523360208901526040880190604090816001600160801b0391828151168552826020820151166020860152015116910152565b60a086015260c0850152805164ffffffffff90811660e08601526020820151811661010086015260409091015116610120840152565b610140820152a4565b613ef3906001600160a01b036060850151166001600160a01b0360e086015151169033906142c5565b38613dda565b60248560405190630da9b01360e01b82526004820152fd5b506000613ceb565b50801515613ce5565b606460405162461bcd60e51b815260206004820152602060248201527f4552433732313a206d696e7420746f20746865207a65726f20616464726573736044820152fd5b6040517f210aec0e00000000000000000000000000000000000000000000000000000000815264ffffffffff918216600482015291166024820152604490fd5b6040517f9fee269100000000000000000000000000000000000000000000000000000000815264ffffffffff918216600482015291166024820152604490fd5b6040517f4c23297000000000000000000000000000000000000000000000000000000000815264ffffffffff918216600482015291166024820152604490fd5b60046040517f6095d3bc000000000000000000000000000000000000000000000000000000008152fd5b506020813d60201161407c575b8161406a60209383613009565b81010312611071576138d090516138ad565b3d915061405d565b6040513d6000823e3d90fd5b916001600160a01b03604051927fa9059cbb000000000000000000000000000000000000000000000000000000006020850152166024830152604482015260448152608081019181831067ffffffffffffffff841117612705576140f692604052614330565b565b6131de90614105816137d4565b90600052600b60205260026040600020015460801c9061309a565b9190916001600160801b03808094169116019182116130b357565b909291614146613207565b936001600160801b03928381169182156142525767016345785d8a000080821161421b578085116141e45750614190856141818193866146dc565b169460208901958652846146dc565b1691846141a7604089019480865282875116614120565b1610156141ce576141c08491826141c99551169061309a565b9151169061309a565b168252565b634e487b7160e01b600052600160045260246000fd5b84604491604051917f4fea5c1a00000000000000000000000000000000000000000000000000000000835260048301526024820152fd5b60449250604051917f47152d6700000000000000000000000000000000000000000000000000000000835260048301526024820152fd5b5050505050905060405161426581612fd1565b60008152600060208201526000604082015290565b1561428157565b606460405162461bcd60e51b815260206004820152601c60248201527f4552433732313a20746f6b656e20616c7265616479206d696e746564000000006044820152fd5b9290604051927f23b872dd0000000000000000000000000000000000000000000000000000000060208501526001600160a01b03809216602485015216604483015260648201526064815260a081019181831067ffffffffffffffff841117612705576140f6926040525b6001600160a01b03169061439060405161434981612fed565b6020938482527f5361666545524332303a206c6f772d6c6576656c2063616c6c206661696c6564858301526000808587829751910182855af161438a614439565b9161478b565b805191821591848315614415575b5050509050156143ab5750565b6084906040519062461bcd60e51b82526004820152602a60248201527f5361666545524332303a204552433230206f7065726174696f6e20646964206e60448201527f6f742073756363656564000000000000000000000000000000000000000000006064820152fd5b9193818094500103126109b1578201519081151582036105b957508038808461439e565b3d15614464573d9061444a8261302b565b916144586040519384613009565b82523d6000602084013e565b606090565b9290803b156145f3576144d3916020916001600160a01b0394604051809581948293897f150b7a02000000000000000000000000000000000000000000000000000000009b8c86523360048701521660248501526044840152608060648401526084830190612ecc565b03916000968791165af190829082614592575b505061456c576144f4614439565b805190816145675760405162461bcd60e51b815260206004820152603260248201527f4552433732313a207472616e7366657220746f206e6f6e20455243373231526560448201527f63656976657220696d706c656d656e74657200000000000000000000000000006064820152608490fd5b602001fd5b7fffffffff00000000000000000000000000000000000000000000000000000000161490565b909192506020813d6020116145eb575b816145af60209383613009565b810103126109b15751907fffffffff00000000000000000000000000000000000000000000000000000000821682036105b957509038806144e6565b3d91506145a2565b50505050600190565b670de0b6b3a76400009160001983830992808302928380861095039480860395146146b8578285101561467c57908291096001821901821680920460028082600302188083028203028083028203028083028203028083028203028083028203028092029003029360018380600003040190848311900302920304170290565b82606492604051927f63a05778000000000000000000000000000000000000000000000000000000008452600484015260248301526044820152fd5b5050809250156146c6570490565b634e487b7160e01b600052601260045260246000fd5b9091906000198382098382029182808310920391808303921461477a57670de0b6b3a7640000908183101561474357947faccb18165bd6fe31ae1cf318dc5b51eee0e1ba569b88cd74c1773b91fac1066994950990828211900360ee1b910360121c170290565b60449086604051917f5173648d00000000000000000000000000000000000000000000000000000000835260048301526024820152fd5b5050670de0b6b3a764000090049150565b919290156147ec575081511561479f575090565b3b156147a85790565b606460405162461bcd60e51b815260206004820152601d60248201527f416464726573733a2063616c6c20746f206e6f6e2d636f6e74726163740000006044820152fd5b8251909150156147ff5750805190602001fd5b6104fa9060405191829162461bcd60e51b8352602060048401526024830190612ecc56fea164736f6c6343000817000a",
    "linkReferences": {}
  },
  "methodIdentifiers": {
    "MAX_FEE()": "bc063e1a",
    "admin()": "f851a440",
    "approve(address,uint256)": "095ea7b3",
    "balanceOf(address)": "70a08231",
    "burn(uint256)": "42966c68",
    "cancel(uint256)": "40e58ee5",
    "cancelMultiple(uint256[])": "8659c270",
    "claimProtocolRevenues(address)": "a6202bf2",
    "comptroller()": "5fe3b567",
    "createWithDurations((address,address,uint128,address,bool,bool,(uint40,uint40),(address,uint256)))": "ab167ccc",
    "createWithRange((address,address,uint128,address,bool,bool,(uint40,uint40,uint40),(address,uint256)))": "96ce1431",
    "getApproved(uint256)": "081812fc",
    "getAsset(uint256)": "eac8f5b8",
    "getCliffTime(uint256)": "780a82c8",
    "getDepositedAmount(uint256)": "a80fc071",
    "getEndTime(uint256)": "9067b677",
    "getRange(uint256)": "cc364f48",
    "getRecipient(uint256)": "6d0cee75",
    "getRefundedAmount(uint256)": "d4dbd20b",
    "getSender(uint256)": "b971302a",
    "getStartTime(uint256)": "bc2be1be",
    "getStream(uint256)": "894e9a0d",
    "getWithdrawnAmount(uint256)": "d511609f",
    "isApprovedForAll(address,address)": "e985e9c5",
    "isCancelable(uint256)": "4857501f",
    "isCold(uint256)": "8f69b993",
    "isDepleted(uint256)": "425d30dd",
    "isStream(uint256)": "b8a3be66",
    "isTransferable(uint256)": "b2564569",
    "isWarm(uint256)": "1c1cdd4c",
    "name()": "06fdde03",
    "nextStreamId()": "1e99d569",
    "ownerOf(uint256)": "6352211e",
    "protocolRevenues(address)": "39a73c03",
    "refundableAmountOf(uint256)": "1400ecec",
    "renounce(uint256)": "7de6b1db",
    "safeTransferFrom(address,address,uint256)": "42842e0e",
    "safeTransferFrom(address,address,uint256,bytes)": "b88d4fde",
    "setApprovalForAll(address,bool)": "a22cb465",
    "setComptroller(address)": "8bad38dd",
    "setNFTDescriptor(address)": "7cad6cd1",
    "statusOf(uint256)": "ad35efd4",
    "streamedAmountOf(uint256)": "4869e12d",
    "supportsInterface(bytes4)": "01ffc9a7",
    "symbol()": "95d89b41",
    "tokenURI(uint256)": "c87b56dd",
    "transferAdmin(address)": "75829def",
    "transferFrom(address,address,uint256)": "23b872dd",
    "wasCanceled(uint256)": "f590c176",
    "withdraw(uint256,address,uint128)": "fdd46d60",
    "withdrawMax(uint256,address)": "ea5ead19",
    "withdrawMaxAndTransfer(uint256,address)": "c156a11d",
    "withdrawMultiple(uint256[],address,uint128[])": "a2ffb897",
    "withdrawableAmountOf(uint256)": "d975dfed"
  },
  "id": 77
}