{
  "abi": [
    {
      "type": "constructor",
      "inputs": [
        {
          "name": "initialAdmin",
          "type": "address",
          "internalType": "address"
        },
        {
          "name": "initialComptroller",
          "type": "address",
          "internalType": "contract ISablierV2Comptroller"
        },
        {
          "name": "initialNFTDescriptor",
          "type": "address",
          "internalType": "contract ISablierV2NFTDescriptor"
        },
        {
          "name": "maxSegmentCount",
          "type": "uint256",
          "internalType": "uint256"
        }
      ],
      "stateMutability": "nonpayable"
    },
    {
      "type": "function",
      "name": "MAX_FEE",
      "inputs": [],
      "outputs": [
        {
          "name": "",
          "type": "uint256",
          "internalType": "UD60x18"
        }
      ],
      "stateMutability": "view"
    },
    {
      "type": "function",
      "name": "MAX_SEGMENT_COUNT",
      "inputs": [],
      "outputs": [
        {
          "name": "",
          "type": "uint256",
          "internalType": "uint256"
        }
      ],
      "stateMutability": "view"
    },
    {
      "type": "function",
      "name": "admin",
      "inputs": [],
      "outputs": [
        {
          "name": "",
          "type": "address",
          "internalType": "address"
        }
      ],
      "stateMutability": "view"
    },
    {
      "type": "function",
      "name": "approve",
      "inputs": [
        {
          "name": "to",
          "type": "address",
          "internalType": "address"
        },
        {
          "name": "tokenId",
          "type": "uint256",
          "internalType": "uint256"
        }
      ],
      "outputs": [],
      "stateMutability": "nonpayable"
    },
    {
      "type": "function",
      "name": "balanceOf",
      "inputs": [
        {
          "name": "owner",
          "type": "address",
          "internalType": "address"
        }
      ],
      "outputs": [
        {
          "name": "",
          "type": "uint256",
          "internalType": "uint256"
        }
      ],
      "stateMutability": "view"
    },
    {
      "type": "function",
      "name": "burn",
      "inputs": [
        {
          "name": "streamId",
          "type": "uint256",
          "internalType": "uint256"
        }
      ],
      "outputs": [],
      "stateMutability": "nonpayable"
    },
    {
      "type": "function",
      "name": "cancel",
      "inputs": [
        {
          "name": "streamId",
          "type": "uint256",
          "internalType": "uint256"
        }
      ],
      "outputs": [],
      "stateMutability": "nonpayable"
    },
    {
      "type": "function",
      "name": "cancelMultiple",
      "inputs": [
        {
          "name": "streamIds",
          "type": "uint256[]",
          "internalType": "uint256[]"
        }
      ],
      "outputs": [],
      "stateMutability": "nonpayable"
    },
    {
      "type": "function",
      "name": "claimProtocolRevenues",
      "inputs": [
        {
          "name": "asset",
          "type": "address",
          "internalType": "contract IERC20"
        }
      ],
      "outputs": [],
      "stateMutability": "nonpayable"
    },
    {
      "type": "function",
      "name": "comptroller",
      "inputs": [],
      "outputs": [
        {
          "name": "",
          "type": "address",
          "internalType": "contract ISablierV2Comptroller"
        }
      ],
      "stateMutability": "view"
    },
    {
      "type": "function",
      "name": "createWithDeltas",
      "inputs": [
        {
          "name": "params",
          "type": "tuple",
          "internalType": "struct LockupDynamic.CreateWithDeltas",
          "components": [
            {
              "name": "sender",
              "type": "address",
              "internalType": "address"
            },
            {
              "name": "cancelable",
              "type": "bool",
              "internalType": "bool"
            },
            {
              "name": "transferable",
              "type": "bool",
              "internalType": "bool"
            },
            {
              "name": "recipient",
              "type": "address",
              "internalType": "address"
            },
            {
              "name": "totalAmount",
              "type": "uint128",
              "internalType": "uint128"
            },
            {
              "name": "asset",
              "type": "address",
              "internalType": "contract IERC20"
            },
            {
              "name": "broker",
              "type": "tuple",
              "internalType": "struct Broker",
              "components": [
                {
                  "name": "account",
                  "type": "address",
                  "internalType": "address"
                },
                {
                  "name": "fee",
                  "type": "uint256",
                  "internalType": "UD60x18"
                }
              ]
            },
            {
              "name": "segments",
              "type": "tuple[]",
              "internalType": "struct LockupDynamic.SegmentWithDelta[]",
              "components": [
                {
                  "name": "amount",
                  "type": "uint128",
                  "internalType": "uint128"
                },
                {
                  "name": "exponent",
                  "type": "uint64",
                  "internalType": "UD2x18"
                },
                {
                  "name": "delta",
                  "type": "uint40",
                  "internalType": "uint40"
                }
              ]
            }
          ]
        }
      ],
      "outputs": [
        {
          "name": "streamId",
          "type": "uint256",
          "internalType": "uint256"
        }
      ],
      "stateMutability": "nonpayable"
    },
    {
      "type": "function",
      "name": "createWithMilestones",
      "inputs": [
        {
          "name": "params",
          "type": "tuple",
          "internalType": "struct LockupDynamic.CreateWithMilestones",
          "components": [
            {
              "name": "sender",
              "type": "address",
              "internalType": "address"
            },
            {
              "name": "startTime",
              "type": "uint40",
              "internalType": "uint40"
            },
            {
              "name": "cancelable",
              "type": "bool",
              "internalType": "bool"
            },
            {
              "name": "transferable",
              "type": "bool",
              "internalType": "bool"
            },
            {
              "name": "recipient",
              "type": "address",
              "internalType": "address"
            },
            {
              "name": "totalAmount",
              "type": "uint128",
              "internalType": "uint128"
            },
            {
              "name": "asset",
              "type": "address",
              "internalType": "contract IERC20"
            },
            {
              "name": "broker",
              "type": "tuple",
              "internalType": "struct Broker",
              "components": [
                {
                  "name": "account",
                  "type": "address",
                  "internalType": "address"
                },
                {
                  "name": "fee",
                  "type": "uint256",
                  "internalType": "UD60x18"
                }
              ]
            },
            {
              "name": "segments",
              "type": "tuple[]",
              "internalType": "struct LockupDynamic.Segment[]",
              "components": [
                {
                  "name": "amount",
                  "type": "uint128",
                  "internalType": "uint128"
                },
                {
                  "name": "exponent",
                  "type": "uint64",
                  "internalType": "UD2x18"
                },
                {
                  "name": "milestone",
                  "type": "uint40",
                  "internalType": "uint40"
                }
              ]
            }
          ]
        }
      ],
      "outputs": [
        {
          "name": "streamId",
          "type": "uint256",
          "internalType": "uint256"
        }
      ],
      "stateMutability": "nonpayable"
    },
    {
      "type": "function",
      "name": "getApproved",
      "inputs": [
        {
          "name": "tokenId",
          "type": "uint256",
          "internalType": "uint256"
        }
      ],
      "outputs": [
        {
          "name": "",
          "type": "address",
          "internalType": "address"
        }
      ],
      "stateMutability": "view"
    },
    {
      "type": "function",
      "name": "getAsset",
      "inputs": [
        {
          "name": "streamId",
          "type": "uint256",
          "internalType": "uint256"
        }
      ],
      "outputs": [
        {
          "name": "asset",
          "type": "address",
          "internalType": "contract IERC20"
        }
      ],
      "stateMutability": "view"
    },
    {
      "type": "function",
      "name": "getDepositedAmount",
      "inputs": [
        {
          "name": "streamId",
          "type": "uint256",
          "internalType": "uint256"
        }
      ],
      "outputs": [
        {
          "name": "depositedAmount",
          "type": "uint128",
          "internalType": "uint128"
        }
      ],
      "stateMutability": "view"
    },
    {
      "type": "function",
      "name": "getEndTime",
      "inputs": [
        {
          "name": "streamId",
          "type": "uint256",
          "internalType": "uint256"
        }
      ],
      "outputs": [
        {
          "name": "endTime",
          "type": "uint40",
          "internalType": "uint40"
        }
      ],
      "stateMutability": "view"
    },
    {
      "type": "function",
      "name": "getRange",
      "inputs": [
        {
          "name": "streamId",
          "type": "uint256",
          "internalType": "uint256"
        }
      ],
      "outputs": [
        {
          "name": "range",
          "type": "tuple",
          "internalType": "struct LockupDynamic.Range",
          "components": [
            {
              "name": "start",
              "type": "uint40",
              "internalType": "uint40"
            },
            {
              "name": "end",
              "type": "uint40",
              "internalType": "uint40"
            }
          ]
        }
      ],
      "stateMutability": "view"
    },
    {
      "type": "function",
      "name": "getRecipient",
      "inputs": [
        {
          "name": "streamId",
          "type": "uint256",
          "internalType": "uint256"
        }
      ],
      "outputs": [
        {
          "name": "recipient",
          "type": "address",
          "internalType": "address"
        }
      ],
      "stateMutability": "view"
    },
    {
      "type": "function",
      "name": "getRefundedAmount",
      "inputs": [
        {
          "name": "streamId",
          "type": "uint256",
          "internalType": "uint256"
        }
      ],
      "outputs": [
        {
          "name": "refundedAmount",
          "type": "uint128",
          "internalType": "uint128"
        }
      ],
      "stateMutability": "view"
    },
    {
      "type": "function",
      "name": "getSegments",
      "inputs": [
        {
          "name": "streamId",
          "type": "uint256",
          "internalType": "uint256"
        }
      ],
      "outputs": [
        {
          "name": "segments",
          "type": "tuple[]",
          "internalType": "struct LockupDynamic.Segment[]",
          "components": [
            {
              "name": "amount",
              "type": "uint128",
              "internalType": "uint128"
            },
            {
              "name": "exponent",
              "type": "uint64",
              "internalType": "UD2x18"
            },
            {
              "name": "milestone",
              "type": "uint40",
              "internalType": "uint40"
            }
          ]
        }
      ],
      "stateMutability": "view"
    },
    {
      "type": "function",
      "name": "getSender",
      "inputs": [
        {
          "name": "streamId",
          "type": "uint256",
          "internalType": "uint256"
        }
      ],
      "outputs": [
        {
          "name": "sender",
          "type": "address",
          "internalType": "address"
        }
      ],
      "stateMutability": "view"
    },
    {
      "type": "function",
      "name": "getStartTime",
      "inputs": [
        {
          "name": "streamId",
          "type": "uint256",
          "internalType": "uint256"
        }
      ],
      "outputs": [
        {
          "name": "startTime",
          "type": "uint40",
          "internalType": "uint40"
        }
      ],
      "stateMutability": "view"
    },
    {
      "type": "function",
      "name": "getStream",
      "inputs": [
        {
          "name": "streamId",
          "type": "uint256",
          "internalType": "uint256"
        }
      ],
      "outputs": [
        {
          "name": "stream",
          "type": "tuple",
          "internalType": "struct LockupDynamic.Stream",
          "components": [
            {
              "name": "sender",
              "type": "address",
              "internalType": "address"
            },
            {
              "name": "startTime",
              "type": "uint40",
              "internalType": "uint40"
            },
            {
              "name": "endTime",
              "type": "uint40",
              "internalType": "uint40"
            },
            {
              "name": "isCancelable",
              "type": "bool",
              "internalType": "bool"
            },
            {
              "name": "wasCanceled",
              "type": "bool",
              "internalType": "bool"
            },
            {
              "name": "asset",
              "type": "address",
              "internalType": "contract IERC20"
            },
            {
              "name": "isDepleted",
              "type": "bool",
              "internalType": "bool"
            },
            {
              "name": "isStream",
              "type": "bool",
              "internalType": "bool"
            },
            {
              "name": "isTransferable",
              "type": "bool",
              "internalType": "bool"
            },
            {
              "name": "amounts",
              "type": "tuple",
              "internalType": "struct Lockup.Amounts",
              "components": [
                {
                  "name": "deposited",
                  "type": "uint128",
                  "internalType": "uint128"
                },
                {
                  "name": "withdrawn",
                  "type": "uint128",
                  "internalType": "uint128"
                },
                {
                  "name": "refunded",
                  "type": "uint128",
                  "internalType": "uint128"
                }
              ]
            },
            {
              "name": "segments",
              "type": "tuple[]",
              "internalType": "struct LockupDynamic.Segment[]",
              "components": [
                {
                  "name": "amount",
                  "type": "uint128",
                  "internalType": "uint128"
                },
                {
                  "name": "exponent",
                  "type": "uint64",
                  "internalType": "UD2x18"
                },
                {
                  "name": "milestone",
                  "type": "uint40",
                  "internalType": "uint40"
                }
              ]
            }
          ]
        }
      ],
      "stateMutability": "view"
    },
    {
      "type": "function",
      "name": "getWithdrawnAmount",
      "inputs": [
        {
          "name": "streamId",
          "type": "uint256",
          "internalType": "uint256"
        }
      ],
      "outputs": [
        {
          "name": "withdrawnAmount",
          "type": "uint128",
          "internalType": "uint128"
        }
      ],
      "stateMutability": "view"
    },
    {
      "type": "function",
      "name": "isApprovedForAll",
      "inputs": [
        {
          "name": "owner",
          "type": "address",
          "internalType": "address"
        },
        {
          "name": "operator",
          "type": "address",
          "internalType": "address"
        }
      ],
      "outputs": [
        {
          "name": "",
          "type": "bool",
          "internalType": "bool"
        }
      ],
      "stateMutability": "view"
    },
    {
      "type": "function",
      "name": "isCancelable",
      "inputs": [
        {
          "name": "streamId",
          "type": "uint256",
          "internalType": "uint256"
        }
      ],
      "outputs": [
        {
          "name": "result",
          "type": "bool",
          "internalType": "bool"
        }
      ],
      "stateMutability": "view"
    },
    {
      "type": "function",
      "name": "isCold",
      "inputs": [
        {
          "name": "streamId",
          "type": "uint256",
          "internalType": "uint256"
        }
      ],
      "outputs": [
        {
          "name": "result",
          "type": "bool",
          "internalType": "bool"
        }
      ],
      "stateMutability": "view"
    },
    {
      "type": "function",
      "name": "isDepleted",
      "inputs": [
        {
          "name": "streamId",
          "type": "uint256",
          "internalType": "uint256"
        }
      ],
      "outputs": [
        {
          "name": "result",
          "type": "bool",
          "internalType": "bool"
        }
      ],
      "stateMutability": "view"
    },
    {
      "type": "function",
      "name": "isStream",
      "inputs": [
        {
          "name": "streamId",
          "type": "uint256",
          "internalType": "uint256"
        }
      ],
      "outputs": [
        {
          "name": "result",
          "type": "bool",
          "internalType": "bool"
        }
      ],
      "stateMutability": "view"
    },
    {
      "type": "function",
      "name": "isTransferable",
      "inputs": [
        {
          "name": "streamId",
          "type": "uint256",
          "internalType": "uint256"
        }
      ],
      "outputs": [
        {
          "name": "result",
          "type": "bool",
          "internalType": "bool"
        }
      ],
      "stateMutability": "view"
    },
    {
      "type": "function",
      "name": "isWarm",
      "inputs": [
        {
          "name": "streamId",
          "type": "uint256",
          "internalType": "uint256"
        }
      ],
      "outputs": [
        {
          "name": "result",
          "type": "bool",
          "internalType": "bool"
        }
      ],
      "stateMutability": "view"
    },
    {
      "type": "function",
      "name": "name",
      "inputs": [],
      "outputs": [
        {
          "name": "",
          "type": "string",
          "internalType": "string"
        }
      ],
      "stateMutability": "view"
    },
    {
      "type": "function",
      "name": "nextStreamId",
      "inputs": [],
      "outputs": [
        {
          "name": "",
          "type": "uint256",
          "internalType": "uint256"
        }
      ],
      "stateMutability": "view"
    },
    {
      "type": "function",
      "name": "ownerOf",
      "inputs": [
        {
          "name": "tokenId",
          "type": "uint256",
          "internalType": "uint256"
        }
      ],
      "outputs": [
        {
          "name": "",
          "type": "address",
          "internalType": "address"
        }
      ],
      "stateMutability": "view"
    },
    {
      "type": "function",
      "name": "protocolRevenues",
      "inputs": [
        {
          "name": "asset",
          "type": "address",
          "internalType": "contract IERC20"
        }
      ],
      "outputs": [
        {
          "name": "revenues",
          "type": "uint128",
          "internalType": "uint128"
        }
      ],
      "stateMutability": "view"
    },
    {
      "type": "function",
      "name": "refundableAmountOf",
      "inputs": [
        {
          "name": "streamId",
          "type": "uint256",
          "internalType": "uint256"
        }
      ],
      "outputs": [
        {
          "name": "refundableAmount",
          "type": "uint128",
          "internalType": "uint128"
        }
      ],
      "stateMutability": "view"
    },
    {
      "type": "function",
      "name": "renounce",
      "inputs": [
        {
          "name": "streamId",
          "type": "uint256",
          "internalType": "uint256"
        }
      ],
      "outputs": [],
      "stateMutability": "nonpayable"
    },
    {
      "type": "function",
      "name": "safeTransferFrom",
      "inputs": [
        {
          "name": "from",
          "type": "address",
          "internalType": "address"
        },
        {
          "name": "to",
          "type": "address",
          "internalType": "address"
        },
        {
          "name": "tokenId",
          "type": "uint256",
          "internalType": "uint256"
        }
      ],
      "outputs": [],
      "stateMutability": "nonpayable"
    },
    {
      "type": "function",
      "name": "safeTransferFrom",
      "inputs": [
        {
          "name": "from",
          "type": "address",
          "internalType": "address"
        },
        {
          "name": "to",
          "type": "address",
          "internalType": "address"
        },
        {
          "name": "tokenId",
          "type": "uint256",
          "internalType": "uint256"
        },
        {
          "name": "data",
          "type": "bytes",
          "internalType": "bytes"
        }
      ],
      "outputs": [],
      "stateMutability": "nonpayable"
    },
    {
      "type": "function",
      "name": "setApprovalForAll",
      "inputs": [
        {
          "name": "operator",
          "type": "address",
          "internalType": "address"
        },
        {
          "name": "approved",
          "type": "bool",
          "internalType": "bool"
        }
      ],
      "outputs": [],
      "stateMutability": "nonpayable"
    },
    {
      "type": "function",
      "name": "setComptroller",
      "inputs": [
        {
          "name": "newComptroller",
          "type": "address",
          "internalType": "contract ISablierV2Comptroller"
        }
      ],
      "outputs": [],
      "stateMutability": "nonpayable"
    },
    {
      "type": "function",
      "name": "setNFTDescriptor",
      "inputs": [
        {
          "name": "newNFTDescriptor",
          "type": "address",
          "internalType": "contract ISablierV2NFTDescriptor"
        }
      ],
      "outputs": [],
      "stateMutability": "nonpayable"
    },
    {
      "type": "function",
      "name": "statusOf",
      "inputs": [
        {
          "name": "streamId",
          "type": "uint256",
          "internalType": "uint256"
        }
      ],
      "outputs": [
        {
          "name": "status",
          "type": "uint8",
          "internalType": "enum Lockup.Status"
        }
      ],
      "stateMutability": "view"
    },
    {
      "type": "function",
      "name": "streamedAmountOf",
      "inputs": [
        {
          "name": "streamId",
          "type": "uint256",
          "internalType": "uint256"
        }
      ],
      "outputs": [
        {
          "name": "streamedAmount",
          "type": "uint128",
          "internalType": "uint128"
        }
      ],
      "stateMutability": "view"
    },
    {
      "type": "function",
      "name": "supportsInterface",
      "inputs": [
        {
          "name": "interfaceId",
          "type": "bytes4",
          "internalType": "bytes4"
        }
      ],
      "outputs": [
        {
          "name": "",
          "type": "bool",
          "internalType": "bool"
        }
      ],
      "stateMutability": "view"
    },
    {
      "type": "function",
      "name": "symbol",
      "inputs": [],
      "outputs": [
        {
          "name": "",
          "type": "string",
          "internalType": "string"
        }
      ],
      "stateMutability": "view"
    },
    {
      "type": "function",
      "name": "tokenURI",
      "inputs": [
        {
          "name": "streamId",
          "type": "uint256",
          "internalType": "uint256"
        }
      ],
      "outputs": [
        {
          "name": "uri",
          "type": "string",
          "internalType": "string"
        }
      ],
      "stateMutability": "view"
    },
    {
      "type": "function",
      "name": "transferAdmin",
      "inputs": [
        {
          "name": "newAdmin",
          "type": "address",
          "internalType": "address"
        }
      ],
      "outputs": [],
      "stateMutability": "nonpayable"
    },
    {
      "type": "function",
      "name": "transferFrom",
      "inputs": [
        {
          "name": "from",
          "type": "address",
          "internalType": "address"
        },
        {
          "name": "to",
          "type": "address",
          "internalType": "address"
        },
        {
          "name": "tokenId",
          "type": "uint256",
          "internalType": "uint256"
        }
      ],
      "outputs": [],
      "stateMutability": "nonpayable"
    },
    {
      "type": "function",
      "name": "wasCanceled",
      "inputs": [
        {
          "name": "streamId",
          "type": "uint256",
          "internalType": "uint256"
        }
      ],
      "outputs": [
        {
          "name": "result",
          "type": "bool",
          "internalType": "bool"
        }
      ],
      "stateMutability": "view"
    },
    {
      "type": "function",
      "name": "withdraw",
      "inputs": [
        {
          "name": "streamId",
          "type": "uint256",
          "internalType": "uint256"
        },
        {
          "name": "to",
          "type": "address",
          "internalType": "address"
        },
        {
          "name": "amount",
          "type": "uint128",
          "internalType": "uint128"
        }
      ],
      "outputs": [],
      "stateMutability": "nonpayable"
    },
    {
      "type": "function",
      "name": "withdrawMax",
      "inputs": [
        {
          "name": "streamId",
          "type": "uint256",
          "internalType": "uint256"
        },
        {
          "name": "to",
          "type": "address",
          "internalType": "address"
        }
      ],
      "outputs": [],
      "stateMutability": "nonpayable"
    },
    {
      "type": "function",
      "name": "withdrawMaxAndTransfer",
      "inputs": [
        {
          "name": "streamId",
          "type": "uint256",
          "internalType": "uint256"
        },
        {
          "name": "newRecipient",
          "type": "address",
          "internalType": "address"
        }
      ],
      "outputs": [],
      "stateMutability": "nonpayable"
    },
    {
      "type": "function",
      "name": "withdrawMultiple",
      "inputs": [
        {
          "name": "streamIds",
          "type": "uint256[]",
          "internalType": "uint256[]"
        },
        {
          "name": "to",
          "type": "address",
          "internalType": "address"
        },
        {
          "name": "amounts",
          "type": "uint128[]",
          "internalType": "uint128[]"
        }
      ],
      "outputs": [],
      "stateMutability": "nonpayable"
    },
    {
      "type": "function",
      "name": "withdrawableAmountOf",
      "inputs": [
        {
          "name": "streamId",
          "type": "uint256",
          "internalType": "uint256"
        }
      ],
      "outputs": [
        {
          "name": "withdrawableAmount",
          "type": "uint128",
          "internalType": "uint128"
        }
      ],
      "stateMutability": "view"
    },
    {
      "type": "event",
      "name": "Approval",
      "inputs": [
        {
          "name": "owner",
          "type": "address",
          "indexed": true,
          "internalType": "address"
        },
        {
          "name": "approved",
          "type": "address",
          "indexed": true,
          "internalType": "address"
        },
        {
          "name": "tokenId",
          "type": "uint256",
          "indexed": true,
          "internalType": "uint256"
        }
      ],
      "anonymous": false
    },
    {
      "type": "event",
      "name": "ApprovalForAll",
      "inputs": [
        {
          "name": "owner",
          "type": "address",
          "indexed": true,
          "internalType": "address"
        },
        {
          "name": "operator",
          "type": "address",
          "indexed": true,
          "internalType": "address"
        },
        {
          "name": "approved",
          "type": "bool",
          "indexed": false,
          "internalType": "bool"
        }
      ],
      "anonymous": false
    },
    {
      "type": "event",
      "name": "BatchMetadataUpdate",
      "inputs": [
        {
          "name": "_fromTokenId",
          "type": "uint256",
          "indexed": false,
          "internalType": "uint256"
        },
        {
          "name": "_toTokenId",
          "type": "uint256",
          "indexed": false,
          "internalType": "uint256"
        }
      ],
      "anonymous": false
    },
    {
      "type": "event",
      "name": "CancelLockupStream",
      "inputs": [
        {
          "name": "streamId",
          "type": "uint256",
          "indexed": false,
          "internalType": "uint256"
        },
        {
          "name": "sender",
          "type": "address",
          "indexed": true,
          "internalType": "address"
        },
        {
          "name": "recipient",
          "type": "address",
          "indexed": true,
          "internalType": "address"
        },
        {
          "name": "asset",
          "type": "address",
          "indexed": true,
          "internalType": "contract IERC20"
        },
        {
          "name": "senderAmount",
          "type": "uint128",
          "indexed": false,
          "internalType": "uint128"
        },
        {
          "name": "recipientAmount",
          "type": "uint128",
          "indexed": false,
          "internalType": "uint128"
        }
      ],
      "anonymous": false
    },
    {
      "type": "event",
      "name": "ClaimProtocolRevenues",
      "inputs": [
        {
          "name": "admin",
          "type": "address",
          "indexed": true,
          "internalType": "address"
        },
        {
          "name": "asset",
          "type": "address",
          "indexed": true,
          "internalType": "contract IERC20"
        },
        {
          "name": "protocolRevenues",
          "type": "uint128",
          "indexed": false,
          "internalType": "uint128"
        }
      ],
      "anonymous": false
    },
    {
      "type": "event",
      "name": "CreateLockupDynamicStream",
      "inputs": [
        {
          "name": "streamId",
          "type": "uint256",
          "indexed": false,
          "internalType": "uint256"
        },
        {
          "name": "funder",
          "type": "address",
          "indexed": false,
          "internalType": "address"
        },
        {
          "name": "sender",
          "type": "address",
          "indexed": true,
          "internalType": "address"
        },
        {
          "name": "recipient",
          "type": "address",
          "indexed": true,
          "internalType": "address"
        },
        {
          "name": "amounts",
          "type": "tuple",
          "indexed": false,
          "internalType": "struct Lockup.CreateAmounts",
          "components": [
            {
              "name": "deposit",
              "type": "uint128",
              "internalType": "uint128"
            },
            {
              "name": "protocolFee",
              "type": "uint128",
              "internalType": "uint128"
            },
            {
              "name": "brokerFee",
              "type": "uint128",
              "internalType": "uint128"
            }
          ]
        },
        {
          "name": "asset",
          "type": "address",
          "indexed": true,
          "internalType": "contract IERC20"
        },
        {
          "name": "cancelable",
          "type": "bool",
          "indexed": false,
          "internalType": "bool"
        },
        {
          "name": "transferable",
          "type": "bool",
          "indexed": false,
          "internalType": "bool"
        },
        {
          "name": "segments",
          "type": "tuple[]",
          "indexed": false,
          "internalType": "struct LockupDynamic.Segment[]",
          "components": [
            {
              "name": "amount",
              "type": "uint128",
              "internalType": "uint128"
            },
            {
              "name": "exponent",
              "type": "uint64",
              "internalType": "UD2x18"
            },
            {
              "name": "milestone",
              "type": "uint40",
              "internalType": "uint40"
            }
          ]
        },
        {
          "name": "range",
          "type": "tuple",
          "indexed": false,
          "internalType": "struct LockupDynamic.Range",
          "components": [
            {
              "name": "start",
              "type": "uint40",
              "internalType": "uint40"
            },
            {
              "name": "end",
              "type": "uint40",
              "internalType": "uint40"
            }
          ]
        },
        {
          "name": "broker",
          "type": "address",
          "indexed": false,
          "internalType": "address"
        }
      ],
      "anonymous": false
    },
    {
      "type": "event",
      "name": "MetadataUpdate",
      "inputs": [
        {
          "name": "_tokenId",
          "type": "uint256",
          "indexed": false,
          "internalType": "uint256"
        }
      ],
      "anonymous": false
    },
    {
      "type": "event",
      "name": "RenounceLockupStream",
      "inputs": [
        {
          "name": "streamId",
          "type": "uint256",
          "indexed": true,
          "internalType": "uint256"
        }
      ],
      "anonymous": false
    },
    {
      "type": "event",
      "name": "SetComptroller",
      "inputs": [
        {
          "name": "admin",
          "type": "address",
          "indexed": true,
          "internalType": "address"
        },
        {
          "name": "oldComptroller",
          "type": "address",
          "indexed": false,
          "internalType": "contract ISablierV2Comptroller"
        },
        {
          "name": "newComptroller",
          "type": "address",
          "indexed": false,
          "internalType": "contract ISablierV2Comptroller"
        }
      ],
      "anonymous": false
    },
    {
      "type": "event",
      "name": "SetNFTDescriptor",
      "inputs": [
        {
          "name": "admin",
          "type": "address",
          "indexed": true,
          "internalType": "address"
        },
        {
          "name": "oldNFTDescriptor",
          "type": "address",
          "indexed": false,
          "internalType": "contract ISablierV2NFTDescriptor"
        },
        {
          "name": "newNFTDescriptor",
          "type": "address",
          "indexed": false,
          "internalType": "contract ISablierV2NFTDescriptor"
        }
      ],
      "anonymous": false
    },
    {
      "type": "event",
      "name": "Transfer",
      "inputs": [
        {
          "name": "from",
          "type": "address",
          "indexed": true,
          "internalType": "address"
        },
        {
          "name": "to",
          "type": "address",
          "indexed": true,
          "internalType": "address"
        },
        {
          "name": "tokenId",
          "type": "uint256",
          "indexed": true,
          "internalType": "uint256"
        }
      ],
      "anonymous": false
    },
    {
      "type": "event",
      "name": "TransferAdmin",
      "inputs": [
        {
          "name": "oldAdmin",
          "type": "address",
          "indexed": true,
          "internalType": "address"
        },
        {
          "name": "newAdmin",
          "type": "address",
          "indexed": true,
          "internalType": "address"
        }
      ],
      "anonymous": false
    },
    {
      "type": "event",
      "name": "WithdrawFromLockupStream",
      "inputs": [
        {
          "name": "streamId",
          "type": "uint256",
          "indexed": true,
          "internalType": "uint256"
        },
        {
          "name": "to",
          "type": "address",
          "indexed": true,
          "internalType": "address"
        },
        {
          "name": "asset",
          "type": "address",
          "indexed": true,
          "internalType": "contract IERC20"
        },
        {
          "name": "amount",
          "type": "uint128",
          "indexed": false,
          "internalType": "uint128"
        }
      ],
      "anonymous": false
    },
    {
      "type": "error",
      "name": "CallerNotAdmin",
      "inputs": [
        {
          "name": "admin",
          "type": "address",
          "internalType": "address"
        },
        {
          "name": "caller",
          "type": "address",
          "internalType": "address"
        }
      ]
    },
    {
      "type": "error",
      "name": "DelegateCall",
      "inputs": []
    },
    {
      "type": "error",
      "name": "PRBMath_MulDiv18_Overflow",
      "inputs": [
        {
          "name": "x",
          "type": "uint256",
          "internalType": "uint256"
        },
        {
          "name": "y",
          "type": "uint256",
          "internalType": "uint256"
        }
      ]
    },
    {
      "type": "error",
      "name": "PRBMath_MulDiv_Overflow",
      "inputs": [
        {
          "name": "x",
          "type": "uint256",
          "internalType": "uint256"
        },
        {
          "name": "y",
          "type": "uint256",
          "internalType": "uint256"
        },
        {
          "name": "denominator",
          "type": "uint256",
          "internalType": "uint256"
        }
      ]
    },
    {
      "type": "error",
      "name": "PRBMath_SD59x18_Div_InputTooSmall",
      "inputs": []
    },
    {
      "type": "error",
      "name": "PRBMath_SD59x18_Div_Overflow",
      "inputs": [
        {
          "name": "x",
          "type": "int256",
          "internalType": "SD59x18"
        },
        {
          "name": "y",
          "type": "int256",
          "internalType": "SD59x18"
        }
      ]
    },
    {
      "type": "error",
      "name": "PRBMath_SD59x18_Exp2_InputTooBig",
      "inputs": [
        {
          "name": "x",
          "type": "int256",
          "internalType": "SD59x18"
        }
      ]
    },
    {
      "type": "error",
      "name": "PRBMath_SD59x18_IntoUint256_Underflow",
      "inputs": [
        {
          "name": "x",
          "type": "int256",
          "internalType": "SD59x18"
        }
      ]
    },
    {
      "type": "error",
      "name": "PRBMath_SD59x18_Log_InputTooSmall",
      "inputs": [
        {
          "name": "x",
          "type": "int256",
          "internalType": "SD59x18"
        }
      ]
    },
    {
      "type": "error",
      "name": "PRBMath_SD59x18_Mul_InputTooSmall",
      "inputs": []
    },
    {
      "type": "error",
      "name": "PRBMath_SD59x18_Mul_Overflow",
      "inputs": [
        {
          "name": "x",
          "type": "int256",
          "internalType": "SD59x18"
        },
        {
          "name": "y",
          "type": "int256",
          "internalType": "SD59x18"
        }
      ]
    },
    {
      "type": "error",
      "name": "SablierV2Base_NoProtocolRevenues",
      "inputs": [
        {
          "name": "asset",
          "type": "address",
          "internalType": "contract IERC20"
        }
      ]
    },
    {
      "type": "error",
      "name": "SablierV2LockupDynamic_DepositAmountNotEqualToSegmentAmountsSum",
      "inputs": [
        {
          "name": "depositAmount",
          "type": "uint128",
          "internalType": "uint128"
        },
        {
          "name": "segmentAmountsSum",
          "type": "uint128",
          "internalType": "uint128"
        }
      ]
    },
    {
      "type": "error",
      "name": "SablierV2LockupDynamic_SegmentCountTooHigh",
      "inputs": [
        {
          "name": "count",
          "type": "uint256",
          "internalType": "uint256"
        }
      ]
    },
    {
      "type": "error",
      "name": "SablierV2LockupDynamic_SegmentCountZero",
      "inputs": []
    },
    {
      "type": "error",
      "name": "SablierV2LockupDynamic_SegmentMilestonesNotOrdered",
      "inputs": [
        {
          "name": "index",
          "type": "uint256",
          "internalType": "uint256"
        },
        {
          "name": "previousMilestone",
          "type": "uint40",
          "internalType": "uint40"
        },
        {
          "name": "currentMilestone",
          "type": "uint40",
          "internalType": "uint40"
        }
      ]
    },
    {
      "type": "error",
      "name": "SablierV2LockupDynamic_StartTimeNotLessThanFirstSegmentMilestone",
      "inputs": [
        {
          "name": "startTime",
          "type": "uint40",
          "internalType": "uint40"
        },
        {
          "name": "firstSegmentMilestone",
          "type": "uint40",
          "internalType": "uint40"
        }
      ]
    },
    {
      "type": "error",
      "name": "SablierV2Lockup_BrokerFeeTooHigh",
      "inputs": [
        {
          "name": "brokerFee",
          "type": "uint256",
          "internalType": "UD60x18"
        },
        {
          "name": "maxFee",
          "type": "uint256",
          "internalType": "UD60x18"
        }
      ]
    },
    {
      "type": "error",
      "name": "SablierV2Lockup_DepositAmountZero",
      "inputs": []
    },
    {
      "type": "error",
      "name": "SablierV2Lockup_EndTimeNotInTheFuture",
      "inputs": [
        {
          "name": "currentTime",
          "type": "uint40",
          "internalType": "uint40"
        },
        {
          "name": "endTime",
          "type": "uint40",
          "internalType": "uint40"
        }
      ]
    },
    {
      "type": "error",
      "name": "SablierV2Lockup_InvalidSenderWithdrawal",
      "inputs": [
        {
          "name": "streamId",
          "type": "uint256",
          "internalType": "uint256"
        },
        {
          "name": "sender",
          "type": "address",
          "internalType": "address"
        },
        {
          "name": "to",
          "type": "address",
          "internalType": "address"
        }
      ]
    },
    {
      "type": "error",
      "name": "SablierV2Lockup_NotTransferable",
      "inputs": [
        {
          "name": "tokenId",
          "type": "uint256",
          "internalType": "uint256"
        }
      ]
    },
    {
      "type": "error",
      "name": "SablierV2Lockup_Null",
      "inputs": [
        {
          "name": "streamId",
          "type": "uint256",
          "internalType": "uint256"
        }
      ]
    },
    {
      "type": "error",
      "name": "SablierV2Lockup_Overdraw",
      "inputs": [
        {
          "name": "streamId",
          "type": "uint256",
          "internalType": "uint256"
        },
        {
          "name": "amount",
          "type": "uint128",
          "internalType": "uint128"
        },
        {
          "name": "withdrawableAmount",
          "type": "uint128",
          "internalType": "uint128"
        }
      ]
    },
    {
      "type": "error",
      "name": "SablierV2Lockup_ProtocolFeeTooHigh",
      "inputs": [
        {
          "name": "protocolFee",
          "type": "uint256",
          "internalType": "UD60x18"
        },
        {
          "name": "maxFee",
          "type": "uint256",
          "internalType": "UD60x18"
        }
      ]
    },
    {
      "type": "error",
      "name": "SablierV2Lockup_StreamCanceled",
      "inputs": [
        {
          "name": "streamId",
          "type": "uint256",
          "internalType": "uint256"
        }
      ]
    },
    {
      "type": "error",
      "name": "SablierV2Lockup_StreamDepleted",
      "inputs": [
        {
          "name": "streamId",
          "type": "uint256",
          "internalType": "uint256"
        }
      ]
    },
    {
      "type": "error",
      "name": "SablierV2Lockup_StreamNotCancelable",
      "inputs": [
        {
          "name": "streamId",
          "type": "uint256",
          "internalType": "uint256"
        }
      ]
    },
    {
      "type": "error",
      "name": "SablierV2Lockup_StreamNotDepleted",
      "inputs": [
        {
          "name": "streamId",
          "type": "uint256",
          "internalType": "uint256"
        }
      ]
    },
    {
      "type": "error",
      "name": "SablierV2Lockup_StreamSettled",
      "inputs": [
        {
          "name": "streamId",
          "type": "uint256",
          "internalType": "uint256"
        }
      ]
    },
    {
      "type": "error",
      "name": "SablierV2Lockup_Unauthorized",
      "inputs": [
        {
          "name": "streamId",
          "type": "uint256",
          "internalType": "uint256"
        },
        {
          "name": "caller",
          "type": "address",
          "internalType": "address"
        }
      ]
    },
    {
      "type": "error",
      "name": "SablierV2Lockup_WithdrawAmountZero",
      "inputs": [
        {
          "name": "streamId",
          "type": "uint256",
          "internalType": "uint256"
        }
      ]
    },
    {
      "type": "error",
      "name": "SablierV2Lockup_WithdrawArrayCountsNotEqual",
      "inputs": [
        {
          "name": "streamIdsCount",
          "type": "uint256",
          "internalType": "uint256"
        },
        {
          "name": "amountsCount",
          "type": "uint256",
          "internalType": "uint256"
        }
      ]
    },
    {
      "type": "error",
      "name": "SablierV2Lockup_WithdrawToZeroAddress",
      "inputs": []
    }
  ],
  "bytecode": {
    "object": "0x60c0346200046e57601f62005be438819003918201601f19168301916001600160401b038311848410176200032b578084926080946040528339810103126200046e5780516001600160a01b038082169290918390036200046e5760208101518281168091036200046e5760408201519183831683036200046e5760600151936200008962000473565b90601d82527f5361626c696572205632204c6f636b75702044796e616d6963204e46540000006020830152620000be62000473565b601181527029a0a116ab1916a627a1a5aaa816a22ca760791b602082015230608052600080546001600160a01b03199081168417825560018054909116909517909455927fbdd36143ee09de60bdefca70680e0f71189b2ed7acee364b53917ad433fdaf808180a38051906001600160401b0382116200032b5760035490600182811c9216801562000463575b60208310146200044d5781601f849311620003d8575b50602090601f83116001146200034d5760009262000341575b50508160011b916000199060031b1c1916176003555b80516001600160401b0381116200032b576004918254600181811c9116801562000320575b60208210146200030b579081601f849311620002b3575b50602090601f831160011462000248576000926200023c575b50508160011b916000199060031b1c19161790555b1660018060a01b0319600a541617600a5560a05260016009556040516157509081620004948239608051816132f7015260a051818181610f7a01526134180152f35b015190503880620001e5565b6000858152602081209350601f198516905b8181106200029a575090846001959493921062000280575b505050811b019055620001fa565b015160001960f88460031b161c1916905538808062000272565b929360206001819287860151815501950193016200025a565b909150836000526020600020601f840160051c8101916020851062000300575b90601f859493920160051c01905b818110620002f05750620001cc565b60008155849350600101620002e1565b9091508190620002d3565b602284634e487b7160e01b6000525260246000fd5b90607f1690620001b5565b634e487b7160e01b600052604160045260246000fd5b0151905038806200017a565b600360009081527fc2575a0e9e593c00f959f8c92f12db2869c3395a3b0502d05e2516446f71f85b9350601f198516905b818110620003bf5750908460019594939210620003a5575b505050811b0160035562000190565b015160001960f88460031b161c1916905538808062000396565b929360206001819287860151815501950193016200037e565b60036000529091507fc2575a0e9e593c00f959f8c92f12db2869c3395a3b0502d05e2516446f71f85b601f840160051c8101916020851062000442575b90601f859493920160051c01905b81811062000432575062000161565b6000815584935060010162000423565b909150819062000415565b634e487b7160e01b600052602260045260246000fd5b91607f16916200014b565b600080fd5b60408051919082016001600160401b038111838210176200032b5760405256fe608080604052600436101561001357600080fd5b60003560e01c90816301ffc9a7146126f55750806306fdde0314612630578063081812fc14612612578063095ea7b31461247e5780631400ecec146123d957806316844456146121155780631c1cdd4c146120af5780631e99d5691461209157806323b872dd1461206857806339a73c031461202557806340e58ee514611dd1578063425d30dd14611db357806342842e0e14611d6357806342966c6814611bd35780634857501f14611b5d5780634869e12d14611b215780635fe3b56714611afa5780636352211e14611acb5780636d0cee7514611a7357806370a08231146119c957806375829def146119375780637cad6cd1146118655780637de6b1db146116555780638659c2701461135c578063894e9a0d146110ef5780638bad38dd146110735780638f69b99314610ff05780639067b67714610f9d5780639188ec8414610f6257806395d89b4114610e52578063a22cb46514610d81578063a2ffb89714610c9f578063a6202bf214610b96578063a80fc07114610b41578063ad35efd414610ade578063b256456914610ac0578063b637b86514610a60578063b88d4fde146109d7578063b8a3be66146109a0578063b971302a1461094e578063bc063e1a1461092b578063bc2be1be146108d8578063c156a11d14610820578063c33cd35e146106c1578063c87b56dd1461058e578063cc364f48146104f4578063d4dbd20b1461049f578063d511609f14610450578063d975dfed14610403578063e985e9c5146103ac578063ea5ead191461037e578063eac8f5b814610312578063f590c176146102ea578063f851a440146102c35763fdd46d601461027c57600080fd5b346102be5760603660031901126102be57610295612822565b6044356001600160801b03811681036102be576102bc916102b46132ed565b6004356131da565b005b600080fd5b346102be5760003660031901126102be5760206001600160a01b0360005416604051908152f35b346102be5760203660031901126102be576020610308600435612e21565b6040519015158152f35b346102be5760203660031901126102be5760043580600052600b60205260ff60016040600020015460a81c161561036757600052600b60205260206001600160a01b0360016040600020015416604051908152f35b6024906040519062b8e7e760e51b82526004820152fd5b346102be5760403660031901126102be576102bc60043561039d612822565b6103a6826140c2565b91612e52565b346102be5760403660031901126102be576103c561280c565b6103cd612822565b906001600160a01b03809116600052600860205260406000209116600052602052602060ff604060002054166040519015158152f35b346102be5760203660031901126102be5760043580600052600b60205260ff60016040600020015460a81c16156103675761043f6020916140c2565b6001600160801b0360405191168152f35b346102be5760203660031901126102be5760043580600052600b60205260ff60016040600020015460a81c161561036757600052600b602052602060026040600020015460801c604051908152f35b346102be5760203660031901126102be5760043580600052600b60205260ff60016040600020015460a81c161561036757600052600b60205260206001600160801b0360036040600020015416604051908152f35b346102be5760203660031901126102be57600435600060206040516105188161295c565b828152015280600052600b60205260ff60016040600020015460a81c161561036757600052600b6020526040806000205464ffffffffff82519161055b8361295c565b818160a01c16835260c81c16602082015261058c825180926020908164ffffffffff91828151168552015116910152565bf35b346102be576020806003193601126102be57600435906105cc6105c78360005260056020526001600160a01b0360406000205416151590565b612bdb565b60006001600160a01b03600a5416926044604051809581937fe9dc637500000000000000000000000000000000000000000000000000000000835230600484015260248301525afa9182156106b55760009261063c575b506106386040519282849384528301906127e7565b0390f35b9091503d806000833e61064f81836129a9565b81019082818303126102be5780519067ffffffffffffffff82116102be570181601f820112156102be578051610684816129cb565b9261069260405194856129a9565b8184528482840101116102be576106ae918480850191016127c4565b9082610623565b6040513d6000823e3d90fd5b346102be57600319602036820181136102be5760043567ffffffffffffffff928382116102be576101409082360301126102be576106fd6132ed565b6040519261070a8461293f565b61071682600401612838565b845261072460248301612a69565b602085015261073560448301612916565b604085015261074660648301612916565b91606092606086015261075b60848201612838565b608086015261076c60a482016129e7565b60a086015261077d60c48201612838565b60c086015261078f3660e48301612b04565b60e08601526101248101359182116102be5701366023820112156102be576004810135926107bc84612a51565b936107ca60405195866129a9565b80855260246060602087019202840101923684116102be57602401905b838210610808576020610800888861010082015261336a565b604051908152f35b8285916108153685612a7b565b8152019101906107e7565b346102be5760403660031901126102be5760043561083c612822565b906108456132ed565b80600052600b60205260ff60016040600020015460a81c1615610367578060005260056020526001600160a01b0360406000205416918233036108b5576102bc9261088f836140c2565b6001600160801b0381166108a4575b50613ddb565b6108af908285612e52565b8461089e565b60405163216caf0d60e01b815260048101839052336024820152604490fd5b0390fd5b346102be5760203660031901126102be5760043580600052600b60205260ff60016040600020015460a81c161561036757600052600b602052602064ffffffffff60406000205460a01c16604051908152f35b346102be5760003660031901126102be57602060405167016345785d8a00008152f35b346102be5760203660031901126102be5760043580600052600b60205260ff60016040600020015460a81c161561036757600052600b60205260206001600160a01b0360406000205416604051908152f35b346102be5760203660031901126102be57600435600052600b602052602060ff60016040600020015460a81c166040519015158152f35b346102be5760803660031901126102be576109f061280c565b6109f8612822565b6064359167ffffffffffffffff83116102be57366023840112156102be57826004013591610a25836129cb565b92610a3360405194856129a9565b80845236602482870101116102be5760208160009260246102bc9801838801378501015260443591612d8b565b346102be5760203660031901126102be5760043580600052600b60205260ff60016040600020015460a81c161561036757600052600b602052610638610aac6004604060002001612cc4565b6040519182916020835260208301906128b2565b346102be5760203660031901126102be576020610308600435612d54565b346102be5760203660031901126102be5760043580600052600b60205260ff60016040600020015460a81c161561036757610b1890613c75565b6040516005821015610b2b576020918152f35b634e487b7160e01b600052602160045260246000fd5b346102be5760203660031901126102be5760043580600052600b60205260ff60016040600020015460a81c161561036757600052600b60205260206001600160801b0360026040600020015416604051908152f35b346102be5760203660031901126102be57610baf61280c565b6001600160a01b038060005416338103610c7657508116908160005260026020526001600160801b0360406000205416908115610c455781610c179184600052600260205260406000206fffffffffffffffffffffffffffffffff198154169055339061405a565b6040519081527fca7a4a65a94ed2f37538814e00e1cd4c41a78261561e3f3794592f11409cf5af60203392a3005b602483604051907f8410168c0000000000000000000000000000000000000000000000000000000082526004820152fd5b6040516331b339a960e21b81526001600160a01b03919091166004820152336024820152604490fd5b346102be5760603660031901126102be5767ffffffffffffffff6004358181116102be57610cd1903690600401612881565b9190610cdb612822565b916044359081116102be57610cf4903690600401612881565b92610cfd6132ed565b838503610d4a5760005b858110610d1057005b80610d44610d216001938988612c4b565b3584610d36610d31858b8a612c4b565b612af0565b91610d3f6132ed565b6131da565b01610d07565b60448585604051917faec9344000000000000000000000000000000000000000000000000000000000835260048301526024820152fd5b346102be5760403660031901126102be57610d9a61280c565b602435908115158092036102be576001600160a01b031690813314610e0e57336000526008602052604060002082600052602052604060002060ff1981541660ff83161790556040519081527f17307eab39ab6107e8899845ad3d59bd9653f200f220920489ca2b5937696c3160203392a3005b606460405162461bcd60e51b815260206004820152601960248201527f4552433732313a20617070726f766520746f2063616c6c6572000000000000006044820152fd5b346102be5760003660031901126102be5760405160006004549060018260011c9160018416918215610f58575b6020948585108414610f42578587948686529182600014610f22575050600114610ec5575b50610eb1925003836129a9565b6106386040519282849384528301906127e7565b84915060046000527f8a35acfbc15ff81a39ae7d344fd709f28e8600b4aa8c65c6b64bfe7fe36bd19b906000915b858310610f0a575050610eb1935082010185610ea4565b80548389018501528794508693909201918101610ef3565b60ff191685820152610eb195151560051b8501019250879150610ea49050565b634e487b7160e01b600052602260045260246000fd5b92607f1692610e7f565b346102be5760003660031901126102be5760206040517f00000000000000000000000000000000000000000000000000000000000000008152f35b346102be5760203660031901126102be5760043580600052600b60205260ff60016040600020015460a81c161561036757600052600b602052602064ffffffffff60406000205460c81c16604051908152f35b346102be5760203660031901126102be5760043580600052600b60205260ff60016040600020015460a81c16156103675761102a90613c75565b600581101580610b2b5760028214908115611066575b8115611054575b6020826040519015158152f35b9050610b2b5760046020911482611047565b5050600381146000611040565b346102be5760203660031901126102be576004356001600160a01b03908181168091036102be578160005416338103610c76575060015491816001600160a01b03198416176001556040519216825260208201527fdcb09aef4bf01068924ccce937981cbe59d25ba08380cf941aaaea4e4bd3960d60403392a2005b346102be5760203660031901126102be5760606101406040516111118161298c565b60008152600060208201526000604082015260008382015260006080820152600060a0820152600060c0820152600060e08201526000610100820152611155612c71565b6101208201520152600435600052600b60205260ff60016040600020015460a81c161561134457600435600052600b602052604060002061123860046040519261119e8461298c565b80546001600160a01b038116855264ffffffffff8160a01c16602086015264ffffffffff8160c81c16604086015260ff8160f01c161515606086015260f81c1515608085015260ff60018201546001600160a01b03811660a0870152818160a01c16151560c0870152818160a81c16151560e087015260b01c16151561010085015261122c60028201612c90565b61012085015201612cc4565b610140820152611249600435613c75565b906005821015610b2b5760026101409214611338575b610638604051928392602084526001600160a01b03815116602085015264ffffffffff602082015116604085015264ffffffffff60408201511660608501526060810151151560808501526080810151151560a08501526001600160a01b0360a08201511660c085015260c0810151151560e085015260e08101511515610100850152610100810151151561012085015261132461012082015183860190604090816001600160801b0391828151168552826020820151166020860152015116910152565b01516101a0808401526101c08301906128b2565b6000606082015261125f565b602460405162b8e7e760e51b81526004356004820152fd5b346102be576020806003193601126102be5760043567ffffffffffffffff81116102be5761138e903690600401612881565b906113976132ed565b6000915b8083106113a457005b6113af838284612c4b565b35926113b96132ed565b6113c284612ba4565b156113df5760248460405190634a5541ef60e01b82526004820152fd5b6113eb84929394612e21565b61163d5761140f82600052600b6020526001600160a01b0360406000205416331490565b156108b55761141d82613282565b82600052600b8087526114366002604060002001612c90565b906001600160801b0392838351168482161015611625578560005281895260ff60406000205460f01c161561160d57906114a482858b61149a7f5edb27d6c1a327513b90a792050debf074b7194444885e3144d4decc5caaaa509683895116612a38565b9601511690612a38565b9580600052818a526040600020938a855498600160f81b7dffffffffffffffffffffffffffffffffffffffffffffffffffffffffffff8b1617875560038882169788156115f3575b0197831697886fffffffffffffffffffffffffffffffff198254161790556001600160a01b03809a16958691600584528b604060002054169687945260019b8c6040600020015416946115408b858861405a565b604080518881526001600160801b0392831660208201529290911690820152606090a47ff8e1a15aba9398e019f0b49df1a4fde98ee17ae345cb5f6b5e2c27f5033e8ce78a604051838152a1813b6115a0575b505050505001919061139b565b813b156102be576000608492819560405197889687956372eba20360e01b875260048701526024860152604485015260648401525af16115e4575b80808080611593565b6115ed90612978565b856115db565b60018101600160a01b60ff60a01b198254161790556114ec565b602486604051906339c6dc7360e21b82526004820152fd5b602486604051906322cad1af60e11b82526004820152fd5b6024826040519063fe19f19f60e01b82526004820152fd5b346102be576020806003193601126102be57600435906116736132ed565b81600052600b815260ff60016040600020015460a81c161561184e5761169882613c75565b6005811015610b2b57600481036116c15760248360405190634a5541ef60e01b82526004820152fd5b600381036116e1576024836040519063fe19f19f60e01b82526004820152fd5b6002146118365761170882600052600b6020526001600160a01b0360406000205416331490565b156108b55781600052600b815260ff60406000205460f01c161561181e5781600052600b8152604060002060ff60f01b19815416905560405191807f0eb069207093cd3e51cd1370d2d369770057fbe29947e577e5fb428c6c6fc78f600080a2600582526001600160a01b036040600020541692833b6117af575b7ff8e1a15aba9398e019f0b49df1a4fde98ee17ae345cb5f6b5e2c27f5033e8ce78383604051908152a1005b833b156102be57600081602481837ff8e1a15aba9398e019f0b49df1a4fde98ee17ae345cb5f6b5e2c27f5033e8ce7987f341a0bd90000000000000000000000000000000000000000000000000000000083528760048401525af1156117835761181890612978565b83611783565b602482604051906339c6dc7360e21b82526004820152fd5b602482604051906322cad1af60e11b82526004820152fd5b6024826040519062b8e7e760e51b82526004820152fd5b346102be5760203660031901126102be576004356001600160a01b03908181168091036102be578160005416338103610c765750600a5491816001600160a01b0319841617600a556040519216825260208201527fa2548bd4b805e907c1558a47b5858324fe8bb4a2e1ddfca647eecbf65610eebc60403392a260095460001981019081116119215760407f6bd5c950a8d8df17f772f5af37cb3655737899cbf903264b9795592da439661c91815190600182526020820152a1005b634e487b7160e01b600052601160045260246000fd5b346102be5760203660031901126102be5761195061280c565b6000546001600160a01b03808216923384036119a2576001600160a01b03199350169182911617600055337fbdd36143ee09de60bdefca70680e0f71189b2ed7acee364b53917ad433fdaf80600080a3005b6040516331b339a960e21b81526001600160a01b0385166004820152336024820152604490fd5b346102be5760203660031901126102be576001600160a01b036119ea61280c565b168015611a095760005260066020526020604060002054604051908152f35b608460405162461bcd60e51b815260206004820152602960248201527f4552433732313a2061646472657373207a65726f206973206e6f74206120766160448201527f6c6964206f776e657200000000000000000000000000000000000000000000006064820152fd5b346102be5760203660031901126102be57600435611aaa6105c78260005260056020526001600160a01b0360406000205416151590565b600052600560205260206001600160a01b0360406000205416604051908152f35b346102be5760203660031901126102be576020611ae9600435612c26565b6001600160a01b0360405191168152f35b346102be5760003660031901126102be5760206001600160a01b0360015416604051908152f35b346102be5760203660031901126102be5760043580600052600b60205260ff60016040600020015460a81c16156103675761043f602091613fdf565b346102be5760203660031901126102be5760043580600052600b60205260ff60016040600020015460a81c1615610367576000611b9982613c75565b6005811015610b2b57600203611bb7575b6020906040519015158152f35b50600052600b602052602060ff60406000205460f01c16611baa565b346102be5760203660031901126102be57600435611bef6132ed565b611bf881612ba4565b15611d3257611c0681613f76565b15611d1257611c1481612c26565b611c1d82612d54565b159081611d09575b81611cf6575b50611cde57602081611c5d7ff8e1a15aba9398e019f0b49df1a4fde98ee17ae345cb5f6b5e2c27f5033e8ce793612c26565b9080600052600783526001600160a01b036040600020926001600160a01b031993848154169055169182600052600684526040600020600019815401905581600052600584526040600020908154169055806000604051937fddf252ad1be2c89b69c2b068fc378daa952ba7f163c4a11628f55a4df523b3ef8280a48152a1005b60249060405190630da9b01360e01b82526004820152fd5b6001600160a01b03915016151582611c2b565b60009150611c25565b60405163216caf0d60e01b81526004810191909152336024820152604490fd5b602490604051907f817cd6390000000000000000000000000000000000000000000000000000000082526004820152fd5b346102be57611d713661284c565b60405191602083019383851067ffffffffffffffff861117611d9d576102bc9460405260008452612d8b565b634e487b7160e01b600052604160045260246000fd5b346102be5760203660031901126102be576020610308600435612ba4565b346102be576020806003193601126102be5760043590611def6132ed565b611df882612ba4565b15611e155760248260405190634a5541ef60e01b82526004820152fd5b611e1e82612e21565b61163d57611e4282600052600b6020526001600160a01b0360406000205416331490565b156108b557611e5082613282565b9180600052600b8252611e696002604060002001612c90565b906001600160801b03938483511685821610156118365781600052600b845260ff60406000205460f01c161561181e57808585611eac611eb69483885116612a38565b9501511690612a38565b9080600052600b84527ff8e1a15aba9398e019f0b49df1a4fde98ee17ae345cb5f6b5e2c27f5033e8ce7604060002094855494600160f81b7dffffffffffffffffffffffffffffffffffffffffffffffffffffffffffff8716178755600388861697881561200b575b0197811697886fffffffffffffffffffffffffffffffff198254161790556001600160a01b038096169560058352867f5edb27d6c1a327513b90a792050debf074b7194444885e3144d4decc5caaaa508260406000205416978893600b87526001604060002001541694611f948d858861405a565b604080518a81526001600160801b0392831660208201529290911690820152606090a4604051838152a1813b611fc657005b813b156102be576000608492819560405197889687956372eba20360e01b875260048701526024860152604485015260648401525af161200257005b6102bc90612978565b60018101600160a01b60ff60a01b19825416179055611f1f565b346102be5760203660031901126102be576001600160a01b0361204661280c565b16600052600260205260206001600160801b0360406000205416604051908152f35b346102be576102bc6120793661284c565b9161208c6120878433613cfc565b612b33565b613ddb565b346102be5760003660031901126102be576020600954604051908152f35b346102be5760203660031901126102be5760043580600052600b60205260ff60016040600020015460a81c1615610367576120e990613c75565b6005811015610b2b57806020911590811561210a575b506040519015158152f35b6001915014826120ff565b346102be57602060031981813601126102be576004359067ffffffffffffffff908183116102be57610120833603918201126102be576121536132ed565b61010483013590602219018112156102be578201916004830135928284116102be57602481016060916060860280360383136102be5760249061219588612a51565b976121a3604051998a6129a9565b8852888801920101913683116102be57905b878383106123c2578787878251906121cc82612a51565b916121da60405193846129a9565b808352601f196121e982612a51565b018660005b8281106123ac5750505064ffffffffff90814216946001600160801b03968761221682613349565b515116828a61222484613349565b510151168580604061223586613349565b510151168a0116906040519261224a84612923565b83528b830152604082015261225e87613349565b5261226886613349565b506001938660015b8a8c87831061232b57908b846001600160a01b038c60a4810135828116908190036102be57610800956122eb9561231b946122ad60248601612acf565b6122b960448701612acf565b6122c560648801612adc565b916122d288600401612adc565b94846122e060848b01612af0565b966040519d8e61293f565b168c528d8c0152151560408b0152151560608a01521660808801521660a086015260c085015260c4369101612b04565b60e083015261010082015261336a565b88938580604061235f8b8661234f8a8e9a612346828d613356565b5151169a613356565b5101511694600019890190613356565b51015116816040612370888c613356565b510151160116916040519361238485612923565b84528301526040820152612398828b613356565b526123a3818a613356565b50018790612270565b6123b4612c71565b8282880101520187906121ee565b84916123ce3685612a7b565b8152019101906121b5565b346102be5760203660031901126102be5760043580600052600b60205260ff60016040600020015460a81c16156103675760209060009080600052600b8352604060002060ff815460f01c168061246c575b612443575b50506001600160801b0360405191168152f35b61246592506001600160801b03600261245f9201541691613282565b90612a38565b8280612430565b5060ff600182015460a01c161561242b565b346102be5760403660031901126102be5761249761280c565b602435906001600160a01b0380806124ae85612c26565b169216918083146125a857803314908115612583575b5015612519578260005260076020526040600020826001600160a01b03198254161790556124f183612c26565b167f8c5be1e5ebec7d5bd14f71427d1e84f3dd0314c0f7b2291e5b200ac8c7c3b925600080a4005b608460405162461bcd60e51b815260206004820152603d60248201527f4552433732313a20617070726f76652063616c6c6572206973206e6f7420746f60448201527f6b656e206f776e6572206f7220617070726f76656420666f7220616c6c0000006064820152fd5b9050600052600860205260406000203360005260205260ff60406000205416846124c4565b608460405162461bcd60e51b815260206004820152602160248201527f4552433732313a20617070726f76616c20746f2063757272656e74206f776e6560448201527f72000000000000000000000000000000000000000000000000000000000000006064820152fd5b346102be5760203660031901126102be576020611ae96004356129fb565b346102be5760003660031901126102be5760405160006003549060018260011c91600184169182156126eb575b6020948585108414610f42578587948686529182600014610f2257505060011461268e5750610eb1925003836129a9565b84915060036000527fc2575a0e9e593c00f959f8c92f12db2869c3395a3b0502d05e2516446f71f85b906000915b8583106126d3575050610eb1935082010185610ea4565b805483890185015287945086939092019181016126bc565b92607f169261265d565b346102be5760203660031901126102be57600435907fffffffff0000000000000000000000000000000000000000000000000000000082168092036102be57817f80ac58cd000000000000000000000000000000000000000000000000000000006020931490811561279a575b8115612770575b5015158152f35b7f01ffc9a70000000000000000000000000000000000000000000000000000000091501483612769565b7f5b5e139f0000000000000000000000000000000000000000000000000000000081149150612762565b60005b8381106127d75750506000910152565b81810151838201526020016127c7565b90602091612800815180928185528580860191016127c4565b601f01601f1916010190565b600435906001600160a01b03821682036102be57565b602435906001600160a01b03821682036102be57565b35906001600160a01b03821682036102be57565b60609060031901126102be576001600160a01b039060043582811681036102be579160243590811681036102be579060443590565b9181601f840112156102be5782359167ffffffffffffffff83116102be576020808501948460051b0101116102be57565b90815180825260208080930193019160005b8281106128d2575050505090565b835180516001600160801b031686528083015167ffffffffffffffff168684015260409081015164ffffffffff1690860152606090940193928101926001016128c4565b359081151582036102be57565b6060810190811067ffffffffffffffff821117611d9d57604052565b610120810190811067ffffffffffffffff821117611d9d57604052565b6040810190811067ffffffffffffffff821117611d9d57604052565b67ffffffffffffffff8111611d9d57604052565b610160810190811067ffffffffffffffff821117611d9d57604052565b90601f8019910116810190811067ffffffffffffffff821117611d9d57604052565b67ffffffffffffffff8111611d9d57601f01601f191660200190565b35906001600160801b03821682036102be57565b612a1e6105c78260005260056020526001600160a01b0360406000205416151590565b60005260076020526001600160a01b036040600020541690565b6001600160801b03918216908216039190821161192157565b67ffffffffffffffff8111611d9d5760051b60200190565b359064ffffffffff821682036102be57565b91908260609103126102be57604051612a9381612923565b8092612a9e816129e7565b825260208101359067ffffffffffffffff821682036102be576040612aca918193602086015201612a69565b910152565b3580151581036102be5790565b356001600160a01b03811681036102be5790565b356001600160801b03811681036102be5790565b91908260409103126102be57604051612b1c8161295c565b6020808294612b2a81612838565b84520135910152565b15612b3a57565b608460405162461bcd60e51b815260206004820152602d60248201527f4552433732313a2063616c6c6572206973206e6f7420746f6b656e206f776e6560448201527f72206f7220617070726f766564000000000000000000000000000000000000006064820152fd5b80600052600b60205260ff60016040600020015460a81c161561036757600052600b60205260ff60016040600020015460a01c1690565b15612be257565b606460405162461bcd60e51b815260206004820152601860248201527f4552433732313a20696e76616c696420746f6b656e20494400000000000000006044820152fd5b60005260056020526001600160a01b0360406000205416612c48811515612bdb565b90565b9190811015612c5b5760051b0190565b634e487b7160e01b600052603260045260246000fd5b60405190612c7e82612923565b60006040838281528260208201520152565b90604051612c9d81612923565b6040819360018154916001600160801b0392838116865260801c6020860152015416910152565b908154612cd081612a51565b92604093612ce160405191826129a9565b82815280946020809201926000526020600020906000935b858510612d0857505050505050565b60018481928451612d1881612923565b64ffffffffff87546001600160801b038116835267ffffffffffffffff8160801c168584015260c01c1686820152815201930194019391612cf9565b80600052600b60205260ff60016040600020015460a81c161561036757600052600b60205260ff60016040600020015460b01c1690565b90612daf939291612d9f6120878433613cfc565b612daa838383613ddb565b6146f5565b15612db657565b60405162461bcd60e51b815260206004820152603260248201527f4552433732313a207472616e7366657220746f206e6f6e20455243373231526560448201527f63656976657220696d706c656d656e74657200000000000000000000000000006064820152608490fd5b80600052600b60205260ff60016040600020015460a81c161561036757600052600b60205260406000205460f81c90565b929192612e5d6132ed565b612e6681612ba4565b6131c257612e8a81600052600b6020526001600160a01b0360406000205416331490565b918215806131b2575b6108b557600092828452602093600585526001600160a01b039660409388858420541693806131a6575b6131685788811698891561313f576001600160801b0380841693841561310f57612f00612ee98a613fdf565b8a8852600b8c5260028a8920015460801c90612a38565b82811686116130c75750918491612f5f612f2d612f9895600b8e8e8c525260028c8b20015460801c6140ea565b8b8952600b8d5260028b8a200190836fffffffffffffffffffffffffffffffff1983549260801b169116178155612c90565b90612f7a818d8401511692828c818351169201511690612a38565b161115613098575b888652600b8a526001888720015416928361405a565b88867f40b88e5c41c5a97ffb7b6ef88a0a2d505aa0c634cf8a0275cb236ea7dd87ed4d898851868152a4823314158061308e575b612fff575b5050507ff8e1a15aba9398e019f0b49df1a4fde98ee17ae345cb5f6b5e2c27f5033e8ce793945051908152a1565b823b1561308a5760847ff8e1a15aba9398e019f0b49df1a4fde98ee17ae345cb5f6b5e2c27f5033e8ce7979883865195869485937f13375c3b0000000000000000000000000000000000000000000000000000000085528a6004860152336024860152604485015260648401525af161307b575b859481612fd1565b61308490612978565b38613073565b5080fd5b50823b1515612fcc565b888652600b8a5287862060018101600160a01b60ff60a01b1982541617905560ff60f01b198154169055612f82565b88517fa1fb2bbc000000000000000000000000000000000000000000000000000000008152600481018b90526001600160801b03928316602482015291166044820152606490fd5b6024898951907fd2aabcd90000000000000000000000000000000000000000000000000000000082526004820152fd5b600486517fc61a0e9e000000000000000000000000000000000000000000000000000000008152fd5b85896064928751927f5b97ed720000000000000000000000000000000000000000000000000000000084526004840152336024840152166044820152fd5b50838982161415612ebd565b506131bc82613f76565b15612e93565b60249060405190634a5541ef60e01b82526004820152fd5b9291926131e681612ba4565b6131c25761320a81600052600b6020526001600160a01b0360406000205416331490565b91821580613272575b6108b557600092828452602093600585526001600160a01b03966040938885842054169380613266575b6131685788811698891561313f576001600160801b0380841693841561310f57612f00896140c2565b5083898216141561323d565b5061327c82613f76565b15613213565b64ffffffffff80421682600052600b602052604060002091825482828260a01c1610156132e35760c81c1611156132d15760040154600110156132c857612c48906141d9565b612c4890614105565b6001600160801b039150600201541690565b5050505050600090565b6001600160a01b037f000000000000000000000000000000000000000000000000000000000000000016300361331f57565b60046040517fa1c0d6e5000000000000000000000000000000000000000000000000000000008152fd5b805115612c5b5760200190565b8051821015612c5b5760209160051b010190565b906001600160a01b036001541660206001600160a01b0360c0850151166024604051809481937fdcf844a700000000000000000000000000000000000000000000000000000000835260048301525afa80156106b557600090613c41575b6133eb91506001600160801b0360a08501511690602060e08601510151916143c4565b6001600160801b0381511661010084015164ffffffffff6020860151168215613c175781518015613bed577f00000000000000000000000000000000000000000000000000000000000000008111613bbc575064ffffffffff604061344f84613349565b51015116811015613b655750600090819082815184905b808210613ad2575050505064ffffffffff421664ffffffffff8216811015613a925750506001600160801b0316808203613a5b5750506009549283600052600b6020526040600020916001600160801b0381511660028401906fffffffffffffffffffffffffffffffff198254161790556001600160a01b0360c083015116600184015490750100000000000000000000000000000000000000000060408501511515928654927fffffffffffffffffff0000ff000000000000000000000000000000000000000076ff000000000000000000000000000000000000000000006060890151151560b01b16921617171760018601556001600160a01b0384511691610100850151926040613581855195600019870190613356565b510151927fff000000000000000000000000000000000000000000000000000000000000007eff0000000000000000000000000000000000000000000000000000000000007dffffffffff0000000000000000000000000000000000000000000000000078ffffffffff000000000000000000000000000000000000000060208b015160a01b169660c81b169460f01b16911617171717845560005b81811061398b575050600185016009556001600160a01b0360c08301511660005260026020526001600160801b0380604060002054168160208401511601166001600160a01b0360c0840151166000526040600020906fffffffffffffffffffffffffffffffff198254161790556001600160a01b036080830151168015613947576136c86136c28760005260056020526001600160a01b0360406000205416151590565b15614503565b6136d186612d54565b158061393e575b80613936575b61391e5760207ff8e1a15aba9398e019f0b49df1a4fde98ee17ae345cb5f6b5e2c27f5033e8ce7916137296136c28960005260056020526001600160a01b0360406000205416151590565b806000526006825260406000206001815401905587600052600582526040600020816001600160a01b0319825416179055876040519160007fddf252ad1be2c89b69c2b068fc378daa952ba7f163c4a11628f55a4df523b3ef8180a4878152a16137b96001600160a01b0360c0840151166001600160801b0380845116816020860151160116903090339061454e565b6001600160801b03604082015116806138ef575b507fef3d668acee46576ad5d407c42ab4d0cde13f3cd70b28f09a0fb9e3bf5bf09cb6138ac6001600160a01b03845116926001600160a01b03608086015116946001600160a01b0360c082015116966138e46138c460408401511515928c606086015115156001600160a01b0360e061010089015194549864ffffffffff6040519a6138588c61295c565b818160a01c168c5260c81c1660208b01520151511695604051998a99610160948b523360208c015260408b0190604090816001600160801b0391828151168552826020820151166020860152015116910152565b60a089015260c08801528060e08801528601906128b2565b926101008501906020908164ffffffffff91828151168552015116910152565b6101408301520390a4565b613918906001600160a01b0360c0850151166001600160a01b0360e0860151511690339061454e565b386137cd565b60248660405190630da9b01360e01b82526004820152fd5b5060006136de565b508015156136d8565b606460405162461bcd60e51b815260206004820152602060248201527f4552433732313a206d696e7420746f20746865207a65726f20616464726573736044820152fd5b61399a81610100860151613356565b519060048601549168010000000000000000831015611d9d5760018301806004890155831015612c5b5760019260048801600052602060002001906001600160801b03815116908254917fffffff00000000000000000000000000000000000000000000000000000000007cffffffffff000000000000000000000000000000000000000000000000604077ffffffffffffffff00000000000000000000000000000000602086015160801b1694015160c01b16931617171790550161361d565b60449250604051917fd90b7e3900000000000000000000000000000000000000000000000000000000835260048301526024820152fd5b6040517f210aec0e00000000000000000000000000000000000000000000000000000000815264ffffffffff918216600482015291166024820152604490fd5b9193509193613af6906001600160801b03613aed8588613356565b515116906140ea565b9364ffffffffff806040613b0a8685613356565b51015116941680851115613b28575060018493019192919092613466565b8385606492604051927f7b0bada8000000000000000000000000000000000000000000000000000000008452600484015260248301526044820152fd5b64ffffffffff6040613b7684613349565b5101516040517fb4c9e52c00000000000000000000000000000000000000000000000000000000815264ffffffffff938416600482015291169091166024820152604490fd5b602490604051907f4757689b0000000000000000000000000000000000000000000000000000000082526004820152fd5b60046040517f3952c64e000000000000000000000000000000000000000000000000000000008152fd5b60046040517f6095d3bc000000000000000000000000000000000000000000000000000000008152fd5b506020813d602011613c6d575b81613c5b602093836129a9565b810103126102be576133eb90516133c8565b3d9150613c4e565b80600052600b602052604060002060ff600182015460a01c16600014613c9c575050600490565b805460f81c613cf5575460a01c64ffffffffff164210613cef57613cbf81613282565b90600052600b6020526001600160801b038060026040600020015416911610600014613cea57600190565b600290565b50600090565b5050600390565b906001600160a01b038080613d1084612c26565b16931691838314938415613d43575b508315613d2d575b50505090565b613d39919293506129fb565b1614388080613d27565b909350600052600860205260406000208260005260205260ff604060002054169238613d1f565b15613d7157565b608460405162461bcd60e51b815260206004820152602560248201527f4552433732313a207472616e736665722066726f6d20696e636f72726563742060448201527f6f776e65720000000000000000000000000000000000000000000000000000006064820152fd5b90613e049291613dea83612c26565b916001600160a01b03948593848094169687911614613d6a565b1690811580613f0d57613e1684612d54565b159081613f04575b5080613efb575b613ee35791808492613e657ff8e1a15aba9398e019f0b49df1a4fde98ee17ae345cb5f6b5e2c27f5033e8ce796602096613e5e85612c26565b1614613d6a565b60009382855260078652604085206001600160a01b031990818154169055818652600687526040862060001981540190558286526040862060018154019055838652600587528260408720918254161790557fddf252ad1be2c89b69c2b068fc378daa952ba7f163c4a11628f55a4df523b3ef6040519580a48152a1565b60248360405190630da9b01360e01b82526004820152fd5b50831515613e25565b90501538613e1e565b608460405162461bcd60e51b8152602060048201526024808201527f4552433732313a207472616e7366657220746f20746865207a65726f2061646460448201527f72657373000000000000000000000000000000000000000000000000000000006064820152fd5b60009080825260056020526001600160a01b038060408420541692833314938415613fbb575b50508215613fa957505090565b909150613fb633926129fb565b161490565b60ff9294509060409181526008602052818120338252602052205416913880613f9c565b80600052600b602052613ff86002604060002001612c90565b81600052600b602052604060002060ff600182015460a01c1660001461402b57506001600160801b039150602001511690565b5460f81c61403d5750612c4890613282565b612c4891506001600160801b036040818351169201511690612a38565b916001600160a01b03604051927fa9059cbb000000000000000000000000000000000000000000000000000000006020850152166024830152604482015260448152608081019181831067ffffffffffffffff841117611d9d576140c0926040526145b9565b565b612c48906140cf81613fdf565b90600052600b60205260026040600020015460801c90612a38565b9190916001600160801b038080941691160191821161192157565b64ffffffffff61413a600091838352600b60205280806040852054818160a01c1693849160c81c160316918142160316614888565b91808252600b602052600460408320018054156141c55790829167ffffffffffffffff93526141976020832054828452600b6020526141926001600160801b03968760026040882001541696879360801c1690614978565b6149e6565b9283136141ad5750506141a990614ad0565b1690565b60029350604092508152600b60205220015460801c90565b602483634e487b7160e01b81526032600452fd5b64ffffffffff90814216906000908152600b6020526040908181208251936142008561298c565b8154956001600160a01b039182881687526020870197828160a01c168952828160c81c168789015260ff8160f01c161515606089015260f81c1515608088015260ff600193600186015490811660a08a0152818160a01c16151560c08a0152818160a81c16151560e08a015260b01c16151561010088015261014061429b600461428c60028801612c90565b966101208b0197885201612cc4565b97019187835280876142ad889a613349565b5101511693828288965b161061438c5750916143416141929284888161434698976001600160801b039e8f6142e38b8a51613356565b5151169d8a8f9b602061430067ffffffffffffffff928d51613356565b51015116998483614312848451613356565b51015116965081156143805761433092935051906000190190613356565b5101511680925b0316920316614888565b614978565b92831361435f5750506143598391614ad0565b16011690565b51602001519293928316928416831015915061437b9050575090565b905090565b50505051168092614337565b8094986001600160801b0390816143a48c8851613356565b51511601169801938282808a6143bb898951613356565b510151166142b7565b9092916143cf612c71565b936001600160801b03928381169182156144db5767016345785d8a00008082116144a45780851161446d57506144198561440a8193866155fc565b169460208901958652846155fc565b1691846144306040890194808652828751166140ea565b1610156144575761444984918261445295511690612a38565b91511690612a38565b168252565b634e487b7160e01b600052600160045260246000fd5b84604491604051917f4fea5c1a00000000000000000000000000000000000000000000000000000000835260048301526024820152fd5b60449250604051917f47152d6700000000000000000000000000000000000000000000000000000000835260048301526024820152fd5b505050505090506040516144ee81612923565b60008152600060208201526000604082015290565b1561450a57565b606460405162461bcd60e51b815260206004820152601c60248201527f4552433732313a20746f6b656e20616c7265616479206d696e746564000000006044820152fd5b9290604051927f23b872dd0000000000000000000000000000000000000000000000000000000060208501526001600160a01b03809216602485015216604483015260648201526064815260a081019181831067ffffffffffffffff841117611d9d576140c0926040525b6001600160a01b0316906146196040516145d28161295c565b6020938482527f5361666545524332303a206c6f772d6c6576656c2063616c6c206661696c6564858301526000808587829751910182855af16146136146c5565b916156ab565b80519182159184831561469e575b5050509050156146345750565b6084906040519062461bcd60e51b82526004820152602a60248201527f5361666545524332303a204552433230206f7065726174696f6e20646964206e60448201527f6f742073756363656564000000000000000000000000000000000000000000006064820152fd5b91938180945001031261308a578201519081151582036146c2575080388084614627565b80fd5b3d156146f0573d906146d6826129cb565b916146e460405193846129a9565b82523d6000602084013e565b606090565b9290803b1561487f5761475f916020916001600160a01b0394604051809581948293897f150b7a02000000000000000000000000000000000000000000000000000000009b8c865233600487015216602485015260448401526080606484015260848301906127e7565b03916000968791165af19082908261481e575b50506147f8576147806146c5565b805190816147f35760405162461bcd60e51b815260206004820152603260248201527f4552433732313a207472616e7366657220746f206e6f6e20455243373231526560448201527f63656976657220696d706c656d656e74657200000000000000000000000000006064820152608490fd5b602001fd5b7fffffffff00000000000000000000000000000000000000000000000000000000161490565b909192506020813d602011614877575b8161483b602093836129a9565b8101031261308a5751907fffffffff00000000000000000000000000000000000000000000000000000000821682036146c25750903880614772565b3d915061482e565b50505050600190565b600160ff1b80821490811561496e575b5061494457600081121561493b576148c1816000035b6000841215614934578360000390614b0c565b917f7fffffffffffffffffffffffffffffffffffffffffffffffffffffffffffffff83116148fd57600019911813156148f75790565b60000390565b60449250604051917fd49c26b300000000000000000000000000000000000000000000000000000000835260048301526024820152fd5b8390614b0c565b6148c1816148ae565b60046040517f9fe2b450000000000000000000000000000000000000000000000000000000008152fd5b9050821438614898565b80614993575061498e57670de0b6b3a764000090565b600090565b90670de0b6b3a76400008083146149e05750806149b8575050670de0b6b3a764000090565b670de0b6b3a764000081146149dc576149d790614192612c4893614c06565b614d48565b5090565b91505090565b600160ff1b808214908115614ac6575b50614a9c576000811215614a9357614a1f816000035b6000841215614a8c5783600003906155fc565b917f7fffffffffffffffffffffffffffffffffffffffffffffffffffffffffffffff8311614a5557600019911813156148f75790565b60449250604051917f120b5b4300000000000000000000000000000000000000000000000000000000835260048301526024820152fd5b83906155fc565b614a1f81614a0c565b60046040517fa6070c25000000000000000000000000000000000000000000000000000000008152fd5b90508214386149f6565b60008112614adb5790565b602490604051907f2463f3d50000000000000000000000000000000000000000000000000000000082526004820152fd5b670de0b6b3a7640000916000198383099280830292838086109503948086039514614bc85782851015614b8c57908291096001821901821680920460028082600302188083028203028083028203028083028203028083028203028083028203028092029003029360018380600003040190848311900302920304170290565b82606492604051927f63a05778000000000000000000000000000000000000000000000000000000008452600484015260248301526044820152fd5b505080925015614bd6570490565b634e487b7160e01b600052601260045260246000fd5b8015614bd6576ec097ce7bc90715b34b9f10000000000590565b80600080831315614d1757670de0b6b3a764000092838112614cf457506001925b808305906001600160801b03821160071b91821c9167ffffffffffffffff831160061b92831c63ffffffff811160051b90811c61ffff811160041b90811c60ff811160031b90811c91600f831160021b92831c93600197600160038711811b96871c11961717171717171781810294811d90828214614ce857506706f05b59d3b20000905b848213614cbc5750505050500290565b808391020590671bc16d674ec80000821215614cdb575b831d90614cac565b8091950194831d90614cd3565b93505093925050020290565b6000199392508015614bd6576ec097ce7bc90715b34b9f10000000000591614c27565b602483604051907f059b101b0000000000000000000000000000000000000000000000000000000082526004820152fd5b6000811215614d775768033dd1780914b97114198112613cef57614d6e90600003614d48565b612c4890614bec565b680a688906bd8affffff81136155cb57670de0b6b3a764000080604092831b05907780000000000000000000000000000000000000000000000067ff0000000000000083166154ae575b66ff00000000000083166153a6575b65ff000000000083166152a6575b64ff0000000083166151ae575b63ff00000083166150be575b62ff00008316614fd6575b61ff008316614ef6575b60ff8316614e1f575b02911c60bf031c90565b60808316614ee4575b838316614ed2575b60208316614ec0575b60108316614eae575b60088316614e9c575b60048316614e8a575b60028316614e78575b6001831615614e15576801000000000000000102831c614e15565b6801000000000000000102831c614e5d565b6801000000000000000302831c614e54565b6801000000000000000602831c614e4b565b6801000000000000000b02831c614e42565b6801000000000000001602831c614e39565b6801000000000000002c02831c614e30565b6801000000000000005902831c614e28565b6180008316614fc4575b6140008316614fb2575b6120008316614fa0575b6110008316614f8e575b6108008316614f7c575b6104008316614f6a575b6102008316614f58575b610100831615614e0c57680100000000000000b102831c614e0c565b6801000000000000016302831c614f3c565b680100000000000002c602831c614f32565b6801000000000000058c02831c614f28565b68010000000000000b1702831c614f1e565b6801000000000000162e02831c614f14565b68010000000000002c5d02831c614f0a565b680100000000000058b902831c614f00565b6280000083166150ac575b62400000831661509a575b622000008316615088575b621000008316615076575b620800008316615064575b620400008316615052575b620200008316615040575b62010000831615614e02576801000000000000b17202831c614e02565b680100000000000162e402831c615023565b6801000000000002c5c802831c615018565b68010000000000058b9102831c61500d565b680100000000000b172102831c615002565b68010000000000162e4302831c614ff7565b680100000000002c5c8602831c614fec565b6801000000000058b90c02831c614fe1565b6380000000831661519c575b6340000000831661518a575b63200000008316615178575b63100000008316615166575b63080000008316615154575b63040000008316615142575b63020000008316615130575b6301000000831615614df75768010000000000b1721802831c614df7565b6801000000000162e43002831c615112565b68010000000002c5c86002831c615106565b680100000000058b90c002831c6150fa565b6801000000000b17217f02831c6150ee565b680100000000162e42ff02831c6150e2565b6801000000002c5c85fe02831c6150d6565b68010000000058b90bfc02831c6150ca565b6480000000008316615294575b6440000000008316615282575b6420000000008316615270575b641000000000831661525e575b640800000000831661524c575b640400000000831661523a575b6402000000008316615228575b640100000000831615614deb57680100000000b17217f802831c614deb565b68010000000162e42ff102831c615209565b680100000002c5c85fe302831c6151fc565b6801000000058b90bfce02831c6151ef565b68010000000b17217fbb02831c6151e2565b6801000000162e42fff002831c6151d5565b68010000002c5c8601cc02831c6151c8565b680100000058b90c0b4902831c6151bb565b658000000000008316615394575b654000000000008316615382575b652000000000008316615370575b65100000000000831661535e575b65080000000000831661534c575b65040000000000831661533a575b650200000000008316615328575b65010000000000831615614dde576801000000b17218355102831c614dde565b680100000162e430e5a202831c615308565b6801000002c5c863b73f02831c6152fa565b68010000058b90cf1e6e02831c6152ec565b680100000b1721bcfc9a02831c6152de565b68010000162e43f4f83102831c6152d0565b680100002c5c89d5ec6d02831c6152c2565b6801000058b91b5bc9ae02831c6152b4565b6680000000000000831661549c575b6640000000000000831661548a575b66200000000000008316615478575b66100000000000008316615466575b66080000000000008316615454575b66040000000000008316615442575b66020000000000008316615430575b6601000000000000831615614dd05768010000b17255775c0402831c614dd0565b6801000162e525ee054702831c61540f565b68010002c5cc37da949202831c615400565b680100058ba01fb9f96d02831c6153f1565b6801000b175effdc76ba02831c6153e2565b680100162f3904051fa102831c6153d3565b6801002c605e2e8cec5002831c6153c4565b68010058c86da1c09ea202831c6153b5565b67800000000000000083166155ac575b674000000000000000831661559a575b6720000000000000008316615588575b6710000000000000008316615576575b6708000000000000008316615564575b6704000000000000008316615552575b6702000000000000008316615540575b670100000000000000831615614dc157680100b1afa5abcbed6102831c614dc1565b68010163da9fb33356d802831c61551e565b680102c9a3e778060ee702831c61550e565b6801059b0d31585743ae02831c6154fe565b68010b5586cf9890f62a02831c6154ee565b6801172b83c7d517adce02831c6154de565b6801306fe0a31b7152df02831c6154ce565b5077b504f333f9de6484800000000000000000000000000000006154be565b602490604051907f0360d0280000000000000000000000000000000000000000000000000000000082526004820152fd5b9091906000198382098382029182808310920391808303921461569a57670de0b6b3a7640000908183101561566357947faccb18165bd6fe31ae1cf318dc5b51eee0e1ba569b88cd74c1773b91fac1066994950990828211900360ee1b910360121c170290565b60449086604051917f5173648d00000000000000000000000000000000000000000000000000000000835260048301526024820152fd5b5050670de0b6b3a764000090049150565b9192901561570c57508151156156bf575090565b3b156156c85790565b606460405162461bcd60e51b815260206004820152601d60248201527f416464726573733a2063616c6c20746f206e6f6e2d636f6e74726163740000006044820152fd5b82519091501561571f5750805190602001fd5b6108d49060405191829162461bcd60e51b83526020600484015260248301906127e756fea164736f6c6343000817000a",
    "linkReferences": {}
  },
  "methodIdentifiers": {
    "MAX_FEE()": "bc063e1a",
    "MAX_SEGMENT_COUNT()": "9188ec84",
    "admin()": "f851a440",
    "approve(address,uint256)": "095ea7b3",
    "balanceOf(address)": "70a08231",
    "burn(uint256)": "42966c68",
    "cancel(uint256)": "40e58ee5",
    "cancelMultiple(uint256[])": "8659c270",
    "claimProtocolRevenues(address)": "a6202bf2",
    "comptroller()": "5fe3b567",
    "createWithDeltas((address,bool,bool,address,uint128,address,(address,uint256),(uint128,uint64,uint40)[]))": "16844456",
    "createWithMilestones((address,uint40,bool,bool,address,uint128,address,(address,uint256),(uint128,uint64,uint40)[]))": "c33cd35e",
    "getApproved(uint256)": "081812fc",
    "getAsset(uint256)": "eac8f5b8",
    "getDepositedAmount(uint256)": "a80fc071",
    "getEndTime(uint256)": "9067b677",
    "getRange(uint256)": "cc364f48",
    "getRecipient(uint256)": "6d0cee75",
    "getRefundedAmount(uint256)": "d4dbd20b",
    "getSegments(uint256)": "b637b865",
    "getSender(uint256)": "b971302a",
    "getStartTime(uint256)": "bc2be1be",
    "getStream(uint256)": "894e9a0d",
    "getWithdrawnAmount(uint256)": "d511609f",
    "isApprovedForAll(address,address)": "e985e9c5",
    "isCancelable(uint256)": "4857501f",
    "isCold(uint256)": "8f69b993",
    "isDepleted(uint256)": "425d30dd",
    "isStream(uint256)": "b8a3be66",
    "isTransferable(uint256)": "b2564569",
    "isWarm(uint256)": "1c1cdd4c",
    "name()": "06fdde03",
    "nextStreamId()": "1e99d569",
    "ownerOf(uint256)": "6352211e",
    "protocolRevenues(address)": "39a73c03",
    "refundableAmountOf(uint256)": "1400ecec",
    "renounce(uint256)": "7de6b1db",
    "safeTransferFrom(address,address,uint256)": "42842e0e",
    "safeTransferFrom(address,address,uint256,bytes)": "b88d4fde",
    "setApprovalForAll(address,bool)": "a22cb465",
    "setComptroller(address)": "8bad38dd",
    "setNFTDescriptor(address)": "7cad6cd1",
    "statusOf(uint256)": "ad35efd4",
    "streamedAmountOf(uint256)": "4869e12d",
    "supportsInterface(bytes4)": "01ffc9a7",
    "symbol()": "95d89b41",
    "tokenURI(uint256)": "c87b56dd",
    "transferAdmin(address)": "75829def",
    "transferFrom(address,address,uint256)": "23b872dd",
    "wasCanceled(uint256)": "f590c176",
    "withdraw(uint256,address,uint128)": "fdd46d60",
    "withdrawMax(uint256,address)": "ea5ead19",
    "withdrawMaxAndTransfer(uint256,address)": "c156a11d",
    "withdrawMultiple(uint256[],address,uint128[])": "a2ffb897",
    "withdrawableAmountOf(uint256)": "d975dfed"
  },
  "id": 76
}