{
  "abi": [
    {
      "inputs": [
        {
          "internalType": "address",
          "name": "initialAdmin",
          "type": "address"
        }
      ],
      "stateMutability": "nonpayable",
      "type": "constructor"
    },
    {
      "inputs": [
        {
          "internalType": "address",
          "name": "admin",
          "type": "address"
        },
        {
          "internalType": "address",
          "name": "caller",
          "type": "address"
        }
      ],
      "name": "CallerNotAdmin",
      "type": "error"
    },
    {
      "anonymous": false,
      "inputs": [
        {
          "indexed": true,
          "internalType": "address",
          "name": "admin",
          "type": "address"
        },
        {
          "indexed": true,
          "internalType": "address",
          "name": "addr",
          "type": "address"
        }
      ],
      "name": "List",
      "type": "event"
    },
    {
      "anonymous": false,
      "inputs": [
        {
          "indexed": true,
          "internalType": "address",
          "name": "oldAdmin",
          "type": "address"
        },
        {
          "indexed": true,
          "internalType": "address",
          "name": "newAdmin",
          "type": "address"
        }
      ],
      "name": "TransferAdmin",
      "type": "event"
    },
    {
      "anonymous": false,
      "inputs": [
        {
          "indexed": true,
          "internalType": "address",
          "name": "admin",
          "type": "address"
        },
        {
          "indexed": true,
          "internalType": "address",
          "name": "addr",
          "type": "address"
        }
      ],
      "name": "Unlist",
      "type": "event"
    },
    {
      "inputs": [],
      "name": "admin",
      "outputs": [
        {
          "internalType": "address",
          "name": "",
          "type": "address"
        }
      ],
      "stateMutability": "view",
      "type": "function"
    },
    {
      "inputs": [
        {
          "internalType": "address",
          "name": "addr",
          "type": "address"
        }
      ],
      "name": "isListed",
      "outputs": [
        {
          "internalType": "bool",
          "name": "listed",
          "type": "bool"
        }
      ],
      "stateMutability": "view",
      "type": "function"
    },
    {
      "inputs": [
        {
          "internalType": "address",
          "name": "addr",
          "type": "address"
        }
      ],
      "name": "list",
      "outputs": [],
      "stateMutability": "nonpayable",
      "type": "function"
    },
    {
      "inputs": [
        {
          "internalType": "address",
          "name": "newAdmin",
          "type": "address"
        }
      ],
      "name": "transferAdmin",
      "outputs": [],
      "stateMutability": "nonpayable",
      "type": "function"
    },
    {
      "inputs": [
        {
          "internalType": "address",
          "name": "addr",
          "type": "address"
        }
      ],
      "name": "unlist",
      "outputs": [],
      "stateMutability": "nonpayable",
      "type": "function"
    }
  ],
  "bytecode": {
    "object": "0x60803461007457601f61047538819003918201601f19168301916001600160401b038311848410176100795780849260209460405283398101031261007457516001600160a01b0381169081900361007457600080546001600160a01b0319169190911790556040516103e590816100908239f35b600080fd5b634e487b7160e01b600052604160045260246000fdfe608060408181526004918236101561001657600080fd5b600092833560e01c91826375829def146102e657508163bb032a661461022b578163bde3672d1461011c578163f794062e146100af575063f851a4401461005c57600080fd5b346100ab57817ffffffffffffffffffffffffffffffffffffffffffffffffffffffffffffffffc3601126100ab5773ffffffffffffffffffffffffffffffffffffffff60209254169051908152f35b5080fd5b9050346101185760207ffffffffffffffffffffffffffffffffffffffffffffffffffffffffffffffffc360112610118573573ffffffffffffffffffffffffffffffffffffffff811680910361011857818360ff92602095526001855220541690519015158152f35b8280fd5b919050346101185760207ffffffffffffffffffffffffffffffffffffffffffffffffffffffffffffffffc3601126101185781359173ffffffffffffffffffffffffffffffffffffffff808416809403610227578454163381036101d4575050818352600160205282207fffffffffffffffffffffffffffffffffffffffffffffffffffffffffffffff008154169055337fb9835cd339eaf06fa84e93033cbaef0efbd524b078bf101a5a73040c8e1a3a6b8380a380f35b82517fc6cce6a400000000000000000000000000000000000000000000000000000000815273ffffffffffffffffffffffffffffffffffffffff9091169181019182523360208301529081906040010390fd5b8480fd5b919050346101185760207ffffffffffffffffffffffffffffffffffffffffffffffffffffffffffffffffc3601126101185781359173ffffffffffffffffffffffffffffffffffffffff808416809403610227578454163381036101d45750508183526001602052822060017fffffffffffffffffffffffffffffffffffffffffffffffffffffffffffffff00825416179055337fb9b4b5889ee1c30795c18ef5221a2a05de69d5655670bd5db987bbecc1b9646b8380a380f35b8491346101185760207ffffffffffffffffffffffffffffffffffffffffffffffffffffffffffffffffc3601126101185780359173ffffffffffffffffffffffffffffffffffffffff91828416809403610227578454928316338103610397575050507fffffffffffffffffffffffff00000000000000000000000000000000000000001681178255337fbdd36143ee09de60bdefca70680e0f71189b2ed7acee364b53917ad433fdaf808380a380f35b7fc6cce6a400000000000000000000000000000000000000000000000000000000835273ffffffffffffffffffffffffffffffffffffffff1690820190815233602082015281906040010390fd",
    "linkReferences": {}
  },
  "methodIdentifiers": {
    "admin()": "f851a440",
    "isListed(address)": "f794062e",
    "list(address)": "bb032a66",
    "transferAdmin(address)": "75829def",
    "unlist(address)": "bde3672d"
  },
  "id": 97
}