{
  "abi": [
    {
      "inputs": [],
      "name": "CallNotDelegateCall",
      "type": "error"
    },
    {
      "inputs": [],
      "name": "SablierV2ProxyTarget_BatchSizeZero",
      "type": "error"
    },
    {
      "inputs": [
        {
          "internalType": "uint256",
          "name": "msgValue",
          "type": "uint256"
        },
        {
          "internalType": "uint256",
          "name": "creditAmount",
          "type": "uint256"
        }
      ],
      "name": "SablierV2ProxyTarget_CreditAmountMismatch",
      "type": "error"
    },
    {
      "inputs": [
        {
          "components": [
            {
              "internalType": "contract ISablierV2Lockup",
              "name": "lockup",
              "type": "address"
            },
            {
              "internalType": "uint256[]",
              "name": "streamIds",
              "type": "uint256[]"
            }
          ],
          "internalType": "struct Batch.CancelMultiple[]",
          "name": "batch",
          "type": "tuple[]"
        },
        {
          "internalType": "contract IERC20[]",
          "name": "assets",
          "type": "address[]"
        }
      ],
      "name": "batchCancelMultiple",
      "outputs": [],
      "stateMutability": "nonpayable",
      "type": "function"
    },
    {
      "inputs": [
        {
          "internalType": "contract ISablierV2LockupDynamic",
          "name": "dynamic",
          "type": "address"
        },
        {
          "internalType": "contract IERC20",
          "name": "asset",
          "type": "address"
        },
        {
          "components": [
            {
              "internalType": "address",
              "name": "sender",
              "type": "address"
            },
            {
              "internalType": "bool",
              "name": "cancelable",
              "type": "bool"
            },
            {
              "internalType": "address",
              "name": "recipient",
              "type": "address"
            },
            {
              "internalType": "uint128",
              "name": "totalAmount",
              "type": "uint128"
            },
            {
              "components": [
                {
                  "internalType": "address",
                  "name": "account",
                  "type": "address"
                },
                {
                  "internalType": "UD60x18",
                  "name": "fee",
                  "type": "uint256"
                }
              ],
              "internalType": "struct Broker",
              "name": "broker",
              "type": "tuple"
            },
            {
              "components": [
                {
                  "internalType": "uint128",
                  "name": "amount",
                  "type": "uint128"
                },
                {
                  "internalType": "UD2x18",
                  "name": "exponent",
                  "type": "uint64"
                },
                {
                  "internalType": "uint40",
                  "name": "delta",
                  "type": "uint40"
                }
              ],
              "internalType": "struct LockupDynamic.SegmentWithDelta[]",
              "name": "segments",
              "type": "tuple[]"
            }
          ],
          "internalType": "struct Batch.CreateWithDeltas[]",
          "name": "batch",
          "type": "tuple[]"
        },
        {
          "internalType": "bytes",
          "name": "transferData",
          "type": "bytes"
        }
      ],
      "name": "batchCreateWithDeltas",
      "outputs": [
        {
          "internalType": "uint256[]",
          "name": "streamIds",
          "type": "uint256[]"
        }
      ],
      "stateMutability": "nonpayable",
      "type": "function"
    },
    {
      "inputs": [
        {
          "internalType": "contract ISablierV2LockupLinear",
          "name": "lockupLinear",
          "type": "address"
        },
        {
          "internalType": "contract IERC20",
          "name": "asset",
          "type": "address"
        },
        {
          "components": [
            {
              "internalType": "address",
              "name": "sender",
              "type": "address"
            },
            {
              "internalType": "address",
              "name": "recipient",
              "type": "address"
            },
            {
              "internalType": "uint128",
              "name": "totalAmount",
              "type": "uint128"
            },
            {
              "internalType": "bool",
              "name": "cancelable",
              "type": "bool"
            },
            {
              "components": [
                {
                  "internalType": "uint40",
                  "name": "cliff",
                  "type": "uint40"
                },
                {
                  "internalType": "uint40",
                  "name": "total",
                  "type": "uint40"
                }
              ],
              "internalType": "struct LockupLinear.Durations",
              "name": "durations",
              "type": "tuple"
            },
            {
              "components": [
                {
                  "internalType": "address",
                  "name": "account",
                  "type": "address"
                },
                {
                  "internalType": "UD60x18",
                  "name": "fee",
                  "type": "uint256"
                }
              ],
              "internalType": "struct Broker",
              "name": "broker",
              "type": "tuple"
            }
          ],
          "internalType": "struct Batch.CreateWithDurations[]",
          "name": "batch",
          "type": "tuple[]"
        },
        {
          "internalType": "bytes",
          "name": "transferData",
          "type": "bytes"
        }
      ],
      "name": "batchCreateWithDurations",
      "outputs": [
        {
          "internalType": "uint256[]",
          "name": "streamIds",
          "type": "uint256[]"
        }
      ],
      "stateMutability": "nonpayable",
      "type": "function"
    },
    {
      "inputs": [
        {
          "internalType": "contract ISablierV2LockupDynamic",
          "name": "dynamic",
          "type": "address"
        },
        {
          "internalType": "contract IERC20",
          "name": "asset",
          "type": "address"
        },
        {
          "components": [
            {
              "internalType": "address",
              "name": "sender",
              "type": "address"
            },
            {
              "internalType": "uint40",
              "name": "startTime",
              "type": "uint40"
            },
            {
              "internalType": "bool",
              "name": "cancelable",
              "type": "bool"
            },
            {
              "internalType": "address",
              "name": "recipient",
              "type": "address"
            },
            {
              "internalType": "uint128",
              "name": "totalAmount",
              "type": "uint128"
            },
            {
              "components": [
                {
                  "internalType": "address",
                  "name": "account",
                  "type": "address"
                },
                {
                  "internalType": "UD60x18",
                  "name": "fee",
                  "type": "uint256"
                }
              ],
              "internalType": "struct Broker",
              "name": "broker",
              "type": "tuple"
            },
            {
              "components": [
                {
                  "internalType": "uint128",
                  "name": "amount",
                  "type": "uint128"
                },
                {
                  "internalType": "UD2x18",
                  "name": "exponent",
                  "type": "uint64"
                },
                {
                  "internalType": "uint40",
                  "name": "milestone",
                  "type": "uint40"
                }
              ],
              "internalType": "struct LockupDynamic.Segment[]",
              "name": "segments",
              "type": "tuple[]"
            }
          ],
          "internalType": "struct Batch.CreateWithMilestones[]",
          "name": "batch",
          "type": "tuple[]"
        },
        {
          "internalType": "bytes",
          "name": "transferData",
          "type": "bytes"
        }
      ],
      "name": "batchCreateWithMilestones",
      "outputs": [
        {
          "internalType": "uint256[]",
          "name": "streamIds",
          "type": "uint256[]"
        }
      ],
      "stateMutability": "nonpayable",
      "type": "function"
    },
    {
      "inputs": [
        {
          "internalType": "contract ISablierV2LockupLinear",
          "name": "lockupLinear",
          "type": "address"
        },
        {
          "internalType": "contract IERC20",
          "name": "asset",
          "type": "address"
        },
        {
          "components": [
            {
              "internalType": "address",
              "name": "sender",
              "type": "address"
            },
            {
              "internalType": "address",
              "name": "recipient",
              "type": "address"
            },
            {
              "internalType": "uint128",
              "name": "totalAmount",
              "type": "uint128"
            },
            {
              "internalType": "bool",
              "name": "cancelable",
              "type": "bool"
            },
            {
              "components": [
                {
                  "internalType": "uint40",
                  "name": "start",
                  "type": "uint40"
                },
                {
                  "internalType": "uint40",
                  "name": "cliff",
                  "type": "uint40"
                },
                {
                  "internalType": "uint40",
                  "name": "end",
                  "type": "uint40"
                }
              ],
              "internalType": "struct LockupLinear.Range",
              "name": "range",
              "type": "tuple"
            },
            {
              "components": [
                {
                  "internalType": "address",
                  "name": "account",
                  "type": "address"
                },
                {
                  "internalType": "UD60x18",
                  "name": "fee",
                  "type": "uint256"
                }
              ],
              "internalType": "struct Broker",
              "name": "broker",
              "type": "tuple"
            }
          ],
          "internalType": "struct Batch.CreateWithRange[]",
          "name": "batch",
          "type": "tuple[]"
        },
        {
          "internalType": "bytes",
          "name": "transferData",
          "type": "bytes"
        }
      ],
      "name": "batchCreateWithRange",
      "outputs": [
        {
          "internalType": "uint256[]",
          "name": "streamIds",
          "type": "uint256[]"
        }
      ],
      "stateMutability": "nonpayable",
      "type": "function"
    },
    {
      "inputs": [
        {
          "internalType": "contract ISablierV2Lockup",
          "name": "lockup",
          "type": "address"
        },
        {
          "internalType": "uint256",
          "name": "streamId",
          "type": "uint256"
        }
      ],
      "name": "burn",
      "outputs": [],
      "stateMutability": "nonpayable",
      "type": "function"
    },
    {
      "inputs": [
        {
          "internalType": "contract ISablierV2Lockup",
          "name": "lockup",
          "type": "address"
        },
        {
          "internalType": "uint256",
          "name": "streamId",
          "type": "uint256"
        }
      ],
      "name": "cancel",
      "outputs": [],
      "stateMutability": "nonpayable",
      "type": "function"
    },
    {
      "inputs": [
        {
          "internalType": "contract ISablierV2Lockup",
          "name": "lockup",
          "type": "address"
        },
        {
          "internalType": "uint256",
          "name": "streamId",
          "type": "uint256"
        },
        {
          "internalType": "contract ISablierV2LockupDynamic",
          "name": "dynamic",
          "type": "address"
        },
        {
          "components": [
            {
              "internalType": "address",
              "name": "sender",
              "type": "address"
            },
            {
              "internalType": "bool",
              "name": "cancelable",
              "type": "bool"
            },
            {
              "internalType": "address",
              "name": "recipient",
              "type": "address"
            },
            {
              "internalType": "uint128",
              "name": "totalAmount",
              "type": "uint128"
            },
            {
              "internalType": "contract IERC20",
              "name": "asset",
              "type": "address"
            },
            {
              "components": [
                {
                  "internalType": "address",
                  "name": "account",
                  "type": "address"
                },
                {
                  "internalType": "UD60x18",
                  "name": "fee",
                  "type": "uint256"
                }
              ],
              "internalType": "struct Broker",
              "name": "broker",
              "type": "tuple"
            },
            {
              "components": [
                {
                  "internalType": "uint128",
                  "name": "amount",
                  "type": "uint128"
                },
                {
                  "internalType": "UD2x18",
                  "name": "exponent",
                  "type": "uint64"
                },
                {
                  "internalType": "uint40",
                  "name": "delta",
                  "type": "uint40"
                }
              ],
              "internalType": "struct LockupDynamic.SegmentWithDelta[]",
              "name": "segments",
              "type": "tuple[]"
            }
          ],
          "internalType": "struct LockupDynamic.CreateWithDeltas",
          "name": "createParams",
          "type": "tuple"
        },
        {
          "internalType": "bytes",
          "name": "transferData",
          "type": "bytes"
        }
      ],
      "name": "cancelAndCreateWithDeltas",
      "outputs": [
        {
          "internalType": "uint256",
          "name": "newStreamId",
          "type": "uint256"
        }
      ],
      "stateMutability": "nonpayable",
      "type": "function"
    },
    {
      "inputs": [
        {
          "internalType": "contract ISablierV2Lockup",
          "name": "lockup",
          "type": "address"
        },
        {
          "internalType": "uint256",
          "name": "streamId",
          "type": "uint256"
        },
        {
          "internalType": "contract ISablierV2LockupLinear",
          "name": "lockupLinear",
          "type": "address"
        },
        {
          "components": [
            {
              "internalType": "address",
              "name": "sender",
              "type": "address"
            },
            {
              "internalType": "address",
              "name": "recipient",
              "type": "address"
            },
            {
              "internalType": "uint128",
              "name": "totalAmount",
              "type": "uint128"
            },
            {
              "internalType": "contract IERC20",
              "name": "asset",
              "type": "address"
            },
            {
              "internalType": "bool",
              "name": "cancelable",
              "type": "bool"
            },
            {
              "components": [
                {
                  "internalType": "uint40",
                  "name": "cliff",
                  "type": "uint40"
                },
                {
                  "internalType": "uint40",
                  "name": "total",
                  "type": "uint40"
                }
              ],
              "internalType": "struct LockupLinear.Durations",
              "name": "durations",
              "type": "tuple"
            },
            {
              "components": [
                {
                  "internalType": "address",
                  "name": "account",
                  "type": "address"
                },
                {
                  "internalType": "UD60x18",
                  "name": "fee",
                  "type": "uint256"
                }
              ],
              "internalType": "struct Broker",
              "name": "broker",
              "type": "tuple"
            }
          ],
          "internalType": "struct LockupLinear.CreateWithDurations",
          "name": "createParams",
          "type": "tuple"
        },
        {
          "internalType": "bytes",
          "name": "transferData",
          "type": "bytes"
        }
      ],
      "name": "cancelAndCreateWithDurations",
      "outputs": [
        {
          "internalType": "uint256",
          "name": "newStreamId",
          "type": "uint256"
        }
      ],
      "stateMutability": "nonpayable",
      "type": "function"
    },
    {
      "inputs": [
        {
          "internalType": "contract ISablierV2Lockup",
          "name": "lockup",
          "type": "address"
        },
        {
          "internalType": "uint256",
          "name": "streamId",
          "type": "uint256"
        },
        {
          "internalType": "contract ISablierV2LockupDynamic",
          "name": "dynamic",
          "type": "address"
        },
        {
          "components": [
            {
              "internalType": "address",
              "name": "sender",
              "type": "address"
            },
            {
              "internalType": "uint40",
              "name": "startTime",
              "type": "uint40"
            },
            {
              "internalType": "bool",
              "name": "cancelable",
              "type": "bool"
            },
            {
              "internalType": "address",
              "name": "recipient",
              "type": "address"
            },
            {
              "internalType": "uint128",
              "name": "totalAmount",
              "type": "uint128"
            },
            {
              "internalType": "contract IERC20",
              "name": "asset",
              "type": "address"
            },
            {
              "components": [
                {
                  "internalType": "address",
                  "name": "account",
                  "type": "address"
                },
                {
                  "internalType": "UD60x18",
                  "name": "fee",
                  "type": "uint256"
                }
              ],
              "internalType": "struct Broker",
              "name": "broker",
              "type": "tuple"
            },
            {
              "components": [
                {
                  "internalType": "uint128",
                  "name": "amount",
                  "type": "uint128"
                },
                {
                  "internalType": "UD2x18",
                  "name": "exponent",
                  "type": "uint64"
                },
                {
                  "internalType": "uint40",
                  "name": "milestone",
                  "type": "uint40"
                }
              ],
              "internalType": "struct LockupDynamic.Segment[]",
              "name": "segments",
              "type": "tuple[]"
            }
          ],
          "internalType": "struct LockupDynamic.CreateWithMilestones",
          "name": "createParams",
          "type": "tuple"
        },
        {
          "internalType": "bytes",
          "name": "transferData",
          "type": "bytes"
        }
      ],
      "name": "cancelAndCreateWithMilestones",
      "outputs": [
        {
          "internalType": "uint256",
          "name": "newStreamId",
          "type": "uint256"
        }
      ],
      "stateMutability": "nonpayable",
      "type": "function"
    },
    {
      "inputs": [
        {
          "internalType": "contract ISablierV2Lockup",
          "name": "lockup",
          "type": "address"
        },
        {
          "internalType": "uint256",
          "name": "streamId",
          "type": "uint256"
        },
        {
          "internalType": "contract ISablierV2LockupLinear",
          "name": "lockupLinear",
          "type": "address"
        },
        {
          "components": [
            {
              "internalType": "address",
              "name": "sender",
              "type": "address"
            },
            {
              "internalType": "address",
              "name": "recipient",
              "type": "address"
            },
            {
              "internalType": "uint128",
              "name": "totalAmount",
              "type": "uint128"
            },
            {
              "internalType": "contract IERC20",
              "name": "asset",
              "type": "address"
            },
            {
              "internalType": "bool",
              "name": "cancelable",
              "type": "bool"
            },
            {
              "components": [
                {
                  "internalType": "uint40",
                  "name": "start",
                  "type": "uint40"
                },
                {
                  "internalType": "uint40",
                  "name": "cliff",
                  "type": "uint40"
                },
                {
                  "internalType": "uint40",
                  "name": "end",
                  "type": "uint40"
                }
              ],
              "internalType": "struct LockupLinear.Range",
              "name": "range",
              "type": "tuple"
            },
            {
              "components": [
                {
                  "internalType": "address",
                  "name": "account",
                  "type": "address"
                },
                {
                  "internalType": "UD60x18",
                  "name": "fee",
                  "type": "uint256"
                }
              ],
              "internalType": "struct Broker",
              "name": "broker",
              "type": "tuple"
            }
          ],
          "internalType": "struct LockupLinear.CreateWithRange",
          "name": "createParams",
          "type": "tuple"
        },
        {
          "internalType": "bytes",
          "name": "transferData",
          "type": "bytes"
        }
      ],
      "name": "cancelAndCreateWithRange",
      "outputs": [
        {
          "internalType": "uint256",
          "name": "newStreamId",
          "type": "uint256"
        }
      ],
      "stateMutability": "nonpayable",
      "type": "function"
    },
    {
      "inputs": [
        {
          "internalType": "contract ISablierV2Lockup",
          "name": "lockup",
          "type": "address"
        },
        {
          "internalType": "contract IERC20[]",
          "name": "assets",
          "type": "address[]"
        },
        {
          "internalType": "uint256[]",
          "name": "streamIds",
          "type": "uint256[]"
        }
      ],
      "name": "cancelMultiple",
      "outputs": [],
      "stateMutability": "nonpayable",
      "type": "function"
    },
    {
      "inputs": [
        {
          "internalType": "contract ISablierV2LockupDynamic",
          "name": "dynamic",
          "type": "address"
        },
        {
          "components": [
            {
              "internalType": "address",
              "name": "sender",
              "type": "address"
            },
            {
              "internalType": "bool",
              "name": "cancelable",
              "type": "bool"
            },
            {
              "internalType": "address",
              "name": "recipient",
              "type": "address"
            },
            {
              "internalType": "uint128",
              "name": "totalAmount",
              "type": "uint128"
            },
            {
              "internalType": "contract IERC20",
              "name": "asset",
              "type": "address"
            },
            {
              "components": [
                {
                  "internalType": "address",
                  "name": "account",
                  "type": "address"
                },
                {
                  "internalType": "UD60x18",
                  "name": "fee",
                  "type": "uint256"
                }
              ],
              "internalType": "struct Broker",
              "name": "broker",
              "type": "tuple"
            },
            {
              "components": [
                {
                  "internalType": "uint128",
                  "name": "amount",
                  "type": "uint128"
                },
                {
                  "internalType": "UD2x18",
                  "name": "exponent",
                  "type": "uint64"
                },
                {
                  "internalType": "uint40",
                  "name": "delta",
                  "type": "uint40"
                }
              ],
              "internalType": "struct LockupDynamic.SegmentWithDelta[]",
              "name": "segments",
              "type": "tuple[]"
            }
          ],
          "internalType": "struct LockupDynamic.CreateWithDeltas",
          "name": "createParams",
          "type": "tuple"
        },
        {
          "internalType": "bytes",
          "name": "transferData",
          "type": "bytes"
        }
      ],
      "name": "createWithDeltas",
      "outputs": [
        {
          "internalType": "uint256",
          "name": "streamId",
          "type": "uint256"
        }
      ],
      "stateMutability": "nonpayable",
      "type": "function"
    },
    {
      "inputs": [
        {
          "internalType": "contract ISablierV2LockupLinear",
          "name": "lockupLinear",
          "type": "address"
        },
        {
          "components": [
            {
              "internalType": "address",
              "name": "sender",
              "type": "address"
            },
            {
              "internalType": "address",
              "name": "recipient",
              "type": "address"
            },
            {
              "internalType": "uint128",
              "name": "totalAmount",
              "type": "uint128"
            },
            {
              "internalType": "contract IERC20",
              "name": "asset",
              "type": "address"
            },
            {
              "internalType": "bool",
              "name": "cancelable",
              "type": "bool"
            },
            {
              "components": [
                {
                  "internalType": "uint40",
                  "name": "cliff",
                  "type": "uint40"
                },
                {
                  "internalType": "uint40",
                  "name": "total",
                  "type": "uint40"
                }
              ],
              "internalType": "struct LockupLinear.Durations",
              "name": "durations",
              "type": "tuple"
            },
            {
              "components": [
                {
                  "internalType": "address",
                  "name": "account",
                  "type": "address"
                },
                {
                  "internalType": "UD60x18",
                  "name": "fee",
                  "type": "uint256"
                }
              ],
              "internalType": "struct Broker",
              "name": "broker",
              "type": "tuple"
            }
          ],
          "internalType": "struct LockupLinear.CreateWithDurations",
          "name": "createParams",
          "type": "tuple"
        },
        {
          "internalType": "bytes",
          "name": "transferData",
          "type": "bytes"
        }
      ],
      "name": "createWithDurations",
      "outputs": [
        {
          "internalType": "uint256",
          "name": "streamId",
          "type": "uint256"
        }
      ],
      "stateMutability": "nonpayable",
      "type": "function"
    },
    {
      "inputs": [
        {
          "internalType": "contract ISablierV2LockupDynamic",
          "name": "dynamic",
          "type": "address"
        },
        {
          "components": [
            {
              "internalType": "address",
              "name": "sender",
              "type": "address"
            },
            {
              "internalType": "uint40",
              "name": "startTime",
              "type": "uint40"
            },
            {
              "internalType": "bool",
              "name": "cancelable",
              "type": "bool"
            },
            {
              "internalType": "address",
              "name": "recipient",
              "type": "address"
            },
            {
              "internalType": "uint128",
              "name": "totalAmount",
              "type": "uint128"
            },
            {
              "internalType": "contract IERC20",
              "name": "asset",
              "type": "address"
            },
            {
              "components": [
                {
                  "internalType": "address",
                  "name": "account",
                  "type": "address"
                },
                {
                  "internalType": "UD60x18",
                  "name": "fee",
                  "type": "uint256"
                }
              ],
              "internalType": "struct Broker",
              "name": "broker",
              "type": "tuple"
            },
            {
              "components": [
                {
                  "internalType": "uint128",
                  "name": "amount",
                  "type": "uint128"
                },
                {
                  "internalType": "UD2x18",
                  "name": "exponent",
                  "type": "uint64"
                },
                {
                  "internalType": "uint40",
                  "name": "milestone",
                  "type": "uint40"
                }
              ],
              "internalType": "struct LockupDynamic.Segment[]",
              "name": "segments",
              "type": "tuple[]"
            }
          ],
          "internalType": "struct LockupDynamic.CreateWithMilestones",
          "name": "createParams",
          "type": "tuple"
        },
        {
          "internalType": "bytes",
          "name": "transferData",
          "type": "bytes"
        }
      ],
      "name": "createWithMilestones",
      "outputs": [
        {
          "internalType": "uint256",
          "name": "streamId",
          "type": "uint256"
        }
      ],
      "stateMutability": "nonpayable",
      "type": "function"
    },
    {
      "inputs": [
        {
          "internalType": "contract ISablierV2LockupLinear",
          "name": "lockupLinear",
          "type": "address"
        },
        {
          "components": [
            {
              "internalType": "address",
              "name": "sender",
              "type": "address"
            },
            {
              "internalType": "address",
              "name": "recipient",
              "type": "address"
            },
            {
              "internalType": "uint128",
              "name": "totalAmount",
              "type": "uint128"
            },
            {
              "internalType": "contract IERC20",
              "name": "asset",
              "type": "address"
            },
            {
              "internalType": "bool",
              "name": "cancelable",
              "type": "bool"
            },
            {
              "components": [
                {
                  "internalType": "uint40",
                  "name": "start",
                  "type": "uint40"
                },
                {
                  "internalType": "uint40",
                  "name": "cliff",
                  "type": "uint40"
                },
                {
                  "internalType": "uint40",
                  "name": "end",
                  "type": "uint40"
                }
              ],
              "internalType": "struct LockupLinear.Range",
              "name": "range",
              "type": "tuple"
            },
            {
              "components": [
                {
                  "internalType": "address",
                  "name": "account",
                  "type": "address"
                },
                {
                  "internalType": "UD60x18",
                  "name": "fee",
                  "type": "uint256"
                }
              ],
              "internalType": "struct Broker",
              "name": "broker",
              "type": "tuple"
            }
          ],
          "internalType": "struct LockupLinear.CreateWithRange",
          "name": "createParams",
          "type": "tuple"
        },
        {
          "internalType": "bytes",
          "name": "transferData",
          "type": "bytes"
        }
      ],
      "name": "createWithRange",
      "outputs": [
        {
          "internalType": "uint256",
          "name": "streamId",
          "type": "uint256"
        }
      ],
      "stateMutability": "nonpayable",
      "type": "function"
    },
    {
      "inputs": [
        {
          "internalType": "contract ISablierV2Lockup",
          "name": "lockup",
          "type": "address"
        },
        {
          "internalType": "uint256",
          "name": "streamId",
          "type": "uint256"
        }
      ],
      "name": "renounce",
      "outputs": [],
      "stateMutability": "nonpayable",
      "type": "function"
    },
    {
      "inputs": [
        {
          "internalType": "contract ISablierV2Lockup",
          "name": "lockup",
          "type": "address"
        },
        {
          "internalType": "uint256",
          "name": "streamId",
          "type": "uint256"
        },
        {
          "internalType": "address",
          "name": "to",
          "type": "address"
        },
        {
          "internalType": "uint128",
          "name": "amount",
          "type": "uint128"
        }
      ],
      "name": "withdraw",
      "outputs": [],
      "stateMutability": "nonpayable",
      "type": "function"
    },
    {
      "inputs": [
        {
          "internalType": "contract ISablierV2Lockup",
          "name": "lockup",
          "type": "address"
        },
        {
          "internalType": "uint256",
          "name": "streamId",
          "type": "uint256"
        },
        {
          "internalType": "address",
          "name": "to",
          "type": "address"
        }
      ],
      "name": "withdrawMax",
      "outputs": [],
      "stateMutability": "nonpayable",
      "type": "function"
    },
    {
      "inputs": [
        {
          "internalType": "contract ISablierV2Lockup",
          "name": "lockup",
          "type": "address"
        },
        {
          "internalType": "uint256",
          "name": "streamId",
          "type": "uint256"
        },
        {
          "internalType": "address",
          "name": "newRecipient",
          "type": "address"
        }
      ],
      "name": "withdrawMaxAndTransfer",
      "outputs": [],
      "stateMutability": "nonpayable",
      "type": "function"
    },
    {
      "inputs": [
        {
          "internalType": "contract ISablierV2Lockup",
          "name": "lockup",
          "type": "address"
        },
        {
          "internalType": "uint256[]",
          "name": "streamIds",
          "type": "uint256[]"
        },
        {
          "internalType": "address",
          "name": "to",
          "type": "address"
        },
        {
          "internalType": "uint128[]",
          "name": "amounts",
          "type": "uint128[]"
        }
      ],
      "name": "withdrawMultiple",
      "outputs": [],
      "stateMutability": "nonpayable",
      "type": "function"
    },
    {
      "inputs": [
        {
          "internalType": "contract ISablierV2LockupDynamic",
          "name": "dynamic",
          "type": "address"
        },
        {
          "components": [
            {
              "internalType": "address",
              "name": "sender",
              "type": "address"
            },
            {
              "internalType": "bool",
              "name": "cancelable",
              "type": "bool"
            },
            {
              "internalType": "address",
              "name": "recipient",
              "type": "address"
            },
            {
              "internalType": "uint128",
              "name": "totalAmount",
              "type": "uint128"
            },
            {
              "internalType": "contract IERC20",
              "name": "asset",
              "type": "address"
            },
            {
              "components": [
                {
                  "internalType": "address",
                  "name": "account",
                  "type": "address"
                },
                {
                  "internalType": "UD60x18",
                  "name": "fee",
                  "type": "uint256"
                }
              ],
              "internalType": "struct Broker",
              "name": "broker",
              "type": "tuple"
            },
            {
              "components": [
                {
                  "internalType": "uint128",
                  "name": "amount",
                  "type": "uint128"
                },
                {
                  "internalType": "UD2x18",
                  "name": "exponent",
                  "type": "uint64"
                },
                {
                  "internalType": "uint40",
                  "name": "delta",
                  "type": "uint40"
                }
              ],
              "internalType": "struct LockupDynamic.SegmentWithDelta[]",
              "name": "segments",
              "type": "tuple[]"
            }
          ],
          "internalType": "struct LockupDynamic.CreateWithDeltas",
          "name": "createParams",
          "type": "tuple"
        }
      ],
      "name": "wrapAndCreateWithDeltas",
      "outputs": [
        {
          "internalType": "uint256",
          "name": "streamId",
          "type": "uint256"
        }
      ],
      "stateMutability": "payable",
      "type": "function"
    },
    {
      "inputs": [
        {
          "internalType": "contract ISablierV2LockupLinear",
          "name": "lockupLinear",
          "type": "address"
        },
        {
          "components": [
            {
              "internalType": "address",
              "name": "sender",
              "type": "address"
            },
            {
              "internalType": "address",
              "name": "recipient",
              "type": "address"
            },
            {
              "internalType": "uint128",
              "name": "totalAmount",
              "type": "uint128"
            },
            {
              "internalType": "contract IERC20",
              "name": "asset",
              "type": "address"
            },
            {
              "internalType": "bool",
              "name": "cancelable",
              "type": "bool"
            },
            {
              "components": [
                {
                  "internalType": "uint40",
                  "name": "cliff",
                  "type": "uint40"
                },
                {
                  "internalType": "uint40",
                  "name": "total",
                  "type": "uint40"
                }
              ],
              "internalType": "struct LockupLinear.Durations",
              "name": "durations",
              "type": "tuple"
            },
            {
              "components": [
                {
                  "internalType": "address",
                  "name": "account",
                  "type": "address"
                },
                {
                  "internalType": "UD60x18",
                  "name": "fee",
                  "type": "uint256"
                }
              ],
              "internalType": "struct Broker",
              "name": "broker",
              "type": "tuple"
            }
          ],
          "internalType": "struct LockupLinear.CreateWithDurations",
          "name": "createParams",
          "type": "tuple"
        }
      ],
      "name": "wrapAndCreateWithDurations",
      "outputs": [
        {
          "internalType": "uint256",
          "name": "streamId",
          "type": "uint256"
        }
      ],
      "stateMutability": "payable",
      "type": "function"
    },
    {
      "inputs": [
        {
          "internalType": "contract ISablierV2LockupDynamic",
          "name": "dynamic",
          "type": "address"
        },
        {
          "components": [
            {
              "internalType": "address",
              "name": "sender",
              "type": "address"
            },
            {
              "internalType": "uint40",
              "name": "startTime",
              "type": "uint40"
            },
            {
              "internalType": "bool",
              "name": "cancelable",
              "type": "bool"
            },
            {
              "internalType": "address",
              "name": "recipient",
              "type": "address"
            },
            {
              "internalType": "uint128",
              "name": "totalAmount",
              "type": "uint128"
            },
            {
              "internalType": "contract IERC20",
              "name": "asset",
              "type": "address"
            },
            {
              "components": [
                {
                  "internalType": "address",
                  "name": "account",
                  "type": "address"
                },
                {
                  "internalType": "UD60x18",
                  "name": "fee",
                  "type": "uint256"
                }
              ],
              "internalType": "struct Broker",
              "name": "broker",
              "type": "tuple"
            },
            {
              "components": [
                {
                  "internalType": "uint128",
                  "name": "amount",
                  "type": "uint128"
                },
                {
                  "internalType": "UD2x18",
                  "name": "exponent",
                  "type": "uint64"
                },
                {
                  "internalType": "uint40",
                  "name": "milestone",
                  "type": "uint40"
                }
              ],
              "internalType": "struct LockupDynamic.Segment[]",
              "name": "segments",
              "type": "tuple[]"
            }
          ],
          "internalType": "struct LockupDynamic.CreateWithMilestones",
          "name": "createParams",
          "type": "tuple"
        }
      ],
      "name": "wrapAndCreateWithMilestones",
      "outputs": [
        {
          "internalType": "uint256",
          "name": "streamId",
          "type": "uint256"
        }
      ],
      "stateMutability": "payable",
      "type": "function"
    },
    {
      "inputs": [
        {
          "internalType": "contract ISablierV2LockupLinear",
          "name": "lockupLinear",
          "type": "address"
        },
        {
          "components": [
            {
              "internalType": "address",
              "name": "sender",
              "type": "address"
            },
            {
              "internalType": "address",
              "name": "recipient",
              "type": "address"
            },
            {
              "internalType": "uint128",
              "name": "totalAmount",
              "type": "uint128"
            },
            {
              "internalType": "contract IERC20",
              "name": "asset",
              "type": "address"
            },
            {
              "internalType": "bool",
              "name": "cancelable",
              "type": "bool"
            },
            {
              "components": [
                {
                  "internalType": "uint40",
                  "name": "start",
                  "type": "uint40"
                },
                {
                  "internalType": "uint40",
                  "name": "cliff",
                  "type": "uint40"
                },
                {
                  "internalType": "uint40",
                  "name": "end",
                  "type": "uint40"
                }
              ],
              "internalType": "struct LockupLinear.Range",
              "name": "range",
              "type": "tuple"
            },
            {
              "components": [
                {
                  "internalType": "address",
                  "name": "account",
                  "type": "address"
                },
                {
                  "internalType": "UD60x18",
                  "name": "fee",
                  "type": "uint256"
                }
              ],
              "internalType": "struct Broker",
              "name": "broker",
              "type": "tuple"
            }
          ],
          "internalType": "struct LockupLinear.CreateWithRange",
          "name": "createParams",
          "type": "tuple"
        }
      ],
      "name": "wrapAndCreateWithRange",
      "outputs": [
        {
          "internalType": "uint256",
          "name": "streamId",
          "type": "uint256"
        }
      ],
      "stateMutability": "payable",
      "type": "function"
    }
  ],
  "bytecode": {
    "object": "0x60a0806040523461002357306080526144a090816100298239608051816132470152f35b600080fdfe6080604052600436101561001257600080fd5b6000803560e01c80630cbbef7f14612bab57806310fad8c8146129b257806313b55f011461294a57806314296d161461258b5780631d165efc1461244b57806345188c01146121165780634c4bfa7714611ec85780636a09d49a14611ddb5780636a9c21b714611b205780636f0995f31461188b578063825976161461169957806386f2891e1461162157806387d23ff1146111fa5780638e80029914610fa157806390e2cd7914610de457806398590ef914610bc85780639dc29fac14610b4d578063a3143b7614610ad4578063aa02171414610a64578063ad26c0fb146109d9578063b956b45f1461092e578063e6a64e02146105fe578063ec5b900f14610439578063f16306121461028a5763f2bf799e1461013057600080fd5b3461023c576003199060808236011261023c5761014b612d80565b9167ffffffffffffffff6024358181116102865761016d9036906004016130be565b929091610178612d96565b90606435908111610282576101919036906004016130be565b92909661019c61323d565b6001600160a01b0380911694853b1561027e576101ef9060409995949951977fa2ffb897000000000000000000000000000000000000000000000000000000008952606060048a01526064890191613200565b9716602486015284870301604485015280865260208096019195855b82811061024a57868087818180890381838c5af1801561023f5761022c5750f35b61023590612e25565b61023c5780f35b80fd5b6040513d84823e3d90fd5b90919282806001926fffffffffffffffffffffffffffffffff61026c8c612f34565b1681520198019101969291909661020b565b8780fd5b8580fd5b8380fd5b503461023c57604060031936011261023c5767ffffffffffffffff600435818111610435576102bd9036906004016130be565b916024918235828111610282576102d89036906004016130be565b9390926102e361323d565b851561040b5786906102f586866140df565b93825b88811061030e578361030b89898961422c565b80f35b610319818a84613191565b356001600160a01b03811680910361040757610336828b85613191565b60209081810135907fffffffffffffffffffffffffffffffffffffffffffffffffffffffffffffffe18136030182121561027e570180359086821161027e578201928160051b3603841361027e57803b1561027e57888880946103cc604051978896879586947f8659c2700000000000000000000000000000000000000000000000000000000086526004860152840191613200565b03925af19081156103fc5785916103e8575b50506001016102f8565b6103f190612e25565b6102865783386103de565b6040513d87823e3d90fd5b8480fd5b60046040517f71594532000000000000000000000000000000000000000000000000000000008152fd5b8280fd5b506003199060408236011261023c57610450612d80565b916024359067ffffffffffffffff9081831161028657610100908336030112610435576040519061048082612dda565b61048c83600401612f01565b825261049a60248401612f76565b94602095868401526104ae60448501612f01565b60408401526104bf60648501612f34565b91606084019283526104d360848601612f01565b94608085019586526104e83660a48301612f95565b60a086015260e48101359182116105fa570136602382011215610282579261056d6105a2938796936105258a973690602460048201359101612ff1565b60c085015261053261323d565b6fffffffffffffffffffffffffffffffff9081341683526001600160a01b03809161055f8289511661430b565b169551169151169084613efd565b6040519485809481937fbf061d0a00000000000000000000000000000000000000000000000000000000835260048301613890565b03925af19182156105ee57916105bc575b50604051908152f35b90508181813d83116105e7575b6105d38183612eaa565b810103126105e25751386105b3565b600080fd5b503d6105c9565b604051903d90823e3d90fd5b8680fd5b503461023c5760808060031936011261092a57610619612d80565b90610622612eeb565b906044359067ffffffffffffffff938483116102825736602384011215610282578260040135948086116105fa576024840193602436918860081b0101116105fa576064359081116105fa5761067c903690600401612dac565b505061068661323d565b841561040b578591865b8681106108ed57506001600160a01b0380921661070c836106af6141ad565b9516610705604051866020987f23b872dd000000000000000000000000000000000000000000000000000000008a840152166024820152306044820152826064820152606481526106ff81612e8e565b89613349565b8783613efd565b61071587613609565b9683899716965b81811061073557604051806107318b82613083565b0390f35b60c0908161074482858b6135dc565b0183606093818c8c86886107598286856135dc565b0161076390613658565b9361076d926135dc565b968d8d8d8161077d8b8a866135dc565b0161078790613665565b928a610794818b846135dc565b61079d90613665565b996107a7926135dc565b6040016107b3906135ec565b9281604051996107c28b612dda565b16895216908701526fffffffffffffffffffffffffffffffff1660408601528401521515888301528436037fffffffffffffffffffffffffffffffffffffffffffffffffffffffffffffff80016040136105e2576108548a9361088d966040519061082c82612e72565b6108378c8201612f83565b825261084660a0809201612f83565b878301528501523690612f95565b908201528c60405180809681947f1b4103a900000000000000000000000000000000000000000000000000000000835260048301613679565b0391885af180156108e2578b906108b4575b600192506108ad828c613712565b520161071c565b508682813d83116108db575b6108ca8183612eaa565b810103126105e2576001915161089f565b503d6108c0565b6040513d8d823e3d90fd5b926001600160a01b036001916fffffffffffffffffffffffffffffffff610920604061091a898d8c6135dc565b016135ec565b1601169301610690565b5080fd5b503461023c57608060031936011261023c5780610949612d80565b610951612d96565b610959612f15565b9161096261323d565b6001600160a01b03809116803b15610407578492836064926fffffffffffffffffffffffffffffffff60405197889687957ffdd46d6000000000000000000000000000000000000000000000000000000000875260243560048801521660248601521660448401525af1801561023f5761022c5750f35b503461023c57806001600160a01b036109f13661315d565b9290916109fc61323d565b1691823b15610a5f576040517fc156a11d00000000000000000000000000000000000000000000000000000000815260048101929092526001600160a01b031660248201529082908290818381604481015b03925af1801561023f5761022c5750f35b505050fd5b503461023c576003199060608236011261023c57610a80612d80565b916024359167ffffffffffffffff9182841161092a5761010090843603011261023c5760443591821161023c576020610acc8585610ac13660048801612dac565b505060040190613aed565b604051908152f35b503461023c57806001600160a01b03610aec3661315d565b929091610af761323d565b1691823b15610a5f576040517fea5ead1900000000000000000000000000000000000000000000000000000000815260048101929092526001600160a01b03166024820152908290829081838160448101610a4e565b503461023c57604060031936011261023c57806001600160a01b03610b70612d80565b610b7861323d565b16803b15610bc5578180916024604051809481937f42966c68000000000000000000000000000000000000000000000000000000008352833560048401525af1801561023f5761022c5750f35b50fd5b503461023c57604060031936011261023c57610be2612d80565b602435610bed61323d565b6001600160a01b0380921691604051917feac8f5b8000000000000000000000000000000000000000000000000000000008352806004840152846020928385602481895afa94851561023f578295610dac575b50841691604051957f70a0823100000000000000000000000000000000000000000000000000000000918288523060048901528588602481885afa978815610da1578498610d6e575b50813b156102865783916024839260405196879384927f40e58ee500000000000000000000000000000000000000000000000000000000845260048401525af1928315610d61578593610d48575b505060246040518094819382523060048301525afa9182156103fc578592610d18575b505061030b92610d0991613299565b90610d126141ad565b906132d5565b90809250813d8311610d41575b610d2f8183612eaa565b810103126105e2575182610d09610cfa565b503d610d25565b610d5491929350612e25565b6102825782908638610cd7565b50604051903d90823e3d90fd5b86809299508195503d8311610d9a575b610d888183612eaa565b810103126105e2578792519638610c89565b503d610d7e565b6040513d86823e3d90fd5b9094508381813d8311610ddd575b610dc48183612eaa565b8101031261092a5751848116810361092a579338610c40565b503d610dba565b5061014060031936011261023c57610dfa612d80565b906101207fffffffffffffffffffffffffffffffffffffffffffffffffffffffffffffffdc36011261023c5760405191610e3383612dda565b610e3b612eeb565b8352610e45612d96565b9260209384820152610e55612f15565b9060408101918252610e65612f51565b60608201908152610e74612f67565b608083015260407fffffffffffffffffffffffffffffffffffffffffffffffffffffffffffffff3c3601126105e257604051610eaf81612e72565b64ffffffffff60c43581811681036105e257825260e43590811681036105e2578782015260a083015260407ffffffffffffffffffffffffffffffffffffffffffffffffffffffffffffffefc3601126105e25760405191610f0f83612e72565b610104356001600160a01b039485821682036105e2578796899686610f6c946105a29852610124358982015260c0860152610f4861323d565b806fffffffffffffffffffffffffffffffff92833416855261055f8289511661430b565b6040519485809481937f1b4103a900000000000000000000000000000000000000000000000000000000835260048301613679565b503461023c5760031960a08136011261092a57610fbc612d80565b9160243591610fc9612d96565b916064359167ffffffffffffffff908184116104355761012090843603011261092a5760843590811161092a57611004903690600401612dac565b505061100e61323d565b61101661323d565b6001600160a01b0380951690604051947feac8f5b80000000000000000000000000000000000000000000000000000000086528060048701526020968787602481875afa9687156111ef5783976111b7575b50861690604051937f70a0823100000000000000000000000000000000000000000000000000000000918286523060048701528986602481875afa9586156103fc578596611188575b50813b156104075784916024839260405194859384927f40e58ee500000000000000000000000000000000000000000000000000000000845260048401525af18015610da157899291859161116f575b505060246040518094819382523060048301525afa9182156105ee579161113e575b5093610d0961113592610acc96613299565b60040190613d70565b9490508585813d8311611168575b6111568183612eaa565b810103126105e2579351610d09611123565b503d61114c565b61117b91929350612e25565b6104355787908338611101565b9095508981813d83116111b0575b6111a08183612eaa565b810103126105e2575194386110b1565b503d611196565b9096508781813d83116111e8575b6111cf8183612eaa565b8101031261043557518681168103610435579538611068565b503d6111c5565b6040513d85823e3d90fd5b503461023c576101c060031936011261023c57611215612d80565b6024803591611222612d96565b6101407fffffffffffffffffffffffffffffffffffffffffffffffffffffffffffffff9c360112610407576101a43567ffffffffffffffff81116102825761126e903690600401612dac565b505061127861323d565b61128061323d565b6001600160a01b03809216604051907feac8f5b800000000000000000000000000000000000000000000000000000000825285600483015260209586838781855afa92831561158e5788936115e9575b508785841691604051937f70a0823100000000000000000000000000000000000000000000000000000000918286523060048701528a868b81885afa958615610da15784966115b6575b50813b156102865783918a839260405196879384927f40e58ee500000000000000000000000000000000000000000000000000000000845260048401525af1928315610d61578a93611599575b5050876040518094819382523060048301525afa90811561158e578596979891611556575b5061139b9291610d0991613299565b6113a361323d565b169060c435818116908181036105e25760a435906fffffffffffffffffffffffffffffffff82168092036105e257816114359161142f6113e16141ad565b87604051917f23b872dd000000000000000000000000000000000000000000000000000000008d840152168a8201523060448201528360648201526064815261142981612e8e565b82613349565b86613efd565b604051947f4bc78b730000000000000000000000000000000000000000000000000000000086526064358481168091036105e2576004870152608435908482168092036105e2578601526044850152606484015260e4358015158091036105e25760848401526101049081359064ffffffffff918281168091036105e25760a48601526101249283358381168091036105e25760c48701526101449283359081168091036105e25760e4870152610164359182168092036105e25786948694859360009385015261018435908401525af190811561154a5760009161151d5750604051908152f35b908282813d8311611543575b6115338183612eaa565b8101031261023c575051386105b3565b503d611529565b6040513d6000823e3d90fd5b9450909190508684813d8111611587575b6115718183612eaa565b810103126105e25792518493919061139b61138c565b503d611567565b6040513d8a823e3d90fd5b6115a591929350612e25565b6115b25787908938611367565b8880fd5b8b809297508195503d83116115e2575b6115d08183612eaa565b810103126105e2578a9251943861131a565b503d6115c6565b9092508681813d831161161a575b6116018183612eaa565b8101031261027e5751848116810361027e5791386112d0565b503d6115f7565b503461023c57604060031936011261023c57806001600160a01b03611644612d80565b61164c61323d565b16803b15610bc5578180916024604051809481937f7de6b1db000000000000000000000000000000000000000000000000000000008352833560048401525af1801561023f5761022c5750f35b503461023c5761018060031936011261023c576116b4612d80565b906101407fffffffffffffffffffffffffffffffffffffffffffffffffffffffffffffffdc36011261023c57610164359067ffffffffffffffff821161023c5750611703903690600401612dac565b505061170d61323d565b608435906001600160a01b038281169181168284036105e257606435926fffffffffffffffffffffffffffffffff84168094036105e2576117a5846117506141ad565b9661179f6040518760209a7f23b872dd000000000000000000000000000000000000000000000000000000008c8401521660248201523060448201528360648201526064815261142981612e8e565b84613efd565b604051937f4bc78b730000000000000000000000000000000000000000000000000000000085526024358481168091036105e25760048601526044358481168091036105e25760248601526044850152606484015260a4358015158091036105e257608484015260c4359164ffffffffff928381168091036105e25760a485015260e4358381168091036105e25760c48501526101049283359081168091036105e25760e48501526101249081359081168091036105e2576000859384928896840152610144938435908401525af190811561154a5760009161151d5750604051908152f35b503461023c5761189a366130ef565b505090926118a661323d565b811561040b578490855b838110611ae957506001600160a01b0361193a9116916119336001600160a01b036118d96141ad565b9216916001600160a01b03604051917f23b872dd0000000000000000000000000000000000000000000000000000000060208401521660248201523060448201528260648201526064815261192d81612e8e565b86613349565b8483613efd565b61194382613609565b93855b83811061195b57604051806107318882613083565b6119668185846137fc565b608001906119758186856137fc565b60200161198190613658565b61198c8287866137fc565b60400161199890613665565b926119a48388876137fc565b60c081016119b19161383c565b9190926119bf858a896137fc565b6119c890613665565b956119d4868b8a6137fc565b6060016119e0906135ec565b91604051976119ee89612dda565b6001600160a01b03168852151560208801526001600160a01b031660408701526fffffffffffffffffffffffffffffffff1660608601526001600160a01b038916608086015236611a3e91612f95565b60a08501523690611a4e92612ff1565b60c0830152836040518080947fbf061d0a0000000000000000000000000000000000000000000000000000000082526004820190611a8b91613890565b03818b5a94602095f1801561158e578890611ab6575b60019250611aaf8289613712565b5201611946565b506020823d602011611ae1575b81611ad060209383612eaa565b810103126105e25760019151611aa1565b3d9150611ac3565b916001600160a01b036001916fffffffffffffffffffffffffffffffff611b16606061091a888a8d6137fc565b16011692016118b0565b503461023c57611b2f366130ef565b5050909192611b3c61323d565b811561040b5784805b838210611da457611bce9150611bbe6001600160a01b03611b646141ad565b9216916001600160a01b03604051917f23b872dd00000000000000000000000000000000000000000000000000000000602084015216602482015230604482015282606482015260648152611bb881612e8e565b87613349565b856001600160a01b038416613efd565b611bd782613609565b93855b838110611bef57604051806107318882613083565b60a0611bfc828688613996565b0190611c146040611c0e83888a613996565b01613658565b86611c2b6060611c25858a85613996565b01613665565b91611c44611c3a858a85613996565b60e081019061383c565b6020611c64878c611c5e611c5983838b613996565b613665565b97613996565b01359464ffffffffff86168603611da057611d3c976fffffffffffffffffffffffffffffffff611cc7966001600160a01b038f948f9864ffffffffff60209c848f608061091a611d049f92611cbc93611cf89e613996565b966040519e8f612e39565b168d52168c8c0152151560408b01521660608901521660808701526001600160a01b038a1660a08701523690612f95565b60c08501523691612ff1565b60e0820152604051809481927f21714be1000000000000000000000000000000000000000000000000000000008352600483016139d6565b03818b6001600160a01b0389165af1801561158e578890611d6d575b60019250611d668289613712565b5201611bda565b506020823d602011611d98575b81611d8760209383612eaa565b810103126105e25760019151611d58565b3d9150611d7a565b8d80fd5b6001600160a01b036001916fffffffffffffffffffffffffffffffff611dd0608061091a878a8c613996565b160116910190611b45565b503461023c57606060031936011261023c57611df5612d80565b8167ffffffffffffffff60243581811161043557611e179036906004016130be565b92909160443590811161092a57611e329036906004016130be565b611e3a61323d565b6001600160a01b03611e4c86866140df565b961691823b1561028657611e9a928492836040518096819582947f8659c270000000000000000000000000000000000000000000000000000000008452602060048501526024840191613200565b03925af1801561023f57611eb4575b505061030b9261422c565b611ebd90612e25565b610286578338611ea9565b503461023c5760031960a08136011261092a57611ee3612d80565b9160243591611ef0612d96565b916064359167ffffffffffffffff908184116104355761010090843603011261092a5760843590811161092a57611f2b903690600401612dac565b5050611f3561323d565b611f3d61323d565b6001600160a01b0380951690604051947feac8f5b80000000000000000000000000000000000000000000000000000000086528060048701526020968787602481875afa9687156111ef5783976120de575b50861690604051937f70a0823100000000000000000000000000000000000000000000000000000000918286523060048701528986602481875afa9586156103fc5785966120af575b50813b156104075784916024839260405194859384927f40e58ee500000000000000000000000000000000000000000000000000000000845260048401525af18015610da1578992918591612096575b505060246040518094819382523060048301525afa9182156105ee5791612065575b5093610d0961205c92610acc96613299565b60040190613aed565b9490508585813d831161208f575b61207d8183612eaa565b810103126105e2579351610d0961204a565b503d612073565b6120a291929350612e25565b6104355787908338612028565b9095508981813d83116120d7575b6120c78183612eaa565b810103126105e257519438611fd8565b503d6120bd565b9096508781813d831161210f575b6120f68183612eaa565b8101031261043557518681168103610435579538611f8f565b503d6120ec565b503461023c5760808060031936011261092a57612131612d80565b9161213a612eeb565b60443567ffffffffffffffff938482116102865736602383011215610286578160040135948086116104075760248301926024369161012089020101116104075760643590811161040757612193903690600401612dac565b505061219d61323d565b841561040b579091839190825b86811061240f57506001600160a01b03809716612226886121c96141ad565b951661221f6040518b6020987f23b872dd000000000000000000000000000000000000000000000000000000008a8401521660248201523060448201528260648201526064815261221981612e8e565b85613349565b8383613efd565b61222f87613609565b9688879316925b81811061224b57604051806107318b82613083565b806122588392838a613726565b60e0018260608d8161226b86858f613726565b0161227590613658565b908b8d87612284818884613726565b9961228e92613726565b0161229890613665565b908d876122a6818884613726565b6122af90613665565b966122b992613726565b6040016122c5906135ec565b9181604051966122d488612dda565b168652168c8501526fffffffffffffffffffffffffffffffff16604084015288828401521515898301528436037fffffffffffffffffffffffffffffffffffffffffffffffffffffffffffffff8001126105e2576123ae936123778a9360405161233d81612e56565b6123488c8501612f83565b815260a0612357818601612f83565b8783015261236860c0809601612f83565b60408301528501523690612f95565b90820152604051809481927f4bc78b7300000000000000000000000000000000000000000000000000000000835260048301613737565b03818c885af180156124045789906123d6575b600192506123cf828c613712565b5201612236565b508682813d83116123fd575b6123ec8183612eaa565b810103126105e257600191516123c1565b503d6123e2565b6040513d8b823e3d90fd5b926001600160a01b036001916fffffffffffffffffffffffffffffffff61243e604061091a898d8c999c613726565b16011693019390936121aa565b506003199060408236011261023c57612462612d80565b916024359067ffffffffffffffff9081831161028657610120908336030112610435576040519061249282612e39565b61249e83600401612f01565b82526124ac60248401612f83565b94602095868401526124c060448501612f76565b60408401526124d160648501612f01565b60608401526124e260848501612f34565b91608084019283526124f660a48601612f01565b9460a0850195865261250b3660c48301612f95565b60c08601526101048101359182116105fa57013660238201121561028257926125566105a2938796936125498a973690602460048201359101612ff1565b60e085015261053261323d565b6040519485809481937f21714be1000000000000000000000000000000000000000000000000000000008352600483016139d6565b503461023c576101a060031936011261023c576125a6612d80565b60248035916125b3612d96565b6101207fffffffffffffffffffffffffffffffffffffffffffffffffffffffffffffff9c360112610407576101843567ffffffffffffffff8111610282576125ff903690600401612dac565b505061260961323d565b61261161323d565b6040517feac8f5b8000000000000000000000000000000000000000000000000000000008152600481018590526020946001600160a01b0393841686838781845afa92831561158e578893612912575b508483169088604051937f70a0823100000000000000000000000000000000000000000000000000000000928386523060048701528a868b81885afa9586156111ef5783966128e3575b50803b156104355789839260405194859384927f40e58ee500000000000000000000000000000000000000000000000000000000845260048401525af180156128d8576128c5575b508790876040518094819382523060048301525afa90811561158e57859697989161288d575b506127289291610d0991613299565b61273061323d565b1660c435828116908181036105e25760a435906fffffffffffffffffffffffffffffffff82168092036105e257816127bb916127b561276d6141ad565b88604051917f23b872dd000000000000000000000000000000000000000000000000000000008d840152168a8201523060448201528360648201526064815261142981612e8e565b85613efd565b604051947f1b4103a90000000000000000000000000000000000000000000000000000000086526064358581168091036105e2576004870152608435908582168092036105e2578601526044850152606484015260e4358015158091036105e257608484015264ffffffffff6101048035828116908190036105e25760a48601526101249182359081168091036105e25760c4860152610144359384168094036105e257600085938492889660e485015261016435908401525af190811561154a5760009161151d5750604051908152f35b9450909190508684813d81116128be575b6128a88183612eaa565b810103126105e257925184939190612728612719565b503d61289e565b986128d189929a612e25565b98906126f3565b6040513d8c823e3d90fd5b9095508a81813d831161290b575b6128fb8183612eaa565b81010312610435575194386126ab565b503d6128f1565b9092508681813d8311612943575b61292a8183612eaa565b8101031261027e5751848116810361027e579138612661565b503d612920565b503461023c576003199060608236011261023c57612966612d80565b916024359167ffffffffffffffff9182841161092a5761012090843603011261023c5760443591821161023c576020610acc85856129a73660048801612dac565b505060040190613d70565b5061016060031936011261023c576129c8612d80565b906101407fffffffffffffffffffffffffffffffffffffffffffffffffffffffffffffffdc36011261023c5760405191612a0183612dda565b612a09612eeb565b8352612a13612d96565b9260209384820152612a23612f15565b60408201908152612a32612f51565b9260608301938452612a42612f67565b608084015260607fffffffffffffffffffffffffffffffffffffffffffffffffffffffffffffff3c36011261040757604051612a7d81612e56565b64ffffffffff60c435818116810361027e57825260e435818116810361027e57888301526101043590811681036105fa57604082015260a084015260407ffffffffffffffffffffffffffffffffffffffffffffffffffffffffffffffedc36011261040757604051612aee81612e72565b6001600160a01b039061012435828116810361027e579387969389969383612b5f97612b2a9552610144358982015260c0860152610f4861323d565b6040519485809481937f4bc78b7300000000000000000000000000000000000000000000000000000000835260048301613737565b03925af19182156105ee578092612b7b575b5050604051908152f35b9091508282813d8311612ba4575b612b938183612eaa565b8101031261023c5750513880612b71565b503d612b89565b503461023c5761016060031936011261023c57612bc6612d80565b906101207fffffffffffffffffffffffffffffffffffffffffffffffffffffffffffffffdc36011261023c576101443567ffffffffffffffff811161092a57612c13903690600401612dac565b5050612c1d61323d565b608435916001600160a01b0383811691811682850361028657606435926fffffffffffffffffffffffffffffffff841680940361040757612caf84612c606141ad565b9761179f6040518760209b7f23b872dd000000000000000000000000000000000000000000000000000000008d8401521660248201523060448201528360648201526064815261142981612e8e565b604051937f1b4103a90000000000000000000000000000000000000000000000000000000085526024358481168091036105fa5760048601526044358481168091036105fa5760248601526044850152606484015260a43580151580910361040757608484015260c43564ffffffffff908181168091036102825760a485015260e4359081168091036104075760c4840152610104918235908116809103610407579183858193889560e4840152610124938435908401525af19182156105ee578092612b7b575050604051908152f35b600435906001600160a01b03821682036105e257565b604435906001600160a01b03821682036105e257565b9181601f840112156105e25782359167ffffffffffffffff83116105e257602083818601950101116105e257565b60e0810190811067ffffffffffffffff821117612df657604052565b7f4e487b7100000000000000000000000000000000000000000000000000000000600052604160045260246000fd5b67ffffffffffffffff8111612df657604052565b610100810190811067ffffffffffffffff821117612df657604052565b6060810190811067ffffffffffffffff821117612df657604052565b6040810190811067ffffffffffffffff821117612df657604052565b60a0810190811067ffffffffffffffff821117612df657604052565b90601f7fffffffffffffffffffffffffffffffffffffffffffffffffffffffffffffffe0910116810190811067ffffffffffffffff821117612df657604052565b602435906001600160a01b03821682036105e257565b35906001600160a01b03821682036105e257565b606435906fffffffffffffffffffffffffffffffff821682036105e257565b35906fffffffffffffffffffffffffffffffff821682036105e257565b608435906001600160a01b03821682036105e257565b60a4359081151582036105e257565b359081151582036105e257565b359064ffffffffff821682036105e257565b91908260409103126105e257604051612fad81612e72565b6020808294612fbb81612f01565b84520135910152565b67ffffffffffffffff8111612df65760051b60200190565b359067ffffffffffffffff821682036105e257565b929192612ffd82612fc4565b60409461300c86519283612eaa565b819584835260208093019160608096028501948186116105e257925b8584106130385750505050505050565b86848303126105e257848791845161304f81612e56565b61305887612f34565b8152613065838801612fdc565b83820152613074868801612f83565b86820152815201930192613028565b6020908160408183019282815285518094520193019160005b8281106130aa575050505090565b83518552938101939281019260010161309c565b9181601f840112156105e25782359167ffffffffffffffff83116105e2576020808501948460051b0101116105e257565b60806003198201126105e2576001600160a01b039160043583811681036105e2579260243590811681036105e2579167ffffffffffffffff916044358381116105e2578261313f916004016130be565b939093926064359182116105e25761315991600401612dac565b9091565b60031960609101126105e2576001600160a01b0360043581811681036105e257916024359160443590811681036105e25790565b91908110156131d15760051b810135907fffffffffffffffffffffffffffffffffffffffffffffffffffffffffffffffc1813603018212156105e2570190565b7f4e487b7100000000000000000000000000000000000000000000000000000000600052603260045260246000fd5b90918281527f07ffffffffffffffffffffffffffffffffffffffffffffffffffffffffffffff83116105e25760209260051b809284830137010190565b6001600160a01b037f000000000000000000000000000000000000000000000000000000000000000016301461326f57565b60046040517fbbff6135000000000000000000000000000000000000000000000000000000008152fd5b919082039182116132a657565b7f4e487b7100000000000000000000000000000000000000000000000000000000600052601160045260246000fd5b6040517fa9059cbb0000000000000000000000000000000000000000000000000000000060208201526001600160a01b0392909216602483015260448083019390935291815261332f9161332a606483612eaa565b613349565b565b908160209103126105e2575180151581036105e25790565b6040516133a7916001600160a01b031661336282612e72565b6000806020958685527f5361666545524332303a206c6f772d6c6576656c2063616c6c206661696c656487860152868151910182855af16133a161345c565b916134ba565b805190828215928315613444575b505050156133c05750565b608490604051907f08c379a00000000000000000000000000000000000000000000000000000000082526004820152602a60248201527f5361666545524332303a204552433230206f7065726174696f6e20646964206e60448201527f6f742073756363656564000000000000000000000000000000000000000000006064820152fd5b6134549350820181019101613331565b3882816133b5565b3d156134b5573d9067ffffffffffffffff8211612df657604051916134a960207fffffffffffffffffffffffffffffffffffffffffffffffffffffffffffffffe0601f8401160184612eaa565b82523d6000602084013e565b606090565b9192901561353557508151156134ce575090565b3b156134d75790565b60646040517f08c379a000000000000000000000000000000000000000000000000000000000815260206004820152601d60248201527f416464726573733a2063616c6c20746f206e6f6e2d636f6e74726163740000006044820152fd5b8251909150156135485750805190602001fd5b604051907f08c379a000000000000000000000000000000000000000000000000000000000825281602080600483015282519283602484015260005b8481106135c5575050507fffffffffffffffffffffffffffffffffffffffffffffffffffffffffffffffe0601f836000604480968601015201168101030190fd5b818101830151868201604401528593508201613584565b91908110156131d15760081b0190565b356fffffffffffffffffffffffffffffffff811681036105e25790565b9061361382612fc4565b6136206040519182612eaa565b8281527fffffffffffffffffffffffffffffffffffffffffffffffffffffffffffffffe061364e8294612fc4565b0190602036910137565b3580151581036105e25790565b356001600160a01b03811681036105e25790565b61332f9092919260e060c06101208301956001600160a01b038082511685528060208301511660208601526fffffffffffffffffffffffffffffffff6040830151166040860152606082015116606085015260808101511515608085015260a0810151602064ffffffffff918281511660a0880152015116828501520151910190602080916001600160a01b0381511684520151910152565b80518210156131d15760209160051b010190565b91908110156131d157610120020190565b61332f9092919261010060c06101408301956001600160a01b038082511685528060208301511660208601526fffffffffffffffffffffffffffffffff6040830151166040860152606082015116606085015260808101511515608085015260a0810151604064ffffffffff918281511660a0880152826020820151168588015201511660e08501520151910190602080916001600160a01b0381511684520151910152565b602080916001600160a01b036137f282612f01565b1684520135910152565b91908110156131d15760051b810135907fffffffffffffffffffffffffffffffffffffffffffffffffffffffffffffff21813603018212156105e2570190565b9035907fffffffffffffffffffffffffffffffffffffffffffffffffffffffffffffffe1813603018212156105e2570180359067ffffffffffffffff82116105e2576020019160608202360383136105e257565b9060208083526101208301908061014060c06001600160a01b0395868151168489015283810151151560408901526040810151968060609816888a01526fffffffffffffffffffffffffffffffff888301511660808a015260808201511660a089015261391760a0820151838a0190602080916001600160a01b0381511684520151910152565b015195610100808201528651809552019401926000905b83821061393d57505050505090565b90919293948382826139896001948a5164ffffffffff604080926fffffffffffffffffffffffffffffffff815116855267ffffffffffffffff6020820151166020860152015116910152565b019601949392019061392e565b91908110156131d15760051b810135907fffffffffffffffffffffffffffffffffffffffffffffffffffffffffffffff01813603018212156105e2570190565b9060208083526101408301908061016060e06001600160a01b0395868151168489015264ffffffffff848201511660408901526040810151966060971515888a015280888301511660808a01526fffffffffffffffffffffffffffffffff60808301511660a08a015260a08201511660c0890152613a6e60c0820151838a0190602080916001600160a01b0381511684520151910152565b015195610120808201528651809552019401926000905b838210613a9457505050505090565b9091929394838282613ae06001948a5164ffffffffff604080926fffffffffffffffffffffffffffffffff815116855267ffffffffffffffff6020820151166020860152015116910152565b0196019493920190613a85565b90613af661323d565b7f23b872dd000000000000000000000000000000000000000000000000000000006001600160a01b03809316926080830193613b3185613665565b936060613c39818301926fffffffffffffffffffffffffffffffff95613b9987613b5a876135ec565b16613b636141ad565b9a613b936040518560209e8f9e8f8401521660248201523060448201528360648201526064815261142981612e8e565b88613efd565b613c196040519a8b987fbf061d0a000000000000000000000000000000000000000000000000000000008a528a60048b0152613c0e6101248b019885613bde88612f01565b1660248d0152613bef8d8801612f76565b151560448d015285613c0360408901612f01565b1660648d0152612f34565b1660848a0152612f01565b1660a4870152613c2f60c4870160a083016137dd565b60e0810190613ccc565b809193610100610104880152526101448501929160005b828110613ca55750505050600083809203925af190811561154a57600091613c79575b50905090565b82813d8311613c9e575b613c8d8183612eaa565b8101031261023c5750518038613c73565b503d613c83565b9295506001919496508084613cbb829689613d1f565b019501910192879492879694613c50565b90357fffffffffffffffffffffffffffffffffffffffffffffffffffffffffffffffe1823603018112156105e257016020813591019167ffffffffffffffff82116105e25760608202360383136105e257565b64ffffffffff613d6a604080936fffffffffffffffffffffffffffffffff613d4682612f34565b16865267ffffffffffffffff613d5e60208301612fdc565b16602087015201612f83565b16910152565b907f23b872dd00000000000000000000000000000000000000000000000000000000613e7692613d9e61323d565b6001600160a01b0380911660a0840191613db783613665565b94613e9760808201916fffffffffffffffffffffffffffffffff93613ddf85613b5a866135ec565b604051998a977f21714be10000000000000000000000000000000000000000000000000000000089528960048a015261014489019683613e1e86612f01565b1660248b015264ffffffffff613e358c8701612f83565b1660448b0152613e4760408601612f76565b151560648b0152613e6b60609785613e608a8901612f01565b1660848d0152612f34565b1660a48a0152612f01565b1660c4870152613e8c60e4870160c083016137dd565b610100810190613ccc565b809193610120610124880152526101648501929160005b828110613ed65750505050600083809203925af190811561154a57600091613c795750905090565b9295506001919496508084613eec829689613d1f565b019501910192879492879694613eae565b91906001600160a01b039283821690604051947fdd62ed3e0000000000000000000000000000000000000000000000000000000086523060048701528116918260248701526020958681604481855afa801561154a57869160009161409f575b5010613f6c575b505050505050565b60008060405196613fee88613fc28b8201937f095ea7b3000000000000000000000000000000000000000000000000000000009889865260248401602090939291936001600160a01b0360408201951681520152565b037fffffffffffffffffffffffffffffffffffffffffffffffffffffffffffffffe081018a5289612eaa565b87519082855af190613ffe61345c565b8261406c575b5081614061575b5015614018575b80613f64565b60405194850152602484015260006044840152604483526080830183811067ffffffffffffffff821117612df6576140579361332a9160405282613349565b3880808080614012565b90503b15153861400b565b809192505190878215928315614087575b5050509038614004565b6140979350820181019101613331565b38878161407d565b91508782813d83116140c8575b6140b68183612eaa565b8101031261023c575085905138613f5d565b503d6140ac565b91908110156131d15760051b0190565b9190916140eb83613609565b9260005b8181106140fb57505050565b6001600160a01b03614111611c598385876140cf565b16906040805180937f70a0823100000000000000000000000000000000000000000000000000000000825230600483015281602460209687935afa9182156141a35750600091614172575b506001925061416b8288613712565b52016140ef565b919282813d831161419c575b6141888183612eaa565b8101031261023c575090600191513861415c565b503d61417e565b513d6000823e3d90fd5b6040517f8da5cb5b000000000000000000000000000000000000000000000000000000008152602081600481305afa90811561154a576000916141ee575090565b6020813d8211614224575b8161420660209383612eaa565b8101031261092a5751906001600160a01b038216820361023c575090565b3d91506141f9565b909160005b81811061423e5750505050565b6001600160a01b03614254611c598385886140cf565b16906040805180937f70a0823100000000000000000000000000000000000000000000000000000000825230600483015281602460209687935afa9182156141a357506000916142d8575b50600192506142bc6142d2916142b58488613712565b5190613299565b6142ca611c5984878a6140cf565b610d126141ad565b01614231565b919282813d8311614304575b6142ee8183612eaa565b8101031261023c575051600191906142bc61429f565b503d6142e4565b6001600160a01b031660409081517f70a08231000000000000000000000000000000000000000000000000000000008082526000903060048401526020908184602481885afa938415614496578394614467575b50843b156104355785517fd0e30db00000000000000000000000000000000000000000000000000000000081528381600481348a5af1801561445d5761444a575b508190602487518097819382523060048301525afa91821561443f579161440f575b506143cd9250613299565b903482036143d9575050565b6044925051907fe5f762580000000000000000000000000000000000000000000000000000000082523460048301526024820152fd5b905082813d8311614438575b6144258183612eaa565b810103126105e2576143cd9151386143c2565b503d61441b565b8551903d90823e3d90fd5b92614456839294612e25565b92906143a0565b87513d86823e3d90fd5b9093508181813d831161448f575b61447f8183612eaa565b810103126104355751923861435f565b503d614475565b86513d85823e3d90fd",
    "linkReferences": {}
  },
  "methodIdentifiers": {
    "batchCancelMultiple((address,uint256[])[],address[])": "f1630612",
    "batchCreateWithDeltas(address,address,(address,bool,address,uint128,(address,uint256),(uint128,uint64,uint40)[])[],bytes)": "6f0995f3",
    "batchCreateWithDurations(address,address,(address,address,uint128,bool,(uint40,uint40),(address,uint256))[],bytes)": "e6a64e02",
    "batchCreateWithMilestones(address,address,(address,uint40,bool,address,uint128,(address,uint256),(uint128,uint64,uint40)[])[],bytes)": "6a9c21b7",
    "batchCreateWithRange(address,address,(address,address,uint128,bool,(uint40,uint40,uint40),(address,uint256))[],bytes)": "45188c01",
    "burn(address,uint256)": "9dc29fac",
    "cancel(address,uint256)": "98590ef9",
    "cancelAndCreateWithDeltas(address,uint256,address,(address,bool,address,uint128,address,(address,uint256),(uint128,uint64,uint40)[]),bytes)": "4c4bfa77",
    "cancelAndCreateWithDurations(address,uint256,address,(address,address,uint128,address,bool,(uint40,uint40),(address,uint256)),bytes)": "14296d16",
    "cancelAndCreateWithMilestones(address,uint256,address,(address,uint40,bool,address,uint128,address,(address,uint256),(uint128,uint64,uint40)[]),bytes)": "8e800299",
    "cancelAndCreateWithRange(address,uint256,address,(address,address,uint128,address,bool,(uint40,uint40,uint40),(address,uint256)),bytes)": "87d23ff1",
    "cancelMultiple(address,address[],uint256[])": "6a09d49a",
    "createWithDeltas(address,(address,bool,address,uint128,address,(address,uint256),(uint128,uint64,uint40)[]),bytes)": "aa021714",
    "createWithDurations(address,(address,address,uint128,address,bool,(uint40,uint40),(address,uint256)),bytes)": "0cbbef7f",
    "createWithMilestones(address,(address,uint40,bool,address,uint128,address,(address,uint256),(uint128,uint64,uint40)[]),bytes)": "13b55f01",
    "createWithRange(address,(address,address,uint128,address,bool,(uint40,uint40,uint40),(address,uint256)),bytes)": "82597616",
    "renounce(address,uint256)": "86f2891e",
    "withdraw(address,uint256,address,uint128)": "b956b45f",
    "withdrawMax(address,uint256,address)": "a3143b76",
    "withdrawMaxAndTransfer(address,uint256,address)": "ad26c0fb",
    "withdrawMultiple(address,uint256[],address,uint128[])": "f2bf799e",
    "wrapAndCreateWithDeltas(address,(address,bool,address,uint128,address,(address,uint256),(uint128,uint64,uint40)[]))": "ec5b900f",
    "wrapAndCreateWithDurations(address,(address,address,uint128,address,bool,(uint40,uint40),(address,uint256)))": "90e2cd79",
    "wrapAndCreateWithMilestones(address,(address,uint40,bool,address,uint128,address,(address,uint256),(uint128,uint64,uint40)[]))": "1d165efc",
    "wrapAndCreateWithRange(address,(address,address,uint128,address,bool,(uint40,uint40,uint40),(address,uint256)))": "10fad8c8"
  },
  "id": 115
}