{
  "abi": [
    {
      "type": "constructor",
      "inputs": [
        {
          "name": "initialAdmin",
          "type": "address",
          "internalType": "address"
        },
        {
          "name": "initialNFTDescriptor",
          "type": "address",
          "internalType": "contract ISablierV2NFTDescriptor"
        },
        {
          "name": "maxSegmentCount",
          "type": "uint256",
          "internalType": "uint256"
        }
      ],
      "stateMutability": "nonpayable"
    },
    {
      "type": "function",
      "name": "MAX_BROKER_FEE",
      "inputs": [],
      "outputs": [
        {
          "name": "",
          "type": "uint256",
          "internalType": "UD60x18"
        }
      ],
      "stateMutability": "view"
    },
    {
      "type": "function",
      "name": "MAX_SEGMENT_COUNT",
      "inputs": [],
      "outputs": [
        {
          "name": "",
          "type": "uint256",
          "internalType": "uint256"
        }
      ],
      "stateMutability": "view"
    },
    {
      "type": "function",
      "name": "admin",
      "inputs": [],
      "outputs": [
        {
          "name": "",
          "type": "address",
          "internalType": "address"
        }
      ],
      "stateMutability": "view"
    },
    {
      "type": "function",
      "name": "allowToHook",
      "inputs": [
        {
          "name": "recipient",
          "type": "address",
          "internalType": "address"
        }
      ],
      "outputs": [],
      "stateMutability": "nonpayable"
    },
    {
      "type": "function",
      "name": "approve",
      "inputs": [
        {
          "name": "to",
          "type": "address",
          "internalType": "address"
        },
        {
          "name": "tokenId",
          "type": "uint256",
          "internalType": "uint256"
        }
      ],
      "outputs": [],
      "stateMutability": "nonpayable"
    },
    {
      "type": "function",
      "name": "balanceOf",
      "inputs": [
        {
          "name": "owner",
          "type": "address",
          "internalType": "address"
        }
      ],
      "outputs": [
        {
          "name": "",
          "type": "uint256",
          "internalType": "uint256"
        }
      ],
      "stateMutability": "view"
    },
    {
      "type": "function",
      "name": "burn",
      "inputs": [
        {
          "name": "streamId",
          "type": "uint256",
          "internalType": "uint256"
        }
      ],
      "outputs": [],
      "stateMutability": "nonpayable"
    },
    {
      "type": "function",
      "name": "cancel",
      "inputs": [
        {
          "name": "streamId",
          "type": "uint256",
          "internalType": "uint256"
        }
      ],
      "outputs": [],
      "stateMutability": "nonpayable"
    },
    {
      "type": "function",
      "name": "cancelMultiple",
      "inputs": [
        {
          "name": "streamIds",
          "type": "uint256[]",
          "internalType": "uint256[]"
        }
      ],
      "outputs": [],
      "stateMutability": "nonpayable"
    },
    {
      "type": "function",
      "name": "createWithDurations",
      "inputs": [
        {
          "name": "params",
          "type": "tuple",
          "internalType": "struct LockupDynamic.CreateWithDurations",
          "components": [
            {
              "name": "sender",
              "type": "address",
              "internalType": "address"
            },
            {
              "name": "recipient",
              "type": "address",
              "internalType": "address"
            },
            {
              "name": "totalAmount",
              "type": "uint128",
              "internalType": "uint128"
            },
            {
              "name": "asset",
              "type": "address",
              "internalType": "contract IERC20"
            },
            {
              "name": "cancelable",
              "type": "bool",
              "internalType": "bool"
            },
            {
              "name": "transferable",
              "type": "bool",
              "internalType": "bool"
            },
            {
              "name": "segments",
              "type": "tuple[]",
              "internalType": "struct LockupDynamic.SegmentWithDuration[]",
              "components": [
                {
                  "name": "amount",
                  "type": "uint128",
                  "internalType": "uint128"
                },
                {
                  "name": "exponent",
                  "type": "uint64",
                  "internalType": "UD2x18"
                },
                {
                  "name": "duration",
                  "type": "uint40",
                  "internalType": "uint40"
                }
              ]
            },
            {
              "name": "broker",
              "type": "tuple",
              "internalType": "struct Broker",
              "components": [
                {
                  "name": "account",
                  "type": "address",
                  "internalType": "address"
                },
                {
                  "name": "fee",
                  "type": "uint256",
                  "internalType": "UD60x18"
                }
              ]
            }
          ]
        }
      ],
      "outputs": [
        {
          "name": "streamId",
          "type": "uint256",
          "internalType": "uint256"
        }
      ],
      "stateMutability": "nonpayable"
    },
    {
      "type": "function",
      "name": "createWithTimestamps",
      "inputs": [
        {
          "name": "params",
          "type": "tuple",
          "internalType": "struct LockupDynamic.CreateWithTimestamps",
          "components": [
            {
              "name": "sender",
              "type": "address",
              "internalType": "address"
            },
            {
              "name": "recipient",
              "type": "address",
              "internalType": "address"
            },
            {
              "name": "totalAmount",
              "type": "uint128",
              "internalType": "uint128"
            },
            {
              "name": "asset",
              "type": "address",
              "internalType": "contract IERC20"
            },
            {
              "name": "cancelable",
              "type": "bool",
              "internalType": "bool"
            },
            {
              "name": "transferable",
              "type": "bool",
              "internalType": "bool"
            },
            {
              "name": "startTime",
              "type": "uint40",
              "internalType": "uint40"
            },
            {
              "name": "segments",
              "type": "tuple[]",
              "internalType": "struct LockupDynamic.Segment[]",
              "components": [
                {
                  "name": "amount",
                  "type": "uint128",
                  "internalType": "uint128"
                },
                {
                  "name": "exponent",
                  "type": "uint64",
                  "internalType": "UD2x18"
                },
                {
                  "name": "timestamp",
                  "type": "uint40",
                  "internalType": "uint40"
                }
              ]
            },
            {
              "name": "broker",
              "type": "tuple",
              "internalType": "struct Broker",
              "components": [
                {
                  "name": "account",
                  "type": "address",
                  "internalType": "address"
                },
                {
                  "name": "fee",
                  "type": "uint256",
                  "internalType": "UD60x18"
                }
              ]
            }
          ]
        }
      ],
      "outputs": [
        {
          "name": "streamId",
          "type": "uint256",
          "internalType": "uint256"
        }
      ],
      "stateMutability": "nonpayable"
    },
    {
      "type": "function",
      "name": "getApproved",
      "inputs": [
        {
          "name": "tokenId",
          "type": "uint256",
          "internalType": "uint256"
        }
      ],
      "outputs": [
        {
          "name": "",
          "type": "address",
          "internalType": "address"
        }
      ],
      "stateMutability": "view"
    },
    {
      "type": "function",
      "name": "getAsset",
      "inputs": [
        {
          "name": "streamId",
          "type": "uint256",
          "internalType": "uint256"
        }
      ],
      "outputs": [
        {
          "name": "asset",
          "type": "address",
          "internalType": "contract IERC20"
        }
      ],
      "stateMutability": "view"
    },
    {
      "type": "function",
      "name": "getDepositedAmount",
      "inputs": [
        {
          "name": "streamId",
          "type": "uint256",
          "internalType": "uint256"
        }
      ],
      "outputs": [
        {
          "name": "depositedAmount",
          "type": "uint128",
          "internalType": "uint128"
        }
      ],
      "stateMutability": "view"
    },
    {
      "type": "function",
      "name": "getEndTime",
      "inputs": [
        {
          "name": "streamId",
          "type": "uint256",
          "internalType": "uint256"
        }
      ],
      "outputs": [
        {
          "name": "endTime",
          "type": "uint40",
          "internalType": "uint40"
        }
      ],
      "stateMutability": "view"
    },
    {
      "type": "function",
      "name": "getRecipient",
      "inputs": [
        {
          "name": "streamId",
          "type": "uint256",
          "internalType": "uint256"
        }
      ],
      "outputs": [
        {
          "name": "recipient",
          "type": "address",
          "internalType": "address"
        }
      ],
      "stateMutability": "view"
    },
    {
      "type": "function",
      "name": "getRefundedAmount",
      "inputs": [
        {
          "name": "streamId",
          "type": "uint256",
          "internalType": "uint256"
        }
      ],
      "outputs": [
        {
          "name": "refundedAmount",
          "type": "uint128",
          "internalType": "uint128"
        }
      ],
      "stateMutability": "view"
    },
    {
      "type": "function",
      "name": "getSegments",
      "inputs": [
        {
          "name": "streamId",
          "type": "uint256",
          "internalType": "uint256"
        }
      ],
      "outputs": [
        {
          "name": "segments",
          "type": "tuple[]",
          "internalType": "struct LockupDynamic.Segment[]",
          "components": [
            {
              "name": "amount",
              "type": "uint128",
              "internalType": "uint128"
            },
            {
              "name": "exponent",
              "type": "uint64",
              "internalType": "UD2x18"
            },
            {
              "name": "timestamp",
              "type": "uint40",
              "internalType": "uint40"
            }
          ]
        }
      ],
      "stateMutability": "view"
    },
    {
      "type": "function",
      "name": "getSender",
      "inputs": [
        {
          "name": "streamId",
          "type": "uint256",
          "internalType": "uint256"
        }
      ],
      "outputs": [
        {
          "name": "sender",
          "type": "address",
          "internalType": "address"
        }
      ],
      "stateMutability": "view"
    },
    {
      "type": "function",
      "name": "getStartTime",
      "inputs": [
        {
          "name": "streamId",
          "type": "uint256",
          "internalType": "uint256"
        }
      ],
      "outputs": [
        {
          "name": "startTime",
          "type": "uint40",
          "internalType": "uint40"
        }
      ],
      "stateMutability": "view"
    },
    {
      "type": "function",
      "name": "getStream",
      "inputs": [
        {
          "name": "streamId",
          "type": "uint256",
          "internalType": "uint256"
        }
      ],
      "outputs": [
        {
          "name": "stream",
          "type": "tuple",
          "internalType": "struct LockupDynamic.StreamLD",
          "components": [
            {
              "name": "sender",
              "type": "address",
              "internalType": "address"
            },
            {
              "name": "recipient",
              "type": "address",
              "internalType": "address"
            },
            {
              "name": "startTime",
              "type": "uint40",
              "internalType": "uint40"
            },
            {
              "name": "endTime",
              "type": "uint40",
              "internalType": "uint40"
            },
            {
              "name": "isCancelable",
              "type": "bool",
              "internalType": "bool"
            },
            {
              "name": "wasCanceled",
              "type": "bool",
              "internalType": "bool"
            },
            {
              "name": "asset",
              "type": "address",
              "internalType": "contract IERC20"
            },
            {
              "name": "isDepleted",
              "type": "bool",
              "internalType": "bool"
            },
            {
              "name": "isStream",
              "type": "bool",
              "internalType": "bool"
            },
            {
              "name": "isTransferable",
              "type": "bool",
              "internalType": "bool"
            },
            {
              "name": "amounts",
              "type": "tuple",
              "internalType": "struct Lockup.Amounts",
              "components": [
                {
                  "name": "deposited",
                  "type": "uint128",
                  "internalType": "uint128"
                },
                {
                  "name": "withdrawn",
                  "type": "uint128",
                  "internalType": "uint128"
                },
                {
                  "name": "refunded",
                  "type": "uint128",
                  "internalType": "uint128"
                }
              ]
            },
            {
              "name": "segments",
              "type": "tuple[]",
              "internalType": "struct LockupDynamic.Segment[]",
              "components": [
                {
                  "name": "amount",
                  "type": "uint128",
                  "internalType": "uint128"
                },
                {
                  "name": "exponent",
                  "type": "uint64",
                  "internalType": "UD2x18"
                },
                {
                  "name": "timestamp",
                  "type": "uint40",
                  "internalType": "uint40"
                }
              ]
            }
          ]
        }
      ],
      "stateMutability": "view"
    },
    {
      "type": "function",
      "name": "getTimestamps",
      "inputs": [
        {
          "name": "streamId",
          "type": "uint256",
          "internalType": "uint256"
        }
      ],
      "outputs": [
        {
          "name": "timestamps",
          "type": "tuple",
          "internalType": "struct LockupDynamic.Timestamps",
          "components": [
            {
              "name": "start",
              "type": "uint40",
              "internalType": "uint40"
            },
            {
              "name": "end",
              "type": "uint40",
              "internalType": "uint40"
            }
          ]
        }
      ],
      "stateMutability": "view"
    },
    {
      "type": "function",
      "name": "getWithdrawnAmount",
      "inputs": [
        {
          "name": "streamId",
          "type": "uint256",
          "internalType": "uint256"
        }
      ],
      "outputs": [
        {
          "name": "withdrawnAmount",
          "type": "uint128",
          "internalType": "uint128"
        }
      ],
      "stateMutability": "view"
    },
    {
      "type": "function",
      "name": "isAllowedToHook",
      "inputs": [
        {
          "name": "recipient",
          "type": "address",
          "internalType": "address"
        }
      ],
      "outputs": [
        {
          "name": "result",
          "type": "bool",
          "internalType": "bool"
        }
      ],
      "stateMutability": "view"
    },
    {
      "type": "function",
      "name": "isApprovedForAll",
      "inputs": [
        {
          "name": "owner",
          "type": "address",
          "internalType": "address"
        },
        {
          "name": "operator",
          "type": "address",
          "internalType": "address"
        }
      ],
      "outputs": [
        {
          "name": "",
          "type": "bool",
          "internalType": "bool"
        }
      ],
      "stateMutability": "view"
    },
    {
      "type": "function",
      "name": "isCancelable",
      "inputs": [
        {
          "name": "streamId",
          "type": "uint256",
          "internalType": "uint256"
        }
      ],
      "outputs": [
        {
          "name": "result",
          "type": "bool",
          "internalType": "bool"
        }
      ],
      "stateMutability": "view"
    },
    {
      "type": "function",
      "name": "isCold",
      "inputs": [
        {
          "name": "streamId",
          "type": "uint256",
          "internalType": "uint256"
        }
      ],
      "outputs": [
        {
          "name": "result",
          "type": "bool",
          "internalType": "bool"
        }
      ],
      "stateMutability": "view"
    },
    {
      "type": "function",
      "name": "isDepleted",
      "inputs": [
        {
          "name": "streamId",
          "type": "uint256",
          "internalType": "uint256"
        }
      ],
      "outputs": [
        {
          "name": "result",
          "type": "bool",
          "internalType": "bool"
        }
      ],
      "stateMutability": "view"
    },
    {
      "type": "function",
      "name": "isStream",
      "inputs": [
        {
          "name": "streamId",
          "type": "uint256",
          "internalType": "uint256"
        }
      ],
      "outputs": [
        {
          "name": "result",
          "type": "bool",
          "internalType": "bool"
        }
      ],
      "stateMutability": "view"
    },
    {
      "type": "function",
      "name": "isTransferable",
      "inputs": [
        {
          "name": "streamId",
          "type": "uint256",
          "internalType": "uint256"
        }
      ],
      "outputs": [
        {
          "name": "result",
          "type": "bool",
          "internalType": "bool"
        }
      ],
      "stateMutability": "view"
    },
    {
      "type": "function",
      "name": "isWarm",
      "inputs": [
        {
          "name": "streamId",
          "type": "uint256",
          "internalType": "uint256"
        }
      ],
      "outputs": [
        {
          "name": "result",
          "type": "bool",
          "internalType": "bool"
        }
      ],
      "stateMutability": "view"
    },
    {
      "type": "function",
      "name": "name",
      "inputs": [],
      "outputs": [
        {
          "name": "",
          "type": "string",
          "internalType": "string"
        }
      ],
      "stateMutability": "view"
    },
    {
      "type": "function",
      "name": "nextStreamId",
      "inputs": [],
      "outputs": [
        {
          "name": "",
          "type": "uint256",
          "internalType": "uint256"
        }
      ],
      "stateMutability": "view"
    },
    {
      "type": "function",
      "name": "nftDescriptor",
      "inputs": [],
      "outputs": [
        {
          "name": "",
          "type": "address",
          "internalType": "contract ISablierV2NFTDescriptor"
        }
      ],
      "stateMutability": "view"
    },
    {
      "type": "function",
      "name": "ownerOf",
      "inputs": [
        {
          "name": "tokenId",
          "type": "uint256",
          "internalType": "uint256"
        }
      ],
      "outputs": [
        {
          "name": "",
          "type": "address",
          "internalType": "address"
        }
      ],
      "stateMutability": "view"
    },
    {
      "type": "function",
      "name": "refundableAmountOf",
      "inputs": [
        {
          "name": "streamId",
          "type": "uint256",
          "internalType": "uint256"
        }
      ],
      "outputs": [
        {
          "name": "refundableAmount",
          "type": "uint128",
          "internalType": "uint128"
        }
      ],
      "stateMutability": "view"
    },
    {
      "type": "function",
      "name": "renounce",
      "inputs": [
        {
          "name": "streamId",
          "type": "uint256",
          "internalType": "uint256"
        }
      ],
      "outputs": [],
      "stateMutability": "nonpayable"
    },
    {
      "type": "function",
      "name": "safeTransferFrom",
      "inputs": [
        {
          "name": "from",
          "type": "address",
          "internalType": "address"
        },
        {
          "name": "to",
          "type": "address",
          "internalType": "address"
        },
        {
          "name": "tokenId",
          "type": "uint256",
          "internalType": "uint256"
        }
      ],
      "outputs": [],
      "stateMutability": "nonpayable"
    },
    {
      "type": "function",
      "name": "safeTransferFrom",
      "inputs": [
        {
          "name": "from",
          "type": "address",
          "internalType": "address"
        },
        {
          "name": "to",
          "type": "address",
          "internalType": "address"
        },
        {
          "name": "tokenId",
          "type": "uint256",
          "internalType": "uint256"
        },
        {
          "name": "data",
          "type": "bytes",
          "internalType": "bytes"
        }
      ],
      "outputs": [],
      "stateMutability": "nonpayable"
    },
    {
      "type": "function",
      "name": "setApprovalForAll",
      "inputs": [
        {
          "name": "operator",
          "type": "address",
          "internalType": "address"
        },
        {
          "name": "approved",
          "type": "bool",
          "internalType": "bool"
        }
      ],
      "outputs": [],
      "stateMutability": "nonpayable"
    },
    {
      "type": "function",
      "name": "setNFTDescriptor",
      "inputs": [
        {
          "name": "newNFTDescriptor",
          "type": "address",
          "internalType": "contract ISablierV2NFTDescriptor"
        }
      ],
      "outputs": [],
      "stateMutability": "nonpayable"
    },
    {
      "type": "function",
      "name": "statusOf",
      "inputs": [
        {
          "name": "streamId",
          "type": "uint256",
          "internalType": "uint256"
        }
      ],
      "outputs": [
        {
          "name": "status",
          "type": "uint8",
          "internalType": "enum Lockup.Status"
        }
      ],
      "stateMutability": "view"
    },
    {
      "type": "function",
      "name": "streamedAmountOf",
      "inputs": [
        {
          "name": "streamId",
          "type": "uint256",
          "internalType": "uint256"
        }
      ],
      "outputs": [
        {
          "name": "streamedAmount",
          "type": "uint128",
          "internalType": "uint128"
        }
      ],
      "stateMutability": "view"
    },
    {
      "type": "function",
      "name": "supportsInterface",
      "inputs": [
        {
          "name": "interfaceId",
          "type": "bytes4",
          "internalType": "bytes4"
        }
      ],
      "outputs": [
        {
          "name": "",
          "type": "bool",
          "internalType": "bool"
        }
      ],
      "stateMutability": "view"
    },
    {
      "type": "function",
      "name": "symbol",
      "inputs": [],
      "outputs": [
        {
          "name": "",
          "type": "string",
          "internalType": "string"
        }
      ],
      "stateMutability": "view"
    },
    {
      "type": "function",
      "name": "tokenURI",
      "inputs": [
        {
          "name": "streamId",
          "type": "uint256",
          "internalType": "uint256"
        }
      ],
      "outputs": [
        {
          "name": "uri",
          "type": "string",
          "internalType": "string"
        }
      ],
      "stateMutability": "view"
    },
    {
      "type": "function",
      "name": "transferAdmin",
      "inputs": [
        {
          "name": "newAdmin",
          "type": "address",
          "internalType": "address"
        }
      ],
      "outputs": [],
      "stateMutability": "nonpayable"
    },
    {
      "type": "function",
      "name": "transferFrom",
      "inputs": [
        {
          "name": "from",
          "type": "address",
          "internalType": "address"
        },
        {
          "name": "to",
          "type": "address",
          "internalType": "address"
        },
        {
          "name": "tokenId",
          "type": "uint256",
          "internalType": "uint256"
        }
      ],
      "outputs": [],
      "stateMutability": "nonpayable"
    },
    {
      "type": "function",
      "name": "wasCanceled",
      "inputs": [
        {
          "name": "streamId",
          "type": "uint256",
          "internalType": "uint256"
        }
      ],
      "outputs": [
        {
          "name": "result",
          "type": "bool",
          "internalType": "bool"
        }
      ],
      "stateMutability": "view"
    },
    {
      "type": "function",
      "name": "withdraw",
      "inputs": [
        {
          "name": "streamId",
          "type": "uint256",
          "internalType": "uint256"
        },
        {
          "name": "to",
          "type": "address",
          "internalType": "address"
        },
        {
          "name": "amount",
          "type": "uint128",
          "internalType": "uint128"
        }
      ],
      "outputs": [],
      "stateMutability": "nonpayable"
    },
    {
      "type": "function",
      "name": "withdrawMax",
      "inputs": [
        {
          "name": "streamId",
          "type": "uint256",
          "internalType": "uint256"
        },
        {
          "name": "to",
          "type": "address",
          "internalType": "address"
        }
      ],
      "outputs": [
        {
          "name": "withdrawnAmount",
          "type": "uint128",
          "internalType": "uint128"
        }
      ],
      "stateMutability": "nonpayable"
    },
    {
      "type": "function",
      "name": "withdrawMaxAndTransfer",
      "inputs": [
        {
          "name": "streamId",
          "type": "uint256",
          "internalType": "uint256"
        },
        {
          "name": "newRecipient",
          "type": "address",
          "internalType": "address"
        }
      ],
      "outputs": [
        {
          "name": "withdrawnAmount",
          "type": "uint128",
          "internalType": "uint128"
        }
      ],
      "stateMutability": "nonpayable"
    },
    {
      "type": "function",
      "name": "withdrawMultiple",
      "inputs": [
        {
          "name": "streamIds",
          "type": "uint256[]",
          "internalType": "uint256[]"
        },
        {
          "name": "amounts",
          "type": "uint128[]",
          "internalType": "uint128[]"
        }
      ],
      "outputs": [],
      "stateMutability": "nonpayable"
    },
    {
      "type": "function",
      "name": "withdrawableAmountOf",
      "inputs": [
        {
          "name": "streamId",
          "type": "uint256",
          "internalType": "uint256"
        }
      ],
      "outputs": [
        {
          "name": "withdrawableAmount",
          "type": "uint128",
          "internalType": "uint128"
        }
      ],
      "stateMutability": "view"
    },
    {
      "type": "event",
      "name": "AllowToHook",
      "inputs": [
        {
          "name": "admin",
          "type": "address",
          "indexed": true,
          "internalType": "address"
        },
        {
          "name": "recipient",
          "type": "address",
          "indexed": false,
          "internalType": "address"
        }
      ],
      "anonymous": false
    },
    {
      "type": "event",
      "name": "Approval",
      "inputs": [
        {
          "name": "owner",
          "type": "address",
          "indexed": true,
          "internalType": "address"
        },
        {
          "name": "approved",
          "type": "address",
          "indexed": true,
          "internalType": "address"
        },
        {
          "name": "tokenId",
          "type": "uint256",
          "indexed": true,
          "internalType": "uint256"
        }
      ],
      "anonymous": false
    },
    {
      "type": "event",
      "name": "ApprovalForAll",
      "inputs": [
        {
          "name": "owner",
          "type": "address",
          "indexed": true,
          "internalType": "address"
        },
        {
          "name": "operator",
          "type": "address",
          "indexed": true,
          "internalType": "address"
        },
        {
          "name": "approved",
          "type": "bool",
          "indexed": false,
          "internalType": "bool"
        }
      ],
      "anonymous": false
    },
    {
      "type": "event",
      "name": "BatchMetadataUpdate",
      "inputs": [
        {
          "name": "_fromTokenId",
          "type": "uint256",
          "indexed": false,
          "internalType": "uint256"
        },
        {
          "name": "_toTokenId",
          "type": "uint256",
          "indexed": false,
          "internalType": "uint256"
        }
      ],
      "anonymous": false
    },
    {
      "type": "event",
      "name": "CancelLockupStream",
      "inputs": [
        {
          "name": "streamId",
          "type": "uint256",
          "indexed": false,
          "internalType": "uint256"
        },
        {
          "name": "sender",
          "type": "address",
          "indexed": true,
          "internalType": "address"
        },
        {
          "name": "recipient",
          "type": "address",
          "indexed": true,
          "internalType": "address"
        },
        {
          "name": "asset",
          "type": "address",
          "indexed": true,
          "internalType": "contract IERC20"
        },
        {
          "name": "senderAmount",
          "type": "uint128",
          "indexed": false,
          "internalType": "uint128"
        },
        {
          "name": "recipientAmount",
          "type": "uint128",
          "indexed": false,
          "internalType": "uint128"
        }
      ],
      "anonymous": false
    },
    {
      "type": "event",
      "name": "CreateLockupDynamicStream",
      "inputs": [
        {
          "name": "streamId",
          "type": "uint256",
          "indexed": false,
          "internalType": "uint256"
        },
        {
          "name": "funder",
          "type": "address",
          "indexed": false,
          "internalType": "address"
        },
        {
          "name": "sender",
          "type": "address",
          "indexed": true,
          "internalType": "address"
        },
        {
          "name": "recipient",
          "type": "address",
          "indexed": true,
          "internalType": "address"
        },
        {
          "name": "amounts",
          "type": "tuple",
          "indexed": false,
          "internalType": "struct Lockup.CreateAmounts",
          "components": [
            {
              "name": "deposit",
              "type": "uint128",
              "internalType": "uint128"
            },
            {
              "name": "brokerFee",
              "type": "uint128",
              "internalType": "uint128"
            }
          ]
        },
        {
          "name": "asset",
          "type": "address",
          "indexed": true,
          "internalType": "contract IERC20"
        },
        {
          "name": "cancelable",
          "type": "bool",
          "indexed": false,
          "internalType": "bool"
        },
        {
          "name": "transferable",
          "type": "bool",
          "indexed": false,
          "internalType": "bool"
        },
        {
          "name": "segments",
          "type": "tuple[]",
          "indexed": false,
          "internalType": "struct LockupDynamic.Segment[]",
          "components": [
            {
              "name": "amount",
              "type": "uint128",
              "internalType": "uint128"
            },
            {
              "name": "exponent",
              "type": "uint64",
              "internalType": "UD2x18"
            },
            {
              "name": "timestamp",
              "type": "uint40",
              "internalType": "uint40"
            }
          ]
        },
        {
          "name": "timestamps",
          "type": "tuple",
          "indexed": false,
          "internalType": "struct LockupDynamic.Timestamps",
          "components": [
            {
              "name": "start",
              "type": "uint40",
              "internalType": "uint40"
            },
            {
              "name": "end",
              "type": "uint40",
              "internalType": "uint40"
            }
          ]
        },
        {
          "name": "broker",
          "type": "address",
          "indexed": false,
          "internalType": "address"
        }
      ],
      "anonymous": false
    },
    {
      "type": "event",
      "name": "MetadataUpdate",
      "inputs": [
        {
          "name": "_tokenId",
          "type": "uint256",
          "indexed": false,
          "internalType": "uint256"
        }
      ],
      "anonymous": false
    },
    {
      "type": "event",
      "name": "RenounceLockupStream",
      "inputs": [
        {
          "name": "streamId",
          "type": "uint256",
          "indexed": true,
          "internalType": "uint256"
        }
      ],
      "anonymous": false
    },
    {
      "type": "event",
      "name": "SetNFTDescriptor",
      "inputs": [
        {
          "name": "admin",
          "type": "address",
          "indexed": true,
          "internalType": "address"
        },
        {
          "name": "oldNFTDescriptor",
          "type": "address",
          "indexed": false,
          "internalType": "contract ISablierV2NFTDescriptor"
        },
        {
          "name": "newNFTDescriptor",
          "type": "address",
          "indexed": false,
          "internalType": "contract ISablierV2NFTDescriptor"
        }
      ],
      "anonymous": false
    },
    {
      "type": "event",
      "name": "Transfer",
      "inputs": [
        {
          "name": "from",
          "type": "address",
          "indexed": true,
          "internalType": "address"
        },
        {
          "name": "to",
          "type": "address",
          "indexed": true,
          "internalType": "address"
        },
        {
          "name": "tokenId",
          "type": "uint256",
          "indexed": true,
          "internalType": "uint256"
        }
      ],
      "anonymous": false
    },
    {
      "type": "event",
      "name": "TransferAdmin",
      "inputs": [
        {
          "name": "oldAdmin",
          "type": "address",
          "indexed": true,
          "internalType": "address"
        },
        {
          "name": "newAdmin",
          "type": "address",
          "indexed": true,
          "internalType": "address"
        }
      ],
      "anonymous": false
    },
    {
      "type": "event",
      "name": "WithdrawFromLockupStream",
      "inputs": [
        {
          "name": "streamId",
          "type": "uint256",
          "indexed": true,
          "internalType": "uint256"
        },
        {
          "name": "to",
          "type": "address",
          "indexed": true,
          "internalType": "address"
        },
        {
          "name": "asset",
          "type": "address",
          "indexed": true,
          "internalType": "contract IERC20"
        },
        {
          "name": "amount",
          "type": "uint128",
          "indexed": false,
          "internalType": "uint128"
        }
      ],
      "anonymous": false
    },
    {
      "type": "error",
      "name": "AddressEmptyCode",
      "inputs": [
        {
          "name": "target",
          "type": "address",
          "internalType": "address"
        }
      ]
    },
    {
      "type": "error",
      "name": "AddressInsufficientBalance",
      "inputs": [
        {
          "name": "account",
          "type": "address",
          "internalType": "address"
        }
      ]
    },
    {
      "type": "error",
      "name": "CallerNotAdmin",
      "inputs": [
        {
          "name": "admin",
          "type": "address",
          "internalType": "address"
        },
        {
          "name": "caller",
          "type": "address",
          "internalType": "address"
        }
      ]
    },
    {
      "type": "error",
      "name": "DelegateCall",
      "inputs": []
    },
    {
      "type": "error",
      "name": "ERC721IncorrectOwner",
      "inputs": [
        {
          "name": "sender",
          "type": "address",
          "internalType": "address"
        },
        {
          "name": "tokenId",
          "type": "uint256",
          "internalType": "uint256"
        },
        {
          "name": "owner",
          "type": "address",
          "internalType": "address"
        }
      ]
    },
    {
      "type": "error",
      "name": "ERC721InsufficientApproval",
      "inputs": [
        {
          "name": "operator",
          "type": "address",
          "internalType": "address"
        },
        {
          "name": "tokenId",
          "type": "uint256",
          "internalType": "uint256"
        }
      ]
    },
    {
      "type": "error",
      "name": "ERC721InvalidApprover",
      "inputs": [
        {
          "name": "approver",
          "type": "address",
          "internalType": "address"
        }
      ]
    },
    {
      "type": "error",
      "name": "ERC721InvalidOperator",
      "inputs": [
        {
          "name": "operator",
          "type": "address",
          "internalType": "address"
        }
      ]
    },
    {
      "type": "error",
      "name": "ERC721InvalidOwner",
      "inputs": [
        {
          "name": "owner",
          "type": "address",
          "internalType": "address"
        }
      ]
    },
    {
      "type": "error",
      "name": "ERC721InvalidReceiver",
      "inputs": [
        {
          "name": "receiver",
          "type": "address",
          "internalType": "address"
        }
      ]
    },
    {
      "type": "error",
      "name": "ERC721InvalidSender",
      "inputs": [
        {
          "name": "sender",
          "type": "address",
          "internalType": "address"
        }
      ]
    },
    {
      "type": "error",
      "name": "ERC721NonexistentToken",
      "inputs": [
        {
          "name": "tokenId",
          "type": "uint256",
          "internalType": "uint256"
        }
      ]
    },
    {
      "type": "error",
      "name": "FailedInnerCall",
      "inputs": []
    },
    {
      "type": "error",
      "name": "PRBMath_MulDiv18_Overflow",
      "inputs": [
        {
          "name": "x",
          "type": "uint256",
          "internalType": "uint256"
        },
        {
          "name": "y",
          "type": "uint256",
          "internalType": "uint256"
        }
      ]
    },
    {
      "type": "error",
      "name": "PRBMath_MulDiv_Overflow",
      "inputs": [
        {
          "name": "x",
          "type": "uint256",
          "internalType": "uint256"
        },
        {
          "name": "y",
          "type": "uint256",
          "internalType": "uint256"
        },
        {
          "name": "denominator",
          "type": "uint256",
          "internalType": "uint256"
        }
      ]
    },
    {
      "type": "error",
      "name": "PRBMath_SD59x18_Div_InputTooSmall",
      "inputs": []
    },
    {
      "type": "error",
      "name": "PRBMath_SD59x18_Div_Overflow",
      "inputs": [
        {
          "name": "x",
          "type": "int256",
          "internalType": "SD59x18"
        },
        {
          "name": "y",
          "type": "int256",
          "internalType": "SD59x18"
        }
      ]
    },
    {
      "type": "error",
      "name": "PRBMath_SD59x18_Exp2_InputTooBig",
      "inputs": [
        {
          "name": "x",
          "type": "int256",
          "internalType": "SD59x18"
        }
      ]
    },
    {
      "type": "error",
      "name": "PRBMath_SD59x18_IntoUint256_Underflow",
      "inputs": [
        {
          "name": "x",
          "type": "int256",
          "internalType": "SD59x18"
        }
      ]
    },
    {
      "type": "error",
      "name": "PRBMath_SD59x18_Log_InputTooSmall",
      "inputs": [
        {
          "name": "x",
          "type": "int256",
          "internalType": "SD59x18"
        }
      ]
    },
    {
      "type": "error",
      "name": "PRBMath_SD59x18_Mul_InputTooSmall",
      "inputs": []
    },
    {
      "type": "error",
      "name": "PRBMath_SD59x18_Mul_Overflow",
      "inputs": [
        {
          "name": "x",
          "type": "int256",
          "internalType": "SD59x18"
        },
        {
          "name": "y",
          "type": "int256",
          "internalType": "SD59x18"
        }
      ]
    },
    {
      "type": "error",
      "name": "SablierV2LockupDynamic_DepositAmountNotEqualToSegmentAmountsSum",
      "inputs": [
        {
          "name": "depositAmount",
          "type": "uint128",
          "internalType": "uint128"
        },
        {
          "name": "segmentAmountsSum",
          "type": "uint128",
          "internalType": "uint128"
        }
      ]
    },
    {
      "type": "error",
      "name": "SablierV2LockupDynamic_SegmentCountTooHigh",
      "inputs": [
        {
          "name": "count",
          "type": "uint256",
          "internalType": "uint256"
        }
      ]
    },
    {
      "type": "error",
      "name": "SablierV2LockupDynamic_SegmentCountZero",
      "inputs": []
    },
    {
      "type": "error",
      "name": "SablierV2LockupDynamic_SegmentTimestampsNotOrdered",
      "inputs": [
        {
          "name": "index",
          "type": "uint256",
          "internalType": "uint256"
        },
        {
          "name": "previousTimestamp",
          "type": "uint40",
          "internalType": "uint40"
        },
        {
          "name": "currentTimestamp",
          "type": "uint40",
          "internalType": "uint40"
        }
      ]
    },
    {
      "type": "error",
      "name": "SablierV2LockupDynamic_StartTimeNotLessThanFirstSegmentTimestamp",
      "inputs": [
        {
          "name": "startTime",
          "type": "uint40",
          "internalType": "uint40"
        },
        {
          "name": "firstSegmentTimestamp",
          "type": "uint40",
          "internalType": "uint40"
        }
      ]
    },
    {
      "type": "error",
      "name": "SablierV2Lockup_AllowToHookUnsupportedInterface",
      "inputs": [
        {
          "name": "recipient",
          "type": "address",
          "internalType": "address"
        }
      ]
    },
    {
      "type": "error",
      "name": "SablierV2Lockup_AllowToHookZeroCodeSize",
      "inputs": [
        {
          "name": "recipient",
          "type": "address",
          "internalType": "address"
        }
      ]
    },
    {
      "type": "error",
      "name": "SablierV2Lockup_BrokerFeeTooHigh",
      "inputs": [
        {
          "name": "brokerFee",
          "type": "uint256",
          "internalType": "UD60x18"
        },
        {
          "name": "maxBrokerFee",
          "type": "uint256",
          "internalType": "UD60x18"
        }
      ]
    },
    {
      "type": "error",
      "name": "SablierV2Lockup_DepositAmountZero",
      "inputs": []
    },
    {
      "type": "error",
      "name": "SablierV2Lockup_EndTimeNotInTheFuture",
      "inputs": [
        {
          "name": "blockTimestamp",
          "type": "uint40",
          "internalType": "uint40"
        },
        {
          "name": "endTime",
          "type": "uint40",
          "internalType": "uint40"
        }
      ]
    },
    {
      "type": "error",
      "name": "SablierV2Lockup_InvalidHookSelector",
      "inputs": [
        {
          "name": "recipient",
          "type": "address",
          "internalType": "address"
        }
      ]
    },
    {
      "type": "error",
      "name": "SablierV2Lockup_NotTransferable",
      "inputs": [
        {
          "name": "tokenId",
          "type": "uint256",
          "internalType": "uint256"
        }
      ]
    },
    {
      "type": "error",
      "name": "SablierV2Lockup_Null",
      "inputs": [
        {
          "name": "streamId",
          "type": "uint256",
          "internalType": "uint256"
        }
      ]
    },
    {
      "type": "error",
      "name": "SablierV2Lockup_Overdraw",
      "inputs": [
        {
          "name": "streamId",
          "type": "uint256",
          "internalType": "uint256"
        },
        {
          "name": "amount",
          "type": "uint128",
          "internalType": "uint128"
        },
        {
          "name": "withdrawableAmount",
          "type": "uint128",
          "internalType": "uint128"
        }
      ]
    },
    {
      "type": "error",
      "name": "SablierV2Lockup_StartTimeZero",
      "inputs": []
    },
    {
      "type": "error",
      "name": "SablierV2Lockup_StreamCanceled",
      "inputs": [
        {
          "name": "streamId",
          "type": "uint256",
          "internalType": "uint256"
        }
      ]
    },
    {
      "type": "error",
      "name": "SablierV2Lockup_StreamDepleted",
      "inputs": [
        {
          "name": "streamId",
          "type": "uint256",
          "internalType": "uint256"
        }
      ]
    },
    {
      "type": "error",
      "name": "SablierV2Lockup_StreamNotCancelable",
      "inputs": [
        {
          "name": "streamId",
          "type": "uint256",
          "internalType": "uint256"
        }
      ]
    },
    {
      "type": "error",
      "name": "SablierV2Lockup_StreamNotDepleted",
      "inputs": [
        {
          "name": "streamId",
          "type": "uint256",
          "internalType": "uint256"
        }
      ]
    },
    {
      "type": "error",
      "name": "SablierV2Lockup_StreamSettled",
      "inputs": [
        {
          "name": "streamId",
          "type": "uint256",
          "internalType": "uint256"
        }
      ]
    },
    {
      "type": "error",
      "name": "SablierV2Lockup_Unauthorized",
      "inputs": [
        {
          "name": "streamId",
          "type": "uint256",
          "internalType": "uint256"
        },
        {
          "name": "caller",
          "type": "address",
          "internalType": "address"
        }
      ]
    },
    {
      "type": "error",
      "name": "SablierV2Lockup_WithdrawAmountZero",
      "inputs": [
        {
          "name": "streamId",
          "type": "uint256",
          "internalType": "uint256"
        }
      ]
    },
    {
      "type": "error",
      "name": "SablierV2Lockup_WithdrawArrayCountsNotEqual",
      "inputs": [
        {
          "name": "streamIdsCount",
          "type": "uint256",
          "internalType": "uint256"
        },
        {
          "name": "amountsCount",
          "type": "uint256",
          "internalType": "uint256"
        }
      ]
    },
    {
      "type": "error",
      "name": "SablierV2Lockup_WithdrawToZeroAddress",
      "inputs": [
        {
          "name": "streamId",
          "type": "uint256",
          "internalType": "uint256"
        }
      ]
    },
    {
      "type": "error",
      "name": "SablierV2Lockup_WithdrawalAddressNotRecipient",
      "inputs": [
        {
          "name": "streamId",
          "type": "uint256",
          "internalType": "uint256"
        },
        {
          "name": "caller",
          "type": "address",
          "internalType": "address"
        },
        {
          "name": "to",
          "type": "address",
          "internalType": "address"
        }
      ]
    },
    {
      "type": "error",
      "name": "SafeERC20FailedOperation",
      "inputs": [
        {
          "name": "token",
          "type": "address",
          "internalType": "address"
        }
      ]
    }
  ],
  "bytecode": {
    "object": "0x60c0604052346103e457615a506060813803918261001c816103e8565b9384928339810103126103e45780516001600160a01b038116908190036103e45760208201516001600160a01b03811692908390036103e4576040015161006360406103e8565b92601d84527f5361626c696572205632204c6f636b75702044796e616d6963204e4654000000602085015261009860406103e8565b601181527029a0a116ab1916a627a1a5aaa816a22ca760791b602082015230608052845190946001600160401b0382116102e75760015490600182811c921680156103da575b60208310146102c95781601f84931161036c575b50602090601f8311600114610306575f926102fb575b50508160011b915f199060031b1c1916176001555b83516001600160401b0381116102e757600254600181811c911680156102dd575b60208210146102c957601f8111610266575b50602094601f8211600114610203579481929394955f926101f8575b50508160011b915f199060031b1c1916176002555b5f80546001600160a01b031990811685178255600880549091169290921790915560405192907fbdd36143ee09de60bdefca70680e0f71189b2ed7acee364b53917ad433fdaf808180a360a0526001600755615642908161040e823960805181613935015260a051818181610bca01526139ff0152f35b015190505f8061016c565b601f1982169560025f52805f20915f5b88811061024e57508360019596979810610236575b505050811b01600255610181565b01515f1960f88460031b161c191690555f8080610228565b91926020600181928685015181550194019201610213565b60025f527f405787fa12a823e0f2b7631cc41b3ba8828b3321ca811111fa75cd3aa3bb5ace601f830160051c810191602084106102bf575b601f0160051c01905b8181106102b45750610150565b5f81556001016102a7565b909150819061029e565b634e487b7160e01b5f52602260045260245ffd5b90607f169061013e565b634e487b7160e01b5f52604160045260245ffd5b015190505f80610108565b60015f9081528281209350601f198516905b818110610354575090846001959493921061033c575b505050811b0160015561011d565b01515f1960f88460031b161c191690555f808061032e565b92936020600181928786015181550195019301610318565b60015f529091507fb10e2d527612073b26eecdfd717e6a320cf44b4afac2b0732d9fcbe2b7fa0cf6601f840160051c810191602085106103d0575b90601f859493920160051c01905b8181106103c257506100f2565b5f81558493506001016103b5565b90915081906103a7565b91607f16916100de565b5f80fd5b6040519190601f01601f191682016001600160401b038111838210176102e75760405256fe6080806040526004361015610012575f80fd5b5f3560e01c90816301ffc9a7146127c657508063027b6744146127a457806306fdde03146126e9578063081812fc146126cb578063095ea7b3146125c65780631400ecec146125155780631c1cdd4c146124b15780631e99d5691461249457806323b872dd1461247d578063303acc851461244057806331df3d481461232d578063406887cb146121be57806340e58ee514611ea5578063425d30dd14611e5557806342842e0e14611e2c57806342966c6814611c685780634426757014611c425780634857501f14611bd15780634869e12d14611b975780634cc55e1114611a9f57806354c02292146117ee57806357404b12146117605780636352211e146117315780636d0cee751461173157806370a08231146116c757806375829def146116595780637cad6cd1146115685780637de6b1db146113e95780638659c27014610feb578063894e9a0d14610cbc5780638f69b99314610c3c5780639067b67714610bed5780639188ec8414610bb357806395d89b4114610aab578063a22cb465146109f7578063a80fc071146109a6578063ad35efd414610947578063b2564569146108f7578063b637b8651461089e578063b88d4fde14610816578063b8a3be66146107e1578063b971302a14610793578063bc2be1be14610744578063c156a11d1461060e578063c87b56dd146104f8578063d4dbd20b146104a7578063d511609f1461045c578063d975dfed14610422578063e985e9c5146103c9578063ea5ead1914610385578063eac8f5b814610334578063f590c176146102d9578063f851a440146102b45763fdd46d601461026e575f80fd5b346102b05760603660031901126102b0576102876128f3565b6044356001600160801b03811681036102b0576102ae916102a661392b565b6004356133df565b005b5f80fd5b346102b0575f3660031901126102b05760206001600160a01b035f5416604051908152f35b346102b05760203660031901126102b057600435805f52600a60205260ff600160405f20015460a81c1615610323575f52600a602052602060405f205460f81c6040519015158152f35b62b8e7e760e51b5f5260045260245ffd5b346102b05760203660031901126102b057600435805f52600a60205260ff600160405f20015460a81c1615610323575f52600a60205260206001600160a01b03600160405f20015416604051908152f35b346102b05760403660031901126102b05760206004356103b86103a66128f3565b916103b081614206565b928391613082565b6001600160801b0360405191168152f35b346102b05760403660031901126102b0576103e26128dd565b6001600160a01b036103f26128f3565b91165f5260066020526001600160a01b0360405f2091165f52602052602060ff60405f2054166040519015158152f35b346102b05760203660031901126102b057600435805f52600a60205260ff600160405f20015460a81c1615610323576103b8602091614206565b346102b05760203660031901126102b057600435805f52600a60205260ff600160405f20015460a81c1615610323575f52600a6020526020600260405f20015460801c604051908152f35b346102b05760203660031901126102b057600435805f52600a60205260ff600160405f20015460a81c1615610323575f52600a60205260206001600160801b03600360405f20015416604051908152f35b346102b05760203660031901126102b057600435610515816136ad565b505f6001600160a01b0360085416916044604051809481937fe9dc637500000000000000000000000000000000000000000000000000000000835230600484015260248301525afa8015610603575f90610586575b610582906040519182916020835260208301906128b8565b0390f35b503d805f833e6105968183612a76565b8101906020818303126102b05780519067ffffffffffffffff82116102b057019080601f830112156102b0578151916105ce83612a98565b916105dc6040519384612a76565b838352602084830101116102b057610582926105fe9160208085019101612897565b61056a565b6040513d5f823e3d90fd5b346102b05760403660031901126102b05760043561062a6128f3565b61063261392b565b815f52600a60205260ff600160405f20015460a81c161561073257815f5260036020526001600160a01b0360405f205416908133036107125761067483614206565b6001600160801b0381169182610702575b6001600160a01b038116156106ef576106a6856001600160a01b03926137f1565b1692836106c05784637e27328960e01b5f5260045260245ffd5b80859185036106d457602084604051908152f35b8492506364283d7b60e01b5f5260045260245260445260645ffd5b633250574960e11b5f525f60045260245ffd5b61070d828587613082565b610685565b8263216caf0d60e01b5f526004526001600160a01b03331660245260445ffd5b5062b8e7e760e51b5f5260045260245ffd5b346102b05760203660031901126102b057600435805f52600a60205260ff600160405f20015460a81c1615610323575f52600a602052602064ffffffffff60405f205460a01c16604051908152f35b346102b05760203660031901126102b057600435805f52600a60205260ff600160405f20015460a81c1615610323575f52600a60205260206001600160a01b0360405f205416604051908152f35b346102b05760203660031901126102b0576004355f52600a602052602060ff600160405f20015460a81c166040519015158152f35b346102b05760803660031901126102b05761082f6128dd565b6108376128f3565b6064359167ffffffffffffffff83116102b057366023840112156102b05782600401359161086483612a98565b926108726040519485612a76565b80845236602482870101116102b0576020815f9260246102ae9801838801378501015260443591612f92565b346102b05760203660031901126102b057600435805f52600a60205260ff600160405f20015460a81c1615610323575f52600b6020526105826108e360405f20612f0b565b604051918291602083526020830190612988565b346102b05760203660031901126102b057600435805f52600a60205260ff600160405f20015460a81c1615610323575f52600a602052602060ff600160405f20015460b01c166040519015158152f35b346102b05760203660031901126102b057600435805f52600a60205260ff600160405f20015460a81c16156103235761097f9061375d565b6040516005821015610992576020918152f35b634e487b7160e01b5f52602160045260245ffd5b346102b05760203660031901126102b057600435805f52600a60205260ff600160405f20015460a81c1615610323575f52600a60205260206001600160801b03600260405f20015416604051908152f35b346102b05760403660031901126102b057610a106128dd565b602435908115158092036102b0576001600160a01b0316908115610a7f57335f52600660205260405f20825f5260205260405f2060ff1981541660ff83161790556040519081527f17307eab39ab6107e8899845ad3d59bd9653f200f220920489ca2b5937696c3160203392a3005b507f5b08ba18000000000000000000000000000000000000000000000000000000005f5260045260245ffd5b346102b0575f3660031901126102b0576040515f6002548060011c90600181168015610ba9575b602083108114610b9557828552908115610b715750600114610b13575b61058283610aff81850382612a76565b6040519182916020835260208301906128b8565b91905060025f527f405787fa12a823e0f2b7631cc41b3ba8828b3321ca811111fa75cd3aa3bb5ace915f905b808210610b5757509091508101602001610aff610aef565b919260018160209254838588010152019101909291610b3f565b60ff191660208086019190915291151560051b84019091019150610aff9050610aef565b634e487b7160e01b5f52602260045260245ffd5b91607f1691610ad2565b346102b0575f3660031901126102b05760206040517f00000000000000000000000000000000000000000000000000000000000000008152f35b346102b05760203660031901126102b057600435805f52600a60205260ff600160405f20015460a81c1615610323575f52600a602052602064ffffffffff60405f205460c81c16604051908152f35b346102b05760203660031901126102b057600435805f52600a60205260ff600160405f20015460a81c161561032357610c749061375d565b6005811015806109925760028214908115610cb0575b8115610c9e575b6020826040519015158152f35b90506109925760046020911482610c91565b5050600381145f610c8a565b346102b05760203660031901126102b057600435604051610180810181811067ffffffffffffffff821117610fd757606091610160916040525f81525f60208201525f60408201525f838201525f60808201525f60a08201525f60c08201525f60e08201525f6101008201525f610120820152610d37612ebb565b6101408201520152805f52600a60205260ff600160405f20015460a81c161561032357805f52600a60205260405f20604051610d7281612a59565b8154906001600160a01b0382168152602081019264ffffffffff8360a01c1684526040820164ffffffffff8460c81c168152606083019160ff8560f01c1615158352608084019460f81c1515855260018101549160a08501946001600160a01b038416865260c0810160ff8560a01c1615158152610e11600260e084019560ff8860a81c161515875260ff61010086019860b01c161515885201612ed9565b61012083019081526002610e248c61375d565b610e2d816129fa565b14610fcf575b5196516001600160a01b0316925164ffffffffff1695511515905115159351151594511515958a5f52600360205260405f20546001600160a01b03169a5f52600b60205260405f2092516001600160a01b0316995164ffffffffff1698511515926040519a610ea46101808d612a76565b8b5260208b019b8c5260408b01998a5260608b0191825260808b0192835260a08b0193845260c08b0194855260e08b019586526101008b019687526101208b019788526101408b01988952610ef890612f0b565b986101608b01998a526040519b8c9b60208d52516001600160a01b031660208d0152516001600160a01b031660408c01525164ffffffffff1660608b01525164ffffffffff1660808a015251151560a089015251151560c0880152516001600160a01b031660e08701525115156101008601525115156101208501525115156101408401525180516001600160801b031661016084015260208101516001600160801b0316610180840152604001516001600160801b03166101a0830152516101c082016101c090526101e0820161058291612988565b5f8752610e33565b634e487b7160e01b5f52604160045260245ffd5b346102b05760203660031901126102b05760043567ffffffffffffffff81116102b05761101c903690600401612957565b9061102561392b565b5f915b80831061103157005b61103c838284612e4a565b359261104661392b565b835f52600a60205260ff600160405f20015460a81c16156113d657835f52600a60205260ff600160405f20015460a01c165f146110905783634a5541ef60e01b5f5260045260245ffd5b909192805f52600a60205260405f205460f81c6113c4576110c5815f52600a6020526001600160a01b0360405f205416331490565b156113ae576110d3816136ce565b90805f52600a6020526110eb600260405f2001612ed9565b916001600160801b038351166001600160801b038216101561139a57815f52600a60205260ff60405f205460f01c161561138657806001600160801b0360208161113f948188511603169501511690612aea565b5f828152600a6020526040902080547dffffffffffffffffffffffffffffffffffffffffffffffffffffffffffff16600160f81b179055916001600160801b038316908115611361575b825f52600a602052600360405f20016001600160801b0382166fffffffffffffffffffffffffffffffff19825416179055825f52600a6020526001600160a01b0360405f205416835f5260036020526001600160a01b0360405f20541694845f52600a60205285827f5edb27d6c1a327513b90a792050debf074b7194444885e3144d4decc5caaaa5061125a6001600160a01b03600160405f2001541694611232888588614660565b604080518b81526001600160801b03808b166020830152909216908201529081906060820190565b0390a47ff8e1a15aba9398e019f0b49df1a4fde98ee17ae345cb5f6b5e2c27f5033e8ce76020604051868152a160ff6112a4866001600160a01b03165f52600960205260405f2090565b54166112ba575b50505050506001019190611028565b60405193630d4af11f60e31b855260048501526024840152604483015260648201526020816084815f865af190811561060357630d4af11f60e31b916001600160e01b0319915f91611333575b50160361131757808080806112ab565b632187e5e760e21b5f526001600160a01b03602491166004525ffd5b611354915060203d811161135a575b61134c8183612a76565b81019061368d565b87611307565b503d611342565b825f52600a602052600160405f2001600160a01b60ff60a01b19825416179055611189565b506339c6dc7360e21b5f526024906004525ffd5b506322cad1af60e11b5f526024906004525ffd5b63216caf0d60e01b5f526004523360245260445ffd5b63fe19f19f60e01b5f5260045260245ffd5b8362b8e7e760e51b5f526024906004525ffd5b346102b05760203660031901126102b05760043561140561392b565b805f52600a60205260ff600160405f20015460a81c1615610323576114298161375d565b611432816129fa565b6004810361144d5750634a5541ef60e01b5f5260045260245ffd5b611456816129fa565b60038103611471575063fe19f19f60e01b5f5260045260245ffd5b60029061147d816129fa565b14611556576114a0815f52600a6020526001600160a01b0360405f205416331490565b1561153757805f52600a60205260ff60405f205460f01c1615611525576020817ff8e1a15aba9398e019f0b49df1a4fde98ee17ae345cb5f6b5e2c27f5033e8ce7925f52600a825260405f2060ff60f01b19815416905560405190807f0eb069207093cd3e51cd1370d2d369770057fbe29947e577e5fb428c6c6fc78f5f80a28152a1005b6339c6dc7360e21b5f5260045260245ffd5b63216caf0d60e01b5f526004526001600160a01b03331660245260445ffd5b6322cad1af60e11b5f5260045260245ffd5b346102b05760203660031901126102b0576004356001600160a01b0381168091036102b0576001600160a01b035f5416338103611643575060085490806001600160a01b03198316176008556001600160a01b036040519216825260208201527fa2548bd4b805e907c1558a47b5858324fe8bb4a2e1ddfca647eecbf65610eebc60403392a26007545f19810190811161162f5760407f6bd5c950a8d8df17f772f5af37cb3655737899cbf903264b9795592da439661c91815190600182526020820152a1005b634e487b7160e01b5f52601160045260245ffd5b6331b339a960e21b5f526004523360245260445ffd5b346102b05760203660031901126102b0576116726128dd565b5f546001600160a01b03811633810361164357506001600160a01b036001600160a01b0319921691829116175f55337fbdd36143ee09de60bdefca70680e0f71189b2ed7acee364b53917ad433fdaf805f80a3005b346102b05760203660031901126102b0576001600160a01b036116e86128dd565b168015611705575f526004602052602060405f2054604051908152f35b7f89c62b64000000000000000000000000000000000000000000000000000000005f525f60045260245ffd5b346102b05760203660031901126102b057602061174f6004356136ad565b6001600160a01b0360405191168152f35b346102b05760203660031901126102b05760043561177c612ea3565b50805f52600a60205260ff600160405f20015460a81c1615610323575f908152600a6020526040908190205481519064ffffffffff60c882901c81169160a01c166117c683612a3d565b825260208201526117ec8251809264ffffffffff60208092828151168552015116910152565bf35b346102b05760203660031901126102b05760043567ffffffffffffffff81116102b0578036036101206003198201126102b05761182961392b565b60c482013590602219018112156102b057810160048101359067ffffffffffffffff82116102b05760240160608202360381136102b05761186b913691612d66565b9081519161187883612d4e565b926118866040519485612a76565b808452601f1961189582612d4e565b015f5b818110611a8857505064ffffffffff4216916001600160801b036118bb82613985565b51511667ffffffffffffffff60206118d284613985565b5101511664ffffffffff8060406118e886613985565b5101511686011690604051926118fd84612a21565b83526020830152604082015261191286613985565b5261191c85613985565b5060015b8281106119f45750505061193682600401612e82565b9261194360248401612e82565b9261195060448201612e6e565b916064820135936001600160a01b0385168095036102b0576020966119ec966119ac966001600160801b036119e1976001600160a01b0361199360848a01612e96565b94816119a160a48c01612e96565b976040519d8e612a04565b168c52168c8b0152166040890152606088015215156080870152151560a086015260c085015260e084015260e4369101612e03565b6101008201526139a6565b604051908152f35b806001600160801b03611a0960019385613992565b51511667ffffffffffffffff6020611a218487613992565b5101511664ffffffffff806040611a3b5f1987018d613992565b51015116816040611a4c878a613992565b5101511601169060405192611a6084612a21565b835260208301526040820152611a768289613992565b52611a818188613992565b5001611920565b602090611a93612ebb565b82828901015201611898565b346102b05760403660031901126102b05760043567ffffffffffffffff81116102b057611ad0903690600401612957565b9060243567ffffffffffffffff81116102b057611af1903690600401612957565b9091611afb61392b565b818403611b67575f5b848110611b0d57005b80611b61611b1e6001938886612e4a565b35611b2a838987612e4a565b355f5260036020526001600160a01b0360405f205416611b53611b4e85898b612e4a565b612e6e565b91611b5c61392b565b6133df565b01611b04565b50827faec93440000000000000000000000000000000000000000000000000000000005f5260045260245260445ffd5b346102b05760203660031901126102b057600435805f52600a60205260ff600160405f20015460a81c1615610323576103b8602091614156565b346102b05760203660031901126102b057600435805f52600a60205260ff600160405f20015460a81c1615610323575f611c0a8261375d565b600581101561099257600203611c28575b6020906040519015158152f35b505f52600a602052602060ff60405f205460f01c16611c1b565b346102b0575f3660031901126102b05760206001600160a01b0360085416604051908152f35b346102b05760203660031901126102b057600435611c8461392b565b805f52600a60205260ff600160405f20015460a81c161561032357805f52600a60205260ff600160405f20015460a01c1615611e0157611cc3816140e4565b156113ae57805f5260036020526001600160a01b0360405f205416151580611dfa575b80611ddd575b611dcb577ff8e1a15aba9398e019f0b49df1a4fde98ee17ae345cb5f6b5e2c27f5033e8ce76020604051838152a1805f5260036020526001600160a01b0360405f2054168015908115611d94575b825f52600360205260405f206001600160a01b03198154169055825f827fddf252ad1be2c89b69c2b068fc378daa952ba7f163c4a11628f55a4df523b3ef8280a450611d8257005b637e27328960e01b5f5260045260245ffd5b611db3835f52600560205260405f206001600160a01b03198154169055565b805f52600460205260405f205f198154019055611d3a565b630da9b01360e01b5f5260045260245ffd5b50805f52600a60205260ff600160405f20015460b01c1615611cec565b505f611ce6565b7f817cd639000000000000000000000000000000000000000000000000000000005f5260045260245ffd5b346102b0576102ae611e3d3661291d565b9060405192611e4d602085612a76565b5f8452612f92565b346102b05760203660031901126102b057600435805f52600a60205260ff600160405f20015460a81c1615610323575f52600a602052602060ff600160405f20015460a01c166040519015158152f35b346102b05760203660031901126102b057600435611ec161392b565b805f52600a60205260ff600160405f20015460a81c161561032357805f52600a60205260ff600160405f20015460a01c165f14611f0a57634a5541ef60e01b5f5260045260245ffd5b805f52600a60205260405f205460f81c6113c457611f3c815f52600a6020526001600160a01b0360405f205416331490565b1561153757611f4a816136ce565b90805f52600a602052611f62600260405f2001612ed9565b916001600160801b038351166001600160801b03821610156121ab57815f52600a60205260ff60405f205460f01c161561219857806001600160801b03602081611fb6948188511603169501511690612aea565b5f828152600a6020526040902080547dffffffffffffffffffffffffffffffffffffffffffffffffffffffffffff16600160f81b179055916001600160801b038316908115612173575b825f52600a602052600360405f20016001600160801b0382166fffffffffffffffffffffffffffffffff19825416179055825f52600a6020526001600160a01b0360405f205416835f5260036020526001600160a01b0360405f20541694845f52600a60205285827f5edb27d6c1a327513b90a792050debf074b7194444885e3144d4decc5caaaa506120a96001600160a01b03600160405f2001541694611232888588614660565b0390a47ff8e1a15aba9398e019f0b49df1a4fde98ee17ae345cb5f6b5e2c27f5033e8ce76020604051868152a1845f52600960205260ff60405f2054166120ec57005b60405193630d4af11f60e31b855260048501526024840152604483015260648201526020816084815f865af190811561060357630d4af11f60e31b916001600160e01b0319915f91612154575b50160361214257005b632187e5e760e21b5f5260045260245ffd5b61216d915060203d60201161135a5761134c8183612a76565b84612139565b825f52600a602052600160405f2001600160a01b60ff60a01b19825416179055612000565b506339c6dc7360e21b5f5260045260245ffd5b506322cad1af60e11b5f5260045260245ffd5b346102b05760203660031901126102b0576121d76128dd565b6001600160a01b035f54169033820361231657806001600160a01b03913b156122ea57166040516301ffc9a760e01b81527ff8ee98d3000000000000000000000000000000000000000000000000000000006004820152602081602481855afa908115610603575f916122bb575b501561229057805f52600960205260405f20600160ff198254161790556040519081527fb4378d4e289cb3f40f4f75a99c9cafa76e3df1c4dc31309babc23dc91bd7280160203392a2005b7f7fb843ea000000000000000000000000000000000000000000000000000000005f5260045260245ffd5b6122dd915060203d6020116122e3575b6122d58183612a76565b810190612e32565b82612245565b503d6122cb565b7f5a2b2d83000000000000000000000000000000000000000000000000000000005f521660045260245ffd5b506331b339a960e21b5f526004523360245260445ffd5b346102b05760203660031901126102b05760043567ffffffffffffffff81116102b05761014060031982360301126102b05761236761392b565b6040519061237482612a04565b61238081600401612909565b825261238e60248201612909565b602083015261239f60448201612ab4565b604083015260648101356001600160a01b03811681036102b05760608301526123ca608482016129ed565b60808301526123db60a482016129ed565b60a08301526123ec60c48201612d3c565b60c083015260e481013567ffffffffffffffff81116102b057810191366023840112156102b0576119e16119ec926124306020953690602460048201359101612d66565b60e0840152610104369101612e03565b346102b05760203660031901126102b0576001600160a01b036124616128dd565b165f526009602052602060ff60405f2054166040519015158152f35b346102b0576102ae61248e3661291d565b91612b0a565b346102b0575f3660031901126102b0576020600754604051908152f35b346102b05760203660031901126102b057600435805f52600a60205260ff600160405f20015460a81c1615610323576124e99061375d565b600581101561099257806020911590811561250a575b506040519015158152f35b6001915014826124ff565b346102b05760203660031901126102b057600435805f52600a60205260ff600160405f20015460a81c1615610323576020905f90805f52600a835260ff60405f205460f01c16806125aa575b612578575b506001600160801b0360405191168152f35b6125a49150805f52600a835261259e6001600160801b03600260405f20015416916136ce565b90612aea565b82612566565b50805f52600a835260ff600160405f20015460a01c1615612561565b346102b05760403660031901126102b0576125df6128dd565b6024356125eb816136ad565b331515806126b8575b80612685575b6126595781906001600160a01b0380851691167f8c5be1e5ebec7d5bd14f71427d1e84f3dd0314c0f7b2291e5b200ac8c7c3b9255f80a45f5260056020526001600160a01b0360405f2091166001600160a01b03198254161790555f80f35b7fa9fbf51f000000000000000000000000000000000000000000000000000000005f523360045260245ffd5b506001600160a01b0381165f52600660205260405f206001600160a01b0333165f5260205260ff60405f205416156125fa565b50336001600160a01b03821614156125f4565b346102b05760203660031901126102b057602061174f600435612ac8565b346102b0575f3660031901126102b0576040515f6001548060011c9060018116801561279a575b602083108114610b9557828552908115610b71575060011461273c5761058283610aff81850382612a76565b91905060015f527fb10e2d527612073b26eecdfd717e6a320cf44b4afac2b0732d9fcbe2b7fa0cf6915f905b80821061278057509091508101602001610aff610aef565b919260018160209254838588010152019101909291612768565b91607f1691612710565b346102b0575f3660031901126102b057602060405167016345785d8a00008152f35b346102b05760203660031901126102b057600435906001600160e01b031982168092036102b057817f490649060000000000000000000000000000000000000000000000000000000060209314908115612822575b5015158152f35b7f80ac58cd0000000000000000000000000000000000000000000000000000000081149150811561286d575b811561285c575b508361281b565b6301ffc9a760e01b91501483612855565b7f5b5e139f000000000000000000000000000000000000000000000000000000008114915061284e565b5f5b8381106128a85750505f910152565b8181015183820152602001612899565b906020916128d181518092818552858086019101612897565b601f01601f1916010190565b600435906001600160a01b03821682036102b057565b602435906001600160a01b03821682036102b057565b35906001600160a01b03821682036102b057565b60609060031901126102b0576004356001600160a01b03811681036102b057906024356001600160a01b03811681036102b0579060443590565b9181601f840112156102b05782359167ffffffffffffffff83116102b0576020808501948460051b0101116102b057565b90602080835192838152019201905f5b8181106129a55750505090565b9091926020606060019264ffffffffff604088516001600160801b03815116845267ffffffffffffffff86820151168685015201511660408201520194019101919091612998565b359081151582036102b057565b6005111561099257565b610120810190811067ffffffffffffffff821117610fd757604052565b6060810190811067ffffffffffffffff821117610fd757604052565b6040810190811067ffffffffffffffff821117610fd757604052565b610140810190811067ffffffffffffffff821117610fd757604052565b90601f8019910116810190811067ffffffffffffffff821117610fd757604052565b67ffffffffffffffff8111610fd757601f01601f191660200190565b35906001600160801b03821682036102b057565b612ad1816136ad565b505f5260056020526001600160a01b0360405f20541690565b906001600160801b03809116911603906001600160801b03821161162f57565b91906001600160a01b031680156106ef57815f5260036020526001600160a01b0360405f205416151580612d34575b80612d17575b612d04577ff8e1a15aba9398e019f0b49df1a4fde98ee17ae345cb5f6b5e2c27f5033e8ce76020604051848152a1815f5260036020526001600160a01b0360405f20541692823315159283612c4f575b6001600160a01b03935085612c18575b805f52600460205260405f2060018154019055815f52600360205260405f20816001600160a01b0319825416179055857fddf252ad1be2c89b69c2b068fc378daa952ba7f163c4a11628f55a4df523b3ef5f80a416808303612c0057505050565b6364283d7b60e01b5f5260045260245260445260645ffd5b612c37825f52600560205260405f206001600160a01b03198154169055565b855f52600460205260405f205f198154019055612b9f565b9192905080612cad575b15612c6657828291612b8f565b8284612c7e57637e27328960e01b5f5260045260245ffd5b7f177e802f000000000000000000000000000000000000000000000000000000005f523360045260245260445ffd5b503384148015612cdb575b80612c595750825f526005602052336001600160a01b0360405f20541614612c59565b50835f52600660205260405f206001600160a01b0333165f5260205260ff60405f205416612cb8565b50630da9b01360e01b5f5260045260245ffd5b50815f52600a60205260ff600160405f20015460b01c1615612b3f565b506001612b39565b359064ffffffffff821682036102b057565b67ffffffffffffffff8111610fd75760051b60200190565b929192612d7282612d4e565b93612d806040519586612a76565b60606020868581520193028201918183116102b057925b828410612da45750505050565b6060848303126102b05760405190612dbb82612a21565b612dc485612ab4565b825260208501359067ffffffffffffffff821682036102b05782602092836060950152612df360408801612d3c565b6040820152815201930192612d97565b91908260409103126102b057604051612e1b81612a3d565b6020808294612e2981612909565b84520135910152565b908160209103126102b0575180151581036102b05790565b9190811015612e5a5760051b0190565b634e487b7160e01b5f52603260045260245ffd5b356001600160801b03811681036102b05790565b356001600160a01b03811681036102b05790565b3580151581036102b05790565b60405190612eb082612a3d565b5f6020838281520152565b60405190612ec882612a21565b5f6040838281528260208201520152565b90604051612ee681612a21565b60406001600160801b03600183958054838116865260801c6020860152015416910152565b908154612f1781612d4e565b92612f256040519485612a76565b81845260208401905f5260205f205f915b838310612f435750505050565b600160208192604051612f5581612a21565b64ffffffffff86546001600160801b038116835267ffffffffffffffff8160801c168584015260c01c166040820152815201920192019190612f36565b90612f9e838284612b0a565b803b612fab575b50505050565b602091612ff16001600160a01b03809316956040519586948594630a85bd0160e11b865233600487015216602485015260448401526080606484015260848301906128b8565b03815f865af15f9181613061575b5061302d575061300d6141d7565b805190816130285782633250574960e11b5f5260045260245ffd5b602001fd5b6001600160e01b0319630a85bd0160e11b91160361304f57505f808080612fa5565b633250574960e11b5f5260045260245ffd5b61307b91925060203d60201161135a5761134c8183612a76565b905f612fff565b9061308b61392b565b815f52600a60205260ff600160405f20015460a81c161561073257815f52600a60205260ff600160405f20015460a01c166133cc576001600160a01b03811680156133a0576001600160801b03841691821561337457835f5260036020526001600160a01b0360405f205416948583141580613364575b613330576001600160801b0361311786614206565b168085116132fd575061313c90855f52600a602052600260405f20015460801c61422c565b5f858152600a6020526040902060020180546001600160801b031660809290921b6fffffffffffffffffffffffffffffffff191691909117815561317f90612ed9565b6001600160801b036131a38160208401511692826040818351169201511690612aea565b1611156132cb575b835f52600a6020526131cf836001600160a01b03600160405f200154169283614660565b81847f40b88e5c41c5a97ffb7b6ef88a0a2d505aa0c634cf8a0275cb236ea7dd87ed4d6020604051878152a47ff8e1a15aba9398e019f0b49df1a4fde98ee17ae345cb5f6b5e2c27f5033e8ce76020604051858152a183331415806132b5575b6132395750505050565b604051926392b9102b60e01b84526004840152336024840152604483015260648201526020816084815f865af1908115610603576392b9102b60e01b916001600160e01b0319915f91613296575b50160361214257808080612fa5565b6132af915060203d60201161135a5761134c8183612a76565b5f613287565b50835f52600960205260ff60405f20541661322f565b5f848152600a6020526040902060018101805460ff60a01b1916600160a01b179055805460ff60f01b191690556131ab565b84867fa1fb2bbc000000000000000000000000000000000000000000000000000000005f5260045260245260445260645ffd5b82857fb34359d3000000000000000000000000000000000000000000000000000000005f526004523360245260445260645ffd5b5061336e856140e4565b15613102565b837fd2aabcd9000000000000000000000000000000000000000000000000000000005f5260045260245ffd5b827f7fbf7168000000000000000000000000000000000000000000000000000000005f5260045260245ffd5b50634a5541ef60e01b5f5260045260245ffd5b90815f52600a60205260ff600160405f20015460a81c161561073257815f52600a60205260ff600160405f20015460a01c166133cc576001600160a01b03811680156133a0576001600160801b03841691821561337457835f5260036020526001600160a01b0360405f20541694858314158061367d575b613330576001600160801b0361346c86614206565b168085116132fd575061349190855f52600a602052600260405f20015460801c61422c565b5f858152600a6020526040902060020180546001600160801b031660809290921b6fffffffffffffffffffffffffffffffff19169190911781556134d490612ed9565b6001600160801b036134f88160208401511692826040818351169201511690612aea565b16111561364b575b835f52600a602052613524836001600160a01b03600160405f200154169283614660565b81847f40b88e5c41c5a97ffb7b6ef88a0a2d505aa0c634cf8a0275cb236ea7dd87ed4d6020604051878152a47ff8e1a15aba9398e019f0b49df1a4fde98ee17ae345cb5f6b5e2c27f5033e8ce76020604051858152a18333141580613626575b61358e5750505050565b604051926392b9102b60e01b84526004840152336024840152604483015260648201526020816084815f865af1908115610603576392b9102b60e01b916001600160e01b0319915f91613607575b5016036135eb57808080612fa5565b6001600160a01b0390632187e5e760e21b5f521660045260245ffd5b613620915060203d60201161135a5761134c8183612a76565b5f6135dc565b5060ff613644856001600160a01b03165f52600960205260405f2090565b5416613584565b5f848152600a6020526040902060018101805460ff60a01b1916600160a01b179055805460ff60f01b19169055613500565b50613687856140e4565b15613457565b908160209103126102b057516001600160e01b0319811681036102b05790565b805f5260036020526001600160a01b0360405f205416908115611d82575090565b64ffffffffff4216815f52600a6020528064ffffffffff60405f205460a01c16101561375757815f52600a60205264ffffffffff60405f205460c81c16111561373c57805f52600b602052600160405f2054115f14613733576137309061430c565b90565b6137309061424c565b5f52600a6020526001600160801b03600260405f2001541690565b50505f90565b805f52600a60205260ff600160405f20015460a01c165f1461377f5750600490565b805f52600a60205260405f205460f81c6137eb57805f52600a60205264ffffffffff60405f205460a01c1642106137e6576137b9816136ce565b905f52600a6020526001600160801b0380600260405f200154169116105f146137e157600190565b600290565b505f90565b50600390565b90805f5260036020526001600160a01b0360405f205416151580613919575b806138fc575b611dcb577ff8e1a15aba9398e019f0b49df1a4fde98ee17ae345cb5f6b5e2c27f5033e8ce76020604051838152a1805f5260036020526001600160a01b038060405f20541692836138c5575b16806138ad575b815f52600360205260405f20816001600160a01b0319825416179055827fddf252ad1be2c89b69c2b068fc378daa952ba7f163c4a11628f55a4df523b3ef5f80a490565b805f52600460205260405f2060018154019055613869565b6138e4835f52600560205260405f206001600160a01b03198154169055565b835f52600460205260405f205f198154019055613862565b50805f52600a60205260ff600160405f20015460b01c1615613816565b506001600160a01b0382161515613810565b6001600160a01b037f000000000000000000000000000000000000000000000000000000000000000016300361395d57565b7fa1c0d6e5000000000000000000000000000000000000000000000000000000005f5260045ffd5b805115612e5a5760200190565b8051821015612e5a5760209160051b010190565b906139c86001600160801b036040840151166020610100850151015190614522565b916001600160801b038351169060e08101519160c082019264ffffffffff84511682156140bc578015614094578151801561406c577f00000000000000000000000000000000000000000000000000000000000000008111614041575064ffffffffff6040613a3684613985565b51015116811015613ffd57505f905f905f81515f905b808210613f75575050505064ffffffffff80421691169081811015613f475750506001600160801b031690818103613f1957505060075493845f52600a60205260405f20916001600160801b038251166001600160801b036002850191166fffffffffffffffffffffffffffffffff198254161790556001600160a01b03606082015116916001600160a01b036001850193166001600160a01b031984541617835560808201948551151560ff60f01b197eff00000000000000000000000000000000000000000000000000000000000087549260f01b169116178555835493750100000000000000000000000000000000000000000060a08501957fffffffffffffffffff0000ffffffffffffffffffffffffffffffffffffffffff76ff000000000000000000000000000000000000000000008851151560b01b169116171790556001600160a01b0380845116166001600160a01b03198654161785555184549060e0840151917fffff00000000000000000000ffffffffffffffffffffffffffffffffffffffff78ffffffffff00000000000000000000000000000000000000007dffffffffff000000000000000000000000000000000000000000000000006040613c218751975f19890190613992565b51015160c81b169360a01b169116171785555f5b818110613e0b575050600187016007556001600160a01b0360208301511680156106ef57613c6b886001600160a01b03926137f1565b16613ddf578682613cb96001600160a01b0360607f33eb09bbf19ea3fb22c760d5164234f8bf62ca07dcf5a437ad389e96b0bd6443960151166001600160801b0385511690309033906145ff565b6001600160801b0360208401511680613daf575b506001600160a01b0381511694613da4613d866001600160a01b03602085015116986001600160a01b036060860151169a511515935115156001600160a01b0361010060e088015193549764ffffffffff60405199613d2b8b612a3d565b818160a01c168b5260c81c1660208a015201515116946001600160801b0360206040519a8b9a8b5233828c01528281511660408c01520151166060890152608088015260a087015261014060c0870152610140860190612988565b9260e085019064ffffffffff60208092828151168552015116910152565b6101208301520390a4565b613dd9906001600160a01b036060840151166001600160a01b0361010085015151169033906145ff565b5f613ccd565b7f73c6ac6e000000000000000000000000000000000000000000000000000000005f525f60045260245ffd5b885f52600b60205260405f2090613e268160e0870151613992565b51825468010000000000000000811015610fd75760018101808555811015612e5a576001935f5260205f2001906001600160801b0380825116166fffffffffffffffffffffffffffffffff198354161782556020810151907fffffff00000000000000000000000000ffffffffffffffffffffffffffffffff7cffffffffff000000000000000000000000000000000000000000000000604077ffffffffffffffff0000000000000000000000000000000086549560801b1693847fffffffffffffffff0000000000000000ffffffffffffffffffffffffffffffff8716178755015160c01b1692161717905501613c35565b7fd90b7e39000000000000000000000000000000000000000000000000000000005f5260045260245260445ffd5b7f210aec0e000000000000000000000000000000000000000000000000000000005f5260045260245260445ffd5b9193509193613f99906001600160801b03613f908588613992565b5151169061422c565b9364ffffffffff806040613fad8685613992565b51015116941680851115613fc957506001849301909291613a4c565b8490847f9588ac09000000000000000000000000000000000000000000000000000000005f5260045260245260445260645ffd5b64ffffffffff604061400e84613985565b51015116907ff539a17c000000000000000000000000000000000000000000000000000000005f5260045260245260445ffd5b7f4757689b000000000000000000000000000000000000000000000000000000005f5260045260245ffd5b7f3952c64e000000000000000000000000000000000000000000000000000000005f5260045ffd5b7fd572dbcb000000000000000000000000000000000000000000000000000000005f5260045ffd5b7f6095d3bc000000000000000000000000000000000000000000000000000000005f5260045ffd5b805f5260036020526001600160a01b0360405f2054169081331491821561412a575b508115614111575090565b90506001600160a01b036141253392612ac8565b161490565b9091505f52600660205260405f206001600160a01b0333165f5260205260ff60405f205416905f614106565b805f52600a60205261416d600260405f2001612ed9565b90805f52600a60205260ff600160405f20015460a01c165f1461419b5750602001516001600160801b031690565b90815f52600a60205260405f205460f81c6141ba5750613730906136ce565b61373091506001600160801b036040818351169201511690612aea565b3d15614201573d906141e882612a98565b916141f66040519384612a76565b82523d5f602084013e565b606090565b6137309061421381614156565b905f52600a602052600260405f20015460801c90612aea565b906001600160801b03809116911601906001600160801b03821161162f57565b5f818152600a60205260409020546142839064ffffffffff60a082901c811660c89290921c811682900381169142821603166146b0565b90805f52600b60205260405f20805415612e5a575f526142d867ffffffffffffffff60205f205460801c1692825f52600a6020526142d36001600160801b03600260405f20015416948592614790565b614803565b9182136142f557506142f16001600160801b03916148de565b1690565b90505f52600a602052600260405f20015460801c90565b9064ffffffffff421691805f52600a60205260405f20906040519061433082612a59565b6101206143c360028554956001600160a01b0387168652602086019664ffffffffff8160a01c16885264ffffffffff8160c81c16604088015260ff8160f01c161515606088015260f81c1515608087015260ff60018201546001600160a01b03811660a0890152818160a01c16151560c0890152818160a81c16151560e089015260b01c16151561010087015201612ed9565b92019182525f52600b6020526143db60405f20612f0b565b915f9264ffffffffff60406143ef83613985565b510151168664ffffffffff5f925b16106144e3578161447464ffffffffff9697988784816001600160801b0361442c6142d3986144799b9a613992565b5151169a8b9867ffffffffffffffff6020614447868b613992565b51015116978260406144598784613992565b5101511694806144c6575050511680925b03169203166146b0565b614790565b91821361449a5750906001600160801b0361449481936148de565b16011690565b6001600160801b03915060209051015116806001600160801b038316115f146144c1575090565b905090565b60409250906144d8915f190190613992565b51015116809261446a565b936001600160801b03600191816144fa8886613992565b51511601169401958064ffffffffff8060406145168b87613992565b510151169892986143fd565b91909160405161453181612a3d565b5f81525f6020820152926001600160801b0382169081156145e25767016345785d8a000081116145ab5761456d6001600160801b0391836154fb565b1660208501918183521115614597576001600160801b03918261459292511690612aea565b168252565b634e487b7160e01b5f52600160045260245ffd5b7f4fea5c1a000000000000000000000000000000000000000000000000000000005f5260045267016345785d8a000060245260445ffd5b50505090506040516145f381612a3d565b5f81525f602082015290565b9091926001600160a01b0361465e9481604051957f23b872dd000000000000000000000000000000000000000000000000000000006020880152166024860152166044840152606483015260648252614659608483612a76565b614913565b565b61465e926001600160a01b03604051937fa9059cbb000000000000000000000000000000000000000000000000000000006020860152166024840152604483015260448252614659606483612a76565b600160ff1b81148015614783575b61475b575f811215614752576146e2815f035b5f84121561474b57835f0390614998565b917f7fffffffffffffffffffffffffffffffffffffffffffffffffffffffffffffff831161471c575f19911813156147175790565b5f0390565b907fd49c26b3000000000000000000000000000000000000000000000000000000005f5260045260245260445ffd5b8390614998565b6146e2816146d1565b7f9fe2b450000000000000000000000000000000000000000000000000000000005f5260045ffd5b50600160ff1b82146146be565b806147aa57506147a657670de0b6b3a764000090565b5f90565b90670de0b6b3a764000082146147f557806147cd575050670de0b6b3a764000090565b670de0b6b3a764000081146147f1576147ec906142d361373093614a9e565b614bf5565b5090565b5050670de0b6b3a764000090565b600160ff1b811480156148d1575b6148a9575f8112156148a057614835815f035b5f84121561489957835f03906154fb565b917f7fffffffffffffffffffffffffffffffffffffffffffffffffffffffffffffff831161486a575f19911813156147175790565b907f120b5b43000000000000000000000000000000000000000000000000000000005f5260045260245260445ffd5b83906154fb565b61483581614824565b7fa6070c25000000000000000000000000000000000000000000000000000000005f5260045ffd5b50600160ff1b8214614811565b5f81126148e85790565b7f2463f3d5000000000000000000000000000000000000000000000000000000005f5260045260245ffd5b5f806001600160a01b0361493c93169360208151910182865af16149356141d7565b90836155a9565b805190811515918261497d575b50506149525750565b7f5274afe7000000000000000000000000000000000000000000000000000000005f5260045260245ffd5b6149909250602080918301019101612e32565b155f80614949565b5f19670de0b6b3a7640000820991670de0b6b3a7640000820291828085109403938085039414614a635781841015614a2957670de0b6b3a7640000829109600182190182168092046002816003021880820260020302808202600203028082026002030280820260020302808202600203028091026002030293600183805f03040190848311900302920304170290565b7f63a05778000000000000000000000000000000000000000000000000000000005f52600452670de0b6b3a764000060245260445260645ffd5b5091508115614a70570490565b634e487b7160e01b5f52601260045260245ffd5b8015614a70576ec097ce7bc90715b34b9f10000000000590565b805f811315614bca57670de0b6b3a76400008112614baa57506001905b670de0b6b3a764000081056001600160801b03811160071b90811c67ffffffffffffffff811160061b90811c63ffffffff811160051b90811c61ffff811160041b90811c9060ff821160031b91821c92600f841160021b93841c94600160038711811b96871c119617171717171717670de0b6b3a7640000810291811d90670de0b6b3a76400008214614b9757506706f05b59d3b20000905b5f8213614b615750500290565b80670de0b6b3a764000091020590671bc16d674ec80000821215614b89575b60011d90614b54565b809192019160011d90614b80565b9050670de0b6b3a7640000929150020290565b5f1991508015614a70576ec097ce7bc90715b34b9f100000000005614abb565b7f059b101b000000000000000000000000000000000000000000000000000000005f5260045260245ffd5b5f811215614c225768033dd1780914b971141981126137e657614c19905f03614bf5565b61373090614a84565b680a688906bd8affffff81136154d057670de0b6b3a76400009060401b057780000000000000000000000000000000000000000000000067ff00000000000000821661539b575b670de0b6b3a76400009066ff000000000000831661528b575b65ff00000000008316615183575b64ff000000008316615083575b63ff0000008316614f8b575b62ff00008316614e9b575b61ff008316614db3575b60ff8316614cd3575b029060401c60bf031c90565b60808316614da0575b60408316614d8d575b60208316614d7a575b60108316614d67575b60088316614d54575b60048316614d41575b60028316614d2e575b6001831615614cc757680100000000000000010260401c614cc7565b680100000000000000010260401c614d12565b680100000000000000030260401c614d09565b680100000000000000060260401c614d00565b6801000000000000000b0260401c614cf7565b680100000000000000160260401c614cee565b6801000000000000002c0260401c614ce5565b680100000000000000590260401c614cdc565b6180008316614e88575b6140008316614e75575b6120008316614e62575b6110008316614e4f575b6108008316614e3c575b6104008316614e29575b6102008316614e16575b610100831615614cbe57680100000000000000b10260401c614cbe565b680100000000000001630260401c614df9565b680100000000000002c60260401c614def565b6801000000000000058c0260401c614de5565b68010000000000000b170260401c614ddb565b6801000000000000162e0260401c614dd1565b68010000000000002c5d0260401c614dc7565b680100000000000058b90260401c614dbd565b628000008316614f78575b624000008316614f65575b622000008316614f52575b621000008316614f3f575b620800008316614f2c575b620400008316614f19575b620200008316614f06575b62010000831615614cb4576801000000000000b1720260401c614cb4565b680100000000000162e40260401c614ee8565b6801000000000002c5c80260401c614edd565b68010000000000058b910260401c614ed2565b680100000000000b17210260401c614ec7565b68010000000000162e430260401c614ebc565b680100000000002c5c860260401c614eb1565b6801000000000058b90c0260401c614ea6565b63800000008316615070575b6340000000831661505d575b6320000000831661504a575b63100000008316615037575b63080000008316615024575b63040000008316615011575b63020000008316614ffe575b6301000000831615614ca95768010000000000b172180260401c614ca9565b6801000000000162e4300260401c614fdf565b68010000000002c5c8600260401c614fd3565b680100000000058b90c00260401c614fc7565b6801000000000b17217f0260401c614fbb565b680100000000162e42ff0260401c614faf565b6801000000002c5c85fe0260401c614fa3565b68010000000058b90bfc0260401c614f97565b6480000000008316615170575b644000000000831661515d575b642000000000831661514a575b6410000000008316615137575b6408000000008316615124575b6404000000008316615111575b64020000000083166150fe575b640100000000831615614c9d57680100000000b17217f80260401c614c9d565b68010000000162e42ff10260401c6150de565b680100000002c5c85fe30260401c6150d1565b6801000000058b90bfce0260401c6150c4565b68010000000b17217fbb0260401c6150b7565b6801000000162e42fff00260401c6150aa565b68010000002c5c8601cc0260401c61509d565b680100000058b90c0b490260401c615090565b658000000000008316615278575b654000000000008316615265575b652000000000008316615252575b65100000000000831661523f575b65080000000000831661522c575b650400000000008316615219575b650200000000008316615206575b65010000000000831615614c90576801000000b1721835510260401c614c90565b680100000162e430e5a20260401c6151e5565b6801000002c5c863b73f0260401c6151d7565b68010000058b90cf1e6e0260401c6151c9565b680100000b1721bcfc9a0260401c6151bb565b68010000162e43f4f8310260401c6151ad565b680100002c5c89d5ec6d0260401c61519f565b6801000058b91b5bc9ae0260401c615191565b66800000000000008316615388575b66400000000000008316615375575b66200000000000008316615362575b6610000000000000831661534f575b6608000000000000831661533c575b66040000000000008316615329575b66020000000000008316615316575b6601000000000000831615614c825768010000b17255775c040260401c614c82565b6801000162e525ee05470260401c6152f4565b68010002c5cc37da94920260401c6152e5565b680100058ba01fb9f96d0260401c6152d6565b6801000b175effdc76ba0260401c6152c7565b680100162f3904051fa10260401c6152b8565b6801002c605e2e8cec500260401c6152a9565b68010058c86da1c09ea20260401c61529a565b67800000000000000082166154b1575b670de0b6b3a764000090674000000000000000831661549e575b672000000000000000831661548b575b6710000000000000008316615478575b6708000000000000008316615465575b6704000000000000008316615452575b670200000000000000831661543f575b670100000000000000831661542c575b9050614c69565b680100b1afa5abcbed610260401c615425565b68010163da9fb33356d80260401c615415565b680102c9a3e778060ee70260401c615405565b6801059b0d31585743ae0260401c6153f5565b68010b5586cf9890f62a0260401c6153e5565b6801172b83c7d517adce0260401c6153d5565b6801306fe0a31b7152df0260401c6153c5565b5077b504f333f9de6484800000000000000000000000000000006153ab565b7f0360d028000000000000000000000000000000000000000000000000000000005f5260045260245ffd5b9091905f198382098382029182808310920391808303921461559857670de0b6b3a7640000821015615568577faccb18165bd6fe31ae1cf318dc5b51eee0e1ba569b88cd74c1773b91fac106699394670de0b6b3a7640000910990828211900360ee1b910360121c170290565b84907f5173648d000000000000000000000000000000000000000000000000000000005f5260045260245260445ffd5b5050670de0b6b3a764000090049150565b906155e657508051156155be57805190602001fd5b7f1425ea42000000000000000000000000000000000000000000000000000000005f5260045ffd5b8151158061562c575b6155f7575090565b6001600160a01b03907f9996b315000000000000000000000000000000000000000000000000000000005f521660045260245ffd5b50803b156155ef56fea164736f6c634300081a000a",
    "linkReferences": {}
  },
  "methodIdentifiers": {
    "MAX_BROKER_FEE()": "027b6744",
    "MAX_SEGMENT_COUNT()": "9188ec84",
    "admin()": "f851a440",
    "allowToHook(address)": "406887cb",
    "approve(address,uint256)": "095ea7b3",
    "balanceOf(address)": "70a08231",
    "burn(uint256)": "42966c68",
    "cancel(uint256)": "40e58ee5",
    "cancelMultiple(uint256[])": "8659c270",
    "createWithDurations((address,address,uint128,address,bool,bool,(uint128,uint64,uint40)[],(address,uint256)))": "54c02292",
    "createWithTimestamps((address,address,uint128,address,bool,bool,uint40,(uint128,uint64,uint40)[],(address,uint256)))": "31df3d48",
    "getApproved(uint256)": "081812fc",
    "getAsset(uint256)": "eac8f5b8",
    "getDepositedAmount(uint256)": "a80fc071",
    "getEndTime(uint256)": "9067b677",
    "getRecipient(uint256)": "6d0cee75",
    "getRefundedAmount(uint256)": "d4dbd20b",
    "getSegments(uint256)": "b637b865",
    "getSender(uint256)": "b971302a",
    "getStartTime(uint256)": "bc2be1be",
    "getStream(uint256)": "894e9a0d",
    "getTimestamps(uint256)": "57404b12",
    "getWithdrawnAmount(uint256)": "d511609f",
    "isAllowedToHook(address)": "303acc85",
    "isApprovedForAll(address,address)": "e985e9c5",
    "isCancelable(uint256)": "4857501f",
    "isCold(uint256)": "8f69b993",
    "isDepleted(uint256)": "425d30dd",
    "isStream(uint256)": "b8a3be66",
    "isTransferable(uint256)": "b2564569",
    "isWarm(uint256)": "1c1cdd4c",
    "name()": "06fdde03",
    "nextStreamId()": "1e99d569",
    "nftDescriptor()": "44267570",
    "ownerOf(uint256)": "6352211e",
    "refundableAmountOf(uint256)": "1400ecec",
    "renounce(uint256)": "7de6b1db",
    "safeTransferFrom(address,address,uint256)": "42842e0e",
    "safeTransferFrom(address,address,uint256,bytes)": "b88d4fde",
    "setApprovalForAll(address,bool)": "a22cb465",
    "setNFTDescriptor(address)": "7cad6cd1",
    "statusOf(uint256)": "ad35efd4",
    "streamedAmountOf(uint256)": "4869e12d",
    "supportsInterface(bytes4)": "01ffc9a7",
    "symbol()": "95d89b41",
    "tokenURI(uint256)": "c87b56dd",
    "transferAdmin(address)": "75829def",
    "transferFrom(address,address,uint256)": "23b872dd",
    "wasCanceled(uint256)": "f590c176",
    "withdraw(uint256,address,uint128)": "fdd46d60",
    "withdrawMax(uint256,address)": "ea5ead19",
    "withdrawMaxAndTransfer(uint256,address)": "c156a11d",
    "withdrawMultiple(uint256[],uint128[])": "4cc55e11",
    "withdrawableAmountOf(uint256)": "d975dfed"
  },
  "id": 84
}