{"abi":[{"type":"constructor","inputs":[{"name":"baseParams","type":"tuple","internalType":"struct MerkleLockup.ConstructorParams","components":[{"name":"asset","type":"address","internalType":"contract IERC20"},{"name":"cancelable","type":"bool","internalType":"bool"},{"name":"expiration","type":"uint40","internalType":"uint40"},{"name":"initialAdmin","type":"address","internalType":"address"},{"name":"ipfsCID","type":"string","internalType":"string"},{"name":"merkleRoot","type":"bytes32","internalType":"bytes32"},{"name":"name","type":"string","internalType":"string"},{"name":"transferable","type":"bool","internalType":"bool"}]},{"name":"lockupLinear","type":"address","internalType":"contract ISablierV2LockupLinear"},{"name":"streamDurations_","type":"tuple","internalType":"struct LockupLinear.Durations","components":[{"name":"cliff","type":"uint40","internalType":"uint40"},{"name":"total","type":"uint40","internalType":"uint40"}]}],"stateMutability":"nonpayable"},{"type":"function","name":"ASSET","inputs":[],"outputs":[{"name":"","type":"address","internalType":"contract IERC20"}],"stateMutability":"view"},{"type":"function","name":"CANCELABLE","inputs":[],"outputs":[{"name":"","type":"bool","internalType":"bool"}],"stateMutability":"view"},{"type":"function","name":"EXPIRATION","inputs":[],"outputs":[{"name":"","type":"uint40","internalType":"uint40"}],"stateMutability":"view"},{"type":"function","name":"LOCKUP_LINEAR","inputs":[],"outputs":[{"name":"","type":"address","internalType":"contract ISablierV2LockupLinear"}],"stateMutability":"view"},{"type":"function","name":"MERKLE_ROOT","inputs":[],"outputs":[{"name":"","type":"bytes32","internalType":"bytes32"}],"stateMutability":"view"},{"type":"function","name":"TRANSFERABLE","inputs":[],"outputs":[{"name":"","type":"bool","internalType":"bool"}],"stateMutability":"view"},{"type":"function","name":"admin","inputs":[],"outputs":[{"name":"","type":"address","internalType":"address"}],"stateMutability":"view"},{"type":"function","name":"claim","inputs":[{"name":"index","type":"uint256","internalType":"uint256"},{"name":"recipient","type":"address","internalType":"address"},{"name":"amount","type":"uint128","internalType":"uint128"},{"name":"merkleProof","type":"bytes32[]","internalType":"bytes32[]"}],"outputs":[{"name":"streamId","type":"uint256","internalType":"uint256"}],"stateMutability":"nonpayable"},{"type":"function","name":"claimRebasingAssetYield","inputs":[{"name":"asset","type":"address","internalType":"contract IERC20Rebasing"},{"name":"amount","type":"uint256","internalType":"uint256"},{"name":"to","type":"address","internalType":"address"}],"outputs":[{"name":"claimed","type":"uint256","internalType":"uint256"}],"stateMutability":"nonpayable"},{"type":"function","name":"clawback","inputs":[{"name":"to","type":"address","internalType":"address"},{"name":"amount","type":"uint128","internalType":"uint128"}],"outputs":[],"stateMutability":"nonpayable"},{"type":"function","name":"configureRebasingAsset","inputs":[{"name":"asset","type":"address","internalType":"contract IERC20Rebasing"},{"name":"yieldMode","type":"uint8","internalType":"enum YieldMode"}],"outputs":[],"stateMutability":"nonpayable"},{"type":"function","name":"configureYieldAndGas","inputs":[{"name":"blast","type":"address","internalType":"contract IBlast"},{"name":"yieldMode","type":"uint8","internalType":"enum YieldMode"},{"name":"gasMode","type":"uint8","internalType":"enum GasMode"},{"name":"governor","type":"address","internalType":"address"}],"outputs":[],"stateMutability":"nonpayable"},{"type":"function","name":"getClaimableRebasingAssetYield","inputs":[{"name":"asset","type":"address","internalType":"contract IERC20Rebasing"}],"outputs":[{"name":"claimableYield","type":"uint256","internalType":"uint256"}],"stateMutability":"view"},{"type":"function","name":"getFirstClaimTime","inputs":[],"outputs":[{"name":"","type":"uint40","internalType":"uint40"}],"stateMutability":"view"},{"type":"function","name":"getRebasingAssetConfiguration","inputs":[{"name":"asset","type":"address","internalType":"contract IERC20Rebasing"}],"outputs":[{"name":"yieldMode","type":"uint8","internalType":"enum YieldMode"}],"stateMutability":"view"},{"type":"function","name":"hasClaimed","inputs":[{"name":"index","type":"uint256","internalType":"uint256"}],"outputs":[{"name":"","type":"bool","internalType":"bool"}],"stateMutability":"view"},{"type":"function","name":"hasExpired","inputs":[],"outputs":[{"name":"","type":"bool","internalType":"bool"}],"stateMutability":"view"},{"type":"function","name":"ipfsCID","inputs":[],"outputs":[{"name":"","type":"string","internalType":"string"}],"stateMutability":"view"},{"type":"function","name":"name","inputs":[],"outputs":[{"name":"","type":"string","internalType":"string"}],"stateMutability":"view"},{"type":"function","name":"streamDurations","inputs":[],"outputs":[{"name":"cliff","type":"uint40","internalType":"uint40"},{"name":"total","type":"uint40","internalType":"uint40"}],"stateMutability":"view"},{"type":"function","name":"transferAdmin","inputs":[{"name":"newAdmin","type":"address","internalType":"address"}],"outputs":[],"stateMutability":"nonpayable"},{"type":"event","name":"Claim","inputs":[{"name":"index","type":"uint256","indexed":false,"internalType":"uint256"},{"name":"recipient","type":"address","indexed":true,"internalType":"address"},{"name":"amount","type":"uint128","indexed":false,"internalType":"uint128"},{"name":"streamId","type":"uint256","indexed":true,"internalType":"uint256"}],"anonymous":false},{"type":"event","name":"Clawback","inputs":[{"name":"admin","type":"address","indexed":true,"internalType":"address"},{"name":"to","type":"address","indexed":true,"internalType":"address"},{"name":"amount","type":"uint128","indexed":false,"internalType":"uint128"}],"anonymous":false},{"type":"event","name":"TransferAdmin","inputs":[{"name":"oldAdmin","type":"address","indexed":true,"internalType":"address"},{"name":"newAdmin","type":"address","indexed":true,"internalType":"address"}],"anonymous":false},{"type":"error","name":"AddressEmptyCode","inputs":[{"name":"target","type":"address","internalType":"address"}]},{"type":"error","name":"AddressInsufficientBalance","inputs":[{"name":"account","type":"address","internalType":"address"}]},{"type":"error","name":"CallerNotAdmin","inputs":[{"name":"admin","type":"address","internalType":"address"},{"name":"caller","type":"address","internalType":"address"}]},{"type":"error","name":"FailedInnerCall","inputs":[]},{"type":"error","name":"SablierV2MerkleLockup_CampaignExpired","inputs":[{"name":"blockTimestamp","type":"uint256","internalType":"uint256"},{"name":"expiration","type":"uint40","internalType":"uint40"}]},{"type":"error","name":"SablierV2MerkleLockup_CampaignNameTooLong","inputs":[{"name":"nameLength","type":"uint256","internalType":"uint256"},{"name":"maxLength","type":"uint256","internalType":"uint256"}]},{"type":"error","name":"SablierV2MerkleLockup_ClawbackNotAllowed","inputs":[{"name":"blockTimestamp","type":"uint256","internalType":"uint256"},{"name":"expiration","type":"uint40","internalType":"uint40"},{"name":"firstClaimTime","type":"uint40","internalType":"uint40"}]},{"type":"error","name":"SablierV2MerkleLockup_InvalidProof","inputs":[]},{"type":"error","name":"SablierV2MerkleLockup_StreamClaimed","inputs":[{"name":"index","type":"uint256","internalType":"uint256"}]},{"type":"error","name":"SafeERC20FailedOperation","inputs":[{"name":"token","type":"address","internalType":"address"}]}],"bytecode":{"object":"0x610160806040523461042857611bee803803809161001d8285610560565b833981019080820390608082126104285780516001600160401b03811161042857810190610100828503126104285760405161010081016001600160401b038111828210176105355760405282516001600160a01b038116810361042857815261008960208401610583565b6020820190815261009c60408501610590565b60408301908152606085015194906001600160a01b0386168603610428576060840195865260808201516001600160401b03811161042857886100e09184016105de565b6080850190815260a08381015190860190815260c084015190999192916001600160401b0382116104285761011c60e09161012a9387016105de565b9460c0880195865201610583565b9360e0860194855260208701519560018060a01b038716998a880361042857604090603f1901126104285760408051989089016001600160401b0381118a8210176105355761018d9160609160405261018560408201610590565b8b5201610590565b9860208901998a52855151602081116105495750515f80546001600160a01b0319166001600160a01b0392831617905590511660805251151560a0525164ffffffffff1660c0525180519097906001600160401b03811161053557600154600181811c9116801561052b575b602082101461051757601f81116104b4575b506020601f821160011461044857819064ffffffffff98999a5f9261043d575b50508160011b915f199060031b1c1916176001555b5160e052516040516102736020828161026281830196878151938492016105bd565b81010301601f198101835282610560565b519051906020811061042c575b50610100525115156101205261014052511669ffffffffff0000000000600454925160281b169160018060501b031916171760045560018060a01b0360805116604051905f806020840163095ea7b360e01b815285602486015281196044860152604485526102f0606486610560565b84519082855af16102ff610623565b816103f1575b50806103e7575b156103a2575b6040516114ca9081610724823960805181818161081a01528181610a6f015261107a015260a051818181610aad0152610f69015260c05181818161019901528181610df6015281816111e701526113ef015260e05181818161066c01526109bb01526101005181611285015261012051818181610ad70152610f2d0152610140518181816102be0152610c200152f35b6103da6103df936040519063095ea7b360e01b602083015260248201525f6044820152604481526103d4606482610560565b82610652565b610652565b5f8080610312565b50803b151561030c565b8051801592508215610406575b50505f610305565b81925090602091810103126104285760206104219101610583565b5f806103fe565b5f80fd5b5f199060200360031b1b165f610280565b015190505f8061022b565b601f1982169960015f52815f209a5f5b81811061049c57509164ffffffffff999a9b91846001959410610484575b505050811b01600155610240565b01515f1960f88460031b161c191690555f8080610476565b838301518d556001909c019b60209384019301610458565b60015f527fb10e2d527612073b26eecdfd717e6a320cf44b4afac2b0732d9fcbe2b7fa0cf6601f830160051c8101916020841061050d575b601f0160051c01905b818110610502575061020b565b5f81556001016104f5565b90915081906104ec565b634e487b7160e01b5f52602260045260245ffd5b90607f16906101f9565b634e487b7160e01b5f52604160045260245ffd5b63a52d539b60e01b5f52600452602060245260445ffd5b601f909101601f19168101906001600160401b0382119082101761053557604052565b5190811515820361042857565b519064ffffffffff8216820361042857565b6001600160401b03811161053557601f01601f191660200190565b5f5b8381106105ce5750505f910152565b81810151838201526020016105bf565b81601f820112156104285780516105f4816105a2565b926106026040519485610560565b818452602082840101116104285761062091602080850191016105bd565b90565b3d1561064d573d90610634826105a2565b916106426040519384610560565b82523d5f602084013e565b606090565b5f8061067a9260018060a01b03169360208151910182865af1610673610623565b90836106c5565b80519081151591826106a2575b50506106905750565b635274afe760e01b5f5260045260245ffd5b81925090602091810103126104285760206106bd9101610583565b155f80610687565b906106e957508051156106da57805190602001fd5b630a12f52160e11b5f5260045ffd5b8151158061071a575b6106fa575090565b639996b31560e01b5f9081526001600160a01b0391909116600452602490fd5b50803b156106f256fe6080806040526004361015610012575f80fd5b5f905f3560e01c90816306fdde031461126f575080631686c90914610f8e57806316c3549d14610f525780631bfd681414610f165780632c5a6fb814610e4c5780633bfe03a814610e1e5780633f31ae3f1461083e5780634800d97f146107ee57806349fc73dd146106b35780634e390d3e1461068f57806351e75e8b1461065557806363e55549146105a55780636900ebd0146104d657806375829def1461043657806390e64d131461041c57806393273335146102e25780639e93e57714610291578063a8ef018a146101bd578063bb4b57341461017b578063ce5165071461013a5763f851a44014610105575f80fd5b3461013757806003193601126101375773ffffffffffffffffffffffffffffffffffffffff6020915416604051908152f35b80fd5b503461013757602060031936011261013757602061017160043560ff6001918060081c5f526002602052161b60405f205416151590565b6040519015158152f35b5034610137578060031936011261013757602060405164ffffffffff7f0000000000000000000000000000000000000000000000000000000000000000168152f35b5034610137576020600319360112610137576024602073ffffffffffffffffffffffffffffffffffffffff6101f061131e565b16604051928380927fc44b11f70000000000000000000000000000000000000000000000000000000082523060048301525afa908115610286578291610243575b602082610241604051809261139e565bf35b90506020813d60201161027e575b8161025e6020938361135d565b8101031261027a5751600381101561027a57602091505f610231565b5080fd5b3d9150610251565b6040513d84823e3d90fd5b5034610137578060031936011261013757602060405173ffffffffffffffffffffffffffffffffffffffff7f0000000000000000000000000000000000000000000000000000000000000000168152f35b50346103e95760806003193601126103e95760043573ffffffffffffffffffffffffffffffffffffffff81168091036103e95760243560038110156103e9576044359160028310156103e9576064359073ffffffffffffffffffffffffffffffffffffffff82168092036103e95773ffffffffffffffffffffffffffffffffffffffff5f54163381036103ed5750803b156103e9575f92836064926103b69460405197889687957fc8992e61000000000000000000000000000000000000000000000000000000008752600487019061139e565b602485015260448401525af180156103de576103d0575080f35b6103dc91505f9061135d565b005b6040513d5f823e3d90fd5b5f80fd5b7fc6cce6a4000000000000000000000000000000000000000000000000000000005f526004523360245260445ffd5b346103e9575f6003193601126103e95760206101716113e7565b346103e95760206003193601126103e95761044f61131e565b5f5473ffffffffffffffffffffffffffffffffffffffff81163381036103ed575073ffffffffffffffffffffffffffffffffffffffff7fffffffffffffffffffffffff0000000000000000000000000000000000000000921691829116175f55337fbdd36143ee09de60bdefca70680e0f71189b2ed7acee364b53917ad433fdaf805f80a3005b346103e95760406003193601126103e9576104ef61131e565b60243560038110156103e95773ffffffffffffffffffffffffffffffffffffffff5f54163381036103ed575061056e60246020925f73ffffffffffffffffffffffffffffffffffffffff60405196879586947f1a33757d000000000000000000000000000000000000000000000000000000008652600486019061139e565b165af180156103de5761057d57005b6103dc9060203d60201161059e575b610596818361135d565b8101906113d8565b503d61058c565b346103e95760206003193601126103e9576024602073ffffffffffffffffffffffffffffffffffffffff6105d761131e565b16604051928380927fe12f3a610000000000000000000000000000000000000000000000000000000082523060048301525afa80156103de575f90610622575b602090604051908152f35b506020813d60201161064d575b8161063c6020938361135d565b810103126103e95760209051610617565b3d915061062f565b346103e9575f6003193601126103e95760206040517f00000000000000000000000000000000000000000000000000000000000000008152f35b346103e9575f6003193601126103e957602064ffffffffff60035416604051908152f35b346103e9575f6003193601126103e9576040515f6001548060011c906001811680156107e4575b6020831081146107b7578285529081156107755750600114610717575b610713836107078185038261135d565b604051918291826112b8565b0390f35b91905060015f527fb10e2d527612073b26eecdfd717e6a320cf44b4afac2b0732d9fcbe2b7fa0cf6915f905b80821061075b575090915081016020016107076106f7565b919260018160209254838588010152019101909291610743565b7fffffffffffffffffffffffffffffffffffffffffffffffffffffffffffffff001660208086019190915291151560051b8401909101915061070790506106f7565b7f4e487b71000000000000000000000000000000000000000000000000000000005f52602260045260245ffd5b91607f16916106da565b346103e9575f6003193601126103e957602060405173ffffffffffffffffffffffffffffffffffffffff7f0000000000000000000000000000000000000000000000000000000000000000168152f35b346103e95760806003193601126103e95760043560243573ffffffffffffffffffffffffffffffffffffffff81168091036103e957604435916fffffffffffffffffffffffffffffffff83168093036103e9576064359067ffffffffffffffff82116103e957366023830112156103e957816004013567ffffffffffffffff81116103e9578060051b92602484820101903682116103e9576040516020810190858252876040820152886060820152606081526108fc60808261135d565b519020604051602081019182526020815261091860408261135d565b519020926109246113e7565b610dc7576109498560ff6001918060081c5f526002602052161b60405f205416151590565b610d9b5761095d602060405197018761135d565b8552602401602085015b828210610d8b57505050935f945b83518610156109b75760208660051b85010151908181105f146109a6575f52602052600160405f205b950194610975565b905f52602052600160405f2061099e565b84907f000000000000000000000000000000000000000000000000000000000000000003610d635760035464ffffffffff811615610d2f575b508260081c5f52600260205260405f20600160ff85161b815417905573ffffffffffffffffffffffffffffffffffffffff5f541691604051610a3181611341565b5f81525f602082015260405193610100850185811067ffffffffffffffff821117610d025760405284526020840183815260408501838152606086017f000000000000000000000000000000000000000000000000000000000000000073ffffffffffffffffffffffffffffffffffffffff16815260808701907f00000000000000000000000000000000000000000000000000000000000000001515825260a08801927f00000000000000000000000000000000000000000000000000000000000000001515845260405194610b0786611341565b60045464ffffffffff8116875260281c64ffffffffff16602087015260c08a0195865260e08a01968752604051997fab167ccc000000000000000000000000000000000000000000000000000000008b525173ffffffffffffffffffffffffffffffffffffffff1660048b01525173ffffffffffffffffffffffffffffffffffffffff1660248a0152516fffffffffffffffffffffffffffffffff1660448901525173ffffffffffffffffffffffffffffffffffffffff166064880152511515608487015251151560a486015251805164ffffffffff1660c48601526020015164ffffffffff1660e485015251805173ffffffffffffffffffffffffffffffffffffffff166101048501526020015161012484015282807f000000000000000000000000000000000000000000000000000000000000000073ffffffffffffffffffffffffffffffffffffffff165a925f61014492602095f19283156103de575f93610caa575b50907f28b58397e03322f670d6b223cc863f8c148e368b8b615412e6798a641a22842d60406020958594825191825287820152a3604051908152f35b939250906020843d602011610cfa575b81610cc76020938361135d565b810103126103e95792519192907f28b58397e03322f670d6b223cc863f8c148e368b8b615412e6798a641a22842d610c6e565b3d9150610cba565b7f4e487b71000000000000000000000000000000000000000000000000000000005f52604160045260245ffd5b7fffffffffffffffffffffffffffffffffffffffffffffffffffffff0000000000164264ffffffffff1617600355836109f0565b7f0fa7d73c000000000000000000000000000000000000000000000000000000005f5260045ffd5b8135815260209182019101610967565b847f712b37a3000000000000000000000000000000000000000000000000000000005f5260045260245ffd5b7f442b1841000000000000000000000000000000000000000000000000000000005f524260045264ffffffffff7f00000000000000000000000000000000000000000000000000000000000000001660245260445ffd5b346103e9575f6003193601126103e957604060045464ffffffffff825191818116835260281c166020820152f35b346103e95760606003193601126103e957610e6561131e565b60443573ffffffffffffffffffffffffffffffffffffffff811681036103e95773ffffffffffffffffffffffffffffffffffffffff5f54163381036103ed576040517faad3ec9600000000000000000000000000000000000000000000000000000000815273ffffffffffffffffffffffffffffffffffffffff83811660048301526024803590830152602090829060449082905f9089165af180156103de575f9061062257602090604051908152f35b346103e9575f6003193601126103e95760206040517f000000000000000000000000000000000000000000000000000000000000000015158152f35b346103e9575f6003193601126103e95760206040517f000000000000000000000000000000000000000000000000000000000000000015158152f35b346103e95760406003193601126103e957610fa761131e565b602435906fffffffffffffffffffffffffffffffff82168092036103e95773ffffffffffffffffffffffffffffffffffffffff5f54163381036103ed575064ffffffffff6003541680151580611221575b80611212575b6111b857506040517fa9059cbb000000000000000000000000000000000000000000000000000000006020820190815273ffffffffffffffffffffffffffffffffffffffff83166024830152604480830185905282525f90819061106360648561135d565b73ffffffffffffffffffffffffffffffffffffffff7f00000000000000000000000000000000000000000000000000000000000000001693519082855af13d156111ac573d67ffffffffffffffff8111610d025761110191604051916110f160207fffffffffffffffffffffffffffffffffffffffffffffffffffffffffffffffe0601f840116018461135d565b82523d5f602084013e5b83611424565b8051908115159182611188575b505061115d57507f2e9d425ba8b27655048400b366d7b6a1f7180ebdb088e06bb7389704860ffe1f602073ffffffffffffffffffffffffffffffffffffffff805f5416936040519586521693a3005b7f5274afe7000000000000000000000000000000000000000000000000000000005f5260045260245ffd5b81925090602091810103126103e957602001518015908115036103e957848061110e565b611101906060906110fb565b7f92b66697000000000000000000000000000000000000000000000000000000005f524260045264ffffffffff7f00000000000000000000000000000000000000000000000000000000000000001660245260445260645ffd5b5061121b6113e7565b15610ffe565b5062093a80810164ffffffffff81116112425764ffffffffff164211610ff8565b7f4e487b71000000000000000000000000000000000000000000000000000000005f52601160045260245ffd5b346103e9575f6003193601126103e957610713907f000000000000000000000000000000000000000000000000000000000000000060208201526020815261070760408261135d565b919091602081528251928360208301525f5b8481106113085750507fffffffffffffffffffffffffffffffffffffffffffffffffffffffffffffffe0601f845f6040809697860101520116010190565b80602080928401015160408286010152016112ca565b6004359073ffffffffffffffffffffffffffffffffffffffff821682036103e957565b6040810190811067ffffffffffffffff821117610d0257604052565b90601f7fffffffffffffffffffffffffffffffffffffffffffffffffffffffffffffffe0910116810190811067ffffffffffffffff821117610d0257604052565b9060038210156113ab5752565b7f4e487b71000000000000000000000000000000000000000000000000000000005f52602160045260245ffd5b908160209103126103e9575190565b64ffffffffff7f000000000000000000000000000000000000000000000000000000000000000016801515908161141c575090565b905042101590565b90611461575080511561143957805190602001fd5b7f1425ea42000000000000000000000000000000000000000000000000000000005f5260045ffd5b815115806114b4575b611472575090565b73ffffffffffffffffffffffffffffffffffffffff907f9996b315000000000000000000000000000000000000000000000000000000005f521660045260245ffd5b50803b1561146a56fea164736f6c634300081a000a","linkReferences":{}},"methodIdentifiers":{"ASSET()":"4800d97f","CANCELABLE()":"16c3549d","EXPIRATION()":"bb4b5734","LOCKUP_LINEAR()":"9e93e577","MERKLE_ROOT()":"51e75e8b","TRANSFERABLE()":"1bfd6814","admin()":"f851a440","claim(uint256,address,uint128,bytes32[])":"3f31ae3f","claimRebasingAssetYield(address,uint256,address)":"2c5a6fb8","clawback(address,uint128)":"1686c909","configureRebasingAsset(address,uint8)":"6900ebd0","configureYieldAndGas(address,uint8,uint8,address)":"93273335","getClaimableRebasingAssetYield(address)":"63e55549","getFirstClaimTime()":"4e390d3e","getRebasingAssetConfiguration(address)":"a8ef018a","hasClaimed(uint256)":"ce516507","hasExpired()":"90e64d13","ipfsCID()":"49fc73dd","name()":"06fdde03","streamDurations()":"3bfe03a8","transferAdmin(address)":"75829def"},"id":102}