{
  "abi": [
    {
      "type": "constructor",
      "inputs": [
        {
          "name": "initialAdmin",
          "type": "address",
          "internalType": "address"
        }
      ],
      "stateMutability": "nonpayable"
    },
    {
      "type": "function",
      "name": "admin",
      "inputs": [],
      "outputs": [
        {
          "name": "",
          "type": "address",
          "internalType": "address"
        }
      ],
      "stateMutability": "view"
    },
    {
      "type": "function",
      "name": "claimRebasingAssetYield",
      "inputs": [
        {
          "name": "asset",
          "type": "address",
          "internalType": "contract IERC20Rebasing"
        },
        {
          "name": "amount",
          "type": "uint256",
          "internalType": "uint256"
        },
        {
          "name": "to",
          "type": "address",
          "internalType": "address"
        }
      ],
      "outputs": [
        {
          "name": "claimed",
          "type": "uint256",
          "internalType": "uint256"
        }
      ],
      "stateMutability": "nonpayable"
    },
    {
      "type": "function",
      "name": "configureRebasingAsset",
      "inputs": [
        {
          "name": "asset",
          "type": "address",
          "internalType": "contract IERC20Rebasing"
        },
        {
          "name": "yieldMode",
          "type": "uint8",
          "internalType": "enum YieldMode"
        }
      ],
      "outputs": [],
      "stateMutability": "nonpayable"
    },
    {
      "type": "function",
      "name": "configureYieldAndGas",
      "inputs": [
        {
          "name": "blast",
          "type": "address",
          "internalType": "contract IBlast"
        },
        {
          "name": "yieldMode",
          "type": "uint8",
          "internalType": "enum YieldMode"
        },
        {
          "name": "gasMode",
          "type": "uint8",
          "internalType": "enum GasMode"
        },
        {
          "name": "governor",
          "type": "address",
          "internalType": "address"
        }
      ],
      "outputs": [],
      "stateMutability": "nonpayable"
    },
    {
      "type": "function",
      "name": "createWithDurationsLD",
      "inputs": [
        {
          "name": "lockupDynamic",
          "type": "address",
          "internalType": "contract ISablierV2LockupDynamic"
        },
        {
          "name": "asset",
          "type": "address",
          "internalType": "contract IERC20"
        },
        {
          "name": "batch",
          "type": "tuple[]",
          "internalType": "struct BatchLockup.CreateWithDurationsLD[]",
          "components": [
            {
              "name": "sender",
              "type": "address",
              "internalType": "address"
            },
            {
              "name": "recipient",
              "type": "address",
              "internalType": "address"
            },
            {
              "name": "totalAmount",
              "type": "uint128",
              "internalType": "uint128"
            },
            {
              "name": "cancelable",
              "type": "bool",
              "internalType": "bool"
            },
            {
              "name": "transferable",
              "type": "bool",
              "internalType": "bool"
            },
            {
              "name": "segments",
              "type": "tuple[]",
              "internalType": "struct LockupDynamic.SegmentWithDuration[]",
              "components": [
                {
                  "name": "amount",
                  "type": "uint128",
                  "internalType": "uint128"
                },
                {
                  "name": "exponent",
                  "type": "uint64",
                  "internalType": "UD2x18"
                },
                {
                  "name": "duration",
                  "type": "uint40",
                  "internalType": "uint40"
                }
              ]
            },
            {
              "name": "broker",
              "type": "tuple",
              "internalType": "struct Broker",
              "components": [
                {
                  "name": "account",
                  "type": "address",
                  "internalType": "address"
                },
                {
                  "name": "fee",
                  "type": "uint256",
                  "internalType": "UD60x18"
                }
              ]
            }
          ]
        }
      ],
      "outputs": [
        {
          "name": "streamIds",
          "type": "uint256[]",
          "internalType": "uint256[]"
        }
      ],
      "stateMutability": "nonpayable"
    },
    {
      "type": "function",
      "name": "createWithDurationsLL",
      "inputs": [
        {
          "name": "lockupLinear",
          "type": "address",
          "internalType": "contract ISablierV2LockupLinear"
        },
        {
          "name": "asset",
          "type": "address",
          "internalType": "contract IERC20"
        },
        {
          "name": "batch",
          "type": "tuple[]",
          "internalType": "struct BatchLockup.CreateWithDurationsLL[]",
          "components": [
            {
              "name": "sender",
              "type": "address",
              "internalType": "address"
            },
            {
              "name": "recipient",
              "type": "address",
              "internalType": "address"
            },
            {
              "name": "totalAmount",
              "type": "uint128",
              "internalType": "uint128"
            },
            {
              "name": "cancelable",
              "type": "bool",
              "internalType": "bool"
            },
            {
              "name": "transferable",
              "type": "bool",
              "internalType": "bool"
            },
            {
              "name": "durations",
              "type": "tuple",
              "internalType": "struct LockupLinear.Durations",
              "components": [
                {
                  "name": "cliff",
                  "type": "uint40",
                  "internalType": "uint40"
                },
                {
                  "name": "total",
                  "type": "uint40",
                  "internalType": "uint40"
                }
              ]
            },
            {
              "name": "broker",
              "type": "tuple",
              "internalType": "struct Broker",
              "components": [
                {
                  "name": "account",
                  "type": "address",
                  "internalType": "address"
                },
                {
                  "name": "fee",
                  "type": "uint256",
                  "internalType": "UD60x18"
                }
              ]
            }
          ]
        }
      ],
      "outputs": [
        {
          "name": "streamIds",
          "type": "uint256[]",
          "internalType": "uint256[]"
        }
      ],
      "stateMutability": "nonpayable"
    },
    {
      "type": "function",
      "name": "createWithDurationsLT",
      "inputs": [
        {
          "name": "lockupTranched",
          "type": "address",
          "internalType": "contract ISablierV2LockupTranched"
        },
        {
          "name": "asset",
          "type": "address",
          "internalType": "contract IERC20"
        },
        {
          "name": "batch",
          "type": "tuple[]",
          "internalType": "struct BatchLockup.CreateWithDurationsLT[]",
          "components": [
            {
              "name": "sender",
              "type": "address",
              "internalType": "address"
            },
            {
              "name": "recipient",
              "type": "address",
              "internalType": "address"
            },
            {
              "name": "totalAmount",
              "type": "uint128",
              "internalType": "uint128"
            },
            {
              "name": "cancelable",
              "type": "bool",
              "internalType": "bool"
            },
            {
              "name": "transferable",
              "type": "bool",
              "internalType": "bool"
            },
            {
              "name": "tranches",
              "type": "tuple[]",
              "internalType": "struct LockupTranched.TrancheWithDuration[]",
              "components": [
                {
                  "name": "amount",
                  "type": "uint128",
                  "internalType": "uint128"
                },
                {
                  "name": "duration",
                  "type": "uint40",
                  "internalType": "uint40"
                }
              ]
            },
            {
              "name": "broker",
              "type": "tuple",
              "internalType": "struct Broker",
              "components": [
                {
                  "name": "account",
                  "type": "address",
                  "internalType": "address"
                },
                {
                  "name": "fee",
                  "type": "uint256",
                  "internalType": "UD60x18"
                }
              ]
            }
          ]
        }
      ],
      "outputs": [
        {
          "name": "streamIds",
          "type": "uint256[]",
          "internalType": "uint256[]"
        }
      ],
      "stateMutability": "nonpayable"
    },
    {
      "type": "function",
      "name": "createWithTimestampsLD",
      "inputs": [
        {
          "name": "lockupDynamic",
          "type": "address",
          "internalType": "contract ISablierV2LockupDynamic"
        },
        {
          "name": "asset",
          "type": "address",
          "internalType": "contract IERC20"
        },
        {
          "name": "batch",
          "type": "tuple[]",
          "internalType": "struct BatchLockup.CreateWithTimestampsLD[]",
          "components": [
            {
              "name": "sender",
              "type": "address",
              "internalType": "address"
            },
            {
              "name": "recipient",
              "type": "address",
              "internalType": "address"
            },
            {
              "name": "totalAmount",
              "type": "uint128",
              "internalType": "uint128"
            },
            {
              "name": "cancelable",
              "type": "bool",
              "internalType": "bool"
            },
            {
              "name": "transferable",
              "type": "bool",
              "internalType": "bool"
            },
            {
              "name": "startTime",
              "type": "uint40",
              "internalType": "uint40"
            },
            {
              "name": "segments",
              "type": "tuple[]",
              "internalType": "struct LockupDynamic.Segment[]",
              "components": [
                {
                  "name": "amount",
                  "type": "uint128",
                  "internalType": "uint128"
                },
                {
                  "name": "exponent",
                  "type": "uint64",
                  "internalType": "UD2x18"
                },
                {
                  "name": "timestamp",
                  "type": "uint40",
                  "internalType": "uint40"
                }
              ]
            },
            {
              "name": "broker",
              "type": "tuple",
              "internalType": "struct Broker",
              "components": [
                {
                  "name": "account",
                  "type": "address",
                  "internalType": "address"
                },
                {
                  "name": "fee",
                  "type": "uint256",
                  "internalType": "UD60x18"
                }
              ]
            }
          ]
        }
      ],
      "outputs": [
        {
          "name": "streamIds",
          "type": "uint256[]",
          "internalType": "uint256[]"
        }
      ],
      "stateMutability": "nonpayable"
    },
    {
      "type": "function",
      "name": "createWithTimestampsLL",
      "inputs": [
        {
          "name": "lockupLinear",
          "type": "address",
          "internalType": "contract ISablierV2LockupLinear"
        },
        {
          "name": "asset",
          "type": "address",
          "internalType": "contract IERC20"
        },
        {
          "name": "batch",
          "type": "tuple[]",
          "internalType": "struct BatchLockup.CreateWithTimestampsLL[]",
          "components": [
            {
              "name": "sender",
              "type": "address",
              "internalType": "address"
            },
            {
              "name": "recipient",
              "type": "address",
              "internalType": "address"
            },
            {
              "name": "totalAmount",
              "type": "uint128",
              "internalType": "uint128"
            },
            {
              "name": "cancelable",
              "type": "bool",
              "internalType": "bool"
            },
            {
              "name": "transferable",
              "type": "bool",
              "internalType": "bool"
            },
            {
              "name": "timestamps",
              "type": "tuple",
              "internalType": "struct LockupLinear.Timestamps",
              "components": [
                {
                  "name": "start",
                  "type": "uint40",
                  "internalType": "uint40"
                },
                {
                  "name": "cliff",
                  "type": "uint40",
                  "internalType": "uint40"
                },
                {
                  "name": "end",
                  "type": "uint40",
                  "internalType": "uint40"
                }
              ]
            },
            {
              "name": "broker",
              "type": "tuple",
              "internalType": "struct Broker",
              "components": [
                {
                  "name": "account",
                  "type": "address",
                  "internalType": "address"
                },
                {
                  "name": "fee",
                  "type": "uint256",
                  "internalType": "UD60x18"
                }
              ]
            }
          ]
        }
      ],
      "outputs": [
        {
          "name": "streamIds",
          "type": "uint256[]",
          "internalType": "uint256[]"
        }
      ],
      "stateMutability": "nonpayable"
    },
    {
      "type": "function",
      "name": "createWithTimestampsLT",
      "inputs": [
        {
          "name": "lockupTranched",
          "type": "address",
          "internalType": "contract ISablierV2LockupTranched"
        },
        {
          "name": "asset",
          "type": "address",
          "internalType": "contract IERC20"
        },
        {
          "name": "batch",
          "type": "tuple[]",
          "internalType": "struct BatchLockup.CreateWithTimestampsLT[]",
          "components": [
            {
              "name": "sender",
              "type": "address",
              "internalType": "address"
            },
            {
              "name": "recipient",
              "type": "address",
              "internalType": "address"
            },
            {
              "name": "totalAmount",
              "type": "uint128",
              "internalType": "uint128"
            },
            {
              "name": "cancelable",
              "type": "bool",
              "internalType": "bool"
            },
            {
              "name": "transferable",
              "type": "bool",
              "internalType": "bool"
            },
            {
              "name": "startTime",
              "type": "uint40",
              "internalType": "uint40"
            },
            {
              "name": "tranches",
              "type": "tuple[]",
              "internalType": "struct LockupTranched.Tranche[]",
              "components": [
                {
                  "name": "amount",
                  "type": "uint128",
                  "internalType": "uint128"
                },
                {
                  "name": "timestamp",
                  "type": "uint40",
                  "internalType": "uint40"
                }
              ]
            },
            {
              "name": "broker",
              "type": "tuple",
              "internalType": "struct Broker",
              "components": [
                {
                  "name": "account",
                  "type": "address",
                  "internalType": "address"
                },
                {
                  "name": "fee",
                  "type": "uint256",
                  "internalType": "UD60x18"
                }
              ]
            }
          ]
        }
      ],
      "outputs": [
        {
          "name": "streamIds",
          "type": "uint256[]",
          "internalType": "uint256[]"
        }
      ],
      "stateMutability": "nonpayable"
    },
    {
      "type": "function",
      "name": "getClaimableRebasingAssetYield",
      "inputs": [
        {
          "name": "asset",
          "type": "address",
          "internalType": "contract IERC20Rebasing"
        }
      ],
      "outputs": [
        {
          "name": "claimableYield",
          "type": "uint256",
          "internalType": "uint256"
        }
      ],
      "stateMutability": "view"
    },
    {
      "type": "function",
      "name": "getRebasingAssetConfiguration",
      "inputs": [
        {
          "name": "asset",
          "type": "address",
          "internalType": "contract IERC20Rebasing"
        }
      ],
      "outputs": [
        {
          "name": "yieldMode",
          "type": "uint8",
          "internalType": "enum YieldMode"
        }
      ],
      "stateMutability": "view"
    },
    {
      "type": "function",
      "name": "transferAdmin",
      "inputs": [
        {
          "name": "newAdmin",
          "type": "address",
          "internalType": "address"
        }
      ],
      "outputs": [],
      "stateMutability": "nonpayable"
    },
    {
      "type": "event",
      "name": "TransferAdmin",
      "inputs": [
        {
          "name": "oldAdmin",
          "type": "address",
          "indexed": true,
          "internalType": "address"
        },
        {
          "name": "newAdmin",
          "type": "address",
          "indexed": true,
          "internalType": "address"
        }
      ],
      "anonymous": false
    },
    {
      "type": "error",
      "name": "AddressEmptyCode",
      "inputs": [
        {
          "name": "target",
          "type": "address",
          "internalType": "address"
        }
      ]
    },
    {
      "type": "error",
      "name": "AddressInsufficientBalance",
      "inputs": [
        {
          "name": "account",
          "type": "address",
          "internalType": "address"
        }
      ]
    },
    {
      "type": "error",
      "name": "CallerNotAdmin",
      "inputs": [
        {
          "name": "admin",
          "type": "address",
          "internalType": "address"
        },
        {
          "name": "caller",
          "type": "address",
          "internalType": "address"
        }
      ]
    },
    {
      "type": "error",
      "name": "FailedInnerCall",
      "inputs": []
    },
    {
      "type": "error",
      "name": "SablierV2BatchLockup_BatchSizeZero",
      "inputs": []
    },
    {
      "type": "error",
      "name": "SafeERC20FailedOperation",
      "inputs": [
        {
          "name": "token",
          "type": "address",
          "internalType": "address"
        }
      ]
    }
  ],
  "bytecode": {
    "object": "0x608034609357601f6123de38819003918201601f19168301916001600160401b03831184841017609757808492602094604052833981010312609357516001600160a01b038116908190036093575f80546001600160a01b0319168217815560405191907fbdd36143ee09de60bdefca70680e0f71189b2ed7acee364b53917ad433fdaf808180a361233290816100ac8239f35b5f80fd5b634e487b7160e01b5f52604160045260245ffdfe60806040526004361015610011575f80fd5b5f803560e01c80632c5a6fb81461191857806337266dd3146115f057806349a32c40146112a9578063606ef87514610f4557806363e5554914610ea25780636900ebd014610ded57806375829def14610d675780639327333514610c585780639e743f29146108fd578063a514f83e14610548578063a8ef018a14610481578063f7ca34eb146100d15763f851a440146100a9575f80fd5b346100ce57806003193601126100ce576001600160a01b036020915416604051908152f35b80fd5b50346100ce576100e036611a18565b928315610459578490855b85811061042557506001600160a01b036101089116918483611f95565b61011184611c73565b936001600160a01b03869416935b81811061013857604051806101348882611a6f565b0390f35b610143818386611f32565b61014c90611cc2565b9085610159828588611f32565b60200161016590611cc2565b610170838689611f32565b60400161017c90611c3e565b938561018985828b611f32565b60600161019590611cd6565b6101a086838c611f32565b6080016101ac90611cd6565b6101b787848d611f32565b60a0016101c390611f72565b918b886101d1818784611f32565b60c081016101de91611e41565b966101ea929193611f32565b60e00194604051966101fb88611b48565b6001600160a01b0316875260208701976001600160a01b03168852604087019a6fffffffffffffffffffffffffffffffff168b526060870198895260808701921515835260a08701931515845260c087019464ffffffffff168552369061026192611e95565b9360e086019485523661027391611de3565b966101008601978852604051998a977f31df3d480000000000000000000000000000000000000000000000000000000089526004890160209052610164890197516001600160a01b031660248a0152516001600160a01b03166044890152516fffffffffffffffffffffffffffffffff166064880152516001600160a01b0316608487015251151560a486015251151560c48501525164ffffffffff1660e48401525190610104830161014090528151809152610184830191602001908c905b8082106103c8575050925180516001600160a01b03166101248401526020908101516101448401529250819003818b885af180156103bd578890610387575b600192506103808289611e1c565b520161011f565b506020823d82116103b5575b816103a060209383611b81565b810103126103b15760019151610372565b5f80fd5b3d9150610393565b6040513d8a823e3d90fd5b91949350916020606082610416600194895164ffffffffff604080926fffffffffffffffffffffffffffffffff815116855267ffffffffffffffff6020820151166020860152015116910152565b01950192018693949291610333565b916001906fffffffffffffffffffffffffffffffff610450604061044a878b8a611f32565b01611c3e565b160192016100eb565b6004857ff8bf106c000000000000000000000000000000000000000000000000000000008152fd5b50346100ce5760206003193601126100ce57602460206001600160a01b036104a76119bb565b16604051928380927fc44b11f70000000000000000000000000000000000000000000000000000000082523060048301525afa90811561053d5782916104fa575b6020826104f86040518092611aa8565bf35b90506020813d602011610535575b8161051560209383611b81565b810103126105315751600381101561053157602091505f6104e8565b5080fd5b3d9150610508565b6040513d84823e3d90fd5b50346100ce5760606003193601126100ce576105626119bb565b9061056b6119d1565b60443567ffffffffffffffff81116108f957366023820112156108f95780600401359067ffffffffffffffff82116108f55760248101906024369161014085020101116108f55781156108cd578394845b83811061089f57506001600160a01b036105d99116958487611f95565b6105e282611c73565b946001600160a01b03859416935b83811061060557604051806101348982611a6f565b610618610613828686611f84565b611cc2565b9061062f6020610629838888611f84565b01611cc2565b61063f604061044a848989611f84565b610655606061064f858a8a611f84565b01611cd6565b610665608061064f868b8b611f84565b90610671858a8a611f84565b92610100610680878c8c611f84565b01906001600160a01b03604051986106978a611ae2565b1688526001600160a01b0360208901961686526fffffffffffffffffffffffffffffffff604089019116815260608801918c835260808901931515845260a08901941515855260607fffffffffffffffffffffffffffffffffffffffffffffffffffffffffffffff60873603011261089b576040519561071687611b65565b61072260a08201611d54565b875261073060c08201611d54565b602088015260e00161074190611d54565b604087015260c089019586523661075791611de3565b9560e08901968752604051987f53b15727000000000000000000000000000000000000000000000000000000008a52516001600160a01b031660048a0152516001600160a01b03166024890152516fffffffffffffffffffffffffffffffff166044880152516001600160a01b03166064870152511515608486015251151560a485015251805164ffffffffff1660c4850152602081015164ffffffffff1660e48501526040015164ffffffffff1661010484015251610124830161082e91602080916001600160a01b0381511684520151910152565b868284815a9361016492602095f1801561089057879061085e575b60019250610857828a611e1c565b52016105f0565b506020823d8211610888575b8161087760209383611b81565b810103126103b15760019151610849565b3d915061086a565b6040513d89823e3d90fd5b8d80fd5b956001906fffffffffffffffffffffffffffffffff6108c4604061044a8b8989611f84565b160196016105bc565b6004847ff8bf106c000000000000000000000000000000000000000000000000000000008152fd5b8380fd5b8280fd5b50346100ce5761090c36611a18565b928315610459578490855b858110610c2a57506001600160a01b036109349116918483611f95565b61093d84611c73565b936001600160a01b03869416935b81811061096057604051806101348882611a6f565b61096b818386611f32565b61097490611cc2565b9085610981828588611f32565b60200161098d90611cc2565b610998838689611f32565b6040016109a490611c3e565b93856109b185828b611f32565b6060016109bd90611cd6565b6109c886838c611f32565b6080016109d490611cd6565b6109df87848d611f32565b60a0016109eb90611f72565b918b886109f9818784611f32565b60c08101610a0691611ce3565b96610a12929193611f32565b60e0019460405196610a2388611b48565b6001600160a01b0316875260208701976001600160a01b03168852604087019a6fffffffffffffffffffffffffffffffff168b526060870198895260808701921515835260a08701931515845260c087019464ffffffffff1685523690610a8992611d66565b9360e0860194855236610a9b91611de3565b966101008601978852604051998a977f32fbe22b0000000000000000000000000000000000000000000000000000000089526004890160209052610164890197516001600160a01b031660248a0152516001600160a01b03166044890152516fffffffffffffffffffffffffffffffff166064880152516001600160a01b0316608487015251151560a486015251151560c48501525164ffffffffff1660e48401525190610104830161014090528151809152610184830191602001908c905b808210610be1575050925180516001600160a01b03166101248401526020908101516101448401529250819003818b885af180156103bd578890610baf575b60019250610ba88289611e1c565b520161094b565b506020823d8211610bd9575b81610bc860209383611b81565b810103126103b15760019151610b9a565b3d9150610bbb565b91949350916020604082610c1b600194895164ffffffffff602080926fffffffffffffffffffffffffffffffff8151168552015116910152565b01950192018693949291610b5b565b916001906fffffffffffffffffffffffffffffffff610c4f604061044a878b8a611f32565b16019201610917565b50346103b15760806003193601126103b1576004356001600160a01b0381168091036103b15760243560038110156103b1576044359160028310156103b157606435906001600160a01b0382168092036103b1576001600160a01b035f5416338103610d385750803b156103b1575f9283606492610d059460405197889687957fc8992e610000000000000000000000000000000000000000000000000000000087526004870190611aa8565b602485015260448401525af18015610d2d57610d1f575080f35b610d2b91505f90611b81565b005b6040513d5f823e3d90fd5b7fc6cce6a4000000000000000000000000000000000000000000000000000000005f526004523360245260445ffd5b346103b15760206003193601126103b157610d806119bb565b5f546001600160a01b038116338103610d3857506001600160a01b037fffffffffffffffffffffffff0000000000000000000000000000000000000000921691829116175f55337fbdd36143ee09de60bdefca70680e0f71189b2ed7acee364b53917ad433fdaf805f80a3005b346103b15760406003193601126103b157610e066119bb565b60243560038110156103b1576001600160a01b035f5416338103610d385750610e6b60246020925f6001600160a01b0360405196879586947f1a33757d0000000000000000000000000000000000000000000000000000000086526004860190611aa8565b165af18015610d2d57610e7a57005b610d2b9060203d602011610e9b575b610e938183611b81565b810190611bc2565b503d610e89565b346103b15760206003193601126103b157602460206001600160a01b03610ec76119bb565b16604051928380927fe12f3a610000000000000000000000000000000000000000000000000000000082523060048301525afa8015610d2d575f90610f12575b602090604051908152f35b506020813d602011610f3d575b81610f2c60209383611b81565b810103126103b15760209051610f07565b3d9150610f1f565b346103b157610f5336611a18565b9190928215611281575f905f5b84811061125357506001600160a01b03610f7d9116918383611f95565b610f8683611c73565b926001600160a01b035f9316925b818110610fa957604051806101348782611a6f565b610fb4818388611bd1565b610fbd90611cc2565b9082610fca82828a611bd1565b602001610fd690611cc2565b610fe183838b611bd1565b604001610fed90611c3e565b9389610ffa858583611bd1565b60600161100690611cd6565b611011868684611bd1565b60800161101d90611cd6565b908661102a818886611bd1565b60a0810161103791611e41565b97611043929195611bd1565b60c001926040519461105486611ae2565b6001600160a01b0316855260208501956001600160a01b0316865260408501986fffffffffffffffffffffffffffffffff16895260608501968c885260808601921515835260a08601931515845236906110ad92611e95565b9260c08501938452366110bf91611de3565b9560e085019687526040519889967f54c022920000000000000000000000000000000000000000000000000000000088526004880160209052610144880196516001600160a01b03166024890152516001600160a01b03166044880152516fffffffffffffffffffffffffffffffff166064870152516001600160a01b0316608486015251151560a485015251151560c4840152519060e4830161012090528151809152610164830191602001905f905b8082106111f6575050925180516001600160a01b03166101048401526020908101516101248401529250819003815f885af18015610d2d575f906111c4575b600192506111bd8288611e1c565b5201610f94565b506020823d82116111ee575b816111dd60209383611b81565b810103126103b157600191516111af565b3d91506111d0565b91949350916020606082611244600194895164ffffffffff604080926fffffffffffffffffffffffffffffffff815116855267ffffffffffffffff6020820151166020860152015116910152565b01950192018693949291611170565b916001906fffffffffffffffffffffffffffffffff611278604061044a878a8c611bd1565b16019201610f60565b7ff8bf106c000000000000000000000000000000000000000000000000000000005f5260045ffd5b346103b15760606003193601126103b1576112c26119bb565b6112ca6119d1565b906044359167ffffffffffffffff83116103b157366023840112156103b15782600401359267ffffffffffffffff84116103b15760248101906024369161012087020101116103b15783156112815790915f9190825b8581106115be57506001600160a01b0361133d9116928484611f95565b61134684611c73565b926001600160a01b03165f5b85811061136757604051806101348782611a6f565b611375610613828886611e30565b906113866020610629838a88611e30565b8785611398604061044a868585611e30565b6113a8606061064f878686611e30565b9060e06113d1876113ca81886113c4608061064f84848d611e30565b98611e30565b968c611e30565b01906001600160a01b03604051986113e88a611ae2565b1688526001600160a01b0360208901961686526fffffffffffffffffffffffffffffffff6040890191168152606088019189835260808901931515845260a08901941515855260407fffffffffffffffffffffffffffffffffffffffffffffffffffffffffffffff6087360301126103b1576040519561146787611b2c565b61147360a08201611d54565b875260c00161148190611d54565b602087015260c089019586523661149791611de3565b9560e08901968752604051987fab167ccc000000000000000000000000000000000000000000000000000000008a52516001600160a01b031660048a0152516001600160a01b03166024890152516fffffffffffffffffffffffffffffffff166044880152516001600160a01b03166064870152511515608486015251151560a485015251805164ffffffffff1660c48501526020015164ffffffffff1660e484015251610104830161155c91602080916001600160a01b0381511684520151910152565b8180865a925f61014492602095f18015610d2d575f9061158c575b600192506115858288611e1c565b5201611352565b506020823d82116115b6575b816115a560209383611b81565b810103126103b15760019151611577565b3d9150611598565b93926001906fffffffffffffffffffffffffffffffff6115e4604061044a898b89611e30565b16019401939293611320565b346103b1576115fe36611a18565b9190928215611281575f905f5b8481106118ea57506001600160a01b036116289116918383611f95565b61163183611c73565b926001600160a01b035f9316925b81811061165457604051806101348782611a6f565b61165f818388611bd1565b61166890611cc2565b908261167582828a611bd1565b60200161168190611cc2565b61168c83838b611bd1565b60400161169890611c3e565b93896116a5858583611bd1565b6060016116b190611cd6565b6116bc868684611bd1565b6080016116c890611cd6565b90866116d5818886611bd1565b60a081016116e291611ce3565b976116ee929195611bd1565b60c00192604051946116ff86611ae2565b6001600160a01b0316855260208501956001600160a01b0316865260408501986fffffffffffffffffffffffffffffffff16895260608501968c885260808601921515835260a086019315158452369061175892611d66565b9260c085019384523661176a91611de3565b9560e085019687526040519889967f897f362b0000000000000000000000000000000000000000000000000000000088526004880160209052610144880196516001600160a01b03166024890152516001600160a01b03166044880152516fffffffffffffffffffffffffffffffff166064870152516001600160a01b0316608486015251151560a485015251151560c4840152519060e4830161012090528151809152610164830191602001905f905b8082106118a1575050925180516001600160a01b03166101048401526020908101516101248401529250819003815f885af18015610d2d575f9061186f575b600192506118688288611e1c565b520161163f565b506020823d8211611899575b8161188860209383611b81565b810103126103b1576001915161185a565b3d915061187b565b919493509160206040826118db600194895164ffffffffff602080926fffffffffffffffffffffffffffffffff8151168552015116910152565b0195019201869394929161181b565b916001906fffffffffffffffffffffffffffffffff61190f604061044a878a8c611bd1565b1601920161160b565b346103b15760606003193601126103b1576119316119bb565b6044356001600160a01b03811681036103b1576001600160a01b035f5416338103610d38576040517faad3ec960000000000000000000000000000000000000000000000000000000081526001600160a01b0383811660048301526024803590830152602090829060449082905f9089165af18015610d2d575f90610f1257602090604051908152f35b600435906001600160a01b03821682036103b157565b602435906001600160a01b03821682036103b157565b9181601f840112156103b15782359167ffffffffffffffff83116103b1576020808501948460051b0101116103b157565b60606003198201126103b1576004356001600160a01b03811681036103b157916024356001600160a01b03811681036103b157916044359067ffffffffffffffff82116103b157611a6b916004016119e7565b9091565b60206040818301928281528451809452019201905f5b818110611a925750505090565b8251845260209384019390920191600101611a85565b906003821015611ab55752565b7f4e487b71000000000000000000000000000000000000000000000000000000005f52602160045260245ffd5b610100810190811067ffffffffffffffff821117611aff57604052565b7f4e487b71000000000000000000000000000000000000000000000000000000005f52604160045260245ffd5b6040810190811067ffffffffffffffff821117611aff57604052565b610120810190811067ffffffffffffffff821117611aff57604052565b6060810190811067ffffffffffffffff821117611aff57604052565b90601f7fffffffffffffffffffffffffffffffffffffffffffffffffffffffffffffffe0910116810190811067ffffffffffffffff821117611aff57604052565b908160209103126103b1575190565b9190811015611c115760051b810135907fffffffffffffffffffffffffffffffffffffffffffffffffffffffffffffff01813603018212156103b1570190565b7f4e487b71000000000000000000000000000000000000000000000000000000005f52603260045260245ffd5b356fffffffffffffffffffffffffffffffff811681036103b15790565b67ffffffffffffffff8111611aff5760051b60200190565b90611c7d82611c5b565b611c8a6040519182611b81565b8281527fffffffffffffffffffffffffffffffffffffffffffffffffffffffffffffffe0611cb88294611c5b565b0190602036910137565b356001600160a01b03811681036103b15790565b3580151581036103b15790565b9035907fffffffffffffffffffffffffffffffffffffffffffffffffffffffffffffffe1813603018212156103b1570180359067ffffffffffffffff82116103b157602001918160061b360383136103b157565b35906fffffffffffffffffffffffffffffffff821682036103b157565b359064ffffffffff821682036103b157565b929192611d7282611c5b565b93611d806040519586611b81565b602085848152019260061b8201918183116103b157925b828410611da45750505050565b6040848303126103b15760206040918251611dbe81611b2c565b611dc787611d37565b8152611dd4838801611d54565b83820152815201930192611d97565b91908260409103126103b157604051611dfb81611b2c565b809280356001600160a01b03811681036103b1578252602090810135910152565b8051821015611c115760209160051b010190565b9190811015611c1157610120020190565b9035907fffffffffffffffffffffffffffffffffffffffffffffffffffffffffffffffe1813603018212156103b1570180359067ffffffffffffffff82116103b1576020019160608202360383136103b157565b929192611ea182611c5b565b93611eaf6040519586611b81565b60606020868581520193028201918183116103b157925b828410611ed35750505050565b6060848303126103b15760405190611eea82611b65565b611ef385611d37565b825260208501359067ffffffffffffffff821682036103b15782602092836060950152611f2260408801611d54565b6040820152815201930192611ec6565b9190811015611c115760051b810135907ffffffffffffffffffffffffffffffffffffffffffffffffffffffffffffffee1813603018212156103b1570190565b3564ffffffffff811681036103b15790565b9190811015611c1157610140020190565b9190611fea6040517f23b872dd00000000000000000000000000000000000000000000000000000000602082015233602482015230604482015283606482015260648152611fe4608482611b81565b826121b7565b6040517fdd62ed3e0000000000000000000000000000000000000000000000000000000081523060048201526001600160a01b03848116602483018190529490831691602081604481865afa8015610d2d5785915f9161216a575b5010612053575b5050505050565b6040517f095ea7b300000000000000000000000000000000000000000000000000000000602082019081526001600160a01b039290921660248201526044808201959095529384525f9081906120aa606487611b81565b85519082855af1906120ba61223c565b82612138575b508161212d575b50156120d5575b808061204c565b61212061212593604051907f095ea7b300000000000000000000000000000000000000000000000000000000602083015260248201525f604482015260448152611fe4606482611b81565b6121b7565b5f80806120ce565b90503b15155f6120c7565b80519192508115918215612150575b5050905f6120c0565b612163925060208091830101910161219f565b5f80612147565b9150506020813d602011612197575b8161218660209383611b81565b810103126103b1578490515f612045565b3d9150612179565b908160209103126103b1575180151581036103b15790565b5f806001600160a01b036121e093169360208151910182865af16121d961223c565b9083612299565b8051908115159182612221575b50506121f65750565b7f5274afe7000000000000000000000000000000000000000000000000000000005f5260045260245ffd5b612234925060208091830101910161219f565b155f806121ed565b3d15612294573d9067ffffffffffffffff8211611aff576040519161228960207fffffffffffffffffffffffffffffffffffffffffffffffffffffffffffffffe0601f8401160184611b81565b82523d5f602084013e565b606090565b906122d657508051156122ae57805190602001fd5b7f1425ea42000000000000000000000000000000000000000000000000000000005f5260045ffd5b8151158061231c575b6122e7575090565b6001600160a01b03907f9996b315000000000000000000000000000000000000000000000000000000005f521660045260245ffd5b50803b156122df56fea164736f6c634300081a000a",
    "linkReferences": {}
  },
  "methodIdentifiers": {
    "admin()": "f851a440",
    "claimRebasingAssetYield(address,uint256,address)": "2c5a6fb8",
    "configureRebasingAsset(address,uint8)": "6900ebd0",
    "configureYieldAndGas(address,uint8,uint8,address)": "93273335",
    "createWithDurationsLD(address,address,(address,address,uint128,bool,bool,(uint128,uint64,uint40)[],(address,uint256))[])": "606ef875",
    "createWithDurationsLL(address,address,(address,address,uint128,bool,bool,(uint40,uint40),(address,uint256))[])": "49a32c40",
    "createWithDurationsLT(address,address,(address,address,uint128,bool,bool,(uint128,uint40)[],(address,uint256))[])": "37266dd3",
    "createWithTimestampsLD(address,address,(address,address,uint128,bool,bool,uint40,(uint128,uint64,uint40)[],(address,uint256))[])": "f7ca34eb",
    "createWithTimestampsLL(address,address,(address,address,uint128,bool,bool,(uint40,uint40,uint40),(address,uint256))[])": "a514f83e",
    "createWithTimestampsLT(address,address,(address,address,uint128,bool,bool,uint40,(uint128,uint40)[],(address,uint256))[])": "9e743f29",
    "getClaimableRebasingAssetYield(address)": "63e55549",
    "getRebasingAssetConfiguration(address)": "a8ef018a",
    "transferAdmin(address)": "75829def"
  },
  "id": 101
}