{"abi":[{"type":"constructor","inputs":[{"name":"baseParams","type":"tuple","internalType":"struct MerkleLockup.ConstructorParams","components":[{"name":"asset","type":"address","internalType":"contract IERC20"},{"name":"cancelable","type":"bool","internalType":"bool"},{"name":"expiration","type":"uint40","internalType":"uint40"},{"name":"initialAdmin","type":"address","internalType":"address"},{"name":"ipfsCID","type":"string","internalType":"string"},{"name":"merkleRoot","type":"bytes32","internalType":"bytes32"},{"name":"name","type":"string","internalType":"string"},{"name":"transferable","type":"bool","internalType":"bool"}]},{"name":"lockupTranched","type":"address","internalType":"contract ISablierV2LockupTranched"},{"name":"tranchesWithPercentages","type":"tuple[]","internalType":"struct MerkleLT.TrancheWithPercentage[]","components":[{"name":"unlockPercentage","type":"uint64","internalType":"UD2x18"},{"name":"duration","type":"uint40","internalType":"uint40"}]}],"stateMutability":"nonpayable"},{"type":"function","name":"ASSET","inputs":[],"outputs":[{"name":"","type":"address","internalType":"contract IERC20"}],"stateMutability":"view"},{"type":"function","name":"CANCELABLE","inputs":[],"outputs":[{"name":"","type":"bool","internalType":"bool"}],"stateMutability":"view"},{"type":"function","name":"EXPIRATION","inputs":[],"outputs":[{"name":"","type":"uint40","internalType":"uint40"}],"stateMutability":"view"},{"type":"function","name":"LOCKUP_TRANCHED","inputs":[],"outputs":[{"name":"","type":"address","internalType":"contract ISablierV2LockupTranched"}],"stateMutability":"view"},{"type":"function","name":"MERKLE_ROOT","inputs":[],"outputs":[{"name":"","type":"bytes32","internalType":"bytes32"}],"stateMutability":"view"},{"type":"function","name":"TOTAL_PERCENTAGE","inputs":[],"outputs":[{"name":"","type":"uint64","internalType":"uint64"}],"stateMutability":"view"},{"type":"function","name":"TRANSFERABLE","inputs":[],"outputs":[{"name":"","type":"bool","internalType":"bool"}],"stateMutability":"view"},{"type":"function","name":"admin","inputs":[],"outputs":[{"name":"","type":"address","internalType":"address"}],"stateMutability":"view"},{"type":"function","name":"claim","inputs":[{"name":"index","type":"uint256","internalType":"uint256"},{"name":"recipient","type":"address","internalType":"address"},{"name":"amount","type":"uint128","internalType":"uint128"},{"name":"merkleProof","type":"bytes32[]","internalType":"bytes32[]"}],"outputs":[{"name":"streamId","type":"uint256","internalType":"uint256"}],"stateMutability":"nonpayable"},{"type":"function","name":"claimRebasingAssetYield","inputs":[{"name":"asset","type":"address","internalType":"contract IERC20Rebasing"},{"name":"amount","type":"uint256","internalType":"uint256"},{"name":"to","type":"address","internalType":"address"}],"outputs":[{"name":"claimed","type":"uint256","internalType":"uint256"}],"stateMutability":"nonpayable"},{"type":"function","name":"clawback","inputs":[{"name":"to","type":"address","internalType":"address"},{"name":"amount","type":"uint128","internalType":"uint128"}],"outputs":[],"stateMutability":"nonpayable"},{"type":"function","name":"configureRebasingAsset","inputs":[{"name":"asset","type":"address","internalType":"contract IERC20Rebasing"},{"name":"yieldMode","type":"uint8","internalType":"enum YieldMode"}],"outputs":[],"stateMutability":"nonpayable"},{"type":"function","name":"configureYieldAndGas","inputs":[{"name":"blast","type":"address","internalType":"contract IBlast"},{"name":"yieldMode","type":"uint8","internalType":"enum YieldMode"},{"name":"gasMode","type":"uint8","internalType":"enum GasMode"},{"name":"governor","type":"address","internalType":"address"}],"outputs":[],"stateMutability":"nonpayable"},{"type":"function","name":"getClaimableRebasingAssetYield","inputs":[{"name":"asset","type":"address","internalType":"contract IERC20Rebasing"}],"outputs":[{"name":"claimableYield","type":"uint256","internalType":"uint256"}],"stateMutability":"view"},{"type":"function","name":"getFirstClaimTime","inputs":[],"outputs":[{"name":"","type":"uint40","internalType":"uint40"}],"stateMutability":"view"},{"type":"function","name":"getRebasingAssetConfiguration","inputs":[{"name":"asset","type":"address","internalType":"contract IERC20Rebasing"}],"outputs":[{"name":"yieldMode","type":"uint8","internalType":"enum YieldMode"}],"stateMutability":"view"},{"type":"function","name":"getTranchesWithPercentages","inputs":[],"outputs":[{"name":"","type":"tuple[]","internalType":"struct MerkleLT.TrancheWithPercentage[]","components":[{"name":"unlockPercentage","type":"uint64","internalType":"UD2x18"},{"name":"duration","type":"uint40","internalType":"uint40"}]}],"stateMutability":"view"},{"type":"function","name":"hasClaimed","inputs":[{"name":"index","type":"uint256","internalType":"uint256"}],"outputs":[{"name":"","type":"bool","internalType":"bool"}],"stateMutability":"view"},{"type":"function","name":"hasExpired","inputs":[],"outputs":[{"name":"","type":"bool","internalType":"bool"}],"stateMutability":"view"},{"type":"function","name":"ipfsCID","inputs":[],"outputs":[{"name":"","type":"string","internalType":"string"}],"stateMutability":"view"},{"type":"function","name":"name","inputs":[],"outputs":[{"name":"","type":"string","internalType":"string"}],"stateMutability":"view"},{"type":"function","name":"transferAdmin","inputs":[{"name":"newAdmin","type":"address","internalType":"address"}],"outputs":[],"stateMutability":"nonpayable"},{"type":"event","name":"Claim","inputs":[{"name":"index","type":"uint256","indexed":false,"internalType":"uint256"},{"name":"recipient","type":"address","indexed":true,"internalType":"address"},{"name":"amount","type":"uint128","indexed":false,"internalType":"uint128"},{"name":"streamId","type":"uint256","indexed":true,"internalType":"uint256"}],"anonymous":false},{"type":"event","name":"Clawback","inputs":[{"name":"admin","type":"address","indexed":true,"internalType":"address"},{"name":"to","type":"address","indexed":true,"internalType":"address"},{"name":"amount","type":"uint128","indexed":false,"internalType":"uint128"}],"anonymous":false},{"type":"event","name":"TransferAdmin","inputs":[{"name":"oldAdmin","type":"address","indexed":true,"internalType":"address"},{"name":"newAdmin","type":"address","indexed":true,"internalType":"address"}],"anonymous":false},{"type":"error","name":"AddressEmptyCode","inputs":[{"name":"target","type":"address","internalType":"address"}]},{"type":"error","name":"AddressInsufficientBalance","inputs":[{"name":"account","type":"address","internalType":"address"}]},{"type":"error","name":"CallerNotAdmin","inputs":[{"name":"admin","type":"address","internalType":"address"},{"name":"caller","type":"address","internalType":"address"}]},{"type":"error","name":"FailedInnerCall","inputs":[]},{"type":"error","name":"PRBMath_MulDiv18_Overflow","inputs":[{"name":"x","type":"uint256","internalType":"uint256"},{"name":"y","type":"uint256","internalType":"uint256"}]},{"type":"error","name":"PRBMath_UD60x18_IntoUint128_Overflow","inputs":[{"name":"x","type":"uint256","internalType":"UD60x18"}]},{"type":"error","name":"SablierV2MerkleLT_TotalPercentageNotOneHundred","inputs":[{"name":"totalPercentage","type":"uint64","internalType":"uint64"}]},{"type":"error","name":"SablierV2MerkleLockup_CampaignExpired","inputs":[{"name":"blockTimestamp","type":"uint256","internalType":"uint256"},{"name":"expiration","type":"uint40","internalType":"uint40"}]},{"type":"error","name":"SablierV2MerkleLockup_CampaignNameTooLong","inputs":[{"name":"nameLength","type":"uint256","internalType":"uint256"},{"name":"maxLength","type":"uint256","internalType":"uint256"}]},{"type":"error","name":"SablierV2MerkleLockup_ClawbackNotAllowed","inputs":[{"name":"blockTimestamp","type":"uint256","internalType":"uint256"},{"name":"expiration","type":"uint40","internalType":"uint40"},{"name":"firstClaimTime","type":"uint40","internalType":"uint40"}]},{"type":"error","name":"SablierV2MerkleLockup_InvalidProof","inputs":[]},{"type":"error","name":"SablierV2MerkleLockup_StreamClaimed","inputs":[{"name":"index","type":"uint256","internalType":"uint256"}]},{"type":"error","name":"SafeERC20FailedOperation","inputs":[{"name":"token","type":"address","internalType":"address"}]}],"bytecode":{"object":"0x61018080604052346104485761220d803803809161001d82856106ab565b83398101906060818303126104485780516001600160401b03811161044857810161010081840312610448576040519061010082016001600160401b038111838210176105025760405280516001600160a01b0381168103610448578252610087602082016106ce565b916020810192835261009b604083016106db565b60408201908152606083015193906001600160a01b0385168503610448576060830194855260808401516001600160401b03811161044857876100df918601610729565b916080840192835260a08501519360a0810194855260c086015160018060401b0381116104485760e06101178b610125938a01610729565b9760c08401988952016106ce565b60e082019081526020890151989097906001600160a01b038a168a03610448576040810151906001600160401b03821161044857018a601f82011215610448578051906001600160401b0382116105025760209b8c6040519d8e61018e828760051b01826106ab565b858152019360061b8301019181831161044857602001925b82841061064f5750505050865151602081116106385750515f80546001600160a01b0319166001600160a01b0392831617905590511660805251151560a0525164ffffffffff1660c052518051906001600160401b0382116105025760015490600182811c9216801561062e575b602083101461061a5781601f8493116105ac575b50602090601f8311600114610546575f9261053b575b50508160011b915f199060031b1c1916176001555b5160e05251604051610286602082816102758183019687815193849201610708565b81010301601f1981018352826106ab565b519051906020811061052a575b506101005251151561012052610140528051905f915f915b81831061044c57836101605260018060a01b036080511660018060a01b03610140511690604051905f806020840163095ea7b360e01b815285602486015281196044860152604485526102ff6064866106ab565b84519082855af161030e610782565b81610411575b5080610407575b156103c2575b60405161198a908161088382396080518181816108e501528181610c2501526113ad015260a051818181610c4f015261129c015260c0518181816102700152818161112c0152818161151a01526116f5015260e0518181816107370152610ac80152610100518161158b015261012051818181610c8a01526112600152610140518181816101720152610d8a01526101605181818161038901526109ac0152f35b6103fa6103ff936040519063095ea7b360e01b602083015260248201525f6044820152604481526103f46064826106ab565b826107b1565b6107b1565b808080610321565b50803b151561031b565b8051801592508215610426575b505084610314565b819250906020918101031261044857602061044191016106ce565b848061041e565b5f80fd5b91929091906001600160401b03610463858461076e565b5151166001600160401b03918216019081116105165792610484818361076e565b519060045491680100000000000000008310156105025760018301806004558310156104ee5760019260045f5260205f200190838060401b038151166cffffffffff00000000000000006020845493015160401b1691858060681b031916171790550191906102ab565b634e487b7160e01b5f52603260045260245ffd5b634e487b7160e01b5f52604160045260245ffd5b634e487b7160e01b5f52601160045260245ffd5b5f199060200360031b1b165f610293565b015190505f8061023e565b60015f9081528281209350601f198516905b818110610594575090846001959493921061057c575b505050811b01600155610253565b01515f1960f88460031b161c191690555f808061056e565b92936020600181928786015181550195019301610558565b60015f529091507fb10e2d527612073b26eecdfd717e6a320cf44b4afac2b0732d9fcbe2b7fa0cf6601f840160051c81019160208510610610575b90601f859493920160051c01905b8181106106025750610228565b5f81558493506001016105f5565b90915081906105e7565b634e487b7160e01b5f52602260045260245ffd5b91607f1691610214565b63a52d539b60e01b5f52600452602060245260445ffd5b6040848303126104485760408051919082016001600160401b03811183821017610502576040528451906001600160401b038216820361044857826020926040945261069c8388016106db565b838201528152019301926101a6565b601f909101601f19168101906001600160401b0382119082101761050257604052565b5190811515820361044857565b519064ffffffffff8216820361044857565b6001600160401b03811161050257601f01601f191660200190565b5f5b8381106107195750505f910152565b818101518382015260200161070a565b81601f8201121561044857805161073f816106ed565b9261074d60405194856106ab565b818452602082840101116104485761076b9160208085019101610708565b90565b80518210156104ee5760209160051b010190565b3d156107ac573d90610793826106ed565b916107a160405193846106ab565b82523d5f602084013e565b606090565b5f806107d99260018060a01b03169360208151910182865af16107d2610782565b9083610824565b8051908115159182610801575b50506107ef5750565b635274afe760e01b5f5260045260245ffd5b819250906020918101031261044857602061081c91016106ce565b155f806107e6565b90610848575080511561083957805190602001fd5b630a12f52160e11b5f5260045ffd5b81511580610879575b610859575090565b639996b31560e01b5f9081526001600160a01b0391909116600452602490fd5b50803b1561085156fe6080806040526004361015610012575f80fd5b5f905f3560e01c90816306fdde0314611575575080631686c909146112c157806316c3549d146112855780631bfd6814146112495780632c5a6fb81461117f5780633f31ae3f146109095780634800d97f146108b957806349fc73dd1461077e5780634e390d3e1461075a57806351e75e8b1461072057806363e55549146106705780636900ebd0146105a157806375829def1461050157806390e64d13146104e757806393273335146103ad578063936c63d914610368578063a8ef018a14610294578063bb4b573414610252578063bf4ed03f146101d7578063ce51650714610196578063da792468146101455763f851a44014610110575f80fd5b3461014257806003193601126101425773ffffffffffffffffffffffffffffffffffffffff6020915416604051908152f35b80fd5b5034610142578060031936011261014257602060405173ffffffffffffffffffffffffffffffffffffffff7f0000000000000000000000000000000000000000000000000000000000000000168152f35b50346101425760206003193601126101425760206101cd60043560ff6001918060081c5f526002602052161b60405f205416151590565b6040519015158152f35b50346101425780600319360112610142576101f0611742565b90604051918291602083016020845282518091526020604085019301915b81811061021c575050500390f35b8251805167ffffffffffffffff16855260209081015164ffffffffff16818601528695506040909401939092019160010161020e565b5034610142578060031936011261014257602060405164ffffffffff7f0000000000000000000000000000000000000000000000000000000000000000168152f35b5034610142576020600319360112610142576024602073ffffffffffffffffffffffffffffffffffffffff6102c7611624565b16604051928380927fc44b11f70000000000000000000000000000000000000000000000000000000082523060048301525afa90811561035d57829161031a575b60208261031860405180926116a4565bf35b90506020813d602011610355575b8161033560209383611663565b810103126103515751600381101561035157602091505f610308565b5080fd5b3d9150610328565b6040513d84823e3d90fd5b5034610142578060031936011261014257602060405167ffffffffffffffff7f0000000000000000000000000000000000000000000000000000000000000000168152f35b50346104b45760806003193601126104b45760043573ffffffffffffffffffffffffffffffffffffffff81168091036104b45760243560038110156104b4576044359160028310156104b4576064359073ffffffffffffffffffffffffffffffffffffffff82168092036104b45773ffffffffffffffffffffffffffffffffffffffff5f54163381036104b85750803b156104b4575f92836064926104819460405197889687957fc8992e6100000000000000000000000000000000000000000000000000000000875260048701906116a4565b602485015260448401525af180156104a95761049b575080f35b6104a791505f90611663565b005b6040513d5f823e3d90fd5b5f80fd5b7fc6cce6a4000000000000000000000000000000000000000000000000000000005f526004523360245260445ffd5b346104b4575f6003193601126104b45760206101cd6116ed565b346104b45760206003193601126104b45761051a611624565b5f5473ffffffffffffffffffffffffffffffffffffffff81163381036104b8575073ffffffffffffffffffffffffffffffffffffffff7fffffffffffffffffffffffff0000000000000000000000000000000000000000921691829116175f55337fbdd36143ee09de60bdefca70680e0f71189b2ed7acee364b53917ad433fdaf805f80a3005b346104b45760406003193601126104b4576105ba611624565b60243560038110156104b45773ffffffffffffffffffffffffffffffffffffffff5f54163381036104b8575061063960246020925f73ffffffffffffffffffffffffffffffffffffffff60405196879586947f1a33757d00000000000000000000000000000000000000000000000000000000865260048601906116a4565b165af180156104a95761064857005b6104a79060203d602011610669575b6106618183611663565b8101906116de565b503d610657565b346104b45760206003193601126104b4576024602073ffffffffffffffffffffffffffffffffffffffff6106a2611624565b16604051928380927fe12f3a610000000000000000000000000000000000000000000000000000000082523060048301525afa80156104a9575f906106ed575b602090604051908152f35b506020813d602011610718575b8161070760209383611663565b810103126104b457602090516106e2565b3d91506106fa565b346104b4575f6003193601126104b45760206040517f00000000000000000000000000000000000000000000000000000000000000008152f35b346104b4575f6003193601126104b457602064ffffffffff60035416604051908152f35b346104b4575f6003193601126104b4576040515f6001548060011c906001811680156108af575b6020831081146108825782855290811561084057506001146107e2575b6107de836107d281850382611663565b604051918291826115be565b0390f35b91905060015f527fb10e2d527612073b26eecdfd717e6a320cf44b4afac2b0732d9fcbe2b7fa0cf6915f905b808210610826575090915081016020016107d26107c2565b91926001816020925483858801015201910190929161080e565b7fffffffffffffffffffffffffffffffffffffffffffffffffffffffffffffff001660208086019190915291151560051b840190910191506107d290506107c2565b7f4e487b71000000000000000000000000000000000000000000000000000000005f52602260045260245ffd5b91607f16916107a5565b346104b4575f6003193601126104b457602060405173ffffffffffffffffffffffffffffffffffffffff7f0000000000000000000000000000000000000000000000000000000000000000168152f35b346104b45760806003193601126104b4576004356024359073ffffffffffffffffffffffffffffffffffffffff82168092036104b457604435916fffffffffffffffffffffffffffffffff8316918284036104b4576064359367ffffffffffffffff85116104b457366023860112156104b45784600401359467ffffffffffffffff86116104b45760248660051b8201013681116104b45767ffffffffffffffff7f000000000000000000000000000000000000000000000000000000000000000016670de0b6b3a764000081036111545750604051602081019085825286604082015287606082015260608152610a02608082611663565b5190206040516020810191825260208152610a1e604082611663565b51902091610a2a6116ed565b6110fd57610a4f8560ff6001918060081c5f526002602052161b60405f205416151590565b6110d157610a5c8861172a565b97610a6a604051998a611663565b8852602401602088015b8282106110c157505050925f935b8651851015610ac457610a9585886117d6565b519081811015610ab3575f52602052600160405f205b940193610a82565b905f52602052600160405f20610aab565b85907f0000000000000000000000000000000000000000000000000000000000000000036110995760035464ffffffffff811615611065575b50610b06611742565b925f8451610b138161172a565b95610b216040519788611663565b8187527fffffffffffffffffffffffffffffffffffffffffffffffffffffffffffffffe0610b4e8361172a565b015f5b8181106110425750505f905b828210610f395750506fffffffffffffffffffffffffffffffff8216848111610f0c578411610eb9575b5050508360081c5f52600260205260405f20600160ff86161b815417905573ffffffffffffffffffffffffffffffffffffffff5f541692604051610bca81611647565b5f81525f60208201526040519161010083019583871067ffffffffffffffff881117610e8c5773ffffffffffffffffffffffffffffffffffffffff9660409492939452815260208101918583526040820185815260608301887f00000000000000000000000000000000000000000000000000000000000000001681528860808501917f0000000000000000000000000000000000000000000000000000000000000000151583526fffffffffffffffffffffffffffffffff60a08701947f00000000000000000000000000000000000000000000000000000000000000001515865260c0880196875260e08801998a526040519c8d997f897f362b000000000000000000000000000000000000000000000000000000008b52602060048c0152816101448c019a511660248c0152511660448a0152511660648801525116608486015251151560a485015251151560c4840152519061012060e48401528151809152602061016484019201905f5b818110610e4e575050508190602080945173ffffffffffffffffffffffffffffffffffffffff815116610104850152015161012483015203815f73ffffffffffffffffffffffffffffffffffffffff7f0000000000000000000000000000000000000000000000000000000000000000165af19283156104a9575f93610df6575b50907f28b58397e03322f670d6b223cc863f8c148e368b8b615412e6798a641a22842d60406020958594825191825287820152a3604051908152f35b939250906020843d602011610e46575b81610e1360209383611663565b810103126104b45792519192907f28b58397e03322f670d6b223cc863f8c148e368b8b615412e6798a641a22842d610dba565b3d9150610e06565b825180516fffffffffffffffffffffffffffffffff16855260209081015164ffffffffff168186015289955060409094019390920191600101610d39565b7f4e487b71000000000000000000000000000000000000000000000000000000005f52604160045260245ffd5b6fffffffffffffffffffffffffffffffff91610ef87fffffffffffffffffffffffffffffffffffffffffffffffffffffffffffffffff849301886117d6565b519303168183511601169052848080610b87565b7f4e487b71000000000000000000000000000000000000000000000000000000005f52600160045260245ffd5b9092610f5a67ffffffffffffffff610f5186856117d6565b51511687611817565b6fffffffffffffffffffffffffffffffff8111611017576fffffffffffffffffffffffffffffffff8091169164ffffffffff6020610f9888876117d6565b5101511660405190610fa982611647565b8482526020820152610fbb878c6117d6565b52610fc6868b6117d6565b5016016fffffffffffffffffffffffffffffffff8111610fea579260010190610b5d565b7f4e487b71000000000000000000000000000000000000000000000000000000005f52601160045260245ffd5b7f4916adce000000000000000000000000000000000000000000000000000000005f5260045260245ffd5b60209060405161105181611647565b5f81525f8382015282828c01015201610b51565b7fffffffffffffffffffffffffffffffffffffffffffffffffffffff0000000000164264ffffffffff161760035584610afd565b7f0fa7d73c000000000000000000000000000000000000000000000000000000005f5260045ffd5b8135815260209182019101610a74565b847f712b37a3000000000000000000000000000000000000000000000000000000005f5260045260245ffd5b7f442b1841000000000000000000000000000000000000000000000000000000005f524260045264ffffffffff7f00000000000000000000000000000000000000000000000000000000000000001660245260445ffd5b7f4557880f000000000000000000000000000000000000000000000000000000005f5260045260245ffd5b346104b45760606003193601126104b457611198611624565b60443573ffffffffffffffffffffffffffffffffffffffff811681036104b45773ffffffffffffffffffffffffffffffffffffffff5f54163381036104b8576040517faad3ec9600000000000000000000000000000000000000000000000000000000815273ffffffffffffffffffffffffffffffffffffffff83811660048301526024803590830152602090829060449082905f9089165af180156104a9575f906106ed57602090604051908152f35b346104b4575f6003193601126104b45760206040517f000000000000000000000000000000000000000000000000000000000000000015158152f35b346104b4575f6003193601126104b45760206040517f000000000000000000000000000000000000000000000000000000000000000015158152f35b346104b45760406003193601126104b4576112da611624565b602435906fffffffffffffffffffffffffffffffff82168092036104b45773ffffffffffffffffffffffffffffffffffffffff5f54163381036104b8575064ffffffffff6003541680151580611554575b80611545575b6114eb57506040517fa9059cbb000000000000000000000000000000000000000000000000000000006020820190815273ffffffffffffffffffffffffffffffffffffffff83166024830152604480830185905282525f908190611396606485611663565b73ffffffffffffffffffffffffffffffffffffffff7f00000000000000000000000000000000000000000000000000000000000000001693519082855af13d156114df573d67ffffffffffffffff8111610e8c57611434916040519161142460207fffffffffffffffffffffffffffffffffffffffffffffffffffffffffffffffe0601f8401160184611663565b82523d5f602084013e5b836118e4565b80519081151591826114bb575b505061149057507f2e9d425ba8b27655048400b366d7b6a1f7180ebdb088e06bb7389704860ffe1f602073ffffffffffffffffffffffffffffffffffffffff805f5416936040519586521693a3005b7f5274afe7000000000000000000000000000000000000000000000000000000005f5260045260245ffd5b81925090602091810103126104b457602001518015908115036104b4578480611441565b6114349060609061142e565b7f92b66697000000000000000000000000000000000000000000000000000000005f524260045264ffffffffff7f00000000000000000000000000000000000000000000000000000000000000001660245260445260645ffd5b5061154e6116ed565b15611331565b5062093a80810164ffffffffff8111610fea5764ffffffffff16421161132b565b346104b4575f6003193601126104b4576107de907f00000000000000000000000000000000000000000000000000000000000000006020820152602081526107d2604082611663565b919091602081528251928360208301525f5b84811061160e5750507fffffffffffffffffffffffffffffffffffffffffffffffffffffffffffffffe0601f845f6040809697860101520116010190565b80602080928401015160408286010152016115d0565b6004359073ffffffffffffffffffffffffffffffffffffffff821682036104b457565b6040810190811067ffffffffffffffff821117610e8c57604052565b90601f7fffffffffffffffffffffffffffffffffffffffffffffffffffffffffffffffe0910116810190811067ffffffffffffffff821117610e8c57604052565b9060038210156116b15752565b7f4e487b71000000000000000000000000000000000000000000000000000000005f52602160045260245ffd5b908160209103126104b4575190565b64ffffffffff7f0000000000000000000000000000000000000000000000000000000000000000168015159081611722575090565b905042101590565b67ffffffffffffffff8111610e8c5760051b60200190565b6004549061174f8261172a565b9161175d6040519384611663565b80835260045f9081527f8a35acfbc15ff81a39ae7d344fd709f28e8600b4aa8c65c6b64bfe7fe36bd19b602085015b8383106117995750505050565b6001602081926040516117ab81611647565b64ffffffffff865467ffffffffffffffff8116835260401c168382015281520192019201919061178c565b80518210156117ea5760209160051b010190565b7f4e487b71000000000000000000000000000000000000000000000000000000005f52603260045260245ffd5b9190917fffffffffffffffffffffffffffffffffffffffffffffffffffffffffffffffff838209838202918280831092039180830392146118d357670de0b6b3a76400008210156118a3577faccb18165bd6fe31ae1cf318dc5b51eee0e1ba569b88cd74c1773b91fac106699394670de0b6b3a7640000910990828211900360ee1b910360121c170290565b84907f5173648d000000000000000000000000000000000000000000000000000000005f5260045260245260445ffd5b5050670de0b6b3a764000090049150565b9061192157508051156118f957805190602001fd5b7f1425ea42000000000000000000000000000000000000000000000000000000005f5260045ffd5b81511580611974575b611932575090565b73ffffffffffffffffffffffffffffffffffffffff907f9996b315000000000000000000000000000000000000000000000000000000005f521660045260245ffd5b50803b1561192a56fea164736f6c634300081a000a","linkReferences":{}},"methodIdentifiers":{"ASSET()":"4800d97f","CANCELABLE()":"16c3549d","EXPIRATION()":"bb4b5734","LOCKUP_TRANCHED()":"da792468","MERKLE_ROOT()":"51e75e8b","TOTAL_PERCENTAGE()":"936c63d9","TRANSFERABLE()":"1bfd6814","admin()":"f851a440","claim(uint256,address,uint128,bytes32[])":"3f31ae3f","claimRebasingAssetYield(address,uint256,address)":"2c5a6fb8","clawback(address,uint128)":"1686c909","configureRebasingAsset(address,uint8)":"6900ebd0","configureYieldAndGas(address,uint8,uint8,address)":"93273335","getClaimableRebasingAssetYield(address)":"63e55549","getFirstClaimTime()":"4e390d3e","getRebasingAssetConfiguration(address)":"a8ef018a","getTranchesWithPercentages()":"bf4ed03f","hasClaimed(uint256)":"ce516507","hasExpired()":"90e64d13","ipfsCID()":"49fc73dd","name()":"06fdde03","transferAdmin(address)":"75829def"},"id":103}