{
  "abi": [
    {
      "type": "constructor",
      "inputs": [
        {
          "name": "initialAdmin",
          "type": "address",
          "internalType": "address"
        },
        {
          "name": "lockupLinear",
          "type": "address",
          "internalType": "contract ISablierV2LockupLinear"
        },
        {
          "name": "asset",
          "type": "address",
          "internalType": "contract IERC20"
        },
        {
          "name": "merkleRoot",
          "type": "bytes32",
          "internalType": "bytes32"
        },
        {
          "name": "expiration",
          "type": "uint40",
          "internalType": "uint40"
        },
        {
          "name": "streamDurations_",
          "type": "tuple",
          "internalType": "struct LockupLinear.Durations",
          "components": [
            {
              "name": "cliff",
              "type": "uint40",
              "internalType": "uint40"
            },
            {
              "name": "total",
              "type": "uint40",
              "internalType": "uint40"
            }
          ]
        },
        {
          "name": "cancelable",
          "type": "bool",
          "internalType": "bool"
        },
        {
          "name": "transferable",
          "type": "bool",
          "internalType": "bool"
        }
      ],
      "stateMutability": "nonpayable"
    },
    {
      "type": "function",
      "name": "ASSET",
      "inputs": [],
      "outputs": [
        {
          "name": "",
          "type": "address",
          "internalType": "contract IERC20"
        }
      ],
      "stateMutability": "view"
    },
    {
      "type": "function",
      "name": "CANCELABLE",
      "inputs": [],
      "outputs": [
        {
          "name": "",
          "type": "bool",
          "internalType": "bool"
        }
      ],
      "stateMutability": "view"
    },
    {
      "type": "function",
      "name": "EXPIRATION",
      "inputs": [],
      "outputs": [
        {
          "name": "",
          "type": "uint40",
          "internalType": "uint40"
        }
      ],
      "stateMutability": "view"
    },
    {
      "type": "function",
      "name": "LOCKUP",
      "inputs": [],
      "outputs": [
        {
          "name": "",
          "type": "address",
          "internalType": "contract ISablierV2Lockup"
        }
      ],
      "stateMutability": "view"
    },
    {
      "type": "function",
      "name": "LOCKUP_LINEAR",
      "inputs": [],
      "outputs": [
        {
          "name": "",
          "type": "address",
          "internalType": "contract ISablierV2LockupLinear"
        }
      ],
      "stateMutability": "view"
    },
    {
      "type": "function",
      "name": "MERKLE_ROOT",
      "inputs": [],
      "outputs": [
        {
          "name": "",
          "type": "bytes32",
          "internalType": "bytes32"
        }
      ],
      "stateMutability": "view"
    },
    {
      "type": "function",
      "name": "TRANSFERABLE",
      "inputs": [],
      "outputs": [
        {
          "name": "",
          "type": "bool",
          "internalType": "bool"
        }
      ],
      "stateMutability": "view"
    },
    {
      "type": "function",
      "name": "admin",
      "inputs": [],
      "outputs": [
        {
          "name": "",
          "type": "address",
          "internalType": "address"
        }
      ],
      "stateMutability": "view"
    },
    {
      "type": "function",
      "name": "claim",
      "inputs": [
        {
          "name": "index",
          "type": "uint256",
          "internalType": "uint256"
        },
        {
          "name": "recipient",
          "type": "address",
          "internalType": "address"
        },
        {
          "name": "amount",
          "type": "uint128",
          "internalType": "uint128"
        },
        {
          "name": "merkleProof",
          "type": "bytes32[]",
          "internalType": "bytes32[]"
        }
      ],
      "outputs": [
        {
          "name": "streamId",
          "type": "uint256",
          "internalType": "uint256"
        }
      ],
      "stateMutability": "nonpayable"
    },
    {
      "type": "function",
      "name": "clawback",
      "inputs": [
        {
          "name": "to",
          "type": "address",
          "internalType": "address"
        },
        {
          "name": "amount",
          "type": "uint128",
          "internalType": "uint128"
        }
      ],
      "outputs": [],
      "stateMutability": "nonpayable"
    },
    {
      "type": "function",
      "name": "hasClaimed",
      "inputs": [
        {
          "name": "index",
          "type": "uint256",
          "internalType": "uint256"
        }
      ],
      "outputs": [
        {
          "name": "",
          "type": "bool",
          "internalType": "bool"
        }
      ],
      "stateMutability": "view"
    },
    {
      "type": "function",
      "name": "hasExpired",
      "inputs": [],
      "outputs": [
        {
          "name": "",
          "type": "bool",
          "internalType": "bool"
        }
      ],
      "stateMutability": "view"
    },
    {
      "type": "function",
      "name": "streamDurations",
      "inputs": [],
      "outputs": [
        {
          "name": "cliff",
          "type": "uint40",
          "internalType": "uint40"
        },
        {
          "name": "total",
          "type": "uint40",
          "internalType": "uint40"
        }
      ],
      "stateMutability": "view"
    },
    {
      "type": "function",
      "name": "transferAdmin",
      "inputs": [
        {
          "name": "newAdmin",
          "type": "address",
          "internalType": "address"
        }
      ],
      "outputs": [],
      "stateMutability": "nonpayable"
    },
    {
      "type": "event",
      "name": "Claim",
      "inputs": [
        {
          "name": "index",
          "type": "uint256",
          "indexed": false,
          "internalType": "uint256"
        },
        {
          "name": "recipient",
          "type": "address",
          "indexed": true,
          "internalType": "address"
        },
        {
          "name": "amount",
          "type": "uint128",
          "indexed": false,
          "internalType": "uint128"
        },
        {
          "name": "streamId",
          "type": "uint256",
          "indexed": true,
          "internalType": "uint256"
        }
      ],
      "anonymous": false
    },
    {
      "type": "event",
      "name": "Clawback",
      "inputs": [
        {
          "name": "admin",
          "type": "address",
          "indexed": true,
          "internalType": "address"
        },
        {
          "name": "to",
          "type": "address",
          "indexed": true,
          "internalType": "address"
        },
        {
          "name": "amount",
          "type": "uint128",
          "indexed": false,
          "internalType": "uint128"
        }
      ],
      "anonymous": false
    },
    {
      "type": "event",
      "name": "TransferAdmin",
      "inputs": [
        {
          "name": "oldAdmin",
          "type": "address",
          "indexed": true,
          "internalType": "address"
        },
        {
          "name": "newAdmin",
          "type": "address",
          "indexed": true,
          "internalType": "address"
        }
      ],
      "anonymous": false
    },
    {
      "type": "error",
      "name": "CallerNotAdmin",
      "inputs": [
        {
          "name": "admin",
          "type": "address",
          "internalType": "address"
        },
        {
          "name": "caller",
          "type": "address",
          "internalType": "address"
        }
      ]
    },
    {
      "type": "error",
      "name": "SablierV2MerkleStreamer_CampaignExpired",
      "inputs": [
        {
          "name": "currentTime",
          "type": "uint256",
          "internalType": "uint256"
        },
        {
          "name": "expiration",
          "type": "uint40",
          "internalType": "uint40"
        }
      ]
    },
    {
      "type": "error",
      "name": "SablierV2MerkleStreamer_CampaignNotExpired",
      "inputs": [
        {
          "name": "currentTime",
          "type": "uint256",
          "internalType": "uint256"
        },
        {
          "name": "expiration",
          "type": "uint40",
          "internalType": "uint40"
        }
      ]
    },
    {
      "type": "error",
      "name": "SablierV2MerkleStreamer_InvalidProof",
      "inputs": []
    },
    {
      "type": "error",
      "name": "SablierV2MerkleStreamer_ProtocolFeeNotZero",
      "inputs": []
    },
    {
      "type": "error",
      "name": "SablierV2MerkleStreamer_StreamClaimed",
      "inputs": [
        {
          "name": "index",
          "type": "uint256",
          "internalType": "uint256"
        }
      ]
    }
  ],
  "bytecode": {
    "object": "0x610160604081815234620002e0578162001788803803809162000023828562000301565b833981010361012091828212620002e05783516001600160a01b038082169391849003620002e057602090818701519481861693848703620002e0578589015192831692838103620002e05760608a015190876200008460808d0162000325565b93609f190112620002e0578751918289016001600160401b03811184821017620002ca578952620000b860a08d0162000325565b8352620000c860c08d0162000325565b83880190815293620000dd60e08e0162000338565b91610100809e01620000ef9062000338565b93600097600160a01b60019003198954161788556080528960e0528d5260c05260a05289526101409788525164ffffffffff16600254915160281b69ffffffffff00000000001691600160501b600190031916171760025584519280840191808063095ea7b360e01b948581528860248901526000196044890152604488526200017988620002e5565b87519082885af16200018a62000346565b8162000288575b50806200027d575b156200023b575b505050505050519161121b93846200056d8539608051848181610377015281816106460152610cc4015260a0518481816107320152610bb0015260c05184818161015101528181610afc01528181610f1b01526110b7015260e05184818161020e015281816105d00152610c63015251838181610327015261056801525182818161075a0152610b730152518181816101a201526108cd0152f35b62000271956200026b9388519384015260248301526044820152604481526200026481620002e5565b8262000389565b62000389565b388080808080620001a0565b50833b151562000199565b80915051838115918215620002a3575b505090503862000191565b8380929350010312620002c65782620002bd910162000338565b80833862000298565b5080fd5b634e487b7160e01b600052604160045260246000fd5b600080fd5b608081019081106001600160401b03821117620002ca57604052565b601f909101601f19168101906001600160401b03821190821017620002ca57604052565b519064ffffffffff82168203620002e057565b51908115158203620002e057565b3d1562000384573d906001600160401b038211620002ca576040519162000378601f8201601f19166020018462000301565b82523d6000602084013e565b606090565b60408051908101916001600160a01b03166001600160401b03831182841017620002ca57620003fd926040526000806020958685527f5361666545524332303a206c6f772d6c6576656c2063616c6c206661696c656487860152868151910182855af1620003f662000346565b9162000492565b80518281159182156200046f575b5050905015620004185750565b6084906040519062461bcd60e51b82526004820152602a60248201527f5361666545524332303a204552433230206f7065726174696f6e20646964206e6044820152691bdd081cdd58d8d9595960b21b6064820152fd5b8380929350010312620002e0578162000489910162000338565b8082386200040b565b91929015620004f75750815115620004a8575090565b3b15620004b25790565b60405162461bcd60e51b815260206004820152601d60248201527f416464726573733a2063616c6c20746f206e6f6e2d636f6e74726163740000006044820152606490fd5b8251909150156200050b5750805190602001fd5b6040519062461bcd60e51b82528160208060048301528251908160248401526000935b82851062000552575050604492506000838284010152601f80199101168101030190fd5b84810182015186860160440152938101938593506200052e56fe608080604052600436101561001357600080fd5b60003560e01c9081631686c90914610bd55750806316c3549d14610b985780631bfd681414610b5b5780633bfe03a814610b2c5780633f31ae3f1461039b5780634800d97f1461034a57806351e75e8b1461030f57806375829def14610232578063845aef4b146101e157806390e64d13146101c65780639e93e57714610175578063bb4b573414610133578063ce516507146100f25763f851a440146100b957600080fd5b346100ed5760006003193601126100ed57602073ffffffffffffffffffffffffffffffffffffffff60005416604051908152f35b600080fd5b346100ed5760206003193601126100ed57602061012960043560ff6001918060081c60005282602052161b60406000205416151590565b6040519015158152f35b346100ed5760006003193601126100ed57602060405164ffffffffff7f0000000000000000000000000000000000000000000000000000000000000000168152f35b346100ed5760006003193601126100ed57602060405173ffffffffffffffffffffffffffffffffffffffff7f0000000000000000000000000000000000000000000000000000000000000000168152f35b346100ed5760006003193601126100ed5760206101296110af565b346100ed5760006003193601126100ed57602060405173ffffffffffffffffffffffffffffffffffffffff7f0000000000000000000000000000000000000000000000000000000000000000168152f35b346100ed5760206003193601126100ed5761024b610fe7565b60005473ffffffffffffffffffffffffffffffffffffffff808216923384036102c2577fffffffffffffffffffffffff00000000000000000000000000000000000000009350169182911617600055337fbdd36143ee09de60bdefca70680e0f71189b2ed7acee364b53917ad433fdaf80600080a3005b6040517fc6cce6a400000000000000000000000000000000000000000000000000000000815273ffffffffffffffffffffffffffffffffffffffff85166004820152336024820152604490fd5b346100ed5760006003193601126100ed5760206040517f00000000000000000000000000000000000000000000000000000000000000008152f35b346100ed5760006003193601126100ed57602060405173ffffffffffffffffffffffffffffffffffffffff7f0000000000000000000000000000000000000000000000000000000000000000168152f35b346100ed5760806003193601126100ed5760243573ffffffffffffffffffffffffffffffffffffffff811681036100ed57604435906fffffffffffffffffffffffffffffffff821682036100ed5767ffffffffffffffff606435116100ed573660236064350112156100ed5767ffffffffffffffff60643560040135116100ed573660246064356004013560051b6064350101116100ed576040516020810190600435825273ffffffffffffffffffffffffffffffffffffffff831660408201526fffffffffffffffffffffffffffffffff841660608201526060815261048181611026565b519020604051602081019182526020815261049b8161100a565b519020916104a76110af565b610ace576104cf60043560ff6001918060081c60005282602052161b60406000205416151590565b610a9c57604051926104ed60206064356004013560051b0185611042565b60643560048101358552602401602085015b60246064356004013560051b60643501018210610a8c575050906000915b84518310156105645760208360051b860101519081811060001461055157600052602052600160406000205b92019161051d565b9060005260205260016040600020610549565b83907f000000000000000000000000000000000000000000000000000000000000000003610a6257604051907f5fe3b56700000000000000000000000000000000000000000000000000000000825260208260048173ffffffffffffffffffffffffffffffffffffffff7f0000000000000000000000000000000000000000000000000000000000000000165afa91821561099a57600092610a31575b506040517fdcf844a700000000000000000000000000000000000000000000000000000000815260208160248173ffffffffffffffffffffffffffffffffffffffff807f00000000000000000000000000000000000000000000000000000000000000001697886004840152165afa90811561099a576000916109ff575b506109d55760043560081c60005260016020526040600020600160ff600435161b81541790556040516106b18161100a565b600081526000602082015273ffffffffffffffffffffffffffffffffffffffff600054169260405193610100850185811067ffffffffffffffff8211176109a657604052845273ffffffffffffffffffffffffffffffffffffffff831660208501526fffffffffffffffffffffffffffffffff8516604085015260608401527f0000000000000000000000000000000000000000000000000000000000000000151560808401527f0000000000000000000000000000000000000000000000000000000000000000151560a084015260405161078c8161100a565b64ffffffffff600254818116835260281c16602082015260c084015260e0830152602060e0604051937fab167ccc00000000000000000000000000000000000000000000000000000000855273ffffffffffffffffffffffffffffffffffffffff815116600486015273ffffffffffffffffffffffffffffffffffffffff838201511660248601526fffffffffffffffffffffffffffffffff604082015116604486015273ffffffffffffffffffffffffffffffffffffffff606082015116606486015260808101511515608486015260a0810151151560a486015264ffffffffff8360c08301518281511660c489015201511660e4860152015173ffffffffffffffffffffffffffffffffffffffff815116610104850152015161012483015260208261014481600073ffffffffffffffffffffffffffffffffffffffff7f0000000000000000000000000000000000000000000000000000000000000000165af191821561099a57600092610965575b506020927f28b58397e03322f670d6b223cc863f8c148e368b8b615412e6798a641a22842d604073ffffffffffffffffffffffffffffffffffffffff85946fffffffffffffffffffffffffffffffff835195600435875216888601521692a3604051908152f35b91506020823d602011610992575b8161098060209383611042565b810103126100ed5790519060206108fe565b3d9150610973565b6040513d6000823e3d90fd5b7f4e487b7100000000000000000000000000000000000000000000000000000000600052604160045260246000fd5b60046040517fa4432b51000000000000000000000000000000000000000000000000000000008152fd5b90506020813d602011610a29575b81610a1a60209383611042565b810103126100ed57518461067f565b3d9150610a0d565b610a5491925060203d602011610a5b575b610a4c8183611042565b810190611083565b9083610601565b503d610a42565b60046040517fb3f3b2a6000000000000000000000000000000000000000000000000000000008152fd5b81358152602091820191016104ff565b60246040517f3548783b0000000000000000000000000000000000000000000000000000000081526004356004820152fd5b6040517f74b43bd00000000000000000000000000000000000000000000000000000000081524260048201527f000000000000000000000000000000000000000000000000000000000000000064ffffffffff166024820152604490fd5b346100ed5760006003193601126100ed57604060025464ffffffffff825191818116835260281c166020820152f35b346100ed5760006003193601126100ed5760206040517f000000000000000000000000000000000000000000000000000000000000000015158152f35b346100ed5760006003193601126100ed5760206040517f000000000000000000000000000000000000000000000000000000000000000015158152f35b346100ed5760406003193601126100ed57610bee610fe7565b90602435906fffffffffffffffffffffffffffffffff82168092036100ed5773ffffffffffffffffffffffffffffffffffffffff908160005416338103610f9e575050604051907f5fe3b5670000000000000000000000000000000000000000000000000000000082526020918281600481857f0000000000000000000000000000000000000000000000000000000000000000165afa90811561099a57600091610f81575b506040517fdcf844a7000000000000000000000000000000000000000000000000000000008152838160248186807f00000000000000000000000000000000000000000000000000000000000000001696876004840152165afa90811561099a57600091610f54575b50610d066110af565b159081610f4b575b50610eed5760405160008084868401987fa9059cbb000000000000000000000000000000000000000000000000000000008a52169788602485015287604485015260448452610d5c84611026565b60405193610d698561100a565b8785527f5361666545524332303a206c6f772d6c6576656c2063616c6c206661696c656488860152519082865af13d15610ee0573d9067ffffffffffffffff82116109a657610df59360405192610de7887fffffffffffffffffffffffffffffffffffffffffffffffffffffffffffffffe0601f8401160185611042565b83523d60008885013e6110ec565b8051838115918215610ec0575b5050905015610e3c57907f2e9d425ba8b27655048400b366d7b6a1f7180ebdb088e06bb7389704860ffe1f916000541692604051908152a3005b608482604051907f08c379a00000000000000000000000000000000000000000000000000000000082526004820152602a60248201527f5361666545524332303a204552433230206f7065726174696f6e20646964206e60448201527f6f742073756363656564000000000000000000000000000000000000000000006064820152fd5b83809293500103126100ed5782015180151581036100ed57808387610e02565b91610df5926060916110ec565b6040517f1351f21d0000000000000000000000000000000000000000000000000000000081524260048201527f000000000000000000000000000000000000000000000000000000000000000064ffffffffff166024820152604490fd5b90501586610d0e565b90508381813d8311610f7a575b610f6b8183611042565b810103126100ed575186610cfd565b503d610f61565b610f989150833d8511610a5b57610a4c8183611042565b85610c94565b7fc6cce6a400000000000000000000000000000000000000000000000000000000825273ffffffffffffffffffffffffffffffffffffffff166004820152336024820152604490fd5b6004359073ffffffffffffffffffffffffffffffffffffffff821682036100ed57565b6040810190811067ffffffffffffffff8211176109a657604052565b6080810190811067ffffffffffffffff8211176109a657604052565b90601f7fffffffffffffffffffffffffffffffffffffffffffffffffffffffffffffffe0910116810190811067ffffffffffffffff8211176109a657604052565b908160209103126100ed575173ffffffffffffffffffffffffffffffffffffffff811681036100ed5790565b64ffffffffff7f00000000000000000000000000000000000000000000000000000000000000001680151590816110e4575090565b905042101590565b919290156111675750815115611100575090565b3b156111095790565b60646040517f08c379a000000000000000000000000000000000000000000000000000000000815260206004820152601d60248201527f416464726573733a2063616c6c20746f206e6f6e2d636f6e74726163740000006044820152fd5b82519091501561117a5750805190602001fd5b604051907f08c379a000000000000000000000000000000000000000000000000000000000825281602080600483015282519283602484015260005b8481106111f7575050507fffffffffffffffffffffffffffffffffffffffffffffffffffffffffffffffe0601f836000604480968601015201168101030190fd5b8181018301518682016044015285935082016111b656fea164736f6c6343000817000a",
    "linkReferences": {}
  },
  "methodIdentifiers": {
    "ASSET()": "4800d97f",
    "CANCELABLE()": "16c3549d",
    "EXPIRATION()": "bb4b5734",
    "LOCKUP()": "845aef4b",
    "LOCKUP_LINEAR()": "9e93e577",
    "MERKLE_ROOT()": "51e75e8b",
    "TRANSFERABLE()": "1bfd6814",
    "admin()": "f851a440",
    "claim(uint256,address,uint128,bytes32[])": "3f31ae3f",
    "clawback(address,uint128)": "1686c909",
    "hasClaimed(uint256)": "ce516507",
    "hasExpired()": "90e64d13",
    "streamDurations()": "3bfe03a8",
    "transferAdmin(address)": "75829def"
  },
  "id": 92
}