{
  "abi": [
    {
      "inputs": [
        {
          "internalType": "address",
          "name": "initialAdmin",
          "type": "address"
        },
        {
          "internalType": "contract ISablierV2Comptroller",
          "name": "initialComptroller",
          "type": "address"
        },
        {
          "internalType": "contract ISablierV2NFTDescriptor",
          "name": "initialNFTDescriptor",
          "type": "address"
        },
        {
          "internalType": "uint256",
          "name": "maxSegmentCount",
          "type": "uint256"
        }
      ],
      "stateMutability": "nonpayable",
      "type": "constructor"
    },
    {
      "inputs": [
        {
          "internalType": "address",
          "name": "admin",
          "type": "address"
        },
        {
          "internalType": "address",
          "name": "caller",
          "type": "address"
        }
      ],
      "name": "CallerNotAdmin",
      "type": "error"
    },
    {
      "inputs": [],
      "name": "DelegateCall",
      "type": "error"
    },
    {
      "inputs": [
        {
          "internalType": "uint256",
          "name": "x",
          "type": "uint256"
        },
        {
          "internalType": "uint256",
          "name": "y",
          "type": "uint256"
        }
      ],
      "name": "PRBMath_MulDiv18_Overflow",
      "type": "error"
    },
    {
      "inputs": [
        {
          "internalType": "uint256",
          "name": "x",
          "type": "uint256"
        },
        {
          "internalType": "uint256",
          "name": "y",
          "type": "uint256"
        },
        {
          "internalType": "uint256",
          "name": "denominator",
          "type": "uint256"
        }
      ],
      "name": "PRBMath_MulDiv_Overflow",
      "type": "error"
    },
    {
      "inputs": [],
      "name": "PRBMath_SD59x18_Div_InputTooSmall",
      "type": "error"
    },
    {
      "inputs": [
        {
          "internalType": "SD59x18",
          "name": "x",
          "type": "int256"
        },
        {
          "internalType": "SD59x18",
          "name": "y",
          "type": "int256"
        }
      ],
      "name": "PRBMath_SD59x18_Div_Overflow",
      "type": "error"
    },
    {
      "inputs": [
        {
          "internalType": "SD59x18",
          "name": "x",
          "type": "int256"
        }
      ],
      "name": "PRBMath_SD59x18_Exp2_InputTooBig",
      "type": "error"
    },
    {
      "inputs": [
        {
          "internalType": "SD59x18",
          "name": "x",
          "type": "int256"
        }
      ],
      "name": "PRBMath_SD59x18_IntoUint256_Underflow",
      "type": "error"
    },
    {
      "inputs": [
        {
          "internalType": "SD59x18",
          "name": "x",
          "type": "int256"
        }
      ],
      "name": "PRBMath_SD59x18_Log_InputTooSmall",
      "type": "error"
    },
    {
      "inputs": [],
      "name": "PRBMath_SD59x18_Mul_InputTooSmall",
      "type": "error"
    },
    {
      "inputs": [
        {
          "internalType": "SD59x18",
          "name": "x",
          "type": "int256"
        },
        {
          "internalType": "SD59x18",
          "name": "y",
          "type": "int256"
        }
      ],
      "name": "PRBMath_SD59x18_Mul_Overflow",
      "type": "error"
    },
    {
      "inputs": [
        {
          "internalType": "contract IERC20",
          "name": "asset",
          "type": "address"
        }
      ],
      "name": "SablierV2Base_NoProtocolRevenues",
      "type": "error"
    },
    {
      "inputs": [
        {
          "internalType": "uint128",
          "name": "depositAmount",
          "type": "uint128"
        },
        {
          "internalType": "uint128",
          "name": "segmentAmountsSum",
          "type": "uint128"
        }
      ],
      "name": "SablierV2LockupDynamic_DepositAmountNotEqualToSegmentAmountsSum",
      "type": "error"
    },
    {
      "inputs": [
        {
          "internalType": "uint256",
          "name": "count",
          "type": "uint256"
        }
      ],
      "name": "SablierV2LockupDynamic_SegmentCountTooHigh",
      "type": "error"
    },
    {
      "inputs": [],
      "name": "SablierV2LockupDynamic_SegmentCountZero",
      "type": "error"
    },
    {
      "inputs": [
        {
          "internalType": "uint256",
          "name": "index",
          "type": "uint256"
        },
        {
          "internalType": "uint40",
          "name": "previousMilestone",
          "type": "uint40"
        },
        {
          "internalType": "uint40",
          "name": "currentMilestone",
          "type": "uint40"
        }
      ],
      "name": "SablierV2LockupDynamic_SegmentMilestonesNotOrdered",
      "type": "error"
    },
    {
      "inputs": [
        {
          "internalType": "uint40",
          "name": "startTime",
          "type": "uint40"
        },
        {
          "internalType": "uint40",
          "name": "firstSegmentMilestone",
          "type": "uint40"
        }
      ],
      "name": "SablierV2LockupDynamic_StartTimeNotLessThanFirstSegmentMilestone",
      "type": "error"
    },
    {
      "inputs": [
        {
          "internalType": "UD60x18",
          "name": "brokerFee",
          "type": "uint256"
        },
        {
          "internalType": "UD60x18",
          "name": "maxFee",
          "type": "uint256"
        }
      ],
      "name": "SablierV2Lockup_BrokerFeeTooHigh",
      "type": "error"
    },
    {
      "inputs": [],
      "name": "SablierV2Lockup_DepositAmountZero",
      "type": "error"
    },
    {
      "inputs": [
        {
          "internalType": "uint40",
          "name": "currentTime",
          "type": "uint40"
        },
        {
          "internalType": "uint40",
          "name": "endTime",
          "type": "uint40"
        }
      ],
      "name": "SablierV2Lockup_EndTimeNotInTheFuture",
      "type": "error"
    },
    {
      "inputs": [
        {
          "internalType": "uint256",
          "name": "streamId",
          "type": "uint256"
        },
        {
          "internalType": "address",
          "name": "sender",
          "type": "address"
        },
        {
          "internalType": "address",
          "name": "to",
          "type": "address"
        }
      ],
      "name": "SablierV2Lockup_InvalidSenderWithdrawal",
      "type": "error"
    },
    {
      "inputs": [
        {
          "internalType": "uint256",
          "name": "streamId",
          "type": "uint256"
        }
      ],
      "name": "SablierV2Lockup_Null",
      "type": "error"
    },
    {
      "inputs": [
        {
          "internalType": "uint256",
          "name": "streamId",
          "type": "uint256"
        },
        {
          "internalType": "uint128",
          "name": "amount",
          "type": "uint128"
        },
        {
          "internalType": "uint128",
          "name": "withdrawableAmount",
          "type": "uint128"
        }
      ],
      "name": "SablierV2Lockup_Overdraw",
      "type": "error"
    },
    {
      "inputs": [
        {
          "internalType": "UD60x18",
          "name": "protocolFee",
          "type": "uint256"
        },
        {
          "internalType": "UD60x18",
          "name": "maxFee",
          "type": "uint256"
        }
      ],
      "name": "SablierV2Lockup_ProtocolFeeTooHigh",
      "type": "error"
    },
    {
      "inputs": [
        {
          "internalType": "uint256",
          "name": "streamId",
          "type": "uint256"
        }
      ],
      "name": "SablierV2Lockup_StreamCanceled",
      "type": "error"
    },
    {
      "inputs": [
        {
          "internalType": "uint256",
          "name": "streamId",
          "type": "uint256"
        }
      ],
      "name": "SablierV2Lockup_StreamDepleted",
      "type": "error"
    },
    {
      "inputs": [
        {
          "internalType": "uint256",
          "name": "streamId",
          "type": "uint256"
        }
      ],
      "name": "SablierV2Lockup_StreamNotCancelable",
      "type": "error"
    },
    {
      "inputs": [
        {
          "internalType": "uint256",
          "name": "streamId",
          "type": "uint256"
        }
      ],
      "name": "SablierV2Lockup_StreamNotDepleted",
      "type": "error"
    },
    {
      "inputs": [
        {
          "internalType": "uint256",
          "name": "streamId",
          "type": "uint256"
        }
      ],
      "name": "SablierV2Lockup_StreamSettled",
      "type": "error"
    },
    {
      "inputs": [
        {
          "internalType": "uint256",
          "name": "streamId",
          "type": "uint256"
        },
        {
          "internalType": "address",
          "name": "caller",
          "type": "address"
        }
      ],
      "name": "SablierV2Lockup_Unauthorized",
      "type": "error"
    },
    {
      "inputs": [
        {
          "internalType": "uint256",
          "name": "streamId",
          "type": "uint256"
        }
      ],
      "name": "SablierV2Lockup_WithdrawAmountZero",
      "type": "error"
    },
    {
      "inputs": [
        {
          "internalType": "uint256",
          "name": "streamIdsCount",
          "type": "uint256"
        },
        {
          "internalType": "uint256",
          "name": "amountsCount",
          "type": "uint256"
        }
      ],
      "name": "SablierV2Lockup_WithdrawArrayCountsNotEqual",
      "type": "error"
    },
    {
      "inputs": [],
      "name": "SablierV2Lockup_WithdrawToZeroAddress",
      "type": "error"
    },
    {
      "anonymous": false,
      "inputs": [
        {
          "indexed": true,
          "internalType": "address",
          "name": "owner",
          "type": "address"
        },
        {
          "indexed": true,
          "internalType": "address",
          "name": "approved",
          "type": "address"
        },
        {
          "indexed": true,
          "internalType": "uint256",
          "name": "tokenId",
          "type": "uint256"
        }
      ],
      "name": "Approval",
      "type": "event"
    },
    {
      "anonymous": false,
      "inputs": [
        {
          "indexed": true,
          "internalType": "address",
          "name": "owner",
          "type": "address"
        },
        {
          "indexed": true,
          "internalType": "address",
          "name": "operator",
          "type": "address"
        },
        {
          "indexed": false,
          "internalType": "bool",
          "name": "approved",
          "type": "bool"
        }
      ],
      "name": "ApprovalForAll",
      "type": "event"
    },
    {
      "anonymous": false,
      "inputs": [
        {
          "indexed": false,
          "internalType": "uint256",
          "name": "_fromTokenId",
          "type": "uint256"
        },
        {
          "indexed": false,
          "internalType": "uint256",
          "name": "_toTokenId",
          "type": "uint256"
        }
      ],
      "name": "BatchMetadataUpdate",
      "type": "event"
    },
    {
      "anonymous": false,
      "inputs": [
        {
          "indexed": true,
          "internalType": "uint256",
          "name": "streamId",
          "type": "uint256"
        },
        {
          "indexed": true,
          "internalType": "address",
          "name": "sender",
          "type": "address"
        },
        {
          "indexed": true,
          "internalType": "address",
          "name": "recipient",
          "type": "address"
        },
        {
          "indexed": false,
          "internalType": "uint128",
          "name": "senderAmount",
          "type": "uint128"
        },
        {
          "indexed": false,
          "internalType": "uint128",
          "name": "recipientAmount",
          "type": "uint128"
        }
      ],
      "name": "CancelLockupStream",
      "type": "event"
    },
    {
      "anonymous": false,
      "inputs": [
        {
          "indexed": true,
          "internalType": "address",
          "name": "admin",
          "type": "address"
        },
        {
          "indexed": true,
          "internalType": "contract IERC20",
          "name": "asset",
          "type": "address"
        },
        {
          "indexed": false,
          "internalType": "uint128",
          "name": "protocolRevenues",
          "type": "uint128"
        }
      ],
      "name": "ClaimProtocolRevenues",
      "type": "event"
    },
    {
      "anonymous": false,
      "inputs": [
        {
          "indexed": false,
          "internalType": "uint256",
          "name": "streamId",
          "type": "uint256"
        },
        {
          "indexed": false,
          "internalType": "address",
          "name": "funder",
          "type": "address"
        },
        {
          "indexed": true,
          "internalType": "address",
          "name": "sender",
          "type": "address"
        },
        {
          "indexed": true,
          "internalType": "address",
          "name": "recipient",
          "type": "address"
        },
        {
          "components": [
            {
              "internalType": "uint128",
              "name": "deposit",
              "type": "uint128"
            },
            {
              "internalType": "uint128",
              "name": "protocolFee",
              "type": "uint128"
            },
            {
              "internalType": "uint128",
              "name": "brokerFee",
              "type": "uint128"
            }
          ],
          "indexed": false,
          "internalType": "struct Lockup.CreateAmounts",
          "name": "amounts",
          "type": "tuple"
        },
        {
          "indexed": true,
          "internalType": "contract IERC20",
          "name": "asset",
          "type": "address"
        },
        {
          "indexed": false,
          "internalType": "bool",
          "name": "cancelable",
          "type": "bool"
        },
        {
          "components": [
            {
              "internalType": "uint128",
              "name": "amount",
              "type": "uint128"
            },
            {
              "internalType": "UD2x18",
              "name": "exponent",
              "type": "uint64"
            },
            {
              "internalType": "uint40",
              "name": "milestone",
              "type": "uint40"
            }
          ],
          "indexed": false,
          "internalType": "struct LockupDynamic.Segment[]",
          "name": "segments",
          "type": "tuple[]"
        },
        {
          "components": [
            {
              "internalType": "uint40",
              "name": "start",
              "type": "uint40"
            },
            {
              "internalType": "uint40",
              "name": "end",
              "type": "uint40"
            }
          ],
          "indexed": false,
          "internalType": "struct LockupDynamic.Range",
          "name": "range",
          "type": "tuple"
        },
        {
          "indexed": false,
          "internalType": "address",
          "name": "broker",
          "type": "address"
        }
      ],
      "name": "CreateLockupDynamicStream",
      "type": "event"
    },
    {
      "anonymous": false,
      "inputs": [
        {
          "indexed": false,
          "internalType": "uint256",
          "name": "_tokenId",
          "type": "uint256"
        }
      ],
      "name": "MetadataUpdate",
      "type": "event"
    },
    {
      "anonymous": false,
      "inputs": [
        {
          "indexed": true,
          "internalType": "uint256",
          "name": "streamId",
          "type": "uint256"
        }
      ],
      "name": "RenounceLockupStream",
      "type": "event"
    },
    {
      "anonymous": false,
      "inputs": [
        {
          "indexed": true,
          "internalType": "address",
          "name": "admin",
          "type": "address"
        },
        {
          "indexed": false,
          "internalType": "contract ISablierV2Comptroller",
          "name": "oldComptroller",
          "type": "address"
        },
        {
          "indexed": false,
          "internalType": "contract ISablierV2Comptroller",
          "name": "newComptroller",
          "type": "address"
        }
      ],
      "name": "SetComptroller",
      "type": "event"
    },
    {
      "anonymous": false,
      "inputs": [
        {
          "indexed": true,
          "internalType": "address",
          "name": "admin",
          "type": "address"
        },
        {
          "indexed": false,
          "internalType": "contract ISablierV2NFTDescriptor",
          "name": "oldNFTDescriptor",
          "type": "address"
        },
        {
          "indexed": false,
          "internalType": "contract ISablierV2NFTDescriptor",
          "name": "newNFTDescriptor",
          "type": "address"
        }
      ],
      "name": "SetNFTDescriptor",
      "type": "event"
    },
    {
      "anonymous": false,
      "inputs": [
        {
          "indexed": true,
          "internalType": "address",
          "name": "from",
          "type": "address"
        },
        {
          "indexed": true,
          "internalType": "address",
          "name": "to",
          "type": "address"
        },
        {
          "indexed": true,
          "internalType": "uint256",
          "name": "tokenId",
          "type": "uint256"
        }
      ],
      "name": "Transfer",
      "type": "event"
    },
    {
      "anonymous": false,
      "inputs": [
        {
          "indexed": true,
          "internalType": "address",
          "name": "oldAdmin",
          "type": "address"
        },
        {
          "indexed": true,
          "internalType": "address",
          "name": "newAdmin",
          "type": "address"
        }
      ],
      "name": "TransferAdmin",
      "type": "event"
    },
    {
      "anonymous": false,
      "inputs": [
        {
          "indexed": true,
          "internalType": "uint256",
          "name": "streamId",
          "type": "uint256"
        },
        {
          "indexed": true,
          "internalType": "address",
          "name": "to",
          "type": "address"
        },
        {
          "indexed": false,
          "internalType": "uint128",
          "name": "amount",
          "type": "uint128"
        }
      ],
      "name": "WithdrawFromLockupStream",
      "type": "event"
    },
    {
      "inputs": [],
      "name": "MAX_FEE",
      "outputs": [
        {
          "internalType": "UD60x18",
          "name": "",
          "type": "uint256"
        }
      ],
      "stateMutability": "view",
      "type": "function"
    },
    {
      "inputs": [],
      "name": "MAX_SEGMENT_COUNT",
      "outputs": [
        {
          "internalType": "uint256",
          "name": "",
          "type": "uint256"
        }
      ],
      "stateMutability": "view",
      "type": "function"
    },
    {
      "inputs": [],
      "name": "admin",
      "outputs": [
        {
          "internalType": "address",
          "name": "",
          "type": "address"
        }
      ],
      "stateMutability": "view",
      "type": "function"
    },
    {
      "inputs": [
        {
          "internalType": "address",
          "name": "to",
          "type": "address"
        },
        {
          "internalType": "uint256",
          "name": "tokenId",
          "type": "uint256"
        }
      ],
      "name": "approve",
      "outputs": [],
      "stateMutability": "nonpayable",
      "type": "function"
    },
    {
      "inputs": [
        {
          "internalType": "address",
          "name": "owner",
          "type": "address"
        }
      ],
      "name": "balanceOf",
      "outputs": [
        {
          "internalType": "uint256",
          "name": "",
          "type": "uint256"
        }
      ],
      "stateMutability": "view",
      "type": "function"
    },
    {
      "inputs": [
        {
          "internalType": "uint256",
          "name": "streamId",
          "type": "uint256"
        }
      ],
      "name": "burn",
      "outputs": [],
      "stateMutability": "nonpayable",
      "type": "function"
    },
    {
      "inputs": [
        {
          "internalType": "uint256",
          "name": "streamId",
          "type": "uint256"
        }
      ],
      "name": "cancel",
      "outputs": [],
      "stateMutability": "nonpayable",
      "type": "function"
    },
    {
      "inputs": [
        {
          "internalType": "uint256[]",
          "name": "streamIds",
          "type": "uint256[]"
        }
      ],
      "name": "cancelMultiple",
      "outputs": [],
      "stateMutability": "nonpayable",
      "type": "function"
    },
    {
      "inputs": [
        {
          "internalType": "contract IERC20",
          "name": "asset",
          "type": "address"
        }
      ],
      "name": "claimProtocolRevenues",
      "outputs": [],
      "stateMutability": "nonpayable",
      "type": "function"
    },
    {
      "inputs": [],
      "name": "comptroller",
      "outputs": [
        {
          "internalType": "contract ISablierV2Comptroller",
          "name": "",
          "type": "address"
        }
      ],
      "stateMutability": "view",
      "type": "function"
    },
    {
      "inputs": [
        {
          "components": [
            {
              "internalType": "address",
              "name": "sender",
              "type": "address"
            },
            {
              "internalType": "bool",
              "name": "cancelable",
              "type": "bool"
            },
            {
              "internalType": "address",
              "name": "recipient",
              "type": "address"
            },
            {
              "internalType": "uint128",
              "name": "totalAmount",
              "type": "uint128"
            },
            {
              "internalType": "contract IERC20",
              "name": "asset",
              "type": "address"
            },
            {
              "components": [
                {
                  "internalType": "address",
                  "name": "account",
                  "type": "address"
                },
                {
                  "internalType": "UD60x18",
                  "name": "fee",
                  "type": "uint256"
                }
              ],
              "internalType": "struct Broker",
              "name": "broker",
              "type": "tuple"
            },
            {
              "components": [
                {
                  "internalType": "uint128",
                  "name": "amount",
                  "type": "uint128"
                },
                {
                  "internalType": "UD2x18",
                  "name": "exponent",
                  "type": "uint64"
                },
                {
                  "internalType": "uint40",
                  "name": "delta",
                  "type": "uint40"
                }
              ],
              "internalType": "struct LockupDynamic.SegmentWithDelta[]",
              "name": "segments",
              "type": "tuple[]"
            }
          ],
          "internalType": "struct LockupDynamic.CreateWithDeltas",
          "name": "params",
          "type": "tuple"
        }
      ],
      "name": "createWithDeltas",
      "outputs": [
        {
          "internalType": "uint256",
          "name": "streamId",
          "type": "uint256"
        }
      ],
      "stateMutability": "nonpayable",
      "type": "function"
    },
    {
      "inputs": [
        {
          "components": [
            {
              "internalType": "address",
              "name": "sender",
              "type": "address"
            },
            {
              "internalType": "uint40",
              "name": "startTime",
              "type": "uint40"
            },
            {
              "internalType": "bool",
              "name": "cancelable",
              "type": "bool"
            },
            {
              "internalType": "address",
              "name": "recipient",
              "type": "address"
            },
            {
              "internalType": "uint128",
              "name": "totalAmount",
              "type": "uint128"
            },
            {
              "internalType": "contract IERC20",
              "name": "asset",
              "type": "address"
            },
            {
              "components": [
                {
                  "internalType": "address",
                  "name": "account",
                  "type": "address"
                },
                {
                  "internalType": "UD60x18",
                  "name": "fee",
                  "type": "uint256"
                }
              ],
              "internalType": "struct Broker",
              "name": "broker",
              "type": "tuple"
            },
            {
              "components": [
                {
                  "internalType": "uint128",
                  "name": "amount",
                  "type": "uint128"
                },
                {
                  "internalType": "UD2x18",
                  "name": "exponent",
                  "type": "uint64"
                },
                {
                  "internalType": "uint40",
                  "name": "milestone",
                  "type": "uint40"
                }
              ],
              "internalType": "struct LockupDynamic.Segment[]",
              "name": "segments",
              "type": "tuple[]"
            }
          ],
          "internalType": "struct LockupDynamic.CreateWithMilestones",
          "name": "params",
          "type": "tuple"
        }
      ],
      "name": "createWithMilestones",
      "outputs": [
        {
          "internalType": "uint256",
          "name": "streamId",
          "type": "uint256"
        }
      ],
      "stateMutability": "nonpayable",
      "type": "function"
    },
    {
      "inputs": [
        {
          "internalType": "uint256",
          "name": "tokenId",
          "type": "uint256"
        }
      ],
      "name": "getApproved",
      "outputs": [
        {
          "internalType": "address",
          "name": "",
          "type": "address"
        }
      ],
      "stateMutability": "view",
      "type": "function"
    },
    {
      "inputs": [
        {
          "internalType": "uint256",
          "name": "streamId",
          "type": "uint256"
        }
      ],
      "name": "getAsset",
      "outputs": [
        {
          "internalType": "contract IERC20",
          "name": "asset",
          "type": "address"
        }
      ],
      "stateMutability": "view",
      "type": "function"
    },
    {
      "inputs": [
        {
          "internalType": "uint256",
          "name": "streamId",
          "type": "uint256"
        }
      ],
      "name": "getDepositedAmount",
      "outputs": [
        {
          "internalType": "uint128",
          "name": "depositedAmount",
          "type": "uint128"
        }
      ],
      "stateMutability": "view",
      "type": "function"
    },
    {
      "inputs": [
        {
          "internalType": "uint256",
          "name": "streamId",
          "type": "uint256"
        }
      ],
      "name": "getEndTime",
      "outputs": [
        {
          "internalType": "uint40",
          "name": "endTime",
          "type": "uint40"
        }
      ],
      "stateMutability": "view",
      "type": "function"
    },
    {
      "inputs": [
        {
          "internalType": "uint256",
          "name": "streamId",
          "type": "uint256"
        }
      ],
      "name": "getRange",
      "outputs": [
        {
          "components": [
            {
              "internalType": "uint40",
              "name": "start",
              "type": "uint40"
            },
            {
              "internalType": "uint40",
              "name": "end",
              "type": "uint40"
            }
          ],
          "internalType": "struct LockupDynamic.Range",
          "name": "range",
          "type": "tuple"
        }
      ],
      "stateMutability": "view",
      "type": "function"
    },
    {
      "inputs": [
        {
          "internalType": "uint256",
          "name": "streamId",
          "type": "uint256"
        }
      ],
      "name": "getRecipient",
      "outputs": [
        {
          "internalType": "address",
          "name": "recipient",
          "type": "address"
        }
      ],
      "stateMutability": "view",
      "type": "function"
    },
    {
      "inputs": [
        {
          "internalType": "uint256",
          "name": "streamId",
          "type": "uint256"
        }
      ],
      "name": "getRefundedAmount",
      "outputs": [
        {
          "internalType": "uint128",
          "name": "refundedAmount",
          "type": "uint128"
        }
      ],
      "stateMutability": "view",
      "type": "function"
    },
    {
      "inputs": [
        {
          "internalType": "uint256",
          "name": "streamId",
          "type": "uint256"
        }
      ],
      "name": "getSegments",
      "outputs": [
        {
          "components": [
            {
              "internalType": "uint128",
              "name": "amount",
              "type": "uint128"
            },
            {
              "internalType": "UD2x18",
              "name": "exponent",
              "type": "uint64"
            },
            {
              "internalType": "uint40",
              "name": "milestone",
              "type": "uint40"
            }
          ],
          "internalType": "struct LockupDynamic.Segment[]",
          "name": "segments",
          "type": "tuple[]"
        }
      ],
      "stateMutability": "view",
      "type": "function"
    },
    {
      "inputs": [
        {
          "internalType": "uint256",
          "name": "streamId",
          "type": "uint256"
        }
      ],
      "name": "getSender",
      "outputs": [
        {
          "internalType": "address",
          "name": "sender",
          "type": "address"
        }
      ],
      "stateMutability": "view",
      "type": "function"
    },
    {
      "inputs": [
        {
          "internalType": "uint256",
          "name": "streamId",
          "type": "uint256"
        }
      ],
      "name": "getStartTime",
      "outputs": [
        {
          "internalType": "uint40",
          "name": "startTime",
          "type": "uint40"
        }
      ],
      "stateMutability": "view",
      "type": "function"
    },
    {
      "inputs": [
        {
          "internalType": "uint256",
          "name": "streamId",
          "type": "uint256"
        }
      ],
      "name": "getStream",
      "outputs": [
        {
          "components": [
            {
              "internalType": "address",
              "name": "sender",
              "type": "address"
            },
            {
              "internalType": "uint40",
              "name": "startTime",
              "type": "uint40"
            },
            {
              "internalType": "uint40",
              "name": "endTime",
              "type": "uint40"
            },
            {
              "internalType": "bool",
              "name": "isCancelable",
              "type": "bool"
            },
            {
              "internalType": "bool",
              "name": "wasCanceled",
              "type": "bool"
            },
            {
              "internalType": "contract IERC20",
              "name": "asset",
              "type": "address"
            },
            {
              "internalType": "bool",
              "name": "isDepleted",
              "type": "bool"
            },
            {
              "internalType": "bool",
              "name": "isStream",
              "type": "bool"
            },
            {
              "components": [
                {
                  "internalType": "uint128",
                  "name": "deposited",
                  "type": "uint128"
                },
                {
                  "internalType": "uint128",
                  "name": "withdrawn",
                  "type": "uint128"
                },
                {
                  "internalType": "uint128",
                  "name": "refunded",
                  "type": "uint128"
                }
              ],
              "internalType": "struct Lockup.Amounts",
              "name": "amounts",
              "type": "tuple"
            },
            {
              "components": [
                {
                  "internalType": "uint128",
                  "name": "amount",
                  "type": "uint128"
                },
                {
                  "internalType": "UD2x18",
                  "name": "exponent",
                  "type": "uint64"
                },
                {
                  "internalType": "uint40",
                  "name": "milestone",
                  "type": "uint40"
                }
              ],
              "internalType": "struct LockupDynamic.Segment[]",
              "name": "segments",
              "type": "tuple[]"
            }
          ],
          "internalType": "struct LockupDynamic.Stream",
          "name": "stream",
          "type": "tuple"
        }
      ],
      "stateMutability": "view",
      "type": "function"
    },
    {
      "inputs": [
        {
          "internalType": "uint256",
          "name": "streamId",
          "type": "uint256"
        }
      ],
      "name": "getWithdrawnAmount",
      "outputs": [
        {
          "internalType": "uint128",
          "name": "withdrawnAmount",
          "type": "uint128"
        }
      ],
      "stateMutability": "view",
      "type": "function"
    },
    {
      "inputs": [
        {
          "internalType": "address",
          "name": "owner",
          "type": "address"
        },
        {
          "internalType": "address",
          "name": "operator",
          "type": "address"
        }
      ],
      "name": "isApprovedForAll",
      "outputs": [
        {
          "internalType": "bool",
          "name": "",
          "type": "bool"
        }
      ],
      "stateMutability": "view",
      "type": "function"
    },
    {
      "inputs": [
        {
          "internalType": "uint256",
          "name": "streamId",
          "type": "uint256"
        }
      ],
      "name": "isCancelable",
      "outputs": [
        {
          "internalType": "bool",
          "name": "result",
          "type": "bool"
        }
      ],
      "stateMutability": "view",
      "type": "function"
    },
    {
      "inputs": [
        {
          "internalType": "uint256",
          "name": "streamId",
          "type": "uint256"
        }
      ],
      "name": "isCold",
      "outputs": [
        {
          "internalType": "bool",
          "name": "result",
          "type": "bool"
        }
      ],
      "stateMutability": "view",
      "type": "function"
    },
    {
      "inputs": [
        {
          "internalType": "uint256",
          "name": "streamId",
          "type": "uint256"
        }
      ],
      "name": "isDepleted",
      "outputs": [
        {
          "internalType": "bool",
          "name": "result",
          "type": "bool"
        }
      ],
      "stateMutability": "view",
      "type": "function"
    },
    {
      "inputs": [
        {
          "internalType": "uint256",
          "name": "streamId",
          "type": "uint256"
        }
      ],
      "name": "isStream",
      "outputs": [
        {
          "internalType": "bool",
          "name": "result",
          "type": "bool"
        }
      ],
      "stateMutability": "view",
      "type": "function"
    },
    {
      "inputs": [
        {
          "internalType": "uint256",
          "name": "streamId",
          "type": "uint256"
        }
      ],
      "name": "isWarm",
      "outputs": [
        {
          "internalType": "bool",
          "name": "result",
          "type": "bool"
        }
      ],
      "stateMutability": "view",
      "type": "function"
    },
    {
      "inputs": [],
      "name": "name",
      "outputs": [
        {
          "internalType": "string",
          "name": "",
          "type": "string"
        }
      ],
      "stateMutability": "view",
      "type": "function"
    },
    {
      "inputs": [],
      "name": "nextStreamId",
      "outputs": [
        {
          "internalType": "uint256",
          "name": "",
          "type": "uint256"
        }
      ],
      "stateMutability": "view",
      "type": "function"
    },
    {
      "inputs": [
        {
          "internalType": "uint256",
          "name": "tokenId",
          "type": "uint256"
        }
      ],
      "name": "ownerOf",
      "outputs": [
        {
          "internalType": "address",
          "name": "",
          "type": "address"
        }
      ],
      "stateMutability": "view",
      "type": "function"
    },
    {
      "inputs": [
        {
          "internalType": "contract IERC20",
          "name": "asset",
          "type": "address"
        }
      ],
      "name": "protocolRevenues",
      "outputs": [
        {
          "internalType": "uint128",
          "name": "revenues",
          "type": "uint128"
        }
      ],
      "stateMutability": "view",
      "type": "function"
    },
    {
      "inputs": [
        {
          "internalType": "uint256",
          "name": "streamId",
          "type": "uint256"
        }
      ],
      "name": "refundableAmountOf",
      "outputs": [
        {
          "internalType": "uint128",
          "name": "refundableAmount",
          "type": "uint128"
        }
      ],
      "stateMutability": "view",
      "type": "function"
    },
    {
      "inputs": [
        {
          "internalType": "uint256",
          "name": "streamId",
          "type": "uint256"
        }
      ],
      "name": "renounce",
      "outputs": [],
      "stateMutability": "nonpayable",
      "type": "function"
    },
    {
      "inputs": [
        {
          "internalType": "address",
          "name": "from",
          "type": "address"
        },
        {
          "internalType": "address",
          "name": "to",
          "type": "address"
        },
        {
          "internalType": "uint256",
          "name": "tokenId",
          "type": "uint256"
        }
      ],
      "name": "safeTransferFrom",
      "outputs": [],
      "stateMutability": "nonpayable",
      "type": "function"
    },
    {
      "inputs": [
        {
          "internalType": "address",
          "name": "from",
          "type": "address"
        },
        {
          "internalType": "address",
          "name": "to",
          "type": "address"
        },
        {
          "internalType": "uint256",
          "name": "tokenId",
          "type": "uint256"
        },
        {
          "internalType": "bytes",
          "name": "data",
          "type": "bytes"
        }
      ],
      "name": "safeTransferFrom",
      "outputs": [],
      "stateMutability": "nonpayable",
      "type": "function"
    },
    {
      "inputs": [
        {
          "internalType": "address",
          "name": "operator",
          "type": "address"
        },
        {
          "internalType": "bool",
          "name": "approved",
          "type": "bool"
        }
      ],
      "name": "setApprovalForAll",
      "outputs": [],
      "stateMutability": "nonpayable",
      "type": "function"
    },
    {
      "inputs": [
        {
          "internalType": "contract ISablierV2Comptroller",
          "name": "newComptroller",
          "type": "address"
        }
      ],
      "name": "setComptroller",
      "outputs": [],
      "stateMutability": "nonpayable",
      "type": "function"
    },
    {
      "inputs": [
        {
          "internalType": "contract ISablierV2NFTDescriptor",
          "name": "newNFTDescriptor",
          "type": "address"
        }
      ],
      "name": "setNFTDescriptor",
      "outputs": [],
      "stateMutability": "nonpayable",
      "type": "function"
    },
    {
      "inputs": [
        {
          "internalType": "uint256",
          "name": "streamId",
          "type": "uint256"
        }
      ],
      "name": "statusOf",
      "outputs": [
        {
          "internalType": "enum Lockup.Status",
          "name": "status",
          "type": "uint8"
        }
      ],
      "stateMutability": "view",
      "type": "function"
    },
    {
      "inputs": [
        {
          "internalType": "uint256",
          "name": "streamId",
          "type": "uint256"
        }
      ],
      "name": "streamedAmountOf",
      "outputs": [
        {
          "internalType": "uint128",
          "name": "streamedAmount",
          "type": "uint128"
        }
      ],
      "stateMutability": "view",
      "type": "function"
    },
    {
      "inputs": [
        {
          "internalType": "bytes4",
          "name": "interfaceId",
          "type": "bytes4"
        }
      ],
      "name": "supportsInterface",
      "outputs": [
        {
          "internalType": "bool",
          "name": "",
          "type": "bool"
        }
      ],
      "stateMutability": "view",
      "type": "function"
    },
    {
      "inputs": [],
      "name": "symbol",
      "outputs": [
        {
          "internalType": "string",
          "name": "",
          "type": "string"
        }
      ],
      "stateMutability": "view",
      "type": "function"
    },
    {
      "inputs": [
        {
          "internalType": "uint256",
          "name": "streamId",
          "type": "uint256"
        }
      ],
      "name": "tokenURI",
      "outputs": [
        {
          "internalType": "string",
          "name": "uri",
          "type": "string"
        }
      ],
      "stateMutability": "view",
      "type": "function"
    },
    {
      "inputs": [
        {
          "internalType": "address",
          "name": "newAdmin",
          "type": "address"
        }
      ],
      "name": "transferAdmin",
      "outputs": [],
      "stateMutability": "nonpayable",
      "type": "function"
    },
    {
      "inputs": [
        {
          "internalType": "address",
          "name": "from",
          "type": "address"
        },
        {
          "internalType": "address",
          "name": "to",
          "type": "address"
        },
        {
          "internalType": "uint256",
          "name": "tokenId",
          "type": "uint256"
        }
      ],
      "name": "transferFrom",
      "outputs": [],
      "stateMutability": "nonpayable",
      "type": "function"
    },
    {
      "inputs": [
        {
          "internalType": "uint256",
          "name": "streamId",
          "type": "uint256"
        }
      ],
      "name": "wasCanceled",
      "outputs": [
        {
          "internalType": "bool",
          "name": "result",
          "type": "bool"
        }
      ],
      "stateMutability": "view",
      "type": "function"
    },
    {
      "inputs": [
        {
          "internalType": "uint256",
          "name": "streamId",
          "type": "uint256"
        },
        {
          "internalType": "address",
          "name": "to",
          "type": "address"
        },
        {
          "internalType": "uint128",
          "name": "amount",
          "type": "uint128"
        }
      ],
      "name": "withdraw",
      "outputs": [],
      "stateMutability": "nonpayable",
      "type": "function"
    },
    {
      "inputs": [
        {
          "internalType": "uint256",
          "name": "streamId",
          "type": "uint256"
        },
        {
          "internalType": "address",
          "name": "to",
          "type": "address"
        }
      ],
      "name": "withdrawMax",
      "outputs": [],
      "stateMutability": "nonpayable",
      "type": "function"
    },
    {
      "inputs": [
        {
          "internalType": "uint256",
          "name": "streamId",
          "type": "uint256"
        },
        {
          "internalType": "address",
          "name": "newRecipient",
          "type": "address"
        }
      ],
      "name": "withdrawMaxAndTransfer",
      "outputs": [],
      "stateMutability": "nonpayable",
      "type": "function"
    },
    {
      "inputs": [
        {
          "internalType": "uint256[]",
          "name": "streamIds",
          "type": "uint256[]"
        },
        {
          "internalType": "address",
          "name": "to",
          "type": "address"
        },
        {
          "internalType": "uint128[]",
          "name": "amounts",
          "type": "uint128[]"
        }
      ],
      "name": "withdrawMultiple",
      "outputs": [],
      "stateMutability": "nonpayable",
      "type": "function"
    },
    {
      "inputs": [
        {
          "internalType": "uint256",
          "name": "streamId",
          "type": "uint256"
        }
      ],
      "name": "withdrawableAmountOf",
      "outputs": [
        {
          "internalType": "uint128",
          "name": "withdrawableAmount",
          "type": "uint128"
        }
      ],
      "stateMutability": "view",
      "type": "function"
    }
  ],
  "bytecode": {
    "object": "0x60c0346200046e57601f62005ccb38819003918201601f19168301916001600160401b038311848410176200032b578084926080946040528339810103126200046e5780516001600160a01b038082169290918390036200046e5760208101518281168091036200046e5760408201519183831683036200046e5760600151936200008962000473565b90601d82527f5361626c696572205632204c6f636b75702044796e616d6963204e46540000006020830152620000be62000473565b601181527029a0a116ab1916a627a1a5aaa816a22ca760791b602082015230608052600080546001600160a01b03199081168417825560018054909116909517909455927fbdd36143ee09de60bdefca70680e0f71189b2ed7acee364b53917ad433fdaf808180a38051906001600160401b0382116200032b5760035490600182811c9216801562000463575b60208310146200044d5781601f849311620003d8575b50602090601f83116001146200034d5760009262000341575b50508160011b916000199060031b1c1916176003555b80516001600160401b0381116200032b576004918254600181811c9116801562000320575b60208210146200030b579081601f849311620002b3575b50602090601f831160011462000248576000926200023c575b50508160011b916000199060031b1c19161790555b1660018060a01b0319600a541617600a5560a0526001600955604051615837908162000494823960805181615243015260a05181818161122701526148170152f35b015190503880620001e5565b6000858152602081209350601f198516905b8181106200029a575090846001959493921062000280575b505050811b019055620001fa565b015160001960f88460031b161c1916905538808062000272565b929360206001819287860151815501950193016200025a565b909150836000526020600020601f840160051c8101916020851062000300575b90601f859493920160051c01905b818110620002f05750620001cc565b60008155849350600101620002e1565b9091508190620002d3565b602284634e487b7160e01b6000525260246000fd5b90607f1690620001b5565b634e487b7160e01b600052604160045260246000fd5b0151905038806200017a565b600360009081527fc2575a0e9e593c00f959f8c92f12db2869c3395a3b0502d05e2516446f71f85b9350601f198516905b818110620003bf5750908460019594939210620003a5575b505050811b0160035562000190565b015160001960f88460031b161c1916905538808062000396565b929360206001819287860151815501950193016200037e565b60036000529091507fc2575a0e9e593c00f959f8c92f12db2869c3395a3b0502d05e2516446f71f85b601f840160051c8101916020851062000442575b90601f859493920160051c01905b81811062000432575062000161565b6000815584935060010162000423565b909150819062000415565b634e487b7160e01b600052602260045260246000fd5b91607f16916200014b565b600080fd5b60408051919082016001600160401b038111838210176200032b5760405256fe608080604052600436101561001357600080fd5b60003560e01c90816301ffc9a7146129da5750806306fdde0314612917578063081812fc146128f9578063095ea7b3146127655780631400ecec146126c05780631c1cdd4c1461265a5780631e99d5691461263c57806321714be11461253f57806323b872dd1461251657806339a73c03146124d357806340e58ee514612132578063425d30dd1461211457806342842e0e146120c457806342966c6814611fd45780634857501f14611f5e5780634869e12d14611f225780635fe3b56714611efb5780636352211e14611ecc5780636d0cee7514611e7457806370a0823114611dca57806375829def14611d385780637cad6cd114611c665780637de6b1db14611a3d5780638659c270146115e5578063894e9a0d1461139c5780638bad38dd146113205780638f69b9931461129d5780639067b6771461124a5780639188ec841461120f57806395d89b4114611101578063a22cb46514611030578063a2ffb89714610f37578063a6202bf214610e2e578063a80fc07114610dd9578063ad35efd414610d76578063b637b86514610d16578063b88d4fde14610c8b578063b8a3be6614610c54578063b971302a14610c02578063bc063e1a14610bdf578063bc2be1be14610b8c578063bf061d0a1461091f578063c156a11d14610842578063c87b56dd1461070f578063cc364f4814610674578063d4dbd20b1461061f578063d511609f146105d0578063d975dfed14610583578063e985e9c51461052c578063ea5ead19146104e4578063eac8f5b814610478578063f590c17614610450578063f851a440146104295763fdd46d601461027157600080fd5b346104245760603660031901126104245760043561028d612b07565b604435906001600160801b038216808303610424576102aa615239565b6102b384613351565b61040c576102d784600052600b6020526001600160a01b0360406000205416331490565b15806103fc575b6103d95761030284600052600b6020526001600160a01b0360406000205416331490565b806103b5575b610388576001600160a01b0382161561035e5715610346579161033d6020926000805160206158178339815191529483615454565b604051908152a1005b6024836040519063d2aabcd960e01b82526004820152fd5b60046040517fc61a0e9e000000000000000000000000000000000000000000000000000000008152fd5b6064846001600160a01b038460405192632dcbf6b960e11b84526004840152336024840152166044820152fd5b508360005260056020526001600160a01b0380604060002054169083161415610308565b60405163216caf0d60e01b815260048101859052336024820152604490fd5b0390fd5b506104068461566e565b156102de565b60248460405190634a5541ef60e01b82526004820152fd5b600080fd5b346104245760003660031901126104245760206001600160a01b0360005416604051908152f35b3461042457602036600319011261042457602061046e6004356133a1565b6040519015158152f35b346104245760203660031901126104245760043580600052600b60205260ff60016040600020015460a81c16156104cd57600052600b60205260206001600160a01b0360016040600020015416604051908152f35b6024906040519062b8e7e760e51b82526004820152fd5b3461042457604036600319011261042457600080516020615817833981519152602060043561033d610514612b07565b61051d836152fb565b90610526615239565b83615333565b3461042457604036600319011261042457610545612af1565b61054d612b07565b906001600160a01b03809116600052600860205260406000209116600052602052602060ff604060002054166040519015158152f35b346104245760203660031901126104245760043580600052600b60205260ff60016040600020015460a81c16156104cd576105bf6020916152fb565b6001600160801b0360405191168152f35b346104245760203660031901126104245760043580600052600b60205260ff60016040600020015460a81c16156104cd57600052600b602052602060026040600020015460801c604051908152f35b346104245760203660031901126104245760043580600052600b60205260ff60016040600020015460a81c16156104cd57600052600b60205260206001600160801b0360036040600020015416604051908152f35b34610424576020366003190112610424576004356000602060405161069881612c34565b828152015280600052600b60205260ff60016040600020015460a81c16156104cd57600052600b602052604080600020548151906106d582612c34565b64ffffffffff90818160a01c16835260c81c16602082015261070d825180926020908164ffffffffff91828151168552015116910152565bf35b3461042457602080600319360112610424576004359061074d6107488360005260056020526001600160a01b0360406000205416151590565b612cd3565b60006001600160a01b03600a5416926044604051809581937fe9dc637500000000000000000000000000000000000000000000000000000000835230600484015260248301525afa918215610836576000926107bd575b506107b9604051928284938452830190612acc565b0390f35b9091503d806000833e6107d08183612c81565b81019082818303126104245780519067ffffffffffffffff8211610424570181601f8201121561042457805161080581612ca3565b926108136040519485612c81565b8184528482840101116104245761082f91848085019101612aa9565b90826107a4565b6040513d6000823e3d90fd5b346104245760403660031901126104245760043561085e612b07565b610866615239565b81600052600b60205260ff60016040600020015460a81c1615610908578160005260056020526001600160a01b03604060002054168033036108e9579161033d81602093600080516020615817833981519152956108c3836152fb565b6001600160801b0381166108d8575b50612f66565b6108e3908285615454565b876108d2565b60405163216caf0d60e01b815260048101849052336024820152604490fd5b6024826040519062b8e7e760e51b82526004820152fd5b3461042457602060031981813601126104245760043567ffffffffffffffff9182821161042457610100823603918201126104245761095c615239565b60e48201359060221901811215610424578101600481013590838211610424576024016060820236038113610424576109969136916133e4565b908151906109a382613258565b916109b16040519384612c81565b808352601f196109c082613258565b018660005b828110610b765750505064ffffffffff90814216956001600160801b0395866109ed82613545565b515116828a6109fb84613545565b5101511685806040610a0c86613545565b510151168b01169060405192610a2184612c18565b83528b8301526040820152610a3587613545565b52610a3f86613545565b5060019386855b898c878310610af5578c82856001600160a01b038d6084810135828116908190036104245760248201359485151580960361042457610aed96610ade94610a8f60448601613483565b610a9b86600401613483565b98610aa860648801613497565b93836040519b610ab78d612bfb565b168b528c8b015260408a015216606088015216608086015260a085015260a43691016134ab565b60c083015260e0820152614769565b604051908152f35b889385806040610b298b86610b198a8e9a610b10828d613568565b5151169a613568565b5101511694600019890190613568565b51015116816040610b3a888c613568565b5101511601169160405193610b4e85612c18565b84528301526040820152610b62828b613568565b52610b6d818a613568565b50018790610a46565b610b7e6132fe565b8282880101520187906109c5565b346104245760203660031901126104245760043580600052600b60205260ff60016040600020015460a81c16156104cd57600052600b602052602064ffffffffff60406000205460a01c16604051908152f35b3461042457600036600319011261042457602060405167016345785d8a00008152f35b346104245760203660031901126104245760043580600052600b60205260ff60016040600020015460a81c16156104cd57600052600b60205260206001600160a01b0360406000205416604051908152f35b3461042457602036600319011261042457600435600052600b602052602060ff60016040600020015460a81c166040519015158152f35b3461042457608036600319011261042457610ca4612af1565b610cac612b07565b6064359167ffffffffffffffff8311610424573660238401121561042457826004013591610cd983612ca3565b92610ce76040519485612c81565b8084523660248287010111610424576020816000926024610d149801838801378501015260443591612df1565b005b346104245760203660031901126104245760043580600052600b60205260ff60016040600020015460a81c16156104cd57600052600b6020526107b9610d626004604060002001613270565b604051918291602083526020830190612b97565b346104245760203660031901126104245760043580600052600b60205260ff60016040600020015460a81c16156104cd57610db09061466d565b6040516005821015610dc3576020918152f35b634e487b7160e01b600052602160045260246000fd5b346104245760203660031901126104245760043580600052600b60205260ff60016040600020015460a81c16156104cd57600052600b60205260206001600160801b0360026040600020015416604051908152f35b3461042457602036600319011261042457610e47612af1565b6001600160a01b038060005416338103610f0e57508116908160005260026020526001600160801b0360406000205416908115610edd5781610eaf9184600052600260205260406000206fffffffffffffffffffffffffffffffff1981541690553390615295565b6040519081527fca7a4a65a94ed2f37538814e00e1cd4c41a78261561e3f3794592f11409cf5af60203392a3005b602483604051907f8410168c0000000000000000000000000000000000000000000000000000000082526004820152fd5b6040516331b339a960e21b81526001600160a01b03919091166004820152336024820152604490fd5b346104245760603660031901126104245767ffffffffffffffff60043581811161042457610f69903690600401612b66565b610f71612b07565b9260443590811161042457610f8a903690600401612b66565b9190610f94615239565b828203610ff95760005b828110610fa757005b806000805160206158178339815191526020610fc6600194878a615323565b35610fec610fdd610fd8868b8a615323565b613497565b610fe5615239565b8b83615333565b604051908152a101610f9e565b50604491604051917faec9344000000000000000000000000000000000000000000000000000000000835260048301526024820152fd5b3461042457604036600319011261042457611049612af1565b60243590811515809203610424576001600160a01b0316908133146110bd57336000526008602052604060002082600052602052604060002060ff1981541660ff83161790556040519081527f17307eab39ab6107e8899845ad3d59bd9653f200f220920489ca2b5937696c3160203392a3005b606460405162461bcd60e51b815260206004820152601960248201527f4552433732313a20617070726f766520746f2063616c6c6572000000000000006044820152fd5b3461042457600036600319011261042457604051600060045490600182811c91818416918215611205575b60209485851084146111ef5785879486865291826000146111cf575050600114611172575b5061115e92500383612c81565b6107b9604051928284938452830190612acc565b84915060046000527f8a35acfbc15ff81a39ae7d344fd709f28e8600b4aa8c65c6b64bfe7fe36bd19b906000915b8583106111b757505061115e935082010185611151565b805483890185015287945086939092019181016111a0565b60ff19168582015261115e95151560051b85010192508791506111519050565b634e487b7160e01b600052602260045260246000fd5b92607f169261112c565b346104245760003660031901126104245760206040517f00000000000000000000000000000000000000000000000000000000000000008152f35b346104245760203660031901126104245760043580600052600b60205260ff60016040600020015460a81c16156104cd57600052600b602052602064ffffffffff60406000205460c81c16604051908152f35b346104245760203660031901126104245760043580600052600b60205260ff60016040600020015460a81c16156104cd576112d79061466d565b600581101580610dc35760028214908115611313575b8115611301575b6020826040519015158152f35b9050610dc357600460209114826112f4565b50506003811460006112ed565b34610424576020366003190112610424576004356001600160a01b0390818116809103610424578160005416338103610f0e575060015491816001600160a01b03198416176001556040519216825260208201527fdcb09aef4bf01068924ccce937981cbe59d25ba08380cf941aaaea4e4bd3960d60403392a2005b346104245760203660031901126104245760606101206040516113be81612c50565b60008152600060208201526000604082015260008382015260006080820152600060a0820152600060c0820152600060e08201526113fa6132fe565b6101008201520152600435600052600b60205260ff60016040600020015460a81c16156115cd57600435600052600b60205260406000206114cf60046040519261144384612c50565b80546001600160a01b038116855264ffffffffff8160a01c16602086015264ffffffffff8160c81c16604086015260ff8160f01c161515606086015260f81c1515608085015260ff60018201546001600160a01b03811660a0870152818160a01c16151560c087015260a81c16151560e08501526114c36002820161331d565b61010085015201613270565b6101208201526114e060043561466d565b906005821015610dc357600261012092146115c1575b6107b9604051928392602084526001600160a01b03815116602085015264ffffffffff602082015116604085015264ffffffffff60408201511660608501526060810151151560808501526080810151151560a08501526001600160a01b0360a08201511660c085015260c0810151151560e085015260e081015115156101008501526115ad61010082015183860190604090816001600160801b0391828151168552826020820151166020860152015116910152565b0151610180808401526101a0830190612b97565b600060608201526114f6565b602460405162b8e7e760e51b81526004356004820152fd5b34610424576020806003193601126104245760043567ffffffffffffffff811161042457611617903690600401612b66565b90611620615239565b6000915b80831061162d57005b611638838284615323565b3592611642615239565b61164b84613351565b156116685760248460405190634a5541ef60e01b82526004820152fd5b611674849293946133a1565b611a255761169882600052600b6020526001600160a01b0360406000205416331490565b1580611a05575b6119e6576116ac826134da565b82600052600b928387526116c6600260406000200161331d565b936001600160801b03928386511684821610156119ce578260005281895260ff60406000205460f01c16156119b6579061171582858b61170b819796838c5116613388565b9901511690613388565b93826000528184526040600020966003885498600160f81b7dffffffffffffffffffffffffffffffffffffffffffffffffffffffffffff8b161781558388161561199c575b0191811691826fffffffffffffffffffffffffffffffff198254161790556117a86001600160a01b03809916926005875289604060002054169487528360019a8b6040600020015416615295565b3382036118b957823b611815575b7f2971bd77136e1a620a6b1eb4ad5edd190e9fd391b26bfc5dea50b882fc6b9fd26000805160206158178339815191529685925b604080516001600160801b03928316815292909116602083015290a4604051908152a1019190611624565b9350813b15610424576040516372eba20360e01b8152600481018490526001600160a01b03821660248201526001600160801b03858116604483015286166064820152600080516020615817833981519152958b9585927f2971bd77136e1a620a6b1eb4ad5edd190e9fd391b26bfc5dea50b882fc6b9fd2929190600081608481838b5af16118aa575b5092509650506117b6565b6118b390612c6d565b8e61189f565b813b6118f8575b7f2971bd77136e1a620a6b1eb4ad5edd190e9fd391b26bfc5dea50b882fc6b9fd26000805160206158178339815191529685926117ea565b9350803b15610424576040516372eba20360e01b8152600481018490526001600160a01b03831660248201526001600160801b03858116604483015286166064820152600080516020615817833981519152958b9585927f2971bd77136e1a620a6b1eb4ad5edd190e9fd391b26bfc5dea50b882fc6b9fd2929190600081608481838a5af161198d575b5092509650506118c0565b61199690612c6d565b8e611982565b60018101600160a01b60ff60a01b1982541617905561175a565b602483604051906339c6dc7360e21b82526004820152fd5b602483604051906322cad1af60e11b82526004820152fd5b60405163216caf0d60e01b815260048101839052336024820152604490fd5b5081600052600585526001600160a01b036040600020541633141561169f565b6024826040519063fe19f19f60e01b82526004820152fd5b346104245760208060031936011261042457600435611a5a615239565b80600052600b825260ff60016040600020015460a81c16156104cd57611a7f8161466d565b916000926005811015610dc35760048103611aac5760248360405190634a5541ef60e01b82526004820152fd5b60038103611acc576024836040519063fe19f19f60e01b82526004820152fd5b916002849314611c4e57611af681600052600b6020526001600160a01b0360406000205416331490565b15611c2e5780600052600b825260ff60406000205460f01c1615611c165780600052600b8252604060002060ff60f01b198154169055600582526001600160a01b0360406000205416803b611b84575b50807f0eb069207093cd3e51cd1370d2d369770057fbe29947e577e5fb428c6c6fc78f8460008051602061581783398151915295a2604051908152a1005b803b15610424576000805160206158178339815191529360008084936024604051809481937f341a0bd90000000000000000000000000000000000000000000000000000000083528860048401525af1611be1575b509350611b46565b9050611bed9150612c6d565b8060007f0eb069207093cd3e51cd1370d2d369770057fbe29947e577e5fb428c6c6fc78f611bd9565b602490604051906339c6dc7360e21b82526004820152fd5b60405163216caf0d60e01b81526004810191909152336024820152604490fd5b602490604051906322cad1af60e11b82526004820152fd5b34610424576020366003190112610424576004356001600160a01b0390818116809103610424578160005416338103610f0e5750600a5491816001600160a01b0319841617600a556040519216825260208201527fa2548bd4b805e907c1558a47b5858324fe8bb4a2e1ddfca647eecbf65610eebc60403392a26009546000198101908111611d225760407f6bd5c950a8d8df17f772f5af37cb3655737899cbf903264b9795592da439661c91815190600182526020820152a1005b634e487b7160e01b600052601160045260246000fd5b3461042457602036600319011261042457611d51612af1565b6000546001600160a01b0380821692338403611da3576001600160a01b03199350169182911617600055337fbdd36143ee09de60bdefca70680e0f71189b2ed7acee364b53917ad433fdaf80600080a3005b6040516331b339a960e21b81526001600160a01b0385166004820152336024820152604490fd5b34610424576020366003190112610424576001600160a01b03611deb612af1565b168015611e0a5760005260066020526020604060002054604051908152f35b608460405162461bcd60e51b815260206004820152602960248201527f4552433732313a2061646472657373207a65726f206973206e6f74206120766160448201527f6c6964206f776e657200000000000000000000000000000000000000000000006064820152fd5b3461042457602036600319011261042457600435611eab6107488260005260056020526001600160a01b0360406000205416151590565b600052600560205260206001600160a01b0360406000205416604051908152f35b34610424576020366003190112610424576020611eea600435612d1e565b6001600160a01b0360405191168152f35b346104245760003660031901126104245760206001600160a01b0360015416604051908152f35b346104245760203660031901126104245760043580600052600b60205260ff60016040600020015460a81c16156104cd576105bf6020916146ee565b346104245760203660031901126104245760043580600052600b60205260ff60016040600020015460a81c16156104cd576000611f9a8261466d565b6005811015610dc357600203611fb8575b6020906040519015158152f35b50600052600b602052602060ff60406000205460f01c16611fab565b3461042457602036600319011261042457600435611ff0615239565b611ff981613351565b15612093576120078161566e565b15611c2e5761201581612d1e565b50600061202182612d1e565b82825260076020526001600160a01b0360408320916001600160a01b0319928381541690551690818352600660205260408320831981540190558383526005602052604083209081541690557fddf252ad1be2c89b69c2b068fc378daa952ba7f163c4a11628f55a4df523b3ef8280a4005b602490604051907f817cd6390000000000000000000000000000000000000000000000000000000082526004820152fd5b34610424576120d236612b31565b60405191602083019383851067ffffffffffffffff8611176120fe57610d149460405260008452612df1565b634e487b7160e01b600052604160045260246000fd5b3461042457602036600319011261042457602061046e600435613351565b34610424576020806003193601126104245760043590612150615239565b61215982613351565b156121765760248260405190634a5541ef60e01b82526004820152fd5b61217f826133a1565b611a25576121a382600052600b6020526001600160a01b0360406000205416331490565b15806124b3575b6119e6576121b7826134da565b9180600052600b82526121d0600260406000200161331d565b926001600160801b03908185511682821610156119ce5782600052600b845260ff60406000205460f01c16156119b65780828561221361221d94838a5116613388565b9701511690613388565b9082600052600b84526040600020916003835493600160f81b7dffffffffffffffffffffffffffffffffffffffffffffffffffffffffffff861617815583831615612499575b0191861691826fffffffffffffffffffffffffffffffff198254161790556122b16001600160a01b03809416926005875283856040600020541695600b895260016040600020015416615295565b3382036123b957823b612318575b7f2971bd77136e1a620a6b1eb4ad5edd190e9fd391b26bfc5dea50b882fc6b9fd28491600080516020615817833981519152975b604080516001600160801b03928316815292909116602083015290a4604051908152a1005b823b15610424576040516372eba20360e01b8152600481018590526001600160a01b03831660248201526001600160801b038781166044830152821660648201526000805160206158178339815191529685927f2971bd77136e1a620a6b1eb4ad5edd190e9fd391b26bfc5dea50b882fc6b9fd292909190600081608481838b5af16123aa575b5097509150506122bf565b6123b390612c6d565b8961239f565b813b6123f8575b7f2971bd77136e1a620a6b1eb4ad5edd190e9fd391b26bfc5dea50b882fc6b9fd28491600080516020615817833981519152976122f3565b813b15610424576040516372eba20360e01b8152600481018590526001600160a01b03841660248201526001600160801b038781166044830152821660648201526000805160206158178339815191529685927f2971bd77136e1a620a6b1eb4ad5edd190e9fd391b26bfc5dea50b882fc6b9fd292909190600081608481838a5af161248a575b5097509150506123c0565b61249390612c6d565b8961247f565b60018101600160a01b60ff60a01b19825416179055612263565b5081600052600581526001600160a01b03604060002054163314156121aa565b34610424576020366003190112610424576001600160a01b036124f4612af1565b16600052600260205260206001600160801b0360406000205416604051908152f35b3461042457610d1461252736612b31565b9161253a6125358433612e87565b612d80565b612f66565b3461042457600319602036820112610424576004359067ffffffffffffffff90818311610424576101209083360301126104245761257b615239565b6040519161258883612bfb565b61259481600401612b1d565b83526125a2602482016133d2565b6020840152604481013580151581036104245760408401526125c660648201612b1d565b60608401526125d760848201612cbf565b60808401526125e860a48201612b1d565b60a08401526125fa3660c483016134ab565b60c084015261010481013591821161042457013660238201121561042457602091612632610aed9236906024600482013591016133e4565b60e0820152614769565b34610424576000366003190112610424576020600954604051908152f35b346104245760203660031901126104245760043580600052600b60205260ff60016040600020015460a81c16156104cd576126949061466d565b6005811015610dc35780602091159081156126b5575b506040519015158152f35b6001915014826126aa565b346104245760203660031901126104245760043580600052600b60205260ff60016040600020015460a81c16156104cd5760209060009080600052600b8352604060002060ff815460f01c1680612753575b61272a575b50506001600160801b0360405191168152f35b61274c92506001600160801b03600261274692015416916134da565b90613388565b8280612717565b5060ff600182015460a01c1615612712565b346104245760403660031901126104245761277e612af1565b602435906001600160a01b03808061279585612d1e565b1692169180831461288f5780331490811561286a575b5015612800578260005260076020526040600020826001600160a01b03198254161790556127d883612d1e565b167f8c5be1e5ebec7d5bd14f71427d1e84f3dd0314c0f7b2291e5b200ac8c7c3b925600080a4005b608460405162461bcd60e51b815260206004820152603d60248201527f4552433732313a20617070726f76652063616c6c6572206973206e6f7420746f60448201527f6b656e206f776e6572206f7220617070726f76656420666f7220616c6c0000006064820152fd5b9050600052600860205260406000203360005260205260ff60406000205416846127ab565b608460405162461bcd60e51b815260206004820152602160248201527f4552433732313a20617070726f76616c20746f2063757272656e74206f776e6560448201527f72000000000000000000000000000000000000000000000000000000000000006064820152fd5b34610424576020366003190112610424576020611eea600435612d43565b3461042457600036600319011261042457604051600060035490600182811c918184169182156129d0575b60209485851084146111ef5785879486865291826000146111cf575050600114612973575061115e92500383612c81565b84915060036000527fc2575a0e9e593c00f959f8c92f12db2869c3395a3b0502d05e2516446f71f85b906000915b8583106129b857505061115e935082010185611151565b805483890185015287945086939092019181016129a1565b92607f1692612942565b3461042457602036600319011261042457600435907fffffffff00000000000000000000000000000000000000000000000000000000821680920361042457817f80ac58cd0000000000000000000000000000000000000000000000000000000060209314908115612a7f575b8115612a55575b5015158152f35b7f01ffc9a70000000000000000000000000000000000000000000000000000000091501483612a4e565b7f5b5e139f0000000000000000000000000000000000000000000000000000000081149150612a47565b60005b838110612abc5750506000910152565b8181015183820152602001612aac565b90602091612ae581518092818552858086019101612aa9565b601f01601f1916010190565b600435906001600160a01b038216820361042457565b602435906001600160a01b038216820361042457565b35906001600160a01b038216820361042457565b6060906003190112610424576001600160a01b0390600435828116810361042457916024359081168103610424579060443590565b9181601f840112156104245782359167ffffffffffffffff8311610424576020808501948460051b01011161042457565b90815180825260208080930193019160005b828110612bb7575050505090565b835180516001600160801b031686528083015167ffffffffffffffff168684015260409081015164ffffffffff169086015260609094019392810192600101612ba9565b610100810190811067ffffffffffffffff8211176120fe57604052565b6060810190811067ffffffffffffffff8211176120fe57604052565b6040810190811067ffffffffffffffff8211176120fe57604052565b610140810190811067ffffffffffffffff8211176120fe57604052565b67ffffffffffffffff81116120fe57604052565b90601f8019910116810190811067ffffffffffffffff8211176120fe57604052565b67ffffffffffffffff81116120fe57601f01601f191660200190565b35906001600160801b038216820361042457565b15612cda57565b606460405162461bcd60e51b815260206004820152601860248201527f4552433732313a20696e76616c696420746f6b656e20494400000000000000006044820152fd5b60005260056020526001600160a01b0360406000205416612d40811515612cd3565b90565b612d666107488260005260056020526001600160a01b0360406000205416151590565b60005260076020526001600160a01b036040600020541690565b15612d8757565b608460405162461bcd60e51b815260206004820152602d60248201527f4552433732313a2063616c6c6572206973206e6f7420746f6b656e206f776e6560448201527f72206f7220617070726f766564000000000000000000000000000000000000006064820152fd5b90612e15939291612e056125358433612e87565b612e10838383612f66565b6130bd565b15612e1c57565b60405162461bcd60e51b815260206004820152603260248201527f4552433732313a207472616e7366657220746f206e6f6e20455243373231526560448201527f63656976657220696d706c656d656e74657200000000000000000000000000006064820152608490fd5b906001600160a01b038080612e9b84612d1e565b16931691838314938415612ece575b508315612eb8575b50505090565b612ec491929350612d43565b1614388080612eb2565b909350600052600860205260406000208260005260205260ff604060002054169238612eaa565b15612efc57565b608460405162461bcd60e51b815260206004820152602560248201527f4552433732313a207472616e736665722066726f6d20696e636f72726563742060448201527f6f776e65720000000000000000000000000000000000000000000000000000006064820152fd5b90612f8e91612f7484612d1e565b916001600160a01b03938493848094169485911614612ef5565b169182156130245781612fab91612fa486612d1e565b1614612ef5565b7fddf252ad1be2c89b69c2b068fc378daa952ba7f163c4a11628f55a4df523b3ef60008481526007602052604081206001600160a01b03199081815416905583825260066020526040822060001981540190558482526040822060018154019055858252600560205284604083209182541617905580a4565b608460405162461bcd60e51b8152602060048201526024808201527f4552433732313a207472616e7366657220746f20746865207a65726f2061646460448201527f72657373000000000000000000000000000000000000000000000000000000006064820152fd5b3d156130b8573d9061309e82612ca3565b916130ac6040519384612c81565b82523d6000602084013e565b606090565b91926000929190813b1561324e5760209161312d91856040519586809581947f150b7a02000000000000000000000000000000000000000000000000000000009b8c84523360048501526001600160a01b0380951660248501526044840152608060648401526084830190612acc565b0393165af1908290826131e7575b50506131c15761314961308d565b805190816131bc5760405162461bcd60e51b815260206004820152603260248201527f4552433732313a207472616e7366657220746f206e6f6e20455243373231526560448201527f63656976657220696d706c656d656e74657200000000000000000000000000006064820152608490fd5b602001fd5b7fffffffff00000000000000000000000000000000000000000000000000000000161490565b909192506020813d8211613246575b8161320360209383612c81565b810103126132425751907fffffffff000000000000000000000000000000000000000000000000000000008216820361323f575090388061313b565b80fd5b5080fd5b3d91506131f6565b5050505050600190565b67ffffffffffffffff81116120fe5760051b60200190565b90815461327c81613258565b9260409361328c85519182612c81565b828152809460208092019260005281600020906000935b8585106132b257505050505050565b600184819284516132c281612c18565b64ffffffffff87546001600160801b038116835267ffffffffffffffff8160801c168584015260c01c16868201528152019301940193916132a3565b6040519061330b82612c18565b60006040838281528260208201520152565b9060405161332a81612c18565b6040819360018154916001600160801b0392838116865260801c6020860152015416910152565b80600052600b60205260ff60016040600020015460a81c16156104cd57600052600b60205260ff60016040600020015460a01c1690565b6001600160801b039182169082160391908211611d2257565b80600052600b60205260ff60016040600020015460a81c16156104cd57600052600b60205260406000205460f81c90565b359064ffffffffff8216820361042457565b9291926133f082613258565b6040946133ff86519283612c81565b8195848352602080930191606080960285019481861161042457925b85841061342b5750505050505050565b86848303126104245782519061344082612c18565b61344985612cbf565b8252858501359067ffffffffffffffff8216820361042457828792838b9501526134748688016133d2565b8682015281520193019261341b565b356001600160a01b03811681036104245790565b356001600160801b03811681036104245790565b9190826040910312610424576040516134c381612c34565b60208082946134d181612b1d565b84520135910152565b64ffffffffff80421682600052600b602052604060002091825482828260a01c16101561353b5760c81c16111561352957600401546001101561352057612d409061357c565b612d409061459e565b6001600160801b039150600201541690565b5050505050600090565b8051156135525760200190565b634e487b7160e01b600052603260045260246000fd5b80518210156135525760209160051b010190565b64ffffffffff90814216906000908152600b6020526040908181208251936135a385612c50565b8154956001600160a01b039182881687526020870197828160a01c168952828160c81c168789015260ff8160f01c161515606089015260f81c1515608088015260ff6001938486015490811660a08a0152818160a01c16151560c08a015260a81c16151560e088015261012061362f60046136206002880161331d565b966101008b0197885201613270565b9701918783528087613641889a613545565b5101511693828288965b16106137255750916136d56136da928488816136df98976001600160801b039e8f6136778b8a51613568565b5151169d8a8f9b602061369467ffffffffffffffff928d51613568565b510151169984836136a6848451613568565b5101511696508115613719576136c492935051906000190190613568565b5101511680925b0316920316613799565b613b08565b61396b565b9283136136f85750506136f2839161375d565b16011690565b5160200151929392831692841683101591506137149050575090565b905090565b505050511680926136cb565b8094986001600160801b03908161373d8c8851613568565b51511601169801938282808a613754898951613568565b5101511661364b565b600081126137685790565b602490604051907f2463f3d50000000000000000000000000000000000000000000000000000000082526004820152fd5b90600160ff1b808314908115613881575b5061385757600082121561384e576137d3826000035b600083121561384757826000039061388b565b917f7fffffffffffffffffffffffffffffffffffffffffffffffffffffffffffffff8311613811576000916000199118131561380d575090565b0390565b604491604051917fd49c26b300000000000000000000000000000000000000000000000000000000835260048301526024820152fd5b829061388b565b6137d3826137c0565b60046040517f9fe2b450000000000000000000000000000000000000000000000000000000008152fd5b90508114386137aa565b670de0b6b3a7640000916000198383099280830292838086109503948086039514613947578285101561390b57908291096001821901821680920460028082600302188083028203028083028203028083028203028083028203028083028203028092029003029360018380600003040190848311900302920304170290565b82606492604051927f63a05778000000000000000000000000000000000000000000000000000000008452600484015260248301526044820152fd5b505080925015613955570490565b634e487b7160e01b600052601260045260246000fd5b90600160ff1b808314908115613a4f575b50613a25576000821215613a1c576139a5826000035b6000831215613a15578260000390613a59565b917f7fffffffffffffffffffffffffffffffffffffffffffffffffffffffffffffff83116139df576000916000199118131561380d575090565b604491604051917f120b5b4300000000000000000000000000000000000000000000000000000000835260048301526024820152fd5b8290613a59565b6139a582613992565b60046040517fa6070c25000000000000000000000000000000000000000000000000000000008152fd5b905081143861397c565b90919060001983820983820291828083109203918083039214613af757670de0b6b3a76400009081831015613ac057947faccb18165bd6fe31ae1cf318dc5b51eee0e1ba569b88cd74c1773b91fac1066994950990828211900360ee1b910360121c170290565b60449086604051917f5173648d00000000000000000000000000000000000000000000000000000000835260048301526024820152fd5b5050670de0b6b3a764000090049150565b80613b225750600090612d405750670de0b6b3a764000090565b90670de0b6b3a7640000808314613b6f575080613b47575050670de0b6b3a764000090565b670de0b6b3a76400008114613b6b57613b66906136da612d4093614449565b613b8f565b5090565b91505090565b8015613955576ec097ce7bc90715b34b9f10000000000590565b6000811215613bc45768033dd1780914b97114198112613bbe57613bb590600003613b8f565b612d4090613b75565b50600090565b680a688906bd8affffff811361441857670de0b6b3a764000080604092831b05907780000000000000000000000000000000000000000000000067ff0000000000000083166142fb575b66ff00000000000083166141f3575b65ff000000000083166140f3575b64ff000000008316613ffb575b63ff0000008316613f0b575b62ff00008316613e23575b61ff008316613d43575b60ff8316613c6c575b02911c60bf031c90565b60808316613d31575b838316613d1f575b60208316613d0d575b60108316613cfb575b60088316613ce9575b60048316613cd7575b60028316613cc5575b6001831615613c62576801000000000000000102831c613c62565b6801000000000000000102831c613caa565b6801000000000000000302831c613ca1565b6801000000000000000602831c613c98565b6801000000000000000b02831c613c8f565b6801000000000000001602831c613c86565b6801000000000000002c02831c613c7d565b6801000000000000005902831c613c75565b6180008316613e11575b6140008316613dff575b6120008316613ded575b6110008316613ddb575b6108008316613dc9575b6104008316613db7575b6102008316613da5575b610100831615613c5957680100000000000000b102831c613c59565b6801000000000000016302831c613d89565b680100000000000002c602831c613d7f565b6801000000000000058c02831c613d75565b68010000000000000b1702831c613d6b565b6801000000000000162e02831c613d61565b68010000000000002c5d02831c613d57565b680100000000000058b902831c613d4d565b628000008316613ef9575b624000008316613ee7575b622000008316613ed5575b621000008316613ec3575b620800008316613eb1575b620400008316613e9f575b620200008316613e8d575b62010000831615613c4f576801000000000000b17202831c613c4f565b680100000000000162e402831c613e70565b6801000000000002c5c802831c613e65565b68010000000000058b9102831c613e5a565b680100000000000b172102831c613e4f565b68010000000000162e4302831c613e44565b680100000000002c5c8602831c613e39565b6801000000000058b90c02831c613e2e565b63800000008316613fe9575b63400000008316613fd7575b63200000008316613fc5575b63100000008316613fb3575b63080000008316613fa1575b63040000008316613f8f575b63020000008316613f7d575b6301000000831615613c445768010000000000b1721802831c613c44565b6801000000000162e43002831c613f5f565b68010000000002c5c86002831c613f53565b680100000000058b90c002831c613f47565b6801000000000b17217f02831c613f3b565b680100000000162e42ff02831c613f2f565b6801000000002c5c85fe02831c613f23565b68010000000058b90bfc02831c613f17565b64800000000083166140e1575b64400000000083166140cf575b64200000000083166140bd575b64100000000083166140ab575b6408000000008316614099575b6404000000008316614087575b6402000000008316614075575b640100000000831615613c3857680100000000b17217f802831c613c38565b68010000000162e42ff102831c614056565b680100000002c5c85fe302831c614049565b6801000000058b90bfce02831c61403c565b68010000000b17217fbb02831c61402f565b6801000000162e42fff002831c614022565b68010000002c5c8601cc02831c614015565b680100000058b90c0b4902831c614008565b6580000000000083166141e1575b6540000000000083166141cf575b6520000000000083166141bd575b6510000000000083166141ab575b650800000000008316614199575b650400000000008316614187575b650200000000008316614175575b65010000000000831615613c2b576801000000b17218355102831c613c2b565b680100000162e430e5a202831c614155565b6801000002c5c863b73f02831c614147565b68010000058b90cf1e6e02831c614139565b680100000b1721bcfc9a02831c61412b565b68010000162e43f4f83102831c61411d565b680100002c5c89d5ec6d02831c61410f565b6801000058b91b5bc9ae02831c614101565b668000000000000083166142e9575b664000000000000083166142d7575b662000000000000083166142c5575b661000000000000083166142b3575b660800000000000083166142a1575b6604000000000000831661428f575b6602000000000000831661427d575b6601000000000000831615613c1d5768010000b17255775c0402831c613c1d565b6801000162e525ee054702831c61425c565b68010002c5cc37da949202831c61424d565b680100058ba01fb9f96d02831c61423e565b6801000b175effdc76ba02831c61422f565b680100162f3904051fa102831c614220565b6801002c605e2e8cec5002831c614211565b68010058c86da1c09ea202831c614202565b67800000000000000083166143f9575b67400000000000000083166143e7575b67200000000000000083166143d5575b67100000000000000083166143c3575b67080000000000000083166143b1575b670400000000000000831661439f575b670200000000000000831661438d575b670100000000000000831615613c0e57680100b1afa5abcbed6102831c613c0e565b68010163da9fb33356d802831c61436b565b680102c9a3e778060ee702831c61435b565b6801059b0d31585743ae02831c61434b565b68010b5586cf9890f62a02831c61433b565b6801172b83c7d517adce02831c61432b565b6801306fe0a31b7152df02831c61431b565b5077b504f333f9de64848000000000000000000000000000000061430b565b602490604051907f0360d0280000000000000000000000000000000000000000000000000000000082526004820152fd5b8060008083131561456d57670de0b6b3a76400009283811261453657506001925b808305906001600160801b03821160071b91821c9167ffffffffffffffff831160061b92831c63ffffffff811160051b90811c61ffff811160041b90811c60ff811160031b90811c91600f831160021b92831c936001978860038711811b96871c11961717171717171781810294811d9082821461452a57506706f05b59d3b20000905b8482136144fe5750505050500290565b808391020590671bc16d674ec8000082121561451d575b831d906144ee565b8091950194831d90614515565b93505093925050020290565b6000199392508015614559576ec097ce7bc90715b34b9f1000000000059161446a565b602482634e487b7160e01b81526012600452fd5b602483604051907f059b101b0000000000000000000000000000000000000000000000000000000082526004820152fd5b6000818152600b6020526145d3604082205464ffffffffff808281809460a01c1693849160c81c160316918142160316613799565b91808252600b602052600460408320018054156146595790829167ffffffffffffffff935261462b6020832054828452600b6020526136da6001600160801b03968760026040882001541696879360801c1690613b08565b92831361464157505061463d9061375d565b1690565b60029350604092508152600b60205220015460801c90565b602483634e487b7160e01b81526032600452fd5b80600052600b602052604060002060ff600182015460a01c16600014614694575050600490565b805460f81c6146e7575460a01c64ffffffffff164210613bbe576146b7816134da565b90600052600b6020526001600160801b0380600260406000200154169116106000146146e257600190565b600290565b5050600390565b80600052600b602052614707600260406000200161331d565b81600052600b602052604060002060ff600182015460a01c1660001461473a57506001600160801b039150602001511690565b5460f81c61474c5750612d40906134da565b612d4091506001600160801b036040818351169201511690613388565b906001600160a01b036001541660206001600160a01b0360a0850151166024604051809481937fdcf844a700000000000000000000000000000000000000000000000000000000835260048301525afa801561083657600090614fa8575b6147ea91506001600160801b0360808501511690602060c08601510151916156d7565b6001600160801b0381511660e08401519064ffffffffff6020860151168115614f7e5782518015614f54577f00000000000000000000000000000000000000000000000000000000000000008111614f23575064ffffffffff604061484e85613545565b51015116811015614ecc5750600091829083815185905b808210614e39575050505064ffffffffff421664ffffffffff8216811015614df95750506001600160801b0382168103614db75750506009549283600052600b6020526040600020916001600160801b0381511660028401906fffffffffffffffffffffffffffffffff198254161790556001600160a01b0360a0830151166001840154750100000000000000000000000000000000000000000060408501511515927fffffffffffffffffffff00ff000000000000000000000000000000000000000087549316171760018601556001600160a01b038451169160e0850151926040614959855195600019870190613568565b510151927fff000000000000000000000000000000000000000000000000000000000000007eff0000000000000000000000000000000000000000000000000000000000007dffffffffff0000000000000000000000000000000000000000000000000078ffffffffff000000000000000000000000000000000000000060208b015160a01b169660c81b169460f01b16911617171717845560005b818110614ce8575050600185016009556001600160a01b0360a08301511660005260026020526001600160801b0380604060002054168160208401511601166001600160a01b0360a0840151166000526040600020906fffffffffffffffffffffffffffffffff198254161790556001600160a01b036060830151168015614ca4578590614aa2614a9c8360005260056020526001600160a01b0360406000205416151590565b15615156565b614ac5614a9c8360005260056020526001600160a01b0360406000205416151590565b8060005260066020526040600020600181540190558160005260056020526040600020816001600160a01b031982541617905560007fddf252ad1be2c89b69c2b068fc378daa952ba7f163c4a11628f55a4df523b3ef8180a4614b4e6001600160a01b0360a0840151166001600160801b03808451168160208601511601169030903390614fdc565b6001600160801b0360408201511680614c75575b507f5fdd2815acf0f9021ab8eb10cffdc5974c4521cd6d431e3b0d93f13ffe0059796001600160a01b0383511691866001600160a01b03606086015116946001600160a01b0360a08201511696614c6a614c4b60408401511515926001600160a01b0360c060e087015192549664ffffffffff60405198614be28a612c34565b818160a01c168a5260c81c1660208901520151511693614c3560405198899889523360208a01526040890190604090816001600160801b0391828151168552826020820151166020860152015116910152565b60a08701526101408060c0880152860190612b97565b9260e08501906020908164ffffffffff91828151168552015116910152565b6101208301520390a4565b614c9e906001600160a01b0360a0850151166001600160a01b0360c08601515116903390614fdc565b38614b62565b606460405162461bcd60e51b815260206004820152602060248201527f4552433732313a206d696e7420746f20746865207a65726f20616464726573736044820152fd5b614cf68160e0860151613568565b5190600486015491680100000000000000008310156120fe57600183018060048901558310156135525760019260048801600052602060002001906001600160801b03815116908254917fffffff00000000000000000000000000000000000000000000000000000000007cffffffffff000000000000000000000000000000000000000000000000604077ffffffffffffffff00000000000000000000000000000000602086015160801b1694015160c01b1693161717179055016149f5565b6040517fd90b7e390000000000000000000000000000000000000000000000000000000081526001600160801b03918216600482015291166024820152604490fd5b6040517f210aec0e00000000000000000000000000000000000000000000000000000000815264ffffffffff918216600482015291166024820152604490fd5b9193509194614e5d906001600160801b03614e548589613568565b51511690615439565b9464ffffffffff806040614e718685613568565b51015116941680851115614e8f575060018493019192919092614865565b8385606492604051927f7b0bada8000000000000000000000000000000000000000000000000000000008452600484015260248301526044820152fd5b64ffffffffff6040614edd85613545565b5101516040517fb4c9e52c00000000000000000000000000000000000000000000000000000000815264ffffffffff938416600482015291169091166024820152604490fd5b602490604051907f4757689b0000000000000000000000000000000000000000000000000000000082526004820152fd5b60046040517f3952c64e000000000000000000000000000000000000000000000000000000008152fd5b60046040517f6095d3bc000000000000000000000000000000000000000000000000000000008152fd5b6020823d602011614fd4575b81614fc160209383612c81565b8101031261323f57506147ea90516147c7565b3d9150614fb4565b9290604051927f23b872dd0000000000000000000000000000000000000000000000000000000060208501526001600160a01b03809216602485015216604483015260648201526064815260a081019181831067ffffffffffffffff8411176120fe5761504b9260405261504d565b565b6001600160a01b0316906150ad60405161506681612c34565b6020938482527f5361666545524332303a206c6f772d6c6576656c2063616c6c206661696c6564858301526000808587829751910182855af16150a761308d565b916151a1565b805191821591848315615132575b5050509050156150c85750565b6084906040519062461bcd60e51b82526004820152602a60248201527f5361666545524332303a204552433230206f7065726174696f6e20646964206e60448201527f6f742073756363656564000000000000000000000000000000000000000000006064820152fd5b9193818094500103126132425782015190811515820361323f5750803880846150bb565b1561515d57565b606460405162461bcd60e51b815260206004820152601c60248201527f4552433732313a20746f6b656e20616c7265616479206d696e746564000000006044820152fd5b9192901561520257508151156151b5575090565b3b156151be5790565b606460405162461bcd60e51b815260206004820152601d60248201527f416464726573733a2063616c6c20746f206e6f6e2d636f6e74726163740000006044820152fd5b8251909150156152155750805190602001fd5b6103f89060405191829162461bcd60e51b8352602060048401526024830190612acc565b6001600160a01b037f000000000000000000000000000000000000000000000000000000000000000016300361526b57565b60046040517fa1c0d6e5000000000000000000000000000000000000000000000000000000008152fd5b916001600160a01b03604051927fa9059cbb000000000000000000000000000000000000000000000000000000006020850152166024830152604482015260448152608081019181831067ffffffffffffffff8411176120fe5761504b9260405261504d565b612d4090615308816146ee565b90600052600b60205260026040600020015460801c90613388565b91908110156135525760051b0190565b92919061533f84613351565b61040c5761536384600052600b6020526001600160a01b0360406000205416331490565b1580615429575b6103d95761538e84600052600b6020526001600160a01b0360406000205416331490565b80615405575b6153d8576001600160a01b0381161561035e576001600160801b038216156153c05761504b9293615454565b6024846040519063d2aabcd960e01b82526004820152fd5b836001600160a01b0360649260405192632dcbf6b960e11b84526004840152336024840152166044820152fd5b508360005260056020526001600160a01b0380604060002054169082161415615394565b506154338461566e565b1561536a565b9190916001600160801b0380809416911601918211611d2257565b929190926001600160801b038061546a836152fb565b1692818116938085116156315750600095838752602092600b84526154cf61549d6040946002868c20015460801c615439565b868a52600b86526002858b200190836fffffffffffffffffffffffffffffffff1983549260801b16911617815561331d565b906154ea818684015116928286818351169201511690613388565b161115615602575b838752600b83526001600160a01b03916155158683856001858d20015416615295565b8488526005845282818920541680331415806155f8575b615561575b507ffa54f9f9bdcdd28778cbb9f78490df6691cc4e2729588e10f4cc0a26c465686a9495969750519586521693a3565b803b156155f45797807ffa54f9f9bdcdd28778cbb9f78490df6691cc4e2729588e10f4cc0a26c465686a9697989960848451809481937f13375c3b0000000000000000000000000000000000000000000000000000000083528c600484015233602484015289891660448401528d60648401525af16155e5575b8897969550615531565b6155ee90612c6d565b386155db565b8880fd5b50803b151561552c565b838752600b835281872060018101600160a01b60ff60a01b1982541617905560ff60f01b1981541690556154f2565b8360649186604051927fa1fb2bbc000000000000000000000000000000000000000000000000000000008452600484015260248301526044820152fd5b60009080825260056020526001600160a01b0380604084205416928333149384156156b3575b505082156156a157505090565b9091506156ae3392612d43565b161490565b60ff9294509060409181526008602052818120338252602052205416913880615694565b9092916156e26132fe565b936001600160801b03928381169182156157ee5767016345785d8a00008082116157b757808511615780575061572c8561571d819386613a59565b16946020890195865284613a59565b169184615743604089019480865282875116615439565b16101561576a5761575c84918261576595511690613388565b91511690613388565b168252565b634e487b7160e01b600052600160045260246000fd5b84604491604051917f4fea5c1a00000000000000000000000000000000000000000000000000000000835260048301526024820152fd5b60449250604051917f47152d6700000000000000000000000000000000000000000000000000000000835260048301526024820152fd5b5050505050905060405161580181612c18565b6000815260006020820152600060408201529056fef8e1a15aba9398e019f0b49df1a4fde98ee17ae345cb5f6b5e2c27f5033e8ce7",
    "linkReferences": {}
  },
  "methodIdentifiers": {
    "MAX_FEE()": "bc063e1a",
    "MAX_SEGMENT_COUNT()": "9188ec84",
    "admin()": "f851a440",
    "approve(address,uint256)": "095ea7b3",
    "balanceOf(address)": "70a08231",
    "burn(uint256)": "42966c68",
    "cancel(uint256)": "40e58ee5",
    "cancelMultiple(uint256[])": "8659c270",
    "claimProtocolRevenues(address)": "a6202bf2",
    "comptroller()": "5fe3b567",
    "createWithDeltas((address,bool,address,uint128,address,(address,uint256),(uint128,uint64,uint40)[]))": "bf061d0a",
    "createWithMilestones((address,uint40,bool,address,uint128,address,(address,uint256),(uint128,uint64,uint40)[]))": "21714be1",
    "getApproved(uint256)": "081812fc",
    "getAsset(uint256)": "eac8f5b8",
    "getDepositedAmount(uint256)": "a80fc071",
    "getEndTime(uint256)": "9067b677",
    "getRange(uint256)": "cc364f48",
    "getRecipient(uint256)": "6d0cee75",
    "getRefundedAmount(uint256)": "d4dbd20b",
    "getSegments(uint256)": "b637b865",
    "getSender(uint256)": "b971302a",
    "getStartTime(uint256)": "bc2be1be",
    "getStream(uint256)": "894e9a0d",
    "getWithdrawnAmount(uint256)": "d511609f",
    "isApprovedForAll(address,address)": "e985e9c5",
    "isCancelable(uint256)": "4857501f",
    "isCold(uint256)": "8f69b993",
    "isDepleted(uint256)": "425d30dd",
    "isStream(uint256)": "b8a3be66",
    "isWarm(uint256)": "1c1cdd4c",
    "name()": "06fdde03",
    "nextStreamId()": "1e99d569",
    "ownerOf(uint256)": "6352211e",
    "protocolRevenues(address)": "39a73c03",
    "refundableAmountOf(uint256)": "1400ecec",
    "renounce(uint256)": "7de6b1db",
    "safeTransferFrom(address,address,uint256)": "42842e0e",
    "safeTransferFrom(address,address,uint256,bytes)": "b88d4fde",
    "setApprovalForAll(address,bool)": "a22cb465",
    "setComptroller(address)": "8bad38dd",
    "setNFTDescriptor(address)": "7cad6cd1",
    "statusOf(uint256)": "ad35efd4",
    "streamedAmountOf(uint256)": "4869e12d",
    "supportsInterface(bytes4)": "01ffc9a7",
    "symbol()": "95d89b41",
    "tokenURI(uint256)": "c87b56dd",
    "transferAdmin(address)": "75829def",
    "transferFrom(address,address,uint256)": "23b872dd",
    "wasCanceled(uint256)": "f590c176",
    "withdraw(uint256,address,uint128)": "fdd46d60",
    "withdrawMax(uint256,address)": "ea5ead19",
    "withdrawMaxAndTransfer(uint256,address)": "c156a11d",
    "withdrawMultiple(uint256[],address,uint128[])": "a2ffb897",
    "withdrawableAmountOf(uint256)": "d975dfed"
  },
  "id": 74
}