{
  "abi": [
    {
      "inputs": [],
      "name": "CallNotDelegateCall",
      "type": "error"
    },
    {
      "inputs": [],
      "name": "SablierV2ProxyTarget_BatchSizeZero",
      "type": "error"
    },
    {
      "inputs": [
        {
          "internalType": "uint256",
          "name": "msgValue",
          "type": "uint256"
        },
        {
          "internalType": "uint256",
          "name": "creditAmount",
          "type": "uint256"
        }
      ],
      "name": "SablierV2ProxyTarget_CreditAmountMismatch",
      "type": "error"
    },
    {
      "inputs": [
        {
          "components": [
            {
              "internalType": "contract ISablierV2Lockup",
              "name": "lockup",
              "type": "address"
            },
            {
              "internalType": "uint256[]",
              "name": "streamIds",
              "type": "uint256[]"
            }
          ],
          "internalType": "struct Batch.CancelMultiple[]",
          "name": "batch",
          "type": "tuple[]"
        },
        {
          "internalType": "contract IERC20[]",
          "name": "assets",
          "type": "address[]"
        }
      ],
      "name": "batchCancelMultiple",
      "outputs": [],
      "stateMutability": "nonpayable",
      "type": "function"
    },
    {
      "inputs": [
        {
          "internalType": "contract ISablierV2LockupDynamic",
          "name": "dynamic",
          "type": "address"
        },
        {
          "internalType": "contract IERC20",
          "name": "asset",
          "type": "address"
        },
        {
          "components": [
            {
              "internalType": "address",
              "name": "sender",
              "type": "address"
            },
            {
              "internalType": "bool",
              "name": "cancelable",
              "type": "bool"
            },
            {
              "internalType": "bool",
              "name": "transferable",
              "type": "bool"
            },
            {
              "internalType": "address",
              "name": "recipient",
              "type": "address"
            },
            {
              "internalType": "uint128",
              "name": "totalAmount",
              "type": "uint128"
            },
            {
              "components": [
                {
                  "internalType": "address",
                  "name": "account",
                  "type": "address"
                },
                {
                  "internalType": "UD60x18",
                  "name": "fee",
                  "type": "uint256"
                }
              ],
              "internalType": "struct Broker",
              "name": "broker",
              "type": "tuple"
            },
            {
              "components": [
                {
                  "internalType": "uint128",
                  "name": "amount",
                  "type": "uint128"
                },
                {
                  "internalType": "UD2x18",
                  "name": "exponent",
                  "type": "uint64"
                },
                {
                  "internalType": "uint40",
                  "name": "delta",
                  "type": "uint40"
                }
              ],
              "internalType": "struct LockupDynamic.SegmentWithDelta[]",
              "name": "segments",
              "type": "tuple[]"
            }
          ],
          "internalType": "struct Batch.CreateWithDeltas[]",
          "name": "batch",
          "type": "tuple[]"
        },
        {
          "internalType": "bytes",
          "name": "transferData",
          "type": "bytes"
        }
      ],
      "name": "batchCreateWithDeltas",
      "outputs": [
        {
          "internalType": "uint256[]",
          "name": "streamIds",
          "type": "uint256[]"
        }
      ],
      "stateMutability": "nonpayable",
      "type": "function"
    },
    {
      "inputs": [
        {
          "internalType": "contract ISablierV2LockupLinear",
          "name": "lockupLinear",
          "type": "address"
        },
        {
          "internalType": "contract IERC20",
          "name": "asset",
          "type": "address"
        },
        {
          "components": [
            {
              "internalType": "address",
              "name": "sender",
              "type": "address"
            },
            {
              "internalType": "address",
              "name": "recipient",
              "type": "address"
            },
            {
              "internalType": "uint128",
              "name": "totalAmount",
              "type": "uint128"
            },
            {
              "internalType": "bool",
              "name": "cancelable",
              "type": "bool"
            },
            {
              "internalType": "bool",
              "name": "transferable",
              "type": "bool"
            },
            {
              "components": [
                {
                  "internalType": "uint40",
                  "name": "cliff",
                  "type": "uint40"
                },
                {
                  "internalType": "uint40",
                  "name": "total",
                  "type": "uint40"
                }
              ],
              "internalType": "struct LockupLinear.Durations",
              "name": "durations",
              "type": "tuple"
            },
            {
              "components": [
                {
                  "internalType": "address",
                  "name": "account",
                  "type": "address"
                },
                {
                  "internalType": "UD60x18",
                  "name": "fee",
                  "type": "uint256"
                }
              ],
              "internalType": "struct Broker",
              "name": "broker",
              "type": "tuple"
            }
          ],
          "internalType": "struct Batch.CreateWithDurations[]",
          "name": "batch",
          "type": "tuple[]"
        },
        {
          "internalType": "bytes",
          "name": "transferData",
          "type": "bytes"
        }
      ],
      "name": "batchCreateWithDurations",
      "outputs": [
        {
          "internalType": "uint256[]",
          "name": "streamIds",
          "type": "uint256[]"
        }
      ],
      "stateMutability": "nonpayable",
      "type": "function"
    },
    {
      "inputs": [
        {
          "internalType": "contract ISablierV2LockupDynamic",
          "name": "dynamic",
          "type": "address"
        },
        {
          "internalType": "contract IERC20",
          "name": "asset",
          "type": "address"
        },
        {
          "components": [
            {
              "internalType": "address",
              "name": "sender",
              "type": "address"
            },
            {
              "internalType": "uint40",
              "name": "startTime",
              "type": "uint40"
            },
            {
              "internalType": "bool",
              "name": "cancelable",
              "type": "bool"
            },
            {
              "internalType": "bool",
              "name": "transferable",
              "type": "bool"
            },
            {
              "internalType": "address",
              "name": "recipient",
              "type": "address"
            },
            {
              "internalType": "uint128",
              "name": "totalAmount",
              "type": "uint128"
            },
            {
              "components": [
                {
                  "internalType": "address",
                  "name": "account",
                  "type": "address"
                },
                {
                  "internalType": "UD60x18",
                  "name": "fee",
                  "type": "uint256"
                }
              ],
              "internalType": "struct Broker",
              "name": "broker",
              "type": "tuple"
            },
            {
              "components": [
                {
                  "internalType": "uint128",
                  "name": "amount",
                  "type": "uint128"
                },
                {
                  "internalType": "UD2x18",
                  "name": "exponent",
                  "type": "uint64"
                },
                {
                  "internalType": "uint40",
                  "name": "milestone",
                  "type": "uint40"
                }
              ],
              "internalType": "struct LockupDynamic.Segment[]",
              "name": "segments",
              "type": "tuple[]"
            }
          ],
          "internalType": "struct Batch.CreateWithMilestones[]",
          "name": "batch",
          "type": "tuple[]"
        },
        {
          "internalType": "bytes",
          "name": "transferData",
          "type": "bytes"
        }
      ],
      "name": "batchCreateWithMilestones",
      "outputs": [
        {
          "internalType": "uint256[]",
          "name": "streamIds",
          "type": "uint256[]"
        }
      ],
      "stateMutability": "nonpayable",
      "type": "function"
    },
    {
      "inputs": [
        {
          "internalType": "contract ISablierV2LockupLinear",
          "name": "lockupLinear",
          "type": "address"
        },
        {
          "internalType": "contract IERC20",
          "name": "asset",
          "type": "address"
        },
        {
          "components": [
            {
              "internalType": "address",
              "name": "sender",
              "type": "address"
            },
            {
              "internalType": "address",
              "name": "recipient",
              "type": "address"
            },
            {
              "internalType": "uint128",
              "name": "totalAmount",
              "type": "uint128"
            },
            {
              "internalType": "bool",
              "name": "cancelable",
              "type": "bool"
            },
            {
              "internalType": "bool",
              "name": "transferable",
              "type": "bool"
            },
            {
              "components": [
                {
                  "internalType": "uint40",
                  "name": "start",
                  "type": "uint40"
                },
                {
                  "internalType": "uint40",
                  "name": "cliff",
                  "type": "uint40"
                },
                {
                  "internalType": "uint40",
                  "name": "end",
                  "type": "uint40"
                }
              ],
              "internalType": "struct LockupLinear.Range",
              "name": "range",
              "type": "tuple"
            },
            {
              "components": [
                {
                  "internalType": "address",
                  "name": "account",
                  "type": "address"
                },
                {
                  "internalType": "UD60x18",
                  "name": "fee",
                  "type": "uint256"
                }
              ],
              "internalType": "struct Broker",
              "name": "broker",
              "type": "tuple"
            }
          ],
          "internalType": "struct Batch.CreateWithRange[]",
          "name": "batch",
          "type": "tuple[]"
        },
        {
          "internalType": "bytes",
          "name": "transferData",
          "type": "bytes"
        }
      ],
      "name": "batchCreateWithRange",
      "outputs": [
        {
          "internalType": "uint256[]",
          "name": "streamIds",
          "type": "uint256[]"
        }
      ],
      "stateMutability": "nonpayable",
      "type": "function"
    },
    {
      "inputs": [
        {
          "internalType": "contract ISablierV2Lockup",
          "name": "lockup",
          "type": "address"
        },
        {
          "internalType": "uint256",
          "name": "streamId",
          "type": "uint256"
        }
      ],
      "name": "burn",
      "outputs": [],
      "stateMutability": "nonpayable",
      "type": "function"
    },
    {
      "inputs": [
        {
          "internalType": "contract ISablierV2Lockup",
          "name": "lockup",
          "type": "address"
        },
        {
          "internalType": "uint256",
          "name": "streamId",
          "type": "uint256"
        }
      ],
      "name": "cancel",
      "outputs": [],
      "stateMutability": "nonpayable",
      "type": "function"
    },
    {
      "inputs": [
        {
          "internalType": "contract ISablierV2Lockup",
          "name": "lockup",
          "type": "address"
        },
        {
          "internalType": "uint256",
          "name": "streamId",
          "type": "uint256"
        },
        {
          "internalType": "contract ISablierV2LockupDynamic",
          "name": "dynamic",
          "type": "address"
        },
        {
          "components": [
            {
              "internalType": "address",
              "name": "sender",
              "type": "address"
            },
            {
              "internalType": "bool",
              "name": "cancelable",
              "type": "bool"
            },
            {
              "internalType": "bool",
              "name": "transferable",
              "type": "bool"
            },
            {
              "internalType": "address",
              "name": "recipient",
              "type": "address"
            },
            {
              "internalType": "uint128",
              "name": "totalAmount",
              "type": "uint128"
            },
            {
              "internalType": "contract IERC20",
              "name": "asset",
              "type": "address"
            },
            {
              "components": [
                {
                  "internalType": "address",
                  "name": "account",
                  "type": "address"
                },
                {
                  "internalType": "UD60x18",
                  "name": "fee",
                  "type": "uint256"
                }
              ],
              "internalType": "struct Broker",
              "name": "broker",
              "type": "tuple"
            },
            {
              "components": [
                {
                  "internalType": "uint128",
                  "name": "amount",
                  "type": "uint128"
                },
                {
                  "internalType": "UD2x18",
                  "name": "exponent",
                  "type": "uint64"
                },
                {
                  "internalType": "uint40",
                  "name": "delta",
                  "type": "uint40"
                }
              ],
              "internalType": "struct LockupDynamic.SegmentWithDelta[]",
              "name": "segments",
              "type": "tuple[]"
            }
          ],
          "internalType": "struct LockupDynamic.CreateWithDeltas",
          "name": "createParams",
          "type": "tuple"
        },
        {
          "internalType": "bytes",
          "name": "transferData",
          "type": "bytes"
        }
      ],
      "name": "cancelAndCreateWithDeltas",
      "outputs": [
        {
          "internalType": "uint256",
          "name": "newStreamId",
          "type": "uint256"
        }
      ],
      "stateMutability": "nonpayable",
      "type": "function"
    },
    {
      "inputs": [
        {
          "internalType": "contract ISablierV2Lockup",
          "name": "lockup",
          "type": "address"
        },
        {
          "internalType": "uint256",
          "name": "streamId",
          "type": "uint256"
        },
        {
          "internalType": "contract ISablierV2LockupLinear",
          "name": "lockupLinear",
          "type": "address"
        },
        {
          "components": [
            {
              "internalType": "address",
              "name": "sender",
              "type": "address"
            },
            {
              "internalType": "address",
              "name": "recipient",
              "type": "address"
            },
            {
              "internalType": "uint128",
              "name": "totalAmount",
              "type": "uint128"
            },
            {
              "internalType": "contract IERC20",
              "name": "asset",
              "type": "address"
            },
            {
              "internalType": "bool",
              "name": "cancelable",
              "type": "bool"
            },
            {
              "internalType": "bool",
              "name": "transferable",
              "type": "bool"
            },
            {
              "components": [
                {
                  "internalType": "uint40",
                  "name": "cliff",
                  "type": "uint40"
                },
                {
                  "internalType": "uint40",
                  "name": "total",
                  "type": "uint40"
                }
              ],
              "internalType": "struct LockupLinear.Durations",
              "name": "durations",
              "type": "tuple"
            },
            {
              "components": [
                {
                  "internalType": "address",
                  "name": "account",
                  "type": "address"
                },
                {
                  "internalType": "UD60x18",
                  "name": "fee",
                  "type": "uint256"
                }
              ],
              "internalType": "struct Broker",
              "name": "broker",
              "type": "tuple"
            }
          ],
          "internalType": "struct LockupLinear.CreateWithDurations",
          "name": "createParams",
          "type": "tuple"
        },
        {
          "internalType": "bytes",
          "name": "transferData",
          "type": "bytes"
        }
      ],
      "name": "cancelAndCreateWithDurations",
      "outputs": [
        {
          "internalType": "uint256",
          "name": "newStreamId",
          "type": "uint256"
        }
      ],
      "stateMutability": "nonpayable",
      "type": "function"
    },
    {
      "inputs": [
        {
          "internalType": "contract ISablierV2Lockup",
          "name": "lockup",
          "type": "address"
        },
        {
          "internalType": "uint256",
          "name": "streamId",
          "type": "uint256"
        },
        {
          "internalType": "contract ISablierV2LockupDynamic",
          "name": "dynamic",
          "type": "address"
        },
        {
          "components": [
            {
              "internalType": "address",
              "name": "sender",
              "type": "address"
            },
            {
              "internalType": "uint40",
              "name": "startTime",
              "type": "uint40"
            },
            {
              "internalType": "bool",
              "name": "cancelable",
              "type": "bool"
            },
            {
              "internalType": "bool",
              "name": "transferable",
              "type": "bool"
            },
            {
              "internalType": "address",
              "name": "recipient",
              "type": "address"
            },
            {
              "internalType": "uint128",
              "name": "totalAmount",
              "type": "uint128"
            },
            {
              "internalType": "contract IERC20",
              "name": "asset",
              "type": "address"
            },
            {
              "components": [
                {
                  "internalType": "address",
                  "name": "account",
                  "type": "address"
                },
                {
                  "internalType": "UD60x18",
                  "name": "fee",
                  "type": "uint256"
                }
              ],
              "internalType": "struct Broker",
              "name": "broker",
              "type": "tuple"
            },
            {
              "components": [
                {
                  "internalType": "uint128",
                  "name": "amount",
                  "type": "uint128"
                },
                {
                  "internalType": "UD2x18",
                  "name": "exponent",
                  "type": "uint64"
                },
                {
                  "internalType": "uint40",
                  "name": "milestone",
                  "type": "uint40"
                }
              ],
              "internalType": "struct LockupDynamic.Segment[]",
              "name": "segments",
              "type": "tuple[]"
            }
          ],
          "internalType": "struct LockupDynamic.CreateWithMilestones",
          "name": "createParams",
          "type": "tuple"
        },
        {
          "internalType": "bytes",
          "name": "transferData",
          "type": "bytes"
        }
      ],
      "name": "cancelAndCreateWithMilestones",
      "outputs": [
        {
          "internalType": "uint256",
          "name": "newStreamId",
          "type": "uint256"
        }
      ],
      "stateMutability": "nonpayable",
      "type": "function"
    },
    {
      "inputs": [
        {
          "internalType": "contract ISablierV2Lockup",
          "name": "lockup",
          "type": "address"
        },
        {
          "internalType": "uint256",
          "name": "streamId",
          "type": "uint256"
        },
        {
          "internalType": "contract ISablierV2LockupLinear",
          "name": "lockupLinear",
          "type": "address"
        },
        {
          "components": [
            {
              "internalType": "address",
              "name": "sender",
              "type": "address"
            },
            {
              "internalType": "address",
              "name": "recipient",
              "type": "address"
            },
            {
              "internalType": "uint128",
              "name": "totalAmount",
              "type": "uint128"
            },
            {
              "internalType": "contract IERC20",
              "name": "asset",
              "type": "address"
            },
            {
              "internalType": "bool",
              "name": "cancelable",
              "type": "bool"
            },
            {
              "internalType": "bool",
              "name": "transferable",
              "type": "bool"
            },
            {
              "components": [
                {
                  "internalType": "uint40",
                  "name": "start",
                  "type": "uint40"
                },
                {
                  "internalType": "uint40",
                  "name": "cliff",
                  "type": "uint40"
                },
                {
                  "internalType": "uint40",
                  "name": "end",
                  "type": "uint40"
                }
              ],
              "internalType": "struct LockupLinear.Range",
              "name": "range",
              "type": "tuple"
            },
            {
              "components": [
                {
                  "internalType": "address",
                  "name": "account",
                  "type": "address"
                },
                {
                  "internalType": "UD60x18",
                  "name": "fee",
                  "type": "uint256"
                }
              ],
              "internalType": "struct Broker",
              "name": "broker",
              "type": "tuple"
            }
          ],
          "internalType": "struct LockupLinear.CreateWithRange",
          "name": "createParams",
          "type": "tuple"
        },
        {
          "internalType": "bytes",
          "name": "transferData",
          "type": "bytes"
        }
      ],
      "name": "cancelAndCreateWithRange",
      "outputs": [
        {
          "internalType": "uint256",
          "name": "newStreamId",
          "type": "uint256"
        }
      ],
      "stateMutability": "nonpayable",
      "type": "function"
    },
    {
      "inputs": [
        {
          "internalType": "contract ISablierV2Lockup",
          "name": "lockup",
          "type": "address"
        },
        {
          "internalType": "contract IERC20[]",
          "name": "assets",
          "type": "address[]"
        },
        {
          "internalType": "uint256[]",
          "name": "streamIds",
          "type": "uint256[]"
        }
      ],
      "name": "cancelMultiple",
      "outputs": [],
      "stateMutability": "nonpayable",
      "type": "function"
    },
    {
      "inputs": [
        {
          "internalType": "contract ISablierV2LockupDynamic",
          "name": "dynamic",
          "type": "address"
        },
        {
          "components": [
            {
              "internalType": "address",
              "name": "sender",
              "type": "address"
            },
            {
              "internalType": "bool",
              "name": "cancelable",
              "type": "bool"
            },
            {
              "internalType": "bool",
              "name": "transferable",
              "type": "bool"
            },
            {
              "internalType": "address",
              "name": "recipient",
              "type": "address"
            },
            {
              "internalType": "uint128",
              "name": "totalAmount",
              "type": "uint128"
            },
            {
              "internalType": "contract IERC20",
              "name": "asset",
              "type": "address"
            },
            {
              "components": [
                {
                  "internalType": "address",
                  "name": "account",
                  "type": "address"
                },
                {
                  "internalType": "UD60x18",
                  "name": "fee",
                  "type": "uint256"
                }
              ],
              "internalType": "struct Broker",
              "name": "broker",
              "type": "tuple"
            },
            {
              "components": [
                {
                  "internalType": "uint128",
                  "name": "amount",
                  "type": "uint128"
                },
                {
                  "internalType": "UD2x18",
                  "name": "exponent",
                  "type": "uint64"
                },
                {
                  "internalType": "uint40",
                  "name": "delta",
                  "type": "uint40"
                }
              ],
              "internalType": "struct LockupDynamic.SegmentWithDelta[]",
              "name": "segments",
              "type": "tuple[]"
            }
          ],
          "internalType": "struct LockupDynamic.CreateWithDeltas",
          "name": "createParams",
          "type": "tuple"
        },
        {
          "internalType": "bytes",
          "name": "transferData",
          "type": "bytes"
        }
      ],
      "name": "createWithDeltas",
      "outputs": [
        {
          "internalType": "uint256",
          "name": "streamId",
          "type": "uint256"
        }
      ],
      "stateMutability": "nonpayable",
      "type": "function"
    },
    {
      "inputs": [
        {
          "internalType": "contract ISablierV2LockupLinear",
          "name": "lockupLinear",
          "type": "address"
        },
        {
          "components": [
            {
              "internalType": "address",
              "name": "sender",
              "type": "address"
            },
            {
              "internalType": "address",
              "name": "recipient",
              "type": "address"
            },
            {
              "internalType": "uint128",
              "name": "totalAmount",
              "type": "uint128"
            },
            {
              "internalType": "contract IERC20",
              "name": "asset",
              "type": "address"
            },
            {
              "internalType": "bool",
              "name": "cancelable",
              "type": "bool"
            },
            {
              "internalType": "bool",
              "name": "transferable",
              "type": "bool"
            },
            {
              "components": [
                {
                  "internalType": "uint40",
                  "name": "cliff",
                  "type": "uint40"
                },
                {
                  "internalType": "uint40",
                  "name": "total",
                  "type": "uint40"
                }
              ],
              "internalType": "struct LockupLinear.Durations",
              "name": "durations",
              "type": "tuple"
            },
            {
              "components": [
                {
                  "internalType": "address",
                  "name": "account",
                  "type": "address"
                },
                {
                  "internalType": "UD60x18",
                  "name": "fee",
                  "type": "uint256"
                }
              ],
              "internalType": "struct Broker",
              "name": "broker",
              "type": "tuple"
            }
          ],
          "internalType": "struct LockupLinear.CreateWithDurations",
          "name": "createParams",
          "type": "tuple"
        },
        {
          "internalType": "bytes",
          "name": "transferData",
          "type": "bytes"
        }
      ],
      "name": "createWithDurations",
      "outputs": [
        {
          "internalType": "uint256",
          "name": "streamId",
          "type": "uint256"
        }
      ],
      "stateMutability": "nonpayable",
      "type": "function"
    },
    {
      "inputs": [
        {
          "internalType": "contract ISablierV2LockupDynamic",
          "name": "dynamic",
          "type": "address"
        },
        {
          "components": [
            {
              "internalType": "address",
              "name": "sender",
              "type": "address"
            },
            {
              "internalType": "uint40",
              "name": "startTime",
              "type": "uint40"
            },
            {
              "internalType": "bool",
              "name": "cancelable",
              "type": "bool"
            },
            {
              "internalType": "bool",
              "name": "transferable",
              "type": "bool"
            },
            {
              "internalType": "address",
              "name": "recipient",
              "type": "address"
            },
            {
              "internalType": "uint128",
              "name": "totalAmount",
              "type": "uint128"
            },
            {
              "internalType": "contract IERC20",
              "name": "asset",
              "type": "address"
            },
            {
              "components": [
                {
                  "internalType": "address",
                  "name": "account",
                  "type": "address"
                },
                {
                  "internalType": "UD60x18",
                  "name": "fee",
                  "type": "uint256"
                }
              ],
              "internalType": "struct Broker",
              "name": "broker",
              "type": "tuple"
            },
            {
              "components": [
                {
                  "internalType": "uint128",
                  "name": "amount",
                  "type": "uint128"
                },
                {
                  "internalType": "UD2x18",
                  "name": "exponent",
                  "type": "uint64"
                },
                {
                  "internalType": "uint40",
                  "name": "milestone",
                  "type": "uint40"
                }
              ],
              "internalType": "struct LockupDynamic.Segment[]",
              "name": "segments",
              "type": "tuple[]"
            }
          ],
          "internalType": "struct LockupDynamic.CreateWithMilestones",
          "name": "createParams",
          "type": "tuple"
        },
        {
          "internalType": "bytes",
          "name": "transferData",
          "type": "bytes"
        }
      ],
      "name": "createWithMilestones",
      "outputs": [
        {
          "internalType": "uint256",
          "name": "streamId",
          "type": "uint256"
        }
      ],
      "stateMutability": "nonpayable",
      "type": "function"
    },
    {
      "inputs": [
        {
          "internalType": "contract ISablierV2LockupLinear",
          "name": "lockupLinear",
          "type": "address"
        },
        {
          "components": [
            {
              "internalType": "address",
              "name": "sender",
              "type": "address"
            },
            {
              "internalType": "address",
              "name": "recipient",
              "type": "address"
            },
            {
              "internalType": "uint128",
              "name": "totalAmount",
              "type": "uint128"
            },
            {
              "internalType": "contract IERC20",
              "name": "asset",
              "type": "address"
            },
            {
              "internalType": "bool",
              "name": "cancelable",
              "type": "bool"
            },
            {
              "internalType": "bool",
              "name": "transferable",
              "type": "bool"
            },
            {
              "components": [
                {
                  "internalType": "uint40",
                  "name": "start",
                  "type": "uint40"
                },
                {
                  "internalType": "uint40",
                  "name": "cliff",
                  "type": "uint40"
                },
                {
                  "internalType": "uint40",
                  "name": "end",
                  "type": "uint40"
                }
              ],
              "internalType": "struct LockupLinear.Range",
              "name": "range",
              "type": "tuple"
            },
            {
              "components": [
                {
                  "internalType": "address",
                  "name": "account",
                  "type": "address"
                },
                {
                  "internalType": "UD60x18",
                  "name": "fee",
                  "type": "uint256"
                }
              ],
              "internalType": "struct Broker",
              "name": "broker",
              "type": "tuple"
            }
          ],
          "internalType": "struct LockupLinear.CreateWithRange",
          "name": "createParams",
          "type": "tuple"
        },
        {
          "internalType": "bytes",
          "name": "transferData",
          "type": "bytes"
        }
      ],
      "name": "createWithRange",
      "outputs": [
        {
          "internalType": "uint256",
          "name": "streamId",
          "type": "uint256"
        }
      ],
      "stateMutability": "nonpayable",
      "type": "function"
    },
    {
      "inputs": [
        {
          "internalType": "contract ISablierV2Lockup",
          "name": "lockup",
          "type": "address"
        },
        {
          "internalType": "uint256",
          "name": "streamId",
          "type": "uint256"
        }
      ],
      "name": "renounce",
      "outputs": [],
      "stateMutability": "nonpayable",
      "type": "function"
    },
    {
      "inputs": [
        {
          "internalType": "contract ISablierV2Lockup",
          "name": "lockup",
          "type": "address"
        },
        {
          "internalType": "uint256",
          "name": "streamId",
          "type": "uint256"
        },
        {
          "internalType": "address",
          "name": "to",
          "type": "address"
        },
        {
          "internalType": "uint128",
          "name": "amount",
          "type": "uint128"
        }
      ],
      "name": "withdraw",
      "outputs": [],
      "stateMutability": "nonpayable",
      "type": "function"
    },
    {
      "inputs": [
        {
          "internalType": "contract ISablierV2Lockup",
          "name": "lockup",
          "type": "address"
        },
        {
          "internalType": "uint256",
          "name": "streamId",
          "type": "uint256"
        },
        {
          "internalType": "address",
          "name": "to",
          "type": "address"
        }
      ],
      "name": "withdrawMax",
      "outputs": [],
      "stateMutability": "nonpayable",
      "type": "function"
    },
    {
      "inputs": [
        {
          "internalType": "contract ISablierV2Lockup",
          "name": "lockup",
          "type": "address"
        },
        {
          "internalType": "uint256",
          "name": "streamId",
          "type": "uint256"
        },
        {
          "internalType": "address",
          "name": "newRecipient",
          "type": "address"
        }
      ],
      "name": "withdrawMaxAndTransfer",
      "outputs": [],
      "stateMutability": "nonpayable",
      "type": "function"
    },
    {
      "inputs": [
        {
          "internalType": "contract ISablierV2Lockup",
          "name": "lockup",
          "type": "address"
        },
        {
          "internalType": "uint256[]",
          "name": "streamIds",
          "type": "uint256[]"
        },
        {
          "internalType": "address",
          "name": "to",
          "type": "address"
        },
        {
          "internalType": "uint128[]",
          "name": "amounts",
          "type": "uint128[]"
        }
      ],
      "name": "withdrawMultiple",
      "outputs": [],
      "stateMutability": "nonpayable",
      "type": "function"
    },
    {
      "inputs": [
        {
          "internalType": "contract ISablierV2LockupDynamic",
          "name": "dynamic",
          "type": "address"
        },
        {
          "components": [
            {
              "internalType": "address",
              "name": "sender",
              "type": "address"
            },
            {
              "internalType": "bool",
              "name": "cancelable",
              "type": "bool"
            },
            {
              "internalType": "bool",
              "name": "transferable",
              "type": "bool"
            },
            {
              "internalType": "address",
              "name": "recipient",
              "type": "address"
            },
            {
              "internalType": "uint128",
              "name": "totalAmount",
              "type": "uint128"
            },
            {
              "internalType": "contract IERC20",
              "name": "asset",
              "type": "address"
            },
            {
              "components": [
                {
                  "internalType": "address",
                  "name": "account",
                  "type": "address"
                },
                {
                  "internalType": "UD60x18",
                  "name": "fee",
                  "type": "uint256"
                }
              ],
              "internalType": "struct Broker",
              "name": "broker",
              "type": "tuple"
            },
            {
              "components": [
                {
                  "internalType": "uint128",
                  "name": "amount",
                  "type": "uint128"
                },
                {
                  "internalType": "UD2x18",
                  "name": "exponent",
                  "type": "uint64"
                },
                {
                  "internalType": "uint40",
                  "name": "delta",
                  "type": "uint40"
                }
              ],
              "internalType": "struct LockupDynamic.SegmentWithDelta[]",
              "name": "segments",
              "type": "tuple[]"
            }
          ],
          "internalType": "struct LockupDynamic.CreateWithDeltas",
          "name": "createParams",
          "type": "tuple"
        }
      ],
      "name": "wrapAndCreateWithDeltas",
      "outputs": [
        {
          "internalType": "uint256",
          "name": "streamId",
          "type": "uint256"
        }
      ],
      "stateMutability": "payable",
      "type": "function"
    },
    {
      "inputs": [
        {
          "internalType": "contract ISablierV2LockupLinear",
          "name": "lockupLinear",
          "type": "address"
        },
        {
          "components": [
            {
              "internalType": "address",
              "name": "sender",
              "type": "address"
            },
            {
              "internalType": "address",
              "name": "recipient",
              "type": "address"
            },
            {
              "internalType": "uint128",
              "name": "totalAmount",
              "type": "uint128"
            },
            {
              "internalType": "contract IERC20",
              "name": "asset",
              "type": "address"
            },
            {
              "internalType": "bool",
              "name": "cancelable",
              "type": "bool"
            },
            {
              "internalType": "bool",
              "name": "transferable",
              "type": "bool"
            },
            {
              "components": [
                {
                  "internalType": "uint40",
                  "name": "cliff",
                  "type": "uint40"
                },
                {
                  "internalType": "uint40",
                  "name": "total",
                  "type": "uint40"
                }
              ],
              "internalType": "struct LockupLinear.Durations",
              "name": "durations",
              "type": "tuple"
            },
            {
              "components": [
                {
                  "internalType": "address",
                  "name": "account",
                  "type": "address"
                },
                {
                  "internalType": "UD60x18",
                  "name": "fee",
                  "type": "uint256"
                }
              ],
              "internalType": "struct Broker",
              "name": "broker",
              "type": "tuple"
            }
          ],
          "internalType": "struct LockupLinear.CreateWithDurations",
          "name": "createParams",
          "type": "tuple"
        }
      ],
      "name": "wrapAndCreateWithDurations",
      "outputs": [
        {
          "internalType": "uint256",
          "name": "streamId",
          "type": "uint256"
        }
      ],
      "stateMutability": "payable",
      "type": "function"
    },
    {
      "inputs": [
        {
          "internalType": "contract ISablierV2LockupDynamic",
          "name": "dynamic",
          "type": "address"
        },
        {
          "components": [
            {
              "internalType": "address",
              "name": "sender",
              "type": "address"
            },
            {
              "internalType": "uint40",
              "name": "startTime",
              "type": "uint40"
            },
            {
              "internalType": "bool",
              "name": "cancelable",
              "type": "bool"
            },
            {
              "internalType": "bool",
              "name": "transferable",
              "type": "bool"
            },
            {
              "internalType": "address",
              "name": "recipient",
              "type": "address"
            },
            {
              "internalType": "uint128",
              "name": "totalAmount",
              "type": "uint128"
            },
            {
              "internalType": "contract IERC20",
              "name": "asset",
              "type": "address"
            },
            {
              "components": [
                {
                  "internalType": "address",
                  "name": "account",
                  "type": "address"
                },
                {
                  "internalType": "UD60x18",
                  "name": "fee",
                  "type": "uint256"
                }
              ],
              "internalType": "struct Broker",
              "name": "broker",
              "type": "tuple"
            },
            {
              "components": [
                {
                  "internalType": "uint128",
                  "name": "amount",
                  "type": "uint128"
                },
                {
                  "internalType": "UD2x18",
                  "name": "exponent",
                  "type": "uint64"
                },
                {
                  "internalType": "uint40",
                  "name": "milestone",
                  "type": "uint40"
                }
              ],
              "internalType": "struct LockupDynamic.Segment[]",
              "name": "segments",
              "type": "tuple[]"
            }
          ],
          "internalType": "struct LockupDynamic.CreateWithMilestones",
          "name": "createParams",
          "type": "tuple"
        }
      ],
      "name": "wrapAndCreateWithMilestones",
      "outputs": [
        {
          "internalType": "uint256",
          "name": "streamId",
          "type": "uint256"
        }
      ],
      "stateMutability": "payable",
      "type": "function"
    },
    {
      "inputs": [
        {
          "internalType": "contract ISablierV2LockupLinear",
          "name": "lockupLinear",
          "type": "address"
        },
        {
          "components": [
            {
              "internalType": "address",
              "name": "sender",
              "type": "address"
            },
            {
              "internalType": "address",
              "name": "recipient",
              "type": "address"
            },
            {
              "internalType": "uint128",
              "name": "totalAmount",
              "type": "uint128"
            },
            {
              "internalType": "contract IERC20",
              "name": "asset",
              "type": "address"
            },
            {
              "internalType": "bool",
              "name": "cancelable",
              "type": "bool"
            },
            {
              "internalType": "bool",
              "name": "transferable",
              "type": "bool"
            },
            {
              "components": [
                {
                  "internalType": "uint40",
                  "name": "start",
                  "type": "uint40"
                },
                {
                  "internalType": "uint40",
                  "name": "cliff",
                  "type": "uint40"
                },
                {
                  "internalType": "uint40",
                  "name": "end",
                  "type": "uint40"
                }
              ],
              "internalType": "struct LockupLinear.Range",
              "name": "range",
              "type": "tuple"
            },
            {
              "components": [
                {
                  "internalType": "address",
                  "name": "account",
                  "type": "address"
                },
                {
                  "internalType": "UD60x18",
                  "name": "fee",
                  "type": "uint256"
                }
              ],
              "internalType": "struct Broker",
              "name": "broker",
              "type": "tuple"
            }
          ],
          "internalType": "struct LockupLinear.CreateWithRange",
          "name": "createParams",
          "type": "tuple"
        }
      ],
      "name": "wrapAndCreateWithRange",
      "outputs": [
        {
          "internalType": "uint256",
          "name": "streamId",
          "type": "uint256"
        }
      ],
      "stateMutability": "payable",
      "type": "function"
    }
  ],
  "bytecode": {
    "object": "0x60a08060405234610023573060805261429590816100298239608051816130450152f35b600080fdfe6080604052600436101561001257600080fd5b6000803560e01c806308b1834a146129445780630a3b8c77146128045780630d7fe8631461264b5780632104b57d1461235c5780632f5c822314611fd757806365092a7914611f6f5780636a09d49a14611e8257806379bcb2e314611b9b5780637d2085b0146119e957806386f2891e1461197157806391c68e99146115a957806398590ef9146113a75780639dc29fac1461132c578063a3143b76146112b3578063ad26c0fb14611228578063b76d0a58146111c0578063b82027bf14610f7e578063b956b45f14610ed3578063c44d5f7814610d08578063d4f880f814610b2a578063ec4ac9a7146108a1578063ed233b3414610622578063edc1e8a014610439578063f16306121461028a5763f2bf799e1461013057600080fd5b3461023c576003199060808236011261023c5761014b612b8a565b9167ffffffffffffffff6024358181116102865761016d903690600401612ebc565b929091610178612bb4565b9060643590811161028257610191903690600401612ebc565b92909661019c61303b565b6001600160a01b0380911694853b1561027e576101ef9060409995949951977fa2ffb897000000000000000000000000000000000000000000000000000000008952606060048a01526064890191612ffe565b9716602486015284870301604485015280865260208096019195855b82811061024a57868087818180890381838c5af1801561023f5761022c5750f35b61023590612bf8565b61023c5780f35b80fd5b6040513d84823e3d90fd5b90919282806001926fffffffffffffffffffffffffffffffff61026c8c612d4e565b1681520198019101969291909661020b565b8780fd5b8580fd5b8380fd5b503461023c57604060031936011261023c5767ffffffffffffffff600435818111610435576102bd903690600401612ebc565b916024918235828111610282576102d8903690600401612ebc565b9390926102e361303b565b851561040b5786906102f58686613ec7565b93825b88811061030e578361030b898989614014565b80f35b610319818a84612f8f565b356001600160a01b03811680910361040757610336828b85612f8f565b60209081810135907fffffffffffffffffffffffffffffffffffffffffffffffffffffffffffffffe18136030182121561027e570180359086821161027e578201928160051b3603841361027e57803b1561027e57888880946103cc604051978896879586947f8659c2700000000000000000000000000000000000000000000000000000000086526004860152840191612ffe565b03925af19081156103fc5785916103e8575b50506001016102f8565b6103f190612bf8565b6102865783386103de565b6040513d87823e3d90fd5b8480fd5b60046040517f71594532000000000000000000000000000000000000000000000000000000008152fd5b8280fd5b506003199060408236011261023c57610450612b8a565b916024359067ffffffffffffffff9081831161028657610140908336030112610435576040519061048082612c58565b61048c83600401612ba0565b825261049a60248401612ddd565b94602095868401526104ae60448501612d22565b60408401526104bf60648501612d22565b60608401526104d060848501612ba0565b60808401526104e160a48501612d4e565b9160a084019283526104f560c48601612ba0565b9460c0850195865261050a3660e48301612d81565b60e086015261012481013591821161061e57013660238201121561028257926105916105c6938796936105488a973690602460048201359101612def565b61010085015261055661303b565b6fffffffffffffffffffffffffffffffff9081341683526001600160a01b038091610583828951166140f3565b169551169151169084613ce5565b6040519485809481937fc33cd35e000000000000000000000000000000000000000000000000000000008352600483016137fb565b03925af191821561061257916105e0575b50604051908152f35b90508181813d831161060b575b6105f78183612cad565b810103126106065751386105d7565b600080fd5b503d6105ed565b604051903d90823e3d90fd5b8680fd5b503461023c5760031960a08136011261089d5761063d612b8a565b916024359161064a612bb4565b916064359167ffffffffffffffff908184116104355761012090843603011261089d5760843590811161089d57610685903690600401612bca565b505061068f61303b565b61069761303b565b6001600160a01b0380951690604051947feac8f5b80000000000000000000000000000000000000000000000000000000086528060048701526020968787602481875afa96871561089257839761085a575b50861690604051937f70a0823100000000000000000000000000000000000000000000000000000000918286523060048701528986602481875afa9586156103fc57859661082b575b50813b156104075784916024839260405194859384927f40e58ee500000000000000000000000000000000000000000000000000000000845260048401525af18015610820578992918591610807575b505060246040518094819382523060048301525afa91821561061257916107d6575b50936107b66107c5926107ce96613097565b906107bf613f95565b906130d3565b60040190613921565b604051908152f35b9490508585813d8311610800575b6107ee8183612cad565b810103126106065793516107b66107a4565b503d6107e4565b61081391929350612bf8565b6104355787908338610782565b6040513d86823e3d90fd5b9095508981813d8311610853575b6108438183612cad565b8101031261060657519438610732565b503d610839565b9096508781813d831161088b575b6108728183612cad565b81010312610435575186811681036104355795386106e9565b503d610868565b6040513d85823e3d90fd5b5080fd5b503461023c576108b036612f21565b50509190926108bd61303b565b821561040b5784855b848110610af357506001600160a01b036108eb9116836001600160a01b038416613ce5565b6108f483613408565b93855b848110610910576040518061090c8882612e81565b0390f35b60c061091d8287856137bb565b0190610935604061092f8389876137bb565b01613457565b61094b6080610945848a886137bb565b01613464565b610964610959848a886137bb565b610100810190613655565b9190610979610974868c8a6137bb565b613464565b926020610987878d8b6137bb565b01359264ffffffffff84168403610aef57610a80976fffffffffffffffffffffffffffffffff8a6001600160a01b038f94819960209b64ffffffffff610a479b8f606061092f828d6109ed610a3b9f6109e76109f3978f9260a0936137bb565b016133eb565b9b6137bb565b936040519e8f91610a0383612c58565b169052168d8d0152151560408c0152151560608b01521660808901521660a08701526001600160a01b038c1660c08701523690612d81565b60e08501523691612def565b610100820152604051809481927fc33cd35e000000000000000000000000000000000000000000000000000000008352600483016137fb565b03818b6001600160a01b0389165af18015610ae4578890610ab1575b60019250610aaa828961351e565b52016108f7565b506020823d602011610adc575b81610acb60209383612cad565b810103126106065760019151610a9c565b3d9150610abe565b6040513d8a823e3d90fd5b8d80fd5b906001600160a01b036001916fffffffffffffffffffffffffffffffff610b2060a06109e7878b8d6137bb565b16011691016108c6565b503461023c5761018060031936011261023c57610b45612b8a565b906101407fffffffffffffffffffffffffffffffffffffffffffffffffffffffffffffffdc36011261023c57610164359067ffffffffffffffff821161023c5750610b94903690600401612bca565b5050610b9e61303b565b608435906001600160a01b0390811682821680840361060657606435936fffffffffffffffffffffffffffffffff85168095036106065784610be09184613ce5565b604051937fab167ccc0000000000000000000000000000000000000000000000000000000085526024358481168091036106065760048601526044358481168091036106065760248601526044850152606484015260a43580151580910361060657608484015260c4358015158091036106065760a484015260e4359164ffffffffff928381168091036106065760c48501526101049283359081168091036106065760e485015261012490813590811680910361060657600085938492602096840152610144938435908401525af1908115610cfc57600091610cca575b602082604051908152f35b6020813d8211610cf4575b81610ce260209383612cad565b8101031261089d575190506020610cbf565b3d9150610cd5565b6040513d6000823e3d90fd5b5061016060031936011261023c57610d1e612b8a565b906101407fffffffffffffffffffffffffffffffffffffffffffffffffffffffffffffffdc36011261023c5760405191610d5783612c3b565b610d5f612cee565b8352610d69612bb4565b9260209384820152610d79612d2f565b9060408101918252610d89612d6b565b60608201908152610d98612d04565b6080830152610da5612d13565b60a083015260407fffffffffffffffffffffffffffffffffffffffffffffffffffffffffffffff1c36011261060657604051610de081612c75565b64ffffffffff60e4358181168103610606578252610104359081168103610606578782015260c083015260407ffffffffffffffffffffffffffffffffffffffffffffffffffffffffffffffedc3601126106065760405191610e4183612c75565b610124356001600160a01b03948582168203610606578796899686610e9e946105c69852610144358982015260e0860152610e7a61303b565b806fffffffffffffffffffffffffffffffff928334168552610583828951166140f3565b6040519485809481937fab167ccc00000000000000000000000000000000000000000000000000000000835260048301613478565b503461023c57608060031936011261023c5780610eee612b8a565b610ef6612bb4565b610efe612d2f565b91610f0761303b565b6001600160a01b03809116803b15610407578492836064926fffffffffffffffffffffffffffffffff60405197889687957ffdd46d6000000000000000000000000000000000000000000000000000000000875260243560048801521660248601521660448401525af1801561023f5761022c5750f35b503461023c57610f8d36612f21565b50509291610f9961303b565b831561040b578490855b8581106111895750610fc36001600160a01b038080961693168284613ce5565b610fcc85613408565b94865b818110610fe4576040518061090c8982612e81565b610fef818387613615565b60a001908583611000838284613615565b60200161100c90613457565b93818a61101a868387613615565b60600161102690613464565b86611032818589613615565b60e0810161103f91613655565b9661104b929198613615565b61105490613464565b978c88611062818784613615565b60800161106e906133eb565b9561107892613615565b60400161108490613457565b90836040519a6110938c612c3b565b168a52151560208a0152151560408901521660608701526fffffffffffffffffffffffffffffffff16608086015289871660a0860152366110d391612d81565b60c085015236906110e392612def565b60e0830152846040518080947f168444560000000000000000000000000000000000000000000000000000000082526004820190611120916136a9565b03818c5a94602095f1801561117e57899061114b575b60019250611144828a61351e565b5201610fcf565b506020823d602011611176575b8161116560209383612cad565b810103126106065760019151611136565b3d9150611158565b6040513d8b823e3d90fd5b916001600160a01b036001916fffffffffffffffffffffffffffffffff6111b660806109e7888c8b613615565b1601169201610fa3565b503461023c576003199060608236011261023c576111dc612b8a565b916024359167ffffffffffffffff9182841161089d5761014090843603011261023c5760443591821161023c5760206107ce858561121d3660048801612bca565b505060040190613b63565b503461023c57806001600160a01b0361124036612eed565b92909161124b61303b565b1691823b156112ae576040517fc156a11d00000000000000000000000000000000000000000000000000000000815260048101929092526001600160a01b031660248201529082908290818381604481015b03925af1801561023f5761022c5750f35b505050fd5b503461023c57806001600160a01b036112cb36612eed565b9290916112d661303b565b1691823b156112ae576040517fea5ead1900000000000000000000000000000000000000000000000000000000815260048101929092526001600160a01b0316602482015290829082908183816044810161129d565b503461023c57604060031936011261023c57806001600160a01b0361134f612b8a565b61135761303b565b16803b156113a4578180916024604051809481937f42966c68000000000000000000000000000000000000000000000000000000008352833560048401525af1801561023f5761022c5750f35b50fd5b503461023c57604060031936011261023c576113c1612b8a565b6024356113cc61303b565b6001600160a01b0380921691604051917feac8f5b8000000000000000000000000000000000000000000000000000000008352806004840152846020928385602481895afa94851561023f578295611571575b50841691604051957f70a0823100000000000000000000000000000000000000000000000000000000918288523060048901528588602481885afa97881561082057849861153e575b50813b156102865783916024839260405196879384927f40e58ee500000000000000000000000000000000000000000000000000000000845260048401525af1928315611531578593611518575b505060246040518094819382523060048301525afa9182156103fc5785926114e8575b505061030b926107b691613097565b90809250813d8311611511575b6114ff8183612cad565b810103126106065751826107b66114d9565b503d6114f5565b61152491929350612bf8565b61028257829086386114b6565b50604051903d90823e3d90fd5b86809299508195503d831161156a575b6115588183612cad565b81010312610606578792519638611468565b503d61154e565b9094508381813d83116115a2575b6115898183612cad565b8101031261089d5751848116810361089d57933861141f565b503d61157f565b503461023c576101e060031936011261023c576115c4612b8a565b60248035916115d1612bb4565b6101607fffffffffffffffffffffffffffffffffffffffffffffffffffffffffffffff9c360112610407576101c43567ffffffffffffffff81116102825761161d903690600401612bca565b505061162761303b565b61162f61303b565b6001600160a01b03809216604051907feac8f5b800000000000000000000000000000000000000000000000000000000825285600483015260209586838781855afa928315610ae4578893611939575b508785841691604051937f70a0823100000000000000000000000000000000000000000000000000000000918286523060048701528a868b81885afa958615610820578496611906575b50813b156102865783918a839260405196879384927f40e58ee500000000000000000000000000000000000000000000000000000000845260048401525af1928315611531578a936118e9575b5050876040518094819382523060048301525afa908115610ae45785969798916118b1575b5061174a92916107b691613097565b61175261303b565b169060c435818116908181036106065760a435906fffffffffffffffffffffffffffffffff8216809203610606578161178b9186613ce5565b604051947f96ce143100000000000000000000000000000000000000000000000000000000865260643584811680910361060657600487015260843590848216809203610606578601526044850152606484015260e43580151580910361060657608484015261010480358015158091036106065760a485015264ffffffffff916101248035848116908190036106065760c48701526101449384358181168091036106065760e48801526101649384359182168092036106065787015261018435918216809203610606578694869485936000938501526101a435908401525af1908115610cfc576000916118845750604051908152f35b908282813d83116118aa575b61189a8183612cad565b8101031261023c575051386105d7565b503d611890565b9450909190508684813d81116118e2575b6118cc8183612cad565b810103126106065792518493919061174a61173b565b503d6118c2565b6118f591929350612bf8565b6119025787908938611716565b8880fd5b8b809297508195503d8311611932575b6119208183612cad565b81010312610606578a925194386116c9565b503d611916565b9092508681813d831161196a575b6119518183612cad565b8101031261027e5751848116810361027e57913861167f565b503d611947565b503461023c57604060031936011261023c57806001600160a01b03611994612b8a565b61199c61303b565b16803b156113a4578180916024604051809481937f7de6b1db000000000000000000000000000000000000000000000000000000008352833560048401525af1801561023f5761022c5750f35b503461023c576101a060031936011261023c57611a04612b8a565b906101607fffffffffffffffffffffffffffffffffffffffffffffffffffffffffffffffdc36011261023c57610184359067ffffffffffffffff821161023c5750611a53903690600401612bca565b5050611a5d61303b565b608435906001600160a01b0390811682821680840361060657606435936fffffffffffffffffffffffffffffffff85168095036106065784611a9f9184613ce5565b604051937f96ce14310000000000000000000000000000000000000000000000000000000085526024358481168091036106065760048601526044358481168091036106065760248601526044850152606484015260a43580151580910361060657608484015260c4358015158091036106065760a484015260e4359164ffffffffff928381168091036106065760c48501526101049283358181168091036106065760e48601526101249384359182168092036106065785015261014490813590811680910361060657600085938492602096840152610164938435908401525af1908115610cfc57600091610cca57602082604051908152f35b503461023c576080908160031936011261023c57611bb7612b8a565b90611bc0612cee565b60443567ffffffffffffffff938482116102865736602383011215610286578160040135948086116104075760248301926024369161012089020101116104075760643590811161040757611c19903690600401612bca565b5050611c2361303b565b841561040b57929384939092845b848110611e455750611c516001600160a01b038080941697168288613ce5565b611c5a84613408565b9582869216915b858110611c76576040518061090c8a82612e81565b611c818187876133da565b60e00190606080611c93838a8a6133da565b01611c9d90613457565b9287898d611cac8683856133da565b968960209687611cbd8a87896133da565b01611cc790613464565b948d85611cd58c848b6133da565b611cde90613464565b988c611ceb8186846133da565b604001611cf7906133eb565b94611d01926133da565b01611d0b90613457565b968160405199611d1a8b612c3b565b16895216898801526fffffffffffffffffffffffffffffffff166040870152850152151590830152151560a08201528436037fffffffffffffffffffffffffffffffffffffffffffffffffffffffffffffff600160401361060657611db48392611dec9660405190611d8b82612c75565b611d9760a08201612ddd565b8252611da660c0809201612ddd565b868301528401523690612d81565b60e0820152604051809581927fab167ccc00000000000000000000000000000000000000000000000000000000835260048301613478565b03818c885af190811561117e578991611e16575b5060019250611e0f828b61351e565b5201611c61565b905082813d8311611e3e575b611e2c8183612cad565b81010312610606576001915138611e00565b503d611e22565b956001600160a01b036001916fffffffffffffffffffffffffffffffff611e7560406109e78c8b8b9c999c6133da565b1601169601939093611c31565b503461023c57606060031936011261023c57611e9c612b8a565b8167ffffffffffffffff60243581811161043557611ebe903690600401612ebc565b92909160443590811161089d57611ed9903690600401612ebc565b611ee161303b565b6001600160a01b03611ef38686613ec7565b961691823b1561028657611f41928492836040518096819582947f8659c270000000000000000000000000000000000000000000000000000000008452602060048501526024840191612ffe565b03925af1801561023f57611f5b575b505061030b92614014565b611f6490612bf8565b610286578338611f50565b503461023c576003199060608236011261023c57611f8b612b8a565b916024359167ffffffffffffffff9182841161089d5761012090843603011261023c5760443591821161023c5760206107ce8585611fcc3660048801612bca565b505060040190613921565b503461023c576101c060031936011261023c57611ff2612b8a565b6024803591611fff612bb4565b6101407fffffffffffffffffffffffffffffffffffffffffffffffffffffffffffffff9c360112610407576101a43567ffffffffffffffff81116102825761204b903690600401612bca565b505061205561303b565b61205d61303b565b6001600160a01b03809216604051907feac8f5b800000000000000000000000000000000000000000000000000000000825285600483015260209586838781855afa928315610ae4578893612324575b508785841691604051937f70a0823100000000000000000000000000000000000000000000000000000000918286523060048701528a868b81885afa9586156108205784966122f1575b50813b156102865783918a839260405196879384927f40e58ee500000000000000000000000000000000000000000000000000000000845260048401525af1928315611531578a936122d8575b5050876040518094819382523060048301525afa908115610ae45785969798916122a0575b5061217892916107b691613097565b61218061303b565b169060c435818116908181036106065760a435906fffffffffffffffffffffffffffffffff821680920361060657816121b99186613ce5565b604051947fab167ccc00000000000000000000000000000000000000000000000000000000865260643584811680910361060657600487015260843590848216809203610606578601526044850152606484015260e43580151580910361060657608484015261010480358015158091036106065760a48501526101249182359164ffffffffff928381168091036106065760c48701526101449283359081168091036106065760e4870152610164359182168092036106065786948694859360009385015261018435908401525af1908115610cfc576000916118845750604051908152f35b9450909190508684813d81116122d1575b6122bb8183612cad565b8101031261060657925184939190612178612169565b503d6122b1565b6122e491929350612bf8565b6119025787908938612144565b8b809297508195503d831161231d575b61230b8183612cad565b81010312610606578a925194386120f7565b503d612301565b9092508681813d8311612355575b61233c8183612cad565b8101031261027e5751848116810361027e5791386120ad565b503d612332565b503461023c576080908160031936011261023c57612378612b8a565b90612381612cee565b60443567ffffffffffffffff9384821161028657366023830112156102865781600401359480861161040757602483019260243691610140890201011161040757606435908111610407576123da903690600401612bca565b50506123e461303b565b841561040b578394845b818110612614575061240e6001600160a01b038080941697168588613ce5565b61241781613408565b9582869516945b828110612433576040518061090c8a82612e81565b61243e818487613532565b6101000190896060928784612454858984613532565b0161245e90613457565b9461246a858984613532565b956020948561247a888c87613532565b0161248490613464565b918a8c836124938b848a613532565b61249c90613464565b978b6124a9818684613532565b6040016124b5906133eb565b946124bf92613532565b016124c990613457565b9481604051986124d88a612c3b565b16885216888701526fffffffffffffffffffffffffffffffff1660408601528d84860152151590840152151560a08301528536037fffffffffffffffffffffffffffffffffffffffffffffffffffffffffffffff6001126106065761258383926125bb966040519061254982612c91565b61255560a08201612ddd565b825261257460e060c09261256a848201612ddd565b8986015201612ddd565b60408301528401523690612d81565b60e0820152604051809581927f96ce143100000000000000000000000000000000000000000000000000000000835260048301613543565b03818c885af190811561117e5789916125e5575b50600192506125de828b61351e565b520161241e565b905082813d831161260d575b6125fb8183612cad565b810103126106065760019151386125cf565b503d6125f1565b956001600160a01b036001916fffffffffffffffffffffffffffffffff61264160406109e78c888b613532565b16011696016123ee565b5061018060031936011261023c57612661612b8a565b906101607fffffffffffffffffffffffffffffffffffffffffffffffffffffffffffffffdc36011261023c576040519161269a83612c3b565b6126a2612cee565b83526126ac612bb4565b92602093848201526126bc612d2f565b90604081019182526126cc612d6b565b606082019081526126db612d04565b60808301526126e8612d13565b60a083015260607fffffffffffffffffffffffffffffffffffffffffffffffffffffffffffffff1c3601126106065760405161272381612c91565b64ffffffffff60e4358181168103610606578252610104358181168103610606578883015261012435908116810361060657604082015260c083015260407ffffffffffffffffffffffffffffffffffffffffffffffffffffffffffffffebc360112610606576040519161279683612c75565b610144356001600160a01b039485821682036106065787968996866127cf946105c69852610164358982015260e0860152610e7a61303b565b6040519485809481937f96ce143100000000000000000000000000000000000000000000000000000000835260048301613543565b506003199060408236011261023c5761281b612b8a565b916024359067ffffffffffffffff9081831161028657610120908336030112610435576040519061284b82612c3b565b61285783600401612ba0565b825261286560248401612d22565b946020958684015261287960448501612d22565b604084015261288a60648501612ba0565b606084015261289b60848501612d4e565b91608084019283526128af60a48601612ba0565b9460a085019586526128c43660c48301612d81565b60c086015261010481013591821161061e570136602382011215610282579261290f6105c6938796936129028a973690602460048201359101612def565b60e085015261055661303b565b6040519485809481937f16844456000000000000000000000000000000000000000000000000000000008352600483016136a9565b503461023c5760031960a08136011261089d5761295f612b8a565b916024359161296c612bb4565b916064359167ffffffffffffffff908184116104355761014090843603011261089d5760843590811161089d576129a7903690600401612bca565b50506129b161303b565b6129b961303b565b6001600160a01b0380951690604051947feac8f5b80000000000000000000000000000000000000000000000000000000086528060048701526020968787602481875afa968715610892578397612b52575b50861690604051937f70a0823100000000000000000000000000000000000000000000000000000000918286523060048701528986602481875afa9586156103fc578596612b23575b50813b156104075784916024839260405194859384927f40e58ee500000000000000000000000000000000000000000000000000000000845260048401525af180156108205790899291612b10575b5060246040518094819382523060048301525afa9182156106125791612adf575b50936107b6612ad6926107ce96613097565b60040190613b63565b9490508585813d8311612b09575b612af78183612cad565b810103126106065793516107b6612ac4565b503d612aed565b612b1c90949194612bf8565b9238612aa3565b9095508981813d8311612b4b575b612b3b8183612cad565b8101031261040757519438612a54565b503d612b31565b9096508781813d8311612b83575b612b6a8183612cad565b8101031261043557518681168103610435579538612a0b565b503d612b60565b600435906001600160a01b038216820361060657565b35906001600160a01b038216820361060657565b604435906001600160a01b038216820361060657565b9181601f840112156106065782359167ffffffffffffffff8311610606576020838186019501011161060657565b67ffffffffffffffff8111612c0c57604052565b7f4e487b7100000000000000000000000000000000000000000000000000000000600052604160045260246000fd5b610100810190811067ffffffffffffffff821117612c0c57604052565b610120810190811067ffffffffffffffff821117612c0c57604052565b6040810190811067ffffffffffffffff821117612c0c57604052565b6060810190811067ffffffffffffffff821117612c0c57604052565b90601f7fffffffffffffffffffffffffffffffffffffffffffffffffffffffffffffffe0910116810190811067ffffffffffffffff821117612c0c57604052565b602435906001600160a01b038216820361060657565b60a43590811515820361060657565b60c43590811515820361060657565b3590811515820361060657565b606435906fffffffffffffffffffffffffffffffff8216820361060657565b35906fffffffffffffffffffffffffffffffff8216820361060657565b608435906001600160a01b038216820361060657565b919082604091031261060657604051612d9981612c75565b6020808294612da781612ba0565b84520135910152565b67ffffffffffffffff8111612c0c5760051b60200190565b359067ffffffffffffffff8216820361060657565b359064ffffffffff8216820361060657565b929192612dfb82612db0565b604094612e0a86519283612cad565b8195848352602080930191606080960285019481861161060657925b858410612e365750505050505050565b8684830312610606578487918451612e4d81612c91565b612e5687612d4e565b8152612e63838801612dc8565b83820152612e72868801612ddd565b86820152815201930192612e26565b6020908160408183019282815285518094520193019160005b828110612ea8575050505090565b835185529381019392810192600101612e9a565b9181601f840112156106065782359167ffffffffffffffff8311610606576020808501948460051b01011161060657565b6003196060910112610606576001600160a01b03600435818116810361060657916024359160443590811681036106065790565b6080600319820112610606576001600160a01b0391600435838116810361060657926024359081168103610606579167ffffffffffffffff916044358381116106065782612f7191600401612ebc565b9390939260643591821161060657612f8b91600401612bca565b9091565b9190811015612fcf5760051b810135907fffffffffffffffffffffffffffffffffffffffffffffffffffffffffffffffc181360301821215610606570190565b7f4e487b7100000000000000000000000000000000000000000000000000000000600052603260045260246000fd5b90918281527f07ffffffffffffffffffffffffffffffffffffffffffffffffffffffffffffff83116106065760209260051b809284830137010190565b6001600160a01b037f000000000000000000000000000000000000000000000000000000000000000016301461306d57565b60046040517fbbff6135000000000000000000000000000000000000000000000000000000008152fd5b919082039182116130a457565b7f4e487b7100000000000000000000000000000000000000000000000000000000600052601160045260246000fd5b6040517fa9059cbb0000000000000000000000000000000000000000000000000000000060208201526001600160a01b0392909216602483015260448083019390935291815261312d91613128606483612cad565b613147565b565b90816020910312610606575180151581036106065790565b6040516131a5916001600160a01b031661316082612c75565b6000806020958685527f5361666545524332303a206c6f772d6c6576656c2063616c6c206661696c656487860152868151910182855af161319f61325a565b916132b8565b805190828215928315613242575b505050156131be5750565b608490604051907f08c379a00000000000000000000000000000000000000000000000000000000082526004820152602a60248201527f5361666545524332303a204552433230206f7065726174696f6e20646964206e60448201527f6f742073756363656564000000000000000000000000000000000000000000006064820152fd5b613252935082018101910161312f565b3882816131b3565b3d156132b3573d9067ffffffffffffffff8211612c0c57604051916132a760207fffffffffffffffffffffffffffffffffffffffffffffffffffffffffffffffe0601f8401160184612cad565b82523d6000602084013e565b606090565b9192901561333357508151156132cc575090565b3b156132d55790565b60646040517f08c379a000000000000000000000000000000000000000000000000000000000815260206004820152601d60248201527f416464726573733a2063616c6c20746f206e6f6e2d636f6e74726163740000006044820152fd5b8251909150156133465750805190602001fd5b604051907f08c379a000000000000000000000000000000000000000000000000000000000825281602080600483015282519283602484015260005b8481106133c3575050507fffffffffffffffffffffffffffffffffffffffffffffffffffffffffffffffe0601f836000604480968601015201168101030190fd5b818101830151868201604401528593508201613382565b9190811015612fcf57610120020190565b356fffffffffffffffffffffffffffffffff811681036106065790565b9061341282612db0565b61341f6040519182612cad565b8281527fffffffffffffffffffffffffffffffffffffffffffffffffffffffffffffffe061344d8294612db0565b0190602036910137565b3580151581036106065790565b356001600160a01b03811681036106065790565b61312d9092919261010060e06101408301956001600160a01b038082511685528060208301511660208601526fffffffffffffffffffffffffffffffff6040830151166040860152606082015116606085015260808101511515608085015260a0810151151560a085015260c0810151602064ffffffffff918281511660c0880152015116828501520151910190602080916001600160a01b0381511684520151910152565b8051821015612fcf5760209160051b010190565b9190811015612fcf57610140020190565b61312d9092919261012060e06101608301956001600160a01b038082511685528060208301511660208601526fffffffffffffffffffffffffffffffff6040830151166040860152606082015116606085015260808101511515608085015260a0810151151560a085015260c0810151604064ffffffffff918281511660c088015282602082015116858801520151166101008501520151910190602080916001600160a01b0381511684520151910152565b602080916001600160a01b0361360b82612ba0565b1684520135910152565b9190811015612fcf5760051b810135907fffffffffffffffffffffffffffffffffffffffffffffffffffffffffffffff0181360301821215610606570190565b9035907fffffffffffffffffffffffffffffffffffffffffffffffffffffffffffffffe181360301821215610606570180359067ffffffffffffffff82116106065760200191606082023603831361060657565b9060208083526101408301908061016060e06001600160a01b0395868151168489015283810151151560408901526040810151966060971515888a015280888301511660808a01526fffffffffffffffffffffffffffffffff60808301511660a08a015260a08201511660c089015261373c60c0820151838a0190602080916001600160a01b0381511684520151910152565b015195610120808201528651809552019401926000905b83821061376257505050505090565b90919293948382826137ae6001948a5164ffffffffff604080926fffffffffffffffffffffffffffffffff815116855267ffffffffffffffff6020820151166020860152015116910152565b0196019493920190613753565b9190811015612fcf5760051b810135907ffffffffffffffffffffffffffffffffffffffffffffffffffffffffffffffee181360301821215610606570190565b906020808352610160830190806101806001600160a01b0394858151168388015264ffffffffff8382015116604088015260408101519560609615158789015286820151151560808901528060808301511660a08901526fffffffffffffffffffffffffffffffff60a08301511660c089015260c08201511660e088015260e0810151906138a261010092838a0190602080916001600160a01b0381511684520151910152565b015195610140808201528651809552019401926000905b8382106138c857505050505090565b90919293948382826139146001948a5164ffffffffff604080926fffffffffffffffffffffffffffffffff815116855267ffffffffffffffff6020820151166020860152015116910152565b01960194939201906138b9565b613a0b9061392d61303b565b60a08301906001600160a01b0390811661394683613464565b608086016139716fffffffffffffffffffffffffffffffff9283613969846133eb565b169085613ce5565b613a2c6040519788957f1684445600000000000000000000000000000000000000000000000000000000875260209889988960048a0152610144890196836139b886612ba0565b1660248b01526139c98b8601612d22565b151560448b01526139dc60408601612d22565b151560648b0152613a00606097856139f58a8901612ba0565b1660848d0152612d4e565b1660a48a0152612ba0565b1660c4870152613a2160e4870160c083016135f6565b610100810190613abf565b809193610120610124880152526101648501929160005b828110613a985750505050600083809203925af1908115610cfc57600091613a6c575b50905090565b82813d8311613a91575b613a808183612cad565b8101031261023c5750518038613a66565b503d613a76565b9295506001919496508084613aae829689613b12565b019501910192879492879694613a43565b90357fffffffffffffffffffffffffffffffffffffffffffffffffffffffffffffffe18236030181121561060657016020813591019167ffffffffffffffff821161060657606082023603831361060657565b64ffffffffff613b5d604080936fffffffffffffffffffffffffffffffff613b3982612d4e565b16865267ffffffffffffffff613b5160208301612dc8565b16602087015201612ddd565b16910152565b613c5d90613b6f61303b565b60c08301906001600160a01b03908116613b8883613464565b60a08601613bab6fffffffffffffffffffffffffffffffff9283613969846133eb565b613c7f6040519788957fc33cd35e00000000000000000000000000000000000000000000000000000000875260209889988960048a015261016489019683613bf286612ba0565b1660248b015264ffffffffff613c098c8701612ddd565b1660448b0152613c1b60408601612d22565b151560648b0152613c52606097613c33898801612d22565b151560848d015285613c4760808901612ba0565b1660a48d0152612d4e565b1660c48a0152612ba0565b1660e4870152613c74610104870160e083016135f6565b610120810190613abf565b809193610140610144880152526101848501929160005b828110613cbe5750505050600083809203925af1908115610cfc57600091613a6c5750905090565b9295506001919496508084613cd4829689613b12565b019501910192879492879694613c96565b91906001600160a01b039283821690604051947fdd62ed3e0000000000000000000000000000000000000000000000000000000086523060048701528116918260248701526020958681604481855afa8015610cfc578691600091613e87575b5010613d54575b505050505050565b60008060405196613dd688613daa8b8201937f095ea7b3000000000000000000000000000000000000000000000000000000009889865260248401602090939291936001600160a01b0360408201951681520152565b037fffffffffffffffffffffffffffffffffffffffffffffffffffffffffffffffe081018a5289612cad565b87519082855af190613de661325a565b82613e54575b5081613e49575b5015613e00575b80613d4c565b60405194850152602484015260006044840152604483526080830183811067ffffffffffffffff821117612c0c57613e3f936131289160405282613147565b3880808080613dfa565b90503b151538613df3565b809192505190878215928315613e6f575b5050509038613dec565b613e7f935082018101910161312f565b388781613e65565b91508782813d8311613eb0575b613e9e8183612cad565b8101031261023c575085905138613d45565b503d613e94565b9190811015612fcf5760051b0190565b919091613ed383613408565b9260005b818110613ee357505050565b6001600160a01b03613ef9610974838587613eb7565b16906040805180937f70a0823100000000000000000000000000000000000000000000000000000000825230600483015281602460209687935afa918215613f8b5750600091613f5a575b5060019250613f53828861351e565b5201613ed7565b919282813d8311613f84575b613f708183612cad565b8101031261023c5750906001915138613f44565b503d613f66565b513d6000823e3d90fd5b6040517f8da5cb5b000000000000000000000000000000000000000000000000000000008152602081600481305afa908115610cfc57600091613fd6575090565b6020813d821161400c575b81613fee60209383612cad565b8101031261089d5751906001600160a01b038216820361023c575090565b3d9150613fe1565b909160005b8181106140265750505050565b6001600160a01b0361403c610974838588613eb7565b16906040805180937f70a0823100000000000000000000000000000000000000000000000000000000825230600483015281602460209687935afa918215613f8b57506000916140c0575b50600192506140a46140ba9161409d848861351e565b5190613097565b6140b261097484878a613eb7565b6107bf613f95565b01614019565b919282813d83116140ec575b6140d68183612cad565b8101031261023c575051600191906140a4614087565b503d6140cc565b6001600160a01b031660409081517f70a08231000000000000000000000000000000000000000000000000000000008082526000903060048401526020908184602481885afa93841561427e57839461424f575b50843b156104355785517fd0e30db00000000000000000000000000000000000000000000000000000000081528381600481348a5af1801561424557614232575b508190602487518097819382523060048301525afa91821561422757916141f7575b506141b59250613097565b903482036141c1575050565b6044925051907fe5f762580000000000000000000000000000000000000000000000000000000082523460048301526024820152fd5b905082813d8311614220575b61420d8183612cad565b81010312610606576141b59151386141aa565b503d614203565b8551903d90823e3d90fd5b9261423e839294612bf8565b9290614188565b87513d86823e3d90fd5b9093508181813d8311614277575b6142678183612cad565b8101031261043557519238614147565b503d61425d565b86513d85823e3d90fdfea164736f6c6343000815000a",
    "linkReferences": {}
  },
  "methodIdentifiers": {
    "batchCancelMultiple((address,uint256[])[],address[])": "f1630612",
    "batchCreateWithDeltas(address,address,(address,bool,bool,address,uint128,(address,uint256),(uint128,uint64,uint40)[])[],bytes)": "b82027bf",
    "batchCreateWithDurations(address,address,(address,address,uint128,bool,bool,(uint40,uint40),(address,uint256))[],bytes)": "79bcb2e3",
    "batchCreateWithMilestones(address,address,(address,uint40,bool,bool,address,uint128,(address,uint256),(uint128,uint64,uint40)[])[],bytes)": "ec4ac9a7",
    "batchCreateWithRange(address,address,(address,address,uint128,bool,bool,(uint40,uint40,uint40),(address,uint256))[],bytes)": "2104b57d",
    "burn(address,uint256)": "9dc29fac",
    "cancel(address,uint256)": "98590ef9",
    "cancelAndCreateWithDeltas(address,uint256,address,(address,bool,bool,address,uint128,address,(address,uint256),(uint128,uint64,uint40)[]),bytes)": "ed233b34",
    "cancelAndCreateWithDurations(address,uint256,address,(address,address,uint128,address,bool,bool,(uint40,uint40),(address,uint256)),bytes)": "2f5c8223",
    "cancelAndCreateWithMilestones(address,uint256,address,(address,uint40,bool,bool,address,uint128,address,(address,uint256),(uint128,uint64,uint40)[]),bytes)": "08b1834a",
    "cancelAndCreateWithRange(address,uint256,address,(address,address,uint128,address,bool,bool,(uint40,uint40,uint40),(address,uint256)),bytes)": "91c68e99",
    "cancelMultiple(address,address[],uint256[])": "6a09d49a",
    "createWithDeltas(address,(address,bool,bool,address,uint128,address,(address,uint256),(uint128,uint64,uint40)[]),bytes)": "65092a79",
    "createWithDurations(address,(address,address,uint128,address,bool,bool,(uint40,uint40),(address,uint256)),bytes)": "d4f880f8",
    "createWithMilestones(address,(address,uint40,bool,bool,address,uint128,address,(address,uint256),(uint128,uint64,uint40)[]),bytes)": "b76d0a58",
    "createWithRange(address,(address,address,uint128,address,bool,bool,(uint40,uint40,uint40),(address,uint256)),bytes)": "7d2085b0",
    "renounce(address,uint256)": "86f2891e",
    "withdraw(address,uint256,address,uint128)": "b956b45f",
    "withdrawMax(address,uint256,address)": "a3143b76",
    "withdrawMaxAndTransfer(address,uint256,address)": "ad26c0fb",
    "withdrawMultiple(address,uint256[],address,uint128[])": "f2bf799e",
    "wrapAndCreateWithDeltas(address,(address,bool,bool,address,uint128,address,(address,uint256),(uint128,uint64,uint40)[]))": "0a3b8c77",
    "wrapAndCreateWithDurations(address,(address,address,uint128,address,bool,bool,(uint40,uint40),(address,uint256)))": "c44d5f78",
    "wrapAndCreateWithMilestones(address,(address,uint40,bool,bool,address,uint128,address,(address,uint256),(uint128,uint64,uint40)[]))": "edc1e8a0",
    "wrapAndCreateWithRange(address,(address,address,uint128,address,bool,bool,(uint40,uint40,uint40),(address,uint256)))": "0d7fe863"
  },
  "id": 109
}