{
  "abi": [
    {
      "inputs": [
        {
          "internalType": "address",
          "name": "initialAdmin",
          "type": "address"
        },
        {
          "internalType": "contract ISablierV2LockupLinear",
          "name": "lockupLinear",
          "type": "address"
        },
        {
          "internalType": "contract IERC20",
          "name": "asset",
          "type": "address"
        },
        {
          "internalType": "bytes32",
          "name": "merkleRoot",
          "type": "bytes32"
        },
        {
          "internalType": "uint40",
          "name": "expiration",
          "type": "uint40"
        },
        {
          "components": [
            {
              "internalType": "uint40",
              "name": "cliff",
              "type": "uint40"
            },
            {
              "internalType": "uint40",
              "name": "total",
              "type": "uint40"
            }
          ],
          "internalType": "struct LockupLinear.Durations",
          "name": "streamDurations_",
          "type": "tuple"
        },
        {
          "internalType": "bool",
          "name": "cancelable",
          "type": "bool"
        },
        {
          "internalType": "bool",
          "name": "transferable",
          "type": "bool"
        }
      ],
      "stateMutability": "nonpayable",
      "type": "constructor"
    },
    {
      "inputs": [
        {
          "internalType": "address",
          "name": "admin",
          "type": "address"
        },
        {
          "internalType": "address",
          "name": "caller",
          "type": "address"
        }
      ],
      "name": "CallerNotAdmin",
      "type": "error"
    },
    {
      "inputs": [
        {
          "internalType": "uint256",
          "name": "currentTime",
          "type": "uint256"
        },
        {
          "internalType": "uint40",
          "name": "expiration",
          "type": "uint40"
        }
      ],
      "name": "SablierV2MerkleStreamer_CampaignExpired",
      "type": "error"
    },
    {
      "inputs": [
        {
          "internalType": "uint256",
          "name": "currentTime",
          "type": "uint256"
        },
        {
          "internalType": "uint40",
          "name": "expiration",
          "type": "uint40"
        }
      ],
      "name": "SablierV2MerkleStreamer_CampaignNotExpired",
      "type": "error"
    },
    {
      "inputs": [],
      "name": "SablierV2MerkleStreamer_InvalidProof",
      "type": "error"
    },
    {
      "inputs": [],
      "name": "SablierV2MerkleStreamer_ProtocolFeeNotZero",
      "type": "error"
    },
    {
      "inputs": [
        {
          "internalType": "uint256",
          "name": "index",
          "type": "uint256"
        }
      ],
      "name": "SablierV2MerkleStreamer_StreamClaimed",
      "type": "error"
    },
    {
      "anonymous": false,
      "inputs": [
        {
          "indexed": false,
          "internalType": "uint256",
          "name": "index",
          "type": "uint256"
        },
        {
          "indexed": true,
          "internalType": "address",
          "name": "recipient",
          "type": "address"
        },
        {
          "indexed": false,
          "internalType": "uint128",
          "name": "amount",
          "type": "uint128"
        },
        {
          "indexed": true,
          "internalType": "uint256",
          "name": "streamId",
          "type": "uint256"
        }
      ],
      "name": "Claim",
      "type": "event"
    },
    {
      "anonymous": false,
      "inputs": [
        {
          "indexed": true,
          "internalType": "address",
          "name": "admin",
          "type": "address"
        },
        {
          "indexed": true,
          "internalType": "address",
          "name": "to",
          "type": "address"
        },
        {
          "indexed": false,
          "internalType": "uint128",
          "name": "amount",
          "type": "uint128"
        }
      ],
      "name": "Clawback",
      "type": "event"
    },
    {
      "anonymous": false,
      "inputs": [
        {
          "indexed": true,
          "internalType": "address",
          "name": "oldAdmin",
          "type": "address"
        },
        {
          "indexed": true,
          "internalType": "address",
          "name": "newAdmin",
          "type": "address"
        }
      ],
      "name": "TransferAdmin",
      "type": "event"
    },
    {
      "inputs": [],
      "name": "ASSET",
      "outputs": [
        {
          "internalType": "contract IERC20",
          "name": "",
          "type": "address"
        }
      ],
      "stateMutability": "view",
      "type": "function"
    },
    {
      "inputs": [],
      "name": "CANCELABLE",
      "outputs": [
        {
          "internalType": "bool",
          "name": "",
          "type": "bool"
        }
      ],
      "stateMutability": "view",
      "type": "function"
    },
    {
      "inputs": [],
      "name": "EXPIRATION",
      "outputs": [
        {
          "internalType": "uint40",
          "name": "",
          "type": "uint40"
        }
      ],
      "stateMutability": "view",
      "type": "function"
    },
    {
      "inputs": [],
      "name": "LOCKUP",
      "outputs": [
        {
          "internalType": "contract ISablierV2Lockup",
          "name": "",
          "type": "address"
        }
      ],
      "stateMutability": "view",
      "type": "function"
    },
    {
      "inputs": [],
      "name": "LOCKUP_LINEAR",
      "outputs": [
        {
          "internalType": "contract ISablierV2LockupLinear",
          "name": "",
          "type": "address"
        }
      ],
      "stateMutability": "view",
      "type": "function"
    },
    {
      "inputs": [],
      "name": "MERKLE_ROOT",
      "outputs": [
        {
          "internalType": "bytes32",
          "name": "",
          "type": "bytes32"
        }
      ],
      "stateMutability": "view",
      "type": "function"
    },
    {
      "inputs": [],
      "name": "TRANSFERABLE",
      "outputs": [
        {
          "internalType": "bool",
          "name": "",
          "type": "bool"
        }
      ],
      "stateMutability": "view",
      "type": "function"
    },
    {
      "inputs": [],
      "name": "admin",
      "outputs": [
        {
          "internalType": "address",
          "name": "",
          "type": "address"
        }
      ],
      "stateMutability": "view",
      "type": "function"
    },
    {
      "inputs": [
        {
          "internalType": "uint256",
          "name": "index",
          "type": "uint256"
        },
        {
          "internalType": "address",
          "name": "recipient",
          "type": "address"
        },
        {
          "internalType": "uint128",
          "name": "amount",
          "type": "uint128"
        },
        {
          "internalType": "bytes32[]",
          "name": "merkleProof",
          "type": "bytes32[]"
        }
      ],
      "name": "claim",
      "outputs": [
        {
          "internalType": "uint256",
          "name": "streamId",
          "type": "uint256"
        }
      ],
      "stateMutability": "nonpayable",
      "type": "function"
    },
    {
      "inputs": [
        {
          "internalType": "address",
          "name": "to",
          "type": "address"
        },
        {
          "internalType": "uint128",
          "name": "amount",
          "type": "uint128"
        }
      ],
      "name": "clawback",
      "outputs": [],
      "stateMutability": "nonpayable",
      "type": "function"
    },
    {
      "inputs": [
        {
          "internalType": "uint256",
          "name": "index",
          "type": "uint256"
        }
      ],
      "name": "hasClaimed",
      "outputs": [
        {
          "internalType": "bool",
          "name": "",
          "type": "bool"
        }
      ],
      "stateMutability": "view",
      "type": "function"
    },
    {
      "inputs": [],
      "name": "hasExpired",
      "outputs": [
        {
          "internalType": "bool",
          "name": "",
          "type": "bool"
        }
      ],
      "stateMutability": "view",
      "type": "function"
    },
    {
      "inputs": [],
      "name": "streamDurations",
      "outputs": [
        {
          "internalType": "uint40",
          "name": "cliff",
          "type": "uint40"
        },
        {
          "internalType": "uint40",
          "name": "total",
          "type": "uint40"
        }
      ],
      "stateMutability": "view",
      "type": "function"
    },
    {
      "inputs": [
        {
          "internalType": "address",
          "name": "newAdmin",
          "type": "address"
        }
      ],
      "name": "transferAdmin",
      "outputs": [],
      "stateMutability": "nonpayable",
      "type": "function"
    }
  ],
  "bytecode": {
    "object": "0x610160604081815234620002e7578162001812803803809162000023828562000308565b833981010361012091828212620002e75783516001600160a01b038082169391849003620002e757602090818701519481861693848703620002e7578589015192831692838103620002e75760608a015190876200008460808d016200032c565b93609f190112620002e7578751918289016001600160401b03811184821017620002d1578952620000b860a08d016200032c565b8352620000c860c08d016200032c565b83880190815293620000dd60e08e016200033f565b91610100809e01620000ef906200033f565b93600097600160a01b60019003198954161788556080528960e0528d5260c05260a05289526101409788525164ffffffffff16600254915160281b69ffffffffff00000000001691600160501b600190031916171760025584519280840191808063095ea7b360e01b948581528860248901526000196044890152604488526200017988620002ec565b87519082885af16200018a62000456565b816200028f575b508062000284575b1562000242575b505050505050519161129e93846200057485396080518481816103770152818161055a015281816107960152610d4b015260a0518481816107bd0152610c37015260c05184818161015101528181610afa01528181610f98015261110e015260e05184818161020e015281816104e00152610cea01525183818161032701526106b30152518281816107e50152610bfa0152518181816101a201526109580152f35b6200027895620002729388519384015260248301526044820152604481526200026b81620002ec565b826200034d565b6200034d565b388080808080620001a0565b50833b151562000199565b80915051838115918215620002aa575b505090503862000191565b8380929350010312620002cd5782620002c491016200033f565b8083386200029f565b5080fd5b634e487b7160e01b600052604160045260246000fd5b600080fd5b608081019081106001600160401b03821117620002d157604052565b601f909101601f19168101906001600160401b03821190821017620002d157604052565b519064ffffffffff82168203620002e757565b51908115158203620002e757565b60408051908101916001600160a01b03166001600160401b03831182841017620002d157620003c1926040526000806020958685527f5361666545524332303a206c6f772d6c6576656c2063616c6c206661696c656487860152868151910182855af1620003ba62000456565b9162000499565b805182811591821562000433575b5050905015620003dc5750565b6084906040519062461bcd60e51b82526004820152602a60248201527f5361666545524332303a204552433230206f7065726174696f6e20646964206e6044820152691bdd081cdd58d8d9595960b21b6064820152fd5b8380929350010312620002e757816200044d91016200033f565b808238620003cf565b3d1562000494573d906001600160401b038211620002d1576040519162000488601f8201601f19166020018462000308565b82523d6000602084013e565b606090565b91929015620004fe5750815115620004af575090565b3b15620004b95790565b60405162461bcd60e51b815260206004820152601d60248201527f416464726573733a2063616c6c20746f206e6f6e2d636f6e74726163740000006044820152606490fd5b825190915015620005125750805190602001fd5b6040519062461bcd60e51b82528160208060048301528251908160248401526000935b82851062000559575050604492506000838284010152601f80199101168101030190fd5b84810182015186860160440152938101938593506200053556fe608080604052600436101561001357600080fd5b60003560e01c9081631686c90914610c5c5750806316c3549d14610c1f5780631bfd681414610be25780633bfe03a814610bb35780633f31ae3f1461039b5780634800d97f1461034a57806351e75e8b1461030f57806375829def14610232578063845aef4b146101e157806390e64d13146101c65780639e93e57714610175578063bb4b573414610133578063ce516507146100f25763f851a440146100b957600080fd5b346100ed5760006003193601126100ed57602073ffffffffffffffffffffffffffffffffffffffff60005416604051908152f35b600080fd5b346100ed5760206003193601126100ed57602061012960043560ff6001918060081c60005282602052161b60406000205416151590565b6040519015158152f35b346100ed5760006003193601126100ed57602060405164ffffffffff7f0000000000000000000000000000000000000000000000000000000000000000168152f35b346100ed5760006003193601126100ed57602060405173ffffffffffffffffffffffffffffffffffffffff7f0000000000000000000000000000000000000000000000000000000000000000168152f35b346100ed5760006003193601126100ed576020610129611106565b346100ed5760006003193601126100ed57602060405173ffffffffffffffffffffffffffffffffffffffff7f0000000000000000000000000000000000000000000000000000000000000000168152f35b346100ed5760206003193601126100ed5761024b61106a565b60005473ffffffffffffffffffffffffffffffffffffffff808216923384036102c2577fffffffffffffffffffffffff00000000000000000000000000000000000000009350169182911617600055337fbdd36143ee09de60bdefca70680e0f71189b2ed7acee364b53917ad433fdaf80600080a3005b6040517fc6cce6a400000000000000000000000000000000000000000000000000000000815273ffffffffffffffffffffffffffffffffffffffff85166004820152336024820152604490fd5b346100ed5760006003193601126100ed5760206040517f00000000000000000000000000000000000000000000000000000000000000008152f35b346100ed5760006003193601126100ed57602060405173ffffffffffffffffffffffffffffffffffffffff7f0000000000000000000000000000000000000000000000000000000000000000168152f35b346100ed5760806003193601126100ed5760243573ffffffffffffffffffffffffffffffffffffffff811681036100ed576044356fffffffffffffffffffffffffffffffff811681036100ed5767ffffffffffffffff606435116100ed573660236064350112156100ed5767ffffffffffffffff60643560040135116100ed573660246064356004013560051b6064350101116100ed576040516020810190600435825273ffffffffffffffffffffffffffffffffffffffff841660408201526fffffffffffffffffffffffffffffffff8316606082015260608152610480816110a9565b519020604051602081019182526020815261049a8161108d565b5190206040517f5fe3b56700000000000000000000000000000000000000000000000000000000815260208160048173ffffffffffffffffffffffffffffffffffffffff7f0000000000000000000000000000000000000000000000000000000000000000165afa908115610a255773ffffffffffffffffffffffffffffffffffffffff91602091600091610b86575b506024604051809481937fdcf844a7000000000000000000000000000000000000000000000000000000008352817f0000000000000000000000000000000000000000000000000000000000000000166004840152165afa908115610a2557600091610b54575b50610b2a5761059e611106565b610acc576105c660043560ff6001918060081c60005282602052161b60406000205416151590565b610a9a57604051906105e460206064356004013560051b01836110c5565b60643560048101358352602401602083015b60246064356004013560051b60643501018210610a8a575050916000925b82518410156106af5760208460051b840101519081811060001461069e5760005260205260406000205b927fffffffffffffffffffffffffffffffffffffffffffffffffffffffffffffffff811461066f5760010192610614565b7f4e487b7100000000000000000000000000000000000000000000000000000000600052601160045260246000fd5b90600052602052604060002061063e565b84907f000000000000000000000000000000000000000000000000000000000000000003610a605760043560081c60005260016020526040600020600160ff600435161b8154179055604051906107058261108d565b600082526000602083015273ffffffffffffffffffffffffffffffffffffffff600054169160405192610100840184811067ffffffffffffffff821117610a3157604052835273ffffffffffffffffffffffffffffffffffffffff821660208401526fffffffffffffffffffffffffffffffff8416604084015273ffffffffffffffffffffffffffffffffffffffff7f00000000000000000000000000000000000000000000000000000000000000001660608401527f0000000000000000000000000000000000000000000000000000000000000000151560808401527f0000000000000000000000000000000000000000000000000000000000000000151560a08401526040516108178161108d565b64ffffffffff600254818116835260281c16602082015260c084015260e0830152602060e0604051937fab167ccc00000000000000000000000000000000000000000000000000000000855273ffffffffffffffffffffffffffffffffffffffff815116600486015273ffffffffffffffffffffffffffffffffffffffff838201511660248601526fffffffffffffffffffffffffffffffff604082015116604486015273ffffffffffffffffffffffffffffffffffffffff606082015116606486015260808101511515608486015260a0810151151560a486015264ffffffffff8360c08301518281511660c489015201511660e4860152015173ffffffffffffffffffffffffffffffffffffffff815116610104850152015161012483015260208261014481600073ffffffffffffffffffffffffffffffffffffffff7f0000000000000000000000000000000000000000000000000000000000000000165af1918215610a25576000926109f0575b506020927f28b58397e03322f670d6b223cc863f8c148e368b8b615412e6798a641a22842d604073ffffffffffffffffffffffffffffffffffffffff85946fffffffffffffffffffffffffffffffff835195600435875216888601521692a3604051908152f35b91506020823d602011610a1d575b81610a0b602093836110c5565b810103126100ed579051906020610989565b3d91506109fe565b6040513d6000823e3d90fd5b7f4e487b7100000000000000000000000000000000000000000000000000000000600052604160045260246000fd5b60046040517fb3f3b2a6000000000000000000000000000000000000000000000000000000008152fd5b81358152602091820191016105f6565b60246040517f3548783b0000000000000000000000000000000000000000000000000000000081526004356004820152fd5b6040517f74b43bd00000000000000000000000000000000000000000000000000000000081524260048201527f000000000000000000000000000000000000000000000000000000000000000064ffffffffff166024820152604490fd5b60046040517fa4432b51000000000000000000000000000000000000000000000000000000008152fd5b90506020813d602011610b7e575b81610b6f602093836110c5565b810103126100ed575184610591565b3d9150610b62565b610ba69150823d8411610bac575b610b9e81836110c5565b810190611143565b8661052a565b503d610b94565b346100ed5760006003193601126100ed57604060025464ffffffffff825191818116835260281c166020820152f35b346100ed5760006003193601126100ed5760206040517f000000000000000000000000000000000000000000000000000000000000000015158152f35b346100ed5760006003193601126100ed5760206040517f000000000000000000000000000000000000000000000000000000000000000015158152f35b346100ed5760406003193601126100ed57610c7561106a565b90602435906fffffffffffffffffffffffffffffffff82168092036100ed5773ffffffffffffffffffffffffffffffffffffffff908160005416338103611021575050604051907f5fe3b5670000000000000000000000000000000000000000000000000000000082526020918281600481857f0000000000000000000000000000000000000000000000000000000000000000165afa908115610a2557600091611004575b506040517fdcf844a7000000000000000000000000000000000000000000000000000000008152838160248186807f00000000000000000000000000000000000000000000000000000000000000001696876004840152165afa908115610a2557600091610fd7575b501580610fc8575b610f6a5760405160008084868401987fa9059cbb000000000000000000000000000000000000000000000000000000008a52169788602485015287604485015260448452610dd9846110a9565b60405193610de68561108d565b8785527f5361666545524332303a206c6f772d6c6576656c2063616c6c206661696c656488860152519082865af13d15610f5d573d9067ffffffffffffffff8211610a3157610e729360405192610e64887fffffffffffffffffffffffffffffffffffffffffffffffffffffffffffffffe0601f84011601856110c5565b83523d60008885013e61116f565b8051838115918215610f3d575b5050905015610eb957907f2e9d425ba8b27655048400b366d7b6a1f7180ebdb088e06bb7389704860ffe1f916000541692604051908152a3005b608482604051907f08c379a00000000000000000000000000000000000000000000000000000000082526004820152602a60248201527f5361666545524332303a204552433230206f7065726174696f6e20646964206e60448201527f6f742073756363656564000000000000000000000000000000000000000000006064820152fd5b83809293500103126100ed5782015180151581036100ed57808387610e7f565b91610e729260609161116f565b6040517f1351f21d0000000000000000000000000000000000000000000000000000000081524260048201527f000000000000000000000000000000000000000000000000000000000000000064ffffffffff166024820152604490fd5b50610fd1611106565b15610d8c565b90508381813d8311610ffd575b610fee81836110c5565b810103126100ed575186610d84565b503d610fe4565b61101b9150833d8511610bac57610b9e81836110c5565b85610d1b565b7fc6cce6a400000000000000000000000000000000000000000000000000000000825273ffffffffffffffffffffffffffffffffffffffff166004820152336024820152604490fd5b6004359073ffffffffffffffffffffffffffffffffffffffff821682036100ed57565b6040810190811067ffffffffffffffff821117610a3157604052565b6080810190811067ffffffffffffffff821117610a3157604052565b90601f7fffffffffffffffffffffffffffffffffffffffffffffffffffffffffffffffe0910116810190811067ffffffffffffffff821117610a3157604052565b64ffffffffff7f000000000000000000000000000000000000000000000000000000000000000016801515908161113b575090565b905042101590565b908160209103126100ed575173ffffffffffffffffffffffffffffffffffffffff811681036100ed5790565b919290156111ea5750815115611183575090565b3b1561118c5790565b60646040517f08c379a000000000000000000000000000000000000000000000000000000000815260206004820152601d60248201527f416464726573733a2063616c6c20746f206e6f6e2d636f6e74726163740000006044820152fd5b8251909150156111fd5750805190602001fd5b604051907f08c379a000000000000000000000000000000000000000000000000000000000825281602080600483015282519283602484015260005b84811061127a575050507fffffffffffffffffffffffffffffffffffffffffffffffffffffffffffffffe0601f836000604480968601015201168101030190fd5b81810183015186820160440152859350820161123956fea164736f6c6343000815000a",
    "linkReferences": {}
  },
  "methodIdentifiers": {
    "ASSET()": "4800d97f",
    "CANCELABLE()": "16c3549d",
    "EXPIRATION()": "bb4b5734",
    "LOCKUP()": "845aef4b",
    "LOCKUP_LINEAR()": "9e93e577",
    "MERKLE_ROOT()": "51e75e8b",
    "TRANSFERABLE()": "1bfd6814",
    "admin()": "f851a440",
    "claim(uint256,address,uint128,bytes32[])": "3f31ae3f",
    "clawback(address,uint128)": "1686c909",
    "hasClaimed(uint256)": "ce516507",
    "hasExpired()": "90e64d13",
    "streamDurations()": "3bfe03a8",
    "transferAdmin(address)": "75829def"
  },
  "id": 106
}