{
  "abi": [
    {
      "inputs": [],
      "name": "SablierV2Batch_BatchSizeZero",
      "type": "error"
    },
    {
      "inputs": [
        {
          "internalType": "contract ISablierV2LockupDynamic",
          "name": "lockupDynamic",
          "type": "address"
        },
        {
          "internalType": "contract IERC20",
          "name": "asset",
          "type": "address"
        },
        {
          "components": [
            {
              "internalType": "address",
              "name": "sender",
              "type": "address"
            },
            {
              "internalType": "bool",
              "name": "cancelable",
              "type": "bool"
            },
            {
              "internalType": "bool",
              "name": "transferable",
              "type": "bool"
            },
            {
              "internalType": "address",
              "name": "recipient",
              "type": "address"
            },
            {
              "internalType": "uint128",
              "name": "totalAmount",
              "type": "uint128"
            },
            {
              "components": [
                {
                  "internalType": "address",
                  "name": "account",
                  "type": "address"
                },
                {
                  "internalType": "UD60x18",
                  "name": "fee",
                  "type": "uint256"
                }
              ],
              "internalType": "struct Broker",
              "name": "broker",
              "type": "tuple"
            },
            {
              "components": [
                {
                  "internalType": "uint128",
                  "name": "amount",
                  "type": "uint128"
                },
                {
                  "internalType": "UD2x18",
                  "name": "exponent",
                  "type": "uint64"
                },
                {
                  "internalType": "uint40",
                  "name": "delta",
                  "type": "uint40"
                }
              ],
              "internalType": "struct LockupDynamic.SegmentWithDelta[]",
              "name": "segments",
              "type": "tuple[]"
            }
          ],
          "internalType": "struct Batch.CreateWithDeltas[]",
          "name": "batch",
          "type": "tuple[]"
        }
      ],
      "name": "createWithDeltas",
      "outputs": [
        {
          "internalType": "uint256[]",
          "name": "streamIds",
          "type": "uint256[]"
        }
      ],
      "stateMutability": "nonpayable",
      "type": "function"
    },
    {
      "inputs": [
        {
          "internalType": "contract ISablierV2LockupLinear",
          "name": "lockupLinear",
          "type": "address"
        },
        {
          "internalType": "contract IERC20",
          "name": "asset",
          "type": "address"
        },
        {
          "components": [
            {
              "internalType": "address",
              "name": "sender",
              "type": "address"
            },
            {
              "internalType": "address",
              "name": "recipient",
              "type": "address"
            },
            {
              "internalType": "uint128",
              "name": "totalAmount",
              "type": "uint128"
            },
            {
              "internalType": "bool",
              "name": "cancelable",
              "type": "bool"
            },
            {
              "internalType": "bool",
              "name": "transferable",
              "type": "bool"
            },
            {
              "components": [
                {
                  "internalType": "uint40",
                  "name": "cliff",
                  "type": "uint40"
                },
                {
                  "internalType": "uint40",
                  "name": "total",
                  "type": "uint40"
                }
              ],
              "internalType": "struct LockupLinear.Durations",
              "name": "durations",
              "type": "tuple"
            },
            {
              "components": [
                {
                  "internalType": "address",
                  "name": "account",
                  "type": "address"
                },
                {
                  "internalType": "UD60x18",
                  "name": "fee",
                  "type": "uint256"
                }
              ],
              "internalType": "struct Broker",
              "name": "broker",
              "type": "tuple"
            }
          ],
          "internalType": "struct Batch.CreateWithDurations[]",
          "name": "batch",
          "type": "tuple[]"
        }
      ],
      "name": "createWithDurations",
      "outputs": [
        {
          "internalType": "uint256[]",
          "name": "streamIds",
          "type": "uint256[]"
        }
      ],
      "stateMutability": "nonpayable",
      "type": "function"
    },
    {
      "inputs": [
        {
          "internalType": "contract ISablierV2LockupDynamic",
          "name": "lockupDynamic",
          "type": "address"
        },
        {
          "internalType": "contract IERC20",
          "name": "asset",
          "type": "address"
        },
        {
          "components": [
            {
              "internalType": "address",
              "name": "sender",
              "type": "address"
            },
            {
              "internalType": "uint40",
              "name": "startTime",
              "type": "uint40"
            },
            {
              "internalType": "bool",
              "name": "cancelable",
              "type": "bool"
            },
            {
              "internalType": "bool",
              "name": "transferable",
              "type": "bool"
            },
            {
              "internalType": "address",
              "name": "recipient",
              "type": "address"
            },
            {
              "internalType": "uint128",
              "name": "totalAmount",
              "type": "uint128"
            },
            {
              "components": [
                {
                  "internalType": "address",
                  "name": "account",
                  "type": "address"
                },
                {
                  "internalType": "UD60x18",
                  "name": "fee",
                  "type": "uint256"
                }
              ],
              "internalType": "struct Broker",
              "name": "broker",
              "type": "tuple"
            },
            {
              "components": [
                {
                  "internalType": "uint128",
                  "name": "amount",
                  "type": "uint128"
                },
                {
                  "internalType": "UD2x18",
                  "name": "exponent",
                  "type": "uint64"
                },
                {
                  "internalType": "uint40",
                  "name": "milestone",
                  "type": "uint40"
                }
              ],
              "internalType": "struct LockupDynamic.Segment[]",
              "name": "segments",
              "type": "tuple[]"
            }
          ],
          "internalType": "struct Batch.CreateWithMilestones[]",
          "name": "batch",
          "type": "tuple[]"
        }
      ],
      "name": "createWithMilestones",
      "outputs": [
        {
          "internalType": "uint256[]",
          "name": "streamIds",
          "type": "uint256[]"
        }
      ],
      "stateMutability": "nonpayable",
      "type": "function"
    },
    {
      "inputs": [
        {
          "internalType": "contract ISablierV2LockupLinear",
          "name": "lockupLinear",
          "type": "address"
        },
        {
          "internalType": "contract IERC20",
          "name": "asset",
          "type": "address"
        },
        {
          "components": [
            {
              "internalType": "address",
              "name": "sender",
              "type": "address"
            },
            {
              "internalType": "address",
              "name": "recipient",
              "type": "address"
            },
            {
              "internalType": "uint128",
              "name": "totalAmount",
              "type": "uint128"
            },
            {
              "internalType": "bool",
              "name": "cancelable",
              "type": "bool"
            },
            {
              "internalType": "bool",
              "name": "transferable",
              "type": "bool"
            },
            {
              "components": [
                {
                  "internalType": "uint40",
                  "name": "start",
                  "type": "uint40"
                },
                {
                  "internalType": "uint40",
                  "name": "cliff",
                  "type": "uint40"
                },
                {
                  "internalType": "uint40",
                  "name": "end",
                  "type": "uint40"
                }
              ],
              "internalType": "struct LockupLinear.Range",
              "name": "range",
              "type": "tuple"
            },
            {
              "components": [
                {
                  "internalType": "address",
                  "name": "account",
                  "type": "address"
                },
                {
                  "internalType": "UD60x18",
                  "name": "fee",
                  "type": "uint256"
                }
              ],
              "internalType": "struct Broker",
              "name": "broker",
              "type": "tuple"
            }
          ],
          "internalType": "struct Batch.CreateWithRange[]",
          "name": "batch",
          "type": "tuple[]"
        }
      ],
      "name": "createWithRange",
      "outputs": [
        {
          "internalType": "uint256[]",
          "name": "streamIds",
          "type": "uint256[]"
        }
      ],
      "stateMutability": "nonpayable",
      "type": "function"
    }
  ],
  "bytecode": {
    "object": "0x6080806040523461001657611a6e908161001c8239f35b600080fdfe608080604052600436101561001357600080fd5b60003560e01c9081638c72706e14610c7d575080639b38b39a14610864578063bd4eb1a4146104ac5763e8d349611461004b57600080fd5b346104345760607ffffffffffffffffffffffffffffffffffffffffffffffffffffffffffffffffc360112610434576100826111c0565b61008a6110c7565b9060443567ffffffffffffffff808211610434573660238301121561043457816004013511610434573660246101208360040135028301011161043457806004013515610482576000805b8260040135821061044d5761010291508473ffffffffffffffffffffffffffffffffffffffff85166115a1565b61010f816004013561130a565b9160005b82600401358110610130576040518061012c8682611185565b0390f35b8060e0610145828660040135602488016111e3565b01610163606061015d84886004013560248a016111e3565b01611359565b90610176838760040135602489016111e3565b91610194602061018e868a6004013560248c016111e3565b01611366565b6101ae6101a9868a6004013560248c016111e3565b611366565b916fffffffffffffffffffffffffffffffff6101dd60406101d78960048e013560248f016111e3565b01611223565b73ffffffffffffffffffffffffffffffffffffffff61020c8c61015d60809c8260248f946004013591016111e3565b94816040519761021b89611240565b16875216602086015216604084015273ffffffffffffffffffffffffffffffffffffffff8b166060840152151586830152151560a082015260407fffffffffffffffffffffffffffffffffffffffffffffffffffffffffffffff608436030112610434576103c4926102c060e09360405161029581611279565b6102a160a08501611387565b81526102b060c0809501611387565b6020820152838501523690611399565b83830152604051957fab167ccc00000000000000000000000000000000000000000000000000000000875273ffffffffffffffffffffffffffffffffffffffff835116600488015273ffffffffffffffffffffffffffffffffffffffff60208401511660248801526fffffffffffffffffffffffffffffffff604084015116604488015273ffffffffffffffffffffffffffffffffffffffff60608401511660648801528201511515608487015260a0820151151560a4870152810151602064ffffffffff918281511660c489015201511660e486015201516101048401906020809173ffffffffffffffffffffffffffffffffffffffff81511684520151910152565b60208261014481600073ffffffffffffffffffffffffffffffffffffffff88165af1801561044157600090610409575b6001925061040282876113df565b5201610113565b506020823d602011610439575b81610423602093836112b1565b8101031261043457600191516103f4565b600080fd5b3d9150610416565b6040513d6000823e3d90fd5b6001906fffffffffffffffffffffffffffffffff61047860406101d786886004013560248a016111e3565b16019101906100d5565b60046040517f763e559d000000000000000000000000000000000000000000000000000000008152fd5b34610434576104ba366110ea565b909281156104825760009060005b838110610836575073ffffffffffffffffffffffffffffffffffffffff6104f291169184836115a1565b6104fb8261130a565b9260005b838110610514576040518061012c8782611185565b61051f818588611404565b60a001908685610530838284611404565b60200161053c90611359565b9381610549858286611404565b60600161055590611366565b85610561818488611404565b60e0810161056e91611444565b9561057a929197611404565b61058390611366565b968c87610591818684611404565b60800161059d90611223565b946105a792611404565b6040016105b390611359565b90604051986105c18a611240565b73ffffffffffffffffffffffffffffffffffffffff168952151560208901521515604088015273ffffffffffffffffffffffffffffffffffffffff1660608701526fffffffffffffffffffffffffffffffff16608086015273ffffffffffffffffffffffffffffffffffffffff861660a08601523661063f91611399565b60c0850152369061064f92611498565b60e083015260405180927f168444560000000000000000000000000000000000000000000000000000000082526004820160209052610144820190805173ffffffffffffffffffffffffffffffffffffffff166024840152602081015115156044840152604081015115156064840152606081015173ffffffffffffffffffffffffffffffffffffffff16608484015260808101516fffffffffffffffffffffffffffffffff1660a484015260a081015173ffffffffffffffffffffffffffffffffffffffff1660c484015260c081015160e4840161074d916020809173ffffffffffffffffffffffffffffffffffffffff81511684520151910152565b60e0015190610124830161012090528151809152610164830191602001906000905b8082106107db57505050908060209203816000885af18015610441576000906107a8575b600192506107a182886113df565b52016104ff565b506020823d6020116107d3575b816107c2602093836112b1565b810103126104345760019151610793565b3d91506107b5565b919350916020606082610828600194885164ffffffffff604080926fffffffffffffffffffffffffffffffff815116855267ffffffffffffffff6020820151166020860152015116910152565b01940192018593929161076f565b916001906fffffffffffffffffffffffffffffffff61085b60806101d787898c611404565b160192016104c8565b346104345760607ffffffffffffffffffffffffffffffffffffffffffffffffffffffffffffffffc3601126104345761089b6111c0565b6108a36110c7565b6044359167ffffffffffffffff8084116104345736602385011215610434578360040135116104345760248301903660246101408660040135028601011161043457836004013515610482576000805b85600401358210610c4b5761092091508473ffffffffffffffffffffffffffffffffffffffff84166115a1565b61092d846004013561130a565b9260005b8560040135811061094a576040518061012c8782611185565b808661010061095f87948360040135866113f3565b0183610975606061015d868660040135856113f3565b610998602061018e8761098d818960040135886113f3565b9760040135866113f3565b906fffffffffffffffffffffffffffffffff8c73ffffffffffffffffffffffffffffffffffffffff6109fe6109ea60406101d78c6109de6101a98260048a01358e6113f3565b9a8760040135906113f3565b9261015d8b60809d8e9360040135906113f3565b948160405197610a0d89611240565b16875216602086015216604084015273ffffffffffffffffffffffffffffffffffffffff88166060840152151586830152151560a082015260607fffffffffffffffffffffffffffffffffffffffffffffffffffffffffffffff60843603011261043457610bd392610ac260e093604051610a878161125d565b610a9360a08501611387565b8152610ab28660c095610aa7878201611387565b602085015201611387565b6040820152838501523690611399565b83830152604051957f96ce143100000000000000000000000000000000000000000000000000000000875273ffffffffffffffffffffffffffffffffffffffff835116600488015273ffffffffffffffffffffffffffffffffffffffff60208401511660248801526fffffffffffffffffffffffffffffffff604084015116604488015273ffffffffffffffffffffffffffffffffffffffff60608401511660648801528201511515608487015260a0820151151560a4870152810151604064ffffffffff918281511660c48901528260208201511660e489015201511661010486015201516101248401906020809173ffffffffffffffffffffffffffffffffffffffff81511684520151910152565b60208261016481600073ffffffffffffffffffffffffffffffffffffffff89165af1801561044157600090610c18575b60019250610c1182886113df565b5201610931565b506020823d602011610c43575b81610c32602093836112b1565b810103126104345760019151610c03565b3d9150610c25565b6001906fffffffffffffffffffffffffffffffff610c7360406101d7868b600401358a6113f3565b16019101906108f3565b3461043457610c8b366110ea565b929093831561109f57506000805b84821061107157610cc291508373ffffffffffffffffffffffffffffffffffffffff84166115a1565b610ccb8361130a565b9360005b848110610ce4576040518061012c8882611185565b60c0610cf1828785611549565b0190610d03604061015d838987611549565b91610d14608061018e848a88611549565b92610d2e610d23848a88611549565b610100810190611444565b9091610d3e6101a9868c8a611549565b936020610d4c878d8b611549565b01359464ffffffffff861686036104345788610d7f606061015d8f80610d7960a06101d78f80958a611549565b95611549565b96604051998a61012081011067ffffffffffffffff6101208d0111176110425773ffffffffffffffffffffffffffffffffffffffff908b99610e3a99989764ffffffffff6fffffffffffffffffffffffffffffffff96956101009f86610e2e9b9a61012083016040521690521660208d0152151560408c0152151560608b01521660808901521660a087015273ffffffffffffffffffffffffffffffffffffffff8b1660c08701523690611399565b60e08501523691611498565b838201526040519283917fc33cd35e0000000000000000000000000000000000000000000000000000000083526020600484015273ffffffffffffffffffffffffffffffffffffffff815116602484015264ffffffffff602082015116604484015260408101511515606484015260608101511515608484015273ffffffffffffffffffffffffffffffffffffffff60808201511660a48401526fffffffffffffffffffffffffffffffff60a08201511660c484015273ffffffffffffffffffffffffffffffffffffffff60c08201511660e4840152610f4360e08201516101048501906020809173ffffffffffffffffffffffffffffffffffffffff81511684520151910152565b0151610140610144830152805180610164840152602061018484019201906000905b808210610fe75750505090806020920381600073ffffffffffffffffffffffffffffffffffffffff89165af1801561044157600090610fb4575b60019250610fad82896113df565b5201610ccf565b506020823d602011610fdf575b81610fce602093836112b1565b810103126104345760019151610f9f565b3d9150610fc1565b919350916020606082611034600194885164ffffffffff604080926fffffffffffffffffffffffffffffffff815116855267ffffffffffffffff6020820151166020860152015116910152565b019401920185939291610f65565b7f4e487b7100000000000000000000000000000000000000000000000000000000600052604160045260246000fd5b6001906fffffffffffffffffffffffffffffffff61109560a06101d7868a8c611549565b1601910190610c99565b807f763e559d0000000000000000000000000000000000000000000000000000000060049252fd5b6024359073ffffffffffffffffffffffffffffffffffffffff8216820361043457565b9060607ffffffffffffffffffffffffffffffffffffffffffffffffffffffffffffffffc8301126104345773ffffffffffffffffffffffffffffffffffffffff91600435838116810361043457926024359081168103610434579160443567ffffffffffffffff9283821161043457806023830112156104345781600401359384116104345760248460051b83010111610434576024019190565b6020908160408183019282815285518094520193019160005b8281106111ac575050505090565b83518552938101939281019260010161119e565b6004359073ffffffffffffffffffffffffffffffffffffffff8216820361043457565b91908110156111f457610120020190565b7f4e487b7100000000000000000000000000000000000000000000000000000000600052603260045260246000fd5b356fffffffffffffffffffffffffffffffff811681036104345790565b610100810190811067ffffffffffffffff82111761104257604052565b6060810190811067ffffffffffffffff82111761104257604052565b6040810190811067ffffffffffffffff82111761104257604052565b6080810190811067ffffffffffffffff82111761104257604052565b90601f7fffffffffffffffffffffffffffffffffffffffffffffffffffffffffffffffe0910116810190811067ffffffffffffffff82111761104257604052565b67ffffffffffffffff81116110425760051b60200190565b90611314826112f2565b61132160405191826112b1565b8281527fffffffffffffffffffffffffffffffffffffffffffffffffffffffffffffffe061134f82946112f2565b0190602036910137565b3580151581036104345790565b3573ffffffffffffffffffffffffffffffffffffffff811681036104345790565b359064ffffffffff8216820361043457565b9190826040910312610434576040516113b181611279565b8092803573ffffffffffffffffffffffffffffffffffffffff81168103610434578252602090810135910152565b80518210156111f45760209160051b010190565b91908110156111f457610140020190565b91908110156111f45760051b810135907fffffffffffffffffffffffffffffffffffffffffffffffffffffffffffffff0181360301821215610434570190565b9035907fffffffffffffffffffffffffffffffffffffffffffffffffffffffffffffffe181360301821215610434570180359067ffffffffffffffff82116104345760200191606082023603831361043457565b9291926114a4826112f2565b6040946114b3865192836112b1565b8195848352602080930191606080960285019481861161043457925b8584106114df5750505050505050565b8684830312610434578251906114f48261125d565b84356fffffffffffffffffffffffffffffffff81168103610434578252858501359067ffffffffffffffff8216820361043457828792838b95015261153a868801611387565b868201528152019301926114cf565b91908110156111f45760051b810135907ffffffffffffffffffffffffffffffffffffffffffffffffffffffffffffffee181360301821215610434570190565b90816020910312610434575180151581036104345790565b604080517f23b872dd000000000000000000000000000000000000000000000000000000008152336004820152306024820152604480820186905273ffffffffffffffffffffffffffffffffffffffff8086169594602093600092908581606481878d5af180156117b75761178a575b508551917fdd62ed3e0000000000000000000000000000000000000000000000000000000083523060048401521690816024820152848185818b5afa90811561178057908991849161174b575b501061166f575b5050505050505050565b8451968280868a017f095ea7b3000000000000000000000000000000000000000000000000000000009b8c82528560248d0152878c0152868b526116b28b611295565b8a519082855af1906116c26118e1565b82611718575b508161170d575b5061166557611700976116fb95519485015260248401528183015281526116f581611295565b826117c1565b6117c1565b3880808080808080611665565b90503b1515386116cf565b809192505190868215928315611733575b50505090386116c8565b6117439350820181019101611589565b388681611729565b809250868092503d8311611779575b61176481836112b1565b81010312611775578890513861165e565b8280fd5b503d61175a565b86513d85823e3d90fd5b6117a990863d88116117b0575b6117a181836112b1565b810190611589565b5038611611565b503d611797565b87513d86823e3d90fd5b60405161182c9173ffffffffffffffffffffffffffffffffffffffff166117e782611279565b6000806020958685527f5361666545524332303a206c6f772d6c6576656c2063616c6c206661696c656487860152868151910182855af16118266118e1565b9161193f565b8051908282159283156118c9575b505050156118455750565b608490604051907f08c379a00000000000000000000000000000000000000000000000000000000082526004820152602a60248201527f5361666545524332303a204552433230206f7065726174696f6e20646964206e60448201527f6f742073756363656564000000000000000000000000000000000000000000006064820152fd5b6118d99350820181019101611589565b38828161183a565b3d1561193a573d9067ffffffffffffffff8211611042576040519161192e60207fffffffffffffffffffffffffffffffffffffffffffffffffffffffffffffffe0601f84011601846112b1565b82523d6000602084013e565b606090565b919290156119ba5750815115611953575090565b3b1561195c5790565b60646040517f08c379a000000000000000000000000000000000000000000000000000000000815260206004820152601d60248201527f416464726573733a2063616c6c20746f206e6f6e2d636f6e74726163740000006044820152fd5b8251909150156119cd5750805190602001fd5b604051907f08c379a000000000000000000000000000000000000000000000000000000000825281602080600483015282519283602484015260005b848110611a4a575050507fffffffffffffffffffffffffffffffffffffffffffffffffffffffffffffffe0601f836000604480968601015201168101030190fd5b818101830151868201604401528593508201611a0956fea164736f6c6343000815000a",
    "linkReferences": {}
  },
  "methodIdentifiers": {
    "createWithDeltas(address,address,(address,bool,bool,address,uint128,(address,uint256),(uint128,uint64,uint40)[])[])": "bd4eb1a4",
    "createWithDurations(address,address,(address,address,uint128,bool,bool,(uint40,uint40),(address,uint256))[])": "e8d34961",
    "createWithMilestones(address,address,(address,uint40,bool,bool,address,uint128,(address,uint256),(uint128,uint64,uint40)[])[])": "8c72706e",
    "createWithRange(address,address,(address,address,uint128,bool,bool,(uint40,uint40,uint40),(address,uint256))[])": "9b38b39a"
  },
  "id": 104
}