{"abi":[{"type":"function","name":"createWithDurationsLD","inputs":[{"name":"lockupDynamic","type":"address","internalType":"contract ISablierV2LockupDynamic"},{"name":"asset","type":"address","internalType":"contract IERC20"},{"name":"batch","type":"tuple[]","internalType":"struct BatchLockup.CreateWithDurationsLD[]","components":[{"name":"sender","type":"address","internalType":"address"},{"name":"recipient","type":"address","internalType":"address"},{"name":"totalAmount","type":"uint128","internalType":"uint128"},{"name":"cancelable","type":"bool","internalType":"bool"},{"name":"transferable","type":"bool","internalType":"bool"},{"name":"segments","type":"tuple[]","internalType":"struct LockupDynamic.SegmentWithDuration[]","components":[{"name":"amount","type":"uint128","internalType":"uint128"},{"name":"exponent","type":"uint64","internalType":"UD2x18"},{"name":"duration","type":"uint40","internalType":"uint40"}]},{"name":"broker","type":"tuple","internalType":"struct Broker","components":[{"name":"account","type":"address","internalType":"address"},{"name":"fee","type":"uint256","internalType":"UD60x18"}]}]}],"outputs":[{"name":"streamIds","type":"uint256[]","internalType":"uint256[]"}],"stateMutability":"nonpayable"},{"type":"function","name":"createWithDurationsLL","inputs":[{"name":"lockupLinear","type":"address","internalType":"contract ISablierV2LockupLinear"},{"name":"asset","type":"address","internalType":"contract IERC20"},{"name":"batch","type":"tuple[]","internalType":"struct BatchLockup.CreateWithDurationsLL[]","components":[{"name":"sender","type":"address","internalType":"address"},{"name":"recipient","type":"address","internalType":"address"},{"name":"totalAmount","type":"uint128","internalType":"uint128"},{"name":"cancelable","type":"bool","internalType":"bool"},{"name":"transferable","type":"bool","internalType":"bool"},{"name":"durations","type":"tuple","internalType":"struct LockupLinear.Durations","components":[{"name":"cliff","type":"uint40","internalType":"uint40"},{"name":"total","type":"uint40","internalType":"uint40"}]},{"name":"broker","type":"tuple","internalType":"struct Broker","components":[{"name":"account","type":"address","internalType":"address"},{"name":"fee","type":"uint256","internalType":"UD60x18"}]}]}],"outputs":[{"name":"streamIds","type":"uint256[]","internalType":"uint256[]"}],"stateMutability":"nonpayable"},{"type":"function","name":"createWithDurationsLT","inputs":[{"name":"lockupTranched","type":"address","internalType":"contract ISablierV2LockupTranched"},{"name":"asset","type":"address","internalType":"contract IERC20"},{"name":"batch","type":"tuple[]","internalType":"struct BatchLockup.CreateWithDurationsLT[]","components":[{"name":"sender","type":"address","internalType":"address"},{"name":"recipient","type":"address","internalType":"address"},{"name":"totalAmount","type":"uint128","internalType":"uint128"},{"name":"cancelable","type":"bool","internalType":"bool"},{"name":"transferable","type":"bool","internalType":"bool"},{"name":"tranches","type":"tuple[]","internalType":"struct LockupTranched.TrancheWithDuration[]","components":[{"name":"amount","type":"uint128","internalType":"uint128"},{"name":"duration","type":"uint40","internalType":"uint40"}]},{"name":"broker","type":"tuple","internalType":"struct Broker","components":[{"name":"account","type":"address","internalType":"address"},{"name":"fee","type":"uint256","internalType":"UD60x18"}]}]}],"outputs":[{"name":"streamIds","type":"uint256[]","internalType":"uint256[]"}],"stateMutability":"nonpayable"},{"type":"function","name":"createWithTimestampsLD","inputs":[{"name":"lockupDynamic","type":"address","internalType":"contract ISablierV2LockupDynamic"},{"name":"asset","type":"address","internalType":"contract IERC20"},{"name":"batch","type":"tuple[]","internalType":"struct BatchLockup.CreateWithTimestampsLD[]","components":[{"name":"sender","type":"address","internalType":"address"},{"name":"recipient","type":"address","internalType":"address"},{"name":"totalAmount","type":"uint128","internalType":"uint128"},{"name":"cancelable","type":"bool","internalType":"bool"},{"name":"transferable","type":"bool","internalType":"bool"},{"name":"startTime","type":"uint40","internalType":"uint40"},{"name":"segments","type":"tuple[]","internalType":"struct LockupDynamic.Segment[]","components":[{"name":"amount","type":"uint128","internalType":"uint128"},{"name":"exponent","type":"uint64","internalType":"UD2x18"},{"name":"timestamp","type":"uint40","internalType":"uint40"}]},{"name":"broker","type":"tuple","internalType":"struct Broker","components":[{"name":"account","type":"address","internalType":"address"},{"name":"fee","type":"uint256","internalType":"UD60x18"}]}]}],"outputs":[{"name":"streamIds","type":"uint256[]","internalType":"uint256[]"}],"stateMutability":"nonpayable"},{"type":"function","name":"createWithTimestampsLL","inputs":[{"name":"lockupLinear","type":"address","internalType":"contract ISablierV2LockupLinear"},{"name":"asset","type":"address","internalType":"contract IERC20"},{"name":"batch","type":"tuple[]","internalType":"struct BatchLockup.CreateWithTimestampsLL[]","components":[{"name":"sender","type":"address","internalType":"address"},{"name":"recipient","type":"address","internalType":"address"},{"name":"totalAmount","type":"uint128","internalType":"uint128"},{"name":"cancelable","type":"bool","internalType":"bool"},{"name":"transferable","type":"bool","internalType":"bool"},{"name":"timestamps","type":"tuple","internalType":"struct LockupLinear.Timestamps","components":[{"name":"start","type":"uint40","internalType":"uint40"},{"name":"cliff","type":"uint40","internalType":"uint40"},{"name":"end","type":"uint40","internalType":"uint40"}]},{"name":"broker","type":"tuple","internalType":"struct Broker","components":[{"name":"account","type":"address","internalType":"address"},{"name":"fee","type":"uint256","internalType":"UD60x18"}]}]}],"outputs":[{"name":"streamIds","type":"uint256[]","internalType":"uint256[]"}],"stateMutability":"nonpayable"},{"type":"function","name":"createWithTimestampsLT","inputs":[{"name":"lockupTranched","type":"address","internalType":"contract ISablierV2LockupTranched"},{"name":"asset","type":"address","internalType":"contract IERC20"},{"name":"batch","type":"tuple[]","internalType":"struct BatchLockup.CreateWithTimestampsLT[]","components":[{"name":"sender","type":"address","internalType":"address"},{"name":"recipient","type":"address","internalType":"address"},{"name":"totalAmount","type":"uint128","internalType":"uint128"},{"name":"cancelable","type":"bool","internalType":"bool"},{"name":"transferable","type":"bool","internalType":"bool"},{"name":"startTime","type":"uint40","internalType":"uint40"},{"name":"tranches","type":"tuple[]","internalType":"struct LockupTranched.Tranche[]","components":[{"name":"amount","type":"uint128","internalType":"uint128"},{"name":"timestamp","type":"uint40","internalType":"uint40"}]},{"name":"broker","type":"tuple","internalType":"struct Broker","components":[{"name":"account","type":"address","internalType":"address"},{"name":"fee","type":"uint256","internalType":"UD60x18"}]}]}],"outputs":[{"name":"streamIds","type":"uint256[]","internalType":"uint256[]"}],"stateMutability":"nonpayable"},{"type":"error","name":"AddressEmptyCode","inputs":[{"name":"target","type":"address","internalType":"address"}]},{"type":"error","name":"AddressInsufficientBalance","inputs":[{"name":"account","type":"address","internalType":"address"}]},{"type":"error","name":"FailedInnerCall","inputs":[]},{"type":"error","name":"SablierV2BatchLockup_BatchSizeZero","inputs":[]},{"type":"error","name":"SafeERC20FailedOperation","inputs":[{"name":"token","type":"address","internalType":"address"}]}],"bytecode":{"object":"0x60808060405234601557611e0a908161001a8239f35b5f80fdfe60806040526004361015610011575f80fd5b5f3560e01c806337266dd3146111a357806349a32c4014610e3e578063606ef87514610b025780639e743f29146107a6578063a514f83e1461040c5763f7ca34eb1461005b575f80fd5b3461033c5761006936611512565b91909282156103e4575f905f5b8481106103b057506001600160a01b036100939116918383611a7a565b61009c83611758565b926001600160a01b035f9316925b8181106100c357604051806100bf8782611587565b0390f35b6100ce818388611a17565b6100d7906117a7565b90826100e482828a611a17565b6020016100f0906117a7565b6100fb83838b611a17565b60400161010790611643565b9389610114858583611a17565b606001610120906117bb565b61012b868684611a17565b608001610137906117bb565b610142878785611a17565b60a00161014e90611a57565b918761015b818987611a17565b60c0810161016891611926565b98610174929196611a17565b60e0019360405195610185876116c6565b6001600160a01b0316865260208601966001600160a01b0316875260408601996fffffffffffffffffffffffffffffffff168a5260608601978d895260808701921515835260a08701931515845260c087019464ffffffffff16855236906101ec9261197a565b9360e08601948552366101fe916118c8565b966101008601978852604051998a977f31df3d480000000000000000000000000000000000000000000000000000000089526004890160209052610164890197516001600160a01b031660248a0152516001600160a01b03166044890152516fffffffffffffffffffffffffffffffff166064880152516001600160a01b0316608487015251151560a486015251151560c48501525164ffffffffff1660e48401525190610104830161014090528151809152610184830191602001905f905b808210610353575050925180516001600160a01b03166101248401526020908101516101448401529250819003815f885af18015610348575f90610312575b6001925061030b8288611901565b52016100aa565b506020823d8211610340575b8161032b602093836116ff565b8101031261033c57600191516102fd565b5f80fd5b3d915061031e565b6040513d5f823e3d90fd5b919493509160206060826103a1600194895164ffffffffff604080926fffffffffffffffffffffffffffffffff815116855267ffffffffffffffff6020820151166020860152015116910152565b019501920186939492916102be565b916001906fffffffffffffffffffffffffffffffff6103db60406103d5878a8c611a17565b01611643565b16019201610076565b7ff8bf106c000000000000000000000000000000000000000000000000000000005f5260045ffd5b3461033c5760607ffffffffffffffffffffffffffffffffffffffffffffffffffffffffffffffffc36011261033c576104436115c0565b61044b6114cb565b906044359167ffffffffffffffff831161033c573660238401121561033c5782600401359267ffffffffffffffff841161033c57602481019060243691610140870201011161033c5783156103e45790915f9190825b85811061077457506001600160a01b036104be9116928484611a7a565b6104c784611758565b926001600160a01b03165f5b8581106104e857604051806100bf8782611587565b6104fb6104f6828886611a69565b6117a7565b90610512602061050c838a88611a69565b016117a7565b878561052460406103d5868585611a69565b61053a6060610534878686611a69565b016117bb565b906101006105648761055d8188610557608061053484848d611a69565b98611a69565b968c611a69565b01906001600160a01b036040519861057b8a611660565b1688526001600160a01b0360208901961686526fffffffffffffffffffffffffffffffff6040890191168152606088019189835260808901931515845260a08901941515855260607fffffffffffffffffffffffffffffffffffffffffffffffffffffffffffffff60873603011261033c57604051956105fa876116e3565b61060660a08201611839565b875261061460c08201611839565b602088015260e00161062590611839565b604087015260c089019586523661063b916118c8565b9560e08901968752604051987f53b15727000000000000000000000000000000000000000000000000000000008a52516001600160a01b031660048a0152516001600160a01b03166024890152516fffffffffffffffffffffffffffffffff166044880152516001600160a01b03166064870152511515608486015251151560a485015251805164ffffffffff1660c4850152602081015164ffffffffff1660e48501526040015164ffffffffff1661010484015251610124830161071291602080916001600160a01b0381511684520151910152565b8180865a925f61016492602095f18015610348575f90610742575b6001925061073b8288611901565b52016104d3565b506020823d821161076c575b8161075b602093836116ff565b8101031261033c576001915161072d565b3d915061074e565b93926001906fffffffffffffffffffffffffffffffff61079a60406103d5898b89611a69565b160194019392936104a1565b3461033c576107b436611512565b91909282156103e4575f905f5b848110610ad457506001600160a01b036107de9116918383611a7a565b6107e783611758565b926001600160a01b035f9316925b81811061080a57604051806100bf8782611587565b610815818388611a17565b61081e906117a7565b908261082b82828a611a17565b602001610837906117a7565b61084283838b611a17565b60400161084e90611643565b938961085b858583611a17565b606001610867906117bb565b610872868684611a17565b60800161087e906117bb565b610889878785611a17565b60a00161089590611a57565b91876108a2818987611a17565b60c081016108af916117c8565b986108bb929196611a17565b60e00193604051956108cc876116c6565b6001600160a01b0316865260208601966001600160a01b0316875260408601996fffffffffffffffffffffffffffffffff168a5260608601978d895260808701921515835260a08701931515845260c087019464ffffffffff16855236906109339261184b565b9360e0860194855236610945916118c8565b966101008601978852604051998a977f32fbe22b0000000000000000000000000000000000000000000000000000000089526004890160209052610164890197516001600160a01b031660248a0152516001600160a01b03166044890152516fffffffffffffffffffffffffffffffff166064880152516001600160a01b0316608487015251151560a486015251151560c48501525164ffffffffff1660e48401525190610104830161014090528151809152610184830191602001905f905b808210610a8b575050925180516001600160a01b03166101248401526020908101516101448401529250819003815f885af18015610348575f90610a59575b60019250610a528288611901565b52016107f5565b506020823d8211610a83575b81610a72602093836116ff565b8101031261033c5760019151610a44565b3d9150610a65565b91949350916020604082610ac5600194895164ffffffffff602080926fffffffffffffffffffffffffffffffff8151168552015116910152565b01950192018693949291610a05565b916001906fffffffffffffffffffffffffffffffff610af960406103d5878a8c611a17565b160192016107c1565b3461033c57610b1036611512565b91909282156103e4575f905f5b848110610e1057506001600160a01b03610b3a9116918383611a7a565b610b4383611758565b926001600160a01b035f9316925b818110610b6657604051806100bf8782611587565b610b718183886115d6565b610b7a906117a7565b9082610b8782828a6115d6565b602001610b93906117a7565b610b9e83838b6115d6565b604001610baa90611643565b9389610bb78585836115d6565b606001610bc3906117bb565b610bce8686846115d6565b608001610bda906117bb565b9086610be78188866115d6565b60a08101610bf491611926565b97610c009291956115d6565b60c0019260405194610c1186611660565b6001600160a01b0316855260208501956001600160a01b0316865260408501986fffffffffffffffffffffffffffffffff16895260608501968c885260808601921515835260a0860193151584523690610c6a9261197a565b9260c0850193845236610c7c916118c8565b9560e085019687526040519889967f54c022920000000000000000000000000000000000000000000000000000000088526004880160209052610144880196516001600160a01b03166024890152516001600160a01b03166044880152516fffffffffffffffffffffffffffffffff166064870152516001600160a01b0316608486015251151560a485015251151560c4840152519060e4830161012090528151809152610164830191602001905f905b808210610db3575050925180516001600160a01b03166101048401526020908101516101248401529250819003815f885af18015610348575f90610d81575b60019250610d7a8288611901565b5201610b51565b506020823d8211610dab575b81610d9a602093836116ff565b8101031261033c5760019151610d6c565b3d9150610d8d565b91949350916020606082610e01600194895164ffffffffff604080926fffffffffffffffffffffffffffffffff815116855267ffffffffffffffff6020820151166020860152015116910152565b01950192018693949291610d2d565b916001906fffffffffffffffffffffffffffffffff610e3560406103d5878a8c6115d6565b16019201610b1d565b3461033c5760607ffffffffffffffffffffffffffffffffffffffffffffffffffffffffffffffffc36011261033c57610e756115c0565b610e7d6114cb565b906044359167ffffffffffffffff831161033c573660238401121561033c5782600401359267ffffffffffffffff841161033c57602481019060243691610120870201011161033c5783156103e45790915f9190825b85811061117157506001600160a01b03610ef09116928484611a7a565b610ef984611758565b926001600160a01b03165f5b858110610f1a57604051806100bf8782611587565b610f286104f6828886611915565b90610f39602061050c838a88611915565b8785610f4b60406103d5868585611915565b610f5b6060610534878686611915565b9060e0610f8487610f7d8188610f77608061053484848d611915565b98611915565b968c611915565b01906001600160a01b0360405198610f9b8a611660565b1688526001600160a01b0360208901961686526fffffffffffffffffffffffffffffffff6040890191168152606088019189835260808901931515845260a08901941515855260407fffffffffffffffffffffffffffffffffffffffffffffffffffffffffffffff60873603011261033c576040519561101a876116aa565b61102660a08201611839565b875260c00161103490611839565b602087015260c089019586523661104a916118c8565b9560e08901968752604051987fab167ccc000000000000000000000000000000000000000000000000000000008a52516001600160a01b031660048a0152516001600160a01b03166024890152516fffffffffffffffffffffffffffffffff166044880152516001600160a01b03166064870152511515608486015251151560a485015251805164ffffffffff1660c48501526020015164ffffffffff1660e484015251610104830161110f91602080916001600160a01b0381511684520151910152565b8180865a925f61014492602095f18015610348575f9061113f575b600192506111388288611901565b5201610f05565b506020823d8211611169575b81611158602093836116ff565b8101031261033c576001915161112a565b3d915061114b565b93926001906fffffffffffffffffffffffffffffffff61119760406103d5898b89611915565b16019401939293610ed3565b3461033c576111b136611512565b91909282156103e4575f905f5b84811061149d57506001600160a01b036111db9116918383611a7a565b6111e483611758565b926001600160a01b035f9316925b81811061120757604051806100bf8782611587565b6112128183886115d6565b61121b906117a7565b908261122882828a6115d6565b602001611234906117a7565b61123f83838b6115d6565b60400161124b90611643565b93896112588585836115d6565b606001611264906117bb565b61126f8686846115d6565b60800161127b906117bb565b90866112888188866115d6565b60a08101611295916117c8565b976112a19291956115d6565b60c00192604051946112b286611660565b6001600160a01b0316855260208501956001600160a01b0316865260408501986fffffffffffffffffffffffffffffffff16895260608501968c885260808601921515835260a086019315158452369061130b9261184b565b9260c085019384523661131d916118c8565b9560e085019687526040519889967f897f362b0000000000000000000000000000000000000000000000000000000088526004880160209052610144880196516001600160a01b03166024890152516001600160a01b03166044880152516fffffffffffffffffffffffffffffffff166064870152516001600160a01b0316608486015251151560a485015251151560c4840152519060e4830161012090528151809152610164830191602001905f905b808210611454575050925180516001600160a01b03166101048401526020908101516101248401529250819003815f885af18015610348575f90611422575b6001925061141b8288611901565b52016111f2565b506020823d821161144c575b8161143b602093836116ff565b8101031261033c576001915161140d565b3d915061142e565b9194935091602060408261148e600194895164ffffffffff602080926fffffffffffffffffffffffffffffffff8151168552015116910152565b019501920186939492916113ce565b916001906fffffffffffffffffffffffffffffffff6114c260406103d5878a8c6115d6565b160192016111be565b602435906001600160a01b038216820361033c57565b9181601f8401121561033c5782359167ffffffffffffffff831161033c576020808501948460051b01011161033c57565b60607ffffffffffffffffffffffffffffffffffffffffffffffffffffffffffffffffc82011261033c576004356001600160a01b038116810361033c57916024356001600160a01b038116810361033c57916044359067ffffffffffffffff821161033c57611583916004016114e1565b9091565b60206040818301928281528451809452019201905f5b8181106115aa5750505090565b825184526020938401939092019160010161159d565b600435906001600160a01b038216820361033c57565b91908110156116165760051b810135907fffffffffffffffffffffffffffffffffffffffffffffffffffffffffffffff018136030182121561033c570190565b7f4e487b71000000000000000000000000000000000000000000000000000000005f52603260045260245ffd5b356fffffffffffffffffffffffffffffffff8116810361033c5790565b610100810190811067ffffffffffffffff82111761167d57604052565b7f4e487b71000000000000000000000000000000000000000000000000000000005f52604160045260245ffd5b6040810190811067ffffffffffffffff82111761167d57604052565b610120810190811067ffffffffffffffff82111761167d57604052565b6060810190811067ffffffffffffffff82111761167d57604052565b90601f7fffffffffffffffffffffffffffffffffffffffffffffffffffffffffffffffe0910116810190811067ffffffffffffffff82111761167d57604052565b67ffffffffffffffff811161167d5760051b60200190565b9061176282611740565b61176f60405191826116ff565b8281527fffffffffffffffffffffffffffffffffffffffffffffffffffffffffffffffe061179d8294611740565b0190602036910137565b356001600160a01b038116810361033c5790565b35801515810361033c5790565b9035907fffffffffffffffffffffffffffffffffffffffffffffffffffffffffffffffe18136030182121561033c570180359067ffffffffffffffff821161033c57602001918160061b3603831361033c57565b35906fffffffffffffffffffffffffffffffff8216820361033c57565b359064ffffffffff8216820361033c57565b92919261185782611740565b9361186560405195866116ff565b602085848152019260061b82019181831161033c57925b8284106118895750505050565b60408483031261033c57602060409182516118a3816116aa565b6118ac8761181c565b81526118b9838801611839565b8382015281520193019261187c565b919082604091031261033c576040516118e0816116aa565b809280356001600160a01b038116810361033c578252602090810135910152565b80518210156116165760209160051b010190565b919081101561161657610120020190565b9035907fffffffffffffffffffffffffffffffffffffffffffffffffffffffffffffffe18136030182121561033c570180359067ffffffffffffffff821161033c5760200191606082023603831361033c57565b92919261198682611740565b9361199460405195866116ff565b606060208685815201930282019181831161033c57925b8284106119b85750505050565b60608483031261033c57604051906119cf826116e3565b6119d88561181c565b825260208501359067ffffffffffffffff8216820361033c5782602092836060950152611a0760408801611839565b60408201528152019301926119ab565b91908110156116165760051b810135907ffffffffffffffffffffffffffffffffffffffffffffffffffffffffffffffee18136030182121561033c570190565b3564ffffffffff8116810361033c5790565b919081101561161657610140020190565b9190611acf6040517f23b872dd00000000000000000000000000000000000000000000000000000000602082015233602482015230604482015283606482015260648152611ac96084826116ff565b82611c8f565b6001600160a01b0381166001600160a01b03604051947fdd62ed3e0000000000000000000000000000000000000000000000000000000086523060048701521693846024820152602081604481855afa80156103485784915f91611c42575b5010611b3b575b50505050565b5f806040519460208601907f095ea7b3000000000000000000000000000000000000000000000000000000008252876024880152604487015260448652611b836064876116ff565b85519082855af190611b93611d14565b82611c10575b5081611c05575b5015611bad575b80611b35565b611bf8611bfd93604051907f095ea7b300000000000000000000000000000000000000000000000000000000602083015260248201525f604482015260448152611ac96064826116ff565b611c8f565b5f8080611ba7565b90503b15155f611ba0565b80519192508115918215611c28575b5050905f611b99565b611c3b9250602080918301019101611c77565b5f80611c1f565b9150506020813d602011611c6f575b81611c5e602093836116ff565b8101031261033c578390515f611b2e565b3d9150611c51565b9081602091031261033c5751801515810361033c5790565b5f806001600160a01b03611cb893169360208151910182865af1611cb1611d14565b9083611d71565b8051908115159182611cf9575b5050611cce5750565b7f5274afe7000000000000000000000000000000000000000000000000000000005f5260045260245ffd5b611d0c9250602080918301019101611c77565b155f80611cc5565b3d15611d6c573d9067ffffffffffffffff821161167d5760405191611d6160207fffffffffffffffffffffffffffffffffffffffffffffffffffffffffffffffe0601f84011601846116ff565b82523d5f602084013e565b606090565b90611dae5750805115611d8657805190602001fd5b7f1425ea42000000000000000000000000000000000000000000000000000000005f5260045ffd5b81511580611df4575b611dbf575090565b6001600160a01b03907f9996b315000000000000000000000000000000000000000000000000000000005f521660045260245ffd5b50803b15611db756fea164736f6c634300081a000a","linkReferences":{}},"methodIdentifiers":{"createWithDurationsLD(address,address,(address,address,uint128,bool,bool,(uint128,uint64,uint40)[],(address,uint256))[])":"606ef875","createWithDurationsLL(address,address,(address,address,uint128,bool,bool,(uint40,uint40),(address,uint256))[])":"49a32c40","createWithDurationsLT(address,address,(address,address,uint128,bool,bool,(uint128,uint40)[],(address,uint256))[])":"37266dd3","createWithTimestampsLD(address,address,(address,address,uint128,bool,bool,uint40,(uint128,uint64,uint40)[],(address,uint256))[])":"f7ca34eb","createWithTimestampsLL(address,address,(address,address,uint128,bool,bool,(uint40,uint40,uint40),(address,uint256))[])":"a514f83e","createWithTimestampsLT(address,address,(address,address,uint128,bool,bool,uint40,(uint128,uint40)[],(address,uint256))[])":"9e743f29"},"id":97}