{"abi":[{"type":"constructor","inputs":[{"name":"initialAdmin","type":"address","internalType":"address"},{"name":"initialNFTDescriptor","type":"address","internalType":"contract IFlowNFTDescriptor"}],"stateMutability":"nonpayable"},{"type":"function","name":"MAX_FEE","inputs":[],"outputs":[{"name":"","type":"uint256","internalType":"UD60x18"}],"stateMutability":"view"},{"type":"function","name":"adjustRatePerSecond","inputs":[{"name":"streamId","type":"uint256","internalType":"uint256"},{"name":"newRatePerSecond","type":"uint128","internalType":"UD21x18"}],"outputs":[],"stateMutability":"nonpayable"},{"type":"function","name":"admin","inputs":[],"outputs":[{"name":"","type":"address","internalType":"address"}],"stateMutability":"view"},{"type":"function","name":"aggregateBalance","inputs":[{"name":"token","type":"address","internalType":"contract IERC20"}],"outputs":[{"name":"amount","type":"uint256","internalType":"uint256"}],"stateMutability":"view"},{"type":"function","name":"approve","inputs":[{"name":"to","type":"address","internalType":"address"},{"name":"tokenId","type":"uint256","internalType":"uint256"}],"outputs":[],"stateMutability":"nonpayable"},{"type":"function","name":"balanceOf","inputs":[{"name":"owner","type":"address","internalType":"address"}],"outputs":[{"name":"","type":"uint256","internalType":"uint256"}],"stateMutability":"view"},{"type":"function","name":"batch","inputs":[{"name":"calls","type":"bytes[]","internalType":"bytes[]"}],"outputs":[],"stateMutability":"nonpayable"},{"type":"function","name":"collectProtocolRevenue","inputs":[{"name":"token","type":"address","internalType":"contract IERC20"},{"name":"to","type":"address","internalType":"address"}],"outputs":[],"stateMutability":"nonpayable"},{"type":"function","name":"coveredDebtOf","inputs":[{"name":"streamId","type":"uint256","internalType":"uint256"}],"outputs":[{"name":"coveredDebt","type":"uint128","internalType":"uint128"}],"stateMutability":"view"},{"type":"function","name":"create","inputs":[{"name":"sender","type":"address","internalType":"address"},{"name":"recipient","type":"address","internalType":"address"},{"name":"ratePerSecond","type":"uint128","internalType":"UD21x18"},{"name":"token","type":"address","internalType":"contract IERC20"},{"name":"transferable","type":"bool","internalType":"bool"}],"outputs":[{"name":"streamId","type":"uint256","internalType":"uint256"}],"stateMutability":"nonpayable"},{"type":"function","name":"createAndDeposit","inputs":[{"name":"sender","type":"address","internalType":"address"},{"name":"recipient","type":"address","internalType":"address"},{"name":"ratePerSecond","type":"uint128","internalType":"UD21x18"},{"name":"token","type":"address","internalType":"contract IERC20"},{"name":"transferable","type":"bool","internalType":"bool"},{"name":"amount","type":"uint128","internalType":"uint128"}],"outputs":[{"name":"streamId","type":"uint256","internalType":"uint256"}],"stateMutability":"nonpayable"},{"type":"function","name":"depletionTimeOf","inputs":[{"name":"streamId","type":"uint256","internalType":"uint256"}],"outputs":[{"name":"depletionTime","type":"uint256","internalType":"uint256"}],"stateMutability":"view"},{"type":"function","name":"deposit","inputs":[{"name":"streamId","type":"uint256","internalType":"uint256"},{"name":"amount","type":"uint128","internalType":"uint128"},{"name":"sender","type":"address","internalType":"address"},{"name":"recipient","type":"address","internalType":"address"}],"outputs":[],"stateMutability":"nonpayable"},{"type":"function","name":"depositAndPause","inputs":[{"name":"streamId","type":"uint256","internalType":"uint256"},{"name":"amount","type":"uint128","internalType":"uint128"}],"outputs":[],"stateMutability":"nonpayable"},{"type":"function","name":"depositViaBroker","inputs":[{"name":"streamId","type":"uint256","internalType":"uint256"},{"name":"totalAmount","type":"uint128","internalType":"uint128"},{"name":"sender","type":"address","internalType":"address"},{"name":"recipient","type":"address","internalType":"address"},{"name":"broker","type":"tuple","internalType":"struct Broker","components":[{"name":"account","type":"address","internalType":"address"},{"name":"fee","type":"uint256","internalType":"UD60x18"}]}],"outputs":[],"stateMutability":"nonpayable"},{"type":"function","name":"getApproved","inputs":[{"name":"tokenId","type":"uint256","internalType":"uint256"}],"outputs":[{"name":"","type":"address","internalType":"address"}],"stateMutability":"view"},{"type":"function","name":"getBalance","inputs":[{"name":"streamId","type":"uint256","internalType":"uint256"}],"outputs":[{"name":"balance","type":"uint128","internalType":"uint128"}],"stateMutability":"view"},{"type":"function","name":"getRatePerSecond","inputs":[{"name":"streamId","type":"uint256","internalType":"uint256"}],"outputs":[{"name":"ratePerSecond","type":"uint128","internalType":"UD21x18"}],"stateMutability":"view"},{"type":"function","name":"getRecipient","inputs":[{"name":"streamId","type":"uint256","internalType":"uint256"}],"outputs":[{"name":"recipient","type":"address","internalType":"address"}],"stateMutability":"view"},{"type":"function","name":"getSender","inputs":[{"name":"streamId","type":"uint256","internalType":"uint256"}],"outputs":[{"name":"sender","type":"address","internalType":"address"}],"stateMutability":"view"},{"type":"function","name":"getSnapshotDebtScaled","inputs":[{"name":"streamId","type":"uint256","internalType":"uint256"}],"outputs":[{"name":"snapshotDebtScaled","type":"uint256","internalType":"uint256"}],"stateMutability":"view"},{"type":"function","name":"getSnapshotTime","inputs":[{"name":"streamId","type":"uint256","internalType":"uint256"}],"outputs":[{"name":"snapshotTime","type":"uint40","internalType":"uint40"}],"stateMutability":"view"},{"type":"function","name":"getStream","inputs":[{"name":"streamId","type":"uint256","internalType":"uint256"}],"outputs":[{"name":"stream","type":"tuple","internalType":"struct Flow.Stream","components":[{"name":"balance","type":"uint128","internalType":"uint128"},{"name":"ratePerSecond","type":"uint128","internalType":"UD21x18"},{"name":"sender","type":"address","internalType":"address"},{"name":"snapshotTime","type":"uint40","internalType":"uint40"},{"name":"isStream","type":"bool","internalType":"bool"},{"name":"isTransferable","type":"bool","internalType":"bool"},{"name":"isVoided","type":"bool","internalType":"bool"},{"name":"token","type":"address","internalType":"contract IERC20"},{"name":"tokenDecimals","type":"uint8","internalType":"uint8"},{"name":"snapshotDebtScaled","type":"uint256","internalType":"uint256"}]}],"stateMutability":"view"},{"type":"function","name":"getToken","inputs":[{"name":"streamId","type":"uint256","internalType":"uint256"}],"outputs":[{"name":"token","type":"address","internalType":"contract IERC20"}],"stateMutability":"view"},{"type":"function","name":"getTokenDecimals","inputs":[{"name":"streamId","type":"uint256","internalType":"uint256"}],"outputs":[{"name":"tokenDecimals","type":"uint8","internalType":"uint8"}],"stateMutability":"view"},{"type":"function","name":"isApprovedForAll","inputs":[{"name":"owner","type":"address","internalType":"address"},{"name":"operator","type":"address","internalType":"address"}],"outputs":[{"name":"","type":"bool","internalType":"bool"}],"stateMutability":"view"},{"type":"function","name":"isPaused","inputs":[{"name":"streamId","type":"uint256","internalType":"uint256"}],"outputs":[{"name":"result","type":"bool","internalType":"bool"}],"stateMutability":"view"},{"type":"function","name":"isStream","inputs":[{"name":"streamId","type":"uint256","internalType":"uint256"}],"outputs":[{"name":"result","type":"bool","internalType":"bool"}],"stateMutability":"view"},{"type":"function","name":"isTransferable","inputs":[{"name":"streamId","type":"uint256","internalType":"uint256"}],"outputs":[{"name":"result","type":"bool","internalType":"bool"}],"stateMutability":"view"},{"type":"function","name":"isVoided","inputs":[{"name":"streamId","type":"uint256","internalType":"uint256"}],"outputs":[{"name":"result","type":"bool","internalType":"bool"}],"stateMutability":"view"},{"type":"function","name":"name","inputs":[],"outputs":[{"name":"","type":"string","internalType":"string"}],"stateMutability":"view"},{"type":"function","name":"nextStreamId","inputs":[],"outputs":[{"name":"","type":"uint256","internalType":"uint256"}],"stateMutability":"view"},{"type":"function","name":"nftDescriptor","inputs":[],"outputs":[{"name":"","type":"address","internalType":"contract IFlowNFTDescriptor"}],"stateMutability":"view"},{"type":"function","name":"ongoingDebtScaledOf","inputs":[{"name":"streamId","type":"uint256","internalType":"uint256"}],"outputs":[{"name":"ongoingDebtScaled","type":"uint256","internalType":"uint256"}],"stateMutability":"view"},{"type":"function","name":"ownerOf","inputs":[{"name":"tokenId","type":"uint256","internalType":"uint256"}],"outputs":[{"name":"","type":"address","internalType":"address"}],"stateMutability":"view"},{"type":"function","name":"pause","inputs":[{"name":"streamId","type":"uint256","internalType":"uint256"}],"outputs":[],"stateMutability":"nonpayable"},{"type":"function","name":"protocolFee","inputs":[{"name":"token","type":"address","internalType":"contract IERC20"}],"outputs":[{"name":"fee","type":"uint256","internalType":"UD60x18"}],"stateMutability":"view"},{"type":"function","name":"protocolRevenue","inputs":[{"name":"token","type":"address","internalType":"contract IERC20"}],"outputs":[{"name":"revenue","type":"uint128","internalType":"uint128"}],"stateMutability":"view"},{"type":"function","name":"recover","inputs":[{"name":"token","type":"address","internalType":"contract IERC20"},{"name":"to","type":"address","internalType":"address"}],"outputs":[],"stateMutability":"nonpayable"},{"type":"function","name":"refund","inputs":[{"name":"streamId","type":"uint256","internalType":"uint256"},{"name":"amount","type":"uint128","internalType":"uint128"}],"outputs":[],"stateMutability":"nonpayable"},{"type":"function","name":"refundAndPause","inputs":[{"name":"streamId","type":"uint256","internalType":"uint256"},{"name":"amount","type":"uint128","internalType":"uint128"}],"outputs":[],"stateMutability":"nonpayable"},{"type":"function","name":"refundMax","inputs":[{"name":"streamId","type":"uint256","internalType":"uint256"}],"outputs":[],"stateMutability":"nonpayable"},{"type":"function","name":"refundableAmountOf","inputs":[{"name":"streamId","type":"uint256","internalType":"uint256"}],"outputs":[{"name":"refundableAmount","type":"uint128","internalType":"uint128"}],"stateMutability":"view"},{"type":"function","name":"restart","inputs":[{"name":"streamId","type":"uint256","internalType":"uint256"},{"name":"ratePerSecond","type":"uint128","internalType":"UD21x18"}],"outputs":[],"stateMutability":"nonpayable"},{"type":"function","name":"restartAndDeposit","inputs":[{"name":"streamId","type":"uint256","internalType":"uint256"},{"name":"ratePerSecond","type":"uint128","internalType":"UD21x18"},{"name":"amount","type":"uint128","internalType":"uint128"}],"outputs":[],"stateMutability":"nonpayable"},{"type":"function","name":"safeTransferFrom","inputs":[{"name":"from","type":"address","internalType":"address"},{"name":"to","type":"address","internalType":"address"},{"name":"tokenId","type":"uint256","internalType":"uint256"}],"outputs":[],"stateMutability":"nonpayable"},{"type":"function","name":"safeTransferFrom","inputs":[{"name":"from","type":"address","internalType":"address"},{"name":"to","type":"address","internalType":"address"},{"name":"tokenId","type":"uint256","internalType":"uint256"},{"name":"data","type":"bytes","internalType":"bytes"}],"outputs":[],"stateMutability":"nonpayable"},{"type":"function","name":"setApprovalForAll","inputs":[{"name":"operator","type":"address","internalType":"address"},{"name":"approved","type":"bool","internalType":"bool"}],"outputs":[],"stateMutability":"nonpayable"},{"type":"function","name":"setNFTDescriptor","inputs":[{"name":"newNFTDescriptor","type":"address","internalType":"contract IFlowNFTDescriptor"}],"outputs":[],"stateMutability":"nonpayable"},{"type":"function","name":"setProtocolFee","inputs":[{"name":"token","type":"address","internalType":"contract IERC20"},{"name":"newProtocolFee","type":"uint256","internalType":"UD60x18"}],"outputs":[],"stateMutability":"nonpayable"},{"type":"function","name":"statusOf","inputs":[{"name":"streamId","type":"uint256","internalType":"uint256"}],"outputs":[{"name":"status","type":"uint8","internalType":"enum Flow.Status"}],"stateMutability":"view"},{"type":"function","name":"supportsInterface","inputs":[{"name":"interfaceId","type":"bytes4","internalType":"bytes4"}],"outputs":[{"name":"","type":"bool","internalType":"bool"}],"stateMutability":"view"},{"type":"function","name":"symbol","inputs":[],"outputs":[{"name":"","type":"string","internalType":"string"}],"stateMutability":"view"},{"type":"function","name":"tokenURI","inputs":[{"name":"streamId","type":"uint256","internalType":"uint256"}],"outputs":[{"name":"uri","type":"string","internalType":"string"}],"stateMutability":"view"},{"type":"function","name":"totalDebtOf","inputs":[{"name":"streamId","type":"uint256","internalType":"uint256"}],"outputs":[{"name":"totalDebt","type":"uint256","internalType":"uint256"}],"stateMutability":"view"},{"type":"function","name":"transferAdmin","inputs":[{"name":"newAdmin","type":"address","internalType":"address"}],"outputs":[],"stateMutability":"nonpayable"},{"type":"function","name":"transferFrom","inputs":[{"name":"from","type":"address","internalType":"address"},{"name":"to","type":"address","internalType":"address"},{"name":"tokenId","type":"uint256","internalType":"uint256"}],"outputs":[],"stateMutability":"nonpayable"},{"type":"function","name":"uncoveredDebtOf","inputs":[{"name":"streamId","type":"uint256","internalType":"uint256"}],"outputs":[{"name":"uncoveredDebt","type":"uint256","internalType":"uint256"}],"stateMutability":"view"},{"type":"function","name":"void","inputs":[{"name":"streamId","type":"uint256","internalType":"uint256"}],"outputs":[],"stateMutability":"nonpayable"},{"type":"function","name":"withdraw","inputs":[{"name":"streamId","type":"uint256","internalType":"uint256"},{"name":"to","type":"address","internalType":"address"},{"name":"amount","type":"uint128","internalType":"uint128"}],"outputs":[{"name":"withdrawnAmount","type":"uint128","internalType":"uint128"},{"name":"protocolFeeAmount","type":"uint128","internalType":"uint128"}],"stateMutability":"nonpayable"},{"type":"function","name":"withdrawMax","inputs":[{"name":"streamId","type":"uint256","internalType":"uint256"},{"name":"to","type":"address","internalType":"address"}],"outputs":[{"name":"withdrawnAmount","type":"uint128","internalType":"uint128"},{"name":"protocolFeeAmount","type":"uint128","internalType":"uint128"}],"stateMutability":"nonpayable"},{"type":"function","name":"withdrawableAmountOf","inputs":[{"name":"streamId","type":"uint256","internalType":"uint256"}],"outputs":[{"name":"withdrawableAmount","type":"uint128","internalType":"uint128"}],"stateMutability":"view"},{"type":"event","name":"AdjustFlowStream","inputs":[{"name":"streamId","type":"uint256","indexed":true,"internalType":"uint256"},{"name":"totalDebt","type":"uint256","indexed":false,"internalType":"uint256"},{"name":"oldRatePerSecond","type":"uint128","indexed":false,"internalType":"UD21x18"},{"name":"newRatePerSecond","type":"uint128","indexed":false,"internalType":"UD21x18"}],"anonymous":false},{"type":"event","name":"Approval","inputs":[{"name":"owner","type":"address","indexed":true,"internalType":"address"},{"name":"approved","type":"address","indexed":true,"internalType":"address"},{"name":"tokenId","type":"uint256","indexed":true,"internalType":"uint256"}],"anonymous":false},{"type":"event","name":"ApprovalForAll","inputs":[{"name":"owner","type":"address","indexed":true,"internalType":"address"},{"name":"operator","type":"address","indexed":true,"internalType":"address"},{"name":"approved","type":"bool","indexed":false,"internalType":"bool"}],"anonymous":false},{"type":"event","name":"BatchMetadataUpdate","inputs":[{"name":"_fromTokenId","type":"uint256","indexed":false,"internalType":"uint256"},{"name":"_toTokenId","type":"uint256","indexed":false,"internalType":"uint256"}],"anonymous":false},{"type":"event","name":"CollectProtocolRevenue","inputs":[{"name":"admin","type":"address","indexed":true,"internalType":"address"},{"name":"token","type":"address","indexed":true,"internalType":"contract IERC20"},{"name":"to","type":"address","indexed":false,"internalType":"address"},{"name":"revenue","type":"uint128","indexed":false,"internalType":"uint128"}],"anonymous":false},{"type":"event","name":"CreateFlowStream","inputs":[{"name":"streamId","type":"uint256","indexed":false,"internalType":"uint256"},{"name":"sender","type":"address","indexed":true,"internalType":"address"},{"name":"recipient","type":"address","indexed":true,"internalType":"address"},{"name":"ratePerSecond","type":"uint128","indexed":false,"internalType":"UD21x18"},{"name":"token","type":"address","indexed":true,"internalType":"contract IERC20"},{"name":"transferable","type":"bool","indexed":false,"internalType":"bool"}],"anonymous":false},{"type":"event","name":"DepositFlowStream","inputs":[{"name":"streamId","type":"uint256","indexed":true,"internalType":"uint256"},{"name":"funder","type":"address","indexed":true,"internalType":"address"},{"name":"amount","type":"uint128","indexed":false,"internalType":"uint128"}],"anonymous":false},{"type":"event","name":"MetadataUpdate","inputs":[{"name":"_tokenId","type":"uint256","indexed":false,"internalType":"uint256"}],"anonymous":false},{"type":"event","name":"PauseFlowStream","inputs":[{"name":"streamId","type":"uint256","indexed":true,"internalType":"uint256"},{"name":"sender","type":"address","indexed":true,"internalType":"address"},{"name":"recipient","type":"address","indexed":true,"internalType":"address"},{"name":"totalDebt","type":"uint256","indexed":false,"internalType":"uint256"}],"anonymous":false},{"type":"event","name":"Recover","inputs":[{"name":"admin","type":"address","indexed":true,"internalType":"address"},{"name":"token","type":"address","indexed":true,"internalType":"contract IERC20"},{"name":"to","type":"address","indexed":false,"internalType":"address"},{"name":"surplus","type":"uint256","indexed":false,"internalType":"uint256"}],"anonymous":false},{"type":"event","name":"RefundFromFlowStream","inputs":[{"name":"streamId","type":"uint256","indexed":true,"internalType":"uint256"},{"name":"sender","type":"address","indexed":true,"internalType":"address"},{"name":"amount","type":"uint128","indexed":false,"internalType":"uint128"}],"anonymous":false},{"type":"event","name":"RestartFlowStream","inputs":[{"name":"streamId","type":"uint256","indexed":true,"internalType":"uint256"},{"name":"sender","type":"address","indexed":true,"internalType":"address"},{"name":"ratePerSecond","type":"uint128","indexed":false,"internalType":"UD21x18"}],"anonymous":false},{"type":"event","name":"SetNFTDescriptor","inputs":[{"name":"admin","type":"address","indexed":true,"internalType":"address"},{"name":"oldNFTDescriptor","type":"address","indexed":false,"internalType":"contract IFlowNFTDescriptor"},{"name":"newNFTDescriptor","type":"address","indexed":false,"internalType":"contract IFlowNFTDescriptor"}],"anonymous":false},{"type":"event","name":"SetProtocolFee","inputs":[{"name":"admin","type":"address","indexed":true,"internalType":"address"},{"name":"token","type":"address","indexed":true,"internalType":"contract IERC20"},{"name":"oldProtocolFee","type":"uint256","indexed":false,"internalType":"UD60x18"},{"name":"newProtocolFee","type":"uint256","indexed":false,"internalType":"UD60x18"}],"anonymous":false},{"type":"event","name":"Transfer","inputs":[{"name":"from","type":"address","indexed":true,"internalType":"address"},{"name":"to","type":"address","indexed":true,"internalType":"address"},{"name":"tokenId","type":"uint256","indexed":true,"internalType":"uint256"}],"anonymous":false},{"type":"event","name":"TransferAdmin","inputs":[{"name":"oldAdmin","type":"address","indexed":true,"internalType":"address"},{"name":"newAdmin","type":"address","indexed":true,"internalType":"address"}],"anonymous":false},{"type":"event","name":"VoidFlowStream","inputs":[{"name":"streamId","type":"uint256","indexed":true,"internalType":"uint256"},{"name":"sender","type":"address","indexed":true,"internalType":"address"},{"name":"recipient","type":"address","indexed":true,"internalType":"address"},{"name":"caller","type":"address","indexed":false,"internalType":"address"},{"name":"newTotalDebt","type":"uint256","indexed":false,"internalType":"uint256"},{"name":"writtenOffDebt","type":"uint256","indexed":false,"internalType":"uint256"}],"anonymous":false},{"type":"event","name":"WithdrawFromFlowStream","inputs":[{"name":"streamId","type":"uint256","indexed":true,"internalType":"uint256"},{"name":"to","type":"address","indexed":true,"internalType":"address"},{"name":"token","type":"address","indexed":true,"internalType":"contract IERC20"},{"name":"caller","type":"address","indexed":false,"internalType":"address"},{"name":"withdrawAmount","type":"uint128","indexed":false,"internalType":"uint128"},{"name":"protocolFeeAmount","type":"uint128","indexed":false,"internalType":"uint128"}],"anonymous":false},{"type":"error","name":"AddressEmptyCode","inputs":[{"name":"target","type":"address","internalType":"address"}]},{"type":"error","name":"AddressInsufficientBalance","inputs":[{"name":"account","type":"address","internalType":"address"}]},{"type":"error","name":"BatchError","inputs":[{"name":"errorData","type":"bytes","internalType":"bytes"}]},{"type":"error","name":"CallerNotAdmin","inputs":[{"name":"admin","type":"address","internalType":"address"},{"name":"caller","type":"address","internalType":"address"}]},{"type":"error","name":"DelegateCall","inputs":[]},{"type":"error","name":"ERC721IncorrectOwner","inputs":[{"name":"sender","type":"address","internalType":"address"},{"name":"tokenId","type":"uint256","internalType":"uint256"},{"name":"owner","type":"address","internalType":"address"}]},{"type":"error","name":"ERC721InsufficientApproval","inputs":[{"name":"operator","type":"address","internalType":"address"},{"name":"tokenId","type":"uint256","internalType":"uint256"}]},{"type":"error","name":"ERC721InvalidApprover","inputs":[{"name":"approver","type":"address","internalType":"address"}]},{"type":"error","name":"ERC721InvalidOperator","inputs":[{"name":"operator","type":"address","internalType":"address"}]},{"type":"error","name":"ERC721InvalidOwner","inputs":[{"name":"owner","type":"address","internalType":"address"}]},{"type":"error","name":"ERC721InvalidReceiver","inputs":[{"name":"receiver","type":"address","internalType":"address"}]},{"type":"error","name":"ERC721InvalidSender","inputs":[{"name":"sender","type":"address","internalType":"address"}]},{"type":"error","name":"ERC721NonexistentToken","inputs":[{"name":"tokenId","type":"uint256","internalType":"uint256"}]},{"type":"error","name":"FailedInnerCall","inputs":[]},{"type":"error","name":"PRBMath_MulDiv18_Overflow","inputs":[{"name":"x","type":"uint256","internalType":"uint256"},{"name":"y","type":"uint256","internalType":"uint256"}]},{"type":"error","name":"PRBMath_UD60x18_IntoUint128_Overflow","inputs":[{"name":"x","type":"uint256","internalType":"UD60x18"}]},{"type":"error","name":"SablierFlowBase_NoProtocolRevenue","inputs":[{"name":"token","type":"address","internalType":"address"}]},{"type":"error","name":"SablierFlowBase_NotTransferable","inputs":[{"name":"streamId","type":"uint256","internalType":"uint256"}]},{"type":"error","name":"SablierFlowBase_ProtocolFeeTooHigh","inputs":[{"name":"newProtocolFee","type":"uint256","internalType":"UD60x18"},{"name":"maxFee","type":"uint256","internalType":"UD60x18"}]},{"type":"error","name":"SablierFlowBase_SurplusZero","inputs":[{"name":"token","type":"address","internalType":"address"}]},{"type":"error","name":"SablierFlow_BrokerAddressZero","inputs":[]},{"type":"error","name":"SablierFlow_BrokerFeeTooHigh","inputs":[{"name":"brokerFee","type":"uint256","internalType":"UD60x18"},{"name":"maxFee","type":"uint256","internalType":"UD60x18"}]},{"type":"error","name":"SablierFlow_DepositAmountZero","inputs":[{"name":"streamId","type":"uint256","internalType":"uint256"}]},{"type":"error","name":"SablierFlow_InvalidCalculation","inputs":[{"name":"streamId","type":"uint256","internalType":"uint256"},{"name":"availableAmount","type":"uint128","internalType":"uint128"},{"name":"amount","type":"uint128","internalType":"uint128"}]},{"type":"error","name":"SablierFlow_InvalidTokenDecimals","inputs":[{"name":"token","type":"address","internalType":"address"}]},{"type":"error","name":"SablierFlow_NotStreamRecipient","inputs":[{"name":"recipient","type":"address","internalType":"address"},{"name":"streamRecipient","type":"address","internalType":"address"}]},{"type":"error","name":"SablierFlow_NotStreamSender","inputs":[{"name":"sender","type":"address","internalType":"address"},{"name":"streamSender","type":"address","internalType":"address"}]},{"type":"error","name":"SablierFlow_Null","inputs":[{"name":"streamId","type":"uint256","internalType":"uint256"}]},{"type":"error","name":"SablierFlow_Overdraw","inputs":[{"name":"streamId","type":"uint256","internalType":"uint256"},{"name":"amount","type":"uint128","internalType":"uint128"},{"name":"withdrawableAmount","type":"uint128","internalType":"uint128"}]},{"type":"error","name":"SablierFlow_RatePerSecondNotDifferent","inputs":[{"name":"streamId","type":"uint256","internalType":"uint256"},{"name":"ratePerSecond","type":"uint128","internalType":"UD21x18"}]},{"type":"error","name":"SablierFlow_RefundAmountZero","inputs":[{"name":"streamId","type":"uint256","internalType":"uint256"}]},{"type":"error","name":"SablierFlow_RefundOverflow","inputs":[{"name":"streamId","type":"uint256","internalType":"uint256"},{"name":"refundAmount","type":"uint128","internalType":"uint128"},{"name":"refundableAmount","type":"uint128","internalType":"uint128"}]},{"type":"error","name":"SablierFlow_SenderZeroAddress","inputs":[]},{"type":"error","name":"SablierFlow_StreamBalanceZero","inputs":[{"name":"streamId","type":"uint256","internalType":"uint256"}]},{"type":"error","name":"SablierFlow_StreamNotPaused","inputs":[{"name":"streamId","type":"uint256","internalType":"uint256"}]},{"type":"error","name":"SablierFlow_StreamPaused","inputs":[{"name":"streamId","type":"uint256","internalType":"uint256"}]},{"type":"error","name":"SablierFlow_StreamVoided","inputs":[{"name":"streamId","type":"uint256","internalType":"uint256"}]},{"type":"error","name":"SablierFlow_Unauthorized","inputs":[{"name":"streamId","type":"uint256","internalType":"uint256"},{"name":"caller","type":"address","internalType":"address"}]},{"type":"error","name":"SablierFlow_WithdrawAmountZero","inputs":[{"name":"streamId","type":"uint256","internalType":"uint256"}]},{"type":"error","name":"SablierFlow_WithdrawToZeroAddress","inputs":[{"name":"streamId","type":"uint256","internalType":"uint256"}]},{"type":"error","name":"SablierFlow_WithdrawalAddressNotRecipient","inputs":[{"name":"streamId","type":"uint256","internalType":"uint256"},{"name":"caller","type":"address","internalType":"address"},{"name":"to","type":"address","internalType":"address"}]},{"type":"error","name":"SafeCastOverflowedUintDowncast","inputs":[{"name":"bits","type":"uint8","internalType":"uint8"},{"name":"value","type":"uint256","internalType":"uint256"}]},{"type":"error","name":"SafeERC20FailedOperation","inputs":[{"name":"token","type":"address","internalType":"address"}]}],"bytecode":{"object":"0x60a0604052346103a957614bf36040813803918261001c816103ad565b9384928339810103126103a95780516001600160a01b03811691908290036103a957602001516001600160a01b038116908190036103a95761005e60406103ad565b91601083526f14d8589b1a595c88119b1bddc813919560821b602084015261008660406103ad565b60088152675341422d464c4f5760c01b60208201523060805283519092906001600160401b0381116102ba57600154600181811c9116801561039f575b602082101461029c57601f811161033c575b50602094601f82116001146102d9579481929394955f926102ce575b50508160011b915f199060031b1c1916176001555b82516001600160401b0381116102ba57600254600181811c911680156102b0575b602082101461029c57601f8111610239575b506020601f82116001146101d657819293945f926101cb575b50508160011b915f199060031b1c1916176002555b60016008555f80546001600160a01b031990811684178255600980549091169290921790915560405191907fbdd36143ee09de60bdefca70680e0f71189b2ed7acee364b53917ad433fdaf808180a361482090816103d38239608051816131a90152f35b015190505f80610152565b601f1982169060025f52805f20915f5b81811061022157509583600195969710610209575b505050811b01600255610167565b01515f1960f88460031b161c191690555f80806101fb565b9192602060018192868b0151815501940192016101e6565b60025f527f405787fa12a823e0f2b7631cc41b3ba8828b3321ca811111fa75cd3aa3bb5ace601f830160051c81019160208410610292575b601f0160051c01905b8181106102875750610139565b5f815560010161027a565b9091508190610271565b634e487b7160e01b5f52602260045260245ffd5b90607f1690610127565b634e487b7160e01b5f52604160045260245ffd5b015190505f806100f1565b601f1982169560015f52805f20915f5b8881106103245750836001959697981061030c575b505050811b01600155610106565b01515f1960f88460031b161c191690555f80806102fe565b919260206001819286850151815501940192016102e9565b60015f527fb10e2d527612073b26eecdfd717e6a320cf44b4afac2b0732d9fcbe2b7fa0cf6601f830160051c81019160208410610395575b601f0160051c01905b81811061038a57506100d5565b5f815560010161037d565b9091508190610374565b90607f16906100c3565b5f80fd5b6040519190601f01601f191682016001600160401b038111838210176102ba5760405256fe6080806040526004361015610012575f80fd5b5f3560e01c90816301ffc9a7146127675750806306fdde03146126ac578063081812fc1461268e57806308b8792314612654578063095ea7b3146125375780630c5fd195146124ed5780630c69962414612461578063136439dd146123c95780631400ecec1461238f5780631e010439146123385780631e897afb1461220f5780631e99d569146121f25780631f0cce58146120e357806323b872dd146120cc578063379d871a1461202b57806342842e0e1461200257806342e3e23d146108665780634426757014611fdc578063450ac90814611f94578063569f4c5914611f44578063597150fa14611efc5780635ea2145b14611c295780635f55315214611bf15780636352211e14611bc2578063648bf77414611a695780636d0cee7514611a1b57806370a08231146119b157806375829def1461192b5780637cad6cd11461182d5780637ddf9228146117f357806380448da3146117ab57806381632a861461171f578063894e9a0d1461157257806395d89b4114611433578063a22cb46514611361578063a7de07cd14611313578063a8a482a614611208578063ad35efd414611190578063b256456914611140578063b5b3ca2c14610fe5578063b61f758314610f42578063b62b31e414610f0a578063b88d4fde14610e80578063b8a3be6614610e4b578063b971302a14610dfa578063bc063e1a14610dd8578063bc7a2d6c14610d9e578063bcbd019e14610cc8578063bdf2a43c14610c7f578063c2f8e75014610a2a578063c87b56dd14610918578063d4b808841461089e578063d975dfed14610866578063e4b50cb814610815578063e985e9c5146107bc578063ea5ead1914610745578063eb5710d8146106c8578063ebb6f79a14610591578063f851a4401461056c578063fbf2777e146104ec578063fdd46d60146104155763ffe3d9f8146102c6575f80fd5b34610411576040600319360112610411576102df6128cd565b6102e76128e3565b6001600160a01b035f54163381036103e257506001600160a01b03821691825f52600b6020526fffffffffffffffffffffffffffffffff60405f2054169081156103b657818361037a92865f52600b60205260405f207fffffffffffffffffffffffffffffffff000000000000000000000000000000008154169055865f52600760205260405f20838154039055613d21565b6001600160a01b036040519216825260208201527fc9a4a66b97fd7e52e69c5be7b10bdc5341bded817201b9b7136a75068d4e4e0560403392a3005b837ff717901b000000000000000000000000000000000000000000000000000000005f5260045260245ffd5b7fc6cce6a4000000000000000000000000000000000000000000000000000000005f526004523360245260445ffd5b5f80fd5b34610411576060600319360112610411576004356104316128e3565b610439612944565b9061044261319f565b825f52600c60205260ff600160405f20015460c81c16156104c05761048c83927ff8e1a15aba9398e019f0b49df1a4fde98ee17ae345cb5f6b5e2c27f5033e8ce792602095614043565b939092604051908152a1604080516fffffffffffffffffffffffffffffffff928316815292909116602083015290f35b0390f35b827fe21c1431000000000000000000000000000000000000000000000000000000005f5260045260245ffd5b346104115760c0600319360112610411576105056128cd565b61050d6128e3565b90610516612944565b9161051f61290f565b9161052861299d565b60a435936fffffffffffffffffffffffffffffffff85168503610411576020956105649461055d9461055861319f565b613741565b91826135ef565b604051908152f35b34610411575f6003193601126104115760206001600160a01b035f5416604051908152f35b34610411576040600319360112610411576004356105ad612925565b6105b561319f565b815f52600c60205260ff600160405f20015460c81c161561069c57815f52600c60205260ff600160405f20015460d81c1661067057815f52600c6020526001600160a01b03600160405f20015416330361064057816106376020927ff8e1a15aba9398e019f0b49df1a4fde98ee17ae345cb5f6b5e2c27f5033e8ce794613566565b604051908152a1005b507fa9ad2a22000000000000000000000000000000000000000000000000000000005f526004523360245260445ffd5b507f7354d5f1000000000000000000000000000000000000000000000000000000005f5260045260245ffd5b507fe21c1431000000000000000000000000000000000000000000000000000000005f5260045260245ffd5b3461041157602060031936011261041157600435805f52600c60205260ff600160405f20015460c81c161561071a575f52600c602052602064ffffffffff600160405f20015460a01c16604051908152f35b7fe21c1431000000000000000000000000000000000000000000000000000000005f5260045260245ffd5b34610411576040600319360112610411576004356107616128e3565b61076961319f565b815f52600c60205260ff600160405f20015460c81c161561069c57907ff8e1a15aba9398e019f0b49df1a4fde98ee17ae345cb5f6b5e2c27f5033e8ce761048c6020936107b5846136f7565b9084614043565b34610411576040600319360112610411576107d56128cd565b6001600160a01b036107e56128e3565b91165f5260066020526001600160a01b0360405f2091165f52602052602060ff60405f2054166040519015158152f35b3461041157602060031936011261041157600435805f52600c60205260ff600160405f20015460c81c161561071a575f52600c60205260206001600160a01b03600260405f20015416604051908152f35b34610411576020600319360112610411576020610884600435612d78565b6fffffffffffffffffffffffffffffffff60405191168152f35b3461041157602060031936011261041157600435805f52600c60205260ff600160405f20015460c81c161561071a57805f52600c60205260405f205460801c156108ed57610564602091612ff3565b7f167274c9000000000000000000000000000000000000000000000000000000005f5260045260245ffd5b346104115760206003193601126104115760043561093581613111565b505f6001600160a01b0360095416916044604051809481937fe9dc637500000000000000000000000000000000000000000000000000000000835230600484015260248301525afa8015610a1f575f906109a2575b6104bc9060405191829160208352602083019061288a565b503d805f833e6109b281836129c9565b8101906020818303126104115780519067ffffffffffffffff821161041157019080601f83011215610411578151916109ea83612a0a565b916109f860405193846129c9565b83835260208483010111610411576104bc92610a1a9160208085019101612869565b61098a565b6040513d5f823e3d90fd5b346104115760c060031936011261041157600435610a46612925565b610a4e6128f9565b610a5661290f565b60407fffffffffffffffffffffffffffffffffffffffffffffffffffffffffffffff7c36011261041157610a8861319f565b835f52600c60205260ff600160405f20015460c81c1615610c5357835f52600c60205260ff600160405f20015460d81c16610c2757610ac79184613f38565b604051916040830183811067ffffffffffffffff821117610bfa576040526084356001600160a01b038116810361041157835260a435602084019080825267016345785d8a00008111610bc357506001600160a01b0384511615610b9b577ff8e1a15aba9398e019f0b49df1a4fde98ee17ae345cb5f6b5e2c27f5033e8ce793610b64610b5b60209561063794519061463d565b859291926135ef565b835f52600c85526fffffffffffffffffffffffffffffffff6001600160a01b0380600260405f200154169351169116913390614487565b7f5f946a02000000000000000000000000000000000000000000000000000000005f5260045ffd5b7f54b392b2000000000000000000000000000000000000000000000000000000005f5260045267016345785d8a000060245260445ffd5b7f4e487b71000000000000000000000000000000000000000000000000000000005f52604160045260245ffd5b837f7354d5f1000000000000000000000000000000000000000000000000000000005f5260045260245ffd5b837fe21c1431000000000000000000000000000000000000000000000000000000005f5260045260245ffd5b3461041157602060031936011261041157600435805f52600c60205260ff600160405f20015460c81c161561071a575f52600c602052602060405f205460801c15604051908152f35b3461041157604060031936011261041157600435610ce4612925565b610cec61319f565b815f52600c60205260ff600160405f20015460c81c161561069c57815f52600c60205260405f205460801c15610d7257815f52600c6020526001600160a01b03600160405f2001541633036106405781610d696020927ff8e1a15aba9398e019f0b49df1a4fde98ee17ae345cb5f6b5e2c27f5033e8ce7946135ef565b61063781613432565b507f167274c9000000000000000000000000000000000000000000000000000000005f5260045260245ffd5b3461041157602060031936011261041157600435805f52600c60205260ff600160405f20015460c81c161561071a57610564602091613efe565b34610411575f60031936011261041157602060405167016345785d8a00008152f35b3461041157602060031936011261041157600435805f52600c60205260ff600160405f20015460c81c161561071a575f52600c60205260206001600160a01b03600160405f20015416604051908152f35b34610411576020600319360112610411576004355f52600c602052602060ff600160405f20015460c81c166040519015158152f35b3461041157608060031936011261041157610e996128cd565b610ea16128e3565b6064359167ffffffffffffffff8311610411573660238401121561041157826004013591610ece83612a0a565b92610edc60405194856129c9565b8084523660248287010111610411576020815f926024610f089801838801378501015260443591612e07565b005b34610411576020600319360112610411576001600160a01b03610f2b6128cd565b165f52600a602052602060405f2054604051908152f35b3461041157608060031936011261041157600435610f5e612925565b610f666128f9565b610f6e61290f565b90610f7761319f565b835f52600c60205260ff600160405f20015460c81c1615610c5357835f52600c60205260ff600160405f20015460d81c16610c2757602092610fdf8593610637937ff8e1a15aba9398e019f0b49df1a4fde98ee17ae345cb5f6b5e2c27f5033e8ce797613f38565b826135ef565b3461041157604060031936011261041157610ffe6128cd565b602435906001600160a01b035f54163381036103e2575067016345785d8a00008211611108576001600160a01b031690815f52600a60205260405f205490825f52600a6020528060405f205560405191825260208201527f371789a3d97098f3070492613273a065a7e8a19e009fd1ae92a4b4d4c71ed62d60403392a36008547fffffffffffffffffffffffffffffffffffffffffffffffffffffffffffffffff81019081116110db5760407f6bd5c950a8d8df17f772f5af37cb3655737899cbf903264b9795592da439661c91815190600182526020820152a1005b7f4e487b71000000000000000000000000000000000000000000000000000000005f52601160045260245ffd5b507f34553172000000000000000000000000000000000000000000000000000000005f5260045267016345785d8a000060245260445ffd5b3461041157602060031936011261041157600435805f52600c60205260ff600160405f20015460c81c161561071a575f52600c602052602060ff600160405f20015460d01c166040519015158152f35b3461041157602060031936011261041157600435805f52600c60205260ff600160405f20015460c81c161561071a576111c890612dac565b60405160058210156111db576020918152f35b7f4e487b71000000000000000000000000000000000000000000000000000000005f52602160045260245ffd5b3461041157604060031936011261041157600435611224612925565b61122c61319f565b815f52600c60205260ff600160405f20015460c81c161561069c57815f52600c60205260405f205460801c15610d7257815f52600c6020526001600160a01b03600160405f2001541633036106405781807ffddf01d0842635e80929251f6862b3baf136a29f2b2fb148968e8b236d5785fe60606020947ff8e1a15aba9398e019f0b49df1a4fde98ee17ae345cb5f6b5e2c27f5033e8ce7965f52600c86526fffffffffffffffffffffffffffffffff60405f205460801c916112ef8187613dcd565b6112f88661315d565b9260405193845288840152166040820152a2604051908152a1005b3461041157602060031936011261041157600435805f52600c60205260ff600160405f20015460c81c161561071a575f52600c602052602060ff600260405f20015460a01c16604051908152f35b346104115760406003193601126104115761137a6128cd565b60243590811515809203610411576001600160a01b031690811561140757335f52600660205260405f20825f5260205260405f207fffffffffffffffffffffffffffffffffffffffffffffffffffffffffffffff0081541660ff83161790556040519081527f17307eab39ab6107e8899845ad3d59bd9653f200f220920489ca2b5937696c3160203392a3005b507f5b08ba18000000000000000000000000000000000000000000000000000000005f5260045260245ffd5b34610411575f600319360112610411576040515f6002548060011c90600181168015611568575b60208310811461153b578285529081156114f9575060011461149b575b6104bc83611487818503826129c9565b60405191829160208352602083019061288a565b91905060025f527f405787fa12a823e0f2b7631cc41b3ba8828b3321ca811111fa75cd3aa3bb5ace915f905b8082106114df57509091508101602001611487611477565b9192600181602092548385880101520191019092916114c7565b7fffffffffffffffffffffffffffffffffffffffffffffffffffffffffffffff001660208086019190915291151560051b840190910191506114879050611477565b7f4e487b71000000000000000000000000000000000000000000000000000000005f52602260045260245ffd5b91607f169161145a565b34610411576020600319360112610411576004355f610120604051611596816129ac565b8281528260208201528260408201528260608201528260808201528260a08201528260c08201528260e0820152826101008201520152805f52600c60205260ff600160405f20015460c81c161561071a575f52600c60205260405f206040516115fe816129ac565b81546fffffffffffffffffffffffffffffffff811692838352602083019160801c82526001810154604084016001600160a01b0382168152606085018260a01c64ffffffffff16815260808601908360c81c60ff161515825260a08701928460d01c60ff161515845260c088019460d81c60ff161515855260028601549660e08901966001600160a01b03891688526101008a019860a01c60ff168952600301549861012001988952604051998a52516fffffffffffffffffffffffffffffffff1660208a0152516001600160a01b031660408901525164ffffffffff166060880152511515608087015251151560a086015251151560c0850152516001600160a01b031660e08401525160ff166101008301525161012082015261014090f35b346104115760406003193601126104115760043561173b612925565b61174361319f565b815f52600c60205260ff600160405f20015460c81c161561069c57815f52600c6020526001600160a01b03600160405f20015416330361064057816106376020927ff8e1a15aba9398e019f0b49df1a4fde98ee17ae345cb5f6b5e2c27f5033e8ce79461325d565b3461041157602060031936011261041157600435805f52600c60205260ff600160405f20015460c81c161561071a575f52600c602052602060405f205460801c604051908152f35b3461041157602060031936011261041157600435805f52600c60205260ff600160405f20015460c81c161561071a57610564602091613d7d565b34610411576020600319360112610411576004356001600160a01b038116809103610411576001600160a01b035f54163381036103e2575060095490807fffffffffffffffffffffffff00000000000000000000000000000000000000008316176009556001600160a01b036040519216825260208201527fa2548bd4b805e907c1558a47b5858324fe8bb4a2e1ddfca647eecbf65610eebc60403392a26008547fffffffffffffffffffffffffffffffffffffffffffffffffffffffffffffffff81019081116110db5760407f6bd5c950a8d8df17f772f5af37cb3655737899cbf903264b9795592da439661c91815190600182526020820152a1005b34610411576020600319360112610411576119446128cd565b5f546001600160a01b0381163381036103e257506001600160a01b037fffffffffffffffffffffffff0000000000000000000000000000000000000000921691829116175f55337fbdd36143ee09de60bdefca70680e0f71189b2ed7acee364b53917ad433fdaf805f80a3005b34610411576020600319360112610411576001600160a01b036119d26128cd565b1680156119ef575f526004602052602060405f2054604051908152f35b7f89c62b64000000000000000000000000000000000000000000000000000000005f525f60045260245ffd5b3461041157602060031936011261041157600435805f52600c60205260ff600160405f20015460c81c161561071a575f52600360205260206001600160a01b0360405f205416604051908152f35b3461041157604060031936011261041157611a826128cd565b611a8a6128e3565b6001600160a01b035f54163381036103e257506001600160a01b038216916040517f70a08231000000000000000000000000000000000000000000000000000000008152306004820152602081602481875afa8015610a1f575f90611b8e575b611b029150845f52600760205260405f205490612d9f565b908115611b625781611b397f21252411d5a999da4bc6a490f7143b61ba690edceb4577a2800eab8dfbb1e92c9385611b5d94613d21565b604051918291339583602090939291936001600160a01b0360408201951681520152565b0390a3005b837ff4c3afcf000000000000000000000000000000000000000000000000000000005f5260045260245ffd5b506020813d602011611bba575b81611ba8602093836129c9565b8101031261041157611b029051611aea565b3d9150611b9b565b34610411576020600319360112610411576020611be0600435613111565b6001600160a01b0360405191168152f35b34610411576020600319360112610411576001600160a01b03611c126128cd565b165f526007602052602060405f2054604051908152f35b3461041157602060031936011261041157600435611c4561319f565b805f52600c60205260ff600160405f20015460c81c161561071a57805f52600c60205260ff600160405f20015460d81c16611ed157805f52600c6020526001600160a01b03600160405f2001541633141580611ec1575b611e9257602081611ccd7ff8e1a15aba9398e019f0b49df1a4fde98ee17ae345cb5f6b5e2c27f5033e8ce793613efe565b80611e4257611cdb82613d7d565b80611e21575b505b5f828152600c84526040902060010180547fffffffffffffff0000000000ffffffffffffffffffffffffffffffffffffffff164260a01b78ffffffffff000000000000000000000000000000000000000016179055815f52600c835260405f206fffffffffffffffffffffffffffffffff8154169055815f52600c8352600160405f20017b010000000000000000000000000000000000000000000000000000007fffffffff00ffffffffffffffffffffffffffffffffffffffffffffffffffffff825416179055815f52600c83526001600160a01b03600160405f20015416825f5260038452827fa8e3d71a6c0c719305004b430f6d17f12536f7b803db23a4d7016f5b52699a8c60606001600160a01b0360405f20541694611e068461315d565b9060405191338352898301526040820152a4604051908152a1005b825f52600c8452611e3a600360405f2001918254612faf565b905584611ce1565b815f52600c8352611e7e6fffffffffffffffffffffffffffffffff60405f205416835f52600c855260ff600260405f20015460a01c169061402a565b825f52600c8452600360405f200155611ce3565b7fa9ad2a22000000000000000000000000000000000000000000000000000000005f526004523360245260445ffd5b50611ecb8161453d565b15611c9c565b7f7354d5f1000000000000000000000000000000000000000000000000000000005f5260045260245ffd5b346104115760a0600319360112610411576020610564611f1a6128cd565b611f226128e3565b611f2a612944565b611f3261290f565b91611f3b61299d565b9361055861319f565b3461041157602060031936011261041157600435805f52600c60205260ff600160405f20015460c81c161561071a575f52600c602052602060ff600160405f20015460d81c166040519015158152f35b3461041157602060031936011261041157600435805f52600c60205260ff600160405f20015460c81c161561071a575f52600c6020526020600360405f200154604051908152f35b34610411575f6003193601126104115760206001600160a01b0360095416604051908152f35b3461041157610f0861201336612963565b90604051926120236020856129c9565b5f8452612e07565b3461041157604060031936011261041157600435612047612925565b61204f61319f565b815f52600c60205260ff600160405f20015460c81c161561069c57815f52600c60205260405f205460801c15610d7257815f52600c6020526001600160a01b03600160405f2001541633036106405781610d696020927ff8e1a15aba9398e019f0b49df1a4fde98ee17ae345cb5f6b5e2c27f5033e8ce79461325d565b3461041157610f086120dd36612963565b91612a95565b34610411576060600319360112610411576004356120ff612925565b612107612944565b9061211061319f565b825f52600c60205260ff600160405f20015460c81c16156104c057825f52600c60205260ff600160405f20015460d81c166121c657825f52600c6020526001600160a01b03600160405f2001541633036121965791610637602092610fdf7ff8e1a15aba9398e019f0b49df1a4fde98ee17ae345cb5f6b5e2c27f5033e8ce79584613566565b827fa9ad2a22000000000000000000000000000000000000000000000000000000005f526004523360245260445ffd5b827f7354d5f1000000000000000000000000000000000000000000000000000000005f5260045260245ffd5b34610411575f600319360112610411576020600854604051908152f35b346104115760206003193601126104115760043567ffffffffffffffff8111610411573660238201121561041157806004013567ffffffffffffffff8111610411573660248260051b8401011161041157905f907fffffffffffffffffffffffffffffffffffffffffffffffffffffffffffffffbd81360301915b83811015610f085760248160051b830101358381121561041157820160248101359067ffffffffffffffff821161041157604401813603811361041157815f92918392604051928392833781018381520390305af46122e7612a66565b90156122f6575060010161228a565b612334906040519182917fd935448500000000000000000000000000000000000000000000000000000000835260206004840152602483019061288a565b0390fd5b3461041157602060031936011261041157600435805f52600c60205260ff600160405f20015460c81c161561071a575f52600c60205260206fffffffffffffffffffffffffffffffff60405f205416604051908152f35b3461041157602060031936011261041157600435805f52600c60205260ff600160405f20015460c81c161561071a5761088460209161322b565b34610411576020600319360112610411576004356123e561319f565b805f52600c60205260ff600160405f20015460c81c161561071a57805f52600c60205260405f205460801c156108ed57805f52600c6020526001600160a01b03600160405f200154163303611e92576020816106377ff8e1a15aba9398e019f0b49df1a4fde98ee17ae345cb5f6b5e2c27f5033e8ce793613432565b346104115760206003193601126104115760043561247d61319f565b805f52600c60205260ff600160405f20015460c81c161561071a57805f52600c6020526001600160a01b03600160405f200154163303611e92576020816106376124e77ff8e1a15aba9398e019f0b49df1a4fde98ee17ae345cb5f6b5e2c27f5033e8ce79461322b565b8261325d565b34610411576020600319360112610411576001600160a01b0361250e6128cd565b165f52600b60205260206fffffffffffffffffffffffffffffffff60405f205416604051908152f35b34610411576040600319360112610411576125506128cd565b60243561255c81613111565b33151580612641575b8061260e575b6125e25781906001600160a01b0380851691167f8c5be1e5ebec7d5bd14f71427d1e84f3dd0314c0f7b2291e5b200ac8c7c3b9255f80a45f5260056020526001600160a01b0360405f2091167fffffffffffffffffffffffff00000000000000000000000000000000000000008254161790555f80f35b7fa9fbf51f000000000000000000000000000000000000000000000000000000005f523360045260245ffd5b506001600160a01b0381165f52600660205260405f206001600160a01b0333165f5260205260ff60405f2054161561256b565b50336001600160a01b0382161415612565565b3461041157602060031936011261041157600435805f52600c60205260ff600160405f20015460c81c161561071a5761056460209161315d565b34610411576020600319360112610411576020611be0600435612a44565b34610411575f600319360112610411576040515f6001548060011c9060018116801561275d575b60208310811461153b578285529081156114f957506001146126ff576104bc83611487818503826129c9565b91905060015f527fb10e2d527612073b26eecdfd717e6a320cf44b4afac2b0732d9fcbe2b7fa0cf6915f905b80821061274357509091508101602001611487611477565b91926001816020925483858801015201910190929161272b565b91607f16916126d3565b3461041157602060031936011261041157600435907fffffffff00000000000000000000000000000000000000000000000000000000821680920361041157817f4906490600000000000000000000000000000000000000000000000000000000602093149081156127db575b5015158152f35b7f80ac58cd0000000000000000000000000000000000000000000000000000000081149150811561283f575b8115612815575b50836127d4565b7f01ffc9a7000000000000000000000000000000000000000000000000000000009150148361280e565b7f5b5e139f0000000000000000000000000000000000000000000000000000000081149150612807565b5f5b83811061287a5750505f910152565b818101518382015260200161286b565b907fffffffffffffffffffffffffffffffffffffffffffffffffffffffffffffffe0601f6020936128c681518092818752878088019101612869565b0116010190565b600435906001600160a01b038216820361041157565b602435906001600160a01b038216820361041157565b604435906001600160a01b038216820361041157565b606435906001600160a01b038216820361041157565b602435906fffffffffffffffffffffffffffffffff8216820361041157565b604435906fffffffffffffffffffffffffffffffff8216820361041157565b6003196060910112610411576004356001600160a01b038116810361041157906024356001600160a01b0381168103610411579060443590565b60843590811515820361041157565b610140810190811067ffffffffffffffff821117610bfa57604052565b90601f7fffffffffffffffffffffffffffffffffffffffffffffffffffffffffffffffe0910116810190811067ffffffffffffffff821117610bfa57604052565b67ffffffffffffffff8111610bfa57601f017fffffffffffffffffffffffffffffffffffffffffffffffffffffffffffffffe01660200190565b612a4d81613111565b505f5260056020526001600160a01b0360405f20541690565b3d15612a90573d90612a7782612a0a565b91612a8560405193846129c9565b82523d5f602084013e565b606090565b91906001600160a01b0316918215612d4c57815f5260036020526001600160a01b0360405f205416151580612d2f575b612d0357815f5260036020526001600160a01b0360405f2054169233151580612c3b575b50907ff8e1a15aba9398e019f0b49df1a4fde98ee17ae345cb5f6b5e2c27f5033e8ce760206001600160a01b039386612bce575b805f526004825260405f2060018154019055855f526003825260405f20817fffffffffffffffffffffffff00000000000000000000000000000000000000008254161790558560405191887fddf252ad1be2c89b69c2b068fc378daa952ba7f163c4a11628f55a4df523b3ef5f80a4858152a116808303612b9d57505050565b7f64283d7b000000000000000000000000000000000000000000000000000000005f5260045260245260445260645ffd5b612c05865f52600560205260405f207fffffffffffffffffffffffff00000000000000000000000000000000000000008154169055565b865f526004825260405f207fffffffffffffffffffffffffffffffffffffffffffffffffffffffffffffffff8154019055612b1d565b80612cac575b15612c4c575f612ae9565b8284612c7d577f7e273289000000000000000000000000000000000000000000000000000000005f5260045260245ffd5b7f177e802f000000000000000000000000000000000000000000000000000000005f523360045260245260445ffd5b503384148015612cda575b80612c415750825f526005602052336001600160a01b0360405f20541614612c41565b50835f52600660205260405f206001600160a01b0333165f5260205260ff60405f205416612cb7565b507f7da2ea2b000000000000000000000000000000000000000000000000000000005f5260045260245ffd5b50815f52600c60205260ff600160405f20015460d01c1615612ac5565b7f64a0ae92000000000000000000000000000000000000000000000000000000005f525f60045260245ffd5b805f52600c60205260ff600160405f20015460c81c161561071a57612d9c906136f7565b90565b919082039182116110db57565b805f52600c60205260ff600160405f20015460d81c16612e0157612dcf81613efe565b1515905f52600c60205260405f205460801c15612df357612dee575f90565b600190565b612dfc57600290565b600390565b50600490565b90612e13838284612a95565b803b612e20575b50505050565b602091612e7f6001600160a01b038093169560405195869485947f150b7a02000000000000000000000000000000000000000000000000000000008652336004870152166024850152604484015260806064840152608483019061288a565b03815f865af15f9181612f52575b50612ed45750612e9b612a66565b80519081612ecf57827f64a0ae92000000000000000000000000000000000000000000000000000000005f5260045260245ffd5b602001fd5b7fffffffff000000000000000000000000000000000000000000000000000000007f150b7a0200000000000000000000000000000000000000000000000000000000911603612f2757505f808080612e1a565b7f64a0ae92000000000000000000000000000000000000000000000000000000005f5260045260245ffd5b9091506020813d602011612fa7575b81612f6e602093836129c9565b8101031261041157517fffffffff000000000000000000000000000000000000000000000000000000008116810361041157905f612e8d565b3d9150612f61565b919082018092116110db57565b8115612fc6570490565b7f4e487b71000000000000000000000000000000000000000000000000000000005f52601260045260245ffd5b805f52600c6020526fffffffffffffffffffffffffffffffff60405f2054169081156130e657805f52600c60205261303960ff600260405f20015460a01c16809361402a565b91815f52600c602052613053600360405f2001549161400d565b9061306661306084613d7d565b82612faf565b6130708386612faf565b11156130de57825f52600c60205260405f205460801c930301916130948184612fbc565b928115612fc657066130bd575f52600c60205264ffffffffff600160405f20015460a01c160190565b906001915f52600c60205264ffffffffff8260405f20015460a01c16010190565b505050505f90565b7f0f04b2a1000000000000000000000000000000000000000000000000000000005f5260045260245ffd5b805f5260036020526001600160a01b0360405f205416908115613132575090565b7f7e273289000000000000000000000000000000000000000000000000000000005f5260045260245ffd5b612d9c9061318361316d82613d7d565b825f52600c602052600360405f20015490612faf565b905f52600c60205260ff600260405f20015460a01c1690614467565b6001600160a01b037f00000000000000000000000000000000000000000000000000000000000000001630036131d157565b7fa1c0d6e5000000000000000000000000000000000000000000000000000000005f5260045ffd5b906fffffffffffffffffffffffffffffffff809116911603906fffffffffffffffffffffffffffffffff82116110db57565b612d9c90805f52600c6020526132576fffffffffffffffffffffffffffffffff60405f205416916136f7565b906131f9565b6fffffffffffffffffffffffffffffffff82168015613406576fffffffffffffffffffffffffffffffff6132908361322b565b168082116133d457825f52600c6020526fffffffffffffffffffffffffffffffff60405f205416106133825760207fe31f2d40d5780915b1e656a67e11bdf09b0a4a925ec42bbeae220c8ca937ab4991835f52600c8252613379816001600160a01b03600160405f200154168097875f52600c86526001600160a01b03600260405f2001541690885f52600c87526fffffffffffffffffffffffffffffffff8060405f2092818454160316167fffffffffffffffffffffffffffffffff00000000000000000000000000000000825416179055805f526007865260405f20838154039055613d21565b604051908152a3565b90805f52600c6020526fffffffffffffffffffffffffffffffff60405f205416907fcb5f605f000000000000000000000000000000000000000000000000000000005f5260045260245260445260645ffd5b917fe9771401000000000000000000000000000000000000000000000000000000005f5260045260245260445260645ffd5b507fea66b871000000000000000000000000000000000000000000000000000000005f5260045260245ffd5b805f52600c60205260405f205460801c156135375761345081613d7d565b80613515575b505f818152600c6020908152604080832060018101805478ffffffffff00000000000000000000000000000000000000004260a01b167fffffffffffffff0000000000ffffffffffffffffffffffffffffffffffffffff82161790915581546fffffffffffffffffffffffffffffffff16909155600383529220546001600160a01b0390811693921691907fda83bf669c651406e02062769e01d14cccb5625ea685fd95e0e56d29597dac479061350c8361315d565b604051908152a4565b815f52600c60205261352f600360405f2001918254612faf565b90555f613456565b7fd2657d5a000000000000000000000000000000000000000000000000000000005f526004525f60245260445ffd5b805f52600c60205260405f205460801c6135c4576135848282613dcd565b6fffffffffffffffffffffffffffffffff604051921682527fc2a543cfadbf862642247e28711aaa30e3460384be5712be6557fee3384454fd60203393a3565b7fdc6fbbbc000000000000000000000000000000000000000000000000000000005f5260045260245ffd5b906fffffffffffffffffffffffffffffffff169081156136cc575f818152600c60205260409020600281015481546fffffffffffffffffffffffffffffffff9081168501916001600160a01b03169082116110db5761369e926fffffffffffffffffffffffffffffffff8693167fffffffffffffffffffffffffffffffff00000000000000000000000000000000825416179055805f52600760205260405f2082815401905530903390614487565b6040519182527fa06c1466b3c9751408a5ac337a2e8808e5ee0ceed1fd70635d041b21174eb6b460203393a3565b7f33f2df5a000000000000000000000000000000000000000000000000000000005f5260045260245ffd5b805f52600c6020526fffffffffffffffffffffffffffffffff60405f20541690811561373b576137269061315d565b80821061373757612d9c91506144e1565b5090565b50505f90565b6001600160a01b039095949293919516908115613cf9576001600160a01b0316926040517f313ce567000000000000000000000000000000000000000000000000000000008152602081600481885afa8015610a1f575f90613cbc575b60ff9150169560128711613c9057600854968786604051926137bf846129ac565b5f845260208401956fffffffffffffffffffffffffffffffff1695868152604085019088825260608601994264ffffffffff168b52608087016001815260a088019115159b8c835260c08901935f855260e08a019788526101008a019687526101208a01985f8a525f52600c60205260405f2099516fffffffffffffffffffffffffffffffff166fffffffffffffffffffffffffffffffff168a547fffffffffffffffffffffffffffffffff0000000000000000000000000000000016178a55516fffffffffffffffffffffffffffffffff166138d8908a906fffffffffffffffffffffffffffffffff7fffffffffffffffffffffffffffffffff0000000000000000000000000000000083549260801b169116179055565b9351600189018054955178ffffffffff000000000000000000000000000000000000000060a09190911b166001600160a01b039092167fffffffffffffff00000000000000000000000000000000000000000000000000909616959095171784555115159083549051151560d01b7aff0000000000000000000000000000000000000000000000000000169160c81b79ff0000000000000000000000000000000000000000000000000016907fffffffffff0000ffffffffffffffffffffffffffffffffffffffffffffffffff161717825551151581549060d81b7bff00000000000000000000000000000000000000000000000000000016907fffffffff00ffffffffffffffffffffffffffffffffffffffffffffffffffffff161790556002840191516001600160a01b03166001600160a01b031682547fffffffffffffffffffffffff0000000000000000000000000000000000000000161782555181549060a01b74ff000000000000000000000000000000000000000016907fffffffffffffffffffffff00ffffffffffffffffffffffffffffffffffffffff16179055519060030155600187016008556001600160a01b0316928315612d4c57865f5260036020526001600160a01b0360405f205416151580613c73575b613c4757865f5260036020526001600160a01b0360405f2054167ff8e1a15aba9398e019f0b49df1a4fde98ee17ae345cb5f6b5e2c27f5033e8ce760208215159283613bda575b875f526004825260405f20600181540190558a5f526003825260405f20887fffffffffffffffffffffffff0000000000000000000000000000000000000000825416179055604051908b89827fddf252ad1be2c89b69c2b068fc378daa952ba7f163c4a11628f55a4df523b3ef5f80a4508a8152a1613bae577f2262fa211f8507786a60fefb231f7898b8145fe16350f281c91f121bd2ee118d916060916040519189835260208301526040820152a4565b7f73c6ac6e000000000000000000000000000000000000000000000000000000005f525f60045260245ffd5b613c118b5f52600560205260405f207fffffffffffffffffffffffff00000000000000000000000000000000000000008154169055565b805f526004825260405f207fffffffffffffffffffffffffffffffffffffffffffffffffffffffffffffffff8154019055613afc565b867f7da2ea2b000000000000000000000000000000000000000000000000000000005f5260045260245ffd5b50865f52600c60205260ff600160405f20015460d01c1615613ab5565b847fc9f55392000000000000000000000000000000000000000000000000000000005f5260045260245ffd5b506020813d602011613cf1575b81613cd6602093836129c9565b81010312610411575160ff811681036104115760ff9061379e565b3d9150613cc9565b7ff9bb0fb3000000000000000000000000000000000000000000000000000000005f5260045ffd5b6040517fa9059cbb0000000000000000000000000000000000000000000000000000000060208201526001600160a01b03929092166024830152604480830193909352918152613d7b91613d766064836129c9565b6145af565b565b5f908152600c602052604090206001810154905460801c9060a01c64ffffffffff1681158015613dc3575b61373b57804203918083029283041490421417156110db5790565b5080421115613da8565b91906fffffffffffffffffffffffffffffffff811692805f52600c60205260405f205460801c8414613ece57613d7b929350613e0881613d7d565b80613eac575b505f908152600c6020526040902060018101805478ffffffffff00000000000000000000000000000000000000004260a01b167fffffffffffffff0000000000ffffffffffffffffffffffffffffffffffffffff90911617905580546fffffffffffffffffffffffffffffffff1660809290921b7fffffffffffffffffffffffffffffffff0000000000000000000000000000000016919091179055565b815f52600c602052613ec6600360405f2001918254612faf565b90555f613e0e565b83907fd2657d5a000000000000000000000000000000000000000000000000000000005f5260045260245260445ffd5b805f52600c602052613f266fffffffffffffffffffffffffffffffff60405f2054169161315d565b908181101561373b57612d9c91612d9f565b90815f52600c6020526001600160a01b0380600160405f200154169116908103613fc55750805f5260036020526001600160a01b038060405f2054169216918203613f81575050565b5f5260036020526001600160a01b0360405f205416907f5bdb8ad7000000000000000000000000000000000000000000000000000000005f5260045260245260445ffd5b905f52600c6020526001600160a01b03600160405f20015416907fc8bac88d000000000000000000000000000000000000000000000000000000005f5260045260245260445ffd5b601260ff8216146140245760120360ff16600a0a90565b50600190565b90601260ff8216146137375760120360ff16600a0a0290565b5f9392916fffffffffffffffffffffffffffffffff831691821561443c576001600160a01b03821691821561441057815f5260036020526001600160a01b0360405f20541683141580614400575b6143cd57815f52600c60205260ff600260405f20015460a01c16936140ce6140b884613d7d565b845f52600c602052600360405f20015490612faf565b6140d88682614467565b95845f52600c6020526fffffffffffffffffffffffffffffffff60405f205416928784105f146143ae576fffffffffffffffffffffffffffffffff845b1680821161437b5750906141289161402a565b90845f52600c602052600360405f2001548211155f146143185750835f52600c602052600360405f20019081540390555b5f838152600c6020908152604080832080546fffffffffffffffffffffffffffffffff8082168c9003167fffffffffffffffffffffffffffffffff00000000000000000000000000000000909116178155600201546001600160a01b0316808452600a90925290912054909590806142aa575b5061422a6142146fffffffffffffffffffffffffffffffff92614205848b1680978b5f52600760205260405f208281540390558b613d21565b61420e8761315d565b90612d9f565b92855f52600c6020528260405f205416906131f9565b160361427d5760607f1a7b0d6c8f96b874563b711cf97793fe3be5dc42dbd1e0720ce40f326918e817916040519033825260208201526fffffffffffffffffffffffffffffffff89166040820152a49190565b7f4e487b71000000000000000000000000000000000000000000000000000000005f52600160045260245ffd5b61421499506142ce61422a916fffffffffffffffffffffffffffffffff939961463d565b9a909a988b895f52600b602052848060405f2092818454160116167fffffffffffffffffffffffffffffffff000000000000000000000000000000008254161790559250506141cc565b5f858152600c60205260409020919003600382015560010180547fffffffffffffff0000000000ffffffffffffffffffffffffffffffffffffffff164260a01b78ffffffffff000000000000000000000000000000000000000016179055614159565b90867ff9f29859000000000000000000000000000000000000000000000000000000005f5260045260245260445260645ffd5b6fffffffffffffffffffffffffffffffff6143c8896144e1565b614115565b507f4208ab4c000000000000000000000000000000000000000000000000000000005f526004523360245260445260645ffd5b5061440a8261453d565b15614091565b507f9f32c858000000000000000000000000000000000000000000000000000000005f5260045260245ffd5b7fb4855052000000000000000000000000000000000000000000000000000000005f5260045260245ffd5b90601260ff821614613737579060ff612d9c9260120316600a0a90612fbc565b9091926001600160a01b03613d7b9481604051957f23b872dd000000000000000000000000000000000000000000000000000000006020880152166024860152166044840152606483015260648252613d766084836129c9565b6fffffffffffffffffffffffffffffffff811161450d576fffffffffffffffffffffffffffffffff1690565b7f6dfcc650000000000000000000000000000000000000000000000000000000005f52608060045260245260445ffd5b805f5260036020526001600160a01b0360405f20541690813314918215614583575b50811561456a575090565b90506001600160a01b0361457e3392612a44565b161490565b9091505f52600660205260405f206001600160a01b0333165f5260205260ff60405f205416905f61455f565b5f806001600160a01b036145d893169360208151910182865af16145d1612a66565b9083614787565b8051908115159182614619575b50506145ee5750565b7f5274afe7000000000000000000000000000000000000000000000000000000005f5260045260245ffd5b81925090602091810103126104115760200151801590811503610411575f806145e5565b919061465b906fffffffffffffffffffffffffffffffff84166146ba565b6fffffffffffffffffffffffffffffffff811161468f576fffffffffffffffffffffffffffffffff612d9c911680936131f9565b7f4916adce000000000000000000000000000000000000000000000000000000005f5260045260245ffd5b9190917fffffffffffffffffffffffffffffffffffffffffffffffffffffffffffffffff8382098382029182808310920391808303921461477657670de0b6b3a7640000821015614746577faccb18165bd6fe31ae1cf318dc5b51eee0e1ba569b88cd74c1773b91fac106699394670de0b6b3a7640000910990828211900360ee1b910360121c170290565b84907f5173648d000000000000000000000000000000000000000000000000000000005f5260045260245260445ffd5b5050670de0b6b3a764000090049150565b906147c4575080511561479c57805190602001fd5b7f1425ea42000000000000000000000000000000000000000000000000000000005f5260045ffd5b8151158061480a575b6147d5575090565b6001600160a01b03907f9996b315000000000000000000000000000000000000000000000000000000005f521660045260245ffd5b50803b156147cd56fea164736f6c634300081a000a","linkReferences":{}},"methodIdentifiers":{"MAX_FEE()":"bc063e1a","adjustRatePerSecond(uint256,uint128)":"a8a482a6","admin()":"f851a440","aggregateBalance(address)":"5f553152","approve(address,uint256)":"095ea7b3","balanceOf(address)":"70a08231","batch(bytes[])":"1e897afb","collectProtocolRevenue(address,address)":"ffe3d9f8","coveredDebtOf(uint256)":"42e3e23d","create(address,address,uint128,address,bool)":"597150fa","createAndDeposit(address,address,uint128,address,bool,uint128)":"fbf2777e","depletionTimeOf(uint256)":"d4b80884","deposit(uint256,uint128,address,address)":"b61f7583","depositAndPause(uint256,uint128)":"bcbd019e","depositViaBroker(uint256,uint128,address,address,(address,uint256))":"c2f8e750","getApproved(uint256)":"081812fc","getBalance(uint256)":"1e010439","getRatePerSecond(uint256)":"80448da3","getRecipient(uint256)":"6d0cee75","getSender(uint256)":"b971302a","getSnapshotDebtScaled(uint256)":"450ac908","getSnapshotTime(uint256)":"eb5710d8","getStream(uint256)":"894e9a0d","getToken(uint256)":"e4b50cb8","getTokenDecimals(uint256)":"a7de07cd","isApprovedForAll(address,address)":"e985e9c5","isPaused(uint256)":"bdf2a43c","isStream(uint256)":"b8a3be66","isTransferable(uint256)":"b2564569","isVoided(uint256)":"569f4c59","name()":"06fdde03","nextStreamId()":"1e99d569","nftDescriptor()":"44267570","ongoingDebtScaledOf(uint256)":"7ddf9228","ownerOf(uint256)":"6352211e","pause(uint256)":"136439dd","protocolFee(address)":"b62b31e4","protocolRevenue(address)":"0c5fd195","recover(address,address)":"648bf774","refund(uint256,uint128)":"81632a86","refundAndPause(uint256,uint128)":"379d871a","refundMax(uint256)":"0c699624","refundableAmountOf(uint256)":"1400ecec","restart(uint256,uint128)":"ebb6f79a","restartAndDeposit(uint256,uint128,uint128)":"1f0cce58","safeTransferFrom(address,address,uint256)":"42842e0e","safeTransferFrom(address,address,uint256,bytes)":"b88d4fde","setApprovalForAll(address,bool)":"a22cb465","setNFTDescriptor(address)":"7cad6cd1","setProtocolFee(address,uint256)":"b5b3ca2c","statusOf(uint256)":"ad35efd4","supportsInterface(bytes4)":"01ffc9a7","symbol()":"95d89b41","tokenURI(uint256)":"c87b56dd","totalDebtOf(uint256)":"08b87923","transferAdmin(address)":"75829def","transferFrom(address,address,uint256)":"23b872dd","uncoveredDebtOf(uint256)":"bc7a2d6c","void(uint256)":"5ea2145b","withdraw(uint256,address,uint128)":"fdd46d60","withdrawMax(uint256,address)":"ea5ead19","withdrawableAmountOf(uint256)":"d975dfed"},"id":78}