{
  "abi": [
    {
      "type": "constructor",
      "inputs": [
        {
          "name": "initialAdmin",
          "type": "address",
          "internalType": "address"
        },
        {
          "name": "initialComptroller",
          "type": "address",
          "internalType": "contract ISablierV2Comptroller"
        },
        {
          "name": "initialNFTDescriptor",
          "type": "address",
          "internalType": "contract ISablierV2NFTDescriptor"
        },
        {
          "name": "maxSegmentCount",
          "type": "uint256",
          "internalType": "uint256"
        }
      ],
      "stateMutability": "nonpayable"
    },
    {
      "type": "function",
      "name": "MAX_FEE",
      "inputs": [],
      "outputs": [
        {
          "name": "",
          "type": "uint256",
          "internalType": "UD60x18"
        }
      ],
      "stateMutability": "view"
    },
    {
      "type": "function",
      "name": "MAX_SEGMENT_COUNT",
      "inputs": [],
      "outputs": [
        {
          "name": "",
          "type": "uint256",
          "internalType": "uint256"
        }
      ],
      "stateMutability": "view"
    },
    {
      "type": "function",
      "name": "admin",
      "inputs": [],
      "outputs": [
        {
          "name": "",
          "type": "address",
          "internalType": "address"
        }
      ],
      "stateMutability": "view"
    },
    {
      "type": "function",
      "name": "approve",
      "inputs": [
        {
          "name": "to",
          "type": "address",
          "internalType": "address"
        },
        {
          "name": "tokenId",
          "type": "uint256",
          "internalType": "uint256"
        }
      ],
      "outputs": [],
      "stateMutability": "nonpayable"
    },
    {
      "type": "function",
      "name": "balanceOf",
      "inputs": [
        {
          "name": "owner",
          "type": "address",
          "internalType": "address"
        }
      ],
      "outputs": [
        {
          "name": "",
          "type": "uint256",
          "internalType": "uint256"
        }
      ],
      "stateMutability": "view"
    },
    {
      "type": "function",
      "name": "burn",
      "inputs": [
        {
          "name": "streamId",
          "type": "uint256",
          "internalType": "uint256"
        }
      ],
      "outputs": [],
      "stateMutability": "nonpayable"
    },
    {
      "type": "function",
      "name": "cancel",
      "inputs": [
        {
          "name": "streamId",
          "type": "uint256",
          "internalType": "uint256"
        }
      ],
      "outputs": [],
      "stateMutability": "nonpayable"
    },
    {
      "type": "function",
      "name": "cancelMultiple",
      "inputs": [
        {
          "name": "streamIds",
          "type": "uint256[]",
          "internalType": "uint256[]"
        }
      ],
      "outputs": [],
      "stateMutability": "nonpayable"
    },
    {
      "type": "function",
      "name": "claimProtocolRevenues",
      "inputs": [
        {
          "name": "asset",
          "type": "address",
          "internalType": "contract IERC20"
        }
      ],
      "outputs": [],
      "stateMutability": "nonpayable"
    },
    {
      "type": "function",
      "name": "claimRebasingAssetYield",
      "inputs": [
        {
          "name": "asset",
          "type": "address",
          "internalType": "contract IERC20Rebasing"
        },
        {
          "name": "amount",
          "type": "uint256",
          "internalType": "uint256"
        },
        {
          "name": "to",
          "type": "address",
          "internalType": "address"
        }
      ],
      "outputs": [
        {
          "name": "claimed",
          "type": "uint256",
          "internalType": "uint256"
        }
      ],
      "stateMutability": "nonpayable"
    },
    {
      "type": "function",
      "name": "comptroller",
      "inputs": [],
      "outputs": [
        {
          "name": "",
          "type": "address",
          "internalType": "contract ISablierV2Comptroller"
        }
      ],
      "stateMutability": "view"
    },
    {
      "type": "function",
      "name": "configureRebasingAsset",
      "inputs": [
        {
          "name": "asset",
          "type": "address",
          "internalType": "contract IERC20Rebasing"
        },
        {
          "name": "yieldMode",
          "type": "uint8",
          "internalType": "enum YieldMode"
        }
      ],
      "outputs": [],
      "stateMutability": "nonpayable"
    },
    {
      "type": "function",
      "name": "configureYieldAndGas",
      "inputs": [
        {
          "name": "blast",
          "type": "address",
          "internalType": "contract IBlast"
        },
        {
          "name": "yieldMode",
          "type": "uint8",
          "internalType": "enum YieldMode"
        },
        {
          "name": "gasMode",
          "type": "uint8",
          "internalType": "enum GasMode"
        },
        {
          "name": "governor",
          "type": "address",
          "internalType": "address"
        }
      ],
      "outputs": [],
      "stateMutability": "nonpayable"
    },
    {
      "type": "function",
      "name": "createWithDeltas",
      "inputs": [
        {
          "name": "params",
          "type": "tuple",
          "internalType": "struct LockupDynamic.CreateWithDeltas",
          "components": [
            {
              "name": "sender",
              "type": "address",
              "internalType": "address"
            },
            {
              "name": "cancelable",
              "type": "bool",
              "internalType": "bool"
            },
            {
              "name": "transferable",
              "type": "bool",
              "internalType": "bool"
            },
            {
              "name": "recipient",
              "type": "address",
              "internalType": "address"
            },
            {
              "name": "totalAmount",
              "type": "uint128",
              "internalType": "uint128"
            },
            {
              "name": "asset",
              "type": "address",
              "internalType": "contract IERC20"
            },
            {
              "name": "broker",
              "type": "tuple",
              "internalType": "struct Broker",
              "components": [
                {
                  "name": "account",
                  "type": "address",
                  "internalType": "address"
                },
                {
                  "name": "fee",
                  "type": "uint256",
                  "internalType": "UD60x18"
                }
              ]
            },
            {
              "name": "segments",
              "type": "tuple[]",
              "internalType": "struct LockupDynamic.SegmentWithDelta[]",
              "components": [
                {
                  "name": "amount",
                  "type": "uint128",
                  "internalType": "uint128"
                },
                {
                  "name": "exponent",
                  "type": "uint64",
                  "internalType": "UD2x18"
                },
                {
                  "name": "delta",
                  "type": "uint40",
                  "internalType": "uint40"
                }
              ]
            }
          ]
        }
      ],
      "outputs": [
        {
          "name": "streamId",
          "type": "uint256",
          "internalType": "uint256"
        }
      ],
      "stateMutability": "nonpayable"
    },
    {
      "type": "function",
      "name": "createWithMilestones",
      "inputs": [
        {
          "name": "params",
          "type": "tuple",
          "internalType": "struct LockupDynamic.CreateWithMilestones",
          "components": [
            {
              "name": "sender",
              "type": "address",
              "internalType": "address"
            },
            {
              "name": "startTime",
              "type": "uint40",
              "internalType": "uint40"
            },
            {
              "name": "cancelable",
              "type": "bool",
              "internalType": "bool"
            },
            {
              "name": "transferable",
              "type": "bool",
              "internalType": "bool"
            },
            {
              "name": "recipient",
              "type": "address",
              "internalType": "address"
            },
            {
              "name": "totalAmount",
              "type": "uint128",
              "internalType": "uint128"
            },
            {
              "name": "asset",
              "type": "address",
              "internalType": "contract IERC20"
            },
            {
              "name": "broker",
              "type": "tuple",
              "internalType": "struct Broker",
              "components": [
                {
                  "name": "account",
                  "type": "address",
                  "internalType": "address"
                },
                {
                  "name": "fee",
                  "type": "uint256",
                  "internalType": "UD60x18"
                }
              ]
            },
            {
              "name": "segments",
              "type": "tuple[]",
              "internalType": "struct LockupDynamic.Segment[]",
              "components": [
                {
                  "name": "amount",
                  "type": "uint128",
                  "internalType": "uint128"
                },
                {
                  "name": "exponent",
                  "type": "uint64",
                  "internalType": "UD2x18"
                },
                {
                  "name": "milestone",
                  "type": "uint40",
                  "internalType": "uint40"
                }
              ]
            }
          ]
        }
      ],
      "outputs": [
        {
          "name": "streamId",
          "type": "uint256",
          "internalType": "uint256"
        }
      ],
      "stateMutability": "nonpayable"
    },
    {
      "type": "function",
      "name": "getApproved",
      "inputs": [
        {
          "name": "tokenId",
          "type": "uint256",
          "internalType": "uint256"
        }
      ],
      "outputs": [
        {
          "name": "",
          "type": "address",
          "internalType": "address"
        }
      ],
      "stateMutability": "view"
    },
    {
      "type": "function",
      "name": "getAsset",
      "inputs": [
        {
          "name": "streamId",
          "type": "uint256",
          "internalType": "uint256"
        }
      ],
      "outputs": [
        {
          "name": "asset",
          "type": "address",
          "internalType": "contract IERC20"
        }
      ],
      "stateMutability": "view"
    },
    {
      "type": "function",
      "name": "getClaimableRebasingAssetYield",
      "inputs": [
        {
          "name": "asset",
          "type": "address",
          "internalType": "contract IERC20Rebasing"
        }
      ],
      "outputs": [
        {
          "name": "claimableYield",
          "type": "uint256",
          "internalType": "uint256"
        }
      ],
      "stateMutability": "view"
    },
    {
      "type": "function",
      "name": "getDepositedAmount",
      "inputs": [
        {
          "name": "streamId",
          "type": "uint256",
          "internalType": "uint256"
        }
      ],
      "outputs": [
        {
          "name": "depositedAmount",
          "type": "uint128",
          "internalType": "uint128"
        }
      ],
      "stateMutability": "view"
    },
    {
      "type": "function",
      "name": "getEndTime",
      "inputs": [
        {
          "name": "streamId",
          "type": "uint256",
          "internalType": "uint256"
        }
      ],
      "outputs": [
        {
          "name": "endTime",
          "type": "uint40",
          "internalType": "uint40"
        }
      ],
      "stateMutability": "view"
    },
    {
      "type": "function",
      "name": "getRange",
      "inputs": [
        {
          "name": "streamId",
          "type": "uint256",
          "internalType": "uint256"
        }
      ],
      "outputs": [
        {
          "name": "range",
          "type": "tuple",
          "internalType": "struct LockupDynamic.Range",
          "components": [
            {
              "name": "start",
              "type": "uint40",
              "internalType": "uint40"
            },
            {
              "name": "end",
              "type": "uint40",
              "internalType": "uint40"
            }
          ]
        }
      ],
      "stateMutability": "view"
    },
    {
      "type": "function",
      "name": "getRebasingAssetConfiguration",
      "inputs": [
        {
          "name": "asset",
          "type": "address",
          "internalType": "contract IERC20Rebasing"
        }
      ],
      "outputs": [
        {
          "name": "yieldMode",
          "type": "uint8",
          "internalType": "enum YieldMode"
        }
      ],
      "stateMutability": "view"
    },
    {
      "type": "function",
      "name": "getRecipient",
      "inputs": [
        {
          "name": "streamId",
          "type": "uint256",
          "internalType": "uint256"
        }
      ],
      "outputs": [
        {
          "name": "recipient",
          "type": "address",
          "internalType": "address"
        }
      ],
      "stateMutability": "view"
    },
    {
      "type": "function",
      "name": "getRefundedAmount",
      "inputs": [
        {
          "name": "streamId",
          "type": "uint256",
          "internalType": "uint256"
        }
      ],
      "outputs": [
        {
          "name": "refundedAmount",
          "type": "uint128",
          "internalType": "uint128"
        }
      ],
      "stateMutability": "view"
    },
    {
      "type": "function",
      "name": "getSegments",
      "inputs": [
        {
          "name": "streamId",
          "type": "uint256",
          "internalType": "uint256"
        }
      ],
      "outputs": [
        {
          "name": "segments",
          "type": "tuple[]",
          "internalType": "struct LockupDynamic.Segment[]",
          "components": [
            {
              "name": "amount",
              "type": "uint128",
              "internalType": "uint128"
            },
            {
              "name": "exponent",
              "type": "uint64",
              "internalType": "UD2x18"
            },
            {
              "name": "milestone",
              "type": "uint40",
              "internalType": "uint40"
            }
          ]
        }
      ],
      "stateMutability": "view"
    },
    {
      "type": "function",
      "name": "getSender",
      "inputs": [
        {
          "name": "streamId",
          "type": "uint256",
          "internalType": "uint256"
        }
      ],
      "outputs": [
        {
          "name": "sender",
          "type": "address",
          "internalType": "address"
        }
      ],
      "stateMutability": "view"
    },
    {
      "type": "function",
      "name": "getStartTime",
      "inputs": [
        {
          "name": "streamId",
          "type": "uint256",
          "internalType": "uint256"
        }
      ],
      "outputs": [
        {
          "name": "startTime",
          "type": "uint40",
          "internalType": "uint40"
        }
      ],
      "stateMutability": "view"
    },
    {
      "type": "function",
      "name": "getStream",
      "inputs": [
        {
          "name": "streamId",
          "type": "uint256",
          "internalType": "uint256"
        }
      ],
      "outputs": [
        {
          "name": "stream",
          "type": "tuple",
          "internalType": "struct LockupDynamic.Stream",
          "components": [
            {
              "name": "sender",
              "type": "address",
              "internalType": "address"
            },
            {
              "name": "startTime",
              "type": "uint40",
              "internalType": "uint40"
            },
            {
              "name": "endTime",
              "type": "uint40",
              "internalType": "uint40"
            },
            {
              "name": "isCancelable",
              "type": "bool",
              "internalType": "bool"
            },
            {
              "name": "wasCanceled",
              "type": "bool",
              "internalType": "bool"
            },
            {
              "name": "asset",
              "type": "address",
              "internalType": "contract IERC20"
            },
            {
              "name": "isDepleted",
              "type": "bool",
              "internalType": "bool"
            },
            {
              "name": "isStream",
              "type": "bool",
              "internalType": "bool"
            },
            {
              "name": "isTransferable",
              "type": "bool",
              "internalType": "bool"
            },
            {
              "name": "amounts",
              "type": "tuple",
              "internalType": "struct Lockup.Amounts",
              "components": [
                {
                  "name": "deposited",
                  "type": "uint128",
                  "internalType": "uint128"
                },
                {
                  "name": "withdrawn",
                  "type": "uint128",
                  "internalType": "uint128"
                },
                {
                  "name": "refunded",
                  "type": "uint128",
                  "internalType": "uint128"
                }
              ]
            },
            {
              "name": "segments",
              "type": "tuple[]",
              "internalType": "struct LockupDynamic.Segment[]",
              "components": [
                {
                  "name": "amount",
                  "type": "uint128",
                  "internalType": "uint128"
                },
                {
                  "name": "exponent",
                  "type": "uint64",
                  "internalType": "UD2x18"
                },
                {
                  "name": "milestone",
                  "type": "uint40",
                  "internalType": "uint40"
                }
              ]
            }
          ]
        }
      ],
      "stateMutability": "view"
    },
    {
      "type": "function",
      "name": "getWithdrawnAmount",
      "inputs": [
        {
          "name": "streamId",
          "type": "uint256",
          "internalType": "uint256"
        }
      ],
      "outputs": [
        {
          "name": "withdrawnAmount",
          "type": "uint128",
          "internalType": "uint128"
        }
      ],
      "stateMutability": "view"
    },
    {
      "type": "function",
      "name": "isApprovedForAll",
      "inputs": [
        {
          "name": "owner",
          "type": "address",
          "internalType": "address"
        },
        {
          "name": "operator",
          "type": "address",
          "internalType": "address"
        }
      ],
      "outputs": [
        {
          "name": "",
          "type": "bool",
          "internalType": "bool"
        }
      ],
      "stateMutability": "view"
    },
    {
      "type": "function",
      "name": "isCancelable",
      "inputs": [
        {
          "name": "streamId",
          "type": "uint256",
          "internalType": "uint256"
        }
      ],
      "outputs": [
        {
          "name": "result",
          "type": "bool",
          "internalType": "bool"
        }
      ],
      "stateMutability": "view"
    },
    {
      "type": "function",
      "name": "isCold",
      "inputs": [
        {
          "name": "streamId",
          "type": "uint256",
          "internalType": "uint256"
        }
      ],
      "outputs": [
        {
          "name": "result",
          "type": "bool",
          "internalType": "bool"
        }
      ],
      "stateMutability": "view"
    },
    {
      "type": "function",
      "name": "isDepleted",
      "inputs": [
        {
          "name": "streamId",
          "type": "uint256",
          "internalType": "uint256"
        }
      ],
      "outputs": [
        {
          "name": "result",
          "type": "bool",
          "internalType": "bool"
        }
      ],
      "stateMutability": "view"
    },
    {
      "type": "function",
      "name": "isStream",
      "inputs": [
        {
          "name": "streamId",
          "type": "uint256",
          "internalType": "uint256"
        }
      ],
      "outputs": [
        {
          "name": "result",
          "type": "bool",
          "internalType": "bool"
        }
      ],
      "stateMutability": "view"
    },
    {
      "type": "function",
      "name": "isTransferable",
      "inputs": [
        {
          "name": "streamId",
          "type": "uint256",
          "internalType": "uint256"
        }
      ],
      "outputs": [
        {
          "name": "result",
          "type": "bool",
          "internalType": "bool"
        }
      ],
      "stateMutability": "view"
    },
    {
      "type": "function",
      "name": "isWarm",
      "inputs": [
        {
          "name": "streamId",
          "type": "uint256",
          "internalType": "uint256"
        }
      ],
      "outputs": [
        {
          "name": "result",
          "type": "bool",
          "internalType": "bool"
        }
      ],
      "stateMutability": "view"
    },
    {
      "type": "function",
      "name": "name",
      "inputs": [],
      "outputs": [
        {
          "name": "",
          "type": "string",
          "internalType": "string"
        }
      ],
      "stateMutability": "view"
    },
    {
      "type": "function",
      "name": "nextStreamId",
      "inputs": [],
      "outputs": [
        {
          "name": "",
          "type": "uint256",
          "internalType": "uint256"
        }
      ],
      "stateMutability": "view"
    },
    {
      "type": "function",
      "name": "ownerOf",
      "inputs": [
        {
          "name": "tokenId",
          "type": "uint256",
          "internalType": "uint256"
        }
      ],
      "outputs": [
        {
          "name": "",
          "type": "address",
          "internalType": "address"
        }
      ],
      "stateMutability": "view"
    },
    {
      "type": "function",
      "name": "protocolRevenues",
      "inputs": [
        {
          "name": "asset",
          "type": "address",
          "internalType": "contract IERC20"
        }
      ],
      "outputs": [
        {
          "name": "revenues",
          "type": "uint128",
          "internalType": "uint128"
        }
      ],
      "stateMutability": "view"
    },
    {
      "type": "function",
      "name": "refundableAmountOf",
      "inputs": [
        {
          "name": "streamId",
          "type": "uint256",
          "internalType": "uint256"
        }
      ],
      "outputs": [
        {
          "name": "refundableAmount",
          "type": "uint128",
          "internalType": "uint128"
        }
      ],
      "stateMutability": "view"
    },
    {
      "type": "function",
      "name": "renounce",
      "inputs": [
        {
          "name": "streamId",
          "type": "uint256",
          "internalType": "uint256"
        }
      ],
      "outputs": [],
      "stateMutability": "nonpayable"
    },
    {
      "type": "function",
      "name": "safeTransferFrom",
      "inputs": [
        {
          "name": "from",
          "type": "address",
          "internalType": "address"
        },
        {
          "name": "to",
          "type": "address",
          "internalType": "address"
        },
        {
          "name": "tokenId",
          "type": "uint256",
          "internalType": "uint256"
        }
      ],
      "outputs": [],
      "stateMutability": "nonpayable"
    },
    {
      "type": "function",
      "name": "safeTransferFrom",
      "inputs": [
        {
          "name": "from",
          "type": "address",
          "internalType": "address"
        },
        {
          "name": "to",
          "type": "address",
          "internalType": "address"
        },
        {
          "name": "tokenId",
          "type": "uint256",
          "internalType": "uint256"
        },
        {
          "name": "data",
          "type": "bytes",
          "internalType": "bytes"
        }
      ],
      "outputs": [],
      "stateMutability": "nonpayable"
    },
    {
      "type": "function",
      "name": "setApprovalForAll",
      "inputs": [
        {
          "name": "operator",
          "type": "address",
          "internalType": "address"
        },
        {
          "name": "approved",
          "type": "bool",
          "internalType": "bool"
        }
      ],
      "outputs": [],
      "stateMutability": "nonpayable"
    },
    {
      "type": "function",
      "name": "setComptroller",
      "inputs": [
        {
          "name": "newComptroller",
          "type": "address",
          "internalType": "contract ISablierV2Comptroller"
        }
      ],
      "outputs": [],
      "stateMutability": "nonpayable"
    },
    {
      "type": "function",
      "name": "setNFTDescriptor",
      "inputs": [
        {
          "name": "newNFTDescriptor",
          "type": "address",
          "internalType": "contract ISablierV2NFTDescriptor"
        }
      ],
      "outputs": [],
      "stateMutability": "nonpayable"
    },
    {
      "type": "function",
      "name": "statusOf",
      "inputs": [
        {
          "name": "streamId",
          "type": "uint256",
          "internalType": "uint256"
        }
      ],
      "outputs": [
        {
          "name": "status",
          "type": "uint8",
          "internalType": "enum Lockup.Status"
        }
      ],
      "stateMutability": "view"
    },
    {
      "type": "function",
      "name": "streamedAmountOf",
      "inputs": [
        {
          "name": "streamId",
          "type": "uint256",
          "internalType": "uint256"
        }
      ],
      "outputs": [
        {
          "name": "streamedAmount",
          "type": "uint128",
          "internalType": "uint128"
        }
      ],
      "stateMutability": "view"
    },
    {
      "type": "function",
      "name": "supportsInterface",
      "inputs": [
        {
          "name": "interfaceId",
          "type": "bytes4",
          "internalType": "bytes4"
        }
      ],
      "outputs": [
        {
          "name": "",
          "type": "bool",
          "internalType": "bool"
        }
      ],
      "stateMutability": "view"
    },
    {
      "type": "function",
      "name": "symbol",
      "inputs": [],
      "outputs": [
        {
          "name": "",
          "type": "string",
          "internalType": "string"
        }
      ],
      "stateMutability": "view"
    },
    {
      "type": "function",
      "name": "tokenURI",
      "inputs": [
        {
          "name": "streamId",
          "type": "uint256",
          "internalType": "uint256"
        }
      ],
      "outputs": [
        {
          "name": "uri",
          "type": "string",
          "internalType": "string"
        }
      ],
      "stateMutability": "view"
    },
    {
      "type": "function",
      "name": "transferAdmin",
      "inputs": [
        {
          "name": "newAdmin",
          "type": "address",
          "internalType": "address"
        }
      ],
      "outputs": [],
      "stateMutability": "nonpayable"
    },
    {
      "type": "function",
      "name": "transferFrom",
      "inputs": [
        {
          "name": "from",
          "type": "address",
          "internalType": "address"
        },
        {
          "name": "to",
          "type": "address",
          "internalType": "address"
        },
        {
          "name": "tokenId",
          "type": "uint256",
          "internalType": "uint256"
        }
      ],
      "outputs": [],
      "stateMutability": "nonpayable"
    },
    {
      "type": "function",
      "name": "wasCanceled",
      "inputs": [
        {
          "name": "streamId",
          "type": "uint256",
          "internalType": "uint256"
        }
      ],
      "outputs": [
        {
          "name": "result",
          "type": "bool",
          "internalType": "bool"
        }
      ],
      "stateMutability": "view"
    },
    {
      "type": "function",
      "name": "withdraw",
      "inputs": [
        {
          "name": "streamId",
          "type": "uint256",
          "internalType": "uint256"
        },
        {
          "name": "to",
          "type": "address",
          "internalType": "address"
        },
        {
          "name": "amount",
          "type": "uint128",
          "internalType": "uint128"
        }
      ],
      "outputs": [],
      "stateMutability": "nonpayable"
    },
    {
      "type": "function",
      "name": "withdrawMax",
      "inputs": [
        {
          "name": "streamId",
          "type": "uint256",
          "internalType": "uint256"
        },
        {
          "name": "to",
          "type": "address",
          "internalType": "address"
        }
      ],
      "outputs": [],
      "stateMutability": "nonpayable"
    },
    {
      "type": "function",
      "name": "withdrawMaxAndTransfer",
      "inputs": [
        {
          "name": "streamId",
          "type": "uint256",
          "internalType": "uint256"
        },
        {
          "name": "newRecipient",
          "type": "address",
          "internalType": "address"
        }
      ],
      "outputs": [],
      "stateMutability": "nonpayable"
    },
    {
      "type": "function",
      "name": "withdrawMultiple",
      "inputs": [
        {
          "name": "streamIds",
          "type": "uint256[]",
          "internalType": "uint256[]"
        },
        {
          "name": "to",
          "type": "address",
          "internalType": "address"
        },
        {
          "name": "amounts",
          "type": "uint128[]",
          "internalType": "uint128[]"
        }
      ],
      "outputs": [],
      "stateMutability": "nonpayable"
    },
    {
      "type": "function",
      "name": "withdrawableAmountOf",
      "inputs": [
        {
          "name": "streamId",
          "type": "uint256",
          "internalType": "uint256"
        }
      ],
      "outputs": [
        {
          "name": "withdrawableAmount",
          "type": "uint128",
          "internalType": "uint128"
        }
      ],
      "stateMutability": "view"
    },
    {
      "type": "event",
      "name": "Approval",
      "inputs": [
        {
          "name": "owner",
          "type": "address",
          "indexed": true,
          "internalType": "address"
        },
        {
          "name": "approved",
          "type": "address",
          "indexed": true,
          "internalType": "address"
        },
        {
          "name": "tokenId",
          "type": "uint256",
          "indexed": true,
          "internalType": "uint256"
        }
      ],
      "anonymous": false
    },
    {
      "type": "event",
      "name": "ApprovalForAll",
      "inputs": [
        {
          "name": "owner",
          "type": "address",
          "indexed": true,
          "internalType": "address"
        },
        {
          "name": "operator",
          "type": "address",
          "indexed": true,
          "internalType": "address"
        },
        {
          "name": "approved",
          "type": "bool",
          "indexed": false,
          "internalType": "bool"
        }
      ],
      "anonymous": false
    },
    {
      "type": "event",
      "name": "BatchMetadataUpdate",
      "inputs": [
        {
          "name": "_fromTokenId",
          "type": "uint256",
          "indexed": false,
          "internalType": "uint256"
        },
        {
          "name": "_toTokenId",
          "type": "uint256",
          "indexed": false,
          "internalType": "uint256"
        }
      ],
      "anonymous": false
    },
    {
      "type": "event",
      "name": "CancelLockupStream",
      "inputs": [
        {
          "name": "streamId",
          "type": "uint256",
          "indexed": false,
          "internalType": "uint256"
        },
        {
          "name": "sender",
          "type": "address",
          "indexed": true,
          "internalType": "address"
        },
        {
          "name": "recipient",
          "type": "address",
          "indexed": true,
          "internalType": "address"
        },
        {
          "name": "asset",
          "type": "address",
          "indexed": true,
          "internalType": "contract IERC20"
        },
        {
          "name": "senderAmount",
          "type": "uint128",
          "indexed": false,
          "internalType": "uint128"
        },
        {
          "name": "recipientAmount",
          "type": "uint128",
          "indexed": false,
          "internalType": "uint128"
        }
      ],
      "anonymous": false
    },
    {
      "type": "event",
      "name": "ClaimProtocolRevenues",
      "inputs": [
        {
          "name": "admin",
          "type": "address",
          "indexed": true,
          "internalType": "address"
        },
        {
          "name": "asset",
          "type": "address",
          "indexed": true,
          "internalType": "contract IERC20"
        },
        {
          "name": "protocolRevenues",
          "type": "uint128",
          "indexed": false,
          "internalType": "uint128"
        }
      ],
      "anonymous": false
    },
    {
      "type": "event",
      "name": "CreateLockupDynamicStream",
      "inputs": [
        {
          "name": "streamId",
          "type": "uint256",
          "indexed": false,
          "internalType": "uint256"
        },
        {
          "name": "funder",
          "type": "address",
          "indexed": false,
          "internalType": "address"
        },
        {
          "name": "sender",
          "type": "address",
          "indexed": true,
          "internalType": "address"
        },
        {
          "name": "recipient",
          "type": "address",
          "indexed": true,
          "internalType": "address"
        },
        {
          "name": "amounts",
          "type": "tuple",
          "indexed": false,
          "internalType": "struct Lockup.CreateAmounts",
          "components": [
            {
              "name": "deposit",
              "type": "uint128",
              "internalType": "uint128"
            },
            {
              "name": "protocolFee",
              "type": "uint128",
              "internalType": "uint128"
            },
            {
              "name": "brokerFee",
              "type": "uint128",
              "internalType": "uint128"
            }
          ]
        },
        {
          "name": "asset",
          "type": "address",
          "indexed": true,
          "internalType": "contract IERC20"
        },
        {
          "name": "cancelable",
          "type": "bool",
          "indexed": false,
          "internalType": "bool"
        },
        {
          "name": "transferable",
          "type": "bool",
          "indexed": false,
          "internalType": "bool"
        },
        {
          "name": "segments",
          "type": "tuple[]",
          "indexed": false,
          "internalType": "struct LockupDynamic.Segment[]",
          "components": [
            {
              "name": "amount",
              "type": "uint128",
              "internalType": "uint128"
            },
            {
              "name": "exponent",
              "type": "uint64",
              "internalType": "UD2x18"
            },
            {
              "name": "milestone",
              "type": "uint40",
              "internalType": "uint40"
            }
          ]
        },
        {
          "name": "range",
          "type": "tuple",
          "indexed": false,
          "internalType": "struct LockupDynamic.Range",
          "components": [
            {
              "name": "start",
              "type": "uint40",
              "internalType": "uint40"
            },
            {
              "name": "end",
              "type": "uint40",
              "internalType": "uint40"
            }
          ]
        },
        {
          "name": "broker",
          "type": "address",
          "indexed": false,
          "internalType": "address"
        }
      ],
      "anonymous": false
    },
    {
      "type": "event",
      "name": "MetadataUpdate",
      "inputs": [
        {
          "name": "_tokenId",
          "type": "uint256",
          "indexed": false,
          "internalType": "uint256"
        }
      ],
      "anonymous": false
    },
    {
      "type": "event",
      "name": "RenounceLockupStream",
      "inputs": [
        {
          "name": "streamId",
          "type": "uint256",
          "indexed": true,
          "internalType": "uint256"
        }
      ],
      "anonymous": false
    },
    {
      "type": "event",
      "name": "SetComptroller",
      "inputs": [
        {
          "name": "admin",
          "type": "address",
          "indexed": true,
          "internalType": "address"
        },
        {
          "name": "oldComptroller",
          "type": "address",
          "indexed": false,
          "internalType": "contract ISablierV2Comptroller"
        },
        {
          "name": "newComptroller",
          "type": "address",
          "indexed": false,
          "internalType": "contract ISablierV2Comptroller"
        }
      ],
      "anonymous": false
    },
    {
      "type": "event",
      "name": "SetNFTDescriptor",
      "inputs": [
        {
          "name": "admin",
          "type": "address",
          "indexed": true,
          "internalType": "address"
        },
        {
          "name": "oldNFTDescriptor",
          "type": "address",
          "indexed": false,
          "internalType": "contract ISablierV2NFTDescriptor"
        },
        {
          "name": "newNFTDescriptor",
          "type": "address",
          "indexed": false,
          "internalType": "contract ISablierV2NFTDescriptor"
        }
      ],
      "anonymous": false
    },
    {
      "type": "event",
      "name": "Transfer",
      "inputs": [
        {
          "name": "from",
          "type": "address",
          "indexed": true,
          "internalType": "address"
        },
        {
          "name": "to",
          "type": "address",
          "indexed": true,
          "internalType": "address"
        },
        {
          "name": "tokenId",
          "type": "uint256",
          "indexed": true,
          "internalType": "uint256"
        }
      ],
      "anonymous": false
    },
    {
      "type": "event",
      "name": "TransferAdmin",
      "inputs": [
        {
          "name": "oldAdmin",
          "type": "address",
          "indexed": true,
          "internalType": "address"
        },
        {
          "name": "newAdmin",
          "type": "address",
          "indexed": true,
          "internalType": "address"
        }
      ],
      "anonymous": false
    },
    {
      "type": "event",
      "name": "WithdrawFromLockupStream",
      "inputs": [
        {
          "name": "streamId",
          "type": "uint256",
          "indexed": true,
          "internalType": "uint256"
        },
        {
          "name": "to",
          "type": "address",
          "indexed": true,
          "internalType": "address"
        },
        {
          "name": "asset",
          "type": "address",
          "indexed": true,
          "internalType": "contract IERC20"
        },
        {
          "name": "amount",
          "type": "uint128",
          "indexed": false,
          "internalType": "uint128"
        }
      ],
      "anonymous": false
    },
    {
      "type": "error",
      "name": "CallerNotAdmin",
      "inputs": [
        {
          "name": "admin",
          "type": "address",
          "internalType": "address"
        },
        {
          "name": "caller",
          "type": "address",
          "internalType": "address"
        }
      ]
    },
    {
      "type": "error",
      "name": "DelegateCall",
      "inputs": []
    },
    {
      "type": "error",
      "name": "PRBMath_MulDiv18_Overflow",
      "inputs": [
        {
          "name": "x",
          "type": "uint256",
          "internalType": "uint256"
        },
        {
          "name": "y",
          "type": "uint256",
          "internalType": "uint256"
        }
      ]
    },
    {
      "type": "error",
      "name": "PRBMath_MulDiv_Overflow",
      "inputs": [
        {
          "name": "x",
          "type": "uint256",
          "internalType": "uint256"
        },
        {
          "name": "y",
          "type": "uint256",
          "internalType": "uint256"
        },
        {
          "name": "denominator",
          "type": "uint256",
          "internalType": "uint256"
        }
      ]
    },
    {
      "type": "error",
      "name": "PRBMath_SD59x18_Div_InputTooSmall",
      "inputs": []
    },
    {
      "type": "error",
      "name": "PRBMath_SD59x18_Div_Overflow",
      "inputs": [
        {
          "name": "x",
          "type": "int256",
          "internalType": "SD59x18"
        },
        {
          "name": "y",
          "type": "int256",
          "internalType": "SD59x18"
        }
      ]
    },
    {
      "type": "error",
      "name": "PRBMath_SD59x18_Exp2_InputTooBig",
      "inputs": [
        {
          "name": "x",
          "type": "int256",
          "internalType": "SD59x18"
        }
      ]
    },
    {
      "type": "error",
      "name": "PRBMath_SD59x18_IntoUint256_Underflow",
      "inputs": [
        {
          "name": "x",
          "type": "int256",
          "internalType": "SD59x18"
        }
      ]
    },
    {
      "type": "error",
      "name": "PRBMath_SD59x18_Log_InputTooSmall",
      "inputs": [
        {
          "name": "x",
          "type": "int256",
          "internalType": "SD59x18"
        }
      ]
    },
    {
      "type": "error",
      "name": "PRBMath_SD59x18_Mul_InputTooSmall",
      "inputs": []
    },
    {
      "type": "error",
      "name": "PRBMath_SD59x18_Mul_Overflow",
      "inputs": [
        {
          "name": "x",
          "type": "int256",
          "internalType": "SD59x18"
        },
        {
          "name": "y",
          "type": "int256",
          "internalType": "SD59x18"
        }
      ]
    },
    {
      "type": "error",
      "name": "SablierV2Base_NoProtocolRevenues",
      "inputs": [
        {
          "name": "asset",
          "type": "address",
          "internalType": "contract IERC20"
        }
      ]
    },
    {
      "type": "error",
      "name": "SablierV2LockupDynamic_DepositAmountNotEqualToSegmentAmountsSum",
      "inputs": [
        {
          "name": "depositAmount",
          "type": "uint128",
          "internalType": "uint128"
        },
        {
          "name": "segmentAmountsSum",
          "type": "uint128",
          "internalType": "uint128"
        }
      ]
    },
    {
      "type": "error",
      "name": "SablierV2LockupDynamic_SegmentCountTooHigh",
      "inputs": [
        {
          "name": "count",
          "type": "uint256",
          "internalType": "uint256"
        }
      ]
    },
    {
      "type": "error",
      "name": "SablierV2LockupDynamic_SegmentCountZero",
      "inputs": []
    },
    {
      "type": "error",
      "name": "SablierV2LockupDynamic_SegmentMilestonesNotOrdered",
      "inputs": [
        {
          "name": "index",
          "type": "uint256",
          "internalType": "uint256"
        },
        {
          "name": "previousMilestone",
          "type": "uint40",
          "internalType": "uint40"
        },
        {
          "name": "currentMilestone",
          "type": "uint40",
          "internalType": "uint40"
        }
      ]
    },
    {
      "type": "error",
      "name": "SablierV2LockupDynamic_StartTimeNotLessThanFirstSegmentMilestone",
      "inputs": [
        {
          "name": "startTime",
          "type": "uint40",
          "internalType": "uint40"
        },
        {
          "name": "firstSegmentMilestone",
          "type": "uint40",
          "internalType": "uint40"
        }
      ]
    },
    {
      "type": "error",
      "name": "SablierV2Lockup_BrokerFeeTooHigh",
      "inputs": [
        {
          "name": "brokerFee",
          "type": "uint256",
          "internalType": "UD60x18"
        },
        {
          "name": "maxFee",
          "type": "uint256",
          "internalType": "UD60x18"
        }
      ]
    },
    {
      "type": "error",
      "name": "SablierV2Lockup_DepositAmountZero",
      "inputs": []
    },
    {
      "type": "error",
      "name": "SablierV2Lockup_EndTimeNotInTheFuture",
      "inputs": [
        {
          "name": "currentTime",
          "type": "uint40",
          "internalType": "uint40"
        },
        {
          "name": "endTime",
          "type": "uint40",
          "internalType": "uint40"
        }
      ]
    },
    {
      "type": "error",
      "name": "SablierV2Lockup_InvalidSenderWithdrawal",
      "inputs": [
        {
          "name": "streamId",
          "type": "uint256",
          "internalType": "uint256"
        },
        {
          "name": "sender",
          "type": "address",
          "internalType": "address"
        },
        {
          "name": "to",
          "type": "address",
          "internalType": "address"
        }
      ]
    },
    {
      "type": "error",
      "name": "SablierV2Lockup_NotTransferable",
      "inputs": [
        {
          "name": "tokenId",
          "type": "uint256",
          "internalType": "uint256"
        }
      ]
    },
    {
      "type": "error",
      "name": "SablierV2Lockup_Null",
      "inputs": [
        {
          "name": "streamId",
          "type": "uint256",
          "internalType": "uint256"
        }
      ]
    },
    {
      "type": "error",
      "name": "SablierV2Lockup_Overdraw",
      "inputs": [
        {
          "name": "streamId",
          "type": "uint256",
          "internalType": "uint256"
        },
        {
          "name": "amount",
          "type": "uint128",
          "internalType": "uint128"
        },
        {
          "name": "withdrawableAmount",
          "type": "uint128",
          "internalType": "uint128"
        }
      ]
    },
    {
      "type": "error",
      "name": "SablierV2Lockup_ProtocolFeeTooHigh",
      "inputs": [
        {
          "name": "protocolFee",
          "type": "uint256",
          "internalType": "UD60x18"
        },
        {
          "name": "maxFee",
          "type": "uint256",
          "internalType": "UD60x18"
        }
      ]
    },
    {
      "type": "error",
      "name": "SablierV2Lockup_StreamCanceled",
      "inputs": [
        {
          "name": "streamId",
          "type": "uint256",
          "internalType": "uint256"
        }
      ]
    },
    {
      "type": "error",
      "name": "SablierV2Lockup_StreamDepleted",
      "inputs": [
        {
          "name": "streamId",
          "type": "uint256",
          "internalType": "uint256"
        }
      ]
    },
    {
      "type": "error",
      "name": "SablierV2Lockup_StreamNotCancelable",
      "inputs": [
        {
          "name": "streamId",
          "type": "uint256",
          "internalType": "uint256"
        }
      ]
    },
    {
      "type": "error",
      "name": "SablierV2Lockup_StreamNotDepleted",
      "inputs": [
        {
          "name": "streamId",
          "type": "uint256",
          "internalType": "uint256"
        }
      ]
    },
    {
      "type": "error",
      "name": "SablierV2Lockup_StreamSettled",
      "inputs": [
        {
          "name": "streamId",
          "type": "uint256",
          "internalType": "uint256"
        }
      ]
    },
    {
      "type": "error",
      "name": "SablierV2Lockup_Unauthorized",
      "inputs": [
        {
          "name": "streamId",
          "type": "uint256",
          "internalType": "uint256"
        },
        {
          "name": "caller",
          "type": "address",
          "internalType": "address"
        }
      ]
    },
    {
      "type": "error",
      "name": "SablierV2Lockup_WithdrawAmountZero",
      "inputs": [
        {
          "name": "streamId",
          "type": "uint256",
          "internalType": "uint256"
        }
      ]
    },
    {
      "type": "error",
      "name": "SablierV2Lockup_WithdrawArrayCountsNotEqual",
      "inputs": [
        {
          "name": "streamIdsCount",
          "type": "uint256",
          "internalType": "uint256"
        },
        {
          "name": "amountsCount",
          "type": "uint256",
          "internalType": "uint256"
        }
      ]
    },
    {
      "type": "error",
      "name": "SablierV2Lockup_WithdrawToZeroAddress",
      "inputs": []
    }
  ],
  "bytecode": {
    "object": "0x60c0346200046e57601f620060b938819003918201601f19168301916001600160401b038311848410176200032b578084926080946040528339810103126200046e5780516001600160a01b038082169290918390036200046e5760208101518281168091036200046e5760408201519183831683036200046e5760600151936200008962000473565b90601d82527f5361626c696572205632204c6f636b75702044796e616d6963204e46540000006020830152620000be62000473565b601181527029a0a116ab1916a627a1a5aaa816a22ca760791b602082015230608052600080546001600160a01b03199081168417825560018054909116909517909455927fbdd36143ee09de60bdefca70680e0f71189b2ed7acee364b53917ad433fdaf808180a38051906001600160401b0382116200032b5760035490600182811c9216801562000463575b60208310146200044d5781601f849311620003d8575b50602090601f83116001146200034d5760009262000341575b50508160011b916000199060031b1c1916176003555b80516001600160401b0381116200032b576004918254600181811c9116801562000320575b60208210146200030b579081601f849311620002b3575b50602090601f831160011462000248576000926200023c575b50508160011b916000199060031b1c19161790555b1660018060a01b0319600a541617600a5560a0526001600955604051615c259081620004948239608051816137cf015260a05181818161116301526138f00152f35b015190503880620001e5565b6000858152602081209350601f198516905b8181106200029a575090846001959493921062000280575b505050811b019055620001fa565b015160001960f88460031b161c1916905538808062000272565b929360206001819287860151815501950193016200025a565b909150836000526020600020601f840160051c8101916020851062000300575b90601f859493920160051c01905b818110620002f05750620001cc565b60008155849350600101620002e1565b9091508190620002d3565b602284634e487b7160e01b6000525260246000fd5b90607f1690620001b5565b634e487b7160e01b600052604160045260246000fd5b0151905038806200017a565b600360009081527fc2575a0e9e593c00f959f8c92f12db2869c3395a3b0502d05e2516446f71f85b9350601f198516905b818110620003bf5750908460019594939210620003a5575b505050811b0160035562000190565b015160001960f88460031b161c1916905538808062000396565b929360206001819287860151815501950193016200037e565b60036000529091507fc2575a0e9e593c00f959f8c92f12db2869c3395a3b0502d05e2516446f71f85b601f840160051c8101916020851062000442575b90601f859493920160051c01905b81811062000432575062000161565b6000815584935060010162000423565b909150819062000415565b634e487b7160e01b600052602260045260246000fd5b91607f16916200014b565b600080fd5b60408051919082016001600160401b038111838210176200032b5760405256fe608080604052600436101561001357600080fd5b600090813560e01c90816301ffc9a714612b805750806306fdde0314612abc578063081812fc14612a9d578063095ea7b31461290e5780631400ecec1461286e57806316844456146125a45780631c1cdd4c1461253f5780631e99d5691461252157806323b872dd146124f75780632c5a6fb81461241e57806339a73c03146123dd57806340e58ee514612136578063425d30dd1461211757806342842e0e146120c557806342966c6814611f3b5780634857501f14611eb15780634869e12d14611e765780635fe3b56714611e4f5780636352211e14611e1f57806363e5554914611d7d5780636900ebd014611ccb5780636d0cee7514611c7557806370a0823114611bcc57806375829def14611b395780637cad6cd114611a685780637de6b1db146118725780638659c2701461154f578063894e9a0d146112ee5780638bad38dd146112715780638f69b993146111d65780639067b677146111865780639188ec841461114b578063932733351461107757806395d89b4114610f68578063a22cb46514610e97578063a2ffb89714610dae578063a6202bf214610ca8578063a80fc07114610c56578063a8ef018a14610b97578063ad35efd414610b33578063b256456914610b14578063b637b86514610ab6578063b88d4fde14610a28578063b8a3be66146109f3578063b971302a146109a4578063bc063e1a14610981578063bc2be1be14610931578063c156a11d14610861578063c33cd35e146106fd578063c87b56dd146105bf578063cc364f4814610528578063d4dbd20b146104d6578063d511609f1461048a578063d975dfed1461043c578063e985e9c5146103e7578063ea5ead19146103b8578063eac8f5b81461034f578063f590c17614610326578063f851a440146103005763fdd46d60146102b557600080fd5b346102fd5760603660031901126102fd576102ce612caf565b6044356001600160801b03811681036102f8576102f5916102ed6137c5565b6004356136b2565b80f35b600080fd5b80fd5b50346102fd57806003193601126102fd576001600160a01b036020915416604051908152f35b50346102fd5760203660031901126102fd5760206103456004356132fd565b6040519015158152f35b50346102fd5760203660031901126102fd57600435808252600b60205260ff600160408420015460a81c16156103a15760016040836001600160a01b039360209552600b855220015416604051908152f35b6024906040519062b8e7e760e51b82526004820152fd5b50346102fd5760403660031901126102fd576102f56004356103d8612caf565b6103e18261459a565b9161332e565b50346102fd5760403660031901126102fd57610401612c99565b604061040b612caf565b926001600160a01b0380931681526008602052209116600052602052602060ff604060002054166040519015158152f35b50346102fd5760203660031901126102fd5760043580600052600b60205260ff60016040600020015460a81c16156103a15761047960209161459a565b6001600160801b0360405191168152f35b50346102fd5760203660031901126102fd57600435808252600b60205260ff600160408420015460a81c16156103a15760408260029260209452600b845220015460801c604051908152f35b50346102fd5760203660031901126102fd57600435808252600b60205260ff600160408420015460a81c16156103a15760036040836001600160801b039360209552600b855220015416604051908152f35b50346102fd5760203660031901126102fd5760043581602060405161054c81612e36565b8281520152808252600b60205260ff600160408420015460a81c16156103a15760408281928152600b602052205464ffffffffff82519161058c83612e36565b818160a01c16835260c81c1660208201526105bd825180926020908164ffffffffff91828151168552015116910152565bf35b50346102fd576020806003193601126106e9576004356105fd6105f88260005260056020526001600160a01b0360406000205416151590565b6130b7565b826001600160a01b03600a5416916044604051809481937fe9dc637500000000000000000000000000000000000000000000000000000000835230600484015260248301525afa9283156106f157809361066c575b5050610668604051928284938452830190612c74565b0390f35b909192503d8082843e61067f8184612e6f565b82019183818403126106e95780519067ffffffffffffffff82116106ed570182601f820112156106e9578051916106b583612e91565b936106c36040519586612e6f565b8385528584840101116102fd5750906106e191848085019101612c51565b903880610652565b5080fd5b8280fd5b604051903d90823e3d90fd5b50346102fd576020600319916020833601126102fd576004359067ffffffffffffffff938483116106e9576101409083360301126102fd5761073d6137c5565b6040519361074a85612e05565b61075683600401612cc5565b855261076460248401612f45565b602086015261077560448401612da3565b604086015261078660648401612da3565b92606093606087015261079b60848201612cc5565b60808701526107ac60a48201612ead565b60a08701526107bd60c48201612cc5565b60c08701526107cf3660e48301612fe0565b60e08701526101248101359182116106ed570192366023850112156106e95760048401356107fc81612f2d565b9461080a6040519687612e6f565b81865260246060602088019302820101933685116102fd5750602401905b8382106108495760206108418888610100820152613842565b604051908152f35b8285916108563685612f57565b815201910190610828565b50346102fd5760403660031901126102fd5760043561087e612caf565b6108866137c5565b81600052600b60205260ff60016040600020015460a81c161561091a578160005260056020526001600160a01b03604060002054168033036108f7579082916108d16102f59461459a565b6001600160801b0381166108e6575b506142bf565b6108f190828561332e565b386108e0565b60405163216caf0d60e01b815260048101849052336024820152604490fd5b0390fd5b6024826040519062b8e7e760e51b82526004820152fd5b50346102fd5760203660031901126102fd57600435808252600b60205260ff600160408420015460a81c16156103a15760408264ffffffffff9260209452600b8452205460a01c16604051908152f35b50346102fd57806003193601126102fd57602060405167016345785d8a00008152f35b50346102fd5760203660031901126102fd57600435808252600b60205260ff600160408420015460a81c16156103a1576040826001600160a01b039260209452600b8452205416604051908152f35b50346102fd5760203660031901126102fd5760ff600160406020936004358152600b855220015460a81c166040519015158152f35b50346102fd5760803660031901126102fd57610a42612c99565b610a4a612caf565b906064359067ffffffffffffffff8211610ab25736602383011215610ab25781600401359284610a7985612e91565b93610a876040519586612e6f565b85855236602487830101116106e957856102f596602460209301838801378501015260443591613267565b8380fd5b50346102fd5760203660031901126102fd57600435808252600b60205260ff600160408420015460a81c16156103a1576004604083610b00936106689552600b60205220016131a0565b604051918291602083526020830190612d3f565b50346102fd5760203660031901126102fd576020610345600435613230565b50346102fd5760203660031901126102fd5760043580600052600b60205260ff60016040600020015460a81c16156103a157610b6e90614159565b604051906005811015610b8357602092508152f35b602483634e487b7160e01b81526021600452fd5b50346102fd57602090816003193601126102fd57602490826001600160a01b03610bbf612c99565b16604051938480927fc44b11f70000000000000000000000000000000000000000000000000000000082523060048301525afa918215610c49578192610c0f575b50506105bd6040518092612db0565b9091508281813d8311610c42575b610c278183612e6f565b810103126106e957519060038210156102fd57503880610c00565b503d610c1d565b50604051903d90823e3d90fd5b50346102fd5760203660031901126102fd57600435808252600b60205260ff600160408420015460a81c16156103a15760026040836001600160801b039360209552600b855220015416604051908152f35b50346102fd5760203660031901126102fd57610cc2612c99565b6001600160a01b0380835416338103610d85575081169081835260026020526001600160801b03604084205416908115610d545781610d25918486526002602052604086206fffffffffffffffffffffffffffffffff198154169055339061453e565b6040519081527fca7a4a65a94ed2f37538814e00e1cd4c41a78261561e3f3794592f11409cf5af60203392a380f35b602483604051907f8410168c0000000000000000000000000000000000000000000000000000000082526004820152fd5b6040516331b339a960e21b81526001600160a01b03919091166004820152336024820152604490fd5b50346102fd5760603660031901126102fd5767ffffffffffffffff6004358181116106ed57610de1903690600401612d0e565b9091610deb612caf565b90604435908111610e9357610e04903690600401612d0e565b9092610e0e6137c5565b818103610e5d5760005b818110610e23578680f35b80610e57610e34600193858a613127565b3586610e49610e4485898c613127565b612fcc565b91610e526137c5565b6136b2565b01610e18565b604491604051917faec9344000000000000000000000000000000000000000000000000000000000835260048301526024820152fd5b8480fd5b50346102fd5760403660031901126102fd57610eb1612c99565b602435908115158092036102f8576001600160a01b031690813314610f245733835260086020526040832082600052602052604060002060ff1981541660ff83161790556040519081527f17307eab39ab6107e8899845ad3d59bd9653f200f220920489ca2b5937696c3160203392a380f35b606460405162461bcd60e51b815260206004820152601960248201527f4552433732313a20617070726f766520746f2063616c6c6572000000000000006044820152fd5b50346102fd57806003193601126102fd5760405190806004549160018360011c926001851694851561106d575b602095868610811461105957858852879493929187908215611037575050600114610fdd575b5050610fc992500383612e6f565b610668604051928284938452830190612c74565b90859250600482527f8a35acfbc15ff81a39ae7d344fd709f28e8600b4aa8c65c6b64bfe7fe36bd19b5b85831061101f575050610fc993508201013880610fbb565b80548389018501528794508693909201918101611007565b9250935050610fc994915060ff191682840152151560051b8201013880610fbb565b602483634e487b7160e01b81526022600452fd5b93607f1693610f95565b50346102fd5760803660031901126102fd576004356001600160a01b038082168092036106ed57602435916003831015610ab257604435926002841015610e93576064359280841680940361114757855416338103610d85575090849291813b15610ab257836064926111199460405197889687957fc8992e610000000000000000000000000000000000000000000000000000000087526004870190612db0565b602485015260448401525af1801561113c57611133575080f35b6102f590612e22565b6040513d84823e3d90fd5b8580fd5b50346102fd57806003193601126102fd5760206040517f00000000000000000000000000000000000000000000000000000000000000008152f35b50346102fd5760203660031901126102fd57600435808252600b60205260ff600160408420015460a81c16156103a15760408264ffffffffff9260209452600b8452205460c81c16604051908152f35b50346102fd5760203660031901126102fd57600435808252600b60205260ff600160408420015460a81c16156103a15761120f90614159565b90600582101590816112505760028314918215611264575b821561123b575b6020836040519015158152f35b9091506112505750600460209114388061122e565b80634e487b7160e01b602492526021600452fd5b5060038314915080611227565b50346102fd5760203660031901126102fd576004356001600160a01b03908181168091036106ed5781835416338103610d85575060015491816001600160a01b03198416176001556040519216825260208201527fdcb09aef4bf01068924ccce937981cbe59d25ba08380cf941aaaea4e4bd3960d60403392a280f35b50346102fd5760203660031901126102fd57606061014060405161131181612e52565b83815283602082015283604082015283838201528360808201528360a08201528360c08201528360e08201528361010082015261134c61314d565b61012082015201526004358152600b60205260ff600160408320015460a81c1615611537576004358152600b6020526040812061142b60046040519261139184612e52565b80546001600160a01b038116855264ffffffffff8160a01c16602086015264ffffffffff8160c81c16604086015260ff8160f01c161515606086015260f81c1515608085015260ff60018201546001600160a01b03811660a0870152818160a01c16151560c0870152818160a81c16151560e087015260b01c16151561010085015261141f6002820161316c565b610120850152016131a0565b61014082015261143c600435614159565b6005811015610b8357916002610140931461152c575b50610668604051928392602084526001600160a01b03815116602085015264ffffffffff602082015116604085015264ffffffffff60408201511660608501526060810151151560808501526080810151151560a08501526001600160a01b0360a08201511660c085015260c0810151151560e085015260e08101511515610100850152610100810151151561012085015261151861012082015183860190604090816001600160801b0391828151168552826020820151166020860152015116910152565b01516101a0808401526101c0830190612d3f565b606082015238611452565b602460405162b8e7e760e51b81526004356004820152fd5b50346102fd57602090816003193601126102fd5760043567ffffffffffffffff81116106e95761158483913690600401612d0e565b919061158e6137c5565b83925b80841061159c578480f35b6115ab84828497959697613127565b35946115b56137c5565b6115be86613080565b156115db5760248660405190634a5541ef60e01b82526004820152fd5b6115e4866132fd565b61185a5761160886600052600b6020526001600160a01b0360406000205416331490565b1561183b576116168661375a565b95808552600b9081875261162f6002604088200161316c565b906001600160801b039283835116848b1610156118235781885280895260ff604089205460f01c161561180b5761167f8a858b61167560409a9b9c9d9e83895116612efe565b9601511690612efe565b92828a52818b52868a20908b8b7f5edb27d6c1a327513b90a792050debf074b7194444885e3144d4decc5caaaa50845497600160f81b7dffffffffffffffffffffffffffffffffffffffffffffffffffffffffffff8a1617865560038a82169687156117f1575b01998516998a6fffffffffffffffffffffffffffffffff198254161790556001600160a01b0380991698899360058652818e822054169889965260019d8e9120015416946117358b858861453e565b604080518a81526001600160801b0392831660208201529290911690820152606090a47ff8e1a15aba9398e019f0b49df1a4fde98ee17ae345cb5f6b5e2c27f5033e8ce78b604051858152a1813b611799575b505050505001919093919293611591565b813b156117ed57918960849281959460405197889687956372eba20360e01b875260048701526024860152604485015260648401525af16117de575b80808080611788565b6117e790612e22565b866117d5565b8980fd5b60018101600160a01b60ff60a01b198254161790556116e6565b602482604051906339c6dc7360e21b82526004820152fd5b602482604051906322cad1af60e11b82526004820152fd5b60405163216caf0d60e01b815260048101879052336024820152604490fd5b6024866040519063fe19f19f60e01b82526004820152fd5b50346102fd576020806003193601126106e957600435906118916137c5565b818352600b815260ff600160408520015460a81c161561091a576118b482614159565b6005811015611a5457600481036118dd5760248360405190634a5541ef60e01b82526004820152fd5b600381036118fd576024836040519063fe19f19f60e01b82526004820152fd5b6002146118235761192482600052600b6020526001600160a01b0360406000205416331490565b15611a3557818352600b815260ff604084205460f01c161561180b57818352600b81526040832060ff60f01b19815416905560405191807f0eb069207093cd3e51cd1370d2d369770057fbe29947e577e5fb428c6c6fc78f8580a2600582526001600160a01b0360408520541692833b6119c7575b507ff8e1a15aba9398e019f0b49df1a4fde98ee17ae345cb5f6b5e2c27f5033e8ce79250604051908152a180f35b84843b156102fd5781602481837ff8e1a15aba9398e019f0b49df1a4fde98ee17ae345cb5f6b5e2c27f5033e8ce7987f341a0bd90000000000000000000000000000000000000000000000000000000083528760048401525af11561199957611a2f90612e22565b38611999565b60405163216caf0d60e01b815260048101839052336024820152604490fd5b602484634e487b7160e01b81526021600452fd5b50346102fd5760203660031901126102fd576004356001600160a01b03908181168091036106ed5781835416338103610d855750600a5491816001600160a01b0319841617600a556040519216825260208201527fa2548bd4b805e907c1558a47b5858324fe8bb4a2e1ddfca647eecbf65610eebc60403392a26009546000198101908111611b255760407f6bd5c950a8d8df17f772f5af37cb3655737899cbf903264b9795592da439661c91815190600182526020820152a180f35b602482634e487b7160e01b81526011600452fd5b50346102fd5760203660031901126102fd57611b53612c99565b9080546001600160a01b0380821693338503611ba5576001600160a01b03199394501691829116178255337fbdd36143ee09de60bdefca70680e0f71189b2ed7acee364b53917ad433fdaf808380a380f35b6040516331b339a960e21b81526001600160a01b0386166004820152336024820152604490fd5b50346102fd5760203660031901126102fd576001600160a01b03611bee612c99565b168015611c0b578160409160209352600683522054604051908152f35b608460405162461bcd60e51b815260206004820152602960248201527f4552433732313a2061646472657373207a65726f206973206e6f74206120766160448201527f6c6964206f776e657200000000000000000000000000000000000000000000006064820152fd5b50346102fd5760203660031901126102fd576001600160a01b036040602092600435611cba6105f88260005260056020526001600160a01b0360406000205416151590565b815260058452205416604051908152f35b50346102fd5760403660031901126102fd57611ce5612c99565b60243560038110156106ed576001600160a01b0380845416338103610d855750602460209285611d449360405196879586947f1a33757d0000000000000000000000000000000000000000000000000000000086526004860190612db0565b165af1801561113c57611d55575080f35b602090813d8311611d76575b611d6b8183612e6f565b810103126102fd5780f35b503d611d61565b50346102fd57602090816003193601126102fd576024826001600160a01b03611da4612c99565b16604051928380927fe12f3a610000000000000000000000000000000000000000000000000000000082523060048301525afa9182156106f1578092611def575b5050604051908152f35b9091508282813d8311611e18575b611e078183612e6f565b810103126102fd5750513880611de5565b503d611dfd565b50346102fd5760203660031901126102fd576020611e3e600435613102565b6001600160a01b0360405191168152f35b50346102fd57806003193601126102fd5760206001600160a01b0360015416604051908152f35b50346102fd5760203660031901126102fd5760ff6001604060043593848152600b60205220015460a81c16156103a1576104796020916144c3565b50346102fd5760203660031901126102fd5760043590818152600b60205260ff600160408320015460a81c161561091a5780611eec83614159565b926005841015611f2757600260209403611f0d575b50506040519015158152f35b8152600b8352604090205460f01c60ff1690503880611f01565b602482634e487b7160e01b81526021600452fd5b50346102fd5760203660031901126102fd57600435611f586137c5565b611f6181613080565b1561209457611f6f8161445a565b1561207457611f7d81613102565b611f8682613230565b15908161206c575b81612059575b5061204157602081611fc67ff8e1a15aba9398e019f0b49df1a4fde98ee17ae345cb5f6b5e2c27f5033e8ce793613102565b90808552600783526001600160a01b0360408620926001600160a01b03199384815416905516918286526006845260408620600019815401905581865260058452604086209081541690558085604051937fddf252ad1be2c89b69c2b068fc378daa952ba7f163c4a11628f55a4df523b3ef8280a48152a180f35b60249060405190630da9b01360e01b82526004820152fd5b6001600160a01b03915016151538611f94565b839150611f8e565b60405163216caf0d60e01b81526004810191909152336024820152604490fd5b602490604051907f817cd6390000000000000000000000000000000000000000000000000000000082526004820152fd5b50346102fd576120d436612cd9565b60409392935191602083019483861067ffffffffffffffff871117612103576102f59495604052858452613267565b602485634e487b7160e01b81526041600452fd5b50346102fd5760203660031901126102fd576020610345600435613080565b50346102fd576020806003193601126106e957600435906121556137c5565b61215e82613080565b1561217b5760248260405190634a5541ef60e01b82526004820152fd5b90612185816132fd565b6123c5576121a981600052600b6020526001600160a01b0360406000205416331490565b15612074576121b78161375a565b818452600b83526121cd6002604086200161316c565b926001600160801b03918285511683821610156123ad57838652600b825260ff604087205460f01c16156123955792827ff8e1a15aba9398e019f0b49df1a4fde98ee17ae345cb5f6b5e2c27f5033e8ce78361224287846040976122388d9b6122f69b8e5116612efe565b9b01511690612efe565b92848852600b825287868120947f5edb27d6c1a327513b90a792050debf074b7194444885e3144d4decc5caaaa50865491600160f81b7dffffffffffffffffffffffffffffffffffffffffffffffffffffffffffff8416178855600385821698891561237b575b01948d169c858e6fffffffffffffffffffffffffffffffff19819854161790556001600160a01b038094169b8c94600589526001818e892054169d8e98600b8c522001541696858861453e565b604080518b81526001600160801b0392831660208201529290911690820152606090a4604051848152a1823b61232a578480f35b823b15610e9357608492859160405197889687956372eba20360e01b875260048701526024860152604485015260648401525af161236c575b81818080808480f35b61237590612e22565b38612363565b60018101600160a01b60ff60a01b198254161790556122a9565b602484604051906339c6dc7360e21b82526004820152fd5b602484604051906322cad1af60e11b82526004820152fd5b6024906040519063fe19f19f60e01b82526004820152fd5b50346102fd5760203660031901126102fd576001600160801b0360406020926001600160a01b0361240c612c99565b16815260028452205416604051908152f35b50346102fd5760603660031901126102fd57612438612c99565b6001600160a01b03906044358281168103610ab25782845416338103610d8557506040517faad3ec960000000000000000000000000000000000000000000000000000000081526001600160a01b03919091166004820152602480359082015291602091839160449183918791165af190811561113c5782916124c1575b602082604051908152f35b90506020813d6020116124ef575b816124dc60209383612e6f565b810103126106e9576020915051386124b6565b3d91506124cf565b50346102fd576102f561250936612cd9565b9161251c61251784336141e0565b61300f565b6142bf565b50346102fd57806003193601126102fd576020600954604051908152f35b50346102fd5760203660031901126102fd57600435808252600b60205260ff600160408420015460a81c16156103a15761257890614159565b9060058210156112505760208215838115612599575b506040519015158152f35b60019150148261258e565b50346102fd576020906003199082823601126102fd576004359067ffffffffffffffff928383116106e957610120833603918201126106e9576125e56137c5565b61010483013590602219018112156106e95782016004810135908482116106ed57602481016060916060840280360383136111475760249061262686612f2d565b956126346040519788612e6f565b86528986019201019136831161114757905b8883831061285757505050505080519361265f85612f2d565b9461266d6040519687612e6f565b808652601f1961267c82612f2d565b0187855b8281106128415750505064ffffffffff90814216926001600160801b0394856126a882613821565b515116828b6126b684613821565b51015116858060406126c786613821565b5101511688011690604051926126dc84612dd3565b83528c83015260408201526126f08a613821565b526126fa89613821565b506001938960015b8c8682106127c257828c8c8c8c60a4840135926001600160a01b03908185168095036102fd5750926127b2928592610841979561274460246127829901612fab565b61275060448701612fab565b61275c60648801612fb8565b9161276988600401612fb8565b948461277760848b01612fcc565b966040519d8e612e05565b168c528d8c0152151560408b0152151560608a01521660808801521660a086015260c085015260c4369101612fe0565b60e0830152610100820152613842565b61282d8289948c6127d3838a61382e565b5151169389816127e3858c61382e565b51015116888a81604061280a88838361280060001984018c61382e565b510151169461382e565b510151160116916040519661281e88612dd3565b8752860152604085015261382e565b52612838818d61382e565b50018a90612702565b61284961314d565b82828b010152018890612680565b84916128633685612f57565b815201910190612646565b50346102fd5760203660031901126102fd5760043590818152600b60205260ff600160408320015460a81c161561091a57602091604082828152600b85522060ff815460f01c16806128fc575b6128d3575b50506001600160801b0360405191168152f35b6128f592506001600160801b0360026128ef920154169161375a565b90612efe565b38806128c0565b5060ff600182015460a01c16156128bb565b50346102fd5760403660031901126102fd57612928612c99565b602435906001600160a01b03808061293f85613102565b16921691808314612a3357803314908115612a12575b50156129a857828452600760205260408420826001600160a01b031982541617905561298083613102565b167f8c5be1e5ebec7d5bd14f71427d1e84f3dd0314c0f7b2291e5b200ac8c7c3b9258480a480f35b608460405162461bcd60e51b815260206004820152603d60248201527f4552433732313a20617070726f76652063616c6c6572206973206e6f7420746f60448201527f6b656e206f776e6572206f7220617070726f76656420666f7220616c6c0000006064820152fd5b9050845260086020526040842033855260205260ff60408520541638612955565b608460405162461bcd60e51b815260206004820152602160248201527f4552433732313a20617070726f76616c20746f2063757272656e74206f776e6560448201527f72000000000000000000000000000000000000000000000000000000000000006064820152fd5b50346102fd5760203660031901126102fd576020611e3e600435612ec1565b50346102fd57806003193601126102fd5760405190806003549160018360011c9260018516948515612b76575b602095868610811461105957858852879493929187908215611037575050600114612b1c575050610fc992500383612e6f565b90859250600382527fc2575a0e9e593c00f959f8c92f12db2869c3395a3b0502d05e2516446f71f85b5b858310612b5e575050610fc993508201013880610fbb565b80548389018501528794508693909201918101612b46565b93607f1693612ae9565b9050346106e95760203660031901126106e9576004357fffffffff0000000000000000000000000000000000000000000000000000000081168091036106ed57602092507f80ac58cd000000000000000000000000000000000000000000000000000000008114908115612c27575b8115612bfd575b5015158152f35b7f01ffc9a70000000000000000000000000000000000000000000000000000000091501438612bf6565b7f5b5e139f0000000000000000000000000000000000000000000000000000000081149150612bef565b60005b838110612c645750506000910152565b8181015183820152602001612c54565b90602091612c8d81518092818552858086019101612c51565b601f01601f1916010190565b600435906001600160a01b03821682036102f857565b602435906001600160a01b03821682036102f857565b35906001600160a01b03821682036102f857565b60609060031901126102f8576001600160a01b039060043582811681036102f8579160243590811681036102f8579060443590565b9181601f840112156102f85782359167ffffffffffffffff83116102f8576020808501948460051b0101116102f857565b90815180825260208080930193019160005b828110612d5f575050505090565b835180516001600160801b031686528083015167ffffffffffffffff168684015260409081015164ffffffffff169086015260609094019392810192600101612d51565b359081151582036102f857565b906003821015612dbd5752565b634e487b7160e01b600052602160045260246000fd5b6060810190811067ffffffffffffffff821117612def57604052565b634e487b7160e01b600052604160045260246000fd5b610120810190811067ffffffffffffffff821117612def57604052565b67ffffffffffffffff8111612def57604052565b6040810190811067ffffffffffffffff821117612def57604052565b610160810190811067ffffffffffffffff821117612def57604052565b90601f8019910116810190811067ffffffffffffffff821117612def57604052565b67ffffffffffffffff8111612def57601f01601f191660200190565b35906001600160801b03821682036102f857565b612ee46105f88260005260056020526001600160a01b0360406000205416151590565b60005260076020526001600160a01b036040600020541690565b6001600160801b039182169082160391908211612f1757565b634e487b7160e01b600052601160045260246000fd5b67ffffffffffffffff8111612def5760051b60200190565b359064ffffffffff821682036102f857565b91908260609103126102f857604051612f6f81612dd3565b8092612f7a81612ead565b825260208101359067ffffffffffffffff821682036102f8576040612fa6918193602086015201612f45565b910152565b3580151581036102f85790565b356001600160a01b03811681036102f85790565b356001600160801b03811681036102f85790565b91908260409103126102f857604051612ff881612e36565b602080829461300681612cc5565b84520135910152565b1561301657565b608460405162461bcd60e51b815260206004820152602d60248201527f4552433732313a2063616c6c6572206973206e6f7420746f6b656e206f776e6560448201527f72206f7220617070726f766564000000000000000000000000000000000000006064820152fd5b80600052600b60205260ff60016040600020015460a81c16156103a157600052600b60205260ff60016040600020015460a01c1690565b156130be57565b606460405162461bcd60e51b815260206004820152601860248201527f4552433732313a20696e76616c696420746f6b656e20494400000000000000006044820152fd5b60005260056020526001600160a01b03604060002054166131248115156130b7565b90565b91908110156131375760051b0190565b634e487b7160e01b600052603260045260246000fd5b6040519061315a82612dd3565b60006040838281528260208201520152565b9060405161317981612dd3565b6040819360018154916001600160801b0392838116865260801c6020860152015416910152565b9081546131ac81612f2d565b926040936131bd6040519182612e6f565b82815280946020809201926000526020600020906000935b8585106131e457505050505050565b600184819284516131f481612dd3565b64ffffffffff87546001600160801b038116835267ffffffffffffffff8160801c168584015260c01c16868201528152019301940193916131d5565b80600052600b60205260ff60016040600020015460a81c16156103a157600052600b60205260ff60016040600020015460b01c1690565b9061328b93929161327b61251784336141e0565b6132868383836142bf565b614bca565b1561329257565b60405162461bcd60e51b815260206004820152603260248201527f4552433732313a207472616e7366657220746f206e6f6e20455243373231526560448201527f63656976657220696d706c656d656e74657200000000000000000000000000006064820152608490fd5b80600052600b60205260ff60016040600020015460a81c16156103a157600052600b60205260406000205460f81c90565b9291926133396137c5565b61334281613080565b61369a5761336681600052600b6020526001600160a01b0360406000205416331490565b9182158061368a575b611a3557600092828452602093600585526001600160a01b0396604093888584205416938061367e575b61364057888116988915613617576001600160801b038084169384156135e7576133dc6133c58a6144c3565b8a8852600b8c5260028a8920015460801c90612efe565b828116861161359f575091849161343b61340961347495600b8e8e8c525260028c8b20015460801c6145c2565b8b8952600b8d5260028b8a200190836fffffffffffffffffffffffffffffffff1983549260801b16911617815561316c565b90613456818d8401511692828c818351169201511690612efe565b161115613570575b888652600b8a526001888720015416928361453e565b88867f40b88e5c41c5a97ffb7b6ef88a0a2d505aa0c634cf8a0275cb236ea7dd87ed4d898851868152a48233141580613566575b6134db575b5050507ff8e1a15aba9398e019f0b49df1a4fde98ee17ae345cb5f6b5e2c27f5033e8ce793945051908152a1565b823b156106e95760847ff8e1a15aba9398e019f0b49df1a4fde98ee17ae345cb5f6b5e2c27f5033e8ce7979883865195869485937f13375c3b0000000000000000000000000000000000000000000000000000000085528a6004860152336024860152604485015260648401525af1613557575b8594816134ad565b61356090612e22565b3861354f565b50823b15156134a8565b888652600b8a5287862060018101600160a01b60ff60a01b1982541617905560ff60f01b19815416905561345e565b88517fa1fb2bbc000000000000000000000000000000000000000000000000000000008152600481018b90526001600160801b03928316602482015291166044820152606490fd5b6024898951907fd2aabcd90000000000000000000000000000000000000000000000000000000082526004820152fd5b600486517fc61a0e9e000000000000000000000000000000000000000000000000000000008152fd5b85896064928751927f5b97ed720000000000000000000000000000000000000000000000000000000084526004840152336024840152166044820152fd5b50838982161415613399565b506136948261445a565b1561336f565b60249060405190634a5541ef60e01b82526004820152fd5b9291926136be81613080565b61369a576136e281600052600b6020526001600160a01b0360406000205416331490565b9182158061374a575b611a3557600092828452602093600585526001600160a01b0396604093888584205416938061373e575b61364057888116988915613617576001600160801b038084169384156135e7576133dc8961459a565b50838982161415613715565b506137548261445a565b156136eb565b64ffffffffff80421682600052600b602052604060002091825482828260a01c1610156137bb5760c81c1611156137a95760040154600110156137a057613124906146b1565b613124906145dd565b6001600160801b039150600201541690565b5050505050600090565b6001600160a01b037f00000000000000000000000000000000000000000000000000000000000000001630036137f757565b60046040517fa1c0d6e5000000000000000000000000000000000000000000000000000000008152fd5b8051156131375760200190565b80518210156131375760209160051b010190565b906001600160a01b036001541660206001600160a01b0360c0850151166024604051809481937fdcf844a700000000000000000000000000000000000000000000000000000000835260048301525afa801561414d57600090614119575b6138c391506001600160801b0360a08501511690602060e086015101519161489c565b6001600160801b0381511661010084015164ffffffffff60208601511682156140ef57815180156140c5577f00000000000000000000000000000000000000000000000000000000000000008111614094575064ffffffffff604061392784613821565b5101511681101561403d5750600090819082815184905b808210613faa575050505064ffffffffff421664ffffffffff8216811015613f6a5750506001600160801b0316808203613f335750506009549283600052600b6020526040600020916001600160801b0381511660028401906fffffffffffffffffffffffffffffffff198254161790556001600160a01b0360c083015116600184015490750100000000000000000000000000000000000000000060408501511515928654927fffffffffffffffffff0000ff000000000000000000000000000000000000000076ff000000000000000000000000000000000000000000006060890151151560b01b16921617171760018601556001600160a01b0384511691610100850151926040613a5985519560001987019061382e565b510151927fff000000000000000000000000000000000000000000000000000000000000007eff0000000000000000000000000000000000000000000000000000000000007dffffffffff0000000000000000000000000000000000000000000000000078ffffffffff000000000000000000000000000000000000000060208b015160a01b169660c81b169460f01b16911617171717845560005b818110613e63575050600185016009556001600160a01b0360c08301511660005260026020526001600160801b0380604060002054168160208401511601166001600160a01b0360c0840151166000526040600020906fffffffffffffffffffffffffffffffff198254161790556001600160a01b036080830151168015613e1f57613ba0613b9a8760005260056020526001600160a01b0360406000205416151590565b156149db565b613ba986613230565b1580613e16575b80613e0e575b613df65760207ff8e1a15aba9398e019f0b49df1a4fde98ee17ae345cb5f6b5e2c27f5033e8ce791613c01613b9a8960005260056020526001600160a01b0360406000205416151590565b806000526006825260406000206001815401905587600052600582526040600020816001600160a01b0319825416179055876040519160007fddf252ad1be2c89b69c2b068fc378daa952ba7f163c4a11628f55a4df523b3ef8180a4878152a1613c916001600160a01b0360c0840151166001600160801b03808451168160208601511601169030903390614a26565b6001600160801b0360408201511680613dc7575b507fef3d668acee46576ad5d407c42ab4d0cde13f3cd70b28f09a0fb9e3bf5bf09cb613d846001600160a01b03845116926001600160a01b03608086015116946001600160a01b0360c08201511696613dbc613d9c60408401511515928c606086015115156001600160a01b0360e061010089015194549864ffffffffff6040519a613d308c612e36565b818160a01c168c5260c81c1660208b01520151511695604051998a99610160948b523360208c015260408b0190604090816001600160801b0391828151168552826020820151166020860152015116910152565b60a089015260c08801528060e0880152860190612d3f565b926101008501906020908164ffffffffff91828151168552015116910152565b6101408301520390a4565b613df0906001600160a01b0360c0850151166001600160a01b0360e08601515116903390614a26565b38613ca5565b60248660405190630da9b01360e01b82526004820152fd5b506000613bb6565b50801515613bb0565b606460405162461bcd60e51b815260206004820152602060248201527f4552433732313a206d696e7420746f20746865207a65726f20616464726573736044820152fd5b613e728161010086015161382e565b519060048601549168010000000000000000831015612def57600183018060048901558310156131375760019260048801600052602060002001906001600160801b03815116908254917fffffff00000000000000000000000000000000000000000000000000000000007cffffffffff000000000000000000000000000000000000000000000000604077ffffffffffffffff00000000000000000000000000000000602086015160801b1694015160c01b169316171717905501613af5565b60449250604051917fd90b7e3900000000000000000000000000000000000000000000000000000000835260048301526024820152fd5b6040517f210aec0e00000000000000000000000000000000000000000000000000000000815264ffffffffff918216600482015291166024820152604490fd5b9193509193613fce906001600160801b03613fc5858861382e565b515116906145c2565b9364ffffffffff806040613fe2868561382e565b5101511694168085111561400057506001849301919291909261393e565b8385606492604051927f7b0bada8000000000000000000000000000000000000000000000000000000008452600484015260248301526044820152fd5b64ffffffffff604061404e84613821565b5101516040517fb4c9e52c00000000000000000000000000000000000000000000000000000000815264ffffffffff938416600482015291169091166024820152604490fd5b602490604051907f4757689b0000000000000000000000000000000000000000000000000000000082526004820152fd5b60046040517f3952c64e000000000000000000000000000000000000000000000000000000008152fd5b60046040517f6095d3bc000000000000000000000000000000000000000000000000000000008152fd5b506020813d602011614145575b8161413360209383612e6f565b810103126102f8576138c390516138a0565b3d9150614126565b6040513d6000823e3d90fd5b80600052600b602052604060002060ff600182015460a01c16600014614180575050600490565b805460f81c6141d9575460a01c64ffffffffff1642106141d3576141a38161375a565b90600052600b6020526001600160801b0380600260406000200154169116106000146141ce57600190565b600290565b50600090565b5050600390565b906001600160a01b0380806141f484613102565b16931691838314938415614227575b508315614211575b50505090565b61421d91929350612ec1565b161438808061420b565b909350600052600860205260406000208260005260205260ff604060002054169238614203565b1561425557565b608460405162461bcd60e51b815260206004820152602560248201527f4552433732313a207472616e736665722066726f6d20696e636f72726563742060448201527f6f776e65720000000000000000000000000000000000000000000000000000006064820152fd5b906142e892916142ce83613102565b916001600160a01b0394859384809416968791161461424e565b16908115806143f1576142fa84613230565b1590816143e8575b50806143df575b6143c757918084926143497ff8e1a15aba9398e019f0b49df1a4fde98ee17ae345cb5f6b5e2c27f5033e8ce79660209661434285613102565b161461424e565b60009382855260078652604085206001600160a01b031990818154169055818652600687526040862060001981540190558286526040862060018154019055838652600587528260408720918254161790557fddf252ad1be2c89b69c2b068fc378daa952ba7f163c4a11628f55a4df523b3ef6040519580a48152a1565b60248360405190630da9b01360e01b82526004820152fd5b50831515614309565b90501538614302565b608460405162461bcd60e51b8152602060048201526024808201527f4552433732313a207472616e7366657220746f20746865207a65726f2061646460448201527f72657373000000000000000000000000000000000000000000000000000000006064820152fd5b60009080825260056020526001600160a01b03806040842054169283331493841561449f575b5050821561448d57505090565b90915061449a3392612ec1565b161490565b60ff9294509060409181526008602052818120338252602052205416913880614480565b80600052600b6020526144dc600260406000200161316c565b81600052600b602052604060002060ff600182015460a01c1660001461450f57506001600160801b039150602001511690565b5460f81c61452157506131249061375a565b61312491506001600160801b036040818351169201511690612efe565b6040517fa9059cbb0000000000000000000000000000000000000000000000000000000060208201526001600160a01b0392909216602483015260448083019390935291815261459891614593606483612e6f565b614a91565b565b613124906145a7816144c3565b90600052600b60205260026040600020015460801c90612efe565b9190916001600160801b0380809416911601918211612f1757565b64ffffffffff614612600091838352600b60205280806040852054818160a01c1693849160c81c160316918142160316614d5d565b91808252600b6020526004604083200180541561469d5790829167ffffffffffffffff935261466f6020832054828452600b60205261466a6001600160801b03968760026040882001541696879360801c1690614e4d565b614ebb565b92831361468557505061468190614fa5565b1690565b60029350604092508152600b60205220015460801c90565b602483634e487b7160e01b81526032600452fd5b64ffffffffff90814216906000908152600b6020526040908181208251936146d885612e52565b8154956001600160a01b039182881687526020870197828160a01c168952828160c81c168789015260ff8160f01c161515606089015260f81c1515608088015260ff600193600186015490811660a08a0152818160a01c16151560c08a0152818160a81c16151560e08a015260b01c16151561010088015261014061477360046147646002880161316c565b966101208b01978852016131a0565b9701918783528087614785889a613821565b5101511693828288965b161061486457509161481961466a9284888161481e98976001600160801b039e8f6147bb8b8a5161382e565b5151169d8a8f9b60206147d867ffffffffffffffff928d5161382e565b510151169984836147ea84845161382e565b5101511696508115614858576148089293505190600019019061382e565b5101511680925b0316920316614d5d565b614e4d565b9283136148375750506148318391614fa5565b16011690565b5160200151929392831692841683101591506148539050575090565b905090565b5050505116809261480f565b8094986001600160801b03908161487c8c885161382e565b51511601169801938282808a61489389895161382e565b5101511661478f565b9092916148a761314d565b936001600160801b03928381169182156149b35767016345785d8a000080821161497c5780851161494557506148f1856148e2819386615ad1565b16946020890195865284615ad1565b1691846149086040890194808652828751166145c2565b16101561492f5761492184918261492a95511690612efe565b91511690612efe565b168252565b634e487b7160e01b600052600160045260246000fd5b84604491604051917f4fea5c1a00000000000000000000000000000000000000000000000000000000835260048301526024820152fd5b60449250604051917f47152d6700000000000000000000000000000000000000000000000000000000835260048301526024820152fd5b505050505090506040516149c681612dd3565b60008152600060208201526000604082015290565b156149e257565b606460405162461bcd60e51b815260206004820152601c60248201527f4552433732313a20746f6b656e20616c7265616479206d696e746564000000006044820152fd5b9290604051927f23b872dd0000000000000000000000000000000000000000000000000000000060208501526001600160a01b03809216602485015216604483015260648201526064815260a081019181831067ffffffffffffffff841117612def57614598926040525b6001600160a01b031690614af1604051614aaa81612e36565b6020938482527f5361666545524332303a206c6f772d6c6576656c2063616c6c206661696c6564858301526000808587829751910182855af1614aeb614b9a565b91615b80565b805191821591848315614b76575b505050905015614b0c5750565b6084906040519062461bcd60e51b82526004820152602a60248201527f5361666545524332303a204552433230206f7065726174696f6e20646964206e60448201527f6f742073756363656564000000000000000000000000000000000000000000006064820152fd5b9193818094500103126106e9578201519081151582036102fd575080388084614aff565b3d15614bc5573d90614bab82612e91565b91614bb96040519384612e6f565b82523d6000602084013e565b606090565b9290803b15614d5457614c34916020916001600160a01b0394604051809581948293897f150b7a02000000000000000000000000000000000000000000000000000000009b8c86523360048701521660248501526044840152608060648401526084830190612c74565b03916000968791165af190829082614cf3575b5050614ccd57614c55614b9a565b80519081614cc85760405162461bcd60e51b815260206004820152603260248201527f4552433732313a207472616e7366657220746f206e6f6e20455243373231526560448201527f63656976657220696d706c656d656e74657200000000000000000000000000006064820152608490fd5b602001fd5b7fffffffff00000000000000000000000000000000000000000000000000000000161490565b909192506020813d602011614d4c575b81614d1060209383612e6f565b810103126106e95751907fffffffff00000000000000000000000000000000000000000000000000000000821682036102fd5750903880614c47565b3d9150614d03565b50505050600190565b600160ff1b808214908115614e43575b50614e19576000811215614e1057614d96816000035b6000841215614e09578360000390614fe1565b917f7fffffffffffffffffffffffffffffffffffffffffffffffffffffffffffffff8311614dd25760001991181315614dcc5790565b60000390565b60449250604051917fd49c26b300000000000000000000000000000000000000000000000000000000835260048301526024820152fd5b8390614fe1565b614d9681614d83565b60046040517f9fe2b450000000000000000000000000000000000000000000000000000000008152fd5b9050821438614d6d565b80614e685750614e6357670de0b6b3a764000090565b600090565b90670de0b6b3a7640000808314614eb5575080614e8d575050670de0b6b3a764000090565b670de0b6b3a76400008114614eb157614eac9061466a613124936150db565b61521d565b5090565b91505090565b600160ff1b808214908115614f9b575b50614f71576000811215614f6857614ef4816000035b6000841215614f61578360000390615ad1565b917f7fffffffffffffffffffffffffffffffffffffffffffffffffffffffffffffff8311614f2a5760001991181315614dcc5790565b60449250604051917f120b5b4300000000000000000000000000000000000000000000000000000000835260048301526024820152fd5b8390615ad1565b614ef481614ee1565b60046040517fa6070c25000000000000000000000000000000000000000000000000000000008152fd5b9050821438614ecb565b60008112614fb05790565b602490604051907f2463f3d50000000000000000000000000000000000000000000000000000000082526004820152fd5b670de0b6b3a764000091600019838309928083029283808610950394808603951461509d578285101561506157908291096001821901821680920460028082600302188083028203028083028203028083028203028083028203028083028203028092029003029360018380600003040190848311900302920304170290565b82606492604051927f63a05778000000000000000000000000000000000000000000000000000000008452600484015260248301526044820152fd5b5050809250156150ab570490565b634e487b7160e01b600052601260045260246000fd5b80156150ab576ec097ce7bc90715b34b9f10000000000590565b806000808313156151ec57670de0b6b3a7640000928381126151c957506001925b808305906001600160801b03821160071b91821c9167ffffffffffffffff831160061b92831c63ffffffff811160051b90811c61ffff811160041b90811c60ff811160031b90811c91600f831160021b92831c93600197600160038711811b96871c11961717171717171781810294811d908282146151bd57506706f05b59d3b20000905b8482136151915750505050500290565b808391020590671bc16d674ec800008212156151b0575b831d90615181565b8091950194831d906151a8565b93505093925050020290565b60001993925080156150ab576ec097ce7bc90715b34b9f100000000005916150fc565b602483604051907f059b101b0000000000000000000000000000000000000000000000000000000082526004820152fd5b600081121561524c5768033dd1780914b971141981126141d3576152439060000361521d565b613124906150c1565b680a688906bd8affffff8113615aa057670de0b6b3a764000080604092831b05907780000000000000000000000000000000000000000000000067ff000000000000008316615983575b66ff000000000000831661587b575b65ff0000000000831661577b575b64ff000000008316615683575b63ff0000008316615593575b62ff000083166154ab575b61ff0083166153cb575b60ff83166152f4575b02911c60bf031c90565b608083166153b9575b8383166153a7575b60208316615395575b60108316615383575b60088316615371575b6004831661535f575b6002831661534d575b60018316156152ea576801000000000000000102831c6152ea565b6801000000000000000102831c615332565b6801000000000000000302831c615329565b6801000000000000000602831c615320565b6801000000000000000b02831c615317565b6801000000000000001602831c61530e565b6801000000000000002c02831c615305565b6801000000000000005902831c6152fd565b6180008316615499575b6140008316615487575b6120008316615475575b6110008316615463575b6108008316615451575b610400831661543f575b610200831661542d575b6101008316156152e157680100000000000000b102831c6152e1565b6801000000000000016302831c615411565b680100000000000002c602831c615407565b6801000000000000058c02831c6153fd565b68010000000000000b1702831c6153f3565b6801000000000000162e02831c6153e9565b68010000000000002c5d02831c6153df565b680100000000000058b902831c6153d5565b628000008316615581575b62400000831661556f575b62200000831661555d575b62100000831661554b575b620800008316615539575b620400008316615527575b620200008316615515575b620100008316156152d7576801000000000000b17202831c6152d7565b680100000000000162e402831c6154f8565b6801000000000002c5c802831c6154ed565b68010000000000058b9102831c6154e2565b680100000000000b172102831c6154d7565b68010000000000162e4302831c6154cc565b680100000000002c5c8602831c6154c1565b6801000000000058b90c02831c6154b6565b63800000008316615671575b6340000000831661565f575b6320000000831661564d575b6310000000831661563b575b63080000008316615629575b63040000008316615617575b63020000008316615605575b63010000008316156152cc5768010000000000b1721802831c6152cc565b6801000000000162e43002831c6155e7565b68010000000002c5c86002831c6155db565b680100000000058b90c002831c6155cf565b6801000000000b17217f02831c6155c3565b680100000000162e42ff02831c6155b7565b6801000000002c5c85fe02831c6155ab565b68010000000058b90bfc02831c61559f565b6480000000008316615769575b6440000000008316615757575b6420000000008316615745575b6410000000008316615733575b6408000000008316615721575b640400000000831661570f575b64020000000083166156fd575b6401000000008316156152c057680100000000b17217f802831c6152c0565b68010000000162e42ff102831c6156de565b680100000002c5c85fe302831c6156d1565b6801000000058b90bfce02831c6156c4565b68010000000b17217fbb02831c6156b7565b6801000000162e42fff002831c6156aa565b68010000002c5c8601cc02831c61569d565b680100000058b90c0b4902831c615690565b658000000000008316615869575b654000000000008316615857575b652000000000008316615845575b651000000000008316615833575b650800000000008316615821575b65040000000000831661580f575b6502000000000083166157fd575b650100000000008316156152b3576801000000b17218355102831c6152b3565b680100000162e430e5a202831c6157dd565b6801000002c5c863b73f02831c6157cf565b68010000058b90cf1e6e02831c6157c1565b680100000b1721bcfc9a02831c6157b3565b68010000162e43f4f83102831c6157a5565b680100002c5c89d5ec6d02831c615797565b6801000058b91b5bc9ae02831c615789565b66800000000000008316615971575b6640000000000000831661595f575b6620000000000000831661594d575b6610000000000000831661593b575b66080000000000008316615929575b66040000000000008316615917575b66020000000000008316615905575b66010000000000008316156152a55768010000b17255775c0402831c6152a5565b6801000162e525ee054702831c6158e4565b68010002c5cc37da949202831c6158d5565b680100058ba01fb9f96d02831c6158c6565b6801000b175effdc76ba02831c6158b7565b680100162f3904051fa102831c6158a8565b6801002c605e2e8cec5002831c615899565b68010058c86da1c09ea202831c61588a565b6780000000000000008316615a81575b6740000000000000008316615a6f575b6720000000000000008316615a5d575b6710000000000000008316615a4b575b6708000000000000008316615a39575b6704000000000000008316615a27575b6702000000000000008316615a15575b67010000000000000083161561529657680100b1afa5abcbed6102831c615296565b68010163da9fb33356d802831c6159f3565b680102c9a3e778060ee702831c6159e3565b6801059b0d31585743ae02831c6159d3565b68010b5586cf9890f62a02831c6159c3565b6801172b83c7d517adce02831c6159b3565b6801306fe0a31b7152df02831c6159a3565b5077b504f333f9de648480000000000000000000000000000000615993565b602490604051907f0360d0280000000000000000000000000000000000000000000000000000000082526004820152fd5b90919060001983820983820291828083109203918083039214615b6f57670de0b6b3a76400009081831015615b3857947faccb18165bd6fe31ae1cf318dc5b51eee0e1ba569b88cd74c1773b91fac1066994950990828211900360ee1b910360121c170290565b60449086604051917f5173648d00000000000000000000000000000000000000000000000000000000835260048301526024820152fd5b5050670de0b6b3a764000090049150565b91929015615be15750815115615b94575090565b3b15615b9d5790565b606460405162461bcd60e51b815260206004820152601d60248201527f416464726573733a2063616c6c20746f206e6f6e2d636f6e74726163740000006044820152fd5b825190915015615bf45750805190602001fd5b6109169060405191829162461bcd60e51b8352602060048401526024830190612c7456fea164736f6c6343000817000a",
    "linkReferences": {}
  },
  "methodIdentifiers": {
    "MAX_FEE()": "bc063e1a",
    "MAX_SEGMENT_COUNT()": "9188ec84",
    "admin()": "f851a440",
    "approve(address,uint256)": "095ea7b3",
    "balanceOf(address)": "70a08231",
    "burn(uint256)": "42966c68",
    "cancel(uint256)": "40e58ee5",
    "cancelMultiple(uint256[])": "8659c270",
    "claimProtocolRevenues(address)": "a6202bf2",
    "claimRebasingAssetYield(address,uint256,address)": "2c5a6fb8",
    "comptroller()": "5fe3b567",
    "configureRebasingAsset(address,uint8)": "6900ebd0",
    "configureYieldAndGas(address,uint8,uint8,address)": "93273335",
    "createWithDeltas((address,bool,bool,address,uint128,address,(address,uint256),(uint128,uint64,uint40)[]))": "16844456",
    "createWithMilestones((address,uint40,bool,bool,address,uint128,address,(address,uint256),(uint128,uint64,uint40)[]))": "c33cd35e",
    "getApproved(uint256)": "081812fc",
    "getAsset(uint256)": "eac8f5b8",
    "getClaimableRebasingAssetYield(address)": "63e55549",
    "getDepositedAmount(uint256)": "a80fc071",
    "getEndTime(uint256)": "9067b677",
    "getRange(uint256)": "cc364f48",
    "getRebasingAssetConfiguration(address)": "a8ef018a",
    "getRecipient(uint256)": "6d0cee75",
    "getRefundedAmount(uint256)": "d4dbd20b",
    "getSegments(uint256)": "b637b865",
    "getSender(uint256)": "b971302a",
    "getStartTime(uint256)": "bc2be1be",
    "getStream(uint256)": "894e9a0d",
    "getWithdrawnAmount(uint256)": "d511609f",
    "isApprovedForAll(address,address)": "e985e9c5",
    "isCancelable(uint256)": "4857501f",
    "isCold(uint256)": "8f69b993",
    "isDepleted(uint256)": "425d30dd",
    "isStream(uint256)": "b8a3be66",
    "isTransferable(uint256)": "b2564569",
    "isWarm(uint256)": "1c1cdd4c",
    "name()": "06fdde03",
    "nextStreamId()": "1e99d569",
    "ownerOf(uint256)": "6352211e",
    "protocolRevenues(address)": "39a73c03",
    "refundableAmountOf(uint256)": "1400ecec",
    "renounce(uint256)": "7de6b1db",
    "safeTransferFrom(address,address,uint256)": "42842e0e",
    "safeTransferFrom(address,address,uint256,bytes)": "b88d4fde",
    "setApprovalForAll(address,bool)": "a22cb465",
    "setComptroller(address)": "8bad38dd",
    "setNFTDescriptor(address)": "7cad6cd1",
    "statusOf(uint256)": "ad35efd4",
    "streamedAmountOf(uint256)": "4869e12d",
    "supportsInterface(bytes4)": "01ffc9a7",
    "symbol()": "95d89b41",
    "tokenURI(uint256)": "c87b56dd",
    "transferAdmin(address)": "75829def",
    "transferFrom(address,address,uint256)": "23b872dd",
    "wasCanceled(uint256)": "f590c176",
    "withdraw(uint256,address,uint128)": "fdd46d60",
    "withdrawMax(uint256,address)": "ea5ead19",
    "withdrawMaxAndTransfer(uint256,address)": "c156a11d",
    "withdrawMultiple(uint256[],address,uint128[])": "a2ffb897",
    "withdrawableAmountOf(uint256)": "d975dfed"
  },
  "id": 79
}