{
  "abi": [
    {
      "type": "constructor",
      "inputs": [
        {
          "name": "initialAdmin",
          "type": "address",
          "internalType": "address"
        },
        {
          "name": "lockupLinear",
          "type": "address",
          "internalType": "contract ISablierV2LockupLinear"
        },
        {
          "name": "asset",
          "type": "address",
          "internalType": "contract IERC20"
        },
        {
          "name": "merkleRoot",
          "type": "bytes32",
          "internalType": "bytes32"
        },
        {
          "name": "expiration",
          "type": "uint40",
          "internalType": "uint40"
        },
        {
          "name": "streamDurations_",
          "type": "tuple",
          "internalType": "struct LockupLinear.Durations",
          "components": [
            {
              "name": "cliff",
              "type": "uint40",
              "internalType": "uint40"
            },
            {
              "name": "total",
              "type": "uint40",
              "internalType": "uint40"
            }
          ]
        },
        {
          "name": "cancelable",
          "type": "bool",
          "internalType": "bool"
        },
        {
          "name": "transferable",
          "type": "bool",
          "internalType": "bool"
        }
      ],
      "stateMutability": "nonpayable"
    },
    {
      "type": "function",
      "name": "ASSET",
      "inputs": [],
      "outputs": [
        {
          "name": "",
          "type": "address",
          "internalType": "contract IERC20"
        }
      ],
      "stateMutability": "view"
    },
    {
      "type": "function",
      "name": "CANCELABLE",
      "inputs": [],
      "outputs": [
        {
          "name": "",
          "type": "bool",
          "internalType": "bool"
        }
      ],
      "stateMutability": "view"
    },
    {
      "type": "function",
      "name": "EXPIRATION",
      "inputs": [],
      "outputs": [
        {
          "name": "",
          "type": "uint40",
          "internalType": "uint40"
        }
      ],
      "stateMutability": "view"
    },
    {
      "type": "function",
      "name": "LOCKUP",
      "inputs": [],
      "outputs": [
        {
          "name": "",
          "type": "address",
          "internalType": "contract ISablierV2Lockup"
        }
      ],
      "stateMutability": "view"
    },
    {
      "type": "function",
      "name": "LOCKUP_LINEAR",
      "inputs": [],
      "outputs": [
        {
          "name": "",
          "type": "address",
          "internalType": "contract ISablierV2LockupLinear"
        }
      ],
      "stateMutability": "view"
    },
    {
      "type": "function",
      "name": "MERKLE_ROOT",
      "inputs": [],
      "outputs": [
        {
          "name": "",
          "type": "bytes32",
          "internalType": "bytes32"
        }
      ],
      "stateMutability": "view"
    },
    {
      "type": "function",
      "name": "TRANSFERABLE",
      "inputs": [],
      "outputs": [
        {
          "name": "",
          "type": "bool",
          "internalType": "bool"
        }
      ],
      "stateMutability": "view"
    },
    {
      "type": "function",
      "name": "admin",
      "inputs": [],
      "outputs": [
        {
          "name": "",
          "type": "address",
          "internalType": "address"
        }
      ],
      "stateMutability": "view"
    },
    {
      "type": "function",
      "name": "claim",
      "inputs": [
        {
          "name": "index",
          "type": "uint256",
          "internalType": "uint256"
        },
        {
          "name": "recipient",
          "type": "address",
          "internalType": "address"
        },
        {
          "name": "amount",
          "type": "uint128",
          "internalType": "uint128"
        },
        {
          "name": "merkleProof",
          "type": "bytes32[]",
          "internalType": "bytes32[]"
        }
      ],
      "outputs": [
        {
          "name": "streamId",
          "type": "uint256",
          "internalType": "uint256"
        }
      ],
      "stateMutability": "nonpayable"
    },
    {
      "type": "function",
      "name": "claimRebasingAssetYield",
      "inputs": [
        {
          "name": "asset",
          "type": "address",
          "internalType": "contract IERC20Rebasing"
        },
        {
          "name": "amount",
          "type": "uint256",
          "internalType": "uint256"
        },
        {
          "name": "to",
          "type": "address",
          "internalType": "address"
        }
      ],
      "outputs": [
        {
          "name": "claimed",
          "type": "uint256",
          "internalType": "uint256"
        }
      ],
      "stateMutability": "nonpayable"
    },
    {
      "type": "function",
      "name": "clawback",
      "inputs": [
        {
          "name": "to",
          "type": "address",
          "internalType": "address"
        },
        {
          "name": "amount",
          "type": "uint128",
          "internalType": "uint128"
        }
      ],
      "outputs": [],
      "stateMutability": "nonpayable"
    },
    {
      "type": "function",
      "name": "configureRebasingAsset",
      "inputs": [
        {
          "name": "asset",
          "type": "address",
          "internalType": "contract IERC20Rebasing"
        },
        {
          "name": "yieldMode",
          "type": "uint8",
          "internalType": "enum YieldMode"
        }
      ],
      "outputs": [],
      "stateMutability": "nonpayable"
    },
    {
      "type": "function",
      "name": "configureYieldAndGas",
      "inputs": [
        {
          "name": "blast",
          "type": "address",
          "internalType": "contract IBlast"
        },
        {
          "name": "yieldMode",
          "type": "uint8",
          "internalType": "enum YieldMode"
        },
        {
          "name": "gasMode",
          "type": "uint8",
          "internalType": "enum GasMode"
        },
        {
          "name": "governor",
          "type": "address",
          "internalType": "address"
        }
      ],
      "outputs": [],
      "stateMutability": "nonpayable"
    },
    {
      "type": "function",
      "name": "getClaimableRebasingAssetYield",
      "inputs": [
        {
          "name": "asset",
          "type": "address",
          "internalType": "contract IERC20Rebasing"
        }
      ],
      "outputs": [
        {
          "name": "claimableYield",
          "type": "uint256",
          "internalType": "uint256"
        }
      ],
      "stateMutability": "view"
    },
    {
      "type": "function",
      "name": "getRebasingAssetConfiguration",
      "inputs": [
        {
          "name": "asset",
          "type": "address",
          "internalType": "contract IERC20Rebasing"
        }
      ],
      "outputs": [
        {
          "name": "yieldMode",
          "type": "uint8",
          "internalType": "enum YieldMode"
        }
      ],
      "stateMutability": "view"
    },
    {
      "type": "function",
      "name": "hasClaimed",
      "inputs": [
        {
          "name": "index",
          "type": "uint256",
          "internalType": "uint256"
        }
      ],
      "outputs": [
        {
          "name": "",
          "type": "bool",
          "internalType": "bool"
        }
      ],
      "stateMutability": "view"
    },
    {
      "type": "function",
      "name": "hasExpired",
      "inputs": [],
      "outputs": [
        {
          "name": "",
          "type": "bool",
          "internalType": "bool"
        }
      ],
      "stateMutability": "view"
    },
    {
      "type": "function",
      "name": "streamDurations",
      "inputs": [],
      "outputs": [
        {
          "name": "cliff",
          "type": "uint40",
          "internalType": "uint40"
        },
        {
          "name": "total",
          "type": "uint40",
          "internalType": "uint40"
        }
      ],
      "stateMutability": "view"
    },
    {
      "type": "function",
      "name": "transferAdmin",
      "inputs": [
        {
          "name": "newAdmin",
          "type": "address",
          "internalType": "address"
        }
      ],
      "outputs": [],
      "stateMutability": "nonpayable"
    },
    {
      "type": "event",
      "name": "Claim",
      "inputs": [
        {
          "name": "index",
          "type": "uint256",
          "indexed": false,
          "internalType": "uint256"
        },
        {
          "name": "recipient",
          "type": "address",
          "indexed": true,
          "internalType": "address"
        },
        {
          "name": "amount",
          "type": "uint128",
          "indexed": false,
          "internalType": "uint128"
        },
        {
          "name": "streamId",
          "type": "uint256",
          "indexed": true,
          "internalType": "uint256"
        }
      ],
      "anonymous": false
    },
    {
      "type": "event",
      "name": "Clawback",
      "inputs": [
        {
          "name": "admin",
          "type": "address",
          "indexed": true,
          "internalType": "address"
        },
        {
          "name": "to",
          "type": "address",
          "indexed": true,
          "internalType": "address"
        },
        {
          "name": "amount",
          "type": "uint128",
          "indexed": false,
          "internalType": "uint128"
        }
      ],
      "anonymous": false
    },
    {
      "type": "event",
      "name": "TransferAdmin",
      "inputs": [
        {
          "name": "oldAdmin",
          "type": "address",
          "indexed": true,
          "internalType": "address"
        },
        {
          "name": "newAdmin",
          "type": "address",
          "indexed": true,
          "internalType": "address"
        }
      ],
      "anonymous": false
    },
    {
      "type": "error",
      "name": "CallerNotAdmin",
      "inputs": [
        {
          "name": "admin",
          "type": "address",
          "internalType": "address"
        },
        {
          "name": "caller",
          "type": "address",
          "internalType": "address"
        }
      ]
    },
    {
      "type": "error",
      "name": "SablierV2MerkleStreamer_CampaignExpired",
      "inputs": [
        {
          "name": "currentTime",
          "type": "uint256",
          "internalType": "uint256"
        },
        {
          "name": "expiration",
          "type": "uint40",
          "internalType": "uint40"
        }
      ]
    },
    {
      "type": "error",
      "name": "SablierV2MerkleStreamer_CampaignNotExpired",
      "inputs": [
        {
          "name": "currentTime",
          "type": "uint256",
          "internalType": "uint256"
        },
        {
          "name": "expiration",
          "type": "uint40",
          "internalType": "uint40"
        }
      ]
    },
    {
      "type": "error",
      "name": "SablierV2MerkleStreamer_InvalidProof",
      "inputs": []
    },
    {
      "type": "error",
      "name": "SablierV2MerkleStreamer_ProtocolFeeNotZero",
      "inputs": []
    },
    {
      "type": "error",
      "name": "SablierV2MerkleStreamer_StreamClaimed",
      "inputs": [
        {
          "name": "index",
          "type": "uint256",
          "internalType": "uint256"
        }
      ]
    }
  ],
  "bytecode": {
    "object": "0x610160604081815234620002e0578162001d67803803809162000023828562000301565b833981010361012091828212620002e05783516001600160a01b038082169391849003620002e057602090818701519481861693848703620002e0578589015192831692838103620002e05760608a015190876200008460808d0162000325565b93609f190112620002e0578751918289016001600160401b03811184821017620002ca578952620000b860a08d0162000325565b8352620000c860c08d0162000325565b83880190815293620000dd60e08e0162000338565b91610100809e01620000ef9062000338565b93600097600160a01b60019003198954161788556080528960e0528d5260c05260a05289526101409788525164ffffffffff16600254915160281b69ffffffffff00000000001691600160501b600190031916171760025584519280840191808063095ea7b360e01b948581528860248901526000196044890152604488526200017988620002e5565b87519082885af16200018a62000346565b8162000288575b50806200027d575b156200023b575b50505050505051916117fa93846200056d853960805184818161076f01528181610a5801526111e8015260a051848181610b3e01526110d5015260c05184818161018701528181610f2e0152818161148c0152611696015260e05184818161048b015281816109e3015261118801525183818161071f015261097c015251828181610b6601526110980152518181816102aa0152610cd80152f35b62000271956200026b9388519384015260248301526044820152604481526200026481620002e5565b8262000389565b62000389565b388080808080620001a0565b50833b151562000199565b80915051838115918215620002a3575b505090503862000191565b8380929350010312620002c65782620002bd910162000338565b80833862000298565b5080fd5b634e487b7160e01b600052604160045260246000fd5b600080fd5b608081019081106001600160401b03821117620002ca57604052565b601f909101601f19168101906001600160401b03821190821017620002ca57604052565b519064ffffffffff82168203620002e057565b51908115158203620002e057565b3d1562000384573d906001600160401b038211620002ca576040519162000378601f8201601f19166020018462000301565b82523d6000602084013e565b606090565b60408051908101916001600160a01b03166001600160401b03831182841017620002ca57620003fd926040526000806020958685527f5361666545524332303a206c6f772d6c6576656c2063616c6c206661696c656487860152868151910182855af1620003f662000346565b9162000492565b80518281159182156200046f575b5050905015620004185750565b6084906040519062461bcd60e51b82526004820152602a60248201527f5361666545524332303a204552433230206f7065726174696f6e20646964206e6044820152691bdd081cdd58d8d9595960b21b6064820152fd5b8380929350010312620002e0578162000489910162000338565b8082386200040b565b91929015620004f75750815115620004a8575090565b3b15620004b25790565b60405162461bcd60e51b815260206004820152601d60248201527f416464726573733a2063616c6c20746f206e6f6e2d636f6e74726163740000006044820152606490fd5b8251909150156200050b5750805190602001fd5b6040519062461bcd60e51b82528160208060048301528251908160248401526000935b82851062000552575050604492506000838284010152601f80199101168101030190fd5b84810182015186860160440152938101938593506200052e56fe608080604052600436101561001357600080fd5b600090813560e01c9081631686c909146110fa5750806316c3549d146110bd5780631bfd6814146110805780632c5a6fb814610f8d5780633bfe03a814610f5e5780633f31ae3f146107935780634800d97f1461074257806351e75e8b1461070757806363e555491461064c5780636900ebd01461058d57806375829def146104af578063845aef4b1461045e57806390e64d131461044357806393273335146102ce5780639e93e5771461027d578063a8ef018a146101ab578063bb4b573414610169578063ce516507146101275763f851a440146100f257600080fd5b3461012457806003193601126101245773ffffffffffffffffffffffffffffffffffffffff6020915416604051908152f35b80fd5b503461012457602060031936011261012457602061015f60043560ff6001918060081c60005282602052161b60406000205416151590565b6040519015158152f35b5034610124578060031936011261012457602060405164ffffffffff7f0000000000000000000000000000000000000000000000000000000000000000168152f35b50346101245760209081600319360112610124576024908273ffffffffffffffffffffffffffffffffffffffff6101e0611572565b16604051938480927fc44b11f70000000000000000000000000000000000000000000000000000000082523060048301525afa918215610270578192610232575b5050610230604051809261159a565bf35b9091508281813d8311610269575b61024a8183611621565b81010312610265575190600382101561012457503880610221565b5080fd5b503d610240565b50604051903d90823e3d90fd5b5034610124578060031936011261012457602060405173ffffffffffffffffffffffffffffffffffffffff7f0000000000000000000000000000000000000000000000000000000000000000168152f35b50346101245760806003193601126101245760043573ffffffffffffffffffffffffffffffffffffffff80821680920361043f576024359160038310156103e45760443592600284101561043b5760643592808416809403610437578554163381036103e8575090849291813b156103e4578360649261037d9460405197889687957fc8992e61000000000000000000000000000000000000000000000000000000008752600487019061159a565b602485015260448401525af180156103d957610397575080f35b67ffffffffffffffff81116103ac5760405280f35b6024827f4e487b710000000000000000000000000000000000000000000000000000000081526041600452fd5b6040513d84823e3d90fd5b8380fd5b6040517fc6cce6a400000000000000000000000000000000000000000000000000000000815273ffffffffffffffffffffffffffffffffffffffff919091166004820152336024820152604490fd5b8580fd5b8480fd5b8280fd5b5034610124578060031936011261012457602061015f61168e565b5034610124578060031936011261012457602060405173ffffffffffffffffffffffffffffffffffffffff7f0000000000000000000000000000000000000000000000000000000000000000168152f35b5034610124576020600319360112610124576104c9611572565b90805473ffffffffffffffffffffffffffffffffffffffff80821693338503610540577fffffffffffffffffffffffff00000000000000000000000000000000000000009394501691829116178255337fbdd36143ee09de60bdefca70680e0f71189b2ed7acee364b53917ad433fdaf808380a380f35b6040517fc6cce6a400000000000000000000000000000000000000000000000000000000815273ffffffffffffffffffffffffffffffffffffffff86166004820152336024820152604490fd5b5034610124576040600319360112610124576105a7611572565b602435600381101561043f5773ffffffffffffffffffffffffffffffffffffffff808454163381036103e857506024602092856106139360405196879586947f1a33757d000000000000000000000000000000000000000000000000000000008652600486019061159a565b165af180156103d957610624575080f35b602090813d8311610645575b61063a8183611621565b810103126101245780f35b503d610630565b503461012457602090816003193601126101245760248273ffffffffffffffffffffffffffffffffffffffff610680611572565b16604051928380927fe12f3a610000000000000000000000000000000000000000000000000000000082523060048301525afa9182156106fb5780926106cb575b5050604051908152f35b9091508282813d83116106f4575b6106e38183611621565b8101031261012457505138806106c1565b503d6106d9565b604051903d90823e3d90fd5b503461012457806003193601126101245760206040517f00000000000000000000000000000000000000000000000000000000000000008152f35b5034610124578060031936011261012457602060405173ffffffffffffffffffffffffffffffffffffffff7f0000000000000000000000000000000000000000000000000000000000000000168152f35b5034610124576080600319360112610124576024359073ffffffffffffffffffffffffffffffffffffffff8216820361012457604435906fffffffffffffffffffffffffffffffff821682036101245767ffffffffffffffff60643511610124573660236064350112156101245767ffffffffffffffff6064356004013511610124573660246064356004013560051b60643501011161012457604051600435602082015273ffffffffffffffffffffffffffffffffffffffff841660408201526fffffffffffffffffffffffffffffffff831660608201526060815280608081011067ffffffffffffffff6080830111176103ac57608081016040526080815160208301209160a081019283526020828201526108b28282016115d6565b01519020926108bf61168e565b610f00576108e760043560ff6001918060081c60005282602052161b60406000205416151590565b610ece576040519361090560206064356004013560051b0186611621565b60643560048101358652602401602086015b60246064356004013560051b60643501018210610ebe5750509082915b85518310156109775760208360051b87010151908181106000146109665784526020526001604084205b920191610934565b90845260205260016040842061095e565b8484917f000000000000000000000000000000000000000000000000000000000000000003610e94576040517f5fe3b56700000000000000000000000000000000000000000000000000000000815260208160048173ffffffffffffffffffffffffffffffffffffffff7f0000000000000000000000000000000000000000000000000000000000000000165afa908115610e89578391610e5a575b506040517fdcf844a700000000000000000000000000000000000000000000000000000000815260208160248173ffffffffffffffffffffffffffffffffffffffff807f00000000000000000000000000000000000000000000000000000000000000001696876004840152165afa908115610e4f578491610e1d575b50610df35760043560081c8352600160205260408320600160ff600435161b8154179055604051610ac0816115d6565b83815283602082015273ffffffffffffffffffffffffffffffffffffffff8454169160405192610100840184811067ffffffffffffffff821117610dc657604052835273ffffffffffffffffffffffffffffffffffffffff861660208401526fffffffffffffffffffffffffffffffff8416604084015260608301527f0000000000000000000000000000000000000000000000000000000000000000151560808301527f0000000000000000000000000000000000000000000000000000000000000000151560a0830152604051610b98816115d6565b64ffffffffff600254818116835260281c16602082015260c083015260e0820152602060e0604051927fab167ccc00000000000000000000000000000000000000000000000000000000845273ffffffffffffffffffffffffffffffffffffffff815116600485015273ffffffffffffffffffffffffffffffffffffffff838201511660248501526fffffffffffffffffffffffffffffffff604082015116604485015273ffffffffffffffffffffffffffffffffffffffff606082015116606485015260808101511515608485015260a0810151151560a485015264ffffffffff8360c08301518281511660c488015201511660e4850152015173ffffffffffffffffffffffffffffffffffffffff8151166101048401520151610124820152602081610144818673ffffffffffffffffffffffffffffffffffffffff7f0000000000000000000000000000000000000000000000000000000000000000165af19283156106fb578093610d6f575b60208480857f28b58397e03322f670d6b223cc863f8c148e368b8b615412e6798a641a22842d604073ffffffffffffffffffffffffffffffffffffffff8b6fffffffffffffffffffffffffffffffff835195600435875216888601521692a3604051908152f35b909192506020823d602011610dbe575b81610d8c60209383611621565b8101031261012457505190807f28b58397e03322f670d6b223cc863f8c148e368b8b615412e6798a641a22842d610d08565b3d9150610d7f565b6024877f4e487b710000000000000000000000000000000000000000000000000000000081526041600452fd5b60046040517fa4432b51000000000000000000000000000000000000000000000000000000008152fd5b90506020813d602011610e47575b81610e3860209383611621565b810103126103e4575185610a90565b3d9150610e2b565b6040513d86823e3d90fd5b610e7c915060203d602011610e82575b610e748183611621565b810190611662565b84610a13565b503d610e6a565b6040513d85823e3d90fd5b60046040517fb3f3b2a6000000000000000000000000000000000000000000000000000000008152fd5b8135815260209182019101610917565b60246040517f3548783b0000000000000000000000000000000000000000000000000000000081526004356004820152fd5b6040517f74b43bd00000000000000000000000000000000000000000000000000000000081524260048201527f000000000000000000000000000000000000000000000000000000000000000064ffffffffff166024820152604490fd5b5034610124578060031936011261012457604060025464ffffffffff825191818116835260281c166020820152f35b503461012457606060031936011261012457610fa7611572565b73ffffffffffffffffffffffffffffffffffffffff9060443582811681036103e457828454163381036103e857506040517faad3ec9600000000000000000000000000000000000000000000000000000000815273ffffffffffffffffffffffffffffffffffffffff919091166004820152602480359082015291602091839160449183918791165af19081156103d957829161104a575b602082604051908152f35b90506020813d602011611078575b8161106560209383611621565b810103126102655760209150513861103f565b3d9150611058565b503461012457806003193601126101245760206040517f000000000000000000000000000000000000000000000000000000000000000015158152f35b503461012457806003193601126101245760206040517f000000000000000000000000000000000000000000000000000000000000000015158152f35b90503461026557604060031936011261026557611115611572565b602435916fffffffffffffffffffffffffffffffff83168093036103e45773ffffffffffffffffffffffffffffffffffffffff9081855416338103611529575050604051907f5fe3b5670000000000000000000000000000000000000000000000000000000082526020918281600481857f0000000000000000000000000000000000000000000000000000000000000000165afa90811561151e578691611501575b506040517fdcf844a7000000000000000000000000000000000000000000000000000000008152838160248186807f00000000000000000000000000000000000000000000000000000000000000001696876004840152165afa9081156114f65787916114c5575b5061122961168e565b1590816114bc575b5061145e576040517fa9059cbb0000000000000000000000000000000000000000000000000000000084820190815273ffffffffffffffffffffffffffffffffffffffff861660248301526044808301889052825290917fffffffffffffffffffffffffffffffffffffffffffffffffffffffffffffffe091889081906112b9606487611621565b604051956112c6876115d6565b8887527f5361666545524332303a206c6f772d6c6576656c2063616c6c206661696c656489880152519082855af1903d1561144f573d67ffffffffffffffff81116114225790611334949392916113278860405195601f8401160185611621565b83523d8a8885013e6116cb565b8051838115918215611402575b505090501561137e5790817f2e9d425ba8b27655048400b366d7b6a1f7180ebdb088e06bb7389704860ffe1f92865416936040519586521693a380f35b608482604051907f08c379a00000000000000000000000000000000000000000000000000000000082526004820152602a60248201527f5361666545524332303a204552433230206f7065726174696f6e20646964206e60448201527f6f742073756363656564000000000000000000000000000000000000000000006064820152fd5b838092935001031261043757820151801515810361043757808338611341565b60248a7f4e487b710000000000000000000000000000000000000000000000000000000081526041600452fd5b906113349392506060916116cb565b6040517f1351f21d0000000000000000000000000000000000000000000000000000000081524260048201527f000000000000000000000000000000000000000000000000000000000000000064ffffffffff166024820152604490fd5b90501538611231565b90508381813d83116114ef575b6114dc8183611621565b810103126114eb575138611220565b8680fd5b503d6114d2565b6040513d89823e3d90fd5b6115189150833d8511610e8257610e748183611621565b386111b8565b6040513d88823e3d90fd5b7fc6cce6a400000000000000000000000000000000000000000000000000000000825273ffffffffffffffffffffffffffffffffffffffff166004820152336024820152604490fd5b6004359073ffffffffffffffffffffffffffffffffffffffff8216820361159557565b600080fd5b9060038210156115a75752565b7f4e487b7100000000000000000000000000000000000000000000000000000000600052602160045260246000fd5b6040810190811067ffffffffffffffff8211176115f257604052565b7f4e487b7100000000000000000000000000000000000000000000000000000000600052604160045260246000fd5b90601f7fffffffffffffffffffffffffffffffffffffffffffffffffffffffffffffffe0910116810190811067ffffffffffffffff8211176115f257604052565b90816020910312611595575173ffffffffffffffffffffffffffffffffffffffff811681036115955790565b64ffffffffff7f00000000000000000000000000000000000000000000000000000000000000001680151590816116c3575090565b905042101590565b9192901561174657508151156116df575090565b3b156116e85790565b60646040517f08c379a000000000000000000000000000000000000000000000000000000000815260206004820152601d60248201527f416464726573733a2063616c6c20746f206e6f6e2d636f6e74726163740000006044820152fd5b8251909150156117595750805190602001fd5b604051907f08c379a000000000000000000000000000000000000000000000000000000000825281602080600483015282519283602484015260005b8481106117d6575050507fffffffffffffffffffffffffffffffffffffffffffffffffffffffffffffffe0601f836000604480968601015201168101030190fd5b81810183015186820160440152859350820161179556fea164736f6c6343000817000a",
    "linkReferences": {}
  },
  "methodIdentifiers": {
    "ASSET()": "4800d97f",
    "CANCELABLE()": "16c3549d",
    "EXPIRATION()": "bb4b5734",
    "LOCKUP()": "845aef4b",
    "LOCKUP_LINEAR()": "9e93e577",
    "MERKLE_ROOT()": "51e75e8b",
    "TRANSFERABLE()": "1bfd6814",
    "admin()": "f851a440",
    "claim(uint256,address,uint128,bytes32[])": "3f31ae3f",
    "claimRebasingAssetYield(address,uint256,address)": "2c5a6fb8",
    "clawback(address,uint128)": "1686c909",
    "configureRebasingAsset(address,uint8)": "6900ebd0",
    "configureYieldAndGas(address,uint8,uint8,address)": "93273335",
    "getClaimableRebasingAssetYield(address)": "63e55549",
    "getRebasingAssetConfiguration(address)": "a8ef018a",
    "hasClaimed(uint256)": "ce516507",
    "hasExpired()": "90e64d13",
    "streamDurations()": "3bfe03a8",
    "transferAdmin(address)": "75829def"
  },
  "id": 96
}