{
  "abi": [
    {
      "type": "constructor",
      "inputs": [
        {
          "name": "baseParams",
          "type": "tuple",
          "internalType": "struct MerkleLockup.ConstructorParams",
          "components": [
            {
              "name": "asset",
              "type": "address",
              "internalType": "contract IERC20"
            },
            {
              "name": "cancelable",
              "type": "bool",
              "internalType": "bool"
            },
            {
              "name": "expiration",
              "type": "uint40",
              "internalType": "uint40"
            },
            {
              "name": "initialAdmin",
              "type": "address",
              "internalType": "address"
            },
            {
              "name": "ipfsCID",
              "type": "string",
              "internalType": "string"
            },
            {
              "name": "merkleRoot",
              "type": "bytes32",
              "internalType": "bytes32"
            },
            {
              "name": "name",
              "type": "string",
              "internalType": "string"
            },
            {
              "name": "transferable",
              "type": "bool",
              "internalType": "bool"
            }
          ]
        },
        {
          "name": "lockupTranched",
          "type": "address",
          "internalType": "contract ISablierV2LockupTranched"
        },
        {
          "name": "tranchesWithPercentages",
          "type": "tuple[]",
          "internalType": "struct MerkleLT.TrancheWithPercentage[]",
          "components": [
            {
              "name": "unlockPercentage",
              "type": "uint64",
              "internalType": "UD2x18"
            },
            {
              "name": "duration",
              "type": "uint40",
              "internalType": "uint40"
            }
          ]
        }
      ],
      "stateMutability": "nonpayable"
    },
    {
      "type": "function",
      "name": "ASSET",
      "inputs": [],
      "outputs": [
        {
          "name": "",
          "type": "address",
          "internalType": "contract IERC20"
        }
      ],
      "stateMutability": "view"
    },
    {
      "type": "function",
      "name": "CANCELABLE",
      "inputs": [],
      "outputs": [
        {
          "name": "",
          "type": "bool",
          "internalType": "bool"
        }
      ],
      "stateMutability": "view"
    },
    {
      "type": "function",
      "name": "EXPIRATION",
      "inputs": [],
      "outputs": [
        {
          "name": "",
          "type": "uint40",
          "internalType": "uint40"
        }
      ],
      "stateMutability": "view"
    },
    {
      "type": "function",
      "name": "LOCKUP_TRANCHED",
      "inputs": [],
      "outputs": [
        {
          "name": "",
          "type": "address",
          "internalType": "contract ISablierV2LockupTranched"
        }
      ],
      "stateMutability": "view"
    },
    {
      "type": "function",
      "name": "MERKLE_ROOT",
      "inputs": [],
      "outputs": [
        {
          "name": "",
          "type": "bytes32",
          "internalType": "bytes32"
        }
      ],
      "stateMutability": "view"
    },
    {
      "type": "function",
      "name": "TOTAL_PERCENTAGE",
      "inputs": [],
      "outputs": [
        {
          "name": "",
          "type": "uint64",
          "internalType": "uint64"
        }
      ],
      "stateMutability": "view"
    },
    {
      "type": "function",
      "name": "TRANSFERABLE",
      "inputs": [],
      "outputs": [
        {
          "name": "",
          "type": "bool",
          "internalType": "bool"
        }
      ],
      "stateMutability": "view"
    },
    {
      "type": "function",
      "name": "admin",
      "inputs": [],
      "outputs": [
        {
          "name": "",
          "type": "address",
          "internalType": "address"
        }
      ],
      "stateMutability": "view"
    },
    {
      "type": "function",
      "name": "claim",
      "inputs": [
        {
          "name": "index",
          "type": "uint256",
          "internalType": "uint256"
        },
        {
          "name": "recipient",
          "type": "address",
          "internalType": "address"
        },
        {
          "name": "amount",
          "type": "uint128",
          "internalType": "uint128"
        },
        {
          "name": "merkleProof",
          "type": "bytes32[]",
          "internalType": "bytes32[]"
        }
      ],
      "outputs": [
        {
          "name": "streamId",
          "type": "uint256",
          "internalType": "uint256"
        }
      ],
      "stateMutability": "nonpayable"
    },
    {
      "type": "function",
      "name": "clawback",
      "inputs": [
        {
          "name": "to",
          "type": "address",
          "internalType": "address"
        },
        {
          "name": "amount",
          "type": "uint128",
          "internalType": "uint128"
        }
      ],
      "outputs": [],
      "stateMutability": "nonpayable"
    },
    {
      "type": "function",
      "name": "getFirstClaimTime",
      "inputs": [],
      "outputs": [
        {
          "name": "",
          "type": "uint40",
          "internalType": "uint40"
        }
      ],
      "stateMutability": "view"
    },
    {
      "type": "function",
      "name": "getTranchesWithPercentages",
      "inputs": [],
      "outputs": [
        {
          "name": "",
          "type": "tuple[]",
          "internalType": "struct MerkleLT.TrancheWithPercentage[]",
          "components": [
            {
              "name": "unlockPercentage",
              "type": "uint64",
              "internalType": "UD2x18"
            },
            {
              "name": "duration",
              "type": "uint40",
              "internalType": "uint40"
            }
          ]
        }
      ],
      "stateMutability": "view"
    },
    {
      "type": "function",
      "name": "hasClaimed",
      "inputs": [
        {
          "name": "index",
          "type": "uint256",
          "internalType": "uint256"
        }
      ],
      "outputs": [
        {
          "name": "",
          "type": "bool",
          "internalType": "bool"
        }
      ],
      "stateMutability": "view"
    },
    {
      "type": "function",
      "name": "hasExpired",
      "inputs": [],
      "outputs": [
        {
          "name": "",
          "type": "bool",
          "internalType": "bool"
        }
      ],
      "stateMutability": "view"
    },
    {
      "type": "function",
      "name": "ipfsCID",
      "inputs": [],
      "outputs": [
        {
          "name": "",
          "type": "string",
          "internalType": "string"
        }
      ],
      "stateMutability": "view"
    },
    {
      "type": "function",
      "name": "name",
      "inputs": [],
      "outputs": [
        {
          "name": "",
          "type": "string",
          "internalType": "string"
        }
      ],
      "stateMutability": "view"
    },
    {
      "type": "function",
      "name": "transferAdmin",
      "inputs": [
        {
          "name": "newAdmin",
          "type": "address",
          "internalType": "address"
        }
      ],
      "outputs": [],
      "stateMutability": "nonpayable"
    },
    {
      "type": "event",
      "name": "Claim",
      "inputs": [
        {
          "name": "index",
          "type": "uint256",
          "indexed": false,
          "internalType": "uint256"
        },
        {
          "name": "recipient",
          "type": "address",
          "indexed": true,
          "internalType": "address"
        },
        {
          "name": "amount",
          "type": "uint128",
          "indexed": false,
          "internalType": "uint128"
        },
        {
          "name": "streamId",
          "type": "uint256",
          "indexed": true,
          "internalType": "uint256"
        }
      ],
      "anonymous": false
    },
    {
      "type": "event",
      "name": "Clawback",
      "inputs": [
        {
          "name": "admin",
          "type": "address",
          "indexed": true,
          "internalType": "address"
        },
        {
          "name": "to",
          "type": "address",
          "indexed": true,
          "internalType": "address"
        },
        {
          "name": "amount",
          "type": "uint128",
          "indexed": false,
          "internalType": "uint128"
        }
      ],
      "anonymous": false
    },
    {
      "type": "event",
      "name": "TransferAdmin",
      "inputs": [
        {
          "name": "oldAdmin",
          "type": "address",
          "indexed": true,
          "internalType": "address"
        },
        {
          "name": "newAdmin",
          "type": "address",
          "indexed": true,
          "internalType": "address"
        }
      ],
      "anonymous": false
    },
    {
      "type": "error",
      "name": "AddressEmptyCode",
      "inputs": [
        {
          "name": "target",
          "type": "address",
          "internalType": "address"
        }
      ]
    },
    {
      "type": "error",
      "name": "AddressInsufficientBalance",
      "inputs": [
        {
          "name": "account",
          "type": "address",
          "internalType": "address"
        }
      ]
    },
    {
      "type": "error",
      "name": "CallerNotAdmin",
      "inputs": [
        {
          "name": "admin",
          "type": "address",
          "internalType": "address"
        },
        {
          "name": "caller",
          "type": "address",
          "internalType": "address"
        }
      ]
    },
    {
      "type": "error",
      "name": "FailedInnerCall",
      "inputs": []
    },
    {
      "type": "error",
      "name": "PRBMath_MulDiv18_Overflow",
      "inputs": [
        {
          "name": "x",
          "type": "uint256",
          "internalType": "uint256"
        },
        {
          "name": "y",
          "type": "uint256",
          "internalType": "uint256"
        }
      ]
    },
    {
      "type": "error",
      "name": "PRBMath_UD60x18_IntoUint128_Overflow",
      "inputs": [
        {
          "name": "x",
          "type": "uint256",
          "internalType": "UD60x18"
        }
      ]
    },
    {
      "type": "error",
      "name": "SablierV2MerkleLT_TotalPercentageNotOneHundred",
      "inputs": [
        {
          "name": "totalPercentage",
          "type": "uint64",
          "internalType": "uint64"
        }
      ]
    },
    {
      "type": "error",
      "name": "SablierV2MerkleLockup_CampaignExpired",
      "inputs": [
        {
          "name": "blockTimestamp",
          "type": "uint256",
          "internalType": "uint256"
        },
        {
          "name": "expiration",
          "type": "uint40",
          "internalType": "uint40"
        }
      ]
    },
    {
      "type": "error",
      "name": "SablierV2MerkleLockup_CampaignNameTooLong",
      "inputs": [
        {
          "name": "nameLength",
          "type": "uint256",
          "internalType": "uint256"
        },
        {
          "name": "maxLength",
          "type": "uint256",
          "internalType": "uint256"
        }
      ]
    },
    {
      "type": "error",
      "name": "SablierV2MerkleLockup_ClawbackNotAllowed",
      "inputs": [
        {
          "name": "blockTimestamp",
          "type": "uint256",
          "internalType": "uint256"
        },
        {
          "name": "expiration",
          "type": "uint40",
          "internalType": "uint40"
        },
        {
          "name": "firstClaimTime",
          "type": "uint40",
          "internalType": "uint40"
        }
      ]
    },
    {
      "type": "error",
      "name": "SablierV2MerkleLockup_InvalidProof",
      "inputs": []
    },
    {
      "type": "error",
      "name": "SablierV2MerkleLockup_StreamClaimed",
      "inputs": [
        {
          "name": "index",
          "type": "uint256",
          "internalType": "uint256"
        }
      ]
    },
    {
      "type": "error",
      "name": "SafeERC20FailedOperation",
      "inputs": [
        {
          "name": "token",
          "type": "address",
          "internalType": "address"
        }
      ]
    }
  ],
  "bytecode": {
    "object": "0x610180806040523461044857611de1803803809161001d82856106ab565b83398101906060818303126104485780516001600160401b03811161044857810161010081840312610448576040519061010082016001600160401b038111838210176105025760405280516001600160a01b0381168103610448578252610087602082016106ce565b916020810192835261009b604083016106db565b60408201908152606083015193906001600160a01b0385168503610448576060830194855260808401516001600160401b03811161044857876100df918601610729565b916080840192835260a08501519360a0810194855260c086015160018060401b0381116104485760e06101178b610125938a01610729565b9760c08401988952016106ce565b60e082019081526020890151989097906001600160a01b038a168a03610448576040810151906001600160401b03821161044857018a601f82011215610448578051906001600160401b0382116105025760209b8c6040519d8e61018e828760051b01826106ab565b858152019360061b8301019181831161044857602001925b82841061064f5750505050865151602081116106385750515f80546001600160a01b0319166001600160a01b0392831617905590511660805251151560a0525164ffffffffff1660c052518051906001600160401b0382116105025760015490600182811c9216801561062e575b602083101461061a5781601f8493116105ac575b50602090601f8311600114610546575f9261053b575b50508160011b915f199060031b1c1916176001555b5160e05251604051610286602082816102758183019687815193849201610708565b81010301601f1981018352826106ab565b519051906020811061052a575b506101005251151561012052610140528051905f915f915b81831061044c57836101605260018060a01b036080511660018060a01b03610140511690604051905f806020840163095ea7b360e01b815285602486015281196044860152604485526102ff6064866106ab565b84519082855af161030e610782565b81610411575b5080610407575b156103c2575b60405161155e908161088382396080518181816105d10152818161095d0152611061015260a0518181816109870152610f52015260c0518181816102bb01528181610eac015281816111cb015261135d015260e05181818161042301526107b40152610100518161123c0152610120518181816109c20152610f160152610140518181816101390152610ac20152610160518181816102ff01526106980152f35b6103fa6103ff936040519063095ea7b360e01b602083015260248201525f6044820152604481526103f46064826106ab565b826107b1565b6107b1565b808080610321565b50803b151561031b565b8051801592508215610426575b505084610314565b819250906020918101031261044857602061044191016106ce565b848061041e565b5f80fd5b91929091906001600160401b03610463858461076e565b5151166001600160401b03918216019081116105165792610484818361076e565b519060045491680100000000000000008310156105025760018301806004558310156104ee5760019260045f5260205f200190838060401b038151166cffffffffff00000000000000006020845493015160401b1691858060681b031916171790550191906102ab565b634e487b7160e01b5f52603260045260245ffd5b634e487b7160e01b5f52604160045260245ffd5b634e487b7160e01b5f52601160045260245ffd5b5f199060200360031b1b165f610293565b015190505f8061023e565b60015f9081528281209350601f198516905b818110610594575090846001959493921061057c575b505050811b01600155610253565b01515f1960f88460031b161c191690555f808061056e565b92936020600181928786015181550195019301610558565b60015f529091507fb10e2d527612073b26eecdfd717e6a320cf44b4afac2b0732d9fcbe2b7fa0cf6601f840160051c81019160208510610610575b90601f859493920160051c01905b8181106106025750610228565b5f81558493506001016105f5565b90915081906105e7565b634e487b7160e01b5f52602260045260245ffd5b91607f1691610214565b63a52d539b60e01b5f52600452602060245260445ffd5b6040848303126104485760408051919082016001600160401b03811183821017610502576040528451906001600160401b038216820361044857826020926040945261069c8388016106db565b838201528152019301926101a6565b601f909101601f19168101906001600160401b0382119082101761050257604052565b5190811515820361044857565b519064ffffffffff8216820361044857565b6001600160401b03811161050257601f01601f191660200190565b5f5b8381106107195750505f910152565b818101518382015260200161070a565b81601f8201121561044857805161073f816106ed565b9261074d60405194856106ab565b818452602082840101116104485761076b9160208085019101610708565b90565b80518210156104ee5760209160051b010190565b3d156107ac573d90610793826106ed565b916107a160405193846106ab565b82523d5f602084013e565b606090565b5f806107d99260018060a01b03169360208151910182865af16107d2610782565b9083610824565b8051908115159182610801575b50506107ef5750565b635274afe760e01b5f5260045260245ffd5b819250906020918101031261044857602061081c91016106ce565b155f806107e6565b90610848575080511561083957805190602001fd5b630a12f52160e11b5f5260045ffd5b81511580610879575b610859575090565b639996b31560e01b5f9081526001600160a01b0391909116600452602490fd5b50803b1561085156fe6080806040526004361015610012575f80fd5b5f3560e01c90816306fdde0314611226575080631686c90914610f7757806316c3549d14610f3b5780631bfd681414610eff5780633f31ae3f146105f55780634800d97f146105a557806349fc73dd1461046a5780634e390d3e1461044657806351e75e8b1461040c57806375829def1461033d57806390e64d1314610323578063936c63d9146102df578063bb4b57341461029e578063bf4ed03f1461019d578063ce5165071461015d578063da7924681461010d5763f851a440146100d7575f80fd5b34610109575f60031936011261010957602073ffffffffffffffffffffffffffffffffffffffff5f5416604051908152f35b5f80fd5b34610109575f60031936011261010957602060405173ffffffffffffffffffffffffffffffffffffffff7f0000000000000000000000000000000000000000000000000000000000000000168152f35b3461010957602060031936011261010957602061019360043560ff6001918060081c5f526002602052161b60405f205416151590565b6040519015158152f35b34610109575f600319360112610109576004546101b981611392565b906101c76040519283611314565b80825260045f9081526020830191907f8a35acfbc15ff81a39ae7d344fd709f28e8600b4aa8c65c6b64bfe7fe36bd19b835b838310610261578486604051918291602083019060208452518091526040830191905f5b81811061022b575050500390f35b8251805167ffffffffffffffff16855260209081015164ffffffffff16818601528695506040909401939092019160010161021d565b600160208192604051610273816112f8565b64ffffffffff865467ffffffffffffffff8116835260401c16838201528152019201920191906101f9565b34610109575f60031936011261010957602060405164ffffffffff7f0000000000000000000000000000000000000000000000000000000000000000168152f35b34610109575f60031936011261010957602060405167ffffffffffffffff7f0000000000000000000000000000000000000000000000000000000000000000168152f35b34610109575f600319360112610109576020610193611355565b34610109576020600319360112610109576103566112d5565b5f5473ffffffffffffffffffffffffffffffffffffffff81163381036103dd575073ffffffffffffffffffffffffffffffffffffffff7fffffffffffffffffffffffff0000000000000000000000000000000000000000921691829116175f55337fbdd36143ee09de60bdefca70680e0f71189b2ed7acee364b53917ad433fdaf805f80a3005b7fc6cce6a4000000000000000000000000000000000000000000000000000000005f526004523360245260445ffd5b34610109575f6003193601126101095760206040517f00000000000000000000000000000000000000000000000000000000000000008152f35b34610109575f60031936011261010957602064ffffffffff60035416604051908152f35b34610109575f600319360112610109576040515f6001548060011c9060018116801561059b575b60208310811461056e5782855290811561052c57506001146104ce575b6104ca836104be81850382611314565b6040519182918261126f565b0390f35b91905060015f527fb10e2d527612073b26eecdfd717e6a320cf44b4afac2b0732d9fcbe2b7fa0cf6915f905b808210610512575090915081016020016104be6104ae565b9192600181602092548385880101520191019092916104fa565b7fffffffffffffffffffffffffffffffffffffffffffffffffffffffffffffff001660208086019190915291151560051b840190910191506104be90506104ae565b7f4e487b71000000000000000000000000000000000000000000000000000000005f52602260045260245ffd5b91607f1691610491565b34610109575f60031936011261010957602060405173ffffffffffffffffffffffffffffffffffffffff7f0000000000000000000000000000000000000000000000000000000000000000168152f35b34610109576080600319360112610109576004356024359073ffffffffffffffffffffffffffffffffffffffff821680920361010957604435916fffffffffffffffffffffffffffffffff831691828403610109576064359367ffffffffffffffff851161010957366023860112156101095784600401359467ffffffffffffffff86116101095760248660051b8201013681116101095767ffffffffffffffff7f000000000000000000000000000000000000000000000000000000000000000016670de0b6b3a76400008103610ed457506040516020810190858252866040820152876060820152606081526106ee608082611314565b519020604051602081019182526020815261070a604082611314565b51902091610716611355565b610e7d5761073b8560ff6001918060081c5f526002602052161b60405f205416151590565b610e515761074888611392565b97610756604051998a611314565b8852602401602088015b828210610e4157505050925f935b86518510156107b05761078185886113aa565b51908181101561079f575f52602052600160405f205b94019361076e565b905f52602052600160405f20610797565b85907f000000000000000000000000000000000000000000000000000000000000000003610e195760035464ffffffffff811615610de5575b50600454926107f784611392565b936108056040519586611314565b80855260045f9081527f8a35acfbc15ff81a39ae7d344fd709f28e8600b4aa8c65c6b64bfe7fe36bd19b602087015b838310610da857505050505f845161084b81611392565b956108596040519788611314565b8187527fffffffffffffffffffffffffffffffffffffffffffffffffffffffffffffffe061088683611392565b015f5b818110610d855750505f905b828210610c7c5750506fffffffffffffffffffffffffffffffff8216848111610c4f578411610bfc575b5050508360081c5f52600260205260405f20600160ff86161b815417905573ffffffffffffffffffffffffffffffffffffffff5f541692604051610902816112f8565b5f81525f60208201526040519161010083019583871067ffffffffffffffff881117610bcf5773ffffffffffffffffffffffffffffffffffffffff9660409492939452815260208101918583526040820185815260608301887f00000000000000000000000000000000000000000000000000000000000000001681528860808501917f0000000000000000000000000000000000000000000000000000000000000000151583526fffffffffffffffffffffffffffffffff60a08701947f00000000000000000000000000000000000000000000000000000000000000001515865260c0880196875260e08801998a526040519c8d997f897f362b000000000000000000000000000000000000000000000000000000008b52602060048c0152816101448c019a511660248c0152511660448a0152511660648801525116608486015251151560a485015251151560c4840152519061012060e48401528151809152602061016484019201905f5b818110610b91575050508190602080945173ffffffffffffffffffffffffffffffffffffffff815116610104850152015161012483015203815f73ffffffffffffffffffffffffffffffffffffffff7f0000000000000000000000000000000000000000000000000000000000000000165af1928315610b86575f93610b2e575b50907f28b58397e03322f670d6b223cc863f8c148e368b8b615412e6798a641a22842d60406020958594825191825287820152a3604051908152f35b939250906020843d602011610b7e575b81610b4b60209383611314565b810103126101095792519192907f28b58397e03322f670d6b223cc863f8c148e368b8b615412e6798a641a22842d610af2565b3d9150610b3e565b6040513d5f823e3d90fd5b825180516fffffffffffffffffffffffffffffffff16855260209081015164ffffffffff168186015289955060409094019390920191600101610a71565b7f4e487b71000000000000000000000000000000000000000000000000000000005f52604160045260245ffd5b6fffffffffffffffffffffffffffffffff91610c3b7fffffffffffffffffffffffffffffffffffffffffffffffffffffffffffffffff849301886113aa565b5193031681835116011690528480806108bf565b7f4e487b71000000000000000000000000000000000000000000000000000000005f52600160045260245ffd5b9092610c9d67ffffffffffffffff610c9486856113aa565b515116876113eb565b6fffffffffffffffffffffffffffffffff8111610d5a576fffffffffffffffffffffffffffffffff8091169164ffffffffff6020610cdb88876113aa565b5101511660405190610cec826112f8565b8482526020820152610cfe878c6113aa565b52610d09868b6113aa565b5016016fffffffffffffffffffffffffffffffff8111610d2d579260010190610895565b7f4e487b71000000000000000000000000000000000000000000000000000000005f52601160045260245ffd5b7f4916adce000000000000000000000000000000000000000000000000000000005f5260045260245ffd5b602090604051610d94816112f8565b5f81525f8382015282828c01015201610889565b600160208192604051610dba816112f8565b64ffffffffff865467ffffffffffffffff8116835260401c1683820152815201920192019190610834565b7fffffffffffffffffffffffffffffffffffffffffffffffffffffff0000000000164264ffffffffff1617600355846107e9565b7f0fa7d73c000000000000000000000000000000000000000000000000000000005f5260045ffd5b8135815260209182019101610760565b847f712b37a3000000000000000000000000000000000000000000000000000000005f5260045260245ffd5b7f442b1841000000000000000000000000000000000000000000000000000000005f524260045264ffffffffff7f00000000000000000000000000000000000000000000000000000000000000001660245260445ffd5b7f4557880f000000000000000000000000000000000000000000000000000000005f5260045260245ffd5b34610109575f6003193601126101095760206040517f000000000000000000000000000000000000000000000000000000000000000015158152f35b34610109575f6003193601126101095760206040517f000000000000000000000000000000000000000000000000000000000000000015158152f35b3461010957604060031936011261010957610f906112d5565b6024356fffffffffffffffffffffffffffffffff81168091036101095773ffffffffffffffffffffffffffffffffffffffff5f54163381036103dd575064ffffffffff6003541680151580611205575b806111f6575b61119c57506040515f8073ffffffffffffffffffffffffffffffffffffffff60208401957fa9059cbb00000000000000000000000000000000000000000000000000000000875216948560248501528460448501526044845261104a606485611314565b73ffffffffffffffffffffffffffffffffffffffff7f00000000000000000000000000000000000000000000000000000000000000001693519082855af13d15611190573d67ffffffffffffffff8111610bcf576110e891604051916110d860207fffffffffffffffffffffffffffffffffffffffffffffffffffffffffffffffe0601f8401160184611314565b82523d5f602084013e5b836114b8565b805190811515918261116c575b505061114157507f2e9d425ba8b27655048400b366d7b6a1f7180ebdb088e06bb7389704860ffe1f602073ffffffffffffffffffffffffffffffffffffffff5f541692604051908152a3005b7f5274afe7000000000000000000000000000000000000000000000000000000005f5260045260245ffd5b819250906020918101031261010957602001518015908115036101095784806110f5565b6110e8906060906110e2565b7f92b66697000000000000000000000000000000000000000000000000000000005f524260045264ffffffffff7f00000000000000000000000000000000000000000000000000000000000000001660245260445260645ffd5b506111ff611355565b15610fe6565b5062093a80810164ffffffffff8111610d2d5764ffffffffff164211610fe0565b34610109575f600319360112610109576104ca907f00000000000000000000000000000000000000000000000000000000000000006020820152602081526104be604082611314565b919091602081528251928360208301525f5b8481106112bf5750507fffffffffffffffffffffffffffffffffffffffffffffffffffffffffffffffe0601f845f6040809697860101520116010190565b8060208092840101516040828601015201611281565b6004359073ffffffffffffffffffffffffffffffffffffffff8216820361010957565b6040810190811067ffffffffffffffff821117610bcf57604052565b90601f7fffffffffffffffffffffffffffffffffffffffffffffffffffffffffffffffe0910116810190811067ffffffffffffffff821117610bcf57604052565b64ffffffffff7f000000000000000000000000000000000000000000000000000000000000000016801515908161138a575090565b905042101590565b67ffffffffffffffff8111610bcf5760051b60200190565b80518210156113be5760209160051b010190565b7f4e487b71000000000000000000000000000000000000000000000000000000005f52603260045260245ffd5b9190917fffffffffffffffffffffffffffffffffffffffffffffffffffffffffffffffff838209838202918280831092039180830392146114a757670de0b6b3a7640000821015611477577faccb18165bd6fe31ae1cf318dc5b51eee0e1ba569b88cd74c1773b91fac106699394670de0b6b3a7640000910990828211900360ee1b910360121c170290565b84907f5173648d000000000000000000000000000000000000000000000000000000005f5260045260245260445ffd5b5050670de0b6b3a764000090049150565b906114f557508051156114cd57805190602001fd5b7f1425ea42000000000000000000000000000000000000000000000000000000005f5260045ffd5b81511580611548575b611506575090565b73ffffffffffffffffffffffffffffffffffffffff907f9996b315000000000000000000000000000000000000000000000000000000005f521660045260245ffd5b50803b156114fe56fea164736f6c634300081a000a",
    "linkReferences": {}
  },
  "methodIdentifiers": {
    "ASSET()": "4800d97f",
    "CANCELABLE()": "16c3549d",
    "EXPIRATION()": "bb4b5734",
    "LOCKUP_TRANCHED()": "da792468",
    "MERKLE_ROOT()": "51e75e8b",
    "TOTAL_PERCENTAGE()": "936c63d9",
    "TRANSFERABLE()": "1bfd6814",
    "admin()": "f851a440",
    "claim(uint256,address,uint128,bytes32[])": "3f31ae3f",
    "clawback(address,uint128)": "1686c909",
    "getFirstClaimTime()": "4e390d3e",
    "getTranchesWithPercentages()": "bf4ed03f",
    "hasClaimed(uint256)": "ce516507",
    "hasExpired()": "90e64d13",
    "ipfsCID()": "49fc73dd",
    "name()": "06fdde03",
    "transferAdmin(address)": "75829def"
  },
  "id": 99
}