{
  "abi": [
    {
      "type": "constructor",
      "inputs": [
        {
          "name": "baseParams",
          "type": "tuple",
          "internalType": "struct MerkleLockup.ConstructorParams",
          "components": [
            {
              "name": "asset",
              "type": "address",
              "internalType": "contract IERC20"
            },
            {
              "name": "cancelable",
              "type": "bool",
              "internalType": "bool"
            },
            {
              "name": "expiration",
              "type": "uint40",
              "internalType": "uint40"
            },
            {
              "name": "initialAdmin",
              "type": "address",
              "internalType": "address"
            },
            {
              "name": "ipfsCID",
              "type": "string",
              "internalType": "string"
            },
            {
              "name": "merkleRoot",
              "type": "bytes32",
              "internalType": "bytes32"
            },
            {
              "name": "name",
              "type": "string",
              "internalType": "string"
            },
            {
              "name": "transferable",
              "type": "bool",
              "internalType": "bool"
            }
          ]
        },
        {
          "name": "lockupLinear",
          "type": "address",
          "internalType": "contract ISablierV2LockupLinear"
        },
        {
          "name": "streamDurations_",
          "type": "tuple",
          "internalType": "struct LockupLinear.Durations",
          "components": [
            {
              "name": "cliff",
              "type": "uint40",
              "internalType": "uint40"
            },
            {
              "name": "total",
              "type": "uint40",
              "internalType": "uint40"
            }
          ]
        }
      ],
      "stateMutability": "nonpayable"
    },
    {
      "type": "function",
      "name": "ASSET",
      "inputs": [],
      "outputs": [
        {
          "name": "",
          "type": "address",
          "internalType": "contract IERC20"
        }
      ],
      "stateMutability": "view"
    },
    {
      "type": "function",
      "name": "CANCELABLE",
      "inputs": [],
      "outputs": [
        {
          "name": "",
          "type": "bool",
          "internalType": "bool"
        }
      ],
      "stateMutability": "view"
    },
    {
      "type": "function",
      "name": "EXPIRATION",
      "inputs": [],
      "outputs": [
        {
          "name": "",
          "type": "uint40",
          "internalType": "uint40"
        }
      ],
      "stateMutability": "view"
    },
    {
      "type": "function",
      "name": "LOCKUP_LINEAR",
      "inputs": [],
      "outputs": [
        {
          "name": "",
          "type": "address",
          "internalType": "contract ISablierV2LockupLinear"
        }
      ],
      "stateMutability": "view"
    },
    {
      "type": "function",
      "name": "MERKLE_ROOT",
      "inputs": [],
      "outputs": [
        {
          "name": "",
          "type": "bytes32",
          "internalType": "bytes32"
        }
      ],
      "stateMutability": "view"
    },
    {
      "type": "function",
      "name": "TRANSFERABLE",
      "inputs": [],
      "outputs": [
        {
          "name": "",
          "type": "bool",
          "internalType": "bool"
        }
      ],
      "stateMutability": "view"
    },
    {
      "type": "function",
      "name": "admin",
      "inputs": [],
      "outputs": [
        {
          "name": "",
          "type": "address",
          "internalType": "address"
        }
      ],
      "stateMutability": "view"
    },
    {
      "type": "function",
      "name": "claim",
      "inputs": [
        {
          "name": "index",
          "type": "uint256",
          "internalType": "uint256"
        },
        {
          "name": "recipient",
          "type": "address",
          "internalType": "address"
        },
        {
          "name": "amount",
          "type": "uint128",
          "internalType": "uint128"
        },
        {
          "name": "merkleProof",
          "type": "bytes32[]",
          "internalType": "bytes32[]"
        }
      ],
      "outputs": [
        {
          "name": "streamId",
          "type": "uint256",
          "internalType": "uint256"
        }
      ],
      "stateMutability": "nonpayable"
    },
    {
      "type": "function",
      "name": "clawback",
      "inputs": [
        {
          "name": "to",
          "type": "address",
          "internalType": "address"
        },
        {
          "name": "amount",
          "type": "uint128",
          "internalType": "uint128"
        }
      ],
      "outputs": [],
      "stateMutability": "nonpayable"
    },
    {
      "type": "function",
      "name": "getFirstClaimTime",
      "inputs": [],
      "outputs": [
        {
          "name": "",
          "type": "uint40",
          "internalType": "uint40"
        }
      ],
      "stateMutability": "view"
    },
    {
      "type": "function",
      "name": "hasClaimed",
      "inputs": [
        {
          "name": "index",
          "type": "uint256",
          "internalType": "uint256"
        }
      ],
      "outputs": [
        {
          "name": "",
          "type": "bool",
          "internalType": "bool"
        }
      ],
      "stateMutability": "view"
    },
    {
      "type": "function",
      "name": "hasExpired",
      "inputs": [],
      "outputs": [
        {
          "name": "",
          "type": "bool",
          "internalType": "bool"
        }
      ],
      "stateMutability": "view"
    },
    {
      "type": "function",
      "name": "ipfsCID",
      "inputs": [],
      "outputs": [
        {
          "name": "",
          "type": "string",
          "internalType": "string"
        }
      ],
      "stateMutability": "view"
    },
    {
      "type": "function",
      "name": "name",
      "inputs": [],
      "outputs": [
        {
          "name": "",
          "type": "string",
          "internalType": "string"
        }
      ],
      "stateMutability": "view"
    },
    {
      "type": "function",
      "name": "streamDurations",
      "inputs": [],
      "outputs": [
        {
          "name": "cliff",
          "type": "uint40",
          "internalType": "uint40"
        },
        {
          "name": "total",
          "type": "uint40",
          "internalType": "uint40"
        }
      ],
      "stateMutability": "view"
    },
    {
      "type": "function",
      "name": "transferAdmin",
      "inputs": [
        {
          "name": "newAdmin",
          "type": "address",
          "internalType": "address"
        }
      ],
      "outputs": [],
      "stateMutability": "nonpayable"
    },
    {
      "type": "event",
      "name": "Claim",
      "inputs": [
        {
          "name": "index",
          "type": "uint256",
          "indexed": false,
          "internalType": "uint256"
        },
        {
          "name": "recipient",
          "type": "address",
          "indexed": true,
          "internalType": "address"
        },
        {
          "name": "amount",
          "type": "uint128",
          "indexed": false,
          "internalType": "uint128"
        },
        {
          "name": "streamId",
          "type": "uint256",
          "indexed": true,
          "internalType": "uint256"
        }
      ],
      "anonymous": false
    },
    {
      "type": "event",
      "name": "Clawback",
      "inputs": [
        {
          "name": "admin",
          "type": "address",
          "indexed": true,
          "internalType": "address"
        },
        {
          "name": "to",
          "type": "address",
          "indexed": true,
          "internalType": "address"
        },
        {
          "name": "amount",
          "type": "uint128",
          "indexed": false,
          "internalType": "uint128"
        }
      ],
      "anonymous": false
    },
    {
      "type": "event",
      "name": "TransferAdmin",
      "inputs": [
        {
          "name": "oldAdmin",
          "type": "address",
          "indexed": true,
          "internalType": "address"
        },
        {
          "name": "newAdmin",
          "type": "address",
          "indexed": true,
          "internalType": "address"
        }
      ],
      "anonymous": false
    },
    {
      "type": "error",
      "name": "AddressEmptyCode",
      "inputs": [
        {
          "name": "target",
          "type": "address",
          "internalType": "address"
        }
      ]
    },
    {
      "type": "error",
      "name": "AddressInsufficientBalance",
      "inputs": [
        {
          "name": "account",
          "type": "address",
          "internalType": "address"
        }
      ]
    },
    {
      "type": "error",
      "name": "CallerNotAdmin",
      "inputs": [
        {
          "name": "admin",
          "type": "address",
          "internalType": "address"
        },
        {
          "name": "caller",
          "type": "address",
          "internalType": "address"
        }
      ]
    },
    {
      "type": "error",
      "name": "FailedInnerCall",
      "inputs": []
    },
    {
      "type": "error",
      "name": "SablierV2MerkleLockup_CampaignExpired",
      "inputs": [
        {
          "name": "blockTimestamp",
          "type": "uint256",
          "internalType": "uint256"
        },
        {
          "name": "expiration",
          "type": "uint40",
          "internalType": "uint40"
        }
      ]
    },
    {
      "type": "error",
      "name": "SablierV2MerkleLockup_CampaignNameTooLong",
      "inputs": [
        {
          "name": "nameLength",
          "type": "uint256",
          "internalType": "uint256"
        },
        {
          "name": "maxLength",
          "type": "uint256",
          "internalType": "uint256"
        }
      ]
    },
    {
      "type": "error",
      "name": "SablierV2MerkleLockup_ClawbackNotAllowed",
      "inputs": [
        {
          "name": "blockTimestamp",
          "type": "uint256",
          "internalType": "uint256"
        },
        {
          "name": "expiration",
          "type": "uint40",
          "internalType": "uint40"
        },
        {
          "name": "firstClaimTime",
          "type": "uint40",
          "internalType": "uint40"
        }
      ]
    },
    {
      "type": "error",
      "name": "SablierV2MerkleLockup_InvalidProof",
      "inputs": []
    },
    {
      "type": "error",
      "name": "SablierV2MerkleLockup_StreamClaimed",
      "inputs": [
        {
          "name": "index",
          "type": "uint256",
          "internalType": "uint256"
        }
      ]
    },
    {
      "type": "error",
      "name": "SafeERC20FailedOperation",
      "inputs": [
        {
          "name": "token",
          "type": "address",
          "internalType": "address"
        }
      ]
    }
  ],
  "bytecode": {
    "object": "0x610160806040523461042857611748803803809161001d8285610560565b833981019080820390608082126104285780516001600160401b03811161042857810190610100828503126104285760405161010081016001600160401b038111828210176105355760405282516001600160a01b038116810361042857815261008960208401610583565b6020820190815261009c60408501610590565b60408301908152606085015194906001600160a01b0386168603610428576060840195865260808201516001600160401b03811161042857886100e09184016105de565b6080850190815260a08381015190860190815260c084015190999192916001600160401b0382116104285761011c60e09161012a9387016105de565b9460c0880195865201610583565b9360e0860194855260208701519560018060a01b038716998a880361042857604090603f1901126104285760408051989089016001600160401b0381118a8210176105355761018d9160609160405261018560408201610590565b8b5201610590565b9860208901998a52855151602081116105495750515f80546001600160a01b0319166001600160a01b0392831617905590511660805251151560a0525164ffffffffff1660c0525180519097906001600160401b03811161053557600154600181811c9116801561052b575b602082101461051757601f81116104b4575b506020601f821160011461044857819064ffffffffff98999a5f9261043d575b50508160011b915f199060031b1c1916176001555b5160e052516040516102736020828161026281830196878151938492016105bd565b81010301601f198101835282610560565b519051906020811061042c575b50610100525115156101205261014052511669ffffffffff0000000000600454925160281b169160018060501b031916171760045560018060a01b0360805116604051905f806020840163095ea7b360e01b815285602486015281196044860152604485526102f0606486610560565b84519082855af16102ff610623565b816103f1575b50806103e7575b156103a2575b60405161102490816107248239608051818181610481015281816106d60152610c20015260a0518181816107140152610b11015260c05181818161015f01528181610a6801528181610d8a0152610f49015260e0518181816102d3015261062201526101005181610e2801526101205181818161073e0152610ad50152610140518181816101af01526108870152f35b6103da6103df936040519063095ea7b360e01b602083015260248201525f6044820152604481526103d4606482610560565b82610652565b610652565b5f8080610312565b50803b151561030c565b8051801592508215610406575b50505f610305565b81925090602091810103126104285760206104219101610583565b5f806103fe565b5f80fd5b5f199060200360031b1b165f610280565b015190505f8061022b565b601f1982169960015f52815f209a5f5b81811061049c57509164ffffffffff999a9b91846001959410610484575b505050811b01600155610240565b01515f1960f88460031b161c191690555f8080610476565b838301518d556001909c019b60209384019301610458565b60015f527fb10e2d527612073b26eecdfd717e6a320cf44b4afac2b0732d9fcbe2b7fa0cf6601f830160051c8101916020841061050d575b601f0160051c01905b818110610502575061020b565b5f81556001016104f5565b90915081906104ec565b634e487b7160e01b5f52602260045260245ffd5b90607f16906101f9565b634e487b7160e01b5f52604160045260245ffd5b63a52d539b60e01b5f52600452602060245260445ffd5b601f909101601f19168101906001600160401b0382119082101761053557604052565b5190811515820361042857565b519064ffffffffff8216820361042857565b6001600160401b03811161053557601f01601f191660200190565b5f5b8381106105ce5750505f910152565b81810151838201526020016105bf565b81601f820112156104285780516105f4816105a2565b926106026040519485610560565b818452602082840101116104285761062091602080850191016105bd565b90565b3d1561064d573d90610634826105a2565b916106426040519384610560565b82523d5f602084013e565b606090565b5f8061067a9260018060a01b03169360208151910182865af1610673610623565b90836106c5565b80519081151591826106a2575b50506106905750565b635274afe760e01b5f5260045260245ffd5b81925090602091810103126104285760206106bd9101610583565b155f80610687565b906106e957508051156106da57805190602001fd5b630a12f52160e11b5f5260045ffd5b8151158061071a575b6106fa575090565b639996b31560e01b5f9081526001600160a01b0391909116600452602490fd5b50803b156106f256fe6080806040526004361015610012575f80fd5b5f3560e01c90816306fdde0314610e12575080631686c90914610b3657806316c3549d14610afa5780631bfd681414610abe5780633bfe03a814610a905780633f31ae3f146104a55780634800d97f1461045557806349fc73dd1461031a5780634e390d3e146102f657806351e75e8b146102bc57806375829def146101ed57806390e64d13146101d35780639e93e57714610183578063bb4b573414610142578063ce516507146101025763f851a440146100cc575f80fd5b346100fe575f6003193601126100fe57602073ffffffffffffffffffffffffffffffffffffffff5f5416604051908152f35b5f80fd5b346100fe5760206003193601126100fe57602061013860043560ff6001918060081c5f526002602052161b60405f205416151590565b6040519015158152f35b346100fe575f6003193601126100fe57602060405164ffffffffff7f0000000000000000000000000000000000000000000000000000000000000000168152f35b346100fe575f6003193601126100fe57602060405173ffffffffffffffffffffffffffffffffffffffff7f0000000000000000000000000000000000000000000000000000000000000000168152f35b346100fe575f6003193601126100fe576020610138610f41565b346100fe5760206003193601126100fe57610206610ec1565b5f5473ffffffffffffffffffffffffffffffffffffffff811633810361028d575073ffffffffffffffffffffffffffffffffffffffff7fffffffffffffffffffffffff0000000000000000000000000000000000000000921691829116175f55337fbdd36143ee09de60bdefca70680e0f71189b2ed7acee364b53917ad433fdaf805f80a3005b7fc6cce6a4000000000000000000000000000000000000000000000000000000005f526004523360245260445ffd5b346100fe575f6003193601126100fe5760206040517f00000000000000000000000000000000000000000000000000000000000000008152f35b346100fe575f6003193601126100fe57602064ffffffffff60035416604051908152f35b346100fe575f6003193601126100fe576040515f6001548060011c9060018116801561044b575b60208310811461041e578285529081156103dc575060011461037e575b61037a8361036e81850382610f00565b60405191829182610e5b565b0390f35b91905060015f527fb10e2d527612073b26eecdfd717e6a320cf44b4afac2b0732d9fcbe2b7fa0cf6915f905b8082106103c25750909150810160200161036e61035e565b9192600181602092548385880101520191019092916103aa565b7fffffffffffffffffffffffffffffffffffffffffffffffffffffffffffffff001660208086019190915291151560051b8401909101915061036e905061035e565b7f4e487b71000000000000000000000000000000000000000000000000000000005f52602260045260245ffd5b91607f1691610341565b346100fe575f6003193601126100fe57602060405173ffffffffffffffffffffffffffffffffffffffff7f0000000000000000000000000000000000000000000000000000000000000000168152f35b346100fe5760806003193601126100fe5760043560243573ffffffffffffffffffffffffffffffffffffffff81168091036100fe57604435916fffffffffffffffffffffffffffffffff83168093036100fe576064359067ffffffffffffffff82116100fe57366023830112156100fe57816004013567ffffffffffffffff81116100fe578060051b92602484820101903682116100fe57604051602081019085825287604082015288606082015260608152610563608082610f00565b519020604051602081019182526020815261057f604082610f00565b5190209261058b610f41565b610a39576105b08560ff6001918060081c5f526002602052161b60405f205416151590565b610a0d576105c46020604051970187610f00565b8552602401602085015b8282106109fd57505050935f945b835186101561061e5760208660051b85010151908181105f1461060d575f52602052600160405f205b9501946105dc565b905f52602052600160405f20610605565b84907f0000000000000000000000000000000000000000000000000000000000000000036109d55760035464ffffffffff8116156109a1575b508260081c5f52600260205260405f20600160ff85161b815417905573ffffffffffffffffffffffffffffffffffffffff5f54169160405161069881610ee4565b5f81525f602082015260405193610100850185811067ffffffffffffffff8211176109745760405284526020840183815260408501838152606086017f000000000000000000000000000000000000000000000000000000000000000073ffffffffffffffffffffffffffffffffffffffff16815260808701907f00000000000000000000000000000000000000000000000000000000000000001515825260a08801927f0000000000000000000000000000000000000000000000000000000000000000151584526040519461076e86610ee4565b60045464ffffffffff8116875260281c64ffffffffff16602087015260c08a0195865260e08a01968752604051997fab167ccc000000000000000000000000000000000000000000000000000000008b525173ffffffffffffffffffffffffffffffffffffffff1660048b01525173ffffffffffffffffffffffffffffffffffffffff1660248a0152516fffffffffffffffffffffffffffffffff1660448901525173ffffffffffffffffffffffffffffffffffffffff166064880152511515608487015251151560a486015251805164ffffffffff1660c48601526020015164ffffffffff1660e485015251805173ffffffffffffffffffffffffffffffffffffffff166101048501526020015161012484015282807f000000000000000000000000000000000000000000000000000000000000000073ffffffffffffffffffffffffffffffffffffffff165a925f61014492602095f1928315610969575f93610911575b50907f28b58397e03322f670d6b223cc863f8c148e368b8b615412e6798a641a22842d60406020958594825191825287820152a3604051908152f35b939250906020843d602011610961575b8161092e60209383610f00565b810103126100fe5792519192907f28b58397e03322f670d6b223cc863f8c148e368b8b615412e6798a641a22842d6108d5565b3d9150610921565b6040513d5f823e3d90fd5b7f4e487b71000000000000000000000000000000000000000000000000000000005f52604160045260245ffd5b7fffffffffffffffffffffffffffffffffffffffffffffffffffffff0000000000164264ffffffffff161760035583610657565b7f0fa7d73c000000000000000000000000000000000000000000000000000000005f5260045ffd5b81358152602091820191016105ce565b847f712b37a3000000000000000000000000000000000000000000000000000000005f5260045260245ffd5b7f442b1841000000000000000000000000000000000000000000000000000000005f524260045264ffffffffff7f00000000000000000000000000000000000000000000000000000000000000001660245260445ffd5b346100fe575f6003193601126100fe57604060045464ffffffffff825191818116835260281c166020820152f35b346100fe575f6003193601126100fe5760206040517f000000000000000000000000000000000000000000000000000000000000000015158152f35b346100fe575f6003193601126100fe5760206040517f000000000000000000000000000000000000000000000000000000000000000015158152f35b346100fe5760406003193601126100fe57610b4f610ec1565b6024356fffffffffffffffffffffffffffffffff81168091036100fe5773ffffffffffffffffffffffffffffffffffffffff5f541633810361028d575064ffffffffff6003541680151580610dc4575b80610db5575b610d5b57506040515f8073ffffffffffffffffffffffffffffffffffffffff60208401957fa9059cbb000000000000000000000000000000000000000000000000000000008752169485602485015284604485015260448452610c09606485610f00565b73ffffffffffffffffffffffffffffffffffffffff7f00000000000000000000000000000000000000000000000000000000000000001693519082855af13d15610d4f573d67ffffffffffffffff811161097457610ca79160405191610c9760207fffffffffffffffffffffffffffffffffffffffffffffffffffffffffffffffe0601f8401160184610f00565b82523d5f602084013e5b83610f7e565b8051908115159182610d2b575b5050610d0057507f2e9d425ba8b27655048400b366d7b6a1f7180ebdb088e06bb7389704860ffe1f602073ffffffffffffffffffffffffffffffffffffffff5f541692604051908152a3005b7f5274afe7000000000000000000000000000000000000000000000000000000005f5260045260245ffd5b81925090602091810103126100fe57602001518015908115036100fe578480610cb4565b610ca790606090610ca1565b7f92b66697000000000000000000000000000000000000000000000000000000005f524260045264ffffffffff7f00000000000000000000000000000000000000000000000000000000000000001660245260445260645ffd5b50610dbe610f41565b15610ba5565b5062093a80810164ffffffffff8111610de55764ffffffffff164211610b9f565b7f4e487b71000000000000000000000000000000000000000000000000000000005f52601160045260245ffd5b346100fe575f6003193601126100fe5761037a907f000000000000000000000000000000000000000000000000000000000000000060208201526020815261036e604082610f00565b919091602081528251928360208301525f5b848110610eab5750507fffffffffffffffffffffffffffffffffffffffffffffffffffffffffffffffe0601f845f6040809697860101520116010190565b8060208092840101516040828601015201610e6d565b6004359073ffffffffffffffffffffffffffffffffffffffff821682036100fe57565b6040810190811067ffffffffffffffff82111761097457604052565b90601f7fffffffffffffffffffffffffffffffffffffffffffffffffffffffffffffffe0910116810190811067ffffffffffffffff82111761097457604052565b64ffffffffff7f0000000000000000000000000000000000000000000000000000000000000000168015159081610f76575090565b905042101590565b90610fbb5750805115610f9357805190602001fd5b7f1425ea42000000000000000000000000000000000000000000000000000000005f5260045ffd5b8151158061100e575b610fcc575090565b73ffffffffffffffffffffffffffffffffffffffff907f9996b315000000000000000000000000000000000000000000000000000000005f521660045260245ffd5b50803b15610fc456fea164736f6c634300081a000a",
    "linkReferences": {}
  },
  "methodIdentifiers": {
    "ASSET()": "4800d97f",
    "CANCELABLE()": "16c3549d",
    "EXPIRATION()": "bb4b5734",
    "LOCKUP_LINEAR()": "9e93e577",
    "MERKLE_ROOT()": "51e75e8b",
    "TRANSFERABLE()": "1bfd6814",
    "admin()": "f851a440",
    "claim(uint256,address,uint128,bytes32[])": "3f31ae3f",
    "clawback(address,uint128)": "1686c909",
    "getFirstClaimTime()": "4e390d3e",
    "hasClaimed(uint256)": "ce516507",
    "hasExpired()": "90e64d13",
    "ipfsCID()": "49fc73dd",
    "name()": "06fdde03",
    "streamDurations()": "3bfe03a8",
    "transferAdmin(address)": "75829def"
  },
  "id": 98
}