{
  "abi": [
    {
      "inputs": [
        {
          "internalType": "address",
          "name": "initialAdmin",
          "type": "address"
        }
      ],
      "stateMutability": "nonpayable",
      "type": "constructor"
    },
    {
      "inputs": [
        {
          "internalType": "address",
          "name": "admin",
          "type": "address"
        },
        {
          "internalType": "address",
          "name": "caller",
          "type": "address"
        }
      ],
      "name": "CallerNotAdmin",
      "type": "error"
    },
    {
      "anonymous": false,
      "inputs": [
        {
          "indexed": true,
          "internalType": "address",
          "name": "admin",
          "type": "address"
        },
        {
          "indexed": false,
          "internalType": "UD60x18",
          "name": "oldFlashFee",
          "type": "uint256"
        },
        {
          "indexed": false,
          "internalType": "UD60x18",
          "name": "newFlashFee",
          "type": "uint256"
        }
      ],
      "name": "SetFlashFee",
      "type": "event"
    },
    {
      "anonymous": false,
      "inputs": [
        {
          "indexed": true,
          "internalType": "address",
          "name": "admin",
          "type": "address"
        },
        {
          "indexed": true,
          "internalType": "contract IERC20",
          "name": "asset",
          "type": "address"
        },
        {
          "indexed": false,
          "internalType": "UD60x18",
          "name": "oldProtocolFee",
          "type": "uint256"
        },
        {
          "indexed": false,
          "internalType": "UD60x18",
          "name": "newProtocolFee",
          "type": "uint256"
        }
      ],
      "name": "SetProtocolFee",
      "type": "event"
    },
    {
      "anonymous": false,
      "inputs": [
        {
          "indexed": true,
          "internalType": "address",
          "name": "admin",
          "type": "address"
        },
        {
          "indexed": true,
          "internalType": "contract IERC20",
          "name": "asset",
          "type": "address"
        },
        {
          "indexed": false,
          "internalType": "bool",
          "name": "newFlag",
          "type": "bool"
        }
      ],
      "name": "ToggleFlashAsset",
      "type": "event"
    },
    {
      "anonymous": false,
      "inputs": [
        {
          "indexed": true,
          "internalType": "address",
          "name": "oldAdmin",
          "type": "address"
        },
        {
          "indexed": true,
          "internalType": "address",
          "name": "newAdmin",
          "type": "address"
        }
      ],
      "name": "TransferAdmin",
      "type": "event"
    },
    {
      "inputs": [],
      "name": "admin",
      "outputs": [
        {
          "internalType": "address",
          "name": "",
          "type": "address"
        }
      ],
      "stateMutability": "view",
      "type": "function"
    },
    {
      "inputs": [],
      "name": "flashFee",
      "outputs": [
        {
          "internalType": "UD60x18",
          "name": "",
          "type": "uint256"
        }
      ],
      "stateMutability": "view",
      "type": "function"
    },
    {
      "inputs": [
        {
          "internalType": "contract IERC20",
          "name": "asset",
          "type": "address"
        }
      ],
      "name": "isFlashAsset",
      "outputs": [
        {
          "internalType": "bool",
          "name": "supported",
          "type": "bool"
        }
      ],
      "stateMutability": "view",
      "type": "function"
    },
    {
      "inputs": [
        {
          "internalType": "contract IERC20",
          "name": "asset",
          "type": "address"
        }
      ],
      "name": "protocolFees",
      "outputs": [
        {
          "internalType": "UD60x18",
          "name": "fee",
          "type": "uint256"
        }
      ],
      "stateMutability": "view",
      "type": "function"
    },
    {
      "inputs": [
        {
          "internalType": "UD60x18",
          "name": "newFlashFee",
          "type": "uint256"
        }
      ],
      "name": "setFlashFee",
      "outputs": [],
      "stateMutability": "nonpayable",
      "type": "function"
    },
    {
      "inputs": [
        {
          "internalType": "contract IERC20",
          "name": "asset",
          "type": "address"
        },
        {
          "internalType": "UD60x18",
          "name": "newProtocolFee",
          "type": "uint256"
        }
      ],
      "name": "setProtocolFee",
      "outputs": [],
      "stateMutability": "nonpayable",
      "type": "function"
    },
    {
      "inputs": [
        {
          "internalType": "contract IERC20",
          "name": "asset",
          "type": "address"
        }
      ],
      "name": "toggleFlashAsset",
      "outputs": [],
      "stateMutability": "nonpayable",
      "type": "function"
    },
    {
      "inputs": [
        {
          "internalType": "address",
          "name": "newAdmin",
          "type": "address"
        }
      ],
      "name": "transferAdmin",
      "outputs": [],
      "stateMutability": "nonpayable",
      "type": "function"
    }
  ],
  "bytecode": {
    "object": "0x60803461009857601f6104a638819003918201601f19168301916001600160401b0383118484101761009d5780849260209460405283398101031261009857516001600160a01b0381169081900361009857600080546001600160a01b0319168217815560405191907fbdd36143ee09de60bdefca70680e0f71189b2ed7acee364b53917ad433fdaf808180a36103f290816100b48239f35b600080fd5b634e487b7160e01b600052604160045260246000fdfe608060408181526004918236101561001657600080fd5b600092833560e01c9182634d81e51d1461039d5750816375829def146102e5578163907a267b14610253578163b5b3ca2c146101ab578163cb01e30e146100f957508063dcf844a7146100c3578063e07df5b4146100a55763f851a4401461007d57600080fd5b346100a157816003193601126100a1576001600160a01b0360209254169051908152f35b5080fd5b50346100a157816003193601126100a1576020906001549051908152f35b50346100a15760203660031901126100a157806020926001600160a01b036100e96103d7565b1681526003845220549051908152f35b9050346101a75760203660031901126101a7576101146103d7565b6001600160a01b03918285541633810361017a575050169081835260026020528083209081549160ff8316159260ff84169060ff1916179055519081527f8cd3a7bc46b26a3b0c07a05a47af78abcaa647626f631d92ea64f8867b23bbec60203392a380f35b84516331b339a960e21b81526001600160a01b039091169181019182523360208301529081906040010390fd5b8280fd5b9050346101a757816003193601126101a7576101c56103d7565b90602435916001600160a01b039182865416338103610226575050907f371789a3d97098f3070492613273a065a7e8a19e009fd1ae92a4b4d4c71ed62d9116928385526003602052808520928084549455815193845260208401523392a380f35b85516331b339a960e21b81526001600160a01b039091169181019182523360208301529081906040010390fd5b919050346101a75760203660031901126101a7578135916001600160a01b038454163381036102b85750507fc059ba3e07a1c4d1fa8845bdb2af2dd85e844684e0a59e6073499e4338788465906001549280600155815193845260208401523392a280f35b82516331b339a960e21b81526001600160a01b039091169181019182523360208301529081906040010390fd5b919050346101a75760203660031901126101a7578135916001600160a01b03918284168094036103995784549283169033820361036d575050507fffffffffffffffffffffffff00000000000000000000000000000000000000001681178255337fbdd36143ee09de60bdefca70680e0f71189b2ed7acee364b53917ad433fdaf808380a380f35b516331b339a960e21b81526001600160a01b039091169181019182523360208301529081906040010390fd5b8480fd5b849084346101a75760203660031901126101a75760ff906020936001600160a01b036103c76103d7565b1681526002855220541615158152f35b600435906001600160a01b03821682036103ed57565b600080fd",
    "linkReferences": {}
  },
  "methodIdentifiers": {
    "admin()": "f851a440",
    "flashFee()": "e07df5b4",
    "isFlashAsset(address)": "4d81e51d",
    "protocolFees(address)": "dcf844a7",
    "setFlashFee(uint256)": "907a267b",
    "setProtocolFee(address,uint256)": "b5b3ca2c",
    "toggleFlashAsset(address)": "cb01e30e",
    "transferAdmin(address)": "75829def"
  },
  "id": 73
}