{
  "abi": [
    {
      "type": "function",
      "name": "tokenURI",
      "inputs": [
        {
          "name": "sablier",
          "type": "address",
          "internalType": "contract IERC721Metadata"
        },
        {
          "name": "streamId",
          "type": "uint256",
          "internalType": "uint256"
        }
      ],
      "outputs": [
        {
          "name": "uri",
          "type": "string",
          "internalType": "string"
        }
      ],
      "stateMutability": "view"
    },
    {
      "type": "error",
      "name": "SablierV2NFTDescriptor_UnknownNFT",
      "inputs": [
        {
          "name": "nft",
          "type": "address",
          "internalType": "contract IERC721Metadata"
        },
        {
          "name": "symbol",
          "type": "string",
          "internalType": "string"
        }
      ]
    }
  ],
  "bytecode": {
    "object": "0x6080806040523461001757615dcc90816200001d8239f35b600080fdfe6080604052600436101561001257600080fd5b60003560e01c63e9dc63751461002757600080fd5b346142f85760403660031901126142f8576001600160a01b0360043516600435036142f857610056608061486e565b60006080819052606060a081905260c082905260e0819052610120819052610140819052610160819052610180919091526101a0526004356001600160a01b03166101008190526100a690614946565b61012052610100516040517feac8f5b80000000000000000000000000000000000000000000000000000000081526024803560048301529091602091839182906001600160a01b03165afa908115614305576000916147dd575b506001600160a01b03610117911680608052614b39565b60a052610100516040517fa80fc0710000000000000000000000000000000000000000000000000000000081526024803560048301529091602091839182906001600160a01b03165afa8015614305576fffffffffffffffffffffffffffffffff916000916147be575b501660c052610100516040517fad35efd40000000000000000000000000000000000000000000000000000000081526024803560048301529091602091839182906001600160a01b03165afa801561430557600090614781575b6101e59150614c86565b61014052610100516040517f4869e12d0000000000000000000000000000000000000000000000000000000081526024803560048301529091602091839182906001600160a01b03165afa90811561430557600091614752575b5060c0516fffffffffffffffffffffffffffffffff16801561473c576fffffffffffffffffffffffffffffffff61271081930216041661010060800152610287600435614d82565b610120608001526040514660208201526bffffffffffffffffffffffff1960043560601b16604082015260243560548201526054815280608081011067ffffffffffffffff60808301111761431157608081016040526020815191012061041a602963ffffffff61032e6103078261016861ffff8860101c1606166155e2565b91601e604660ff6103248460146050848d60081c160601166155e2565b98160601166155e2565b6040519485927f68736c2800000000000000000000000000000000000000000000000000000000602085015261036e815180926020602488019101614826565b83017f2c0000000000000000000000000000000000000000000000000000000000000060248201526103aa825180936020602585019101614826565b017f252c00000000000000000000000000000000000000000000000000000000000060258201526103e5825180936020602785019101614826565b017f252900000000000000000000000000000000000000000000000000000000000060278201520360098101845201826148df565b6104526fffffffffffffffffffffffffffffffff6040608001511660ff61044b6001600160a01b0360805116614f69565b16906150d2565b6104666001600160a01b0360805116614946565b60a051610100516040517fbc2be1be0000000000000000000000000000000000000000000000000000000081526024803560048301529091602091839182906001600160a01b03165afa80156143055760249160009161471d575b5060206001600160a01b03608080015116604051938480927f9067b677000000000000000000000000000000000000000000000000000000008252823560048301525afa801561430557610528926000916146ee575b5064ffffffffff809116911661541d565b61012051610180519092916105b2602161054f60646105488187066158c3565b95046155e2565b6040519481610568879351809260208087019101614826565b820161057d8251809360208085019101614826565b017f250000000000000000000000000000000000000000000000000000000000000060208201520360018101855201836148df565b610100608001519260c060800151956101206080015197604051996105d68b61486e565b8a5260208a015260408901526060880152608087015260a086015260c085015260e0840152610100830152610120820152604051806101c081011067ffffffffffffffff6101c083011117614311576101c0810160405260608152600060208201526000604082015260608082015260006080820152606060a0820152600060c0820152600060e08201526060610100820152600061012082015260006101408201526060610160820152600061018082015260006101a082015260a08201516106a660c08401518451906159cf565b906109b361015c604051926106ba846148c3565b600884527f50726f677265737300000000000000000000000000000000000000000000000060208501526107236040516106f38161488b565b60009052855160208701207fc5d2460186f7233c927e7db2dcc703c0e500b653ca82273b7bfad8045d85a4701490565b156146e6576090945b610735866155e2565b916040519586938493661e339034b21e9160c91b60208601526109818351958692610767846027840160208901614826565b6d11103334b6361e9111b33333111f60911b602785840101526c1e3932b1ba103bb4b23a341e9160991b603585840101526107ae8551809660206042888701019101614826565b7f22206865696768743d22313030222066696c6c2d6f7061636974793d222e3033828501860160428101919091527f222072783d223135222072793d22313522207374726f6b653d2223666666222060628201527f7374726f6b652d6f7061636974793d222e3122207374726f6b652d77696474686082820152651e911a11179f60d11b60a28201527f3c7465787420783d2232302220793d2233342220666f6e742d66616d696c793d60a88201527f2227436f7572696572204e6577272c417269616c2c6d6f6e6f7370616365222060c8820152703337b73a16b9b4bd329e911919383c111f60791b60e88201528651966108b491889160f990910190602001614826565b661e17ba32bc3a1f60c91b8285018601870160f98101919091527f3c7465787420783d2232302220793d2237322220666f6e742d66616d696c793d6101008201527f2227436f7572696572204e6577272c417269616c2c6d6f6e6f73706163652220610120820152703337b73a16b9b4bd329e91191b383c111f60791b61014082015287519761094f91899161015190910190602001614826565b661e17ba32bc3a1f60c91b6101518888888887010101010152602061015888888885519c8d9701010101019101614826565b631e17b39f60e11b90860190910190910190910190910161015881019190915281900361013c810190915201826148df565b6101008301526101208201526028610100830151604051906109d48261488b565b60008252610c7a61015c604051926109eb846148c3565b600684527f53746174757300000000000000000000000000000000000000000000000000006020850152610a1e84615ccb565b610a2782615d49565b808211156146de5750945b610a3d8787016155e2565b91604051958693661e339034b21e9160c91b60208601528151610a67816027880160208601614826565b85016d11103334b6361e9111b33333111f60911b60278201526c1e3932b1ba103bb4b23a341e9160991b6035820152610aaa825180936020604285019101614826565b017f22206865696768743d22313030222066696c6c2d6f7061636974793d222e303360428201527f222072783d223135222072793d22313522207374726f6b653d2223666666222060628201527f7374726f6b652d6f7061636974793d222e3122207374726f6b652d77696474686082820152651e911a11179f60d11b60a28201527f3c7465787420783d2232302220793d2233342220666f6e742d66616d696c793d60a88201527f2227436f7572696572204e6577272c417269616c2c6d6f6e6f7370616365222060c8820152703337b73a16b9b4bd329e911919383c111f60791b60e8820152610ba682518093602060f985019101614826565b01661e17ba32bc3a1f60c91b60f98201527f3c7465787420783d2232302220793d2237322220666f6e742d66616d696c793d6101008201527f2227436f7572696572204e6577272c417269616c2c6d6f6e6f73706163652220610120820152703337b73a16b9b4bd329e91191b383c111f60791b610140820152610c3582518093602061015185019101614826565b01661e17ba32bc3a1f60c91b610151820152610c5c82518093602061015885019101614826565b01631e17b39f60e11b6101588201520361013c8101845201826148df565b610160840152016101808201526028602083015160405190610c9b8261488b565b60008252610ce561015c60405192610cb2846148c3565b600684527f416d6f756e7400000000000000000000000000000000000000000000000000006020850152610a1e84615ccb565b835201602082015261102060808301516030604051610d038161488b565b60008152610faa61015c60405194610d1a866148c3565b600886527f4475726174696f6e0000000000000000000000000000000000000000000000006020870152610d4d86615ccb565b610d5682615d49565b808211156146d65750935b610d6d602886016155e2565b91604051978893661e339034b21e9160c91b60208601528151610d97816027880160208601614826565b85016d11103334b6361e9111b33333111f60911b60278201526c1e3932b1ba103bb4b23a341e9160991b6035820152610dda825180936020604285019101614826565b017f22206865696768743d22313030222066696c6c2d6f7061636974793d222e303360428201527f222072783d223135222072793d22313522207374726f6b653d2223666666222060628201527f7374726f6b652d6f7061636974793d222e3122207374726f6b652d77696474686082820152651e911a11179f60d11b60a28201527f3c7465787420783d2232302220793d2233342220666f6e742d66616d696c793d60a88201527f2227436f7572696572204e6577272c417269616c2c6d6f6e6f7370616365222060c8820152703337b73a16b9b4bd329e911919383c111f60791b60e8820152610ed682518093602060f985019101614826565b01661e17ba32bc3a1f60c91b60f98201527f3c7465787420783d2232302220793d2237322220666f6e742d66616d696c793d6101008201527f2227436f7572696572204e6577272c417269616c2c6d6f6e6f73706163652220610120820152703337b73a16b9b4bd329e91191b383c111f60791b610140820152610f6582518093602061015185019101614826565b01661e17ba32bc3a1f60c91b610151820152610f8c82518093602061015885019101614826565b01631e17b39f60e11b6101588201520361013c8101865201846148df565b8260a08601526028810160c0860152602085015190610120860151809161018088015192839185010101605881016080890152605719906103e8030160011c8061014089015201601081016101a088015201602081016040870152010160e0840152610100830151610160840151845191615068565b6060820152604051908161010081011067ffffffffffffffff6101008401111761431157610100820160405260c782527f3c726563742077696474683d223130302522206865696768743d22313030252260208301527f2066696c7465723d2275726c28234e6f69736529222f3e3c7265637420783d2260408301527f37302220793d223730222077696474683d2238363022206865696768743d223860608301527f3630222066696c6c3d2223666666222066696c6c2d6f7061636974793d222e3060808301527f33222072783d223435222072793d22343522207374726f6b653d22236666662260a08301527f207374726f6b652d6f7061636974793d222e3122207374726f6b652d7769647460c08301527f683d2234222f3e0000000000000000000000000000000000000000000000000060e083015282519161010084015191606081015194604051611176816148a7565b603381527f3c636972636c652069643d22476c6f772220723d22353030222066696c6c3d2260208201527f75726c282352616469616c476c6f7729222f3e000000000000000000000000006040820152604051966111d38861486e565b61011c88527f3c66696c7465722069643d224e6f697365223e3c6665466c6f6f6420783d223060208901527f2220793d2230222077696474683d223130302522206865696768743d2231303060408901527f252220666c6f6f642d636f6c6f723d2268736c283233302c3231252c3131252960608901527f2220666c6f6f642d6f7061636974793d22312220726573756c743d22666c6f6f60808901527f6446696c6c222f3e3c666554757262756c656e6365206261736546726571756560a08901527f6e63793d222e3422206e756d4f6374617665733d22332220726573756c743d2260c08901527f4e6f6973652220747970653d226672616374616c4e6f697365222f3e3c66654260e08901527f6c656e6420696e3d224e6f6973652220696e323d22666c6f6f6446696c6c22206101008901527f6d6f64653d22736f66742d6c69676874222f3e3c2f66696c7465723e0000000061012089015260405197886103a081011067ffffffffffffffff6103a08b011117614311576103a0890160405261037b89527f3c706174682069643d224c6f676f222066696c6c3d2223666666222066696c6c60208a01527f2d6f7061636974793d222e312220643d226d3133332e3535392c3132342e303360408a01527f34632d2e3031332c322e3431322d312e3035392c342e3834382d322e3932332c60608a01527f362e3430322d322e3535382c312e3831392d352e3136382c332e3433392d372e60808a01527f3838382c342e3939362d31342e34342c382e3236322d33312e3034372c31322e60a08a01527f3536352d34372e3637342c31322e3536392d382e3835382e3033362d31372e3860c08a01527f33382d312e3237322d32362e3332382d332e3636332d392e3830362d322e373660e08a01527f362d31392e3038372d372e3131332d32372e3536322d31322e3737382d31332e6101008a01527f3834322d382e3032352c392e3436382d32382e3630362c31362e3135332d33356101208a01527f2e323635683063322e3033352d312e3833382c342e3235322d332e3534362c366101408a01527f2e3436332d352e323234683063362e3432392d352e3635352c31362e3231382d6101608a01527f322e3833352c32302e3335382c342e31372c342e3134332c352e3035372c382e6101808a01527f3831362c392e3634392c31332e39322c31332e373334682e30333763352e37336101a08a01527f362c362e3436312c31352e3335372d322e3235332c392e33382d382e34382c306101c08a01527f2c302d332e3531352d332e3531352d332e3531352d332e3531352d31312e34396101e08a01527f2d31312e3437382d35322e3635362d35322e3636342d36342e3833372d36342e6102008a01527f3833376c2e3034392d2e303337632d312e3732352d312e3630362d322e3731396102208a01527f2d332e3834372d322e3735312d362e3230346830632d2e3034362d322e3337356102408a01527f2c312e3036322d342e3538322c322e3732362d362e32323968306c2e3138352d6102608a01527f2e3134386830632e3039392d2e3036322c2e3232322d2e3134382c2e33372d2e6102808a01527f323539683063322e30362d312e3336322c332e3935312d322e3632312c362e306102a08a01527f34342d332e3834324335372e3736332d332e3437332c39372e37362d322e33346102c08a01527f312c3132382e3633372c31382e3333326331362e3637312c392e3934362d32366102e08a01527f2e3334342c35342e3831332d33382e3635312c34302e3139392d362e3239392d6103008a01527f362e3039362d31382e3036332d31372e3734332d31392e3636382d31382e38316103208a01527f312d362e3031362d342e3034372d31332e3036312c342e3737362d372e3735326103408a01527f2c392e3735316c36382e3235342c36382e33373163312e3732342c312e3630316103608a01527f2c322e3731342c332e38342c322e3733382c362e3139325a222f3e00000000006103808a0152604051978860a081011067ffffffffffffffff60a08b01111761431157611cb1611d129160a08b0160405260758b527f3c706174682069643d22466c6f6174696e6754657874222066696c6c3d226e6f60208c01527f6e652220643d224d31323520343568373530733830203020383020383076373560408c01527f307330203830202d3830203830682d373530732d38302030202d3830202d383060608c01527f762d3735307330202d3830203830202d3830222f3e000000000000000000000060808c0152611868615996565b906040517f3c72616469616c4772616469656e742069643d2252616469616c476c6f77223e6020820152611d0d60d87f3c73746f70206f66667365743d223025222073746f702d636f6c6f723d22000093846040850152805161199a60b88660208501936118da81605e840187614826565b8101997f222073746f702d6f7061636974793d222e36222f3e0000000000000000000000605e8c01527f3c73746f70206f66667365743d2231303025222073746f702d636f6c6f723d229a8b607382015261193f825180936020609385019101614826565b017f222073746f702d6f7061636974793d2230222f3e00000000000000000000000060938201527f3c2f72616469616c4772616469656e743e00000000000000000000000000000060a78201520360988101885201866148df565b6119a2615996565b90604051967f3c6c696e6561724772616469656e742069643d2253616e64546f70222078313d60208901527f223025222079313d223025223e000000000000000000000000000000000000006040890152604d8801528251611a0881606b8a0184614826565b8701917f222f3e00000000000000000000000000000000000000000000000000000000009283606b82015289606e820152611a4d825180936020608e85019101614826565b019082608e830152611a9160a2897f3c2f6c696e6561724772616469656e743e0000000000000000000000000000009485609182015203608281018b5201896148df565b611bd7610108611a9f615996565b6040519b8c917f3c6c696e6561724772616469656e742069643d2253616e64426f74746f6d222060208401527f78313d2231303025222079313d2231303025223e00000000000000000000000060408401527f3c73746f70206f66667365743d22313025222073746f702d636f6c6f723d22006054840152611b2b815180926020607387019101614826565b8201908760738301526076820152875190611b4a826096830188614826565b018660968201527f3c616e696d617465206174747269627574654e616d653d22783122206475723d60998201527f2236732220726570656174436f756e743d22696e646566696e6974652220766160b98201527f6c7565733d223330253b3630253b313230253b3630253b3330253b222f3e000060d98201528560f78201520360e881018c52018a6148df565b611bdf615996565b906040519a8b957f3c6c696e6561724772616469656e742069643d22486f7572676c61737353747260208801527f6f6b6522206772616469656e745472616e73666f726d3d22726f74617465283960408801527f302922206772616469656e74556e6974733d227573657253706163654f6e557360608801527f65223e000000000000000000000000000000000000000000000000000000000060808801527f3c73746f70206f66667365743d22353025222073746f702d636f6c6f723d2200608388015251809260a2880190614826565b84018360a28201527f3c73746f70206f66667365743d22383025222073746f702d636f6c6f723d220060a5820152611cf382518093602060c485019101614826565b019160c483015260c78201520360b88101875201856148df565b615068565b92611d32611d1e614c14565b896020815191012090602081519101201490565b9788156146ad575b506040518060c081011067ffffffffffffffff60c0830111176143115760c08101604052609081527f3c7061746820643d224d2035302c3336302061203330302c333030203020312c60208201527f31203630302c302061203330302c333030203020312c31202d3630302c30222060408201527f66696c6c3d2223666666222066696c6c2d6f7061636974793d222e303222207360608201527f74726f6b653d2275726c2823486f7572676c6173735374726f6b65292220737460808201527f726f6b652d77696474683d2234222f3e0000000000000000000000000000000060a082015260405193846102c081011067ffffffffffffffff6102c087011117614311576102c0850160405261029885527f3c7061746820643d226d3536362c3136312e323031762d35332e39323463302d60208601527f31392e3338322d32322e3531332d33372e3536332d36332e3339382d35312e3160408601527f39382d34302e3735362d31332e3539322d39342e3934362d32312e3037392d3160608601527f35322e3538372d32312e303739732d3131312e3833382c372e3438372d31353260808601527f2e3630322c32312e303739632d34302e3839332c31332e3633362d36332e343160a08601527f332c33312e3831362d36332e3431332c35312e3139387635332e39323463302c60c08601527f31372e3138312c31372e3730342c33332e3432372c35302e3232332c34362e3360e08601527f3934763238342e383039632d33322e3531392c31322e39362d35302e3232332c6101008601527f32392e3230362d35302e3232332c34362e3339347635332e39323463302c31396101208601527f2e3338322c32322e35322c33372e3536332c36332e3431332c35312e3139382c6101408601527f34302e3736332c31332e3539322c39342e3935342c32312e3037392c3135322e6101608601527f3630322c32312e303739733131312e3833312d372e3438372c3135322e3538376101808601527f2d32312e3037396334302e3838362d31332e3633362c36332e3339382d33312e6101a08601527f3831362c36332e3339382d35312e313938762d35332e39323463302d31372e316101c08601527f39362d31372e3730342d33332e3433352d35302e3232332d34362e34303156326101e08601527f30372e3630336333322e3531392d31322e3936372c35302e3232332d32392e326102008601527f30362c35302e3232332d34362e3430315a6d2d3334372e3436322c35372e37396102208601527f336c3133302e3935392c3133312e3032372d3133302e3935392c3133312e30316102408601527f33563231382e3939345a6d3236322e3932342e303232763236322e3031386c2d6102608601527f3133302e3933372d3133312e3030362c3133302e3933372d3133312e3031335a6102808601527f222066696c6c3d2223313631383232223e3c2f706174683e00000000000000006102a0860152896000146144885760405161218c8161488b565b60008152995b1561432757604051806101e081011067ffffffffffffffff6101e083011117614311576101e081016040526101b181527f3c7061746820643d226d3438312e34362c3438312e35347638312e3031632d3260208201527f2e33352e37372d342e38322c312e35312d372e33392c322e32332d33302e332c60408201527f382e35342d37342e36352c31332e39322d3132342e30362c31332e39322d353360608201527f2e362c302d3130312e32342d362e33332d3133312e34372d31362e3136762d3860808201527f316c34362e332d34362e3331683137302e33336c34362e32392c34362e33315a60a08201527f222066696c6c3d2275726c282353616e64426f74746f6d29222f3e3c7061746860c08201527f20643d226d3433352e31372c3433352e323363302c312e31372d2e34362c322e60e08201527f33322d312e33332c332e34342d372e31312c392e30382d34312e39332c31352e6101008201527f39382d38332e38312c31352e3938732d37362e372d362e392d38332e38322d316101208201527f352e3938632d2e38372d312e31322d312e33332d322e32372d312e33332d332e6101408201527f3434762d2e30346c382e33342d382e33352e30312d2e30316331332e37322d366101608201527f2e35312c34322e39352d31312e30322c37362e382d31312e30327336322e39376101808201527f2c342e34392c37362e37322c31316c382e34322c382e34325a222066696c6c3d6101a08201527f2275726c282353616e64546f7029222f3e0000000000000000000000000000006101c0820152995b60405196876107e081011067ffffffffffffffff6107e08a01111761431157613b9f9c612e5a6036602d9960819f97631e17b39f60e11b8d7f3c2f646566733e000000000000000000000000000000000000000000000000009a612f2b9f6107e0016040526107a782527f3c672066696c6c3d226e6f6e6522207374726f6b653d2275726c2823486f757260208301527f676c6173735374726f6b652922207374726f6b652d6c696e656361703d22726f60408301527f756e6422207374726f6b652d6d697465726c696d69743d22313022207374726f60608301527f6b652d77696474683d2234223e3c7061746820643d226d3536352e3634312c3160808301527f30372e323863302c392e3533372d352e35362c31382e3632392d31352e36373660a08301527f2c32362e393733682d2e303233632d392e3230342c372e3539362d32322e313960c08301527f342c31342e3536322d33382e3139372c32302e3539322d33392e3530342c313460e08301527f2e3933362d39372e3332352c32342e3335352d3136312e3733332c32342e33356101008301527f352d39302e34382c302d3136372e3934382d31382e3538322d3139392e3935336101208301527f2d34342e393438682d2e303233632d31302e3131352d382e3334342d31352e366101408301527f37362d31372e3433372d31352e3637362d32362e3937332c302d33392e3733356101608301527f2c39362e3535342d37312e3932312c3231352e3635322d37312e3932317332316101808301527f352e3632392c33322e3138352c3231352e3632392c37312e3932315a222f3e3c6101a08301527f7061746820643d226d3133342e33362c3136312e32303363302c33392e3733356101c08301527f2c39362e3535342c37312e3932312c3231352e3635322c37312e3932317332316101e08301527f352e3632392d33322e3138362c3231352e3632392d37312e393231222f3e3c6c6102008301527f696e652078313d223133342e3336222079313d223136312e323033222078323d6102208301527f223133342e3336222079323d223130372e3238222f3e3c6c696e652078313d226102408301527f3536352e3634222079313d223136312e323033222078323d223536352e3634226102608301527f2079323d223130372e3238222f3e3c6c696e652078313d223138342e353834226102808301527f2079313d223230362e383233222078323d223138342e353835222079323d22356102a08301527f33372e353739222f3e3c6c696e652078313d223231382e313831222079313d226102c08301527f3231382e313138222078323d223231382e313831222079323d223536322e35336102e08301527f37222f3e3c6c696e652078313d223438312e383138222079313d223231382e316103008301527f3432222078323d223438312e383139222079323d223536322e343238222f3e3c6103208301527f6c696e652078313d223531352e343135222079313d223230372e3335322220786103408301527f323d223531352e343136222079323d223533372e353739222f3e3c70617468206103608301527f643d226d3138342e35382c3533372e353863302c352e34352c342e32372c31306103808301527f2e36352c31322e30332c31352e3432682e303263352e35312c332e33392c31326103a08301527f2e37392c362e35352c32312e35352c392e34322c33302e32312c392e392c37386103c08301527f2e30322c31362e32382c3133312e38332c31362e32382c34392e34312c302c396103e08301527f332e37362d352e33382c3132342e30362d31332e39322c322e372d2e37362c356104008301527f2e32392d312e35342c372e37352d322e33352c382e37372d322e38372c31362e6104208301527f30352d362e30342c32312e35362d392e3433683063372e37362d342e37372c316104408301527f322e30342d392e39372c31322e30342d31352e3432222f3e3c7061746820643d6104608301527f226d3138342e3538322c3439322e363536632d33312e3335342c31322e3438356104808301527f2d35302e3232332c32382e35382d35302e3232332c34362e3134322c302c392e6104a08301527f3533362c352e3536342c31382e3632372c31352e3637372c32362e393639682e6104c08301527f30323263382e3530332c372e3030352c32302e3231332c31332e3436332c33346104e08301527f2e3532342c31392e3135392c392e3939392c332e3939312c32312e3236392c376105008301527f2e3630392c33332e3539372c31302e3738382c33362e34352c392e3430372c386105208301527f322e3138312c31352e3030322c3133312e3833352c31352e3030327339352e336105408301527f36332d352e3539352c3133312e3830372d31352e3030326331302e3834372d326105608301527f2e37392c32302e3836372d352e3932362c32392e3932342d392e3334392c312e6105808301527f3234342d2e3436372c322e3437332d2e3934322c332e3637332d312e3432342c6105a08301527f31342e3332362d352e3639362c32362e3033352d31322e3136312c33342e35326105c08301527f342d31392e313733682e3032326331302e3131342d382e3334322c31352e36376105e08301527f372d31372e3433332c31352e3637372d32362e3936392c302d31372e3536322d6106008301527f31382e3836392d33332e3636352d35302e3232332d34362e3135222f3e3c70616106208301527f746820643d226d3133342e33362c3539322e373263302c33392e3733352c39366106408301527f2e3535342c37312e3932312c3231352e3635322c37312e393231733231352e366106608301527f32392d33322e3138362c3231352e3632392d37312e393231222f3e3c6c696e656106808301527f2078313d223133342e3336222079313d223539322e3732222078323d223133346106a08301527f2e3336222079323d223533382e373937222f3e3c6c696e652078313d223536356106c08301527f2e3634222079313d223539322e3732222078323d223536352e3634222079323d6106e08301527f223533382e373937222f3e3c706f6c796c696e6520706f696e74733d223438316107008301527f2e383232203438312e393031203438312e373938203438312e383737203438316107208301527f2e373735203438312e383534203335302e303135203335302e303236203231386107408301527f2e313835203231382e313239222f3e3c706f6c796c696e6520706f696e74733d6107608301527f223231382e313835203438312e393031203231382e323331203438312e3835346107808301527f203335302e303135203335302e303236203438312e383232203231382e3135326107a08301527f222f3e3c2f673e000000000000000000000000000000000000000000000000006107c0830152604051998a957f3c672069643d22486f7572676c617373223e00000000000000000000000000006020880152603295612df68151809260208a8c019101614826565b8701612e0b8251809360208a85019101614826565b01612e1f8251809360208985019101614826565b01612e338251809360208885019101614826565b01612e478251809360208785019101614826565b01918201520360168101865201846148df565b6040519e8f9788977f3c646566733e000000000000000000000000000000000000000000000000000060208a0152612e9f6026998260208c9451948593019101614826565b8901612eb48251809360208c85019101614826565b01612ec88251809360208b85019101614826565b01612edc8251809360208a85019101614826565b01612ef08251809360208985019101614826565b01612f048251809360208885019101614826565b01612f188251809360208785019101614826565b019182015203600d8101895201876148df565b6137be604c60e08301516101208401519361351a61314d6060604084015193015196612f578186615c0f565b9461314861012b604051612f6a816148c3565b600581527f2d3130302500000000000000000000000000000000000000000000000000000060208201526040519889917f3c74657874506174682073746172744f66667365743d220000000000000000006020840152612fd4815180926020603787019101614826565b7f2220687265663d2223466c6f6174696e6754657874222066696c6c3d2223666683820160378101919091527f662220666f6e742d66616d696c793d2227436f7572696572204e6577272c417260578201527f69616c2c6d6f6e6f7370616365222066696c6c2d6f7061636974793d222e3822607782015271103337b73a16b9b4bd329e91191b383c111f60711b60978201527f3c616e696d6174652061646469746976653d2273756d2220617474726962757460a98201527f654e616d653d2273746172744f66667365742220626567696e3d22307322206460c98201527f75723d22353073222066726f6d3d2230252220726570656174436f756e743d2260e98201527f696e646566696e6974652220746f3d2231303025222f3e00000000000000000061010982015282519261311891849161012090910190602001614826565b6a1e17ba32bc3a2830ba341f60a91b90830190910161012081019190915281900361010b810190915201876148df565b615c0f565b9561332c61012b604051613160816148c3565b600281527f30250000000000000000000000000000000000000000000000000000000000006020820152604051998a917f3c74657874506174682073746172744f66667365743d2200000000000000000060208401526131ca815180926020603787019101614826565b82017f2220687265663d2223466c6f6174696e6754657874222066696c6c3d2223666660378201527f662220666f6e742d66616d696c793d2227436f7572696572204e6577272c417260578201527f69616c2c6d6f6e6f7370616365222066696c6c2d6f7061636974793d222e3822607782015271103337b73a16b9b4bd329e91191b383c111f60711b60978201527f3c616e696d6174652061646469746976653d2273756d2220617474726962757460a98201527f654e616d653d2273746172744f66667365742220626567696e3d22307322206460c98201527f75723d22353073222066726f6d3d2230252220726570656174436f756e743d2260e98201527f696e646566696e6974652220746f3d2231303025222f3e00000000000000000061010982015261330782518093602061012085019101614826565b016a1e17ba32bc3a2830ba341f60a91b6101208201520361010b81018a5201886148df565b6133368184615c77565b9261351561012b604051613349816148c3565b600481527f2d3530250000000000000000000000000000000000000000000000000000000060208201526040519687917f3c74657874506174682073746172744f66667365743d2200000000000000000060208401526133b3815180926020603787019101614826565b82017f2220687265663d2223466c6f6174696e6754657874222066696c6c3d2223666660378201527f662220666f6e742d66616d696c793d2227436f7572696572204e6577272c417260578201527f69616c2c6d6f6e6f7370616365222066696c6c2d6f7061636974793d222e3822607782015271103337b73a16b9b4bd329e91191b383c111f60711b60978201527f3c616e696d6174652061646469746976653d2273756d2220617474726962757460a98201527f654e616d653d2273746172744f66667365742220626567696e3d22307322206460c98201527f75723d22353073222066726f6d3d2230252220726570656174436f756e743d2260e98201527f696e646566696e6974652220746f3d2231303025222f3e0000000000000000006101098201526134f082518093602061012085019101614826565b016a1e17ba32bc3a2830ba341f60a91b6101208201520361010b8101875201856148df565b615c77565b906136f961012b60405161352d816148c3565b600381527f353025000000000000000000000000000000000000000000000000000000000060208201526040519485917f3c74657874506174682073746172744f66667365743d220000000000000000006020840152613597815180926020603787019101614826565b82017f2220687265663d2223466c6f6174696e6754657874222066696c6c3d2223666660378201527f662220666f6e742d66616d696c793d2227436f7572696572204e6577272c417260578201527f69616c2c6d6f6e6f7370616365222066696c6c2d6f7061636974793d222e3822607782015271103337b73a16b9b4bd329e91191b383c111f60711b60978201527f3c616e696d6174652061646469746976653d2273756d2220617474726962757460a98201527f654e616d653d2273746172744f66667365742220626567696e3d22307322206460c98201527f75723d22353073222066726f6d3d2230252220726570656174436f756e743d2260e98201527f696e646566696e6974652220746f3d2231303025222f3e0000000000000000006101098201526136d482518093602061012085019101614826565b016a1e17ba32bc3a2830ba341f60a91b6101208201520361010b8101855201836148df565b6040519586937f3c7465787420746578742d72656e646572696e673d226f7074696d697a65537060208601527f656564223e000000000000000000000000000000000000000000000000000000604086015261375f815180926020604589019101614826565b8401613775825180936020604585019101614826565b0161378a825180936020604585019101614826565b0161379f825180936020604585019101614826565b01661e17ba32bc3a1f60c91b604582015203602c8101845201826148df565b613a9e61019a6101408401516101a0850151906137ff6137f96137f36137ed60e060408b01519a0151946155e2565b946155e2565b976155e2565b916155e2565b956040519687937f3c75736520687265663d2223476c6f77222066696c6c2d6f7061636974793d2260208601527f2e39222f3e00000000000000000000000000000000000000000000000000000060408601527f3c75736520687265663d2223476c6f772220783d22313030302220793d22313060458601527f3030222066696c6c2d6f7061636974793d222e39222f3e00000000000000000060658601527f3c75736520687265663d22234c6f676f2220783d223137302220793d22313730607c8601527f22207472616e73666f726d3d227363616c65282e3629222f3e3c757365206872609c8601527f65663d2223486f7572676c6173732220783d223135302220793d22393022207460bc8601527f72616e73666f726d3d22726f746174652831302922207472616e73666f726d2d60dc8601527f6f726967696e3d2235303020353030222f3e000000000000000000000000000060fc8601527f3c75736520687265663d222350726f67726573732220783d220000000000000061010e8601526101279061399a815180926020858a019101614826565b8501937f2220793d22373930222f3e00000000000000000000000000000000000000000080948180948801527f3c75736520687265663d22235374617475732220783d2200000000000000000061013288015261014996613a048251809360208b85019101614826565b01958601527f3c75736520687265663d2223416d6f756e742220783d2200000000000000000061015486015261016b94613a478251809360208985019101614826565b01938401527f3c75736520687265663d22234475726174696f6e2220783d220000000000000061017684015261018f92613a8a8251809360208785019101614826565b01918201520361017a8101855201836148df565b6040519586937f3c73766720786d6c6e733d22687474703a2f2f7777772e77332e6f72672f323060208601527f30302f737667222077696474683d223130303022206865696768743d2231303060408601527f30222076696577426f783d2230203020313030302031303030223e00000000006060860152613b2a815180926020607b89019101614826565b8401613b40825180936020607b85019101614826565b01613b55825180936020607b85019101614826565b01613b6a825180936020607b85019101614826565b017f3c2f7376673e0000000000000000000000000000000000000000000000000000607b8201520360618101845201826148df565b6101605260a051610100516040517fb971302a0000000000000000000000000000000000000000000000000000000081526024803560048301529091602091839182906001600160a01b03165afa908115614305576000916142ba575b6142b661424f614154614245609487613d3b6089613c198a614946565b9260c0608001516040519485927f5b7b2274726169745f74797065223a224173736574222c2276616c7565223a226020850152613c60815180926020604088019101614826565b8301907f227d2c7b2274726169745f74797065223a2253656e646572222c2276616c756560408301527f223a22000000000000000000000000000000000000000000000000000000000091826060820152613cc5825180936020606385019101614826565b01907f227d2c7b2274726169745f74797065223a22537461747573222c2276616c756560638301526083820152613d06825180936020608685019101614826565b017f227d5d000000000000000000000000000000000000000000000000000000000060868201520360698101845201826148df565b6101a05160a05161403e61017e613d536024356155e2565b9360a060800151613d6e6001600160a01b0360805116614946565b90604051968793613f2b60208601987f54686973204e465420726570726573656e74732061207061796d656e742073748a527f7265616d20696e2061205361626c696572205632200000000000000000000000604088015282516020840190613ddb8160558b0184614826565b8801947f20636f6e74726163742e20546865206f776e6572206f662074686973204e465460558701527f2063616e207769746864726177207468652073747265616d656420617373657460758701527f732c207768696368206172652064656e6f6d696e6174656420696e2000000000609587015282516020840196613e658260b183018a614826565b017f2e5c6e5c6e2d2053747265616d2049443a20000000000000000000000000000060b1820152613ea082518093602060c385019101614826565b01613ed97f5c6e2d2000000000000000000000000000000000000000000000000000000000958660c384015251809360c7840190614826565b01947f20416464726573733a2000000000000000000000000000000000000000000000958660c7820152613f1782518093602060d185019101614826565b019260d184015251809360d5840190614826565b019060d5820152613f4682518093602060df85019101614826565b017f5c6e5c6e0000000000000000000000000000000000000000000000000000000060df8201527fe29aa0efb88f205741524e494e473a205472616e7366657272696e672074686560e38201527f204e4654206d616b657320746865206e6577206f776e657220746865207265636101038201527f697069656e74206f66207468652073747265616d2e205468652066756e6473206101238201527f617265206e6f74206175746f6d61746963616c6c792077697468647261776e206101438201527f666f72207468652070726576696f757320726563697069656e742e00000000006101638201520361015e8101855201836148df565b6101a051906141af6140516024356155e2565b916140d0602d604051809560208201976a029b0b13634b2b9102b19160ad1b8952614086815180926020602b87019101614826565b82017f2023000000000000000000000000000000000000000000000000000000000000602b8201526140c18251809360208785019101614826565b0103600d8101865201846148df565b610160516140dd90615733565b94604051998a977f7b2261747472696275746573223a00000000000000000000000000000000000060208a015261411e815180926020602e8d019101614826565b8801917f2c226465736372697074696f6e223a2200000000000000000000000000000000602e840152518093603e840190614826565b01917f222c2265787465726e616c5f75726c223a2268747470733a2f2f7361626c6965603e8401527f722e636f6d222c226e616d65223a220000000000000000000000000000000000605e840152518093606d840190614826565b017f222c22696d616765223a22646174613a696d6167652f7376672b786d6c3b6261606d8201527f736536342c000000000000000000000000000000000000000000000000000000608d820152614210825180936020609285019101614826565b017f227d00000000000000000000000000000000000000000000000000000000000060928201520360748101845201826148df565b60e0819052615733565b6142a2603d60405180937f646174613a6170706c69636174696f6e2f6a736f6e3b6261736536342c00000060208301526142928151809260208686019101614826565b810103601d8101845201826148df565b604051918291602083526020830190614849565b0390f35b90506020813d6020116142fd575b816142d5602093836148df565b810103126142f85751906001600160a01b03821682036142f85790614154613bfc565b600080fd5b3d91506142c8565b6040513d6000823e3d90fd5b634e487b7160e01b600052604160045260246000fd5b6040518061012081011067ffffffffffffffff6101208301111761431157610120810160405260f881527f3c7061746820643d226d3438312e34362c3530342e3130317635382e3434396360208201527f2d322e33352e37372d342e38322c312e35312d372e33392c322e32332d33302e60408201527f332c382e35342d37342e36352c31332e39322d3132342e30362c31332e39322d60608201527f35332e362c302d3130312e32342d362e33332d3133312e34372d31362e31367660808201527f2d35382e343339683236322e39325a222066696c6c3d2275726c282353616e6460a08201527f426f74746f6d29222f3e3c656c6c697073652063783d22333530222063793d2260c08201527f3530342e313031222072783d223133312e343632222072793d2232382e31303860e08201527f222066696c6c3d2275726c282353616e64546f7029222f3e0000000000000000610100820152996123df565b604051806101c081011067ffffffffffffffff6101c083011117614311576101c0810160405261019981527f3c706f6c79676f6e20706f696e74733d22333530203335302e3032362034313560208201527f2e3033203238342e39373820323835203238342e39373820333530203335302e60408201527f303236222066696c6c3d2275726c282353616e64426f74746f6d29222f3e3c7060608201527f61746820643d226d3431362e3334312c3238312e39373563302c2e3931342d2e60808201527f3335342c312e3830392d312e3033352c322e36382d352e3534322c372e30373660a08201527f2d33322e3636312c31322e34352d36352e32382c31322e34352d33322e36323460c08201527f2c302d35392e3733382d352e3337342d36352e32382d31322e34352d2e36383160e08201527f2d2e3837322d312e3033352d312e3736372d312e3033352d322e36382c302d2e6101008201527f3931342e3335342d312e3830382c312e3033352d322e3637362c352e3534322d6101208201527f372e3037362c33322e3635362d31322e34352c36352e32382d31322e34352c336101408201527f322e3631392c302c35392e3733382c352e3337342c36352e32382c31322e34356101608201527f2e3638312e3836372c312e3033352c312e3736322c312e3033352c322e3637366101808201527f5a222066696c6c3d2275726c282353616e64546f7029222f3e000000000000006101a082015299612192565b6146cf9198506146bb614c4d565b906020815191012090602081519101201490565b9638611d3a565b905093610d61565b905094610a32565b60d09461072c565b614710915060203d602011614716575b61470881836148df565b810190614929565b38610517565b503d6146fe565b614736915060203d6020116147165761470881836148df565b386104c1565b634e487b7160e01b600052601260045260246000fd5b614774915060203d60201161477a575b61476c81836148df565b810190614901565b3861023f565b503d614762565b506020813d6020116147b6575b8161479b602093836148df565b810103126142f8575160058110156142f8576101e5906101db565b3d915061478e565b6147d7915060203d60201161477a5761476c81836148df565b38610181565b90506020813d60201161481e575b816147f8602093836148df565b810103126142f857516001600160a01b03811681036142f8576001600160a01b03610100565b3d91506147eb565b60005b8381106148395750506000910152565b8181015183820152602001614829565b9060209161486281518092818552858086019101614826565b601f01601f1916010190565b610140810190811067ffffffffffffffff82111761431157604052565b6020810190811067ffffffffffffffff82111761431157604052565b6060810190811067ffffffffffffffff82111761431157604052565b6040810190811067ffffffffffffffff82111761431157604052565b90601f8019910116810190811067ffffffffffffffff82111761431157604052565b908160209103126142f857516fffffffffffffffffffffffffffffffff811681036142f85790565b908160209103126142f8575164ffffffffff811681036142f85790565b6001600160a01b03166040519061495c826148a7565b602a8252602082016040368237825115614a755760309053815160019060011015614a7557607860218401536029905b8082116149fa57505061499c5790565b60646040517f08c379a000000000000000000000000000000000000000000000000000000000815260206004820152602060248201527f537472696e67733a20686578206c656e67746820696e73756666696369656e746044820152fd5b9091600f81166010811015614a60577f3031323334353637383961626364656600000000000000000000000000000000901a614a3684866158b2565b5360041c918015614a4b57600019019061498c565b60246000634e487b7160e01b81526011600452fd5b60246000634e487b7160e01b81526032600452fd5b634e487b7160e01b600052603260045260246000fd5b67ffffffffffffffff811161431157601f01601f191660200190565b3d15614ad2573d90614ab882614a8b565b91614ac660405193846148df565b82523d6000602084013e565b606090565b6020818303126142f85780519067ffffffffffffffff82116142f8570181601f820112156142f8578051614b0a81614a8b565b92614b1860405194856148df565b818452602082840101116142f857614b369160208085019101614826565b90565b6000809160405160208101906395d89b4160e01b825260048152614b5c816148c3565b51915afa614b68614aa7565b90158015614c08575b614bce5780602080614b8893518301019101614ad7565b601e815111600014614b365750604051614ba1816148c3565b600b81527f4c6f6e672053796d626f6c000000000000000000000000000000000000000000602082015290565b50604051614bdb816148c3565b600581527f4552433230000000000000000000000000000000000000000000000000000000602082015290565b50604081511115614b71565b60405190614c21826148c3565b600782527f536574746c6564000000000000000000000000000000000000000000000000006020830152565b60405190614c5a826148c3565b600882527f4465706c657465640000000000000000000000000000000000000000000000006020830152565b6005811015614d6c5760048103614ca05750614b36614c4d565b60038103614ce25750604051614cb5816148c3565b600881527f43616e63656c6564000000000000000000000000000000000000000000000000602082015290565b60018103614d245750604051614cf7816148c3565b600981527f53747265616d696e670000000000000000000000000000000000000000000000602082015290565b600203614d3357614b36614c14565b604051614d3f816148c3565b600781527f50656e64696e6700000000000000000000000000000000000000000000000000602082015290565b634e487b7160e01b600052602160045260246000fd5b6001600160a01b031660409081516395d89b4160e01b8152600081600481855afa908115614f5e57600091614f3b575b50614e178351614dc1816148c3565b601181527f5341422d56322d4c4f434b55502d4c494e0000000000000000000000000000006020918201528251908301207fc66b376a19264d832c1bc254000c18944ca5aa57ed50f4ea637c4da424d4c3bb1490565b15614e5557505051614e28816148c3565b600d81527f4c6f636b7570204c696e65617200000000000000000000000000000000000000602082015290565b614eb98351614e63816148c3565b601181527f5341422d56322d4c4f434b55502d44594e0000000000000000000000000000006020918201528251908301207f6ab655856fa5352de8c05542b1937ac63c59342da992602767c02734cc5391651490565b15614ef757505051614eca816148c3565b600e81527f4c6f636b75702044796e616d6963000000000000000000000000000000000000602082015290565b614f379083519384937f814a8a2e000000000000000000000000000000000000000000000000000000008552600485015260248401526044830190614849565b0390fd5b614f5891503d806000833e614f5081836148df565b810190614ad7565b38614db2565b83513d6000823e3d90fd5b60405160208101907f313ce56700000000000000000000000000000000000000000000000000000000825260048152614fa1816148c3565b6000928392839251915afa614fb4614aa7565b9080614feb575b15614fe757602081805181010312614fe357602001519060ff82168203614fe0575090565b80fd5b5080fd5b5090565b506020815114614fbb565b60405190615003826148c3565b600482527f2667743b000000000000000000000000000000000000000000000000000000006020830152565b6040519061503c826148c3565b600482527f266c743b000000000000000000000000000000000000000000000000000000006020830152565b906150d092949360405195869260209461508a81518092888089019101614826565b840161509e82518093888085019101614826565b016150b182518093878085019101614826565b016150c482518093868085019101614826565b010380855201836148df565b565b80156153e257600091806153bd575090505b600190808281101561514e575050506150fb61502f565b614b36602260405183615118829551809260208086019101614826565b81017f203100000000000000000000000000000000000000000000000000000000000060208201520360028101845201826148df565b66038d7ea4c6800011156153605760409081519060a0820182811067ffffffffffffffff821117614311578084526151858161488b565b600081528252825190615197826148c3565b8482526020917f4b00000000000000000000000000000000000000000000000000000000000000838201528284015283516151d1816148c3565b8581527f4d0000000000000000000000000000000000000000000000000000000000000083820152848401528351615208816148c3565b8581527f42000000000000000000000000000000000000000000000000000000000000008382015260608401528351615240816148c3565b8581527f5400000000000000000000000000000000000000000000000000000000000000838201526080840152600091856000965b615334575b50845194615287866148c3565b600790600787527f2623383830353b0000000000000000000000000000000000000000000000000083880152519560005b8281106153215750505050615302615308917f20000000000000000000000000000000000000000000000000000000000000006027870152600886526152fd866148c3565b6155e2565b916158c3565b916005851015614a7557614b369460051b015192615068565b81810184015188820185015283016152b8565b9591926103e89081851061535757508680916064600a8704069504930196615275565b9392965061527a565b505061536a614ff6565b614b36602860405183615387829551809260208086019101614826565b81017f203939392e39395400000000000000000000000000000000000000000000000060208201520360088101845201826148df565b600a0a9182156153ce5750046150e4565b80634e487b7160e01b602492526012600452fd5b50506040516153f0816148c3565b600181527f3000000000000000000000000000000000000000000000000000000000000000602082015290565b6201518091030480615485575061543261502f565b614b3660266040518361544f829551809260208086019101614826565b81017f203120446179000000000000000000000000000000000000000000000000000060208201520360068101845201826148df565b61270f8111615554576001810361551157614b3660206154d96040516154aa816148c3565b600481527f204461790000000000000000000000000000000000000000000000000000000083820152936155e2565b60405193816154f18693518092868087019101614826565b820161550582518093868085019101614826565b010380845201826148df565b614b3660206154d9604051615525816148c3565b600581527f204461797300000000000000000000000000000000000000000000000000000083820152936155e2565b5061555d614ff6565b614b36602a6040518361557a829551809260208086019101614826565b81017f2039393939204461797300000000000000000000000000000000000000000000602082015203600a8101845201826148df565b906155ba82614a8b565b6155c760405191826148df565b82815280926155d8601f1991614a8b565b0190602036910137565b806000917a184f03e93ff9f4daa797ed6e38ed64bf6a1f01000000000000000080821015615725575b506d04ee2d6d415b85acef810000000080831015615716575b50662386f26fc1000080831015615707575b506305f5e100808310156156f8575b50612710808310156156e9575b5060648210156156d9575b600a809210156156cf575b60019081602161567a600187016155b0565b95860101905b61568c575b5050505090565b600019019083907f30313233343536373839616263646566000000000000000000000000000000008282061a8353049182156156ca57919082615680565b615685565b9160010191615668565b919060646002910491019161565d565b60049193920491019138615652565b60089193920491019138615645565b60109193920491019138615636565b60209193920491019138615624565b60409350810491503861560b565b80511561589e57604051615746816148a7565b604081527f4142434445464748494a4b4c4d4e4f505152535455565758595a61626364656660208201527f6768696a6b6c6d6e6f707172737475767778797a303132333435363738392b2f6040820152815191600292600281018091116158885760038091047f3fffffffffffffffffffffffffffffffffffffffffffffffffffffffffffffff81168103615888576157e5906002959492951b6155b0565b936020850193839284518501935b84811061583557505050505060039051068060011461582257600214615817575090565b603d90600019015390565b50603d9081600019820153600119015390565b8360049197929394959701918251600190603f9082828260121c16880101518453828282600c1c16880101518385015382828260061c1688010151888501531685010151868201530195939291906157f3565b634e487b7160e01b600052601160045260246000fd5b506040516158ab8161488b565b6000815290565b908151811015614a75570160200190565b806158d557506040516158ab8161488b565b600a81101561593a576158e7906155e2565b614b36602260405180937f2e30000000000000000000000000000000000000000000000000000000000000602083015261592a8151809260208686019101614826565b81010360028101845201826148df565b615943906155e2565b614b36602160405180937f2e0000000000000000000000000000000000000000000000000000000000000060208301526159868151809260208686019101614826565b81010360018101845201826148df565b604051906159a3826148c3565b601082527f68736c283233302c3231252c31312529000000000000000000000000000000006020830152565b8015615c01576159dd615996565b9061271090810390811161588857614b36916159fb610136926155e2565b6040519485927f3c672066696c6c3d226e6f6e65223e000000000000000000000000000000000060208501527f3c636972636c652063783d22313636222063793d2235302220723d2232322220602f8501527f7374726f6b653d22000000000000000000000000000000000000000000000000604f850152615a87815180926020605788019101614826565b83017f22207374726f6b652d77696474683d223130222f3e000000000000000000000060578201527f3c636972636c652063783d22313636222063793d2235302220706174684c656e606c8201527f6774683d2231303030302220723d22323222207374726f6b653d220000000000608c820152615b0f82518093602060a785019101614826565b017f22207374726f6b652d6461736861727261793d22313030303022207374726f6b60a78201527f652d646173686f66667365743d2200000000000000000000000000000000000060c7820152615b7082518093602060d585019101614826565b017f22207374726f6b652d6c696e656361703d22726f756e6422207374726f6b652d60d58201527f77696474683d223522207472616e73666f726d3d22726f74617465282d39302960f58201527f22207472616e73666f726d2d6f726967696e3d22313636203530222f3e000000610115820152631e17b39f60e11b610132820152036101168101845201826148df565b50506040516158ab8161488b565b60306150d0919392936040519481615c31879351809260208087019101614826565b820164010714051160dd1b60208201526a029b0b13634b2b9102b19160ad1b6025820152615c688251809360208785019101614826565b010360108101855201836148df565b60256150d0919392936040519481615c99879351809260208087019101614826565b820164010714051160dd1b6020820152615cbc8251809360208785019101614826565b010360058101855201836148df565b60009080518015615d4157906000916000915b818310615cf057505050600d02900390565b909193603b60f81b7fff00000000000000000000000000000000000000000000000000000000000000615d2387856158b2565b511614615d39575b600d01936001019190615cde565b849350615d2b565b505050600090565b60009080518015615d4157906000916000915b818310615d6e5750505060041b900390565b909193603b60f81b7fff00000000000000000000000000000000000000000000000000000000000000615da187856158b2565b511614615db7575b601001936001019190615d5c565b849350615da956fea164736f6c6343000817000a",
    "linkReferences": {}
  },
  "methodIdentifiers": {
    "tokenURI(address,uint256)": "e9dc6375"
  },
  "id": 81
}